:100000000C9464020C949F020C949F020C949F0227
:100010000C949F020C949F020C949F020C949F02DC
:100020000C949F020C949F020C949F020C949F02CC
:100030000C949F020C949F020C949F020C949F02BC
:100040000C9455200C949F020C9437230C94852318
:100050000C949F020C949F020C949F020C949F029C
:100060000C941B080C949F026170692E636F736D72
:100070002E636F6D0057726F7465204645454420AE
:10008000494420746F20454550524F4D3A20005747
:10009000726F746520415049204B455920746F2080
:1000A000454550524F4D3A20003E3E41435449563B
:1000B000415445443C3C002F76322F646576696399
:1000C00065732F003C3C3C20524551200020746950
:1000D0006D65732C2072657374617274696E67004C
:1000E00050726F766973696F6E696E6720666169B9
:1000F0006C6564200046454544204C454E475448B5
:10010000203D2000415049204B4559204C454E4749
:100110005448203D20003E3E3E464F554E4420462A
:100120004545445F49440A00666565645F6964004B
:100130003E3E3E464F554E44204150494B45590A9C
:10014000006170696B657900546F6B656E3A2000D1
:100150003E3E3E2050524F564953494F4E494E471E
:100160002043414C4C4241434B00556E696E6974CB
:1001700069616C697A6564202D20746573742076DA
:10018000616C7565203D200050726576696F7573EE
:100190006C792070726F766973696F6E6564002F79
:1001A000616374697661746500636F6D7075746501
:1001B000207368613A200053657269616C20233AAC
:1001C00020005352563A2000444E53206661696C19
:1001D000656400444E533A200047573A2000495086
:1001E0003A200044484350206661696C656420727F
:1001F0006573657474696E67004661696C65642037
:10020000746F206163636573732045746865726EF3
:10021000657420636F6E74726F6C6C6572004567F5
:10022000672053657269616C20233A2020003A00F0
:1002300030000A5B416972205175616C69747920E4
:10024000456767202D20426173652053656E736F8B
:10025000722050726F766973696F6E696E67202DB8
:100260002076322E305D00000108000604000145B2
:100270000000820000400020504F535420244620AC
:10028000485454502F312E300D0A486F73743A2061
:1002900024460D0A244624534163636570743A2052
:1002A0002A2F2A0D0A436F6E74656E742D4C656E8D
:1002B0006774683A2024440D0A436F6E74656E7447
:1002C0002D547970653A206170706C69636174694E
:1002D0006F6E2F782D7777772D666F726D2D757213
:1002E0006C656E636F6465640D0A0D0A24530047E4
:1002F0004554202446245320485454502F312E3046
:100300000D0A486F73743A2024460D0A24460D0ADC
:100310000D0A004163636570743A20746578742F28
:1003200068746D6C00E30004FA000100000001989D
:100330002F8A4291443771CFFBC0B5A5DBB5E95B8D
:10034000C25639F111F159A4823F92D55E1CAB9887
:10035000AA07D8015B8312BE853124C37D0C557476
:100360005DBE72FEB1DE80A706DC9B74F19BC1C14D
:10037000699BE48647BEEFC69DC10FCCA10C246FDC
:100380002CE92DAA84744ADCA9B05CDA88F976528B
:10039000513E986DC631A8C82703B0C77F59BFF337
:1003A0000BE0C64791A7D55163CA06672929148572
:1003B0000AB72738211B2EFC6D2C4D130D385354D2
:1003C000730A65BB0A6A762EC9C281852C7292A116
:1003D000E8BFA24B661AA8708B4BC2A3516CC71919
:1003E000E892D1240699D685350EF470A06A1016CD
:1003F000C1A419086C371E4C774827B5BCB034B37C
:100400000C1C394AAAD84E4FCA9C5BF36F2E68EE7B
:10041000828F746F63A5781478C8840802C78CFA39
:10042000FFBE90EB6C50A4F7A3F9BEF27871C667DB
:10043000E6096A85AE67BB72F36E3C3AF54FA57F5D
:10044000520E518C68059BABD9831F19CDE05B011F
:1004500023456789ABCDEFFEDCBA9876543210F0B5
:10046000E1D2C300000000240027002A00000000A1
:1004700000250028002B0000000000230026002992
:10048000000404040404040404020202020202033D
:100490000303030303010204081020408001020447
:1004A00008102001020408102000000007000201CB
:1004B0000000030406000000000000000000C70365
:1004C0007D07061CEF1EF124EDE4F7E085EC98E0D3
:1004D00001C08193EF3FF907E0F3D9F311241FBE68
:1004E000CFEFD8E0DEBFCDBF14BE88E10FB6F894E1
:1004F00080936000109260000FBE11E0A0E0B1E0B8
:10050000E4EDFBE402C005900D92AA3AB107D9F7D9
:1005100017E0AAEAB1E001C01D92AD34B107E1F7DE
:1005200014E0C8ECD4E004C02297FE010E94AD257F
:10053000CE3BD107C9F70E9447250C94E8250C94BF
:100540000000FB01DC0102C005900D9241505040BB
:10055000D8F70895FB01DC010D900020E9F7119711
:1005600005900D920020E1F70895FB01DC01415058
:10057000504030F08D910590801919F40020B9F7A2
:10058000881B990B08954AEA51E00E94F3020895EE
:10059000FB01DC0104C08D910190801921F44150D0
:1005A0005040C8F7881B990B0895FB01DC0102C07D
:1005B00001900D9241505040D8F70895FB01DC01A5
:1005C00001900D920020E1F70895FB01DC014150FC
:1005D000504030F08D910190801919F40020B9F746
:1005E000881B990B0895009731F4DA018D919C9145
:1005F000009709F40EC0DC01FB013D9121912223FB
:1006000019F03217C9F3FACF332331F4DA011D920E
:100610001C928827992708951197AF93BF93FB01E8
:100620003D912191321771F4332321F488279927C2
:10063000119702C01E921196FA01A193B0839F9167
:100640008F910895222369F7EACFA0E0B0E0EBE2B2
:10065000F3E00C94BB25EC017B018A01690109C020
:10066000CE012196F70161917F01F60109950150B4
:10067000104001151105A1F7CDB7DEB7E8E00C94E5
:10068000D725FA01CF93FF93EF93223044F125321F
:1006900034F5C22FE894CA3049F497FB3EF49095A4
:1006A0008095709561957F4F8F4F9F4F2C2F3327EB
:1006B00044275527FF93EF930E948925EF91FF91DF
:1006C000605D6A330CF0695D6193B901CA016050E5
:1006D00070408040904051F716F4CDE2C1931082F3
:1006E0008F919F91CF910C947503DC01FC01672FD2
:1006F00071917723E1F7329704C07C916D937083F9
:100700006291AE17BF07C8F3089508959C01F99947
:10071000FECF1FBA32BD21BD60BD0FB6F894FA9A64
:10072000F99A0FBE08950F931F93CF93DF938B0118
:10073000BC01E80120E030E0A42FB0E01BC0FB01C9
:100740008081E82FF0E094E0F595E7959A95E1F740
:10075000EB5AFE4F80818883FB018191BF01E82F16
:10076000F0E0EF70F070EB5AFE4F808189832F5FCD
:100770003F4F22962A173B0714F3AA0FBB1FA00F67
:10078000B11F1C92DF91CF911F910F9108958CEAB8
:1007900091E068EB73E00E94920A8DEA91E00E947A
:1007A000CA090895EF92FF920F931F937C0182E391
:1007B00090E0B70141E150E026E833E00E942503D4
:1007C0000BE217E0C80165E770E00E947321C801E1
:1007D000B7010E9423231F910F91FF90EF9008957E
:1007E000EF92FF920F931F937C0181E090E0B7019D
:1007F00041E350E026E833E00E9425030BE217E0D6
:10080000C8016FE870E00E947321C801B7010E941F
:1008100023231F910F91FF90EF900895CF92DF92C5
:10082000EF92FF920F931F93CF93DF93182F7B01CB
:100830006A018BE297E060E571E00E94BE218BE2E5
:1008400097E0612F70E04AE050E00E9401238BE2C4
:1008500097E0B7014AE050E00E9401238BE297E065
:10086000B6014AE050E00E940123C7018D539E4F1C
:1008700060E071E00E94C302EC0110E000E0EE24B1
:10088000CC248FC08BE297E068E471E00E94732172
:100890008BE297E0BE010E942323002351F0CE019A
:1008A0000E94F003FE0101900020E9F73197EE2E3F
:1008B000EC1A112351F0CE010E94D203FE010190E7
:1008C0000020E9F73197CE2ECC1ACE0161E471E019
:1008D00046E050E00E94B502892B11F000E007C00D
:1008E0008BE297E060E371E00E94732101E0CE01AA
:1008F00068E271E046E050E00E94B502892B11F0F9
:1009000010E007C08BE297E066E171E00E9473217E
:1009100011E0CC2009F43EC0EE2009F43BC081E098
:100920008093B7038BE297E064E071E00E9473214B
:100930008BE297E06E2D4AE050E00E9490228BE21D
:1009400097E065EF70E00E9473218BE297E06C2DD9
:100950004AE050E00E949022F999FECF1FBA12BCE3
:1009600011BC83E780BD0FB6F894FA9AF99A0FBECE
:1009700068EE73E080E090E00E94AB2028E088E120
:1009800090E00FB6F894A895809360000FBE209376
:100990006000FFCF80E090E060E071E00E94C30261
:1009A000EC01209709F06ECFDF91CF911F910F914D
:1009B000FF90EF90DF90CF900895BF92CF92DF929B
:1009C000EF92FF920F931F93DF93CF93CDB7DEB7D4
:1009D00064970FB6F894DEBF0FBECDBF6C01DE0189
:1009E0001196E1E4F1E084E101900D928150E1F78C
:1009F00003EC11E082E1F80111928A95E9F78BE2AC
:100A000097E067EB71E00E947321780100E010E04D
:100A10002AE3B22EC80188549C4FB70141E00E94DE
:100A20009303053019F4F701128202C0F701B28274
:100A30000F5F1F4F83E090E0E80EF91E06301105AE
:100A400049F78BE297E063EC71E00E9423238BE28D
:100A500097E069EA71E00E94BE2189EE95E0BE014F
:100A60006F5F7F4F44E150E00E94661F89EE95E082
:100A700063EC71E00E94202389EE95E00E94131F31
:100A8000B60144E10E9493038BE297E065E071E0D8
:100A90000E9420230E946F18BC018BE297E04AE07D
:100AA00050E00E946122C6016FE971E00E94AA0233
:100AB0008BE297E0B6010E942323F60113AA649605
:100AC0000FB6F894DEBF0FBECDBFCF91DF911F915F
:100AD0000F91FF90EF90DF90CF90BF9008955F92BD
:100AE0006F927F928F929F92AF92BF92CF92DF923E
:100AF000EF92FF920F931F93DF93CF93CDB7DEB7A3
:100B0000E4970FB6F894DEBF0FBECDBF8E010F5F26
:100B10001F4FC8010E94DD041092B70340E1C42EAC
:100B200047E2D42EE12CF12CAA24BB24502E012F15
:100B300026C08BE297E060EE70E00E9473218BE2AA
:100B400097E064E070E04AE050E00E94EE228BE221
:100B500097E06DEC70E00E94BE2168EE73E080E0EB
:100B600090E00E94AB2028E088E190E00FB6F89476
:100B7000A895809360000FBE20936000FFCF0E9475
:100B8000E2160E94150F0E949D203B014C01C616E3
:100B9000D706E806F90698F78BE297E00E949E21B7
:100BA0008091B703882391F58BE297E064EC70E0C5
:100BB0000E94732187EB90E0652D702F48E650E08E
:100BC0002EE034E00E94080D0894A11CB11C8BE2B9
:100BD00097E065E071E00E9420230E946F18BC013D
:100BE0008BE297E04AE050E00E94612284E0A81680
:100BF000B10409F49ECF38E9C32E3AE3D32EE12C99
:100C0000F12CC60CD71CE81CF91CB9CF8BE297E07D
:100C100069EA70E00E94BE21E4960FB6F894DEBF48
:100C20000FBECDBFCF91DF911F910F91FF90EF903D
:100C3000DF90CF90BF90AF909F908F907F906F90FC
:100C40005F9008951F93F999FECF12BC11BCF89ADA
:100C500010B5133739F48BE297E068E871E00E9431
:100C6000BE2115C08BE297E06AE671E00E94732115
:100C70008BE297E0612F40E150E00E94902281E0FA
:100C80000E94420D0E946F0580E00E94420D1F915C
:100C90000895FF920F931F93CF93DF93E3ECF1E05E
:100CA00082E1DF011D928A95E9F78F01C0E0D0E073
:100CB0005AE3F52ECE0188549C4FB80141E00E94C2
:100CC0009303C53019F4F801128203C0D8011296BB
:100CD000FC9221960D5F1F4FC630D10559F78BE26C
:100CE00097E00E949E218BE297E06EE172E00E9405
:100CF00073218BE297E063EC71E00E9423238BE287
:100D000097E00E949E2184EF91E068EB73E048E059
:100D10000E94DC0A882331F48BE297E069EF71E0EE
:100D20000E94BE210E94D614882391F48BE297E0A2
:100D300063EE71E00E94BE2128E088E190E00FB6EA
:100D4000F894A895809360000FBE20936000FFCFB9
:100D50008BE297E06EED71E00E94732183EA94E0EC
:100D60000E94450C8BE297E00E949E218BE297E067
:100D700069ED71E00E9473218BEA94E00E94450CBA
:100D80008BE297E00E949E218BE297E063ED71E099
:100D90000E94732183EB94E00E94450C8BE297E064
:100DA0000E949E218BE297E065E071E00E94202383
:100DB0000E946F18BC018BE297E04AE050E00E946D
:100DC000612288E690E060E00E940B15882331F4F0
:100DD0008BE297E068EC71E00E94BE218BE297E025
:100DE00062EC71E00E94732187EB94E00E94450C55
:100DF0008BE297E00E949E210E946D16DF91CF91B9
:100E00001F910F91FF9008951F93CF93DF93EC01F3
:100E100010E088818A3030F48BE297E060E372E082
:100E20000E9473218BE297E0688140E150E00E94CC
:100E30007E22153031F08BE297E06EE272E00E9484
:100E400073211F5F2196163021F78BE297E00E94F5
:100E50009E21DF91CF911F9108950F931F930BE275
:100E600017E0C80140E052EC61E070E00E94C0234E
:100E7000C80162E372E00E94BE21C8016DE071E02A
:100E80000E94202388EB93E00E9404070E944906F9
:100E90000E9422061F910F9108952091DF0330E0F8
:100EA0008091DE03281B3109C90108954091DE03BA
:100EB0008091DF03481718F02FEF3FEF0AC0E42FAF
:100EC000F0E0E254FC4F8081282F30E04F5F4093E8
:100ED000DE03C9010895E091DE038091DF03E81786
:100EE00018F0EFEFFFEF06C0F0E0E254FC4F808116
:100EF000E82FF0E0CF0108950895109206041092B3
:100F0000050488EE93E0A0E0B0E08093070490939E
:100F10000804A0930904B0930A0489E691E0909331
:100F20000404809303040895CF92DF92EF92FF921E
:100F30000F931F93CF93DF937C016B018A01809104
:100F400002048823A1F0C0E0D0E00DC0D701ED91EC
:100F5000FC91D601AC0FBD1F0190F081E02DC701BF
:100F60006C9109952196C017D10780F304C0CB017D
:100F7000642F0E940008C801DF91CF911F910F914B
:100F8000FF90EF90DF90CF900895DF93CF930F9273
:100F9000CDB7DEB7FC016983809102048823C9F0D4
:100FA00080910104803238F081E090E09383828365
:100FB00020E030E015C080910004E82FF0E0E0521E
:100FC000FC4F998190838F5F80930004809301048C
:100FD00005C0CE01019661E00E94000821E030E0EA
:100FE000C9010F90CF91DF9108951092DE03109206
:100FF000DF0310920004109201040E94AC090895CE
:10100000482F613210F081E0089580910F04843000
:1010100011F082E0089560935A04A9E3B4E0842FAC
:101020009C01F90102C081918D938E2F841B86173C
:10103000D0F380E008951F920F920FB60F92112403
:101040002F933F934F935F936F937F938F939F93D0
:10105000AF93BF93EF93FF938091B90090E0887FA7
:1010600090708036910509F4F2C081369105CCF577
:101070008832910509F47BC089329105B4F480313E
:10108000910509F46FC0813191053CF4009709F492
:1010900047C1089709F04FC165C08831910509F42F
:1010A00066C0809709F047C182C08034910509F479
:1010B000A4C08134910544F48033910509F482C0C1
:1010C000C89709F038C189C08035910509F489C0F5
:1010D0008835910509F496C08834910509F02BC133
:1010E000AEC08839910509F413C189399105ECF432
:1010F0008837910509F4ABC0893791054CF48836DF
:10110000910509F4A4C08037910509F014C19FC06E
:101110008838910509F4FCC08039910509F49DC017
:101120008038910509F007C198C0803B910509F40A
:10113000C6C0813B91054CF4803A910509F49FC0EB
:10114000883A910509F0F7C0BAC0803C910509F4CE
:10115000E3C0883C910509F4DFC0883B910509F0A4
:10116000EAC0C2C0809110048093BB00CFC09091B0
:10117000370480913804981768F490913704E92F68
:10118000F0E0E95EFB4F80818093BB009F5F90930E
:101190003704BCC080911104882309F44BC085ED4D
:1011A0008093BC008091BC0084FDFCCFC2C080E273
:1011B00080937C0485ED8093BC008091BC0084FD0D
:1011C000FCCFB7C080E380937C0485ED8093BC00A6
:1011D0008091BC0084FDFCCFACC088E380937C048C
:1011E0009BC0809137049091BB00E82FF0E0E95E4E
:1011F000FB4F90838F5F80933704909137048091E9
:10120000380482C0809137049091BB00E82FF0E051
:10121000E95EFB4F90838F5F8093370480911104C8
:10122000882341F085ED8093BC008091BC0084FD53
:10123000FCCF7FC081E08093120484EA6EC085ED0C
:101240008093BC008091BC0084FDFCCF72C083E021
:1012500080930F0410927B0459C080917B048032EC
:1012600008F056C080917B049091BB00E82FF0E01D
:10127000E55AFB4F90838F5F80937B0447C080913A
:101280007B04803230F4E0917B04F0E0E55AFB4FC0
:10129000108285ED8093BC008091BC0084FDFCCF62
:1012A00010920F0460917B04E0911504F0911604F4
:1012B0008BE594E070E0099510927B042DC084E0EA
:1012C00080930F041092590410925A04E091130471
:1012D000F0911404099580915A04882329F481E03F
:1012E00080935A041092390490915904E92FF0E048
:1012F000E75CFB4F80818093BB009F5F9093590414
:101300009091590480915A04981710F485EC01C00B
:1013100085E88093BC000FC085EC8093BC0009C0B9
:1013200010927C0485ED8093BC008091BC0084FD0C
:10133000FCCF10920F04FF91EF91BF91AF919F915D
:101340008F917F916F915F914F913F912F910F906E
:101350000FBE0F901F90189510920F0481E080939C
:1013600011041092120482E161E00E94012083E1E5
:1013700061E00E940120E9EBF0E080818E7F8083B4
:1013800080818D7F808388E48093B80085E480939A
:10139000BC0008950F931F938C0183E094E00E949A
:1013A000F507F801108211821F910F9108950F9394
:1013B0001F93579889E090E00E94042109B184E1CD
:1013C00090E00E94042119B189E090E00E9404217C
:1013D00017FD02C080E005C0802F8095881F8827F8
:1013E000881F1F910F9108956F927F928F929F9205
:1013F000AF92BF92CF92DF92FF920F931F93CF9342
:10140000DF935C013B016A0100E010E04A010894AF
:10141000810891082AC0FF24C0E0D0E0C5010E94E5
:10142000D709FF0CF82A2196C830D105B9F7579A89
:101430000815190539F45F9A84E190E00E940421AF
:101440005F9806C05F9884E190E00E9404215F9A53
:1014500084E190E00E940421C5010E94D709F301B4
:10146000E00FF11FF0820F5F1F4F0C151D059CF25E
:10147000DF91CF911F910F91FF90DF90CF90BF90A0
:10148000AF909F908F907F906F900895EF92FF9212
:101490001F93CF93DF937C01162F579AC0E0D0E0C3
:1014A00017FF07C05F9884E190E00E9404215F9AD3
:1014B00006C05F9A84E190E00E9404215F9884E175
:1014C00090E00E9404212196C830D10511F0110F3F
:1014D000E7CF5F9884E190E00E9404215F9A84E165
:1014E00090E00E940421C7010E94D709DF91CF91AB
:1014F0001F91FF90EF9008950F931F938C015F98B9
:1015000086E090E00E940421C80165E50E94460A39
:101510001F910F910895579A5F9A88E592E00E9473
:1015200004210895EF92FF920F931F938C017B018A
:10153000F8940E948B0AC8010E947C0AC80160EAE4
:101540000E94460AC80163E00E94460AC80160E0A2
:101550000E94460AC8016AEF0E94460AC801B70104
:1015600046E050E00E94F409C8010E948B0A78947A
:101570001F910F91FF90EF900895CF93DF93EC01AF
:101580009B018A30910548F06AE070E00E94752561
:10159000CB01B9010E94BD0A9C01CE016AE070E056
:1015A0000E947525805DF9018193D90111961C92E5
:1015B000CF01DF91CF910895AF92BF92CF92DF928A
:1015C000FF920F931F93CF93DF938C01EB01F42EC7
:1015D0001092BB0438E341E050E060E070E018C0D6
:1015E000832F90E0FC01B3E0F595E795BA95E1F71C
:1015F000E358FB4F877090705A016B0104C0AA0C2E
:10160000BB1CCC1CDD1C8A95D2F720812A292083A3
:10161000315031F78DE994E0BE010E94660CC8019B
:101620006DE974E04F2D0E94C717DF91CF911F9194
:101630000F91FF90DF90CF90BF90AF900895CF9221
:10164000DF92EF92FF920F931F93DF93CF93CDB76B
:10165000DEB7EB84FC84CD84DE84DE011F9601C0FE
:10166000D801F6018491882309F4BAC00894C11CFA
:10167000D11C843209F097C0F6010894C11CD11C1A
:101680008491863409F45DC0873434F4843469F07D
:10169000853409F088C06CC08C34B9F1833509F405
:1016A00043C0883409F07FC00BC08D010E5F1F4F0F
:1016B000F701668177818D919C910E94BD0A7EC061
:1016C0002C91822F992787FD909514E09595879509
:1016D0001A95E1F78F702F702A300CF0295F8A304D
:1016E0000CF0895F8D010E5F1F4FF701A681B78156
:1016F000805DFD018193205D11962C933196D70179
:101700001796FC93EE931697ABCF8D010C5F1F4F8E
:101710006D917D918D919C91F701468157812AE0D1
:1017200030E00E9441034AC08D010E5F1F4F6D9152
:101730007C91D70116968D919C9117970E94DE029D
:101740003DC08D010E5F1F4F2D913C910AC0D70106
:101750001696ED91FC91179781931796FC93EE9353
:101760001697F9012F5F3F4F8491882381F778CF37
:101770008D010E5F1F4F2D913C910AC0D701169627
:10178000ED91FC91179781931796FC93EE93169722
:10179000F999FECF32BD21BDF89A80B52F5F3F4F3A
:1017A000882361F75DCFF70126813781F9018193A5
:1017B0009F01F701378326838D0152CFD7011696FB
:1017C0008D919C911797FC0101900020E9F73197CA
:1017D000E81BF90B8E0F9F1FF7019783868340CF7D
:1017E000CF91DF911F910F91FF90EF90DF90CF90FD
:1017F00008958091E504811181E00895CF92DF92F0
:10180000EF92FF920F931F93CF93DF93CDEBD4E032
:1018100030E0CC24DD2429C02A814B818091E7016E
:1018200090E0042F10E080179107D9F49091E8011F
:101830009217B9F48C818823A1F02091EA0130E05D
:1018400028503040F090E901EE242E0D3F1DE88134
:10185000F981892F942F6DED71E04DEE51E00995DE
:1018600031E00894C11CD11C25968091E50490E0DC
:10187000C816D9068CF2832FDF91CF911F910F915B
:10188000FF90EF90DF90CF9008950F931F93CF9329
:10189000DF938C01C0E0D0E0F801EC0FFD1F8BE27C
:1018A00097E060814AE050E00E947E22C33029F038
:1018B0008BE297E06EE20E9496212196C430D1051A
:1018C00059F7DF91CF911F910F910895DC01FB0132
:1018D00086E001900D928150E1F708959C01FB0193
:1018E00080819181A281B381F90180839183A28358
:1018F000B3830895FC01A681B7816D93B783A68356
:1019000081E090E00895DF92EF92FF920F931F9392
:10191000CF93DF93D82E862FBA01213041F4675F31
:101920007F4F9B0140E050E0695070400EC0223074
:1019300029F020E030E040E050E007C06250704005
:101940009B0140E050E06E5F7F4FE82EFF2483EC68
:1019500091E0E80EF91E8B01E7010FC0F881E0E08D
:10196000898190E08E2B9F2BA0E0B0E0280F391FDB
:101970004A1F5B1F2296025010400230110570F77B
:10198000CB018E7FD701A80FB91F6817790779F0AF
:101990008C9190E0A0E0B0E0BA2FA92F982F882773
:1019A00002C040E050E0280F391F4A1F5B1FCA01E8
:1019B000AA27BB270097A105B10599F7C901809512
:1019C0009095ED2DF0E0ED53FE4F90838183DF91F4
:1019D000CF911F910F91FF90EF90DF90089510929B
:1019E000DB011092DC0180E48093D7011092D801D2
:1019F0008093D90188E16EE044E150E020E00E944C
:101A0000830C08958091E6048695809581700895F1
:101A10009093FB048093FA0470930505609304058A
:101A20005093FD044093FC0483E193E09093FF0402
:101A30008093FE0410920105109200053093030577
:101A400020930205309124012091250185E392E144
:101A50009093EE048093ED0486E791E19093F00477
:101A60008093EF042093E9043093EA0481E08093AB
:101A7000E7048091E8048F5F87708093E804809387
:101A8000F90408958093BC0408950F931F93BC013B
:101A900003EC11E0C8010E94660CC80106966DE9CE
:101AA00074E00E94660C1F910F910895EF92FF92CF
:101AB0000F931F937B010E94450D01EE11E0C801B9
:101AC000B7010E946E0CC801049763EA74E00E949B
:101AD0006E0C1F910F91FF90EF900895EF92FF927F
:101AE0000F931F93CF93DF937C01EB018A0181EF6A
:101AF00094E00E94560D8881807F803E49F0888165
:101B00009981AA81BB818F5F9F4FAF4FBF4F31F447
:101B100083EC91E065E771E00E94660C88E08093B9
:101B2000CF011092D00181ED91E06FE672E049E0C3
:101B300050E00E94A1021092D30181E18093DA016A
:101B40001093E7010093E801F092E501E092E601CD
:101B50001092E9011092EB011092EC01DF91CF910C
:101B60001F910F91FF90EF900895EF92FF920F93C6
:101B70001F9309EC11E0C8010E94450D74E1E72EA6
:101B8000F12CE00EF11EC8014896B7010E946E0CC0
:101B9000C70163EA74E00E946E0C0E94EF0C1F9173
:101BA0000F91FF90EF900895BC0181E08093E604CF
:101BB0008BEA94E00E946E0C08950F931F938C01A2
:101BC00088969093D3018093D4010E94EF0C1092D9
:101BD000F5011092F601045E1F4F82E36AE1A8014D
:101BE00022E00E94830CC8014A960E946B171F9145
:101BF0000F910895CF93DF939C01862F806180938E
:101C0000F201643029F02115310511F421E030E0B2
:101C10009091E7018091E5018093E7019093E501C0
:101C20009091E8018091E6018093E8019093E601AC
:101C3000CCEED1E08881A901480F511D2C814C8345
:101C40002883252F3327219751E0C83ED50791F7E8
:101C50001D861E8680E589871092D30188E28093D5
:101C6000D4010E94B50D84E08B871C8682E36AE173
:101C70004CE150E022E00E94830C86E390E00E9459
:101C80006B17DF91CF910895E82FA091D301B09108
:101C9000D401F091F1014091E70150E0292F30E0AB
:101CA0004217530709F08EC08091E8018E1709F0A2
:101CB00089C08091F201E82F81FF4EC01092D301BC
:101CC0008CE28093D4010E94B50D82E18093F201F1
:101CD0009091E7018091E5018093E7019093E50100
:101CE0009091E8018091E6018093E8019093E601EC
:101CF000ECEEF1E021E030E08081A901480F511DB8
:101D000044831082252F3327319751E0E83EF507B1
:101D100099F7158616861182128280912901838394
:101D200014828D5F8093290182E0818B84E0828B15
:101D300095E0938B148A80E68187938788E7848770
:101D400082E36AE140E250E022E00E94830C8AE3F1
:101D500090E00E946B1736C084FF34C04F2F50E0D4
:101D600084E0559547958A95E1F79A2F80E02B2FCF
:101D700030E0282B392BCA01880F991F880F991F33
:101D8000281B390B2451304037FF02C020E030E0DF
:101D90003093F8042093F704232B69F09A01220F63
:101DA000331F220F331F2E5D3F4F68507040621764
:101DB000730740F009C0E0FF05C080E090E060E0FC
:101DC0000E94FA0D20E030E0C90108950F931F939F
:101DD000DF93CF930F92CDB7DEB78C01045E1F4F18
:101DE0001093D3010C511040802F845E8093D40156
:101DF00089830E94EF0C085F1F4F1093E9018981CE
:101E000084518093EA01085F1F4F88E26AE1A801CC
:101E100021E00E94830CC8014A960E946B170F9024
:101E2000CF91DF911F910F910895DF92EF92FF9272
:101E30000F931F93CF93DF93EC018091BB04882312
:101E400019F0CE010E946613209709F0BFC080915F
:101E5000E6048570F1F18091260190912701892B8C
:101E6000C1F50E94A3168823A1F185E791E00E94A5
:101E7000450D88E08093CF01A6E0FA2EF092D001C4
:101E800081ED91E067E672E048E050E00E94A10237
:101E900003EE11E0D8011D92FA94E9F7C8010A9700
:101EA0006DE974E00E94660CC80106966BEA74E066
:101EB0000E946E0CC801049763EA74E00E946E0CE5
:101EC0008091E60488608093E6048AE290E00E94B4
:101ED0006B1780912601909127010196909327011D
:101EE000809326018091E704813009F0EFC1809151
:101EF000E60481FFEBC102E00093E7048091280132
:101F00008F5F809328018F711091E8041295110F53
:101F1000107E182BE090E904D090EA0481EF94E061
:101F200067EB74E00E94560DF8E0FF2EF092CF01AF
:101F30001092D00181ED91E06FE672E049E050E04F
:101F40000E94A1028CE28093D40186E08093DA01A2
:101F50000E94EF0CE092E701D092E8018BE08093C1
:101F6000E5011093E601E9EEF1E0DF011D92FA943C
:101F7000E9F7809129018093EB018D5F809329011E
:101F800080E68093F1010093F20183E08093F301F6
:101F90001092F4011092F5011092F6011092F701DF
:101FA0001092F8010093F90184E08093FA01009304
:101FB000FB0186E28093FC0182E36AE140E250E0AB
:101FC00022E00E94830C8AE390E09BC0C932D105D5
:101FD00008F47CC11091CF01183009F082C18091C2
:101FE000D001863009F07DC189EE91E063EA74E0AA
:101FF00044E050E00E94C802009709F072C180914D
:10200000D801813029F589EC91E00E94450D1092AC
:10201000D70182E08093D80183EE91E069ED71E011
:102020000E94660C89ED91E06DE974E00E94660CF7
:1020300089EE91E06FED71E00E946E0C8FED91E002
:1020400063EA74E00E946E0C8AE290E00E946B17D3
:102050008091E60483FF3AC11091D801123009F053
:1020600035C18FED91E06BEA74E044E050E00E94EE
:10207000C802009709F02AC181EF94E069ED71E090
:102080000E94660C1093E60421C1183009F01EC1AD
:102090008091D001882309F019C18091D101853444
:1020A00009F014C181EE91E063EA74E044E050E08D
:1020B0000E94C802009709F009C18091DA018130BD
:1020C00019F58091E5018830F9F4E091EB04F09185
:1020D000EC04309719F08DED91E009950E94B50D53
:1020E0001092E5018091E701883F28F08091E80196
:1020F0008F5F8093E8018091E701885F8093E7011B
:10210000CE010E946B17E2C00E94F90B882351F0A8
:102110008091DA01813131F4CE010E94FE0B8823D7
:1021200009F0D4C0C633D10528F48091DA01863095
:1021300009F0CCC08091E7018B3009F0BEC08DED75
:1021400091E067EB74E044E050E00E94C802009721
:1021500009F0BCC08091F201382F82FF13C0E091DA
:10216000ED04F091EE04309759F08091E8018295EA
:102170008695877063E040E050E020E030E009950C
:1021800085E090C09091D30180E02091D401022F8E
:1021900010E0082B192B8091F101482F50E0E4E06A
:1021A00055954795EA95E1F7CA01880F991F880F61
:1021B000991F081B190B0451104017FF02C000E0C3
:1021C00010E08091E704823079F531FF21C034FFBF
:1021D0001FC080E090E060E00E94FA0D88E18093EB
:1021E000F201E091EF04F091F004309719F420E04F
:1021F00030E007C08091E601829586958770099549
:102200009C0183E08093E704C9010E94DD0D5EC05C
:1022100081E08093E70434FF03C080E090E002C0D7
:10222000C801019664E046C0833081F501151105AF
:1022300079F1E091ED04F091EE04309749F1440F0B
:10224000551F440F551FCE0108974E5D5F4F8417F1
:10225000950708F4AC01C801840F951FC817D9076A
:1022600010F0980103C09E01241B350B8091E801FA
:1022700082958695877060E009958091BC048823DB
:1022800019F0C80168E016C0C80108C08530F1F037
:1022900030FF0BC08330D1F0C801019669E00E9485
:1022A000FA0D86E08093E70411C00115110571F065
:1022B000C80160E00E94FA0D09C08091240190914C
:1022C0002501BE010E94440E9C0102C020E030E0C6
:1022D000C901DF91CF911F910F91FF90EF90DF9097
:1022E0000895CA32D10508F0D0CEF0CFCF92DF9258
:1022F000EF92FF920F931F93DF93CF93CDB7DEB78B
:1023000028970FB6F894DEBF0FBECDBF29EF31E09E
:102310003E832D8338872F839091F904891709F024
:102320008EC01C821B828FE791E09A838983409143
:1023300000055091010541155105A9F58DB79EB7CE
:102340000C970FB6F8949EBF0FBE8DBFEDB7FEB7CA
:102350003196CE010196ADB7BEB712969C938E937F
:1023600011978FEE92E0938382838091FA0490918B
:10237000FB049583848380910405909105059783E0
:1023800086838091FC049091FD04918780878091E1
:10239000FE049091FF04938782870E941F0B8DB7E4
:1023A0009EB70C9647C08091FE049091FF04009167
:1023B000FA041091FB046091FC047091FD040097F5
:1023C00021F07C012CE131E003C02FE131E0790103
:1023D000DA010D900020E9F76D010894C108D108D9
:1023E000C41AD50A8DB79EB740970FB6F8949EBF12
:1023F0000FBE8DBFEDB7FEB73196CE010196ADB7DA
:10240000BEB712969C938E93119788E792E09383C0
:1024100082831583048377836683E086F18633871E
:102420002287D586C486578746870E941F0B8DB7A3
:102430009EB740960FB6F8949EBF0FBE8DBF2F81FA
:1024400038858D819E81281B390BC90128960FB6CE
:10245000F894DEBF0FBECDBFCF91DF911F910F91DA
:10246000FF90EF90DF90CF9008950F931F93CF933D
:10247000DF9389019091F904891759F0E0910205E1
:10248000F091030584E060E070E040E050E00995E1
:102490002AC0662341F52D30310528F1C09102058F
:1024A000D09103052097F9F044535E4F80E291E00C
:1024B000BA0143E050E00E94E5029C0180E0232B3A
:1024C00009F081E06091F10170E024E07595679575
:1024D0002A95E1F7660F771F660F771F6E5D7F4FB6
:1024E000A801FE01099580E0DF91CF911F910F9126
:1024F0000895DF93CF9300D000D000D0CDB7DEB7E2
:10250000DE011196E3E8F1E086E001900D92815042
:10251000E1F786E191E0E3ECF1E0DF019C011D923F
:1025200021503040E1F780910605833019F46FEABD
:1025300074E003C0BE016F5F7F4F84E490E043E42A
:1025400050E00E946E0D80910605833039F083ECD7
:1025500091E0BE016F5F7F4F0E94660C81E0809327
:10256000ED018093EE0186E08093EF0180911305E9
:1025700090911405A0911505B09116058093F10175
:102580009093F201A093F301B093F40180910605BA
:10259000833039F48DEE91E00C9663EA74E00E948A
:1025A0006E0C89E092E06DE974E00E94660CA9ED82
:1025B000B2E0EBE3F1E002C081918D9331E0E134D0
:1025C000F307D1F790910605992311F083E001C03C
:1025D00081E08093DF028DE38093E00287E08093C7
:1025E000E10281E08093E202A3EEB2E0EDE9F4E0E3
:1025F00002C081918D9384E0E33AF807D1F78CE033
:102600008093E9028AE08093EA02EAE2F1E0ABEE2D
:10261000B2E002C081918D9321E0E433F207D1F75B
:1026200025EF32E03093180520931705913069F5B6
:1026300082E38093F50284E08093F602D90112963A
:10264000E3EAF4E002C081918D9334E0E73AF307C6
:10265000D1F786E38093FB0284E08093FC028DEF48
:1026600092E09093180580931705DC01EFEAF4E0FF
:1026700002C081918D9384E0E33BF807D1F781E0BC
:1026800093E09093180580931705209117053091DA
:102690001805D901E5E3F1E002C081918D9381E055
:1026A000EB33F807D1F7C90106969093180580938C
:1026B00017058D5E91400E94E60E26960FB6F8949F
:1026C000DEBF0FBECDBFCF91DF910895DF92EF92B5
:1026D000FF920F931F93CF93DF938C018091060598
:1026E000823009F4F7C0833030F4882351F181300F
:1026F00009F054C14AC0833021F0843009F04EC142
:10270000E9C00E949D2020910B0530910C0540915D
:102710000D0550910E05E0900705F0900805009119
:10272000090510910A052E0D3F1D401F511F62170C
:1027300073078407950708F431C10E94791284E079
:1027400017C00E949D206093130570931405809319
:102750001505909316051092A3041092A4041092EC
:10276000A5041092A6040E9479120E94721681E0BC
:10277000809306050E949D2060930F0570931005BD
:10278000809311059093120509C10634110508F4D0
:10279000F0C08091E601833409F0EBC02091F10193
:1027A0003091F2014091F3015091F40180911305B1
:1027B00090911405A0911505B091160528173907B9
:1027C0004A075B0709F0D5C0CDEDD2E0FE01A801B4
:1027D0004D535E4FDF01119691819D012F5F3F4F59
:1027E0008081853321F411968C91823039F0F90182
:1027F000E90FF11DE417F50768F3BBC083EA94E025
:102800006DEF71E00E946E0C53ECE52E51E0F52E59
:10281000E00EF11EFE013196D9808F010F5F1F4F30
:1028200088818630A9F0873030F4813059F08330C8
:1028300009F045C00AC08633E9F18A3361F0833379
:10284000F1F509C087EA94E037C08BEA94E034C020
:1028500083EB94E031C0618170E080E090E0982FDC
:10286000872F762F6627F8012181620F711D811D48
:10287000911D982F872F762F66272281620F711D59
:10288000811D911D982F872F762F66272381620F38
:10289000711D811D911D28EE33E040E050E00E9443
:1028A000562560930B0570930C0580930D0590934E
:1028B0000E0505C08FEA94E0B8010E946E0CE80195
:1028C000CD0DD11DCE15DF0508F4A4CF0E947912DD
:1028D00082E04ECF0634110508F44BC08091E6012A
:1028E000833409F046C02091F1013091F20140910A
:1028F000F3015091F4018091130590911405A0917A
:102900001505B0911605281739074A075B0789F5A1
:10291000EDEDF2E0A8014D535E4FDF01119691817C
:102920009D012F5F3F4F8081853321F411968C915B
:10293000853039F0F901E90FF11DE417F50768F367
:1029400018C00E946D160E949D2060930705709329
:1029500008058093090590930A058091AB048823AC
:1029600021F08BEA94E00E94D40D83E08093060569
:1029700015C00E949D2020910F05309110054091B7
:10298000110550911205205F384D4F4F5F4F2617AC
:1029900037074807590710F410920605DF91CF91C9
:1029A0001F910F91FF90EF90DF900895CF93DF93E9
:1029B00081E08093BB049091A204892F82958F704F
:1029C000805D809332019F70905D909333011092EF
:1029D00006050E949D20EB0104C00E94E2160E94A1
:1029E000661380910605833061F00E949D206C1B68
:1029F0007D0B60567A4E28F40E94A316882389F333
:102A0000ECCF90E080910605833009F491E0892FA6
:102A1000DF91CF910895FF920F931F93CF93DF9390
:102A2000182F092FF62E0E949D20EB010E94A3165D
:102A3000882329F00E94020D882309F4DBC00E943C
:102A4000E2160E94150F0E949D206C1B7D0B6053A7
:102A5000754760F3C8C088E098E0A8E0B8E08093CC
:102A6000B3049093B404A093B504B093B6048091DA
:102A7000190590E0906E63EB74E045E350E00E942E
:102A80006E0DADEEB1E08CE0FD0111928A95E9F793
:102A9000812F902FFC01CF011C9630E0FF2019F010
:102AA000FC01208102C0FC01249101962E3241F0EC
:102AB000222331F03F5FFD01E30FF11D2083EECFB4
:102AC000FD013193DF01A30FB11D222331F7FD0179
:102AD000119211961C92DF01119641E04183FD0194
:102AE000319611961C92418386ED23EC31E0821BD6
:102AF00032968E0F8093ED01909119059093EE011F
:102B00004093EF014093F20190E00E94E60E0E9494
:102B10009D208B0161C00E949D20601B710B605342
:102B2000754708F060C00E94E216EC01009709F4B6
:102B300053C00E94150F892B09F04EC0C634D10531
:102B400008F44AC08091E601853309F045C08091C0
:102B5000E701803E09F040C09091E801809119059D
:102B60009817D1F58091EE018917B1F58091F001A8
:102B700090E08F709070892B79F58091ED01E82FAE
:102B8000F0E0E351FE4F9E012D533E4F8081807C4B
:102B900039F0329609C08081882311F4319604C03F
:102BA0003196E217F307B8F3CF010E9628173907CD
:102BB00098F08181813051F48185843039F43A96DE
:102BC00087EB94E0BF010E946E0C06C0818590E007
:102BD0000A96E80FF91FDACF8091B704882309F429
:102BE0009ACF81E001C080E0DF91CF911F910F91DA
:102BF000FF9008951092B7041092B8041092B9048F
:102C00001092BA04809119058F5F80931905809105
:102C1000B304882309F02BCF1ECF80911C0561E0FF
:102C20000E94012078940895FF920F931F93082F1C
:102C3000162FF42EF89480911C0560E00E9401206C
:102C40001F71102B1EBD0DB407FEFDCFFEBC0DB4D1
:102C500007FEFDCF0E940D161F910F91FF90089562
:102C60001F93182F282F30E02076307080911D059B
:102C700090E02817390799F080EA6FE143E00E945D
:102C80001416412F407640931D0550E085E0559580
:102C900047958A95E1F780E86FE10E9414161F912D
:102CA00008950F931F93182F062F0E94301680E46B
:102CB000612F402F0E9414161F910F9108950F93BA
:102CC0001F93182F072F0E945116812F8F5F602F9F
:102CD0000E9451161F910F91089588E360EB0E94A6
:102CE0005116089588E361EB0E94511608950F93E1
:102CF0001F93182F062FF89480911C0560E00E9406
:102D00000120802F8F71812B8EBD0DB407FEFDCF6A
:102D10001EBC0DB407FEFDCF07FF04C01EBC0DB4E2
:102D200007FEFDCF1EB50E940D16812F1F910F913A
:102D300008951F93182F0E94301680E0612F0E9483
:102D400077161F91089584ED61E10E94511682ED7E
:102D500061E00E9451168AEE0E94991680FDFBCF19
:102D600082ED60E00E94511689ED0E94991690E074
:102D70009695879596958795817008950F931F93E3
:102D8000CF93DF93EC018B01F89480911C0560E0F8
:102D90000E9401208AE38EBD0DB407FEFDCF09C05D
:102DA0001EBC0DB407FEFDCF8EB5F80181938F01D7
:102DB00021972097A9F70E940D16DF91CF911F91BF
:102DC0000F9108950F931F93DF93CF9300D000D0FE
:102DD00000D0CDB7DEB789E30E949916882319F495
:102DE00000E010E048C060911E0570911F0580E072
:102DF0000E945F1686E090E0BE016F5F7F4F0E94E9
:102E0000BE1689819A8190931F0580931E052B81A0
:102E10003C81E0911A05F0911B058D8187FD03C06F
:102E200000E010E00EC0245030408F0101501040EF
:102E30002017310708F48901C80163EC71E00E9492
:102E4000BE16F801ED53FE4F108260911E05709181
:102E50001F058CE06130780724F08CE06FEF7BE099
:102E600003C0615070408CE00E945F1680E86EE104
:102E700040E40E941416C80126960FB6F894DEBFEF
:102E80000FBECDBFCF91DF911F910F9108950F938A
:102E90001F93CF93DF938C01EB01F89480911C0575
:102EA00060E00E9401208AE78EBD0DB407FEFDCFD1
:102EB00008C088818EBD0DB407FEFDCF219601505C
:102EC000104001151105A9F70E940D16DF91CF9151
:102ED0001F910F910895CF93DF93EC010FC08CE108
:102EE0000E94991681FF0AC080E86FE140E80E94C5
:102EF000141680EA6FE140E80E94141680E06FE14A
:102F00000E94771683FDEBCF82E060E07CE00E94B8
:102F10005F16BE016050744F86E00E945F168AE71C
:102F200060E040E00E941416CE0163EC71E00E9464
:102F3000471780E86FE148E00E941416DF91CF91B7
:102F400008958AE061E00E94C21F8AE061E00E9469
:102F500001208BE061E00E94C21F8DE061E00E94D1
:102F6000C21F8CE060E00E94C21F8BE061E00E9403
:102F700001208BE060E00E9401208DE060E00E9473
:102F8000012080E58CBD8DB581608DBD08951F93B6
:102F9000CF93DF93EB01142F90931B0580931A05B9
:102FA0000CB406FC02C00E94A11710931C05812FCF
:102FB00061E00E94C21F0E940D168FEF60E04FEF8C
:102FC0000E94141662E070E080E090E00E94AB2066
:102FD00080E06DE10E9477168823D1F310921F05DF
:102FE00010921E0588E060E070E00E945F168CE0A1
:102FF00060E070E00E945F168AE06FEF7BE00E9465
:103000005F1684E060E07CE00E945F1686E06FEF70
:1030100071E10E945F160E94721688E26FE370E30E
:103020000E945F1680E369EF77EF0E945F1680ECE5
:103030006DE00E94511681EC60E00E94511680E81C
:1030400062EC42E30E94141686EC62E17CE00E948E
:103050005F1684EC62E10E9451168AEC6CED75E01B
:103060000E945F1684EE68810E94511685EE698188
:103070000E94511682EE6A810E94511683EE6B8186
:103080000E94511680EE6C810E94511681EE6D8176
:103090000E94511684ED60E10E94511686ED60E0B9
:1030A00071E00E945F168AEE0E94991680FDFBCFA8
:1030B0008FE10E94301680E86BE140EC0E9414160C
:1030C00080E86FE144E00E94141682E70E9499169E
:1030D000863008F08F5FDF91CF911F910895EDE466
:1030E000F7E020E030E003C031962F5F3F4F808152
:1030F000853C29F488E0EF3FF807B1F3A8F3C90154
:1031000008952F923F924F925F926F927F928F928B
:103110009F92AF92BF92CF92DF92EF92FF920F9366
:103120001F93DF93CF93CDB7DEB7A2970FB6F89476
:10313000DEBF0FBECDBF8B5B9F4FDC012D913D915C
:103140004D915D9129833A834B835C832D913D9111
:103150004D915D912D833E834F8358872D913D91F5
:103160004D915D9129873A874B875C876D907D9063
:103170008D909D902D913D914D915D912D873E8734
:103180004F87588B2D913D914D915D91298B3A8BB5
:103190004B8B5C8B2D913D914D915D91BAA3A9A371
:1031A0002D8B3E8B4F8B588F8D919D910D90BC91A7
:1031B000A02DE9A1FAA1E156F040FAA3E9A32FE27C
:1031C00033E03C8F2B8F41E050E05A8F498F0EC186
:1031D000598D503108F4CBC0698D7A8D6F70707045
:1031E000E98DFA8D3297EF70F0703196EE0FFF1F78
:1031F000EE0FFF1F89A19AA1E80FF91FA080B180EF
:10320000C280D380E98DFA8D3F97EF70F0703196D0
:10321000EE0FFF1FEE0FFF1FE80FF91F6080718098
:1032200082809380E98DFA8D3797EF70F070319638
:10323000EE0FFF1FEE0FFF1FE80FF91F6F5F7F4FAD
:10324000660F771F660F771F680F791FE080F18088
:1032500002811381FB0180819181A281B381E80EFB
:10326000F91E0A1F1B1FD601C50121E1B695A795BE
:10327000979587952A95D1F7A6019501FFE0220F32
:10328000331F441F551FFA95D1F7822B932BA42B84
:10329000B52BA6019501EAE05695479537952795F8
:1032A000EA95D1F782279327A427B527A601950190
:1032B000FDE0220F331F441F551FFA95D1F7E3E1BC
:1032C000D694C794B794A794EA95D1F72A293B29B5
:1032D0004C295D2982279327A427B527E80EF91EDC
:1032E0000A1F1B1FD401C30127E0B695A795979528
:1032F00087952A95D1F7A4019301F9E1220F331F95
:10330000441F551FFA95D1F7822B932BA42BB52B75
:10331000A4019301E3E05695479537952795EA95E3
:10332000D1F782279327A427B527A4019301FEE0B4
:10333000220F331F441F551FFA95D1F7E2E19694EF
:10334000879477946794EA95D1F7262937294829F5
:10335000592982279327A427B527E80EF91E0A1FAB
:103360001B1FDB01ED92FD920D931C931397EB8DC8
:10337000FC8D3496FC8FEB8F298D3A8D2F5F3F4F5C
:103380003A8F298F8D899E89AF89B88D29893A898D
:103390004B895C892D8B3E8B4F8B588F2D853E85BD
:1033A0004F855889298B3A8B4B8B5C8B69847A8447
:1033B0008B849C842D813E814F81588529873A8753
:1033C0004B875C8729813A814B815C812D833E83C9
:1033D0004F83588729823A824B825C822D8D3E8DA5
:1033E0004F8D58A12D873E874F87588B2B8D3C8D55
:1033F000F901A590B590C590D490A80EB91ECA1E2B
:10340000DB1E2D853E854F8558890BE056954795E7
:10341000379527950A95D1F78D859E85AF85B88913
:1034200015E1880F991FAA1FBB1F1A95D1F7282BEA
:10343000392B4A2B5B2B8D859E85AF85B889F6E0AD
:10344000B695A79597958795FA95D1F7ED84FE8463
:103450000F851889EAE1EE0CFF1C001F111FEA9589
:10346000D1F78E299F29A02BB12B282739274A274E
:103470005B278D859E85AF85B88979E1B695A7953F
:10348000979587957A95D1F7ED84FE840F851889F5
:1034900067E0EE0CFF1C001F111F6A95D1F78E2903
:1034A0009F29A02BB12B282739274A275B27A20E5B
:1034B000B31EC41ED51E89899A89AB89BC892D8902
:1034C0003E894F89588D82279327A427B5272D85BC
:1034D0003E854F85588982239323A423B5232D89C4
:1034E0003E894F89588D82279327A427B527A80E98
:1034F000B91ECA1EDB1EE98DFA8D3197EF70F07090
:103500003196EE0FFF1FEE0FFF1F49A15AA1E40FE6
:10351000F51F80819181A281B381A80EB91ECA1EB8
:10352000DB1EE980FA800B811C813DE01695079532
:10353000F794E7943A95D1F789819A81AB81BC8160
:1035400023E1880F991FAA1FBB1F2A95D1F7E82AEC
:10355000F92A0A2B1B2B89819A81AB81BC81F2E06D
:10356000B695A79597958795FA95D1F729813A81D0
:103570004B815C81EEE1220F331F441F551FEA95FA
:10358000D1F7822B932BA42BB52BE826F9260A27FB
:103590001B2789819A81AB81BC8176E1B695A7957D
:1035A000979587957A95D1F729813A814B815C81EE
:1035B0006AE0220F331F441F551F6A95D1F7822BF3
:1035C000932BA42BB52BE826F9260A271B27D60117
:1035D000C501860D971DA81DB91D8D8F9E8FAF8FBC
:1035E000B8A32D803E804F80588429853A854B852D
:1035F0005C85222A332A442A552A89819A81AB8103
:10360000BC81282239224A225B228D819E81AF8192
:10361000B88582239323A423B523282A392A4A2A4A
:103620005B2A2E0C3F1C401E511E2A0C3B1C4C1CBE
:103630005D1CAB8DBC8DAB52B44009F0C9CDE9A186
:10364000FAA1EB5BFF4F80819181A281B381280EAB
:10365000391E4A1E5B1E208231824282538269A13A
:103660007AA1675B7F4FFB0180819181A281B38149
:1036700029813A814B815C81820F931FA41FB51F62
:1036800080839183A283B38369A17AA1635B7F4F17
:10369000FB0180819181A281B3812D813E814F8187
:1036A0005885820F931FA41FB51F80839183A28327
:1036B000B38369A17AA16F5A7F4FFB018081918109
:1036C000A281B38129853A854B855C85820F931F42
:1036D000A41FB51F80839183A283B383E9A1FAA1BC
:1036E000EB5AFF4F60807180828093802D8D3E8DDC
:1036F0004F8D58A1260D371D481D591D208331833C
:103700004283538369A17AA1675A7F4FFB0180816D
:103710009181A281B3812D853E854F855889820F85
:10372000931FA41FB51F80839183A283B38369A1D4
:103730007AA1635A7F4FFB0180819181A281B3817D
:1037400029893A894B895C89820F931FA41FB51F71
:1037500080839183A283B38369A17AA16F597F4F3C
:10376000FB0180819181A281B3812D893E894F899E
:10377000588D820F931FA41FB51F80839183A2834E
:10378000B383A2960FB6F894DEBF0FBECDBFCF9124
:10379000DF911F910F91FF90EF90DF90CF90BF903E
:1037A000AF909F908F907F906F905F904F903F90E1
:1037B0002F900895CF93DF939C01EC01CC5BDF4FFA
:1037C000988183E08927F901E80FF11D64839F5FE9
:1037D0009883903421F4C9010E9481181882DF91E6
:1037E000CF910895FC01EB59FF4F20813181428137
:1037F00053812F5F3F4F4F4F5F4F20833183428371
:1038000053830E94DA1B81E090E008951092230513
:10381000109222058DE891E0909321058093200578
:1038200008952F923F924F925F926F927F928F9264
:103830009F92AF92BF92CF92DF92EF92FF920F933F
:103840001F93DF93CF93CDB7DEB762970FB6F8948F
:10385000DEBF0FBECDBF8B5B9F4FDC012D913D9135
:103860004D915D912D833E834F8358872D903D90E0
:103870004D905D906D907D908D909D902D913D919E
:103880004D915D9129833A834B835C832D913D91CA
:103890004D915C9113972B873C874D875E87A5558B
:1038A000B040B88BAF871A8619861985103108F495
:1038B00069C069857A856F7070706F5F7F4F660F22
:1038C000771F660F771FEF85F8896E0F7F1FA98519
:1038D000BA851D96AF70B0701196AA0FBB1FAA0FC4
:1038E000BB1FAE0FBF1F89859A8508968F70907099
:1038F0000196880F991F880F991F8E0F9F1F2D917A
:103900003D914D915C91FC0180819181A281B381B7
:10391000282739274A275B27FB0180819181A281D3
:10392000B381282739274A275B27E985FA8532960C
:10393000EF70F0703196EE0FFF1FEE0FFF1F8F85B7
:103940009889E80FF91F80819181A281B38128278E
:1039500039274A275B27DA01C901880F991FAA1F57
:10396000BB1F222757FD2395332744275527822B3A
:10397000932BA42BB52BFB0180839183A283B3836C
:103980001431C8F429813A814B815C812625372581
:1039900048255925222133214421552189819A81A5
:1039A000AB81BC81282739274A275B272756364811
:1039B0004D47554A46C0183298F4A4019301222578
:1039C00033254425552589819A81AB81BC812827DF
:1039D00039274A275B272F5534414642514931C088
:1039E0001C33E8F4A40193012229332944295529E1
:1039F00089819A81AB81BC81282339234A235B23A7
:103A0000D401C30182219321A421B521282B392B74
:103A10004A2B5B2B24523344444E504712C0A4011E
:103A20009301222533254425552589819A81AB812F
:103A3000BC81282739274A275B272A523E434D4914
:103A40005543ED80FE800F811885EBE116950795B3
:103A5000F794E794EA95D1F78D819E81AF81B8857F
:103A600075E0880F991FAA1FBB1F7A95D1F7E82A26
:103A7000F92A0A2B1B2B8B859C85AD85BE85E80E0C
:103A8000F91E0A1F1B1FE985FA85EF70F070319649
:103A9000EE0FFF1FEE0FFF1FAF85B889EA0FFB1F68
:103AA00080819181A281B381E80EF91E0A1F1B1F3C
:103AB000E20EF31E041F151F620151019EE1AA0CC4
:103AC000BB1CCC1CDD1C9A95D1F782E05694479420
:103AD000379427948A95D1F7A228B328C428D528EB
:103AE000E985FA853196FA87E98729813A814B8100
:103AF0005C812B873C874D875E87B301898A9A8AD0
:103B00002D803E804F805884E035F10589F0C70153
:103B1000D8018D839E83AF83B887350146014989DB
:103B20005A89CB01DA0189839A83AB83BC83BDCEEA
:103B3000EF85F889EB5BFF4F80819181A281B38192
:103B4000E80EF91E0A1F1B1FE082F1820283138315
:103B50006F857889675B7F4FFB0180819181A281AE
:103B6000B3812D813E814F815885820F931FA41F01
:103B7000B51F80839183A283B383EF85F889E35BCC
:103B8000FF4F80819181A281B381A80EB91ECA1E08
:103B9000DB1EA082B182C282D382EF85F889EF5A00
:103BA000FF4F80819181A281B381860D971DA81D51
:103BB000B91D80839183A283B3836F8578896B5A03
:103BC0007F4FFB0180819181A281B38129813A815C
:103BD0004B815C81820F931FA41FB51F808391834B
:103BE000A283B38362960FB6F894DEBF0FBECDBF3B
:103BF000CF91DF911F910F91FF90EF90DF90CF90C9
:103C0000BF90AF909F908F907F906F905F904F90FC
:103C10003F902F900895CF93DF939C01EC01CC5BF4
:103C2000DF4F988183E08927F901E80FF11D648354
:103C30009F5F9883903421F4C9010E94111C18825F
:103C4000DF91CF910895FC01E75AFF4F2081318128
:103C5000428153812F5F3F4F4F4F5F4F208331830E
:103C6000428353830E940B1E81E090E008950F93DE
:103C70001F93CF93DF93EC0160E80E940B1E8E012F
:103C80000C5B1F4F04C0CE0160E00E940B1EF801C8
:103C900080818833C1F7CE0160E00E940B1ECE0107
:103CA00060E00E940B1ECE0160E00E940B1E8E01A0
:103CB000075A1F4FF8012081318142815381FDE174
:103CC0005695479537952795FA95D1F7CE01622FEE
:103CD0000E940B1EF8012081318142815381E5E170
:103CE0005695479537952795EA95D1F7CE01622FDE
:103CF0000E940B1EF80120813181428153817DE0B9
:103D000056954795379527957A95D1F7CE01622F2D
:103D10000E940B1EF801208131814281538165E0B0
:103D200056954795379527956A95D1F7CE01622F1D
:103D30000E940B1EF8016081660F660F660FCE01B0
:103D40000E940B1EDF91CF911F910F910895EF926A
:103D5000FF920F931F93CF93DF93EC010E94371EC6
:103D6000FE01EB5BFF4F60E070E02081318142811A
:103D70005381B22FAA2799278827E52EFF240027F1
:103D80001127E82AF92A0A2B1B2BB42FA32F922FD5
:103D9000882780709070B070E82AF92A0A2B1B2BB4
:103DA000232F342F452F5527207040705070E22A62
:103DB000F32A042B152BE192F192019311936F5F7B
:103DC0007F4F6530710589F69E012B5B3F4FC9011E
:103DD000DF91CF911F910F91FF90EF900895109276
:103DE000EC051092EB0585E991E09093EA0580934C
:103DF000E90508950F931F938C018B5B9F4F6FE430
:103E000074E044E150E00E94A102075A1F4FF801FC
:103E1000108211821282138205511040F801108223
:103E20001F910F910895BF92CF92DF92EF92FF9270
:103E30000F931F93CF93DF93EC013DE9C32ED12C59
:103E4000C80ED91E0E94A71ED601FC0184E1019074
:103E50000D928150E1F7CE010E94FA1E8E01035AA5
:103E60001F4F2CE5B22E9DE9E92EF12CEC0EFD1E24
:103E7000E881F981D8016D918D016B250190F08168
:103E8000E02DCE0109950E151F0591F7860181EBF6
:103E9000E82EF12CEC0EFD1EE881F9810190F081F5
:103EA000E02DCE01D8016D918D0109950E151F05EC
:103EB00099F7CE010E94A71EDF91CF911F910F911C
:103EC000FF90EF90DF90CF90BF900895CF92DF9258
:103ED000EF92FF920F931F93CF93DF938C017B019F
:103EE000EA016DE5C62ED12CC80ED91E80E4D6019C
:103EF0001D928A95E9F741345105FCF0C8010E94F2
:103F0000FA1E0BC0F70161917F01D801ED91FC9180
:103F10000190F081E02DC80109952197BFEFCF3FB7
:103F2000DB0781F7C8010E94A71ED601FC0184E1CE
:103F300001900D928150E1F704C0C601B7010E94C3
:103F4000D502C8010E94FA1EE60156E3D52E4DE9BE
:103F5000E42EF12CE00EF11ED801ED91FC91699157
:103F60006D250190F081E02DC8010995CE15DF0582
:103F700099F7DF91CF911F910F91FF90EF90DF9014
:103F8000CF900895CF93DF93482F50E0CA018B560E
:103F90009B4FFC0134914F575B4FFA01849188236A
:103FA00069F190E0880F991FFC01ED59FB4FA59135
:103FB000B491FC01E359FB4FC591D491662351F4B0
:103FC0002FB7F8948C91932F909589238C938881A7
:103FD00089230BC0623061F42FB7F8948C91932F32
:103FE000909589238C938881832B88832FBF06C06B
:103FF0009FB7F8948C91832B8C939FBFDF91CF91C7
:104000000895482F50E0CA0187559B4FFC01249129
:10401000CA018B569B4FFC0194914F575B4FFA019D
:104020003491332309F440C0222351F1233071F03D
:10403000243028F42130A1F0223011F514C02630AC
:10404000B1F02730C1F02430D9F404C08091800051
:104050008F7703C0809180008F7D8093800010C097
:1040600084B58F7702C084B58F7D84BD09C08091EF
:10407000B0008F7703C08091B0008F7D8093B00037
:10408000E32FF0E0EE0FFF1FE359FB4FA591B49132
:104090002FB7F894662321F48C919095892302C060
:1040A0008C91892B8C932FBF08951F920F920FB67E
:1040B0000F9211242F933F938F939F93AF93BF93AE
:1040C00080919E0690919F06A091A006B091A106B6
:1040D0003091A2060196A11DB11D232F2D5F2D3712
:1040E00020F02D570196A11DB11D2093A2068093AB
:1040F0009E0690939F06A093A006B093A106809180
:104100009A0690919B06A0919C06B0919D060196FF
:10411000A11DB11D80939A0690939B06A0939C06C7
:10412000B0939D06BF91AF919F918F913F912F9139
:104130000F900FBE0F901F9018958FB7F894209195
:104140009E0630919F064091A0065091A1068FBF18
:10415000B901CA0108959B01AC017FB7F894809121
:104160009A0690919B06A0919C06B0919D0666B51B
:10417000A89B05C06F3F19F00196A11DB11D7FBF1F
:10418000BA2FA92F982F8827860F911DA11DB11D29
:1041900062E0880F991FAA1FBB1F6A95D1F7BC0167
:1041A0002DC0FFB7F89480919A0690919B06A0913C
:1041B0009C06B0919D06E6B5A89B05C0EF3F19F09F
:1041C0000196A11DB11DFFBFBA2FA92F982F8827D7
:1041D0008E0F911DA11DB11DE2E0880F991FAA1F2E
:1041E000BB1FEA95D1F7861B970B885E9340C8F2F8
:1041F000215030404040504068517C4F21153105DE
:104200004105510571F60895019739F0880F991FFE
:10421000880F991F02970197F1F70895789484B554
:10422000826084BD84B5816084BD85B5826085BDB2
:1042300085B5816085BDEEE6F0E080818160808398
:10424000E1E8F0E01082808182608083808181607B
:104250008083E0E8F0E0808181608083E1EBF0E042
:10426000808184608083E0EBF0E0808181608083E6
:10427000EAE7F0E0808184608083808182608083CF
:104280008081816080838081806880831092C100FA
:104290000895CF92DF92EF92FF920F931F93CF93E7
:1042A000DF937C016B018A01C0E0D0E00FC0D60132
:1042B0006D916D01D701ED91FC910190F081E02DA0
:1042C000C7010995C80FD91F0150104001151105EC
:1042D00071F7CE01DF91CF911F910F91FF90EF9079
:1042E000DF90CF900895EF92FF920F931F93CF939B
:1042F000DF937C018B01C0E0D0E0F8010F5F1F4F1E
:104300006491662359F0D701ED91FC910190F08101
:10431000E02DC7010995C80FD91FEFCFCE01DF915E
:10432000CF911F910F91FF90EF900895DC01ED91D7
:10433000FC910190F081E02D09950895EF92FF9294
:104340000F931F938C01DC01ED91FC910190F081A2
:10435000E02D6DE009957C01D801ED91FC91019073
:10436000F081E02DC8016AE009959C012E0D3F1DEA
:10437000C9011F910F91FF90EF900895EF92FF9266
:104380000F931F937C010E9473218C01C7010E942F
:104390009E219C01200F311FC9011F910F91FF9099
:1043A000EF900895CF93DF93EC016115710519F437
:1043B00020E030E00FC0DB010D900020E9F71197FD
:1043C000A61BB70BE881F9810280F381E02DAD01D6
:1043D00009959C01C901DF91CF9108954F925F9299
:1043E0007F928F929F92AF92BF92CF92DF92EF9285
:1043F000FF920F931F93DF93CF93CDB7DEB7A197B3
:104400000FB6F894DEBF0FBECDBF2C01742ECB01CA
:10441000223008F42AE019A231E2C32ED12CCC0EAE
:10442000DD1E822E9924AA24BB24672D752FA50199
:1044300094010E94892579018A01C801B701A5016B
:1044400094010E945625472D461B0894C108D108A7
:104450004A3014F4405D01C0495CF6014083E11428
:10446000F1040105110521F07E2C5F2DC801DDCF7F
:10447000C201B6010E94D221A1960FB6F894DEBF08
:104480000FBECDBFCF91DF911F910F91FF90EF90A5
:10449000DF90CF90BF90AF909F908F907F905F9074
:1044A0004F900895DC012115310541F4ED91FC9107
:1044B0000190F081E02D642F099508950E94EE216E
:1044C0000895CF92DF92EF92FF920F931F936C01AA
:1044D0007B019A0100E010E0B801A7010E9452227E
:1044E0008C01C6010E949E21080F191FC8011F914F
:1044F0000F91FF90EF90DF90CF900895EF92FF9291
:104500000F931F939A01E62EFF2400E010E0B801FC
:10451000A7010E9452221F910F91FF90EF900895E2
:10452000CF92DF92EF92FF920F931F936C01E62ED2
:104530009A01FF2400E010E0B801A7010E94522276
:104540008C01C6010E949E21080F191FC8011F91EE
:104550000F91FF90EF90DF90CF900895CF92DF9270
:10456000EF92FF920F931F93CF93DF93EC016A01B9
:104570007B012115310541F4E881F9810190F08139
:10458000E02D642F09951FC02A303105D1F477FF43
:1045900017C0E881F9810190F081E02D6DE2099565
:1045A0008C0144275527BA014C195D096E097F0912
:1045B000CE012AE00E94EE219801280F391F04C085
:1045C0002AE00E94EE219C01C901DF91CF911F9149
:1045D0000F91FF90EF90DF90CF900895EF92FF92B0
:1045E0000F931F937B019A010027F7FC0095102F72
:1045F000B801A7010E94AE221F910F91FF90EF908A
:104600000895CF92DF92EF92FF920F931F936C0168
:104610007B019A010027F7FC0095102FB801A70134
:104620000E94AE228C01C6010E949E21080F191F14
:10463000C8011F910F91FF90EF90DF90CF900895E8
:104640000E94D2210895EF92FF920F931F937C0155
:104650000E94D2218C01C7010E949E21080F191FC0
:10466000C8011F910F91FF90EF90089508951F9238
:104670000F920FB60F9211242F933F934F938F9366
:104680009F93EF93FF938091C00082FD1DC04091E6
:10469000C6002091E3063091E4062F5F3F4F2F7351
:1046A00030708091E5069091E6062817390771F081
:1046B000E091E306F091E406ED55F94F4083309325
:1046C000E4062093E30602C08091C600FF91EF91BB
:1046D0009F918F914F913F912F910F900FBE0F900F
:1046E0001F901895E0913707F0913807E05CFF4F75
:1046F0008191919120813181821B930B8F739070F6
:10470000892B11F00E94362308951F920F920FB645
:104710000F9211242F933F938F939F93EF93FF93C7
:1047200020912707309128078091290790912A0727
:104730002817390731F48091C1008F7D8093C10023
:1047400014C0E0912907F0912A07E951F94F20811F
:104750008091290790912A0701968F73907090930A
:104760002A07809329072093C600FF91EF919F911C
:104770008F913F912F910F900FBE0F901F90189522
:10478000AF92BF92DF92EF92FF920F931F93CF935E
:10479000DF93EC017A018B01DD24403081EE580774
:1047A00080E0680780E0780711F0DD24D39491E081
:1047B000A92EB12CEC89FD89DD2069F0C50108A086
:1047C00002C0880F991F0A94E2F7808360E079E0C5
:1047D0008DE390E005C0108260E874E88EE190E01F
:1047E000A80197010E948925215030404040504047
:1047F000569547953795279580E12030380720F06A
:10480000DD2011F0DD24D6CFE889F9893083EA89EB
:10481000FB89208319A2EE89FF89408121E030E0E5
:10482000C9010C8C02C0880F991F0A94E2F7482B2B
:104830004083EE89FF894081C9010D8C02C0880F39
:10484000991F0A94E2F7482B4083EE89FF89408143
:10485000C9010E8C02C0880F991F0A94E2F7482BF9
:104860004083EE89FF8980810F8C02C0220F331FA5
:104870000A94E2F7209528232083DF91CF911F919E
:104880000F91FF90EF90DF90BF90AF900895DC0103
:104890001C96ED91FC911D97E05CFF4F21913191A9
:1048A00080819181281B390B2F733070C9010895C5
:1048B000DC011C96ED91FC911D97E05CFF4F20817F
:1048C0003181E054F040DF01AE5BBF4F8D919C9190
:1048D00011972817390719F42FEF3FEF07C08D9173
:1048E0009C91E80FF91F8081282F30E0C9010895BD
:1048F000DC011C96ED91FC911D97E05CFF4F20813F
:104900003181E054F040DF01AE5BBF4F8D919C914F
:1049100011972817390719F42FEF3FEF10C08D9129
:104920009C911197E80FF91F20818D919C9111970F
:1049300001968F73907011969C938E9330E0C9010D
:104940000895DC0191968C919197882339F05496C3
:10495000ED91FC915597808186FFF9CF91961C923D
:104960000895CF93DF93EC01EE85FF85E05CFF4F68
:1049700020813181E054F0402F5F3F4F2F73307022
:10498000DF01AE5BBF4F8D919C91119728173907BE
:10499000D1F3E05CFF4F80819181E054F040E80F5B
:1049A000F91F6083EE85FF85E05CFF4F3183208334
:1049B000EE89FF89208181E090E00F8C02C0880F92
:1049C000991F0A94E2F7282B208381E089A3EC89C0
:1049D000FD8980818064808381E090E0DF91CF91C8
:1049E000089510922E0710922D0788EE93E0A0E014
:1049F000B0E080932F0790933007A0933107B093D6
:104A000032078DE991E090932C0780932B0783EA7E
:104A100096E0909338078093370787EE96E090935F
:104A20003A078093390785EC90E090933C07809398
:104A30003B0784EC90E090933E0780933D0780EC29
:104A400090E09093400780933F0781EC90E0909333
:104A500042078093410782EC90E090934407809353
:104A6000430786EC90E0909346078093450784E0E7
:104A70008093470783E08093480787E08093490746
:104A800085E080934A0781E080934B070895CF9398
:104A9000DF930E940E210E942D07C2E7D3E20E94FD
:104AA00085032097E1F30E947223F9CF629FD00122
:104AB000739FF001829FE00DF11D649FE00DF11DD9
:104AC000929FF00D839FF00D749FF00D659FF00D88
:104AD0009927729FB00DE11DF91F639FB00DE11D75
:104AE000F91FBD01CF0111240895AA1BBB1B51E181
:104AF00007C0AA1FBB1FA617B70710F0A61BB70B4E
:104B0000881F991F5A95A9F780959095BC01CD01F2
:104B10000895A1E21A2EAA1BBB1BFD010DC0AA1FFE
:104B2000BB1FEE1FFF1FA217B307E407F50720F016
:104B3000A21BB30BE40BF50B661F771F881F991F91
:104B40001A9469F760957095809590959B01AC01DA
:104B5000BD01CF010895EE0FFF1F0590F491E02DE8
:104B600009942F923F924F925F926F927F928F9211
:104B70009F92AF92BF92CF92DF92EF92FF920F93EC
:104B80001F93CF93DF93CDB7DEB7CA1BDB0B0FB6F6
:104B9000F894DEBF0FBECDBF09942A8839884888B3
:104BA0005F846E847D848C849B84AA84B984C88449
:104BB000DF80EE80FD800C811B81AA81B981CE0F40
:104BC000D11D0FB6F894DEBF0FBECDBFED01089525
:104BD000F894FFCF3A2C220A00537461636B3A2099
:104BE00000556E697420416464726573733A2000E5
:104BF0000D0A00003230300050000100010A4172FD
:104C00006475696E6F2D3030003703010306FF6352
:104C10008253633501E54C89CF2B916934A28830EA
:104C20004B6F7630E5B9AAD8C830313233343536D7
:104C300037383961626364656600000000C5079417
:104C4000074D0756076B077C07FFFFFFFFFFFF00BD
:104C50000000007A0C4921FFFFFFFFFFFF0000006A
:104C600000F21B492100000000231E492100000022
:104C700000B1244921472478245824A124004172FA
:104C80001786108A118A128A29C0EF81F8858081DF
:104C9000F8018083EF81F88523812083F8018191D9
:104CA0008F01EF81F885838390E0821B9109F701E2
:104CB000978386830E94642FF3016787708B818BB3
:104CC000928B2F8138852F5F3F4F38872F8342E0AB
:104CD00050E0E40EF51E0C151D05B9F62C960FB626
:104CE000F894DEBF0FBECDBFCF91DF911F910F9122
:104CF000FF90EF90DF90CF90BF90AF909F907F900C
:104D00006F905F904F903F902F900895AF92BF9219
:104D1000CF92DF92EF92FF920F931F93DF93CF9387
:104D200000D00F92CDB7DEB78C015B0169017A012B
:104D3000DE011196E3E9F1E083E001900D928150EC
:104D4000E1F7C801BE016F5F7F4F0E94E524A80113
:104D5000D80120E030E0FA011082F501E20FF31FE4
:104D60008081FA01838316968C93169717961C926E
:104D700017972F5F3F4F4F5F5F4F129623303105DC
:104D800051F781E0F801878B128E0E94642FF801A1
:104D90006787708B818B928BC701B60122E030E070
:104DA00040E050E00E94CE37F801238B348B458BD6
:104DB000568B0F900F900F90CF91DF911F910F9115
:104DC000FF90EF90DF90CF90BF90AF900895EF925B
:104DD000FF920F937C010E948626F701028F118EAD
:104DE000108E0F91FF90EF9008952F923F924F9267
:104DF0005F926F927F928F929F92AF92BF92CF926B
:104E0000DF92EF92FF920F931F93DF93CF93CDB773
:104E1000DEB7A2970FB6F894DEBF0FBECDBF8B5B97
:104E20009F4FDC012D913D914D915D9129833A83F6
:104E30004B835C832D913D914D915D912D833E83FC
:104E40004F8358872D913D914D915D9129873A87E8
:104E50004B875C876D907D908D909D902D913D91BD
:104E60004D915D912D873E874F87588B2D913D91B8
:104E70004D915D91298B3A8B4B8B5C8B2D913D91A4
:104E80004D915D91BAA3A9A32D8B3E8B4F8B588F6B
:104E90008D919D910D90BC91A02DE9A1FAA1E156B3
:104EA000F040FAA3E9A32EEF35E03C8F2B8F41E0D1
:104EB00050E05A8F498F0EC1598D503108F4CBC044
:104EC000698D7A8D6F707070E98DFA8D3297EF7001
:104ED000F0703196EE0FFF1FEE0FFF1F89A19AA110
:104EE000E80FF91FA080B180C280D380E98DFA8DD0
:104EF0003F97EF70F0703196EE0FFF1FEE0FFF1F20
:104F0000E80FF91F6080718082809380E98DFA8DAF
:104F10003797EF70F0703196EE0FFF1FEE0FFF1F07
:104F2000E80FF91F6F5F7F4F660F771F660F771FC0
:104F3000680F791FE080F18002811381FB0180817D
:104F40009181A281B381E80EF91E0A1F1B1FD601B1
:104F5000C50121E1B695A795979587952A95D1F733
:104F6000A6019501FFE0220F331F441F551FFA953C
:104F7000D1F7822B932BA42BB52BA6019501EAE048
:104F80005695479537952795EA95D1F78227932728
:104F9000A427B527A6019501FDE0220F331F441F6A
:104FA000551FFA95D1F7E3E1D694C794B794A79427
:104FB000EA95D1F72A293B294C295D298227932795
:104FC000A427B527E80EF91E0A1F1B1FD401C30131
:104FD00027E0B695A795979587952A95D1F7A401CF
:104FE0009301F9E1220F331F441F551FFA95D1F7A2
:104FF000822B932BA42BB52BA4019301E3E05695B0
:10500000479537952795EA95D1F782279327A427C7
:10501000B527A4019301FEE0220F331F441F551F43
:10502000FA95D1F7E2E19694879477946794EA959C
:10503000D1F7262937294829592982279327A427D8
:10504000B527E80EF91E0A1F1B1FDB01ED92FD922A
:105050000D931C931397EB8DFC8D3496FC8FEB8F87
:10506000298D3A8D2F5F3F4F3A8F298F8D899E89E9
:10507000AF89B88D29893A894B895C892D8B3E8B04
:105080004F8B588F2D853E854F855889298B3A8BBC
:105090004B8B5C8B69847A848B849C842D813E81CC
:1050A0004F81588529873A874B875C8729813A81C8
:1050B0004B815C812D833E834F83588729823A82BE
:1050C0004B825C822D8D3E8D4F8D58A12D873E8762
:1050D0004F87588B2B8D3C8DF901A590B590C590CD
:1050E000D490A80EB91ECA1EDB1E2D853E854F85A5
:1050F00058890BE056954795379527950A95D1F72E
:105100008D859E85AF85B88915E1880F991FAA1FE7
:10511000BB1F1A95D1F7282B392B4A2B5B2B8D857A
:105120009E85AF85B889F6E0B695A7959795879542
:10513000FA95D1F7ED84FE840F851889EAE1EE0C2B
:10514000FF1C001F111FEA95D1F78E299F29A02B64
:10515000B12B282739274A275B278D859E85AF8568
:10516000B88979E1B695A795979587957A95D1F7FE
:10517000ED84FE840F85188967E0EE0CFF1C001F8C
:10518000111F6A95D1F78E299F29A02BB12B2827B3
:1051900039274A275B27A20EB31EC41ED51E898954
:1051A0009A89AB89BC892D893E894F89588D822780
:1051B0009327A427B5272D853E854F8558898223BF
:1051C0009323A423B5232D893E894F89588D8227A7
:1051D0009327A427B527A80EB91ECA1EDB1EE98D8A
:1051E000FA8D3197EF70F0703196EE0FFF1FEE0FD2
:1051F000FF1F49A15AA1E40FF51F80819181A2816F
:10520000B381A80EB91ECA1EDB1EE980FA800B818D
:105210001C813DE016950795F794E7943A95D1F7F0
:1052200089819A81AB81BC8123E1880F991FAA1FD4
:10523000BB1F2A95D1F7E82AF92A0A2B1B2B898153
:105240009A81AB81BC81F2E0B695A7959795879539
:10525000FA95D1F729813A814B815C81EEE1220FE9
:10526000331F441F551FEA95D1F7822B932BA42B94
:10527000B52BE826F9260A271B2789819A81AB815D
:10528000BC8176E1B695A795979587957A95D1F7E4
:1052900029813A814B815C816AE0220F331F441FD0
:1052A000551F6A95D1F7822B932BA42BB52BE8269B
:1052B000F9260A271B27D601C501860D971DA81DB3
:1052C000B91D8D8F9E8FAF8FB8A32D803E804F80EC
:1052D000588429853A854B855C85222A332A442ABD
:1052E000552A89819A81AB81BC81282239224A22A0
:1052F0005B228D819E81AF81B88582239323A42375
:10530000B523282A392A4A2A5B2A2E0C3F1C401E24
:10531000511E2A0C3B1C4C1C5D1CAB8DBC8DAA5F26
:10532000B64009F0C9CDE9A1FAA1EB5BFF4F80813E
:105330009181A281B381280E391E4A1E5B1E2082F4
:1053400031824282538269A17AA1675B7F4FFB0160
:1053500080819181A281B38129813A814B815C81D5
:10536000820F931FA41FB51F80839183A283B383F1
:1053700069A17AA1635B7F4FFB0180819181A2814A
:10538000B3812D813E814F815885820F931FA41FC9
:10539000B51F80839183A283B38369A17AA16F5AD9
:1053A0007F4FFB0180819181A281B38129853A855C
:1053B0004B855C85820F931FA41FB51F808391834B
:1053C000A283B383E9A1FAA1EB5AFF4F60807180F9
:1053D000828093802D8D3E8D4F8D58A1260D371DD7
:1053E000481D591D208331834283538369A17AA1CB
:1053F000675A7F4FFB0180819181A281B3812D8506
:105400003E854F855889820F931FA41FB51F808347
:105410009183A283B38369A17AA1635A7F4FFB0171
:1054200080819181A281B38129893A894B895C89E4
:10543000820F931FA41FB51F80839183A283B38320
:1054400069A17AA16F597F4FFB0180819181A2816F
:10545000B3812D893E894F89588D820F931FA41FD8
:10546000B51F80839183A283B383A2960FB6F8946D
:10547000DEBF0FBECDBFCF91DF911F910F91FF9087
:10548000EF90DF90CF90BF90AF909F908F907F90E4
:105490006F905F904F903F902F900895CF93DF9340
:1054A0009C01EC01CC5BDF4F988183E08927F901F7
:1054B000E80FF11D64839F5F9883903421F4C90144
:1054C0000E94F5261882DF91CF910895FC01EB59D7
:1054D000FF4F20813181428153812F5F3F4F4F4FDA
:1054E0005F4F20833183428353830E944E2A81E0A1
:1054F00090E008951092BE051092BD0580EA91E0FB
:105500009093BC058093BB0508952F923F924F92D4
:105510005F926F927F928F929F92AF92BF92CF9243
:10552000DF92EF92FF920F931F93DF93CF93CDB74C
:10553000DEB762970FB6F894DEBF0FBECDBF8B5BB0
:105540009F4FDC012D913D914D915D912D833E83C7
:105550004F8358872D903D904D905D906D907D903C
:105560008D909D902D913D914D915D9129833A8330
:105570004B835C832D913D914D915C9113972B87CB
:105580003C874D875E87A555B040B88BAF871A869C
:1055900019861985103108F469C069857A856F709C
:1055A00070706F5F7F4F660F771F660F771FEF85F5
:1055B000F8896E0F7F1FA985BA851D96AF70B070F0
:1055C0001196AA0FBB1FAA0FBB1FAE0FBF1F898565
:1055D0009A8508968F7090700196880F991F880F92
:1055E000991F8E0F9F1F2D913D914D915C91FC0154
:1055F00080819181A281B381282739274A275B279F
:10560000FB0180819181A281B381282739274A2714
:105610005B27E985FA853296EF70F0703196EE0FD0
:10562000FF1FEE0FFF1F8F859889E80FF91F8081FC
:105630009181A281B381282739274A275B27DA0184
:10564000C901880F991FAA1FBB1F222757FD239549
:10565000332744275527822B932BA42BB52BFB01F3
:1056600080839183A283B3831431C8F429813A8162
:105670004B815C8126253725482559252221332158
:105680004421552189819A81AB81BC812827392702
:105690004A275B27275636484D47554A46C0183299
:1056A00098F4A401930122253325442555258981A9
:1056B0009A81AB81BC81282739274A275B272F5540
:1056C00034414642514931C01C33E8F4A4019301EE
:1056D000222933294429552989819A81AB81BC81AA
:1056E000282339234A235B23D401C3018221932138
:1056F000A421B521282B392B4A2B5B2B2452334470
:10570000444E504712C0A40193012225332544255D
:10571000552589819A81AB81BC81282739274A2761
:105720005B272A523E434D495543ED80FE800F8151
:105730001885EBE116950795F794E794EA95D1F76C
:105740008D819E81AF81B88575E0880F991FAA1F52
:10575000BB1F7A95D1F7E82AF92A0A2B1B2B8B85D8
:105760009C85AD85BE85E80EF91E0A1F1B1FE985C5
:10577000FA85EF70F0703196EE0FFF1FEE0FFF1FEE
:10578000AF85B889EA0FFB1F80819181A281B38127
:10579000E80EF91E0A1F1B1FE20EF31E041F151F41
:1057A000620151019EE1AA0CBB1CCC1CDD1C9A9528
:1057B000D1F782E056944794379427948A95D1F78D
:1057C000A228B328C428D528E985FA853196FA8716
:1057D000E98729813A814B815C812B873C874D8702
:1057E0005E87B301898A9A8A2D803E804F805884D3
:1057F000E035F10589F0C701D8018D839E83AF8321
:10580000B8873501460149895A89CB01DA01898374
:105810009A83AB83BC83BDCEEF85F889EB5BFF4FEA
:1058200080819181A281B381E80EF91E0A1F1B1F9E
:10583000E082F182028313836F857889675B7F4FF3
:10584000FB0180819181A281B3812D813E814F81B5
:105850005885820F931FA41FB51F80839183A28355
:10586000B383EF85F889E35BFF4F80819181A2814B
:10587000B381A80EB91ECA1EDB1EA082B182C282ED
:10588000D382EF85F889EF5AFF4F80819181A28101
:10589000B381860D971DA81DB91D80839183A283B6
:1058A000B3836F8578896B5A7F4FFB01808191812B
:1058B000A281B38129813A814B815C81820F931F40
:1058C000A41FB51F80839183A283B38362960FB612
:1058D000F894DEBF0FBECDBFCF91DF911F910F9126
:1058E000FF90EF90DF90CF90BF90AF909F908F9000
:1058F0007F906F905F904F903F902F900895CF933F
:10590000DF939C01EC01CC5BDF4F988183E089271A
:10591000F901E80FF11D64839F5F9883903421F4AF
:10592000C9010E94852A1882DF91CF910895FC0158
:10593000E75AFF4F20813181428153812F5F3F4FD2
:105940004F4F5F4F20833183428353830E947F2CCC
:1059500081E090E008950F931F93CF93DF93EC01C4
:1059600060E80E947F2C8E010C5B1F4F04C0CE01AB
:1059700060E00E947F2CF80180818833C1F7CE015E
:1059800060E00E947F2CCE0160E00E947F2CCE015F
:1059900060E00E947F2C8E01075A1F4FF801208182
:1059A000318142815381FDE1569547953795279581
:1059B000FA95D1F7CE01622F0E947F2CF801208149
:1059C000318142815381E5E1569547953795279579
:1059D000EA95D1F7CE01622F0E947F2CF801208139
:1059E0003181428153817DE05695479537952795C2
:1059F0007A95D1F7CE01622F0E947F2CF801208189
:105A000031814281538165E05695479537952795B9
:105A10006A95D1F7CE01622F0E947F2CF801608138
:105A2000660F660F660FCE010E947F2CDF91CF912B
:105A30001F910F910895EF92FF920F931F93CF93B1
:105A4000DF93EC010E94AB2CFE01EB5BFF4F60E0AB
:105A500070E02081318142815381B22FAA2799279A
:105A60008827E52EFF2400271127E82AF92A0A2B88
:105A70001B2BB42FA32F922F882780709070B070AB
:105A8000E82AF92A0A2B1B2B232F342F452F5527C1
:105A9000207040705070E22AF32A042B152BE192FB
:105AA000F192019311936F5F7F4F6530710589F615
:105AB0009E012B5B3F4FC901DF91CF911F910F9149
:105AC000FF90EF900895109287061092860688EA5C
:105AD00091E0909385068093840608950F931F9319
