:100000000C9481020C94BC020C94BC020C94BC02B3
:100010000C94BC020C94BC020C94BC020C94BC0268
:100020000C94BC020C94BC020C94BC020C94BC0258
:100030000C94BC020C94BC020C94BC020C94BC0248
:100040000C9462200C94BC020C94EA210C9438228B
:100050000C94BC020C94BC020C94BC020C94BC0228
:100060000C9451080C94BC026170692E7869766515
:100070006C792E636F6D0057726F7465204645452D
:100080004420494420746F20454550524F4D3A203A
:100090000057726F746520415049204B45592074B8
:1000A0006F20454550524F4D3A20003E3E4143544B
:1000B0004956415445443C3C002F76322F646576C6
:1000C000696365732F003C3C3C2052455120002061
:1000D00074696D65732C2072657374617274696ED6
:1000E000670050726F766973696F6E696E6720661C
:1000F00061696C6564200046454544204C454E4787
:100100005448203D2000415049204B4559204C4542
:100110004E475448203D20003E3E3E464F554E44FB
:1001200020464545445F49440A00666565645F6949
:1001300064003E3E3E464F554E44204150494B459B
:10014000590A006170696B657900546F6B656E3A8E
:1001500020003E3E3E2050524F564953494F4E4993
:100160004E472043414C4C4241434B00556E696E13
:10017000697469616C697A6564202D207465737493
:100180002076616C7565203D200050726576696F40
:1001900075736C792070726F766973696F6E6564C0
:1001A000002F616374697661746500636F6D7075AB
:1001B0007465207368613A200053657269616C2030
:1001C000233A20005352563A2000444E53206C6F7D
:1001D0006F6B7570207375636365656465642E006D
:1001E00046616C6C696E67206261636B20746F207E
:1001F000586976656C79205374617469632049503D
:1002000000444E53206661696C656400444E533A65
:10021000200047573A200049503A200044484350B4
:10022000206661696C656420726573657474696EBB
:1002300067004661696C656420746F206163636563
:1002400073732045746865726E657420636F6E7495
:10025000726F6C6C657200456767205365726961E7
:100260006C20233A2020003A0030000A5B4169727A
:10027000205175616C69747920456767202D204293
:100280006173652053656E736F722050726F76696B
:1002900073696F6E696E67202D2076322E30315D66
:1002A0000000010800060400014500008200004033
:1002B000002000504F535420244620485454502FBF
:1002C000312E300D0A486F73743A2024460D0A24EB
:1002D0004624534163636570743A202A2F2A0D0A1D
:1002E000436F6E74656E742D4C656E6774683A204A
:1002F00024440D0A436F6E74656E742D54797065D5
:100300003A206170706C69636174696F6E2F782D2B
:100310007777772D666F726D2D75726C656E636F72
:100320006465640D0A0D0A24530047455420244691
:10033000245320485454502F312E300D0A486F73E7
:10034000743A2024460D0A24460D0A0D0A00416322
:10035000636570743A20746578742F68746D6C00EE
:10036000E30004FA0001000000010123456789ABA6
:10037000CDEFFEDCBA9876543210F0E1D2C3982F5C
:100380008A4291443771CFFBC0B5A5DBB5E95BC2AA
:100390005639F111F159A4823F92D55E1CAB98AA4F
:1003A00007D8015B8312BE853124C37D0C55745D73
:1003B000BE72FEB1DE80A706DC9B74F19BC1C169F1
:1003C0009BE48647BEEFC69DC10FCCA10C246F2CC9
:1003D000E92DAA84744ADCA9B05CDA88F976525116
:1003E0003E986DC631A8C82703B0C77F59BFF30B2D
:1003F000E0C64791A7D55163CA0667292914850A23
:10040000B72738211B2EFC6D2C4D130D3853547318
:100410000A65BB0A6A762EC9C281852C7292A1E850
:10042000BFA24B661AA8708B4BC2A3516CC719E8C8
:1004300092D1240699D685350EF470A06A1016C1A3
:10044000A419086C371E4C774827B5BCB034B30CE0
:100450001C394AAAD84E4FCA9C5BF36F2E68EE82B5
:100460008F746F63A5781478C8840802C78CFAFF6C
:10047000BE90EB6C50A4F7A3F9BEF27871C667E6A4
:10048000096A85AE67BB72F36E3C3AF54FA57F52A1
:100490000E518C68059BABD9831F19CDE05B000022
:1004A0000000240027002A0000000000250028008A
:1004B0002B0000000000230026002900040404048F
:1004C00004040404020202020202030303030303FE
:1004D00001020408102040800102040810200102DB
:1004E00004081020000000070002010000030406B9
:1004F0000000000000000000E403B307FF1B5720CA
:10050000A423EEE4F7E085EC98E001C08193EF3F8F
:10051000F907E0F3D9F311241FBECFEFD8E0DEBF17
:10052000CDBF14BE88E10FB6F8948093600010929E
:1005300060000FBE11E0A0E0B1E0E4E1FDE402C024
:1005400005900D92A43AB107D9F717E0A4EAB1E0FB
:1005500001C01D92AE34B107E1F714E0C2E0D5E06E
:1005600004C02297FE010E944D26C83FD107C9F75B
:100570000E94FA230C9488260C940000FB01DC01F5
:1005800002C005900D9241505040D8F70895FB01EC
:10059000DC010D900020E9F7119705900D920020E5
:1005A000E1F70895FB01DC014150504030F08D919E
:1005B0000590801919F40020B9F7881B990B08954C
:1005C00044EA51E00E9410030895FB01DC0104C0DD
:1005D0008D910190801921F441505040C8F7881B3B
:1005E000990B0895FB01DC0102C001900D9241506E
:1005F0005040D8F70895FB01DC0101900D920020D6
:10060000E1F70895FB01DC014150504030F08D913D
:100610000190801919F40020B9F7881B990B0895EF
:10062000009731F4DA018D919C91009709F40EC086
:10063000DC01FB013D912191222319F03217C9F30E
:10064000FACF332331F4DA011D921C9288279927BF
:1006500008951197AF93BF93FB013D9121913217FC
:1006600071F4332321F488279927119702C01E9231
:100670001196FA01A193B0839F918F91089522233F
:1006800069F7EACFA0E0B0E0E8E4F3E00C945B2681
:10069000EC017B018A01690109C0CE012196F701B5
:1006A00061917F01F6010995015010400115110576
:1006B000A1F7CDB7DEB7E8E00C947726FA01CF9327
:1006C000FF93EF93223044F1253234F5C22FE894A2
:1006D000CA3049F497FB3EF49095809570956195EA
:1006E0007F4F8F4F9F4F2C2F332744275527FF9342
:1006F000EF930E942926EF91FF91605D6A330CF021
:10070000695D6193B901CA016050704080409040BA
:1007100051F716F4CDE2C19310828F919F91CF9142
:100720000C949203DC01FC01672F71917723E1F7B0
:10073000329704C07C916D9370836291AE17BF07AE
:10074000C8F3089508959C01F999FECF1FBA32BDF0
:1007500021BD60BD0FB6F894FA9AF99A0FBE0895BC
:100760000F931F93CF93DF938B01BC01E80120E02F
:1007700030E0A42FB0E01BC0FB018081E82FF0E047
:1007800094E0F595E7959A95E1F7E15BFE4F80815E
:100790008883FB018191BF01E82FF0E0EF70F070DA
:1007A000E15BFE4F808189832F5F3F4F22962A179E
:1007B0003B0714F3AA0FBB1FA00FB11F1C92DF91C0
:1007C000CF911F910F91089586EA91E062EB73E05B
:1007D0000E94C80A87EA91E00E94000A0895EF92F9
:1007E000FF920F931F937C0182E390E0B70141E1F8
:1007F00050E023EA33E00E9442030CE217E0C80114
:1008000067E770E00E943324C801B7010E94E32526
:100810001F910F91FF90EF900895EF92FF920F9329
:100820001F937C0181E090E0B70141E350E023EAAF
:1008300033E00E9442030CE217E0C80161E970E076
:100840000E943324C801B7010E94E3251F910F9134
:10085000FF90EF900895CF92DF92EF92FF920F9367
:100860001F93CF93DF93182F7B016A018CE297E0EF
:1008700062E571E00E947E248CE297E0612F70E0D7
:100880004AE050E00E94C1258CE297E0B7014AE0BF
:1008900050E00E94C1258CE297E0B6014AE050E0AA
:1008A0000E94C125C70183549E4F60E071E00E9401
:1008B000E002EC0110E000E0EE24CC248FC08CE2DA
:1008C00097E06AE471E00E9433248CE297E0BE0175
:1008D0000E94E325002351F0CE010E940D04FE0189
:1008E00001900020E9F73197EE2EEC1A112351F018
:1008F000CE010E94EF03FE0101900020E9F731973D
:10090000CE2ECC1ACE0163E471E046E050E00E94A6
:10091000D202892B11F000E007C08CE297E062E37D
:1009200071E00E94332401E0CE016AE271E046E00A
:1009300050E00E94D202892B11F010E007C08CE237
:1009400097E068E171E00E94332411E0CC2009F4C3
:100950003EC0EE2009F43BC081E08093B1038CE2FD
:1009600097E066E071E00E9433248CE297E06E2D00
:100970004AE050E00E9450258CE297E067EF70E07B
:100980000E9433248CE297E06C2D4AE050E00E94F4
:100990005025F999FECF1FBA12BC11BC83E780BD68
:1009A0000FB6F894FA9AF99A0FBE68EE73E080E0F9
:1009B00090E00E94B82028E088E190E00FB6F8941B
:1009C000A895809360000FBE20936000FFCF80E069
:1009D00090E060E071E00E94E002EC01209709F0F5
:1009E0006ECFDF91CF911F910F91FF90EF90DF902D
:1009F000CF900895BF92CF92DF92EF92FF920F9324
:100A00001F93DF93CF93CDB7DEB764970FB6F894FB
:100A1000DEBF0FBECDBF6C01DE011196EBE3F1E04E
:100A200084E101900D928150E1F70DEB11E082E13C
:100A3000F80111928A95E9F78CE297E069EB71E091
:100A40000E943324780100E010E02AE3B22EC801AE
:100A50008E549C4FB70141E00E94B003053019F459
:100A6000F701128202C0F701B2820F5F1F4F83E0CD
:100A700090E0E80EF91E0630110549F78CE297E088
:100A80006DEB71E00E94E3258CE297E06BEA71E088
:100A90000E947E2481E295E0BE016F5F7F4F44E1BA
:100AA00050E00E94761C81E295E06DEB71E00E94BF
:100AB000E02581E295E00E94231CB60144E10E94FA
:100AC000B0038CE297E065E071E00E94E0250E94AF
:100AD0000F19BC018CE297E04AE050E00E9421250A
:100AE000C60161EA71E00E94C7028CE297E0B6019C
:100AF0000E94E325F60113AA64960FB6F894DEBFB0
:100B00000FBECDBFCF91DF911F910F91FF90EF905E
:100B1000DF90CF90BF9008955F926F927F928F92F7
:100B20009F92AF92BF92CF92DF92EF92FF920F937C
:100B30001F93DF93CF93CDB7DEB7E4970FB6F8944A
:100B4000DEBF0FBECDBF8E010F5F1F4FC8010E94D9
:100B5000FA041092B10340E1C42E47E2D42EE12CF6
:100B6000F12CAA24BB24502E012F26C08CE297E042
:100B700062EE70E00E9433248CE297E064E070E063
:100B80004AE050E00E94AE258CE297E06FEC70E006
:100B90000E947E2468EE73E080E090E00E94B8201E
:100BA00028E088E190E00FB6F894A8958093600063
:100BB0000FBE20936000FFCF0E94920F0E94151578
:100BC0000E94AA203B014C01C616D706E806F9068A
:100BD00098F78CE297E00E945E248091B10388230D
:100BE00091F58CE297E066EC70E00E94332489EB8B
:100BF00090E0652D702F48E650E02BE234E00E9433
:100C00000A130894A11CB11C8CE297E065E071E026
:100C10000E94E0250E940F19BC018CE297E04AE097
:100C200050E00E94212584E0A816B10409F49ECF6B
:100C300038E9C32E3AE3D32EE12CF12CC60CD71C95
:100C4000E81CF91CB9CF8CE297E06BEA70E00E94D7
:100C50007E24E4960FB6F894DEBF0FBECDBFCF91D1
:100C6000DF911F910F91FF90EF90DF90CF90BF9099
:100C7000AF909F908F907F906F905F9008951F939B
:100C8000F999FECF12BC11BCF89A10B5133739F49C
:100C90008CE297E06AE871E00E947E2415C08CE245
:100CA00097E06CE671E00E9433248CE297E0612FBC
:100CB00040E150E00E94502581E00E9444130E94D0
:100CC0008C0580E00E9444131F910895FF920F93BA
:100CD0001F93CF93DF93EDEBF1E082E1DF011D92F3
:100CE0008A95E9F78F01C0E0D0E05AE3F52ECE01F6
:100CF0008E549C4FB80141E00E94B003C53019F4F6
:100D0000F801128203C0D8011296FC9221960D5F61
:100D10001F4FC630D10559F78CE297E00E945E2440
:100D20008CE297E067E572E00E9433248CE297E062
:100D30006DEB71E00E94E3258CE297E00E945E2457
:100D400084EF91E062EB73E048E00E943E1188235B
:100D500031F48CE297E062E372E00E947E240E940C
:100D6000810D882391F48CE297E06CE172E00E949F
:100D70007E2428E088E190E00FB6F894A89580934F
:100D800060000FBE20936000FFCF8CE297E067E128
:100D900072E00E9433248AEB94E00E94DA188CE21D
:100DA00097E00E945E248CE297E062E172E00E948C
:100DB000332486EC94E00E94DA188CE297E00E94DB
:100DC0005E248CE297E06CE072E00E9433248EECAB
:100DD00094E00E94DA188CE297E00E945E248CE294
:100DE00097E065E071E00E94E0250E940F19BC01C8
:100DF0008CE297E04AE050E00E94212588E690E0EE
:100E000060E00E94B80D8823C9F48CE297E061E0AD
:100E100072E00E947E248CE297E060EE71E00E9416
:100E20007E248DEA8093D2048BEC8093D30482E6F7
:100E30008093D4048DE18093D50406C08CE297E0C2
:100E40006AEC71E00E947E248CE297E064EC71E031
:100E50000E94332482ED94E00E94DA188CE297E03D
:100E60000E945E240E94410FDF91CF911F910F914C
:100E7000FF9008951F93CF93DF93EC0110E08881DA
:100E80008A3030F48CE297E069E672E00E94332405
:100E90008CE297E0688140E150E00E943E251530E9
:100EA00031F08CE297E067E672E00E9433241F5F26
:100EB0002196163021F78CE297E00E945E24DF91A4
:100EC000CF911F9108950F931F930CE217E0C80173
:100ED00040E052EC61E070E00E947322C8016BE6D2
:100EE00072E00E947E24C8016DE071E00E94E0255E
:100EF00082EB93E00E943A070E9466060E943F063A
:100F00001F910F9108952091D90330E08091D8036B
:100F1000281B3109C90108954091D8038091D90354
:100F2000481718F02FEF3FEF0AC0E42FF0E0E85425
:100F3000FC4F8081282F30E04F5F4093D803C901D8
:100F40000895E091D8038091D903E81718F0EFEFE6
:100F5000FFEF06C0F0E0E854FC4F8081E82FF0E09E
:100F6000CF0108950895109200041092FF0388EEB7
:100F700093E0A0E0B0E08093010490930204A0937A
:100F80000304B093040483E691E09093FE038093FE
:100F9000FD030895CF92DF92EF92FF920F931F937C
:100FA000CF93DF937C016B018A018091FC0388233E
:100FB000A1F0C0E0D0E00DC0D701ED91FC91D601C9
:100FC000AC0FBD1F0190F081E02DC7016C91099518
:100FD0002196C017D10780F304C0CB01642F0E9473
:100FE0003608C801DF91CF911F910F91FF90EF90CC
:100FF000DF90CF900895DF93CF930F92CDB7DEB7F8
:10100000FC0169838091FC038823C9F08091FB0374
:10101000803238F081E090E09383828320E030E0FA
:1010200015C08091FA03E82FF0E0E652FC4F998159
:1010300090838F5F8093FA038093FB0305C0CE01FA
:10104000019661E00E94360821E030E0C9010F906E
:10105000CF91DF9108951092D8031092D903109286
:10106000FA031092FB030E94E2090895482F6132AF
:1010700010F081E0089580910904843011F082E03D
:10108000089560935404A3E3B4E0842F9C01F90114
:1010900002C081918D938E2F841B8617D0F380E040
:1010A00008951F920F920FB60F9211242F933F9322
:1010B0004F935F936F937F938F939F93AF93BF9360
:1010C000EF93FF938091B90090E0887F9070803615
:1010D000910509F4F2C081369105CCF5883291056D
:1010E00009F47BC089329105B4F48031910509F48B
:1010F0006FC0813191053CF4009709F447C108970E
:1011000009F04FC165C08831910509F466C0809728
:1011100009F047C182C08034910509F4A4C081342C
:10112000910544F48033910509F482C0C89709F011
:1011300038C189C08035910509F489C08835910589
:1011400009F496C08834910509F02BC1AEC08839E6
:10115000910509F413C189399105ECF4883791059B
:1011600009F4ABC0893791054CF48836910509F430
:10117000A4C08037910509F014C19FC0883891053B
:1011800009F4FCC08039910509F49DC080389105AF
:1011900009F007C198C0803B910509F4C6C0813BA6
:1011A00091054CF4803A910509F49FC0883A910565
:1011B00009F0F7C0BAC0803C910509F4E3C0883C4F
:1011C000910509F4DFC0883B910509F0EAC0C2C06F
:1011D00080910A048093BB00CFC09091310480912C
:1011E0003204981768F490913104E92FF0E0EF5E33
:1011F000FB4F80818093BB009F5F90933104BCC004
:1012000080910B04882309F44BC085ED8093BC00CA
:101210008091BC0084FDFCCFC2C080E28093760444
:1012200085ED8093BC008091BC0084FDFCCFB7C0ED
:1012300080E38093760485ED8093BC008091BC00B0
:1012400084FDFCCFACC088E3809376049BC0809182
:1012500031049091BB00E82FF0E0EF5EFB4F9083EC
:101260008F5F80933104909131048091320482C069
:10127000809131049091BB00E82FF0E0EF5EFB4FCE
:1012800090838F5F8093310480910B04882341F019
:1012900085ED8093BC008091BC0084FDFCCF7FC0B5
:1012A00081E080930C0484EA6EC085ED8093BC00DD
:1012B0008091BC0084FDFCCF72C083E08093090460
:1012C0001092750459C080917504803208F056C0A0
:1012D000809175049091BB00E82FF0E0EB5AFB4F32
:1012E00090838F5F8093750447C08091750480322E
:1012F00030F4E0917504F0E0EB5AFB4F108285ED7D
:101300008093BC008091BC0084FDFCCF1092090446
:1013100060917504E0910F04F091100485E594E06C
:1013200070E00995109275042DC084E08093090443
:101330001092530410925404E0910D04F0910E04A5
:10134000099580915404882329F481E08093540402
:101350001092330490915304E92FF0E0ED5CFB4FC1
:1013600080818093BB009F5F9093530490915304BE
:1013700080915404981710F485EC01C085E880939F
:10138000BC000FC085EC8093BC0009C010927604AD
:1013900085ED8093BC008091BC0084FDFCCF109251
:1013A0000904FF91EF91BF91AF919F918F917F9130
:1013B0006F915F914F913F912F910F900FBE0F90C2
:1013C0001F9018951092090481E080930B041092ED
:1013D0000C0482E161E00E94952183E161E00E94BA
:1013E0009521E9EBF0E080818E7F808380818D7F85
:1013F000808388E48093B80085E48093BC000895DE
:101400000F931F938C018DEF93E00E942B08F8013E
:10141000108211821F910F9108950F931F93579877
:1014200089E090E00E94112109B184E190E00E94DE
:10143000112119B189E090E00E94112117FD02C02D
:1014400080E005C0802F8095881F8827881F1F9106
:101450000F9108956F927F928F929F92AF92BF9259
:10146000CF92DF92FF920F931F93CF93DF935C0194
:101470003B016A0100E010E04A01089481089108EC
:101480002AC0FF24C0E0D0E0C5010E940D0AFF0C75
:10149000F82A2196C830D105B9F7579A08151905C9
:1014A00039F45F9A84E190E00E9411215F9806C0B0
:1014B0005F9884E190E00E9411215F9A84E190E0BE
:1014C0000E941121C5010E940D0AF301E00FF11FD6
:1014D000F0820F5F1F4F0C151D059CF2DF91CF911D
:1014E0001F910F91FF90DF90CF90BF90AF909F9092
:1014F0008F907F906F900895EF92FF921F93CF93FC
:10150000DF937C01162F579AC0E0D0E017FF07C089
:101510005F9884E190E00E9411215F9A06C05F9A73
:1015200084E190E00E9411215F9884E190E00E94A4
:1015300011212196C830D10511F0110FE7CF5F9826
:1015400084E190E00E9411215F9A84E190E00E9482
:101550001121C7010E940D0ADF91CF911F91FF90C9
:10156000EF9008950F931F938C015F9886E090E0B1
:101570000E941121C80165E50E947C0A1F910F910C
:101580000895579A5F9A88E592E00E941121089584
:10159000EF92FF920F931F938C017B01F8940E94AE
:1015A000C10AC8010E94B20AC80160EA0E947C0A0E
:1015B000C80163E00E947C0AC80160E00E947C0AC6
:1015C000C8016AEF0E947C0AC801B70146E050E0FA
:1015D0000E942A0AC8010E94C10A78941F910F91A3
:1015E000FF90EF900895DF93CF9300D000D000D00C
:1015F000CDB7DEB7DE011196EFE6F1E086E00190AF
:101600000D928150E1F786E191E0EDEBF1E0DF0131
:101610009C011D9221503040E1F780917704833086
:1016200019F46AEC74E003C0BE016F5F7F4F84E47D
:1016300090E043E450E00E9470138091770483307F
:1016400039F08DEB91E0BE016F5F7F4F0E94FB1878
:1016500081E08093E7018093E80186E08093E901CF
:101660008091840490918504A0918604B0918704B0
:101670008093EB019093EC01A093ED01B093EE0108
:1016800080917704833039F487EE91E00C966AEB11
:1016900074E00E94031983E092E064EB74E00E941E
:1016A000FB18A3EDB2E0EFE2F1E002C081918D936F
:1016B00031E0E533F307D1F790917704992311F0E6
:1016C00083E001C081E08093D9028DE38093DA0248
:1016D00087E08093DB0281E08093DC02ADEDB2E035
:1016E000E4EBF4E002C081918D9384E0EA3BF807DB
:1016F000D1F78CE08093E3028AE08093E402E4E295
:10170000F1E0A5EEB2E002C081918D9321E0EE32CE
:10171000F207D1F72FEE32E030938C0420938B0444
:10172000913069F582E38093EF0284E08093F002C8
:10173000D9011296EAEBF4E002C081918D9334E076
:10174000EE3BF307D1F786E38093F50284E08093C4
:10175000F60287EF92E090938C0480938B04DC0177
:10176000EAECF4E002C081918D9384E0EE3CF8074E
:10177000D1F78BEF92E090938C0480938B042091AF
:101780008A04222311F094E001C093E0A0918B041D
:10179000B0918C04FD0187E3819311969C93DF0146
:1017A000119681E08183FD01319683E011968C933F
:1017B000DF01119686E08183CD01019690938C0420
:1017C00080938B04222339F011962C9301969093E9
:1017D0008C0480938B04E0918B04F0918C048FEF48
:1017E0008193F0938C04E0938B04CF01875E91404A
:1017F0000E94E61426960FB6F894DEBF0FBECDBF4A
:10180000CF91DF910895EF92FF920F931F93CF93A3
:10181000DF938C0180917704823009F4F7C0833024
:1018200030F4882351F1813009F064C14AC083301B
:1018300021F0843009F05EC1E9C00E94AA20209105
:101840007C0430917D0440917E0450917F04E090AF
:101850007804F090790400917A0410917B042E0DA5
:101860003F1D401F511F621773078407950708F437
:1018700041C10E94F30A84E017C00E94AA2060932D
:101880008404709385048093860490938704109257
:10189000BA041092BB041092BC041092BD040E94C2
:1018A000F30A0E944A0F81E0809377040E94AA20E5
:1018B00060938004709381048093820490938304E6
:1018C00019C10634110508F4D5C08091E0018334B4
:1018D00009F0D0C02091EB013091EC014091ED0175
:1018E0005091EE018091840490918504A09186042A
:1018F000B0918704281739074A075B0709F0BAC077
:10190000C7EDD2E0FE01A80143545E4FDF011196FE
:1019100091819D012F5F3F4F8081853329F411967E
:101920008C91823009F4C5C0F901E90FF11DE4176B
:10193000F50760F39FC0FE019191E980EF012196C8
:101940009333D9F0943340F4933089F0963091F08A
:10195000913009F046C008C09A3379F09F3F09F4EE
:1019600051C09633F1F537C08EEB94E036C086EC6B
:1019700094E033C08EEC94E030C0618170E080E090
:1019800090E0982F872F762F66272981620F711D8F
:10199000811D911D982F872F762F66272A81620F30
:1019A000711D811D911D982F872F762F66272B8102
:1019B000620F711D811D911D28EE33E040E050E063
:1019C0000E94F62560937C0470937D0480937E04CE
:1019D00090937F0488C08AEC94E0BE010E940319B2
:1019E00082C0E0918804F0918904309709F47BC0AB
:1019F00080918A04981709F076C0892FBE014E2D78
:101A0000099571C00E94F30A82E04ECF0634110599
:101A100088F18091E001833469F52091EB013091E8
:101A2000EC014091ED015091EE0180918404909180
:101A30008504A0918604B0918704281739074A07C6
:101A40005B07C1F4E7EDF2E0A80143545E4FDF010C
:101A5000119691819D012F5F3F4F8081853321F445
:101A600011968C91853071F1F901E90FF11DE417A0
:101A7000F50768F30E94AA20209180043091810428
:101A80004091820450918304205F384D4F4F5F4F47
:101A9000261737074807590748F02CC086EC94E012
:101AA0000E94D61383E08093770424C010927704B9
:101AB00021C08AEB94E067EF71E00E9403190354A0
:101AC0001E4F39CF0E94410F0E94AA2060937804D4
:101AD0007093790480937A0490937B048091C60478
:101AE000882301F3DBCFCE0DD11DC017D10708F439
:101AF00022CF88CFDF91CF911F910F91FF90EF9070
:101B00000895CF93DF9381E08093D6049091B90438
:101B1000892F82958F70805D80932C019F70905DDE
:101B200090932D01109277040E94AA20EB0104C02B
:101B30000E94920F0E94030C80917704833061F021
:101B40000E94AA206C1B7D0B60567A4E28F40E94DE
:101B5000530F882389F3ECCF0E94E91290E0809123
:101B60007704833009F491E0892FDF91CF910895B4
:101B7000FF920F931F93CF93DF93EC01F62E0E94F9
:101B8000AA208B010E94530F882329F00E94E312A0
:101B9000882309F4D7C00E94920F0E9415150E9455
:101BA000AA20601B710B6053754760F3C4C088E0C6
:101BB00098E0A8E0B8E08093CE049093CF04A0937F
:101BC000D004B093D10480918D0490E0906E6EECBF
:101BD00074E045E350E00E947013E7EEF1E08CE022
:101BE000DF011D928A95E9F7DF011C9690E0FF2046
:101BF00011F0888102C0FE01849121968E3241F05D
:101C0000882331F09F5FFD01E90FF11D8083EFCF45
:101C1000FD019193DF01A90FB11D882339F7FD0163
:101C2000119211961C92DF01119641E04183FD0152
:101C3000319611961C92418386ED2DEB31E0821B8B
:101C400032968E0F8093E70190918D049093E80176
:101C50004093E9014093EC0190E00E94E6140E9459
:101C6000AA208B0161C00E94AA20601B710B6053E7
:101C7000754708F060C00E94920FEC01009709F4CC
:101C800053C00E941515892B09F04EC0C634D105EA
:101C900008F44AC08091E001853309F045C0809185
:101CA000E101803E09F040C09091E20180918D04F5
:101CB0009817D1F58091E8018917B1F58091EA0173
:101CC00090E08F709070892B79F58091E701E82F73
:101CD000F0E0E951FE4F9E0123543E4F8081807C0D
:101CE00039F0329609C08081882311F4319604C0FE
:101CF0003196E217F307B8F3CF010E96281739078C
:101D000098F08181813051F48185843039F43A969C
:101D100082ED94E0BF010E94031906C0818590E026
:101D20000A96E80FF91FDACF8091D204882309F4CC
:101D30009ACF81E001C080E0DF91CF911F910F9198
:101D4000FF9008951092D2041092D3041092D404FC
:101D50001092D50480918D048F5F80938D048091C3
:101D6000CE04882309F02FCF22CF8091900461E028
:101D70000E94952178940895FF920F931F93082F46
:101D8000162FF42EF8948091900460E00E94952123
:101D90001F71102B1EBD0DB407FEFDCFFEBC0DB490
:101DA00007FEFDCF0E94B50E1F910F91FF90089581
:101DB0001F93182F282F30E02076307080919104E7
:101DC00090E02817390799F080EA6FE143E00E941C
:101DD000BC0E412F40764093910450E085E055952C
:101DE00047958A95E1F780E86FE10E94BC0E1F914C
:101DF00008950F931F93182F062F0E94D80E80E48A
:101E0000612F402F0E94BC0E1F910F9108950F93D8
:101E10001F93182F072F0E94F90E812F8F5F602FBD
:101E20000E94F90E1F910F9108950F931F93182F81
:101E3000062FF8948091900460E00E949521802FF5
:101E40008F71812B8EBD0DB407FEFDCF1EBC0DB46E
:101E500007FEFDCF07FF04C01EBC0DB407FEFDCF7B
:101E60001EB50E94B50E812F1F910F9108951F93EB
:101E7000182F0E94D80E80E0612F0E94150F1F912D
:101E8000089588E30E94370F682F6E7F88E30E94D1
:101E9000F90E089588E30E94370F682F616088E388
:101EA0000E94F90E089584ED61E10E94F90E82ED21
:101EB00061E00E94F90E8AEE0E94370F80FDFBCF91
:101EC00082ED60E00E94F90E89ED0E94370F90E0EC
:101ED0009695879596958795817008950F931F9392
:101EE000CF93DF93EC018B01F8948091900460E034
:101EF0000E9495218AE38EBD0DB407FEFDCF09C077
:101F00001EBC0DB407FEFDCF8EB5F80181938F0185
:101F100021972097A9F70E94B50EDF91CF911F91CD
:101F20000F9108950F931F93DF93CF9300D000D0AC
:101F300000D0CDB7DEB789E30E94370F882319F4AC
:101F400000E010E048C0609192047091930480E03A
:101F50000E94070F86E090E0BE016F5F7F4F0E94F6
:101F60006E0F89819A8190939304809392042B81C0
:101F70003C81E0918E04F0918F048D8187FD03C038
:101F800000E010E00EC0245030408F01015010409E
:101F90002017310708F48901C8016DEB71E00E9438
:101FA0006E0FF801E354FE4F10826091920470911D
:101FB00093048CE06130780724F08CE06FEF7BE0D5
:101FC00003C0615070408CE00E94070F80E86EE112
:101FD00040E40E94BC0EC80126960FB6F894DEBFFE
:101FE0000FBECDBFCF91DF911F910F9108950F9339
:101FF0001F93CF93DF938C01EB01F89480919004B1
:1020000060E00E9495218AE78EBD0DB407FEFDCFEA
:1020100008C088818EBD0DB407FEFDCF219601500A
:10202000104001151105A9F70E94B50EDF91CF915F
:102030001F910F910895CF93DF93EC010FC08CE1B6
:102040000E94370F81FF0AC080E86FE140E80E94DC
:10205000BC0E80EA6FE140E80E94BC0E80E06FE1B8
:102060000E94150F83FDEBCF82E060E07CE00E94D0
:10207000070FBE016050744F86E00E94070F8AE789
:1020800060E040E00E94BC0ECE016DEB71E00E946A
:10209000F70F80E86FE148E00E94BC0EDF91CF911E
:1020A00008958AE061E00E9456218AE061E00E9482
:1020B00095218BE061E00E9456218DE061E00E9455
:1020C00056218CE060E00E9456218BE061E00E9486
:1020D00095218BE060E00E9495218DE060E00E94F8
:1020E000952180E58CBD8DB581608DBD08951F93D0
:1020F000CF93DF93EB01142F90938F0480938E0482
:102100000CB406FC02C00E94511010939004812F61
:1021100061E00E9456210E94B50E8FEF60E04FEF04
:102120000E94BC0E62E070E080E090E00E94B82067
:1021300080E06DE10E94150F8823D1F31092930483
:102140001092920488E060E070E00E94070F8CE03B
:1021500060E070E00E94070F8AE06FEF7BE00E9472
:10216000070F84E060E07CE00E94070F86E06FEFDD
:1021700071E10E94070F0E944A0F88E26FE370E34B
:102180000E94070F80E369EF77EF0E94070F80EC52
:102190006DE00E94F90E81EC60E00E94F90E80E88B
:1021A00062EC42E30E94BC0E86EC62E17CE00E949D
:1021B000070F84EC62E10E94F90E8AEC6CED75E089
:1021C0000E94070F84EE68810E94F90E85EE6981F6
:1021D0000E94F90E82EE6A810E94F90E83EE6B81F5
:1021E0000E94F90E80EE6C810E94F90E81EE6D81E5
:1021F0000E94F90E84ED60E10E94F90E86ED60E028
:1022000071E00E94070F8AEE0E94370F80FDFBCF1E
:102210008FE10E94D80E80E86BE140EC0E94BC0E7A
:1022200080E86FE144E00E94BC0E82E70E94370F15
:10223000863008F08F5FDF91CF911F910895CF9383
:10224000DF93EC019B018A30910548F06AE070E071
:102250000E941526CB01B9010E941F119C01CE01DD
:102260006AE070E00E941526805DF9018193D90132
:1022700011961C92CF01DF91CF910895AF92BF923A
:10228000CF92DF92FF920F931F93CF93DF938C0136
:10229000EB01F42E1092D60438E341E050E060E008
:1022A00070E018C0832F90E0FC01B3E0F595E7954E
:1022B000BA95E1F7EC56FB4F877090705A016B01AD
:1022C00004C0AA0CBB1CCC1CDD1C8A95D2F7208153
:1022D0002A292083315031F784EB94E0BE010E941B
:1022E000FB18C80164EB74E04F2D0E947710DF915A
:1022F000CF911F910F91FF90DF90CF90BF90AF9043
:102300000895CF92DF92EF92FF920F931F93DF9386
:10231000CF93CDB7DEB7EB84FC84CD84DE84DE01C1
:102320001F9601C0D801F6018491882309F4BAC030
:102330000894C11CD11C843209F097C0F60108949E
:10234000C11CD11C8491863409F45DC0873434F4F7
:10235000843469F0853409F088C06CC08C34B9F1DC
:10236000833509F443C0883409F07FC00BC08D0168
:102370000E5F1F4FF701668177818D919C910E94BE
:102380001F117EC02C91822F992787FD909514E014
:10239000959587951A95E1F78F702F702A300CF07C
:1023A000295F8A300CF0895F8D010E5F1F4FF701A6
:1023B000A681B781805DFD018193205D11962C93EC
:1023C0003196D7011796FC93EE931697ABCF8D01FC
:1023D0000C5F1F4F6D917D918D919C91F70146810E
:1023E00057812AE030E00E945E034AC08D010E5FF3
:1023F0001F4F6D917C91D70116968D919C911797E7
:102400000E94FB023DC08D010E5F1F4F2D913C913C
:102410000AC0D7011696ED91FC91179781931796F4
:10242000FC93EE931697F9012F5F3F4F8491882319
:1024300081F778CF8D010E5F1F4F2D913C910AC01F
:10244000D7011696ED91FC91179781931796FC93FF
:10245000EE931697F999FECF32BD21BDF89A80B55B
:102460002F5F3F4F882361F75DCFF70126813781CA
:10247000F90181939F01F701378326838D0152CFA4
:10248000D70116968D919C911797FC010190002021
:10249000E9F73197E81BF90B8E0F9F1FF701978320
:1024A000868340CFCF91DF911F910F91FF90EF90E6
:1024B000DF90CF900895FC01A681B7816D93B7831B
:1024C000A68381E090E00895DF92EF92FF920F9350
:1024D0001F93CF93DF93D82E862FBA01213041F47A
:1024E000675F7F4F9B0140E050E0695070400EC035
:1024F000223029F020E030E040E050E007C0625098
:1025000070409B0140E050E06E5F7F4FE82EFF245B
:102510008DEB91E0E80EF91E8B01E7010FC0F88109
:10252000E0E0898190E08E2B9F2BA0E0B0E0280FA7
:10253000391F4A1F5B1F22960250104002301105BE
:1025400070F7CB018E7FD701A80FB91F68177907E5
:1025500079F08C9190E0A0E0B0E0BA2FA92F982FED
:10256000882702C040E050E0280F391F4A1F5B1F38
:10257000CA01AA27BB270097A105B10599F7C90190
:1025800080959095ED2DF0E0E354FE4F908381838C
:10259000DF91CF911F910F91FF90EF90DF90089501
:1025A0001092D5011092D60180E48093D10110924F
:1025B000D2018093D30188E16EE044E150E020E055
:1025C0000E94641208958091D80486958095817048
:1025D00008958091BE0480959091BA04892B8093D0
:1025E000C2048091BF0480959091BB04892B809395
:1025F000C3048091C00480959091BC04892B809382
:10260000C4048091C10480959091BD04892B80936E
:10261000C50408959093ED048093EC047093F7043F
:102620006093F6045093EF044093EE048EE493E03D
:102630009093F1048093F0041092F3041092F2044A
:102640003093F5042093F404309135012091360144
:102650008AE498E19093E0048093DF048AE897E1AC
:102660009093E2048093E1042093DB043093DC0434
:1026700081E08093D9048091DA048F5F8770809322
:10268000DA048093EB0408958093D70408950F93A0
:102690001F93BC010DEB11E0C8010E94FB18C8019B
:1026A000069664EB74E00E94FB181F910F91089549
:1026B000EF92FF920F931F937B010E9447130BED44
:1026C00011E0C801B7010E940319C80104976AEB21
:1026D00074E00E9403191F910F91FF90EF900895ED
:1026E000EF92FF920F931F93CF93DF937C01EB0147
:1026F0008A0183EE94E00E9458138881807F803E97
:1027000049F088819981AA81BB818F5F9F4FAF4F2C
:10271000BF4F31F48DEB91E065E771E00E94FB184B
:1027200088E08093C9011092CA018BEC91E069EABC
:1027300072E049E050E00E94BE021092CD0181E1BA
:102740008093D4011093E1010093E201F092DF0144
:10275000E092E0011092E3011092E5011092E6018F
:10276000DF91CF911F910F91FF90EF900895EF921D
:10277000FF920F931F9303EC11E0C8010E944713CF
:1027800074E1E72EF12CE00EF11EC8014896B70166
:102790000E940319C7016AEB74E00E9403190E94AA
:1027A000D0121F910F91FF90EF900895BC0181E02E
:1027B0008093D80486EC94E00E94031908950F9347
:1027C0001F938C0188969093CD018093CE010E9437
:1027D000D0121092EF011092F001045E1F4F82E3BD
:1027E0006AE1A80122E00E946412C8014A960E9490
:1027F0001B101F910F910895CF93DF939C01862F9B
:1028000080618093EC01643029F02115310511F4C9
:1028100021E030E09091E1018091DF018093E101BE
:102820009093DF019091E2018091E0018093E201B9
:102830009093E001C6EED1E08881A901480F511DB7
:102840002C814C832883252F3327219751E0C23ECA
:10285000D50791F71D861E8680E589871092CD01E8
:1028600088E28093CE010E94B71384E08B871C8698
:1028700082E36AE14CE150E022E00E94641286E3C8
:1028800090E00E941B10DF91CF910895E82F4091B6
:10289000E10150E0292F30E04217530709F092C0C0
:1028A0008091E2018E1709F08DC08091EC01E82F34
:1028B00081FF4EC01092CD018CE28093CE010E9428
:1028C000B71382E18093EC019091E1018091DF01E7
:1028D0008093E1019093DF019091E2018091E0010A
:1028E0008093E2019093E001E6EEF1E021E030E038
:1028F0008081A901480F511D44831082252F332761
:10290000319751E0E23EF50799F715861686118258
:10291000128280913A01838314828D5F80933A0101
:1029200082E0818B84E0828B95E0938B148A80E631
:102930008187938788E7848782E36AE140E250E0F9
:1029400022E00E9464128AE390E00E941B103AC0C9
:1029500084FF38C09091CD0180E02091CE0130E01D
:10296000282B392B8091EB01482F50E0A4E055959E
:102970004795AA95E1F7CA01880F991F880F991FFB
:10298000281B390B2451304037FF02C020E030E0D3
:102990003093EA042093E904232B69F09A01220F73
:1029A000331F220F331F2E5D3F4F68507040621758
:1029B000730740F009C0E0FF05C080E090E060E0F0
:1029C0000E94FC1320E030E0C90108950F931F938B
:1029D000DF93CF930F92CDB7DEB78C01045E1F4F0C
:1029E0001093CD010C511040802F845E8093CE0156
:1029F00089830E94D012085F1F4F1093E3018981E1
:102A000084518093E401085F1F4F88E26AE1A801C6
:102A100021E00E946412C8014A960E941B100F9088
:102A2000CF91DF911F910F910895DF92EF92FF9266
:102A30000F931F93CF93DF93EC018091D6048823EB
:102A400019F0CE010E94030C209709F0BFC08091BD
:102A5000D8048570F1F18091370190913801892B6C
:102A6000C1F50E94530F8823A1F185E791E00E94F0
:102A7000471388E08093C901E6E0FE2EF092CA0178
:102A80008BEC91E061EA72E048E050E00E94BE0207
:102A90000DED11E0D8011D92FA94E9F7C8010A97EB
:102AA00064EB74E00E94FB18C801069666EC74E0C3
:102AB0000E940319C80104976AEB74E00E9403198D
:102AC0008091D80488608093D8048AE290E00E94C4
:102AD0001B10809137019091380101969093380135
:102AE000809337018091D904813009F003C280912D
:102AF000D80481FFFFC102E00093D904809139011D
:102B00008F5F809339018F711091DA041295110F44
:102B1000107E182BE090DB04D090DC0483EE94E070
:102B200062ED74E00E94581378E0F72EF092C9012C
:102B30001092CA018BEC91E069EA72E049E050E042
:102B40000E94BE028CE28093CE0186E08093D40185
:102B50000E94D012E092E101D092E2018BE08093DA
:102B6000DF011093E001E3EEF1E0DF011D92FA9442
:102B7000E9F780913A018093E5018D5F80933A01F6
:102B800080E68093EB010093EC0183E08093ED01FC
:102B90001092EE011092EF011092F0011092F101EB
:102BA0001092F2010093F30184E08093F40100930A
:102BB000F50186E28093F60182E36AE140E250E0AB
:102BC00022E00E9464128AE390E0AFC0C932D105CE
:102BD00008F490C11091C901183009F096C1809194
:102BE000CA01863009F091C183EE91E06AEB74E08E
:102BF00044E050E00E94E502009709F086C1809110
:102C0000D201813029F583EC91E00E9447131092A4
:102C1000D10182E08093D2018DED91E063ED71E00E
:102C20000E94FB1883ED91E064EB74E00E94FB18B6
:102C300083EE91E069ED71E00E94031989ED91E066
:102C40006AEB74E00E9403198AE290E00E941B1074
:102C50008091D80483FF4EC11091D201123009F047
:102C600049C189ED91E066EC74E044E050E00E94D7
:102C7000E502009709F03EC183EE94E063ED71E058
:102C80000E94FB181093D80435C1183009F032C1E6
:102C90008091CA01882309F02DC18091CB01853430
:102CA00009F028C18BED91E06AEB74E044E050E05C
:102CB0000E94E5020097A9F08BED91E062EC74E0D0
:102CC00044E050E00E94E502009759F08BED91E05E
:102CD00065E771E044E050E00E94E502009709F0EA
:102CE00009C18091D401813019F58091DF018830CC
:102CF000F9F4E091DD04F091DE04309719F087EDEE
:102D000091E009950E94B7131092DF018091E101D3
:102D1000883F28F08091E2018F5F8093E2018091EB
:102D2000E101885F8093E101CE010E941B10E2C0A7
:102D30000E948E18882351F08091D401813131F4A2
:102D4000CE010E949318882309F0D4C0C633D10560
:102D500028F48091D401863009F0CCC08091E10143
:102D60008B3009F0BEC087ED91E062ED74E044E085
:102D700050E00E94E502009709F0BCC08091EC0190
:102D8000382F82FF13C0E091DF04F091E004309708
:102D900059F08091E20182958695877063E040E06A
:102DA00050E020E030E0099585E090C09091CD01A1
:102DB00080E02091CE01022F10E0082B192B80918A
:102DC000EB01482F50E064E0559547956A95E1F78F
:102DD000CA01880F991F880F991F081B190B0451EE
:102DE000104017FF02C000E010E08091D90482304B
:102DF00079F531FF21C034FF1FC080E090E060E032
:102E00000E94FC1388E18093EC01E091E104F091D1
:102E1000E204309719F420E030E007C08091E0012F
:102E200082958695877009959C0183E08093D904EB
:102E3000C9010E94DF135EC081E08093D90434FF92
:102E400003C080E090E002C0C801019664E046C083
:102E5000833081F50115110579F1E091DF04F091DE
:102E6000E004309749F1440F551F440F551FCE0120
:102E700008974E5D5F4F8417950708F4AC01C801B1
:102E8000840F951FC817D90710F0980103C09E0141
:102E9000241B350B8091E20182958695877060E056
:102EA00009958091D704882319F0C80168E016C0FD
:102EB000C80108C08530F1F030FF0BC08330D1F07D
:102EC000C801019669E00E94FC1386E08093D90452
:102ED00011C00115110571F0C80160E00E94FC13DA
:102EE00009C08091350190913601BE010E944614BF
:102EF0009C0102C020E030E0C901DF91CF911F9119
:102F00000F91FF90EF90DF900895CA32D10508F03D
:102F1000BCCEF0CFCF92DF92EF92FF920F931F9330
:102F2000DF93CF93CDB7DEB728970FB6F894DEBF07
:102F30000FBECDBF23EF31E03E832D8338872F8333
:102F40009091EB04891709F08FC01C821B828FE7D8
:102F500091E09A8389834091F2045091F3044115E2
:102F60005105A9F58DB79EB70C970FB6F8949EBF83
:102F70000FBE8DBFEDB7FEB73196CE010196ADB74E
:102F8000BEB712969C938E9311978AE293E0938337
:102F900082838091EC049091ED04958384838091E9
:102FA000F6049091F704978386838091EE049091C4
:102FB000EF04918780878091F0049091F1049387CA
:102FC00082870E9481118DB79EB70C9648C02091D0
:102FD000F0043091F104E090EC04F090ED040091E5
:102FE000EE041091EF042115310519F06CE171E048
:102FF00004C06FE171E022EB32E0DA010D900020B5
:10300000E9F76D010894C108D108C41AD50A8DB733
:103010009EB740970FB6F8949EBF0FBE8DBFEDB719
:10302000FEB73196CE010196ADB7BEB712969C930E
:103030008E93119783EB92E093838283F582E482EF
:10304000178306833187208773876287D586C48676
:10305000578746870E9481118DB79EB740960FB65D
:10306000F8949EBF0FBE8DBF2F8138858D819E81C4
:10307000281B390BC90128960FB6F894DEBF0FBE86
:10308000CDBFCF91DF911F910F91FF90EF90DF9017
:10309000CF9008950F931F93CF93DF938901909161
:1030A000EB04891759F0E091F404F091F50484E001
:1030B00060E070E040E050E009952AC0662341F5E9
:1030C0002D30310528F1C091F404D091F5042097FA
:1030D000F9F04A535E4F80E291E0BA0143E050E0DC
:1030E0000E9402039C0180E0232B09F081E06091A3
:1030F000EB0170E0B4E075956795BA95E1F7660F5E
:10310000771F660F771F6E5D7F4FA801FE0109953F
:1031100080E0DF91CF911F910F910895809120055C
:10312000811181E00895CF92DF92EF92FF920F9389
:103130001F93CF93DF93C8EFD4E030E0CC24DD249D
:1031400029C02A814B818091E10190E0042F10E099
:1031500080179107D9F49091E2019217B9F48C810C
:103160008823A1F02091E40130E028503040F09015
:10317000E301EE242E0D3F1DE881F981892F942F64
:1031800067ED71E047EE51E0099531E00894C11C0C
:10319000D11C25968091200590E0C816D9068CF2A6
:1031A000832FDF91CF911F910F91FF90EF90DF90D0
:1031B000CF9008950F931F93CF93DF938C01C0E0BE
:1031C000D0E0F801EC0FFD1F8CE297E060814AE04F
:1031D00050E00E943E25C33029F08CE297E06EE279
:1031E0000E9456242196C430D10559F7DF91CF9122
:1031F0001F910F910895DC01FB0186E001900D9273
:103200008150E1F708959C01FB0180819181A281A9
:10321000B381F90180839183A283B3830895EEE49F
:10322000F7E020E030E003C031962F5F3F4F808110
:10323000853C29F488E0EF3FF807B1F3A8F3C90112
:1032400008952F923F924F925F926F927F928F924A
:103250009F92AF92BF92CF92DF92EF92FF920F9325
:103260001F93DF93CF93CDB7DEB762970FB6F89475
:10327000DEBF0FBECDBF8B5B9F4FDC012D913D911B
:103280004D915D912D833E834F8358872D903D90C6
:103290004D905D906D907D908D909D902D913D9184
:1032A0004D915D9129833A834B835C832D913D91B0
:1032B0004D915C9113972B873C874D875E87A55571
:1032C000B040B88BAF871A8619861985103108F47B
:1032D00069C069857A856F7070706F5F7F4F660F08
:1032E000771F660F771FEF85F8896E0F7F1FA985FF
:1032F000BA851D96AF70B0701196AA0FBB1FAA0FAA
:10330000BB1FAE0FBF1F89859A8508968F7090707E
:103310000196880F991F880F991F8E0F9F1F2D915F
:103320003D914D915C91FC0180819181A281B3819D
:10333000282739274A275B27FB0180819181A281B9
:10334000B381282739274A275B27E985FA853296F2
:10335000EF70F0703196EE0FFF1FEE0FFF1F8F859D
:103360009889E80FF91F80819181A281B381282774
:1033700039274A275B27DA01C901880F991FAA1F3D
:10338000BB1F222757FD2395332744275527822B20
:10339000932BA42BB52BFB0180839183A283B38352
:1033A0001431C8F429813A814B815C812625372567
:1033B00048255925222133214421552189819A818B
:1033C000AB81BC81282739274A275B2727563648F7
:1033D0004D47554A46C0183298F4A401930122255E
:1033E00033254425552589819A81AB81BC812827C5
:1033F00039274A275B272F5534414642514931C06E
:103400001C33E8F4A40193012229332944295529C6
:1034100089819A81AB81BC81282339234A235B238C
:10342000D401C30182219321A421B521282B392B5A
:103430004A2B5B2B24523344444E504712C0A40104
:103440009301222533254425552589819A81AB8115
:10345000BC81282739274A275B272A523E434D49FA
:103460005543ED80FE800F811885EBE11695079599
:10347000F794E794EA95D1F78D819E81AF81B88565
:1034800075E0880F991FAA1FBB1F7A95D1F7E82A0C
:10349000F92A0A2B1B2B8B859C85AD85BE85E80EF2
:1034A000F91E0A1F1B1FE985FA85EF70F07031962F
:1034B000EE0FFF1FEE0FFF1FAF85B889EA0FFB1F4E
:1034C00080819181A281B381E80EF91E0A1F1B1F22
:1034D000E20EF31E041F151F620151019EE1AA0CAA
:1034E000BB1CCC1CDD1C9A95D1F782E05694479406
:1034F000379427948A95D1F7A228B328C428D528D1
:10350000E985FA853196FA87E98729813A814B81E5
:103510005C812B873C874D875E87B301898A9A8AB5
:103520002D803E804F805884E035F10589F0C70139
:10353000D8018D839E83AF83B887350146014989C1
:103540005A89CB01DA0189839A83AB83BC83BDCED0
:10355000EF85F889EB5BFF4F80819181A281B38178
:10356000E80EF91E0A1F1B1FE082F18202831383FB
:103570006F857889675B7F4FFB0180819181A28194
:10358000B3812D813E814F815885820F931FA41FE7
:10359000B51F80839183A283B383EF85F889E35BB2
:1035A000FF4F80819181A281B381A80EB91ECA1EEE
:1035B000DB1EA082B182C282D382EF85F889EF5AE6
:1035C000FF4F80819181A281B381860D971DA81D37
:1035D000B91D80839183A283B3836F8578896B5AE9
:1035E0007F4FFB0180819181A281B38129813A8142
:1035F0004B815C81820F931FA41FB51F8083918331
:10360000A283B38362960FB6F894DEBF0FBECDBF20
:10361000CF91DF911F910F91FF90EF90DF90CF90AE
:10362000BF90AF909F908F907F906F905F904F90E2
:103630003F902F900895CF93DF939C01EC01CC5BDA
:10364000DF4F988183E08927F901E80FF11D64833A
:103650009F5F9883903421F4C9010E942119188238
:10366000DF91CF910895FC01E75AFF4F208131810E
:10367000428153812F5F3F4F4F4F5F4F20833183F4
:10368000428353830E941B1B81E090E008950F93B7
:103690001F93CF93DF93EC0160E80E941B1B8E0108
:1036A0000C5B1F4F04C0CE0160E00E941B1BF801A1
:1036B00080818833C1F7CE0160E00E941B1BCE01E0
:1036C00060E00E941B1BCE0160E00E941B1B8E016C
:1036D000075A1F4FF8012081318142815381FDE15A
:1036E0005695479537952795FA95D1F7CE01622FD4
:1036F0000E941B1BF8012081318142815381E5E149
:103700005695479537952795EA95D1F7CE01622FC3
:103710000E941B1BF80120813181428153817DE091
:1037200056954795379527957A95D1F7CE01622F13
:103730000E941B1BF801208131814281538165E089
:1037400056954795379527956A95D1F7CE01622F03
:103750000E941B1BF8016081660F660F660FCE0189
:103760000E941B1BDF91CF911F910F910895EF9243
:10377000FF920F931F93CF93DF93EC010E94471B9F
:10378000FE01EB5BFF4F60E070E020813181428100
:103790005381B22FAA2799278827E52EFF240027D7
:1037A0001127E82AF92A0A2B1B2BB42FA32F922FBB
:1037B000882780709070B070E82AF92A0A2B1B2B9A
:1037C000232F342F452F5527207040705070E22A48
:1037D000F32A042B152BE192F192019311936F5F61
:1037E0007F4F6530710589F69E012B5B3F4FC90104
:1037F000DF91CF911F910F91FF90EF90089510925C
:1038000024051092230587E891E090932205809388
:10381000210508950F931F938C018B5B9F4F6AE6E0
:1038200073E044E150E00E94BE02075A1F4FF801C6
:10383000108211821282138205511040F801108209
:103840001F910F910895BF92CF92DF92EF92FF9256
:103850000F931F93CF93DF93EC013DE9C32ED12C3F
:10386000C80ED91E0E94B71BD601FC0184E101904D
:103870000D928150E1F7CE010E940A1C8E01035A7D
:103880001F4F2CE5B22E9DE9E92EF12CEC0EFD1E0A
:10389000E881F981D8016D918D016B250190F0814E
:1038A000E02DCE0109950E151F0591F7860181EBDC
:1038B000E82EF12CEC0EFD1EE881F9810190F081DB
:1038C000E02DCE01D8016D918D0109950E151F05D2
:1038D00099F7CE010E94B71BDF91CF911F910F91F5
:1038E000FF90EF90DF90CF90BF900895CF92DF923E
:1038F000EF92FF920F931F93CF93DF938C017B0185
:10390000EA016DE5C62ED12CC80ED91E80E4D60181
:103910001D928A95E9F741345105FCF0C8010E94D7
:103920000A1C0BC0F70161917F01D801ED91FC9158
:103930000190F081E02DC80109952197BFEFCF3F9D
:10394000DB0781F7C8010E94B71BD601FC0184E1A7
:1039500001900D928150E1F704C0C601B7010E94A9
:10396000F202C8010E940A1CE60156E3D52E4DE979
:10397000E42EF12CE00EF11ED801ED91FC9169913D
:103980006D250190F081E02DC8010995CE15DF0568
:1039900099F7DF91CF911F910F91FF90EF90DF90FA
:1039A000CF9008952F923F924F925F926F927F92A5
:1039B0008F929F92AF92BF92CF92DF92EF92FF923F
:1039C0000F931F93DF93CF93CDB7DEB7A2970FB6B8
:1039D000F894DEBF0FBECDBF8B5B9F4FDC012D91F6
:1039E0003D914D915D9129833A834B835C832D9169
:1039F0003D914D915D912D833E834F8358872D914D
:103A00003D914D915D9129873A874B875C876D90F9
:103A10007D908D909D902D913D914D915D912D8743
:103A20003E874F87588B2D913D914D915D91298B0C
:103A30003A8B4B8B5C8B2D913D914D915D91BAA34F
:103A4000A9A32D8B3E8B4F8B588F8D919D910D90FF
:103A5000BC91A02DE9A1FAA1E156F040FAA3E9A397
:103A60002EE733E03C8F2B8F41E050E05A8F498F97
:103A70000EC1598D503108F4CBC0698D7A8D6F70AD
:103A80007070E98DFA8D3297EF70F0703196EE0F0D
:103A9000FF1FEE0FFF1F89A19AA1E80FF91FA08059
:103AA000B180C280D380E98DFA8D3F97EF70F070BE
:103AB0003196EE0FFF1FEE0FFF1FE80FF91F60801A
:103AC000718082809380E98DFA8D3797EF70F07066
:103AD0003196EE0FFF1FEE0FFF1FE80FF91F6F5F0C
:103AE0007F4F660F771F660F771F680F791FE08083
:103AF000F18002811381FB0180819181A281B381D8
:103B0000E80EF91E0A1F1B1FD601C50121E1B6955B
:103B1000A795979587952A95D1F7A6019501FFE07E
:103B2000220F331F441F551FFA95D1F7822B932B79
:103B3000A42BB52BA6019501EAE05695479537953C
:103B40002795EA95D1F782279327A427B527A601C1
:103B50009501FDE0220F331F441F551FFA95D1F741
:103B6000E3E1D694C794B794A794EA95D1F72A29AC
:103B70003B294C295D2982279327A427B527E80EE6
:103B8000F91E0A1F1B1FD401C30127E0B695A79594
:103B9000979587952A95D1F7A4019301F9E1220F12
:103BA000331F441F551FFA95D1F7822B932BA42B5B
:103BB000B52BA4019301E3E05695479537952795DA
:103BC000EA95D1F782279327A427B527A40193016B
:103BD000FEE0220F331F441F551FFA95D1F7E2E193
:103BE0009694879477946794EA95D1F72629372994
:103BF0004829592982279327A427B527E80EF91EBB
:103C00000A1F1B1FDB01ED92FD920D931C9313976E
:103C1000EB8DFC8D3496FC8FEB8F298D3A8D2F5FC9
:103C20003F4F3A8F298F8D899E89AF89B88D298919
:103C30003A894B895C892D8B3E8B4F8B588F2D8514
:103C40003E854F855889298B3A8B4B8B5C8B6984D9
:103C50007A848B849C842D813E814F81588529876D
:103C60003A874B875C8729813A814B815C812D8320
:103C70003E834F83588729823A824B825C822D8D06
:103C80003E8D4F8D58A12D873E874F87588B2B8DAA
:103C90003C8DF901A590B590C590D490A80EB91EA1
:103CA000CA1EDB1E2D853E854F8558890BE0569533
:103CB0004795379527950A95D1F78D859E85AF85D0
:103CC000B88915E1880F991FAA1FBB1F1A95D1F754
:103CD000282B392B4A2B5B2B8D859E85AF85B88988
:103CE000F6E0B695A79597958795FA95D1F7ED8467
:103CF000FE840F851889EAE1EE0CFF1C001F111FDE
:103D0000EA95D1F78E299F29A02BB12B2827392797
:103D10004A275B278D859E85AF85B88979E1B69561
:103D2000A795979587957A95D1F7ED84FE840F85B1
:103D3000188967E0EE0CFF1C001F111F6A95D1F770
:103D40008E299F29A02BB12B282739274A275B27AB
:103D5000A20EB31EC41ED51E89899A89AB89BC895F
:103D60002D893E894F89588D82279327A427B5270F
:103D70002D853E854F85588982239323A423B5231F
:103D80002D893E894F89588D82279327A427B527EF
:103D9000A80EB91ECA1EDB1EE98DFA8D3197EF7091
:103DA000F0703196EE0FFF1FEE0FFF1F49A15AA1D1
:103DB000E40FF51F80819181A281B381A80EB91E05
:103DC000CA1EDB1EE980FA800B811C813DE016953E
:103DD0000795F794E7943A95D1F789819A81AB8159
:103DE000BC8123E1880F991FAA1FBB1F2A95D1F719
:103DF000E82AF92A0A2B1B2B89819A81AB81BC8185
:103E0000F2E0B695A79597958795FA95D1F7298110
:103E10003A814B815C81EEE1220F331F441F551F15
:103E2000EA95D1F7822B932BA42BB52BE826F92604
:103E30000A271B2789819A81AB81BC8176E1B695DF
:103E4000A795979587957A95D1F729813A814B81E6
:103E50005C816AE0220F331F441F551F6A95D1F71A
:103E6000822B932BA42BB52BE826F9260A271B2798
:103E7000D601C501860D971DA81DB91D8D8F9E8F7A
:103E8000AF8FB8A32D803E804F80588429853A8516
:103E90004B855C85222A332A442A552A89819A81B6
:103EA000AB81BC81282239224A225B228D819E81EE
:103EB000AF81B88582239323A423B523282A392AE6
:103EC0004A2A5B2A2E0C3F1C401E511E2A0C3B1C0A
:103ED0004C1C5D1CAB8DBC8DAA57B44009F0C9CDFC
:103EE000E9A1FAA1EB5BFF4F80819181A281B381AF
:103EF000280E391E4A1E5B1E208231824282538266
:103F000069A17AA1675B7F4FFB0180819181A281CA
:103F1000B38129813A814B815C81820F931FA41F59
:103F2000B51F80839183A283B38369A17AA1635B68
:103F30007F4FFB0180819181A281B3812D813E81E0
:103F40004F815885820F931FA41FB51F80839183D3
:103F5000A283B38369A17AA16F5A7F4FFB0180814D
:103F60009181A281B38129853A854B855C85820F39
:103F7000931FA41FB51F80839183A283B383E9A1FC
:103F8000FAA1EB5AFF4F60807180828093802D8D63
:103F90003E8D4F8D58A1260D371D481D591D20837C
:103FA00031834283538369A17AA1675A7F4FFB0112
:103FB00080819181A281B3812D853E854F8558896D
:103FC000820F931FA41FB51F80839183A283B383A5
:103FD00069A17AA1635A7F4FFB0180819181A281FF
:103FE000B38129893A894B895C89820F931FA41F69
:103FF000B51F80839183A283B38369A17AA16F598E
:104000007F4FFB0180819181A281B3812D893E89FF
:104010004F89588D820F931FA41FB51F80839183F2
:10402000A283B383A2960FB6F894DEBF0FBECDBFB6
:10403000CF91DF911F910F91FF90EF90DF90CF9084
:10404000BF90AF909F908F907F906F905F904F90B8
:104050003F902F900895CF93DF939C01EC01CC5BB0
:10406000DF4F988183E08927F901E80FF11D648310
:104070009F5F9883903421F4C9010E94D21C18825A
:10408000DF91CF910895FC01EB59FF4F20813181E1
:10409000428153812F5F3F4F4F4F5F4F20833183CA
:1040A000428353830E942B2081E090E00895109278
:1040B000D5051092D4058FE891E09093D3058093B5
:1040C000D20508951F920F920FB60F9211242F93CD
:1040D0003F938F939F93AF93BF9380919F0690914F
:1040E000A006A091A106B091A2063091A306019668
:1040F000A11DB11D232F2D5F2D3720F02D570196C7
:10410000A11DB11D2093A30680939F069093A00646
:10411000A093A106B093A20680919B0690919C0665
:10412000A0919D06B0919E060196A11DB11D8093A0
:104130009B0690939C06A0939D06B0939E06BF910C
:10414000AF919F918F913F912F910F900FBE0F9044
:104150001F9018958FB7F89420919F063091A00674
:104160004091A1065091A2068FBFB901CA010895DE
:104170009B01AC017FB7F89480919B0690919C06BF
:10418000A0919D06B0919E0666B5A89B05C06F3FA5
:1041900019F00196A11DB11D7FBFBA2FA92F982F2D
:1041A0008827860F911DA11DB11D62E0880F991F00
:1041B000AA1FBB1F6A95D1F7BC012DC0FFB7F894A9
:1041C00080919B0690919C06A0919D06B0919E06C1
:1041D000E6B5A89B05C0EF3F19F00196A11DB11DE2
:1041E000FFBFBA2FA92F982F88278E0F911DA11DD1
:1041F000B11DE2E0880F991FAA1FBB1FEA95D1F7F6
:10420000861B970B885E9340C8F221503040404097
:10421000504068517C4F211531054105510571F61B
:104220000895019739F0880F991F880F991F0297F9
:104230000197F1F70895789484B5826084BD84B5C0
:10424000816084BD85B5826085BD85B5816085BD91
:10425000EEE6F0E0808181608083E1E8F0E01082AA
:10426000808182608083808181608083E0E8F0E0EB
:10427000808181608083E1EBF0E0808184608083D5
:10428000E0EBF0E0808181608083EAE7F0E080810C
:10429000846080838081826080838081816080836C
:1042A0008081806880831092C1000895CF93DF934E
:1042B000482F50E0CA0180539B4FFC013491445475
:1042C0005B4FFA018491882369F190E0880F991F70
:1042D000FC01E256FB4FA591B491FC01E855FB4F60
:1042E000C591D491662351F42FB7F8948C91932FF4
:1042F000909589238C93888189230BC0623061F467
:104300002FB7F8948C91932F909589238C93888163
:10431000832B88832FBF06C09FB7F8948C91832B83
:104320008C939FBFDF91CF910895482F50E0CA0131
:104330008C519B4FFC012491CA0180539B4FFC017F
:10434000949144545B4FFA013491332309F440C0F3
:10435000222351F1233071F0243028F42130A1F0D0
:10436000223011F514C02630B1F02730C1F02430CE
:10437000D9F404C0809180008F7703C080918000C1
:104380008F7D8093800010C084B58F7702C084B584
:104390008F7D84BD09C08091B0008F7703C080916C
:1043A000B0008F7D8093B000E32FF0E0EE0FFF1F91
:1043B000E855FB4FA591B4912FB7F894662321F4EB
:1043C0008C919095892302C08C91892B8C932FBF5F
:1043D000089508951F920F920FB60F9211242F93F4
:1043E0003F934F938F939F93EF93FF938091C000E0
:1043F00082FD1DC04091C6002091E4063091E50683
:104400002F5F3F4F2F7330708091E6069091E70643
:104410002817390771F0E091E406F091E506EC55B4
:10442000F94F40833093E5062093E40602C0809163
:10443000C600FF91EF919F918F914F913F912F91E6
:104440000F900FBE0F901F901895E0913807F091D4
:104450003907E05CFF4F8191919120813181821B6E
:10446000930B8F739070892B11F00E94E9210895AE
:104470001F920F920FB60F9211242F933F938F9399
:104480009F93EF93FF932091280730912907809104
:104490002A0790912B072817390731F48091C10022
:1044A0008F7D8093C10014C0E0912A07F0912B0703
:1044B000E851F94F208180912A0790912B070196AE
:1044C0008F73907090932B0780932A072093C600D8
:1044D000FF91EF919F918F913F912F910F900FBE80
:1044E0000F901F901895AF92BF92DF92EF92FF92BC
:1044F0000F931F93CF93DF93EC017A018B01DD249F
:10450000403081EE580780E0680780E0780711F0BE
:10451000DD24D39491E0A92EB12CEC89FD89DD2016
:1045200069F0C50108A002C0880F991F0A94E2F73C
:10453000808360E079E08DE390E005C0108260E860
:1045400074E88EE190E0A80197010E94292621508D
:10455000304040405040569547953795279580E12B
:104560002030380720F0DD2011F0DD24D6CFE88997
:10457000F9893083EA89FB89208319A2EE89FF89B2
:10458000408121E030E0C9010C8C02C0880F991FE6
:104590000A94E2F7482B4083EE89FF894081C901E4
:1045A0000D8C02C0880F991F0A94E2F7482B4083B4
:1045B000EE89FF894081C9010E8C02C0880F991FC6
:1045C0000A94E2F7482B4083EE89FF8980810F8CA3
:1045D00002C0220F331F0A94E2F72095282320837C
:1045E000DF91CF911F910F91FF90EF90DF90BF90DF
:1045F000AF900895DC011C96ED91FC911D97E05C55
:10460000FF4F2191319180819181281B390B2F73AC
:104610003070C9010895DC011C96ED91FC911D9745
:10462000E05CFF4F20813181E054F040DF01AE5B60
:10463000BF4F8D919C9111972817390719F42FEFCF
:104640003FEF07C08D919C91E80FF91F8081282FC3
:1046500030E0C9010895DC011C96ED91FC911D9795
:10466000E05CFF4F20813181E054F040DF01AE5B20
:10467000BF4F8D919C9111972817390719F42FEF8F
:104680003FEF10C08D919C911197E80FF91F208189
:104690008D919C91119701968F73907011969C93B8
:1046A0008E9330E0C9010895DC0191968C91919729
:1046B000882339F05496ED91FC915597808186FFBF
:1046C000F9CF91961C920895CF93DF93EC01EE857C
:1046D000FF85E05CFF4F20813181E054F0402F5F87
:1046E0003F4F2F733070DF01AE5BBF4F8D919C91B8
:1046F000119728173907D1F3E05CFF4F8081918132
:10470000E054F040E80FF91F6083EE85FF85E05C20
:10471000FF4F31832083EE89FF89208181E090E083
:104720000F8C02C0880F991F0A94E2F7282B208370
:1047300081E089A3EC89FD8980818064808381E0A8
:1047400090E0DF91CF91089510922F0710922E07DD
:1047500088EE93E0A0E0B0E08093300790933107BB
:10476000A0933207B093330787E991E090932D0728
:1047700080932C0784EA96E090933907809338075A
:1047800088EE96E090933B0780933A0785EC90E0A3
:1047900090933D0780933C0784EC90E090933F0713
:1047A00080933E0780EC90E0909341078093400710
:1047B00081EC90E0909343078093420782EC90E075
:1047C000909345078093440786EC90E090934707C9
:1047D0008093460784E08093480783E080934907ED
:1047E00087E080934A0785E080934B0781E08093C0
:1047F0004C070895CF93DF930E941B210E9463070B
:10480000C5E2D2E20E94A2032097E1F30E94252292
:10481000F9CFCF92DF92EF92FF920F931F93CF9336
:10482000DF937C016B018A01C0E0D0E00FC0D601AC
:104830006D916D01D701ED91FC910190F081E02D1A
:10484000C7010995C80FD91F015010400115110566
:1048500071F7CE01DF91CF911F910F91FF90EF90F3
:10486000DF90CF900895EF92FF920F931F93CF9315
:10487000DF937C018B01C0E0D0E0F8010F5F1F4F98
:104880006491662359F0D701ED91FC910190F0817C
:10489000E02DC7010995C80FD91FEFCFCE01DF91D9
:1048A000CF911F910F91FF90EF900895DC01ED9152
:1048B000FC910190F081E02D09950895EF92FF920F
:1048C0000F931F938C01DC01ED91FC910190F0811D
:1048D000E02D6DE009957C01D801ED91FC910190EE
:1048E000F081E02DC8016AE009959C012E0D3F1D65
:1048F000C9011F910F91FF90EF900895EF92FF92E1
:104900000F931F937C010E9433248C01C7010E94E6
:104910005E249C01200F311FC9011F910F91FF9050
:10492000EF900895CF93DF93EC016115710519F4B1
:1049300020E030E00FC0DB010D900020E9F7119777
:10494000A61BB70BE881F9810280F381E02DAD0150
:1049500009959C01C901DF91CF9108954F925F9213
:104960007F928F929F92AF92BF92CF92DF92EF92FF
:10497000FF920F931F93DF93CF93CDB7DEB7A1972D
:104980000FB6F894DEBF0FBECDBF2C01742ECB0145
:10499000223008F42AE019A231E2C32ED12CCC0E29
:1049A000DD1E822E9924AA24BB24672D752FA50114
:1049B00094010E94292679018A01C801B701A50145
:1049C00094010E94F625472D461B0894C108D10882
:1049D0004A3014F4405D01C0495CF6014083E114A3
:1049E000F1040105110521F07E2C5F2DC801DDCFFA
:1049F000C201B6010E949224A1960FB6F894DEBFC0
:104A00000FBECDBFCF91DF911F910F91FF90EF901F
:104A1000DF90CF90BF90AF909F908F907F905F90EE
:104A20004F900895DC012115310541F4ED91FC9181
:104A30000190F081E02D642F099508950E94AE2425
:104A40000895CF92DF92EF92FF920F931F936C0124
:104A50007B019A0100E010E0B801A7010E94122535
:104A60008C01C6010E945E24080F191FC8011F9106
:104A70000F91FF90EF90DF90CF900895EF92FF920B
:104A80000F931F939A01E62EFF2400E010E0B80177
:104A9000A7010E9412251F910F91FF90EF9008959A
:104AA000CF92DF92EF92FF920F931F936C01E62E4D
:104AB0009A01FF2400E010E0B801A7010E9412252E
:104AC0008C01C6010E945E24080F191FC8011F91A6
:104AD0000F91FF90EF90DF90CF900895CF92DF92EB
:104AE000EF92FF920F931F93CF93DF93EC016A0134
:104AF0007B012115310541F4E881F9810190F081B4
:104B0000E02D642F09951FC02A303105D1F477FFBD
:104B100017C0E881F9810190F081E02D6DE20995DF
:104B20008C0144275527BA014C195D096E097F098C
:104B3000CE012AE00E94AE249801280F391F04C03C
:104B40002AE00E94AE249C01C901DF91CF911F9100
:104B50000F91FF90EF90DF90CF900895EF92FF922A
:104B60000F931F937B019A010027F7FC0095102FEC
:104B7000B801A7010E946E251F910F91FF90EF9041
:104B80000895CF92DF92EF92FF920F931F936C01E3
:104B90007B019A010027F7FC0095102FB801A701AF
:104BA0000E946E258C01C6010E945E24080F191F09
:104BB000C8011F910F91FF90EF90DF90CF90089563
:104BC0000E9492240895EF92FF920F931F937C010D
:104BD0000E9492248C01C7010E945E24080F191FB5
:104BE000C8011F910F91FF90EF900895629FD0012F
:104BF000739FF001829FE00DF11D649FE00DF11D98
:104C0000929FF00D839FF00D749FF00D659FF00D46
:104C10009927729FB00DE11DF91F639FB00DE11D33
:104C2000F91FBD01CF0111240895AA1BBB1B51E13F
:104C300007C0AA1FBB1FA617B70710F0A61BB70B0C
:104C4000881F991F5A95A9F780959095BC01CD01B1
:104C50000895A1E21A2EAA1BBB1BFD010DC0AA1FBD
:104C6000BB1FEE1FFF1FA217B307E407F50720F0D5
:104C7000A21BB30BE40BF50B661F771F881F991F50
:104C80001A9469F760957095809590959B01AC0199
:104C9000BD01CF010895EE0FFF1F0590F491E02DA7
:104CA00009942F923F924F925F926F927F928F92D0
:104CB0009F92AF92BF92CF92DF92EF92FF920F93AB
:104CC0001F93CF93DF93CDB7DEB7CA1BDB0B0FB6B5
:104CD000F894DEBF0FBECDBF09942A883988488872
:104CE0005F846E847D848C849B84AA84B984C88408
:104CF000DF80EE80FD800C811B81AA81B981CE0FFF
:104D0000D11D0FB6F894DEBF0FBECDBFED010895E3
:104D1000F894FFCF3A2C220A00537461636B3A2057
:104D200000556E697420416464726573733A2000A3
:104D30000D0A00003230300041726475696E6F2DCB
:104D400030300063825363350150000100010AE5F1
:104D50004C89CF2B916934A288304B6F7630E5B9FE
:104D6000AAD8C830313233343536373839616263C6
:104D700064656600000000FB07CA0783078C07A173
:104D800007B207FFFFFFFFFFFFFFFFFFFFFFFF006F
:104D90000000005B12092400000000331B092400FE
:104DA000000000432009240000000064230924FAC5
:104DB000222B230B2354230041726475696E6F2DDF
:104DC00030300063825363350150000100010AE571
:104DD0004C89CF2B916934A288304B6F7630E5B97E
:104DE000AAD8C83031323334353637383961626346
:104DF00064656600000000FB07CA0783078C07A1F3
:104E00009FB7F8948C91832B8C939FBFDF91CF91A8
:104E10000895482F50E0CA018F599A4FFC01249100
:104E2000CA01835B9A4FFC019491475C5A4FFA0187
:104E30003491332309F440C0222351F1233071F01F
:104E4000243028F42130A1F0223011F514C026308E
:104E5000B1F02730C1F02430D9F404C08091800033
:104E60008F7703C0809180008F7D8093800010C079
:104E700084B58F7702C084B58F7D84BD09C08091D1
:104E8000B0008F7703C08091B0008F7D8093B00019
:104E9000E32FF0E0EE0FFF1FEB5DFA4FA591B49109
:104EA0002FB7F894662321F48C919095892302C042
:104EB0008C91892B8C932FBF0895682F70E0CB01C4
:104EC0008F599A4FFC012491CB01835B9A4FFC01CF
:104ED0004491675C7A4FFB019491992319F420E087
:104EE00030E03CC0222351F1233071F0243028F40B
:104EF0002130A1F0223011F514C02630B1F0273056
:104F0000C1F02430D9F404C0809180008F7703C0B1
:104F1000809180008F7D8093800010C084B58F7752
:104F200002C084B58F7D84BD09C08091B0008F77A9
:104F300003C08091B0008F7D8093B000892F90E0F6
:104F4000880F991F815D9A4FFC01A591B4918C91B6
:104F500020E030E0842311F021E030E0C901089521
:104F600008951F920F920FB60F9211242F933F9323
:104F70004F938F939F93EF93FF938091C00082FD97
:104F80001DC04091C60020919606309197062F5F74
:104F90003F4F2F7330708091980690919906281793
:104FA000390771F0E0919606F0919706EA5AF94FA9
:104FB0004083309397062093960602C08091C600E6
:104FC000FF91EF919F918F914F913F912F910F9072
:104FD0000FBE0F901F901895E091EA06F091EB0636
:104FE000E05CFF4F8191919120813181821B930B75
:104FF0008F739070892B11F00E94B02708951F9233
:105000000F920FB60F9211242F933F938F939F937C
:10501000EF93FF932091DA063091DB068091DC0656
:105020009091DD062817390731F48091C1008F7DFA
:105030008093C10014C0E091DC06F091DD06E656D5
:10504000F94F20818091DC069091DD0601968F73E7
:1050500090709093DD068093DC062093C600FF914C
:10506000EF919F918F913F912F910F900FBE0F90D5
:105070001F901895AF92BF92DF92EF92FF920F931D
:105080001F93CF93DF93EC017A018B01DD24403035
:1050900081EE580780E0680780E0780711F0DD2492
:1050A000D39491E0A92EB12CEC89FD89DD2069F023
:1050B000C50108A002C0880F991F0A94E2F78083F7
:1050C00060E079E08DE390E005C0108260E874E86C
:1050D0008EE190E0A80197010E94AE2E2150304051
:1050E00040405040569547953795279580E12030B0
:1050F000380720F0DD2011F0DD24D6CFE889F989CA
:105100003083EA89FB89208319A2EE89FF894081D7
:1051100021E030E0C9010C8C02C0880F991F0A946D
:10512000E2F7482B4083EE89FF894081C9010D8C4D
:1051300002C0880F991F0A94E2F7482B4083EE893A
:10514000FF894081C9010E8C02C0880F991F0A9403
:10515000E2F7482B4083EE89FF8980810F8C02C0E3
:10516000220F331F0A94E2F7209528232083DF9132
:10517000CF911F910F91FF90EF90DF90BF90AF9074
:105180000895DC011C96ED91FC911D97E05CFF4FAA
:105190002191319180819181281B390B2F733070BF
:1051A000C9010895DC011C96ED91FC911D97E05C0E
:1051B000FF4F20813181E054F040DF01AE5BBF4FF3
:1051C0008D919C9111972817390719F42FEF3FEF14
:1051D00007C08D919C91E80FF91F8081282F30E046
:1051E000C9010895DC011C96ED91FC911D97E05CCE
:1051F000FF4F20813181E054F040DF01AE5BBF4FB3
:105200008D919C9111972817390719F42FEF3FEFD3
:1052100010C08D919C911197E80FF91F20818D91FD
:105220009C91119701968F73907011969C938E9319
:1052300030E0C9010895DC0191968C919197882303
:1052400039F05496ED91FC915597808186FFF9CF06
:1052500091961C920895CF93DF93EC01EE85FF8524
:10526000E05CFF4F20813181E054F0402F5F3F4FE1
:105270002F733070DF01AE5BBF4F8D919C91119702
:1052800028173907D1F3E05CFF4F80819181E0540A
:10529000F040E80FF91F6083EE85FF85E05CFF4F6B
:1052A00031832083EE89FF89208181E090E00F8C9B
:1052B00002C0880F991F0A94E2F7282B208381E00F
:1052C00089A3EC89FD8980818064808381E090E0FE
:1052D000DF91CF9108951092E1061092E00688EEDA
:1052E00093E0A0E0B0E08093E2069093E306A09301
:1052F000E406B093E50684E991E09093DF0680939D
:10530000DE0686E596E09093EB068093EA068AE94E
:1053100096E09093ED068093EC0685EC90E09093F8
:10532000EF068093EE0684EC90E09093F106809374
:10533000F00680EC90E09093F3068093F20681EC07
:1053400090E09093F5068093F40682EC90E09093C1
:10535000F7068093F60686EC90E09093F90680932A
:10536000F80684E08093FA0683E08093FB0687E0EA
:105370008093FC0685E08093FD0681E08093FE0625
:105380000895CF93DF930E946D260E94950ACCEE7C
:10539000D7E20E9496082097E1F30E94EC27F9CF0C
:1053A000CF92DF92EF92FF920F931F93CF93DF93F1
:1053B0007C016B018A01C0E0D0E00FC0D6016D9185
:1053C0006D01D701ED91FC910190F081E02DC701B5
:1053D0000995C80FD91F015010400115110571F72B
:1053E000CE01DF91CF911F910F91FF90EF90DF9051
:1053F000CF900895EF92FF920F931F93CF93DF9377
:105400007C018B01C0E0D0E0F8010F5F1F4F649179
:10541000662359F0D701ED91FC910190F081E02DC8
:10542000C7010995C80FD91FEFCFCE01DF91CF91EA
:105430001F910F91FF90EF900895DC01ED91FC9189
:105440000190F081E02D09950895EF92FF920F935E
:105450001F938C01DC01ED91FC910190F081E02D16
:105460006DE009957C01D801ED91FC910190F081EE
:10547000E02DC8016AE009959C012E0D3F1DC90170
:105480001F910F91FF90EF900895EF92FF920F936D
:105490001F937C010E94FA298C01C7010E94252AD2
:1054A0009C01200F311FC9011F910F91FF90EF90B8
:1054B0000895CF93DF93EC016115710519F420E095
:1054C00030E00FC0DB010D900020E9F71197A61B1B
:1054D000B70BE881F9810280F381E02DAD010995D8
:1054E0009C01C901DF91CF9108954F925F927F9205
:1054F0008F929F92AF92BF92CF92DF92EF92FF92E4
:105500000F931F93DF93CF93CDB7DEB7A1970FB65D
:10551000F894DEBF0FBECDBF2C01742ECB0122301C
:1055200008F42AE019A231E2C32ED12CCC0EDD1EE4
:10553000822E9924AA24BB24672D752FA5019401DE
:105540000E94AE2E79018A01C801B701A50194011C
:105550000E947B2E472D461B0894C108D1084A3073
:1055600014F4405D01C0495CF6014083E114F1048C
:105570000105110521F07E2C5F2DC801DDCFC20190
:10558000B6010E94592AA1960FB6F894DEBF0FBE4D
:10559000CDBFCF91DF911F910F91FF90EF90DF90E2
:1055A000CF90BF90AF909F908F907F905F904F90E3
:1055B0000895DC012115310541F4ED91FC91019034
:1055C000F081E02D642F099508950E94752A0895B1
:1055D000CF92DF92EF92FF920F931F936C017B01AA
:1055E0009A0100E010E0B801A7010E94D92A8C01BD
:1055F000C6010E94252A080F191FC8011F910F918B
:10560000FF90EF90DF90CF900895EF92FF920F936D
:105610001F939A01E62EFF2400E010E0B801A701D5
:105620000E94D92A1F910F91FF90EF900895CF9279
:10563000DF92EF92FF920F931F93CF93DF93EC01D2
:105640006A017B012115310541F4E881F98101905E
:10565000F081E02D642F09951FC02A303105D1F467
:1056600077FF17C0E881F9810190F081E02D6DE2AC
:1056700009958C0144275527BA014C195D096E091B
:105680007F09CE012AE00E94752A9801280F391F50
:1056900004C02AE00E94752A9C01C901DF91CF91C4
:1056A0001F910F91FF90EF90DF90CF9008950E948F
:1056B000592A08957F928F929F92AF92BF92CF9274
:1056C000DF92EF92FF920F931F93CF93DF934C01E2
:1056D0007A018B01722ECB01BA01A80197010E94B9
:1056E000772E882321F0C40163E271E021C0C0E07D
:1056F000D0E057016801E894D7F8C601B5012FEF53
:105700003FEF4FE75FE70E94772E882351F4C601F1
:10571000B5012FEF3FEF4FE75FE70E94C12C18164E
:1057200014F0C1E0D0E0219739F0C40167E271E0E4
:105730000E94592AEC0193C0C801B7012FEF3FEF37
:105740004FE75FE40E94102E181654F0C801B7010D
:105750002FEF3FEF4FE75FEC0E94C12C882324F42A
:10576000C4016BE271E0E4CFC801B70120E030E092
:1057700040E050E00E94C12C87FD03C0C0E0D0E0B3
:105780000EC0D401ED91FC910190F081E02DC40197
:105790006DE20995EC0117FB109517F9109520E0C3
:1057A00030E040E05FE3DD240BC0CA01B90120E036
:1057B00030E040E251E40E94C52C9B01AC01D3943F
:1057C000D71498F3C801B7010E945D2C5B016C01EE
:1057D0000E94322D7B018C01C401B801A7012AE08F
:1057E00030E00E94D92AC80FD91F772039F0C401B0
:1057F0006FE271E00E94592AC80FD91FC801B70192
:105800000E945E2D9B01AC01C601B5010E945C2C7B
:1058100024C020E030E040E251E40E94142E7B01DD
:105820008C010E942D2D5B016C01CC24B7FCC0942F
:10583000DC2CC401B601A5012AE030E00E94172B40
:10584000C80FD91FC601B5010E94602D9B01AC0194
:10585000C801B7010E945C2C7A947720D1F6CE0162
:10586000DF91CF911F910F91FF90EF90DF90CF903C
:10587000BF90AF909F908F907F9008950E945A2B79
:105880000895EF92FF920F931F937C010E94592A73
:105890008C01C7010E94252A080F191FC8011F91FA
:1058A0000F91FF90EF900895009729F0BC0180E0E0
:1058B00090E00E94530308955058BB27AA270ED0AA
:1058C00075C166D130F06BD120F031F49F3F11F4F7
:1058D0001EF45BC10EF4E095E7FB51C1E92F77D1CF
:1058E00080F3BA17620773078407950718F071F4FD
:1058F0009EF58FC10EF4E0950B2EBA2FA02D0B0153
:10590000B90190010C01CA01A0011124FF27591B04
:1059100099F0593F50F4503E68F11A16F040A22F0A
:10592000232F342F4427585FF3CF4695379527957B
:10593000A795F0405395C9F77EF41F16BA0B620B7A
:10594000730B840BBAF09150A1F0FF0FBB1F661FC1
:10595000771F881FC2F70EC0BA0F621F731F841F04
:1059600048F4879577956795B795F7959E3F08F02A
:10597000B3CF9395880F08F09927EE0F97958795E9
:105980000895D9D008F481E008950CD00FC107D153
:1059900040F0FED030F021F45F3F19F0F0C051111B
:1059A00039C1F3C014D198F39923C9F35523B1F346
:1059B000951B550BBB27AA2762177307840738F07E
:1059C0009F5F5F4F220F331F441FAA1FA9F333D0DD
:1059D0000E2E3AF0E0E830D091505040E695001C91
:1059E000CAF729D0FE2F27D0660F771F881FBB1F4D
:1059F000261737074807AB07B0E809F0BB0B802D27
:105A0000BF01FF2793585F4F2AF09E3F510568F072
:105A1000B6C000C15F3FECF3983EDCF38695779506
:105A20006795B795F7959F5FC9F7880F911D969574
:105A3000879597F90895E1E0660F771F881FBB1FD0
:105A4000621773078407BA0720F0621B730B840B7D
:105A5000BA0BEE1F88F7E095089504D06894B11151
:105A6000D9C00895BCD088F09F5790F0B92F9927DE
:105A7000B751A0F0D1F0660F771F881F991F1AF059
:105A8000BA95C9F712C0B13081F0C3D0B1E0089522
:105A9000C0C0672F782F8827B85F39F0B93FCCF3A3
:105AA000869577956795B395D9F73EF4909580954F
:105AB000709561957F4F8F4F9F4F0895E89409C06F
:105AC00097FB3EF490958095709561957F4F8F4F31
:105AD0009F4F9923A9F0F92F96E9BB279395F69547
