:100000000C94C3030C9433300C9460300C94FE03B6
:100010000C94FE030C94FE030C94FE030C94FE035C
:100020000C94FE030C94FE030C94FE030C94FE034C
:100030000C94FE030C94FE030C94FE030C94FE033C
:100040000C94092F0C94FE030C9414330C9462331B
:100050000C94FE030C94FE030C94FE030C94FE031C
:100060000C94FE030C94FE036170692E636F736D34
:100070002E636F6D003E3E3E20524553504F4E530F
:1000800045205245434549564544202D2D2D0025F8
:1000900030325800446174612073656E740053659A
:1000A0006E64696E67206461746120746F20436FB1
:1000B000736D0050555420687474703A2F2F244685
:1000C0002F76322F66656564732F24452E6A736F11
:1000D0006E20485454502F312E300D0A486F7374DF
:1000E0003A2024460D0A582D4170694B65793A2013
:1000F00024450D0A436F6E74656E742D4C656E67F2
:1001000074683A2024440D0A0D0A24480050726590
:10011000706172696E6720737461736800227D7DFF
:100120005D7D00222C2273796D626F6C223A220071
:10013000225D2C22756E6974223A7B226C616265A5
:100140006C223A2200222C226171653A6669726D36
:10015000776172655F76657273696F6E3D00636F7C
:100160006D70757465640072300072617700222CC6
:10017000226171653A646174615F6F726967696E6B
:100180003D00222C226171653A73656E736F725F58
:10019000696E6465783D00222C226171653A736551
:1001A0006E736F725F616464726573733D005F723A
:1001B00030005F72617700222C2274616773223AEB
:1001C0005B226171653A73656E736F725F747970EB
:1001D000653D00222C2263757272656E745F7661D4
:1001E0006C7565223A22007B2264617461737472BB
:1001F00065616D73223A5B7B226964223A2022009A
:1002000057726F7465204645454420494420746FF9
:1002100020454550524F4D3A200057726F7465206B
:10022000415049204B455920746F20454550524F4D
:100230004D3A20003E3E4143544956415445443CCA
:100240003C002F76322F646576696365732F003C1E
:100250003C3C2052455120002074696D65732C2070
:1002600072657374617274696E670050726F76693B
:1002700073696F6E696E67206661696C65642000E2
:100280002E2E2E0046454544204C454E47544820CE
:100290003D2000415049204B4559204C454E475484
:1002A00048203D20003E3E3E464F554E44204645A8
:1002B00045445F49440A00666565645F6964003EC1
:1002C0003E3E464F554E44204150494B45590A0049
:1002D0006170696B657900546F6B656E3A20003E02
:1002E0003E3E2050524F564953494F4E494E4720AB
:1002F00043414C4C4241434B00556E696E697469F1
:10030000616C697A6564202D207465737420766150
:100310006C7565203D200050726576696F75736C51
:10032000792070726F766973696F6E6564002F61F2
:100330006374697661746500636F6D7075746520B0
:100340007368613A200053657269616C20233A201A
:10035000005352563A2000444E53206661696C6542
:100360006400444E533A200047573A200049503A1F
:10037000200044484350206661696C6564207265C2
:1003800073657474696E67004661696C6564207496
:100390006F206163636573732045746865726E6571
:1003A0007420636F6E74726F6C6C65720045676762
:1003B0002053657269616C20233A202000506169E6
:1003C00072696E67204576656E7420436F756E7432
:1003D0003A200020002052656365697665642050EC
:1003E00061636B657420447572696E672050616942
:1003F00072696E67005F003000202053656E736F76
:10040000722056616C75653A2000202053656E732A
:100410006F7220556E6974733A2000202053656E08
:10042000736F7220547970653A2000202053656EF6
:10043000736F7220496E6465783A20002020536FF4
:10044000757263652053656E736F722041646472C8
:100450006573733A2000202052656D6F74652053D8
:10046000746174696F6E20416464726573733A20BD
:1004700000202052656D6F7465204669726D77614A
:1004800072652056657273696F6E3A2000202050A5
:1004900061636B657420547970653A200050616324
:1004A0006B65742052656365697665642040200041
:1004B000546F6F204C6F6E672053696E6365204CDC
:1004C00061737420526573706F6E73652046726F2E
:1004D0006D20436F736D2C20526573657474696E63
:1004E000670050616972696E6720636F6D706C653B
:1004F000746500556E697420416464726573733A63
:1005000020000A5B416972205175616C6974792021
:10051000456767202D204261736520456767202D60
:100520002076322E305D00000108000604000145EF
:100530000000820000400020504F535420244620E9
:10054000485454502F312E300D0A486F73743A209E
:1005500024460D0A244624534163636570743A208F
:100560002A2F2A0D0A436F6E74656E742D4C656ECA
:100570006774683A2024440D0A436F6E74656E7484
:100580002D547970653A206170706C69636174698B
:100590006F6E2F782D7777772D666F726D2D757250
:1005A0006C656E636F6465640D0A0D0A2453004721
:1005B0004554202446245320485454502F312E3083
:1005C0000D0A486F73743A2024460D0A24460D0A1A
:1005D0000D0A004163636570743A20746578742F66
:1005E00068746D6C00E30004FA00010000000198DB
:1005F0002F8A4291443771CFFBC0B5A5DBB5E95BCB
:10060000C25639F111F159A4823F92D55E1CAB98C4
:10061000AA07D8015B8312BE853124C37D0C5574B3
:100620005DBE72FEB1DE80A706DC9B74F19BC1C18A
:10063000699BE48647BEEFC69DC10FCCA10C246F19
:100640002CE92DAA84744ADCA9B05CDA88F97652C8
:10065000513E986DC631A8C82703B0C77F59BFF374
:100660000BE0C64791A7D55163CA066729291485AF
:100670000AB72738211B2EFC6D2C4D130D3853540F
:10068000730A65BB0A6A762EC9C281852C7292A153
:10069000E8BFA24B661AA8708B4BC2A3516CC71956
:1006A000E892D1240699D685350EF470A06A10160A
:1006B000C1A419086C371E4C774827B5BCB034B3B9
:1006C0000C1C394AAAD84E4FCA9C5BF36F2E68EEB9
:1006D000828F746F63A5781478C8840802C78CFA77
:1006E000FFBE90EB6C50A4F7A3F9BEF27871C66719
:1006F000E6096A85AE67BB72F36E3C3AF54FA57F9B
:10070000520E518C68059BABD9831F19CDE05B015C
:1007100023456789ABCDEFFEDCBA9876543210F0F2
:10072000E1D2C300000000240027002A00000000DE
:1007300000250028002B00000000002300260029CF
:10074000000404040404040404020202020202037A
:100750000303030303010204081020408001020484
:100760000810200102040810200000000700020108
:100770000000030406000000000000000000AB05BC
:10078000672A502DCE34ECEEF7E085EC98E001C0FE
:100790008193EF3FF907E0F3D9F311241FBECFEFA8
:1007A000D8E0DEBFCDBF14BE88E10FB6F8948093C9
:1007B0006000109260000FBE11E0A0E0B1E0EAE23C
:1007C000F0E702C005900D92AC3BB107D9F717E0F6
:1007D000ACEBB1E001C01D92AC3EB107E1F717E010
:1007E000C6E8D7E004C02297FE010E94D837CE3772
:1007F000D107C9F70E946D350C9413380C94000092
:10080000FB01DC0102C005900D9241505040D8F729
:100810000895FB01DC010D900020E9F71197059088
:100820000D920020E1F70895FC0105900020E9F702
:10083000809590958E0F9F1F0895FB01DC0141501C
:10084000504030F08D910590801919F40020B9F7CF
:10085000881B990B0895FB0155915523A9F0BF0101
:10086000DC014D9145174111E1F759F4CD01059097
:10087000002049F04D9140154111C9F3FB01411190
:10088000EFCF81E090E0019708954CEB51E00E949A
:100890008F040895FB01DC0104C08D910190801943
:1008A00021F441505040C8F7881B990B0895FB0173
:1008B000DC0102C001900D9241505040D8F70895DC
:1008C000FB01DC010D900020E9F7119701900D92DA
:1008D0000020E1F70895FB01DC0101900D9200205A
:1008E000E1F70895FB01DC014150504030F08D915B
:1008F0000190801919F40020B9F7881B990B08950D
:10090000FB01DC014150504048F001900D92002065
:10091000C9F701C01D9241505040E0F7089500977B
:1009200031F4DA018D919C91009709F40EC0DC013D
:10093000FB013D912191222319F03217C9F3FACF1F
:10094000332331F4DA011D921C92882799270895E8
:100950001197AF93BF93FB013D912191321771F431
:10096000332321F488279927119702C01E921196EC
:10097000FA01A193B0839F918F910895222369F783
:10098000EACFA0E0B0E0E7ECF4E00C94E637EC014D
:100990007B018A01690109C0CE012196F7016191AD
:1009A0007F01F60109950150104001151105A1F7CD
:1009B000CDB7DEB7E8E00C940238FB019F01E89464
:1009C0004230C4F04532B4F44A3029F497FB1EF4A7
:1009D000909581959F4F642F77270E948537805D82
:1009E0008A330CF0895D8193CB010097A1F716F44F
:1009F0005DE251931082C9010C943205FA01CF9344
:100A0000FF93EF93223044F1253234F5C22FE8945E
:100A1000CA3049F497FB3EF49095809570956195A6
:100A20007F4F8F4F9F4F2C2F332744275527FF93FE
:100A3000EF930E949937EF91FF91605D6A330CF05C
:100A4000695D6193B901CA01605070408040904077
:100A500051F716F4CDE2C19310828F919F91CF91FF
:100A60000C943205DC01FC01672F71917723E1F7CB
:100A7000329704C07C916D9370836291AE17BF076B
:100A8000C8F308959C01F999FECF1FBA32BD21BD6C
:100A900060BD0FB6F894FA9AF99A0FBE08950F93B5
:100AA0001F93CF93DF938B01BC01E80120E030E07E
:100AB000A42FB0E01BC0FB018081E82FF0E094E0A0
:100AC000F595E7959A95E1F7E85AFE4F808188837E
:100AD000FB018191BF01E82FF0E0EF70F070E85A60
:100AE000FE4F808189832F5F3F4F22962A173B0755
:100AF00014F3AA0FBB1FA00FB11F1C92DF91CF915F
:100B00001F910F910895DF92EF92FF920F931F9321
:100B1000CF93DF937C01D42E8B01C0E0D0E0C701DE
:100B20008C0F9D1FB80141E00E944F05C53019F49C
:100B3000F801128202C0F801D28221960D5F1F4F88
:100B4000C630D10561F7DF91CF911F910F91FF90D2
:100B5000EF90DF9008950F931F930AE314E08EEB5C
:100B600091E0B8010E94CB118FEB91E00E94942498
:100B700081EE91E0B8010E94600E10923404109250
:100B8000330484E591E09093320480933104109211
:100B90003804109236041F910F9108950E944A1450
:100BA00081E090E008950E94512F60932D0470938E
:100BB0002E0480932F049093300408950E94512FA7
:100BC000E0E020912D0430912E0440912F045091AB
:100BD0003004621B730B840B950B615C7742894078
:100BE000904008F0E1E08E2F0895809140040E942B
:100BF0002E18892B41F08AEC97E065E770E00E949F
:100C000062310E94D30508958F929F92AF92BF9256
:100C1000CF92DF92EF92FF920F931F93DF93CF93C8
:100C2000CDB7DEB7CA54D0400FB6F894DEBF0FBEC2
:100C3000CDBF81E394E00E949B16882E60E4962E3F
:100C40005BE0A52EB12CAC0EBD1ED501E92D1D9289
:100C5000EA95E9F743E0C42ED12CCC0EDD1E88E0E6
:100C6000D6011D928A95E9F78091000190910101CA
:100C70009A83898381EE91E00E94700DDC010D90D2
:100C80000020E9F78D0101501040081B190B81EE7F
:100C900091E00E94700DBC01C5010E946004C50175
:100CA0007E010894E11CF11CB7010E94600481EEF2
:100CB00091E00E94680D0F5F1F4F0A0D1B1DB801C8
:100CC0004DE20E948305C501B7010E94600481EED8
:100CD00091E00E946D0D90E0B6014AE050E00E9464
:100CE000DD04C501B6010E94600481E394E067EE73
:100CF00071E00E94173181E394E0B5010E94FD325A
:100D000081E394E063ED71E00E94173181EE91E0A0
:100D10000E947A0DAB01BC0181E394E02AE030E04F
:100D20000E94773281E394E067EB71E00E94173113
:100D300081EE91E00E94700D62EB71E00E942B0445
:100D4000892B11F4CC2420C0F50111929A94E9F773
:100D500081EE91E00E94700D8C0181EE91E00E9485
:100D6000700DDC010D900020E9F7A81BB90B159759
:100D7000C501B801AD010E94800481E394E0B50192
:100D80000E94FD32CC24C39481EE91E00E94700D4C
:100D90006EEA71E00E942B04892B29F18E01055F18
:100DA0001F4F80E4D8011D928A95E9F781EE91E00A
:100DB0000E94700D7C0181EE91E00E94700DDC01BB
:100DC0000D900020E9F7A81BB90B1497C801B701D3
:100DD000AD010E94800481E394E0B8010E94FD32DD
:100DE000EE24E3940AC081EE91E00E94700DBC01F4
:100DF00081E394E00E94FD32EE2481E394E067E910
:100E000071E00E9417318E01055F1F4F80E4F801E9
:100E100011928A95E9F781EE91E00E94680DB80180
:100E20004AE30E94830581E394E0B8010E94FD3209
:100E300081E394E062E871E00E94173181EE91E075
:100E40000E946D0D682F81E394E04AE050E00E941B
:100E5000473281E394E06EE671E00E941731CC20C6
:100E600029F081E394E06AE671E00BC0EE2029F0FE
:100E700081E394E067E671E004C081E394E06EE50D
:100E800071E00E94173181E394E065E471E00E9413
:100E9000173181EE91E00E945A0DBC0181E394E08C
:100EA0004AE050E00E94193281E394E060E371E08F
:100EB0000E94173181EE91E00E94750DBC0181E323
:100EC00094E00E94FD3281E394E063E271E00E94CD
:100ED000173181EE91E00E94750DBC0181E394E031
:100EE0000E94FD3281E394E06DE171E00E941731D0
:100EF00081E394E00E9474148AEC97E06DE071E065
:100F00000E94623181E394E00E94BB132DB73EB78B
:100F10002E5030400FB6F8943EBF0FBE2DBFEDB738
:100F2000FEB7319623EB30E0ADB7BEB712963C93D7
:100F30002E93119748E650E05383428322E330E03A
:100F4000358324835783468321E030E0318720872F
:100F500093878287848615860E94FD14EDB7FEB7BD
:100F60003E960FB6F894FEBF0FBEEDBF8AEC97E039
:100F70006EE970E00E9462310E940E188093400476
:100F80008AEC97E064E970E00E946231C65BDF4F53
:100F90000FB6F894DEBF0FBECDBFCF91DF911F918A
:100FA0000F91FF90EF90DF90CF90BF90AF909F9008
:100FB0008F900895EF92FF920F931F937C0182E32D
:100FC00090E0B7014AE050E022E435E00E94C1041D
:100FD0000AEC17E0C80160E072E00E941731C80116
:100FE000B7010E9400331F910F91FF90EF90089579
:100FF000EF92FF920F931F937C0181E090E0B70185
:1010000041E350E022E435E00E94C1040AEC17E01D
:10101000C8016AE172E00E941731C801B7010E945D
:1010200000331F910F91FF90EF900895AF92BF9200
:10103000CF92DF92EF92FF920F931F93CF93DF93A4
:101040005C0179018A0116950795F794E794C0E051
:10105000D0E0C62EDD2414C08FEB91E064E372E093
:101060000E94D224C801B7010E945F2F8FEB91E04C
:10107000B5010E94D224C801B7010E945F2F2196BA
:10108000CC15DD0548F38FEB91E064E372E00E943C
:10109000D224DF91CF911F910F91FF90EF90DF90BD
:1010A000CF90BF90AF9008951F93CF93DF93EC0143
:1010B00010E088818A3030F48AEC97E067EF73E0C3
:1010C0000E9417318AEC97E0688140E150E00E946D
:1010D0004732153031F08AEC97E065EF73E00E94FB
:1010E00017311F5F2196163021F78AEC97E00E9496
:1010F0004231DF91CF911F910895CF92DF92EF920D
:10110000FF920F931F93CF93DF93182F7B016A01F8
:101110008AEC97E06FED72E00E9462318AEC97E012
:10112000612F70E04AE050E00E94DE328AEC97E0E6
:10113000B7014AE050E00E94DE328AEC97E0B60147
:101140004AE050E00E94DE32C701885C9D4F62E0B9
:1011500071E00E944504EC0110E000E0EE24CC2494
:1011600095C08AEC97E067ED72E00E9417318AEC37
:1011700097E0BE010E940033002351F0CE010E948F
:10118000F807FE0101900020E9F73197EE2EEC1AE6
:10119000112351F0CE010E94DA07FE0101900020D8
:1011A000E9F73197CE2ECC1ACE0160ED72E046E021
:1011B00050E00E941D04892B11F000E007C08AEC6A
:1011C00097E06FEB72E00E94173101E0CE0167EB10
:1011D00072E046E050E00E941D04892B11F010E0FF
:1011E00007C08AEC97E065EA72E00E94173111E0CF
:1011F000CC2009F444C0EE2009F441C081E0809382
:101200002C048AEC97E063E972E00E9417318AECC3
:1012100097E06E2D4AE050E00E9459328AEC97E048
:1012200064E872E00E9417318AEC97E06C2D4AE086
:1012300050E00E945932F999FECF1FBA12BC11BC7E
:1012400083E780BD0FB6F894FA9AF99A0FBE8FEB38
:1012500091E06AE171E00E94D22460E177E280E0EF
:1012600090E00E945F2F28E088E190E00FB6F894AC
:10127000A895809360000FBE20936000FFCF80E0B0
:1012800090E062E071E00E944504EC01209709F0D3
:1012900068CF8AEC97E060E872E00E946231DF91EB
:1012A000CF911F910F91FF90EF90DF90CF90089515
:1012B000BF92CF92DF92EF92FF920F931F93DF9333
:1012C000CF93CDB7DEB7A6970FB6F894DEBF0FBEAB
:1012D000CDBF6C01DE015396E8E6F1E084E10190B8
:1012E0000D928150E1F78E010F5F1F4F82E1F801EF
:1012F00011928A95E9F78AEC97E066E473E00E9420
:101300001731780100E010E0EAE3BE2EC801865CE8
:101310009B4FB70141E00E944F05053019F4F701DA
:10132000128202C0F701B2820F5F1F4F83E090E08C
:10133000E80EF91E0630110549F78AEC97E08E0198
:101340000F5F1F4FB8010E9400338AEC97E068E3FB
:1013500073E00E94623184E896E0BE016D5E7F4FCB
:1013600044E150E00E94C72D84E896E0B8010E9455
:10137000FD3284E896E00E94742DB60144E10E949B
:101380004F058AEC97E067E071E00E94FD320E9411
:10139000E223BC018AEC97E04AE050E00E942A3246
:1013A000C6016EE273E00E9409048AEC97E0B60180
:1013B0000E940033F60113AAA6960FB6F894DEBF7A
:1013C0000FBECDBFCF91DF911F910F91FF90EF9096
:1013D000DF90CF90BF9008955F926F927F928F922F
:1013E0009F92AF92BF92CF92DF92EF92FF920F93B4
:1013F0001F93DF93CF93CDB7DEB7E4970FB6F89482
:10140000DEBF0FBECDBF8E010F5F1F4FC8010E9410
:10141000580910922C04A0E1CA2EA7E2DA2EE12C82
:10142000F12CAA24BB24502E012F30C08AEC97E067
:101430006BE672E00E9417318AEC97E064E070E09E
:101440004AE050E00E94CB328AEC97E068E572E017
:101450000E9462318AEC97E00E947E348FEB91E02B
:1014600067E171E00E94D22460E177E280E090E0E1
:101470000E945F2F28E088E190E00FB6F894A895CD
:10148000809360000FBE20936000FFCF0E943B223C
:101490000E94111A0E94512F3B014C01C616D7061B
:1014A000E806F90698F78AEC97E00E9442318091AD
:1014B0002C04882391F58AEC97E06FE472E00E9497
:1014C000173182E492E0652D702F48E650E02DE759
:1014D00038E00E94C8170894A11CB11C8AEC97E060
:1014E00067E071E00E94FD320E94E223BC018AECB9
:1014F00097E04AE050E00E942A3284E0A816B10446
:1015000009F494CFF8E9CF2EFAE3DF2EE12CF12C89
:10151000C60CD71CE81CF91CB9CF8AEC97E064E331
:1015200072E00E946231E4960FB6F894DEBF0FBEFF
:10153000CDBFCF91DF911F910F91FF90EF90DF9082
:10154000CF90BF90AF909F908F907F906F905F9063
:1015500008951F93F999FECF12BC11BCF89A10B5EB
:10156000133739F48AEC97E067E173E00E94623147
:1015700015C08AEC97E069EF72E00E9417318AEC9F
:1015800097E0612F40E150E00E94593281E00E94D3
:101590003E180E94EC0980E00E943E181F910895B9
:1015A000DF92EF92FF920F931F93DF93CF93CDB70C
:1015B000DEB762970FB6F894DEBF0FBECDBFFE0157
:1015C000319682E1DF011D928A95E9F77F0100E003
:1015D00010E0BAE3DB2EC801865C9B4FB70141E007
:1015E0000E944F05053019F4F701128203C0D7019C
:1015F0001296DC920F5F1F4FE3E0F0E0EE0EFF1E4D
:101600000630110541F78AEC97E00E9442318AECDE
:1016100097E06DEA73E00E9417318AEC97E0BE0113
:101620006F5F7F4F0E9400338AEC97E00E94423147
:1016300084EF91E06AE374E048E00E94511288234D
:1016400031F48AEC97E068E873E00E9462310E940E
:10165000F21F8823F1F48AEC97E062E773E00E94BE
:1016600062318FEB91E066E271E00E94D22460E18A
:1016700077E280E090E00E945F2F28E088E190E030
:101680000FB6F894A895809360000FBE2093600079
:10169000FFCF8AEC97E06DE673E00E9417318CE390
:1016A00095E00E9405178AEC97E00E9442318AEC8F
:1016B00097E068E673E00E94173184E495E00E94A9
:1016C00005178AEC97E00E9442318AEC97E062E6C7
:1016D00073E00E9417318CE495E00E9405178AECB4
:1016E00097E00E9442318AEC97E067E071E00E9447
:1016F000FD320E94E223BC018AEC97E04AE050E010
:101700000E942A3288E690E060E00E942720882329
:1017100031F48AEC97E067E573E00E9462318AEC6D
:1017200097E061E573E00E94173180E595E00E9443
:1017300005178AEC97E00E9442310E948921629647
:101740000FB6F894DEBF0FBECDBFCF91DF911F91D2
:101750000F91FF90EF90DF9008950F931F93CF9319
:10176000DF938C010E94512FAB01BC018AEC97E002
:101770002AE030E00E94F6318AEC97E065ED73E0F4
:101780000E946231C0E0D0E0F801EC0FFD1F8AEC4E
:1017900097E060814AE050E00E9447328AEC97E08F
:1017A00063ED73E00E9417312196C830D10561F7CF
:1017B0008AEC97E00E9442318091E0018F5F809334
:1017C000E0018AEC97E06DEB73E00E9417318AEC40
:1017D00097E06091E0014AE050E00E945932DF91C9
:1017E000CF911F910F910895EF92FF920F931F9346
:1017F0000AEC17E0C8016DE974E00E9417310E94FD
:10180000512FAB01BC01C8012AE030E00E94053233
:10181000C8016DE874E00E94173181EEE82E81E086
:10182000F82EC7010E94570D682FC80140E150E013
:101830000E945932C80161E774E00E941731C70164
:101840000E945A0DBC01C8014AE050E00E942A32B1
:10185000C80166E574E00E941731C7010E94630D5C
:101860000E945408C8016CE374E00E941731C7015C
:101870000E94680D0E945408C8016BE274E00E9447
:101880001731C7010E946D0D682FC8014AE050E072
:101890000E945932C8016BE174E00E941731C70100
:1018A0000E94700DBC01C8010E940033C8016AE0AB
:1018B00074E00E941731C7010E94750DBC01C80178
:1018C0000E940033C80169EF73E00E941731C7011D
:1018D0000E947A0DAB01BC01C8012AE030E00E94F1
:1018E000B732C8010E9442311F910F91FF90EF90D3
:1018F00008950F930E943B220E94111A0E94F50541
:1019000081EE91E00E94A60D882301F180913702BB
:10191000E82FF0E0EE0FFF1FE75DFE4F6081718161
:101920008F5F809337028FEB91E028EE33E040E049
:1019300050E001E00E94D42680913702843010F0FC
:10194000109237020E94F40B0E9404060E94DE05EA
:10195000882311F18AEC97E060EB74E00E94623119
:101960008AEC97E00E947E348FEB91E063E271E0B5
:101970000E94D22460E177E280E090E00E945F2F35
:1019800028E088E190E00FB6F894A8958093600075
:101990000FBE20936000FFCF8FEB91E00E944B259C
:1019A0000F9108958AEC97E040E052EC61E070E01E
:1019B0000E949D338AEC97E067E071E00E94FD325F
:1019C0000E94E223BC018AEC97E04AE050E00E94CA
:1019D0002A328AEC97E062E075E00E9462318AEC7C
:1019E00097E063EF74E00E9417318AE394E00E946D
:1019F00054088FEB91E063E271E028EB3BE040E0BC
:101A000050E00E94732681EE91E00E94D00D81EE9D
:101A100091E06DEA7BE00E94510D04C08FEB91E0F4
:101A20000E944B2581EE91E00E94FA0D8823B1F3CC
:101A30008FEB91E00E94F4238FEB91E064E372E07E
:101A40000E94D2248091E001882319F08DE191E079
:101A500002C086E291E063E028EE33E040E050E02F
:101A60000E9416088AEC97E062EE74E00E946231F0
:101A70000E94D00A80E291E063E028EE33E040E08B
:101A800050E00E9416080E94A90A8AE191E063E0F2
:101A900028EE33E040E050E00E9416080E94D30593
:101AA0000895FC01EF5AFF4F718360830895FC0194
:101AB00080810895FC01918180E0228130E0282B13
:101AC000392BC90108959C01275F3F4FC901089533
:101AD0009C01215F3F4FC9010895FC01858908954C
:101AE0009C012A5E3F4FC90108959C012A5D3F4F2A
:101AF000C9010895FC0186A990E0A0E0B0E0BA2FEA
:101B0000A92F982F882727A930E040E050E0282B04
:101B1000392B4A2B5B2B542F432F322F222780AD9A
:101B200090E0A0E0B0E0282B392B4A2B5B2B542F00
:101B3000432F322F222781AD90E0A0E0B0E0282B88
:101B4000392B4A2B5B2BB901CA010895CF93DF9340
:101B5000EC010E94660F8823F9F080914104909176
:101B60004204892BC9F4809146048333A9F4CE0141
:101B70008E5B9F4F69E474E046E050E00E944A04A7
:101B8000009751F4DE01E6E4F4E08AE301900D925F
:101B90008150E1F781E001C080E0DF91CF910895AD
:101BA0000F931F938C010E94512F045B1F4FF8016C
:101BB0001082118212821382605F784D8F4F9F4F87
:101BC00092938293729362938F01085F1F4F81E01B
:101BD000F801808300551040F80185E58193D80114
:101BE000AE5BBF4F86E00D9001928150E1F71F91EF
:101BF0000F910895EF92FF920F931F93CF93DF936E
:101C0000EC010E94512F7B018C010E94660F8823FA
:101C100081F08091410490914204892B51F4CF5A74
:101C2000DF4FE881F981C155D040309711F0CE01E6
:101C30000995C85BDF4F88819981AA81BB81C8540F
:101C4000D040E816F9060A071B0710F081E031C002
:101C5000FE01E45BFF4F80819181A281B381A801E5
:101C60009701281B390B4A0B5B0BDA01C901815D17
:101C70009740A040B04050F0E082F182028313838D
:101C8000C05BDF4F81E08883C055D0408E01005B90
:101C90001F4FF8018081882359F00E94F50F882397
:101CA00039F080E0BE0147E00E945010F801108238
:101CB00080E0DF91CF911F910F91FF90EF900895F9
:101CC000FC01EF5AFF4F118210823F97DB0186E043
:101CD0000D9001928150E1F781E461E044ED0E94B2
:101CE00094100895782F8CB581608CBD65B121E08A
:101CF00030E040E050E00090310104C0220F331F7B
:101D0000441F551F0A94D2F7522F822F80958623A5
:101D100085B99EBD0DB407FEFDCF8EB57EBD0DB459
:101D200007FEFDCF4EB5382F20E085B1582B55B9B1
:101D30008CB58E7F8CBD50E0422B532BCA01089589
:101D400080E090E00E94720E80919104853009F04D
:101D500054C080E090EB0E94720E282F8091930473
:101D6000882371F490919204992351F08091930407
:101D7000E82FF0E0ED5BFB4F90838F5F809393043F
:101D800080919304E82FF0E0ED5BFB4F20838F5FA1
:101D90008093930480914104909142048227282FDC
:101DA00022952827022E269526952025022E269557
:101DB00020252770082E892F269507942795902D8A
:101DC000822706942795902582279093420480933A
:101DD0004104809145042091930490E0049630E002
:101DE000821793072CF080919304873408F46DC018
:101DF0008DE092E80E94720E08958091910487FF11
:101E00002EC0E0914504809191048F5F80939104EE
:101E10008150ED5FE80FF0E0ED5BFB4FE0818091DA
:101E20004104909142048E27282F22952827022EC4
:101E3000269526952025022E269520252770082EEA
:101E4000892F269507942795902D8227069427950C
:101E500090258227909342048093410430C0809162
:101E600091048F5F809391048150833019F1843005
:101E70002CF4882399F0813009F516C0893019F0C7
:101E80008A30E1F402C0EDE21AC0E0919204909130
:101E900045048EEF891B8093910411C08091410409
:101EA00090914204E82F0BC080914104909142042C
:101EB000E92F05C08DE092E80E94720EEAEA8E2FAB
:101EC00090E0805098440E94720E08958091910491
:101ED000853009F042C0809145042091930490E040
:101EE000049630E08217930724F08091930487349E
:101EF000A0F184E08093910480914504833430F014
:101F000081E090E0909342048093410480914404E6
:101F100086FF12C080919004282F30E0C9018F7194
:101F200090704F9749F08091440490E08227932766
:101F30008F719070892B89F48091410490914204B3
:101F4000892B09F044C0E0918E04F0918F04309702
:101F500009F43DC080E0099546C080919104843029
:101F600011F080E00895109245048091450480931B
:101F700093048FEF9FEF909342048093410420914C
:101F800092042223D9F08227282F22952827022E77
:101F9000269526952025022E269520252770082E89
:101FA000892F269507942795902D822706942795AB
:101FB00090258227909342048093410485E080938A
:101FC00091048DED92E80E94720E80E008958FEFEB
:101FD0009FEFAFEFBFEF80938A0490938B04A093A1
:101FE0008C04B0938D0481E0089580919104853034
:101FF000A1F480919304882381F41EBC0DB407FEE4
:10200000FDCF0EB400FC09C08DE092E80E94720E74
:1020100084E08093910481E0089580E00895982FF2
:1020200086FD05C0907E809190048F71980F9093EB
:102030004404E0918E04F0918F04309711F081E018
:1020400009958FEF9FEF9093420480934104809114
:10205000410490914204209192048227282F2295D6
:102060002827022E269526952025022E2695202506
:102070002770082E892F269507942795902D822763
:1020800006942795902582279093420480934104DB
:1020900086E0809391048DE392E80E94720E089589
:1020A0001F93182F4093450426E434E0C90150E003
:1020B0000E945704812F0E940F101F91089525B18F
:1020C00081E090E0A0E0B0E00090310104C0880F12
:1020D000991FAA1FBB1F0A94D2F7282B25B924B138
:1020E000822B84B98AE061E00E94622E8AE061E07E
:1020F0000E94232E8BE061E00E94232E8CE060E0A2
:102100000E94232E8DE061E00E94232E80E58CBD8D
:102110008DB581608DBD82E060E00E94232E82E05B
:1021200061E00E94622E08951F93162F8093900401
:10213000409392040E945F1080E090E00E94720E33
:1021400085E092E80E94720E80E098EB02C080E089
:1021500090E00E94720E82E00E94B62E892BB9F3A5
:10216000812F90E074E0880F991F7A95E1F7876CD2
:1021700090680E94720E80E496EA0E94720E86E0D9
:1021800096EC0E94720E82EA94E90E94720E8CEA2A
:1021900092EC0E94720E10919204112341F083E898
:1021A0009AEC0E94720E812F90E09E6C06C08BE824
:1021B0009AEC0E94720E8DE29EEC0E94720E83E8F1
:1021C00094EC0E94720E80E598E90E94720E87E7F7
:1021D0009CEC0E94720E80E090EE0E94720E80E0F5
:1021E00098EC0E94720E89E490EC0E94720E84E0DA
:1021F000809391048091900490E08F719070892B6E
:1022000041F080E060EA7EE040E050E00E94FD2F77
:1022100003C080E00E942030809190041F910895B7
:102220000F931F93579889E090E00E94B82F09B14F
:1022300084E190E00E94B82F19B189E090E00E94FB
:10224000B82F17FD02C080E005C0802F8095881F41
:102250008827881F1F910F9108956F927F928F9208
:102260009F92AF92BF92CF92DF92FF920F931F93F4
:10227000CF93DF935C013B016A0100E010E04A016B
:102280000894810891082AC0FF24C0E0D0E0C5016D
:102290000E941011FF0CF82A2196C830D105B9F719
:1022A000579A0815190539F45F9A84E190E00E9465
:1022B000B82F5F9806C05F9884E190E00E94B82F25
:1022C0005F9A84E190E00E94B82FC5010E9410112E
:1022D000F301E00FF11FF0820F5F1F4F0C151D057A
:1022E0009CF2DF91CF911F910F91FF90DF90CF90E3
:1022F000BF90AF909F908F907F906F900895EF92D6
:10230000FF921F93CF93DF937C01162F579AC0E063
:10231000D0E017FF07C05F9884E190E00E94B82FDB
:102320005F9A06C05F9A84E190E00E94B82F5F98A0
:1023300084E190E00E94B82F2196C830D10511F0B9
:10234000110FE7CF5F9884E190E00E94B82F5F9A69
:1023500084E190E00E94B82FC7010E941011DF9124
:10236000CF911F91FF90EF9008950F931F938C01D1
:102370005F9886E090E00E94B82FC80165E50E9452
:102380007F111F910F910895579A5F9A88E592E007
:102390000E94B82F0895EF92FF920F931F938C0124
:1023A0007B01F8940E94C411C8010E94B511C801B4
:1023B00060EA0E947F11C80163E00E947F11C8019A
:1023C00060E00E947F11C8016AEF0E947F11C8017E
:1023D000B70146E050E00E942D11C8010E94C411CF
:1023E00078941F910F91FF90EF900895CF93DF9312
:1023F000C0E0D0E05C2FFE01EC56FB4FE081EE2305
:1024000049F120E030E06E2F70E0CB01022E02C0D7
:10241000959587950A94E2F780FF17C0CC56DB4F5D
:1024200081E090E0A0E0B0E0022E04C0880F991F88
:10243000AA1FBB1F0A94D2F780958E238883852F0D
:10244000880F880F880F820F0AC02F5F3F4F2830F8
:102450003105D9F62196C032D10561F680E0DF91D1
:10246000CF910895CF93DF93EC019B018A309105C2
:1024700048F06AE070E00E948537CB01B9010E9404
:1024800032129C01CE016AE070E00E948537805DC7
:10249000F9018193D90111961C92CF01DF91CF915F
:1024A0000895AF92BF92CF92DF92FF920F931F9346
:1024B000CF93DF938C01EB01F42E1092540538E397
:1024C00041E050E060E070E018C0832F90E0FC0134
:1024D000B3E0F595E795BA95E1F7EC56FB4F8770B9
:1024E00090705A016B0104C0AA0CBB1CCC1CDD1CF3
:1024F0008A95D2F720812A292083315031F786E34B
:1025000095E0BE010E942617C80166E375E04F2DD5
:102510000E943A23DF91CF911F910F91FF90DF909E
:10252000CF90BF90AF900895CF92DF92EF92FF923D
:102530000F931F93DF93CF93CDB7DEB7EB84FC846B
:10254000CD84DE84DE011F9601C0D801F60184919E
:10255000882309F4BAC00894C11CD11C843209F044
:1025600097C0F6010894C11CD11C8491863409F4EB
:102570005DC0873434F4843469F0853409F088C050
:102580006CC08C34B9F1833509F443C0883409F048
:102590007FC00BC08D010E5F1F4FF70166817781F1
:1025A0008D919C910E9432127EC02C91822F99278E
:1025B00087FD909514E0959587951A95E1F78F70B2
:1025C0002F702A300CF0295F8A300CF0895F8D0162
:1025D0000E5F1F4FF701A681B781805DFD018193DA
:1025E000205D11962C933196D7011796FC93EE93AC
:1025F0001697ABCF8D010C5F1F4F6D917D918D9123
:102600009C91F701468157812AE030E00E94FE0448
:102610004AC08D010E5F1F4F6D917C91D7011696B8
:102620008D919C9117970E946B043DC08D010E5FA8
:102630001F4F2D913C910AC0D7011696ED91FC9148
:10264000179781931796FC93EE931697F9012F5FD6
:102650003F4F8491882381F778CF8D010E5F1F4F04
:102660002D913C910AC0D7011696ED91FC911797D8
:1026700081931796FC93EE931697F999FECF32BD8E
:1026800021BDF89A80B52F5F3F4F882361F75DCF5A
:10269000F70126813781F90181939F01F701378383
:1026A00026838D0152CFD70116968D919C91179755
:1026B000FC0101900020E9F73197E81BF90B8E0F20
:1026C0009F1FF7019783868340CFCF91DF911F91A2
:1026D0000F91FF90EF90DF90CF900895EF92FF92CF
:1026E0000F931F93CF93DF93EC0131E0E32EF12C96
:1026F000012D112D1EC090E0FC0123E0F595E7951A
:102700002A95E1F7EC56FB4F87709070A80197016E
:1027100004C0220F331F441F551F8A95D2F7DA01D8
:10272000C9012081282B20838D816FE30E94FE2127
:102730008D838D818823F9F6DF91CF911F910F91C1
:10274000FF90EF900895982F8091F404981729F442
:10275000E62FF0E0EC54FB4F08C080913505981748
:1027600031F4E62FF0E0EB50FB4F80810895892F84
:102770000E94FE2108950F931F93FC0104818FE3B3
:10278000089F8001112486816EE30E94A313080F25
:10279000111D03501040C8011F910F9108951F9300
:1027A000CF93DF93982F162FC82FD0E0FE0156E06D
:1027B000EE0FFF1F5A95E1F7EC0FFD1FEC54FB4F96
:1027C000E05CFF4F8081E054F040681771F199237D
:1027D00059F4BF010E94C42280913505181791F465
:1027E0008FEF809335050EC08091F404681751F483
:1027F000A5EFB4E0E4EBF4E081E401900D928150A8
:10280000E1F713C0FE0146E0EE0FFF1F4A95E1F726
:10281000EC0FFD1FEC54FB4FE05CFF4F1083E054C6
:10282000F040812FBF010E942122DF91CF911F91A3
:10283000089580E060E00E94CF138091B4049091ED
:10284000B5040895CF93DF93EC0181E06F810E947E
:10285000CF139F818E81981739F498858091330525
:10286000981710F080E013C08885E82FF0E0EB5057
:10287000FB4FE0818F5F88878F3340F09F818E818F
:10288000981721F0809134058F8318868E2FDF9161
:10289000CF9108951F93CF93DF93EC01162F80E023
:1028A0006E810E94CF138091F204E82FF0E0EC5487
:1028B000FB4F10838F5F8F3318F48093F20410C0A6
:1028C0000E94F611682F8093F3048E8380E00E94AB
:1028D000CF131092F3041092F2048C818F5F8C83DB
:1028E000DF91CF911F910895CF93DF93EC0180E0AA
:1028F0006D810E94CF13A4EBB4E0FE01349683E017
:1029000001900D928150E1F7909135058D819817D6
:1029100021F481E060E00E94CF13DF91CF91089510
:10292000CF93DF93EC016F8383E0888781E00E947F
:10293000CF13DE011496E5EFF4E083E001900D92F1
:102940008150E1F78F81DF91CF910895AF92BF92CF
:10295000CF92DF92EF92FF920F931F93DF93CF936B
:10296000CDB7DEB729970FB6F894DEBF0FBECDBF47
:1029700080E060E00E94CF130091B6041091B7048C
:1029800076EBE72E74E0F72E64E5A62E61E0B62E16
:102990006E010894C11CD11C02C00F5F1F4FF801CB
:1029A00084918823C9F00F5F1F4F8432C1F782E002
:1029B00090E0E80EF91EF7016081F80184918834F7
:1029C00061F71C821B82BA82A982C6010E94901400
:1029D000C6010E946E13E1CF29960FB6F894DEBFB0
:1029E0000FBECDBFCF91DF911F910F91FF90EF9060
:1029F000DF90CF90BF90AF9008954F925F926F920B
:102A00007F928F929F92AF92BF92CF92DF92EF927E
:102A1000FF920F931F93DF93CF93CDB7DEB76097ED
:102A20000FB6F894DEBF0FBECDBF8E010D5D1F4FF8
:102A3000F801E190F1908F0180E060E00E94CF13F7
:102A4000C7010E9414049093B5048093B404F092DB
:102A5000B704E092B6046801A8EB8A2EA4E09A2E8F
:102A6000F4E54F2EF1E05F2EE8E06E2E712C6C0E37
:102A70007D1E5E010894A11CB11CF701849188237E
:102A800009F465C00894E11CF11C8432B1F7F60129
:102A900000811181F7018491863429F1873428F46B
:102AA000843469F0853429F407C0883469F18335AA
:102AB00091F0A0E0B0E034C0A0E0B0E019C0C801DF
:102AC000B5010E943212D5010D900020E9F711974F
:102AD000AA19BB0925C0D8010D900020E9F711976C
:102AE000A01BB10B1DC0C8010E94140418C0119690
:102AF000F999FECFCD01800F911F92BD81BDF89A4B
:102B000080B58823A1F70CC01B861A865986488693
:102B1000C301602F0E949014C3010E94BB13DC010B
:102B20000894E11CF11CF401019311934F01809171
:102B3000B4049091B50402978A0F9B1F9093B5043B
:102B40008093B40482E090E0C80ED91E96CF6096C0
:102B50000FB6F894DEBF0FBECDBFCF91DF911F91AE
:102B60000F91FF90EF90DF90CF90BF90AF909F902C
:102B70008F907F906F905F904F9008952F923F922B
:102B80004F925F926F927F928F929F92AF92BF927D
:102B9000CF92DF92FF920F931F93DF93CF93CDB726
:102BA000DEB760970FB6F894DEBF0FBECDBF1C0135
:102BB0003B01142F052F80E060E00E94CF13C090EE
:102BC000B604D090B7041B861A8684E591E09987F5
:102BD00088871F861D86212F302FC9012C0106EB07
:102BE000802E04E0902E10E4F12E00E010E0AA24E4
:102BF000BB24620C731C83C086E4F81609F45EC023
:102C00008F1564F094E4F91609F454C09F150CF480
:102C10005AC0E0E4FE1609F070C009C0F8E4FF16DF
:102C200009F45BC083E5F81609F067C043C0F601FC
:102C30008491282F882309F466C00894C11CD11CF4
:102C4000843209F050C082E090E0880E991EF401B1
:102C500060812181F6010894C11CD11CF490F6E436
:102C6000FF1544F085E4F816C4F494E4F91609F06D
:102C700046C008C0E8E4FE16A9F0F3E5FF1609F027
:102C80003EC00BC0862F922FBE016F5F7F4F0E9408
:102C900032128E010F5F1F4F32C0862F922F9C0180
:102CA00089012DC0CE0108960E9490148E01085F04
:102CB0001F4F25C0F80121918F0113C0F8010F5F4C
:102CC0001F4F24910EC0F999FECFC801019612BD85
:102CD00001BDF89A20B58C0104C0C8010E942214DD
:102CE000282F222351F0A214B30418F0F2012193EB
:102CF0002F010894A11CB11C02C0B0E4FB2EA61445
:102D0000B70408F479CF60960FB6F894DEBF0FBE13
:102D1000CDBFCF91DF911F910F91FF90DF90CF90AA
:102D2000BF90AF909F908F907F906F905F904F90EB
:102D30003F902F900895EF92FF921F937C010E9485
:102D4000F611182F80E0612F0E94CF13E4EBF4E01E
:102D50001092B4041093B6041093B50483E086AFC8
:102D600017AEC701612F0E9490141F91FF90EF9042
:102D7000089580917E05811181E00895CF92DF92C0
:102D8000EF92FF920F931F93CF93DF93C6E5D5E0A9
:102D900030E0CC24DD2429C02A814B8180915C0263
:102DA00090E0042F10E080179107D9F490915D0214
:102DB0009217B9F48C818823A1F020915F0230E052
:102DC00028503040F0905E02EE242E0D3F1DE88129
:102DD000F981892F942F62E572E042E652E009956D
:102DE00031E00894C11CD11C259680917E0590E0AD
:102DF000C816D9068CF2832FDF91CF911F910F91C6
:102E0000FF90EF90DF90CF9008950F931F93CF9393
:102E1000DF938C01C0E0D0E0F801EC0FFD1F8AECDD
:102E200097E060814AE050E00E944732C33029F0C9
:102E30008AEC97E06EE20E943A312196C430D105C7
:102E400059F7DF91CF911F910F910895DC01FB019C
:102E500086E001900D928150E1F708959C01FB01FD
:102E600080819181A281B381F90180839183A283C2
:102E7000B3830895FC01A681B7816D93B783A683C0
:102E800081E090E00895DF92EF92FF920F931F93FD
:102E9000CF93DF93D82E862FBA01213041F4675F9C
:102EA0007F4F9B0140E050E0695070400EC02230DF
:102EB00029F020E030E040E050E007C06250704070
:102EC0009B0140E050E06E5F7F4FE82EFF2488E3D7
:102ED00092E0E80EF91E8B01E7010FC0F881E0E0F7
:102EE000898190E08E2B9F2BA0E0B0E0280F391F46
:102EF0004A1F5B1F2296025010400230110570F7E6
:102F0000CB018E7FD701A80FB91F6817790779F019
:102F10008C9190E0A0E0B0E0BA2FA92F982F8827DD
:102F200002C040E050E0280F391F4A1F5B1FCA0152
:102F3000AA27BB270097A105B10599F7C90180957C
:102F40009095ED2DF0E0E85CFD4F90838183DF915B
:102F5000CF911F910F91FF90EF90DF900895109205
:102F600050021092510280E480934C0210924D0264
:102F700080934E0288E16EE044E150E020E00E9440
:102F80004317089580917F058695809581700895F7
:102F900090939605809395057093A00560939F0587
:102FA000509398054093970583ED95E090939A058B
:102FB0008093990510929C0510929B0530939E0575
:102FC00020939D05309132012091330181E59DE1EF
:102FD000909387058093860582E99CE1909389050B
:102FE00080938805209382053093830581E0809348
:102FF0008005809181058F5F877080938105809324
:1030000094050895662341F480933801485C5D4F30
:10301000509393054093920581E0089530913201D9
:103020002091330182E098E1909387058093860593
:1030300082E79CE19093890580938805209382051F
:103040003093830581E080938005809181058F5FB7
:10305000877080938105809394050895909138013D
:10306000981719F020E030E007C08BE78093380113
:103070002091920530919305C901089580935505DB
:1030800008950F931F93BC0108E312E0C8010E944A
:103090002617C801069666E375E00E9426171F9161
:1030A0000F910895EF92FF920F931F937B010E945F
:1030B000411806E512E0C801B7010E942E17C801A9
:1030C00004976CE375E00E942E171F910F91FF90FB
:1030D000EF900895EF92FF920F931F93CF93DF939A
:1030E0007C01EB018A018AE895E00E9452188881F0
:1030F000807F803E49F088819981AA81BB818F5F62
:103100009F4FAF4FBF4F31F488E392E06CE771E01F
:103110000E94261788E0809344021092450286E4BC
:1031200092E06FE275E049E050E00E9400041092E6
:10313000480281E180934F0210935C0200935D028C
:10314000F0925A02E0925B0210925E0210926002CC
:1031500010926102DF91CF911F910F91FF90EF903C
:103160000895EF92FF920F931F930EE312E0C801B0
:103170000E94411874E1E72EF12CE00EF11EC80107
:103180004896B7010E942E17C7016CE375E00E94B4
:103190002E170E94AF171F910F91FF90EF90089587
:1031A000BC0181E080937F0584E495E00E942E17A6
:1031B00008950F931F938C018896909348028093F3
:1031C00049020E94AF1710926A0210926B02045ECD
:1031D0001F4F82E36AE1A80122E00E944317C80161
:1031E0004A960E94DE221F910F910895CF93DF939C
:1031F0009C01862F806180936702643029F021153D
:10320000310511F421E030E090915C0280915A0286
:1032100080935C0290935A0290915D0280915B02D0
:1032200080935D0290935B02C1E6D2E08881A901A0
:10323000480F511D2C814C832883252F332721973C
:1032400052E0CD35D50791F71D861E8680E589872A
:103250001092480288E2809349020E94B11884E0EB
:103260008B871C8682E36AE14CE150E022E00E94F9
:10327000431786E390E00E94DE22DF91CF9108950C
:10328000E82FA0914802B0914902F0916602409166
:103290005C0250E0292F30E04217530709F08EC03E
:1032A00080915D028E1709F089C080916702E82F36
:1032B00081FF4EC0109248028CE2809349020E9426
:1032C000B11882E18093670290915C0280915A026A
:1032D00080935C0290935A0290915D0280915B0210
:1032E00080935D0290935B02E1E6F2E021E030E042
:1032F0008081A901480F511D44831082252F332757
:10330000319752E0ED35F50799F71586168611824B
:10331000128280913701838314828D5F80933701FD
:1033200082E0818B84E0828B95E0938B148A80E627
:103330008187938788E7848782E36AE140E250E0EF
:1033400022E00E9443178AE390E00E94DE2236C00A
:1033500084FF34C04F2F50E084E0559547958A95FF
:10336000E1F79A2F80E02B2F30E0282B392BCA0170
:10337000880F991F880F991F281B390B2451304043
:1033800037FF02C020E030E0309391052093900594
:10339000232B69F09A01220F331F220F331F2E5D5A
:1033A0003F4F685070406217730740F009C0E0FF5C
:1033B00005C080E090E060E00E94F61820E030E078
:1033C000C90108950F931F93DF93CF930F92CDB749
:1033D000DEB78C01045E1F4F109348020C51104061
:1033E000802F845E8093490289830E94AF17085F13
:1033F0001F4F10935E028981845180935F02085FA2
:103400001F4F88E26AE1A80121E00E944317C8012A
:103410004A960E94DE220F90CF91DF911F910F916B
:103420000895DF92EF92FF920F931F93CF93DF9354
:10343000EC0180915405882319F0CE010E94821E70
:10344000209709F0BFC080917F058570F1F18091D0
:10345000340190913501892BC1F50E94BF21882349
:10346000A1F18CE791E00E94411888E0809344022A
:10347000A6E0FA2EF092450286E492E067E275E05B
:1034800048E050E00E94000408E512E0D8011D92D7
:10349000FA94E9F7C8010A9766E375E00E942617D7
:1034A000C801069664E475E00E942E17C8010497CF
:1034B0006CE375E00E942E1780917F0588608093F1
:1034C0007F058AE290E00E94DE2280913401909193
:1034D00035010196909335018093340180918005E8
:1034E000813009F0EFC180917F0581FFEBC102E0DF
:1034F00000938005809136018F5F809336018F7134
:10350000109181051295110F107E182BE090820505
:10351000D09083058AE895E060E575E00E94521836
:10352000F8E0FF2EF09244021092450286E492E009
:103530006FE275E049E050E00E9400048CE2809365
:10354000490286E080934F020E94AF17E0925C022E
:10355000D0925D028BE080935A0210935B02EEE5FD
:10356000F2E0DF011D92FA94E9F780913701809330
:1035700060028D5F8093370180E68093660200933E
:10358000670283E0809368021092690210926A02D7
:1035900010926B0210926C0210926D0200936E02F8
:1035A00084E080936F020093700286E28093710240
:1035B00082E36AE140E250E022E00E9443178AE39E
:1035C00090E09BC0C932D10508F47CC1109144023F
:1035D000183009F082C180914502863009F07DC122
:1035E0008EE592E06CE375E044E050E00E944A040E
:1035F000009709F072C180914D02813029F58EE368
:1036000092E00E94411810924C0282E080934D0299
:1036100088E592E06EE472E00E9426178EE492E064
:1036200066E375E00E9426178EE592E064E572E09D
:103630000E942E1784E592E06CE375E00E942E173D
:103640008AE290E00E94DE2280917F0583FF3AC1EA
:1036500010914D02123009F035C184E592E064E426
:1036600075E044E050E00E944A04009709F02AC146
:103670008AE895E06EE472E00E94261710937F05B9
:1036800021C1183009F01EC180914502882309F03C
:1036900019C180914602853409F014C186E592E093
:1036A0006CE375E044E050E00E944A04009709F0A2
:1036B00009C180914F02813019F580915A028830FA
:1036C000F9F4E0918405F0918505309719F082E5D1
:1036D00092E009950E94B11810925A0280915C0202
:1036E000883F28F080915D028F5F80935D0280911A
:1036F0005C02885F80935C02CE010E94DE22E2C001
:103700000E94B916882351F080914F02813131F423
:10371000CE010E94BE16882309F0D4C0C633D1055D
:1037200028F480914F02863009F0CCC080915C0271
:103730008B3009F0BEC082E592E060E575E044E0C0
:1037400050E00E944A04009709F0BCC080916702D3
:10375000382F82FF13C0E0918605F09187053097DE
:1037600059F080915D0282958695877063E040E014
:1037700050E020E030E0099585E090C0909148024B
:1037800080E020914902022F10E0082B192B809134
:103790006602482F50E0E4E055954795EA95E1F739
:1037A000CA01880F991F880F991F081B190B045114
:1037B000104017FF02C000E010E0809180058230C9
:1037C00079F531FF21C034FF1FC080E090E060E058
:1037D0000E94F61888E180936702E0918805F091D5
:1037E0008905309719F420E030E007C080915B0232
:1037F00082958695877009959C0183E0809380056A
:10380000C9010E94D9185EC081E08093800534FF11
:1038100003C080E090E002C0C801019664E046C0A9
:10382000833081F50115110579F1E0918605F0915C
:103830008705309749F1440F551F440F551FCE019E
:1038400008974E5D5F4F8417950708F4AC01C801D7
:10385000840F951FC817D90710F0980103C09E0167
:10386000241B350B80915D0282958695877060E000
:10387000099580915505882319F0C80168E016C0A4
:10388000C80108C08530F1F030FF0BC08330D1F0A3
:10389000C801019669E00E94F61886E080938005D1
:1038A00011C00115110571F0C80160E00E94F61801
:1038B00009C08091320190913301BE010E944019EC
:1038C0009C0102C020E030E0C901DF91CF911F913F
:1038D0000F91FF90EF90DF900895CA32D10508F064
:1038E000D0CEF0CFEF92FF920F931F930E94191446
:1038F0008C01BEE6EB2EB2E0FB2E80E090E0B8013A
:10390000A7010E94BE150E94A614E00EF11EF70149
:1039100010828BE780933801C8011F910F91FF90AF
:10392000EF900895CF92DF92EF92FF920F931F9343
:10393000DF93CF93CDB7DEB728970FB6F894DEBFED
:103940000FBECDBF2EE632E03E832D8338872F8316
:1039500090919405891709F08EC01C821B8286E81D
:1039600091E09A83898340919B0550919C05411574
:103970005105A9F58DB79EB70C970FB6F8949EBF69
:103980000FBE8DBFEDB7FEB73196CE010196ADB734
:10399000BEB712969C938E9311978FEA95E093830E
:1039A000828380919505909196059583848380917B
:1039B0009F059091A00597838683809197059091AC
:1039C0009805918780878091990590919A059387B2
:1039D00082870E9494128DB79EB70C9647C0809143
:1039E000990590919A050091950510919605609121
:1039F000970570919805009721F07C012FE031E048
:103A000003C022E131E07901DA010D900020E9F7ED
:103A10006D010894C108D108C41AD50A8DB79EB7A4
:103A200040970FB6F8949EBF0FBE8DBFEDB7FEB79F
:103A30003196CE010196ADB7BEB712969C938E9388
:103A4000119788E395E093838283158304837783BA
:103A50006683E086F18633872287D586C4865787BA
:103A600046870E9494128DB79EB740960FB6F89481
:103A70009EBF0FBE8DBF2F8138858D819E81281BF3
:103A8000390BC90128960FB6F894DEBF0FBECDBF23
:103A9000CF91DF911F910F91FF90EF90DF90CF902A
:103AA00008950F931F93CF93DF938901909194050D
:103AB000891759F0E0919D05F0919E0584E060E042
:103AC00070E040E050E009952AC0662341F52D30B2
:103AD000310528F1C0919D05D0919E052097F9F000
:103AE0004F5B5D4F83E191E0BA0143E050E00E94FB
:103AF00072049C0180E0232B09F081E06091660252
:103B000070E024E0759567952A95E1F7660F771FB9
:103B1000660F771F6E5D7F4FA801FE01099580E05B
:103B2000DF91CF911F910F910895DF93CF9300D034
:103B300000D000D0CDB7DEB7DE011196EAE8F1E0A3
:103B400086E001900D928150E1F786E191E0E8E393
:103B5000F2E0DF019C011D9221503040E1F780919D
:103B6000A105833019F468E475E003C0BE016F5FFE
:103B70007F4F84E490E043E450E00E946A18809113
:103B8000A105833039F088E392E0BE016F5F7F4F7B
:103B90000E94261781E0809362028093630286E090
:103BA000809364028091AE059091AF05A091B0051D
:103BB000B091B1058093660290936702A09368026A
:103BC000B09369028091A105833039F482E692E0D6
:103BD0000C966CE375E00E942E178EE792E066E388
:103BE00075E00E942617AEE4B3E0EAE4F1E002C01B
:103BF00081918D9331E0E035F307D1F79091A105E4
:103C0000992311F083E001C081E0809354038DE398
:103C10008093550387E08093560381E08093570398
:103C2000A8E5B3E0E6E3F5E002C081918D9385E07D
:103C3000EC33F807D1F78CE080935E038AE0809341
:103C40005F03E9E3F1E0A0E6B3E002C081918D9368
:103C500021E0E334F207D1F72AE633E03093B305ED
:103C60002093B205913069F582E380936A0384E082
:103C700080936B03D9011296ECE3F5E002C08191C9
:103C80008D9335E0E034F307D1F786E3809370033A
:103C900084E08093710382E793E09093B30580936F
:103CA000B205DC01E8E4F5E002C081918D9385E086
:103CB000EC34F807D1F786E793E09093B30580934F
:103CC000B2052091B2053091B305D901E4E4F1E0E9
:103CD00002C081918D9381E0EA34F807D1F7C901E0
:103CE00006969093B3058093B205825692400E9447
:103CF000E21926960FB6F894DEBF0FBECDBFCF9166
:103D0000DF910895DF92EF92FF920F931F93CF936D
:103D1000DF938C018091A105823009F4F7C08330D4
:103D200030F4882351F1813009F054C14AC0833006
:103D300021F0843009F04EC1E9C00E94512F20913A
:103D4000A6053091A7054091A8055091A905E090DE
:103D5000A205F090A3050091A4051091A5052E0DD4
:103D60003F1D401F511F621773078407950708F412
:103D700031C10E94951D84E017C00E94512F6093AD
:103D8000AE057093AF058093B0059093B105109286
:103D90003C0510923D0510923E0510923F050E9491
:103DA000951D0E948E2181E08093A1050E94512FD4
:103DB0006093AA057093AB058093AC059093AD0515
:103DC00009C10634110508F4F0C080915B02833408
:103DD00009F0EBC0209166023091670240916802C1
:103DE000509169028091AE059091AF05A091B00508
:103DF000B091B105281739074A075B0709F0D5C00C
:103E0000C2E5D3E0FE01A801485C5D4FDF011196D9
:103E100091819D012F5F3F4F8081853321F4119661
:103E20008C91823039F0F901E90FF11DE417F507A3
:103E300068F3BBC08CE395E062E772E00E942E1746
:103E400058E3E52E52E0F52EE00EF11EFE0131960C
:103E5000D9808F010F5F1F4F88818630A9F087308E
:103E600030F4813059F0833009F045C00AC0863300
:103E7000E9F18A3361F08333F1F509C080E495E01C
:103E800037C084E495E034C08CE495E031C06181B2
:103E900070E080E090E0982F872F762F6627F8015A
:103EA0002181620F711D811D911D982F872F762F03
:103EB00066272281620F711D811D911D982F872F0A
:103EC000762F66272381620F711D811D911D28EEBB
:103ED00033E040E050E00E9466376093A60570939F
:103EE000A7058093A8059093A90505C088E495E0EF
:103EF000B8010E942E17E801CD0DD11DCE15DF05AA
:103F000008F4A4CF0E94951D82E04ECF063411051F
:103F100008F44BC080915B02833409F046C02091C5
:103F20006602309167024091680250916902809167
:103F3000AE059091AF05A091B005B091B1052817DD
:103F400039074A075B0789F5E2E5F3E0A801485C19
:103F50005D4FDF01119691819D012F5F3F4F808161
:103F6000853321F411968C91853039F0F901E90FF0
:103F7000F11DE417F50768F318C00E9489210E941B
:103F8000512F6093A2057093A3058093A40590938D
:103F9000A50580914405882321F084E495E00E94E2
:103FA000D01883E08093A10515C00E94512F209165
:103FB000AA053091AB054091AC055091AD05205F4D
:103FC000384D4F4F5F4F261737074807590710F4F2
:103FD0001092A105DF91CF911F910F91FF90EF906B
:103FE000DF900895CF93DF9381E080935405909103
:103FF0003B05892F82958F70805D809341019F7072
:10400000905D909342011092A1050E94512FEB0107
:1040100004C00E943B220E94821E8091A105833031
:1040200061F00E94512F6C1B7D0B60567A4E28F474
:104030000E94BF21882389F3ECCF90E08091A105F5
:10404000833009F491E0892FDF91CF910895FF9299
:104050000F931F93CF93DF93182F092FF62E0E94F3
:10406000512FEB010E94BF21882329F00E94C21723
:10407000882309F4DBC00E943B220E94111A0E948F
:10408000512F6C1B7D0B6053754760F3C8C088E0EF
:1040900098E0A8E0B8E080934C0590934D05A0937C
:1040A0004E05B0934F058091B40590E0906E6CE49E
:1040B00075E045E350E00E946A18A2E6B2E08CE0A9
:1040C000FD0111928A95E9F7812F902FFC01CF0114
:1040D0001C9630E0FF2019F0FC01208102C0FC0199
:1040E000249101962E3241F0222331F03F5FFD01F1
:1040F000E30FF11D2083EECFFD013193DF01A30F0C
:10410000B11D222331F7FD01119211961C92DF019E
:10411000119641E04183FD01319611961C92418335
:1041200086ED28E332E0821B32968E0F8093620286
:104130009091B405909363024093640240936702A8
:1041400090E00E94E2190E94512F8B0161C00E94F1
:10415000512F601B710B6053754708F060C00E94BF
:104160003B22EC01009709F453C00E94111A892BDD
:1041700009F04EC0C634D10508F44AC080915B02F4
:10418000853309F045C080915C02803E09F040C053
:1041900090915D028091B4059817D1F580916302EA
:1041A0008917B1F58091650290E08F709070892B2E
:1041B00079F580916202E82FF0E0EE59FD4F9E0103
:1041C000285C3D4F8081807C39F0329609C0808127
:1041D000882311F4319604C03196E217F307B8F33F
:1041E000CF010E962817390798F08181813051F45C
:1041F0008185843039F43A9680E595E0BF010E94CC
:104200002E1706C0818590E00A96E80FF91FDACFD5
:1042100080915005882309F49ACF81E001C080E0A5
:10422000DF91CF911F910F91FF900895109250054B
:104230001092510510925205109253058091B405C9
:104240008F5F8093B40580914C05882309F02BCFB4
:104250001ECF8091B70561E00E94622E7894089588
:10426000FF920F931F93082F162FF42EF89480912E
:10427000B70560E00E94622E1F71102B1EBD0DB4A9
:1042800007FEFDCFFEBC0DB407FEFDCF0E94292125
:104290001F910F91FF9008951F93182F282F30E042
:1042A000207630708091B80590E02817390799F092
:1042B00080EA6FE143E00E943021412F4076409335
:1042C000B80550E085E0559547958A95E1F780E877
:1042D0006FE10E9430211F9108950F931F93182FB3
:1042E000062F0E944C2180E4612F402F0E94302134
:1042F0001F910F9108950F931F93182F072F0E945E
:104300006D21812F8F5F602F0E946D211F910F9172
:10431000089588E360EB0E946D21089588E361EBC6
:104320000E946D2108950F931F93182F062FF89464
:104330008091B70560E00E94622E802F8F71812BE3
:104340008EBD0DB407FEFDCF1EBC0DB407FEFDCF24
:1043500007FF04C01EBC0DB407FEFDCF1EB50E94B2
:104360002921812F1F910F9108951F93182F0E94CB
:104370004C2180E0612F0E9493211F91089584EDCC
:1043800061E10E946D2182ED61E00E946D218AEE63
:104390000E94B52180FDFBCF82ED60E00E946D217F
:1043A00089ED0E94B52190E0969587959695879521
:1043B000817008950F931F93CF93DF93EC018B01CE
:1043C000F8948091B70560E00E94622E8AE38EBD6A
:1043D0000DB407FEFDCF09C01EBC0DB407FEFDCF16
:1043E0008EB5F80181938F0121972097A9F70E943C
:1043F0002921DF91CF911F910F910895DF93CF93E2
:104400000F92CDB7DEB7198290E036E0880F991F82
:104410003A95E1F7860F911DBC0160507E4E8050A9
:104420009E4050F480E00E947B2181E090E0BE013C
:104430006F5F7F4F0E94DA2189810F90CF91DF91CA
:104440000895CF93DF93EB0190E046E0880F991F2A
:104450004A95E1F7BC0160507E4E815C9D4040F47E
:1044600080E00E947B2180E490E0BE010E94DA217E
:10447000DF91CF9108950F931F93DF93CF9300D0D7
:1044800000D000D0CDB7DEB789E30E94B5218823E4
:1044900019F400E010E048C06091B9057091BA05C8
:1044A00080E00E947B2186E090E0BE016F5F7F4F3D
:1044B0000E94DA2189819A819093BA058093B90587
:1044C0002B813C81E091B505F091B6058D8187FD8A
:1044D00003C000E010E00EC0245030408F010150B6
:1044E00010402017310708F48901C80168E372E021
:1044F0000E94DA21F801E85CFD4F10826091B90555
:104500007091BA058CE06130780724F08CE06FEF91
:104510007BE003C0615070408CE00E947B2180E80A
:104520006EE140E40E943021C80126960FB6F8944F
:10453000DEBF0FBECDBFCF91DF911F910F910895C8
:104540000F931F93CF93DF938C01EB01F89480912D
:10455000B70560E00E94622E8AE78EBD0DB407FEAB
:10456000FDCF08C088818EBD0DB407FEFDCF21961A
:104570000150104001151105A9F70E942921DF9172
:10458000CF911F910F910895CF93DF93EB0190E0AE
:1045900056E0880F991F5A95E1F7BC0160507E4E96
:1045A000815C9D4040F482E00E947B2180E490E0A9
:1045B000BE010E94A022DF91CF910895CF93DF9397
:1045C000EC010FC08CE10E94B52181FF0AC080E898
:1045D0006FE140E80E94302180EA6FE140E80E94EC
:1045E000302180E06FE10E94932183FDEBCF82E0D8
:1045F00060E07CE00E947B21BE016050744F86E049
:104600000E947B218AE760E040E00E943021CE01D9
:1046100068E372E00E94A02280E86FE148E00E9417
:104620003021DF91CF9108958AE061E00E94232E2E
:104630008AE061E00E94622E8BE061E00E94232EFE
:104640008DE061E00E94232E8CE060E00E94232E2A
:104650008BE061E00E94622E8BE060E00E94622E9F
:104660008DE060E00E94622E80E58CBD8DB581609A
:104670008DBD08951F93CF93DF93EB01142F90937B
:10468000B6058093B5050CB406FC02C00E94142345
:104690001093B705812F61E00E94232E0E942921EB
:1046A0008FEF60E04FEF0E94302162E070E080E029
:1046B00090E00E945F2F80E06DE10E9493218823AB
:1046C000D1F31092BA051092B90588E060E070E06D
:1046D0000E947B218CE060E070E00E947B218AE0F8
:1046E0006FEF7BE00E947B2184E060E07CE00E9431
:1046F0007B2186E06FEF71E10E947B210E948E2179
:1047000088E26FE370E30E947B2180E369EF77EF3B
:104710000E947B2180EC6DE00E946D2181EC60E0C5
:104720000E946D2180E862EC42E30E94302186EC19
:1047300062E17CE00E947B2184EC62E10E946D21B9
:104740008AEC6CED75E00E947B2184EE68810E940A
:104750006D2185EE69810E946D2182EE6A810E9441
:104760006D2183EE6B810E946D2180EE6C810E9431
:104770006D2181EE6D810E946D2184ED60E10E94CA
:104780006D2186ED60E071E00E947B218AEE0E943F
:10479000B52180FDFBCF8FE10E944C2180E86BE1C9
:1047A00040EC0E94302180E86FE144E00E9430211B
:1047B00082E70E94B521863008F08F5FDF91CF91AC
:1047C0001F910895ECEEF7E020E030E003C0319651
:1047D0002F5F3F4F8081853C29F488E0EF3FF80749
:1047E000B1F3A8F3C9010895FC0117821682108263
:1047F0001382118610861182148213861286128209
:104800001582178A1786108A118A128A08951F93B3
:10481000CF93DF93FC01648745872687EC0110E086
:104820008C8561E00E94232E8C8560E070E00E9400
:104830008D301F5F2196133099F7DF91CF911F9133
:1048400008954F925F926F927F928F929F92AF9254
:10485000BF92CF92DF92EF92FF920F931F93CF936D
:10486000DF93582E492E5B01FB0124813581828123
:1048700093812817390708F4C901F5012081318196
:10488000BC012817390708F4B901852D942D9C0126
:104890006901C0E0D0E03B0188249924C401B30140
:1048A0000E9475367B018C01F501EC0FFD1F6081C4
:1048B000718180E090E00E9475369B01AC01C801D7
:1048C000B7010E94E13520E030E040E853E40E9467
:1048D000033720E030E040E05FE30E947D350E9436
:1048E0004936F601748F638F229682E090E0C80EFD
:1048F000D91EC630D10591F6852D942D65E043E093
:1049000026E00E940724DF91CF911F910F91FF9025
:10491000EF90DF90CF90BF90AF909F908F907F905F
:104920006F905F904F900895DF93CF9300D000D0A9
:1049300000D0CDB7DEB7DE011196E6E9F1E026E062
:1049400001900D922150E1F7BE016F5F7F4F0E94F1
:10495000212426960FB6F894DEBF0FBECDBFCF91AF
:10496000DF910895EF92FF920F931F937C018B01CB
:10497000FB016081FC01848570E00E948D30F801AC
:104980006181F701858570E00E948D30F8016281B8
:10499000F701868570E00E948D301F910F91FF9086
:1049A000EF9008952F923F924F925F926F927F9275
:1049B0008F929F92AF92BF92CF92DF92EF92FF922F
:1049C0000F931F93DF93CF9300D00F92CDB7DEB735
:1049D000382E292E2B019C0139018824992400D0DE
:1049E00000D0F201E80DF91D608170E080E090E0F8
:1049F000F301238D348D40E050E0EDB7FEB7218305
:104A000032834383548320E030E040E050E0EFEF16
:104A1000EE2EF12C012D112DAA24BB2465010E943C
:104A20002435E1E0F0E0EC0FFD1FE80DF91DCB01AE
:104A30000F900F900F900F906F3F710519F010F0CD
:104A40008FEF90E080830894811C911C82E090E0BD
:104A5000680E791E93E08916910409F6832D922D34
:104A6000BE016F5F7F4F0E94B2240F900F900F9096
:104A7000CF91DF911F910F91FF90EF90DF90CF903A
:104A8000BF90AF909F908F907F906F905F904F906E
:104A90003F902F9008952F923F924F925F926F9286
:104AA0007F929F92AF92BF92CF92DF92EF92FF924E
:104AB0000F931F93DF93CF93CDB7DEB72C970FB62D
:104AC000F894DEBF0FBECDBF3C01DE011196E0E9D8
:104AD000F1E083E001900D928150E1F70E94512FA7
:104AE000F3012785308941895289621B730B840B3E
:104AF000950B0E94753620E030E048EC52E40E94AD
:104B000003377B018C01F301638974898589968958
:104B10000E9477369B01AC01C801B7010E94E135C4
:104B20000E944936CB016536710510F084E690E0AD
:104B300078866F821301442455249C0140E050E0A4
:104B400029873A874B875C87F301E40DF51D908038
:104B500000D000D0F10186819781AA2797FDA0950A
:104B6000BA2FEDB7FEB781839283A383B48369859F
:104B70007A858B859C8520E030E040E050E0B4E60B
:104B8000EB2EF12C012D112DAA24BB2465010E94CE
:104B90002435E4E0F0E0EC0FFD1FE40DF51D960E6A
:104BA00090820894411C511C22E030E0220E331EFA
:104BB0000F900F900F900F9033E04316510421F6A1
:104BC000C301BE016C5F7F4F0E94D22420E0F3013D
:104BD00093818C81981321E081E02827F30194814F
:104BE0008D81981320E0F30195818E81981320E048
:104BF000F3018789882309F45EC0222309F45BC08E
:104C0000228D222351F48E010C5F1F4F7301A7E008
:104C1000CA2ED12CCC0EDD1E25C0F301808D918DC6
:104C20000196918F808F9695879530E08217930734
:104C300051F7C301BE016F5F7F4F0E94D224F30181
:104C400017821682108213821186108611821482B6
:104C50001386128612821582178A1786108A118A85
:104C6000128A29C0EF81F8858081F8018083EF8165
:104C7000F88523812083F80181918F01EF81F885E8
:104C8000838390E0821B9109F701978386830E94BA
:104C9000512FF3016787708B818B928B2F81388521
:104CA0002F5F3F4F38872F8342E050E0E40EF51E20
:104CB0000C151D05B9F62C960FB6F894DEBF0FBE85
:104CC000CDBFCF91DF911F910F91FF90EF90DF90BB
:104CD000CF90BF90AF909F907F906F905F904F90DC
:104CE0003F902F900895AF92BF92CF92DF92EF92B4
:104CF000FF920F931F93DF93CF9300D00F92CDB706
:104D0000DEB78C015B0169017A01DE011196E3E9EE
:104D1000F1E083E001900D928150E1F7C801BE01FE
:104D20006F5F7F4F0E94D224A801D80120E030E0BD
:104D3000FA011082F501E20FF31F8081FA018383EB
:104D400016968C93169717961C9217972F5F3F4FC6
:104D50004F5F5F4F12962330310551F781E0F80124
:104D6000878B128E0E94512FF8016787708B818B81
:104D7000928BC701B60122E030E040E050E00E9493
:104D8000BB37F801238B348B458B568B0F900F90DC
:104D90000F90CF91DF911F910F91FF90EF90DF90D7
:104DA000CF90BF90AF900895EF92FF920F937C0148
:104DB0000E947326F701028F118E108E0F91FF90C3
:104DC000EF9008952F923F924F925F926F927F9251
:104DD0008F929F92AF92BF92CF92DF92EF92FF920B
:104DE0000F931F93DF93CF93CDB7DEB7A2970FB684
:104DF000F894DEBF0FBECDBF8B5B9F4FDC012D91C2
:104E00003D914D915D9129833A834B835C832D9134
:104E10003D914D915D912D833E834F8358872D9118
:104E20003D914D915D9129873A874B875C876D90C5
:104E30007D908D909D902D913D914D915D912D870F
:104E40003E874F87588B2D913D914D915D91298BD8
:104E50003A8B4B8B5C8B2D913D914D915D91BAA31B
:104E6000A9A32D8B3E8B4F8B588F8D919D910D90CB
:104E7000BC91A02DE9A1FAA1E156F040FAA3E9A363
:104E80002FEE35E03C8F2B8F41E050E05A8F498F59
:104E90000EC1598D503108F4CBC0698D7A8D6F7079
:104EA0007070E98DFA8D3297EF70F0703196EE0FD9
:104EB000FF1FEE0FFF1F89A19AA1E80FF91FA08025
:104EC000B180C280D380E98DFA8D3F97EF70F0708A
:104ED0003196EE0FFF1FEE0FFF1FE80FF91F6080E6
:104EE000718082809380E98DFA8D3797EF70F07032
:104EF0003196EE0FFF1FEE0FFF1FE80FF91F6F5FD8
:104F00007F4F660F771F660F771F680F791FE0804E
:104F1000F18002811381FB0180819181A281B381A3
:104F2000E80EF91E0A1F1B1FD601C50121E1B69527
:104F3000A795979587952A95D1F7A6019501FFE04A
:104F4000220F331F441F551FFA95D1F7822B932B45
:104F5000A42BB52BA6019501EAE056954795379508
:104F60002795EA95D1F782279327A427B527A6018D
:104F70009501FDE0220F331F441F551FFA95D1F70D
:104F8000E3E1D694C794B794A794EA95D1F72A2978
:104F90003B294C295D2982279327A427B527E80EB2
:104FA000F91E0A1F1B1FD401C30127E0B695A79560
:104FB000979587952A95D1F7A4019301F9E1220FDE
:104FC000331F441F551FFA95D1F7822B932BA42B27
:104FD000B52BA4019301E3E05695479537952795A6
:104FE000EA95D1F782279327A427B527A401930137
:104FF000FEE0220F331F441F551FFA95D1F7E2E15F
:105000009694879477946794EA95D1F7262937295F
:105010004829592982279327A427B527E80EF91E86
:105020000A1F1B1FDB01ED92FD920D931C9313973A
:10503000EB8DFC8D3496FC8FEB8F298D3A8D2F5F95
:105040003F4F3A8F298F8D899E89AF89B88D2989E5
:105050003A894B895C892D8B3E8B4F8B588F2D85E0
:105060003E854F855889298B3A8B4B8B5C8B6984A5
:105070007A848B849C842D813E814F815885298739
:105080003A874B875C8729813A814B815C812D83EC
:105090003E834F83588729823A824B825C822D8DD2
:1050A0003E8D4F8D58A12D873E874F87588B2B8D76
:1050B0003C8DF901A590B590C590D490A80EB91E6D
:1050C000CA1EDB1E2D853E854F8558890BE05695FF
:1050D0004795379527950A95D1F78D859E85AF859C
:1050E000B88915E1880F991FAA1FBB1F1A95D1F720
:1050F000282B392B4A2B5B2B8D859E85AF85B88954
:10510000F6E0B695A79597958795FA95D1F7ED8432
:10511000FE840F851889EAE1EE0CFF1C001F111FA9
:10512000EA95D1F78E299F29A02BB12B2827392763
:105130004A275B278D859E85AF85B88979E1B6952D
:10514000A795979587957A95D1F7ED84FE840F857D
:10515000188967E0EE0CFF1C001F111F6A95D1F73C
:105160008E299F29A02BB12B282739274A275B2777
:10517000A20EB31EC41ED51E89899A89AB89BC892B
:105180002D893E894F89588D82279327A427B527DB
:105190002D853E854F85588982239323A423B523EB
:1051A0002D893E894F89588D82279327A427B527BB
:1051B000A80EB91ECA1EDB1EE98DFA8D3197EF705D
:1051C000F0703196EE0FFF1FEE0FFF1F49A15AA19D
:1051D000E40FF51F80819181A281B381A80EB91ED1
:1051E000CA1EDB1EE980FA800B811C813DE016950A
:1051F0000795F794E7943A95D1F789819A81AB8125
:10520000BC8123E1880F991FAA1FBB1F2A95D1F7E4
:10521000E82AF92A0A2B1B2B89819A81AB81BC8150
:10522000F2E0B695A79597958795FA95D1F72981DC
:105230003A814B815C81EEE1220F331F441F551FE1
:10524000EA95D1F7822B932BA42BB52BE826F926D0
:105250000A271B2789819A81AB81BC8176E1B695AB
:10526000A795979587957A95D1F729813A814B81B2
:105270005C816AE0220F331F441F551F6A95D1F7E6
:10528000822B932BA42BB52BE826F9260A271B2764
:10529000D601C501860D971DA81DB91D8D8F9E8F46
:1052A000AF8FB8A32D803E804F80588429853A85E2
:1052B0004B855C85222A332A442A552A89819A8182
:1052C000AB81BC81282239224A225B228D819E81BA
:1052D000AF81B88582239323A423B523282A392AB2
:1052E0004A2A5B2A2E0C3F1C401E511E2A0C3B1CD6
:1052F0004C1C5D1CAB8DBC8DAB5EB64009F0C9CDBE
:10530000E9A1FAA1EB5BFF4F80819181A281B3817A
:10531000280E391E4A1E5B1E208231824282538231
:1053200069A17AA1675B7F4FFB0180819181A28196
:10533000B38129813A814B815C81820F931FA41F25
:10534000B51F80839183A283B38369A17AA1635B34
:105350007F4FFB0180819181A281B3812D813E81AC
:105360004F815885820F931FA41FB51F808391839F
:10537000A283B38369A17AA16F5A7F4FFB01808119
:105380009181A281B38129853A854B855C85820F05
:10539000931FA41FB51F80839183A283B383E9A1C8
:1053A000FAA1EB5AFF4F60807180828093802D8D2F
:1053B0003E8D4F8D58A1260D371D481D591D208348
:1053C00031834283538369A17AA1675A7F4FFB01DE
:1053D00080819181A281B3812D853E854F85588939
:1053E000820F931FA41FB51F80839183A283B38371
:1053F00069A17AA1635A7F4FFB0180819181A281CB
:10540000B38129893A894B895C89820F931FA41F34
:10541000B51F80839183A283B38369A17AA16F5959
:105420007F4FFB0180819181A281B3812D893E89CB
:105430004F89588D820F931FA41FB51F80839183BE
:10544000A283B383A2960FB6F894DEBF0FBECDBF82
:10545000CF91DF911F910F91FF90EF90DF90CF9050
:10546000BF90AF909F908F907F906F905F904F9084
:105470003F902F900895CF93DF939C01EC01CC5B7C
:10548000DF4F988183E08927F901E80FF11D6483DC
:105490009F5F9883903421F4C9010E94E22618820C
:1054A000DF91CF910895FC01EB59FF4F20813181AD
:1054B000428153812F5F3F4F4F4F5F4F2083318396
:1054C000428353830E943B2A81E090E0089510922A
:1054D000BE051092BD0580EA91E09093BC058093D3
:1054E000BB0508952F923F924F925F926F927F92E9
:1054F0008F929F92AF92BF92CF92DF92EF92FF92E4
:105500000F931F93DF93CF93CDB7DEB762970FB69C
:10551000F894DEBF0FBECDBF8B5B9F4FDC012D919A
:105520003D914D915D912D833E834F8358872D9002
:105530003D904D905D906D907D908D909D902D91C2
:105540003D914D915D9129833A834B835C832D91ED
:105550003D914D915C9113972B873C874D875E87DA
:10556000A555B040B88BAF871A86198619851031BA
:1055700008F469C069857A856F7070706F5F7F4FBE
:10558000660F771F660F771FEF85F8896E0F7F1FF5
:10559000A985BA851D96AF70B0701196AA0FBB1F72
:1055A000AA0FBB1FAE0FBF1F89859A8508968F7003
:1055B00090700196880F991F880F991F8E0F9F1F5B
:1055C0002D913D914D915C91FC0180819181A28151
:1055D000B381282739274A275B27FB0180819181E6
:1055E000A281B381282739274A275B27E985FA85D5
:1055F0003296EF70F0703196EE0FFF1FEE0FFF1F27
:105600008F859889E80FF91F80819181A281B381EC
:10561000282739274A275B27DA01C901880F991FF4
:10562000AA1FBB1F222757FD239533274427552741
:10563000822B932BA42BB52BFB0180839183A28318
:10564000B3831431C8F429813A814B815C812625CA
:105650003725482559252221332144215521898187
:105660009A81AB81BC81282739274A275B27275697
:1056700036484D47554A46C0183298F4A401930164
:10568000222533254425552589819A81AB81BC810A
:10569000282739274A275B272F553441464251494D
:1056A00031C01C33E8F4A401930122293329442991
:1056B000552989819A81AB81BC81282339234A23CA
:1056C0005B23D401C30182219321A421B521282B7E
:1056D000392B4A2B5B2B24523344444E504712C083
:1056E000A4019301222533254425552589819A81DA
:1056F000AB81BC81282739274A275B272A523E43A2
:105700004D495543ED80FE800F811885EBE11695DC
:105710000795F794E794EA95D1F78D819E81AF8143
:10572000B88575E0880F991FAA1FBB1F7A95D1F71E
:10573000E82AF92A0A2B1B2B8B859C85AD85BE8513
:10574000E80EF91E0A1F1B1FE985FA85EF70F0703D
:105750003196EE0FFF1FEE0FFF1FAF85B889EA0FDE
:10576000FB1F80819181A281B381E80EF91E0A1F7F
:105770001B1FE20EF31E041F151F620151019EE163
:10578000AA0CBB1CCC1CDD1C9A95D1F782E0569468
:105790004794379427948A95D1F7A228B328C42830
:1057A000D528E985FA853196FA87E98729813A81F2
:1057B0004B815C812B873C874D875E87B301898A4B
:1057C0009A8A2D803E804F805884E035F10589F01B
:1057D000C701D8018D839E83AF83B8873501460109
:1057E00049895A89CB01DA0189839A83AB83BC83C7
:1057F000BDCEEF85F889EB5BFF4F80819181A2815F
:10580000B381E80EF91E0A1F1B1FE082F18202839A
:1058100013836F857889675B7F4FFB01808191815E
:10582000A281B3812D813E814F815885820F931FC4
:10583000A41FB51F80839183A283B383EF85F8896A
:10584000E35BFF4F80819181A281B381A80EB91ED5
:10585000CA1EDB1EA082B182C282D382EF85F88984
:10586000EF5AFF4F80819181A281B381860D971DF0
:10587000A81DB91D80839183A283B3836F85788926
:105880006B5A7F4FFB0180819181A281B381298175
:105890003A814B815C81820F931FA41FB51F8083C7
:1058A0009183A283B38362960FB6F894DEBF0FBED6
:1058B000CDBFCF91DF911F910F91FF90EF90DF90BF
:1058C000CF90BF90AF909F908F907F906F905F90A0
:1058D0004F903F902F900895CF93DF939C01EC0160
:1058E000CC5BDF4F988183E08927F901E80FF11D38
:1058F00064839F5F9883903421F4C9010E94722AC7
:105900001882DF91CF910895FC01E75AFF4F208163
:105910003181428153812F5F3F4F4F4F5F4F208333
:105920003183428353830E946C2C81E090E0089580
:105930000F931F93CF93DF93EC0160E80E946C2CD0
:105940008E010C5B1F4F04C0CE0160E00E946C2CE6
:10595000F80180818833C1F7CE0160E00E946C2C91
:10596000CE0160E00E946C2CCE0160E00E946C2CA5
:105970008E01075A1F4FF8012081318142815381E6
:10598000FDE15695479537952795FA95D1F7CE01C4
:10599000622F0E946C2CF801208131814281538159
:1059A000E5E15695479537952795EA95D1F7CE01CC
:1059B000622F0E946C2CF801208131814281538139
:1059C0007DE056954795379527957A95D1F7CE0185
:1059D000622F0E946C2CF801208131814281538119
:1059E00065E056954795379527956A95D1F7CE018D
:1059F000622F0E946C2CF8016081660F660F660FA3
:105A0000CE010E946C2CDF91CF911F910F910895D0
:105A1000EF92FF920F931F93CF93DF93EC010E94BD
:105A2000982CFE01EB5BFF4F60E070E0208131813C
:105A300042815381B22FAA2799278827E52EFF2478
:105A400000271127E82AF92A0A2B1B2BB42FA32F92
:105A5000922F882780709070B070E82AF92A0A2B5C
:105A60001B2B232F342F452F55272070407050704B
:105A7000E22AF32A042B152BE192F1920193119360
:105A80006F5F7F4F6530710589F69E012B5B3F4F3D
:105A9000C901DF91CF911F910F91FF90EF90089571
:105AA000109287061092860688EA91E09093850608
:105AB0008093840608950F931F938C018B5B9F4FF7
:105AC0006FE077E044E150E00E940004075A1F4F66
:105AD000F801108211821282138205511040F801E0
