:100000000C94CC030C94BE300C94EB300C9407048D
:100010000C9407040C9407040C9407040C94070434
:100020000C9407040C9407040C9407040C94070424
:100030000C9407040C9407040C9407040C94070414
:100040000C94942F0C9407040C949F330C94ED3370
:100050000C9407040C9407040C9407040C940704F4
:100060000C9407040C9407046170692E7869766516
:100070006C792E636F6D003E3E3E20524553504FCB
:100080004E5345205245434549564544202D2D2D7C
:10009000002530325800446174612073656E74002D
:1000A00053656E64696E67206461746120746F20AB
:1000B000436F736D0050555420687474703A2F2F3D
:1000C00024462F76322F66656564732F24452E6A89
:1000D000736F6E20485454502F312E300D0A486FE4
:1000E00073743A2024460D0A582D4170694B657986
:1000F0003A2024450D0A436F6E74656E742D4C656D
:100100006E6774683A2024440D0A0D0A2448005092
:100110007265706172696E67207374617368002222
:100120007D7D5D7D00222C2273796D626F6C223A99
:100130002200225D2C22756E6974223A7B226C614A
:1001400062656C223A2200222C226171653A66694E
:10015000726D776172655F76657273696F6E3D006F
:10016000636F6D7075746564007230007261770042
:10017000222C226171653A646174615F6F726967F4
:10018000696E3D00222C226171653A73656E736F52
:10019000725F696E6465783D00222C226171653A58
:1001A00073656E736F725F616464726573733D0033
:1001B0005F7230005F7261770053656E736F7220FB
:1001C000547970653A2000222C2274616773223AB8
:1001D0005B226171653A73656E736F725F747970DB
:1001E000653D00222C2263757272656E745F7661C4
:1001F0006C7565223A22007B2264617461737472AB
:1002000065616D73223A5B7B226964223A20220089
:1002100057726F7465204645454420494420746FE9
:1002200020454550524F4D3A200057726F7465205B
:10023000415049204B455920746F20454550524F3D
:100240004D3A20003E3E4143544956415445443CBA
:100250003C002F76322F646576696365732F003C0E
:100260003C3C2052455120002074696D65732C2060
:1002700072657374617274696E670050726F76692B
:1002800073696F6E696E67206661696C65642000D2
:100290002E2E2E0046454544204C454E47544820BE
:1002A0003D2000415049204B4559204C454E475474
:1002B00048203D20003E3E3E464F554E4420464598
:1002C00045445F49440A00666565645F6964003EB1
:1002D0003E3E464F554E44204150494B45590A0039
:1002E0006170696B657900546F6B656E3A20003EF2
:1002F0003E3E2050524F564953494F4E494E47209B
:1003000043414C4C4241434B00556E696E697469E0
:10031000616C697A6564202D207465737420766140
:100320006C7565203D200050726576696F75736C41
:10033000792070726F766973696F6E6564002F61E2
:100340006374697661746500636F6D7075746520A0
:100350007368613A200053657269616C20233A200A
:10036000005352563A2000444E53206661696C6532
:100370006400444E533A200047573A200049503A0F
:10038000200044484350206661696C6564207265B2
:1003900073657474696E67004661696C6564207486
:1003A0006F206163636573732045746865726E6561
:1003B0007420636F6E74726F6C6C65720045676752
:1003C0002053657269616C20233A202000506169D6
:1003D00072696E67204576656E7420436F756E7422
:1003E0003A200020002052656365697665642050DC
:1003F00061636B657420447572696E672050616932
:1004000072696E67005F003000202053656E736F65
:10041000722056616C75653A2000202053656E731A
:100420006F7220556E6974733A2000202053656EF8
:10043000736F7220547970653A2000202053656EE6
:10044000736F7220496E6465783A20002020536FE4
:10045000757263652053656E736F722041646472B8
:100460006573733A2000202052656D6F74652053C8
:10047000746174696F6E20416464726573733A20AD
:1004800000202052656D6F7465204669726D77613A
:1004900072652056657273696F6E3A200020205095
:1004A00061636B657420547970653A200050616314
:1004B0006B65742052656365697665642040200031
:1004C000546F6F204C6F6E672053696E6365204CCC
:1004D00061737420526573706F6E73652046726F1E
:1004E0006D20436F736D2C20526573657474696E53
:1004F000670050616972696E6720636F6D706C652B
:10050000746500556E697420416464726573733A52
:1005100020000A5B416972205175616C6974792011
:10052000456767202D204261736520456767202D50
:100530002076322E30325D000001080006040001F2
:1005400045000082000040002000504F53542024FA
:100550004620485454502F312E300D0A486F737482
:100560003A2024460D0A244624534163636570747F
:100570003A202A2F2A0D0A436F6E74656E742D4C33
:10058000656E6774683A2024440D0A436F6E746583
:100590006E742D547970653A206170706C69636176
:1005A00074696F6E2F782D7777772D666F726D2D4A
:1005B00075726C656E636F6465640D0A0D0A245371
:1005C00000474554202446245320485454502F318A
:1005D0002E300D0A486F73743A2024460D0A2446C3
:1005E0000D0A0D0A004163636570743A20746578E2
:1005F000742F68746D6C00E30004FA0001000000C1
:1006000001982F8A4291443771CFFBC0B5A5DBB565
:10061000E95BC25639F111F159A4823F92D55E1CB3
:10062000AB98AA07D8015B8312BE853124C37D0C29
:1006300055745DBE72FEB1DE80A706DC9B74F19B33
:10064000C1C1699BE48647BEEFC69DC10FCCA10C1A
:10065000246F2CE92DAA84744ADCA9B05CDA88F9ED
:100660007652513E986DC631A8C82703B0C77F594E
:10067000BFF30BE0C64791A7D55163CA0667292986
:1006800014850AB72738211B2EFC6D2C4D130D380D
:100690005354730A65BB0A6A762EC9C281852C72CF
:1006A00092A1E8BFA24B661AA8708B4BC2A3516CF3
:1006B000C719E892D1240699D685350EF470A06A40
:1006C0001016C1A419086C371E4C774827B5BCB06A
:1006D00034B30C1C394AAAD84E4FCA9C5BF36F2E18
:1006E00068EE828F746F63A5781478C8840802C797
:1006F0008CFAFFBE90EB6C50A4F7A3F9BEF27871B0
:10070000C667E6096A85AE67BB72F36E3C3AF54F81
:10071000A57F520E518C68059BABD9831F19CDE084
:100720005B0123456789ABCDEFFEDCBA9876543286
:1007300010F0E1D2C300000000240027002A0000CE
:10074000000000250028002B0000000000230026E8
:100750000029000404040404040404020202020246
:100760000203030303030301020408102040800175
:1007700002040810200102040810200000000700F5
:100780000201000003040600000000000000000059
:10079000B405F22ADB2D5935EDEEF7E085EC98E053
:1007A00001C08193EF3FF907E0F3D9F311241FBE95
:1007B000CFEFD8E0DEBFCDBF14BE88E10FB6F8940E
:1007C00080936000109260000FBE11E0A0E0B1E0E5
:1007D000E0E4F1E702C005900D92A63BB107D9F71E
:1007E00017E0A6EBB1E001C01D92AD3EB107E1F705
:1007F00017E0C8E9D7E004C02297FE010E946338E1
:10080000C039D107C9F70E94F8350C949E380C9472
:100810000000FB01DC0102C005900D9241505040E8
:10082000D8F70895FB01DC010D900020E9F711973E
:1008300005900D920020E1F70895FC01059000203D
:10084000E9F7809590958E0F9F1F0895FB01DC01BD
:100850004150504030F08D910590801919F40020DE
:10086000B9F7881B990B0895FB0155915523A9F001
:10087000BF01DC014D9145174111E1F759F4CD015C
:100880000590002049F04D9140154111C9F3FB013D
:100890004111EFCF81E090E00197089546EB51E0E0
:1008A0000E9498040895FB01DC0104C08D91019021
:1008B000801921F441505040C8F7881B990B0895C6
:1008C000FB01DC0102C001900D9241505040D8F76D
:1008D0000895FB01DC010D900020E9F711970190CC
:1008E0000D920020E1F70895FB01DC0101900D92CB
:1008F0000020E1F70895FB01DC014150504030F049
:100900008D910190801919F40020B9F7881B990B7B
:100910000895FB01DC014150504048F001900D92D8
:100920000020C9F701C01D9241505040E0F70895E2
:10093000009731F4DA018D919C91009709F40EC073
:10094000DC01FB013D912191222319F03217C9F3FB
:10095000FACF332331F4DA011D921C9288279927AC
:1009600008951197AF93BF93FB013D9121913217E9
:1009700071F4332321F488279927119702C01E921E
:100980001196FA01A193B0839F918F91089522232C
:1009900069F7EACFA0E0B0E0E0EDF4E00C94713844
:1009A000EC017B018A01690109C0CE012196F701A2
:1009B00061917F01F6010995015010400115110563
:1009C000A1F7CDB7DEB7E8E00C948D38FB019F01AD
:1009D000E8944230C4F04532B4F44A3029F497FB2D
:1009E0001EF4909581959F4F642F77270E941038B1
:1009F000805D8A330CF0895D8193CB010097A1F76C
:100A000016F45DE251931082C9010C943B05FA0182
:100A1000CF93FF93EF93223044F1253234F5C22F68
:100A2000E894CA3049F497FB3EF490958095709510
:100A300061957F4F8F4F9F4F2C2F3327442755278A
:100A4000FF93EF930E942438EF91FF91605D6A332A
:100A50000CF0695D6193B901CA016050704080403B
:100A6000904051F716F4CDE2C19310828F919F917F
:100A7000CF910C943B05DC01FC01672F719177232A
:100A8000E1F7329704C07C916D9370836291AE1749
:100A9000BF07C8F308959C01F999FECF1FBA32BD74
:100AA00021BD60BD0FB6F894FA9AF99A0FBE089569
:100AB0000F931F93CF93DF938B01BC01E80120E0DC
:100AC00030E0A42FB0E01BC0FB018081E82FF0E0F4
:100AD00094E0F595E7959A95E1F7EE5AFE4F8081FF
:100AE0008883FB018191BF01E82FF0E0EF70F07087
:100AF000EE5AFE4F808189832F5F3F4F22962A173F
:100B00003B0714F3AA0FBB1FA00FB11F1C92DF916C
:100B1000CF911F910F910895DF92EF92FF920F9363
:100B20001F93CF93DF937C01D42E8B01C0E0D0E0E4
:100B3000C7018C0F9D1FB80141E00E945805C530C8
:100B400019F4F801128202C0F801D28221960D5FD9
:100B50001F4FC630D10561F7DF91CF911F910F91E3
:100B6000FF90EF90DF9008950F931F9304E314E03C
:100B700088EB91E0B8010E94EC1189EB91E00E94B2
:100B80001F258BED91E0B8010E94810E10922E047A
:100B900010922D048EE491E090932C0480932B040A
:100BA00010923204109230041F910F9108950E9408
:100BB0006B1481E090E008950E94DC2F609327047D
:100BC000709328048093290490932A0408950E9426
:100BD000DC2FE0E020912704309128044091290483
:100BE00050912A04621B730B840B950B615C774256
:100BF0008940904008F0E1E08E2F089580913A04FA
:100C00000E947018892B41F08BEC97E067E770E049
:100C10000E94ED310E94DC0508958F929F92AF9261
:100C2000BF92CF92DF92EF92FF920F931F93DF93C9
:100C3000CF93CDB7DEB7CA54D0400FB6F894DEBF1D
:100C40000FBECDBF8BE294E00E94BC16882E60E4FC
:100C5000962E5BE0A52EB12CAC0EBD1ED501E92D64
:100C60001D92EA95E9F743E0C42ED12CCC0EDD1E8F
:100C700088E0D6011D928A95E9F780910001909154
:100C800001019A8389838BED91E00E94910DDC0133
:100C90000D900020E9F78D0101501040081B190B41
:100CA0008BED91E00E94910DBC01C5010E94690489
:100CB000C5017E010894E11CF11CB7010E94690482
:100CC0008BED91E00E94890D0F5F1F4F0A0D1B1DD8
:100CD000B8014DE20E948C05C501B7010E9469046C
:100CE0008BED91E00E948E0D90E0B6014AE050E05D
:100CF0000E94E604C501B6010E9469048BE294E0FB
:100D000067EF71E00E94A2318BE294E0B5010E948E
:100D100088338BE294E063EE71E00E94A2318BEDA8
:100D200091E00E949B0DAB01BC018BE294E02AE0B4
:100D300030E00E9402338BE294E067EC71E00E94A5
:100D4000A2318BEC97E069EB71E00E94A2318BED50
:100D500091E00E94910DBC018BEC97E00E948B33D7
:100D60008BED91E00E94910D64EB71E00E943404E0
:100D7000892B09F1F50111929A94E9F78BED91E035
:100D80000E94910D8C018BED91E00E94910DDC0190
:100D90000D900020E9F7A81BB90B1597C501B80104
:100DA000AD010E9489048BE294E0B5010E94883372
:100DB000CC24C39436C08BED91E00E94910D60EB82
:100DC00071E00E943404892B11F1D5011D929A948F
:100DD000E9F78BED91E00E94910D8C018BED91E094
:100DE0000E94910DDC010D900020E9F7A81BB90BC2
:100DF0001497C501B801AD010E9489048BE294E00B
:100E0000B5010E948833CC24EE24E3940BC08BED13
:100E100091E00E94910DBC018BE294E00E94883326
:100E2000CC24EE248BE294E069E971E00E94A231C7
:100E30008E01055F1F4F80E4F80111928A95E9F752
:100E40008BED91E00E94890DB8014AE30E948C0568
:100E50008BE294E0B8010E9488338BE294E064E86E
:100E600071E00E94A2318BED91E00E948E0D682FFF
:100E70008BE294E04AE050E00E94D2328BE294E0B0
:100E800060E771E00E94A231CC2029F08BE294E06F
:100E90006CE671E00BC0EE2029F08BE294E069E68D
:100EA00071E004C08BE294E060E671E00E94A23140
:100EB0008BE294E067E471E00E94A2318BED91E057
:100EC0000E947B0DBC018BE294E04AE050E00E945E
:100ED000A4328BE294E062E371E00E94A2318BEDD8
:100EE00091E00E94960DBC018BE294E00E94883351
:100EF0008BE294E065E271E00E94A2318BED91E01B
:100F00000E94960DBC018BE294E00E9488338BE234
:100F100094E06FE171E00E94A2318BE294E00E94C4
:100F200095148BEC97E06FE071E00E94ED318BE25D
:100F300094E00E94DC132DB73EB72E5030400FB620
:100F4000F8943EBF0FBE2DBFEDB7FEB7319625EB2F
:100F500030E0ADB7BEB712963C932E93119748E69A
:100F600050E05383428322E330E035832483578368
:100F7000468321E030E0318720879387828784860B
:100F800015860E941E15EDB7FEB73E960FB6F89473
:100F9000FEBF0FBEEDBF8BEC97E060EA70E00E94F1
:100FA000ED310E94501880933A048BEC97E066E98B
:100FB00070E00E94ED31C65BDF4F0FB6F894DEBFE4
:100FC0000FBECDBFCF91DF911F910F91FF90EF909A
:100FD000DF90CF90BF90AF909F908F900895EF9249
:100FE000FF920F931F937C0182E390E0B70141E1F0
:100FF00050E02BE435E00E94CA040BEC17E0C80176
:1010000060E172E00E94A231C801B7010E948B33F7
:101010001F910F91FF90EF900895EF92FF920F9321
:101020001F937C0181E090E0B70141E350E02BE4A5
:1010300035E00E94CA040BEC17E0C8016AE272E0D6
:101040000E94A231C801B7010E948B331F910F91FA
:10105000FF90EF900895AF92BF92CF92DF92EF9200
:10106000FF920F931F93CF93DF935C0179018A0165
:1010700016950795F794E794C0E0D0E0C62EDD24DE
:1010800014C089EB91E06EE272E00E945D25C80118
:10109000B7010E94EA2F89EB91E0B5010E945D251E
:1010A000C801B7010E94EA2F2196CC15DD0548F34F
:1010B00089EB91E06EE272E00E945D25DF91CF91B5
:1010C0001F910F91FF90EF90DF90CF90BF90AF9066
:1010D00008951F93CF93DF93EC0110E088818A304D
:1010E00030F48BEC97E067E074E00E94A2318BEC67
:1010F00097E0688140E150E00E94D232153031F033
:101100008BEC97E065E074E00E94A2311F5F2196AE
:10111000163021F78BEC97E00E94CD31DF91CF9113
:101120001F910895CF92DF92EF92FF920F931F933A
:10113000CF93DF93182F7B016A018BEC97E06FEE62
:1011400072E00E94ED318BEC97E0612F70E04AE095
:1011500050E00E9469338BEC97E0B7014AE050E021
:101160000E9469338BEC97E0B6014AE050E00E94A0
:101170006933C7018E5C9D4F62E071E00E944E04AE
:10118000EC0110E000E0EE24CC2495C08BEC97E05D
:1011900067EE72E00E94A2318BEC97E0BE010E94E4
:1011A0008B33002351F0CE010E940D08FE01019007
:1011B0000020E9F73197EE2EEC1A112351F0CE0101
:1011C0000E94EF07FE0101900020E9F73197CE2E33
:1011D000CC1ACE0160EE72E046E050E00E94260498
:1011E000892B11F000E007C08BEC97E06FEC72E008
:1011F0000E94A23101E0CE0167EC72E046E050E0CF
:101200000E942604892B11F010E007C08BEC97E0B8
:1012100065EB72E00E94A23111E0CC2009F444C0D9
:10122000EE2009F441C081E0809326048BEC97E026
:1012300063EA72E00E94A2318BEC97E06E2D4AE0E7
:1012400050E00E94E4328BEC97E064E972E00E9487
:10125000A2318BEC97E06C2D4AE050E00E94E43222
:10126000F999FECF1FBA12BC11BC83E780BD0FB63F
:10127000F894FA9AF99A0FBE89EB91E06AE171E06D
:101280000E945D2560E177E280E090E00E94EA2F15
:1012900028E088E190E00FB6F894A895809360006C
:1012A0000FBE20936000FFCF80E090E062E071E02D
:1012B0000E944E04EC01209709F068CF8BEC97E078
:1012C00060E972E00E94ED31DF91CF911F910F91A3
:1012D000FF90EF90DF90CF900895BF92CF92DF9272
:1012E000EF92FF920F931F93DF93CF93CDB7DEB7AB
:1012F000A6970FB6F894DEBF0FBECDBF6C01DE011E
:101300005396E2E6F1E084E101900D928150E1F71D
:101310008E010F5F1F4F82E1F80111928A95E9F764
:101320008BEC97E066E573E00E94A231780100E063
:1013300010E0EAE3BE2EC8018C5C9B4FB70141E090
:101340000E945805053019F4F701128202C0F70116
:10135000B2820F5F1F4F83E090E0E80EF91E063067
:10136000110549F78BEC97E08E010F5F1F4FB80115
:101370000E948B338BEC97E068E473E00E94ED31C0
:1013800085E896E0BE016D5E7F4F44E150E00E942B
:10139000522E85E896E0B8010E94883385E896E0F1
:1013A0000E94FF2DB60144E10E9458058BEC97E0A6
:1013B00067E071E00E9488330E946D24BC018BECD1
:1013C00097E04AE050E00E94B532C6016EE373E058
:1013D0000E9412048BEC97E0B6010E948B33F60159
:1013E00013AAA6960FB6F894DEBF0FBECDBFCF915D
:1013F000DF911F910F91FF90EF90DF90CF90BF9002
:1014000008955F926F927F928F929F92AF92BF9258
:10141000CF92DF92EF92FF920F931F93DF93CF93C0
:10142000CDB7DEB7E4970FB6F894DEBF0FBECDBFE1
:101430008E010F5F1F4FC8010E946D091092260494
:10144000A0E1CA2EA7E2DA2EE12CF12CAA24BB24BB
:10145000502E012F30C08BEC97E06BE772E00E94BA
:10146000A2318BEC97E064E070E04AE050E00E942B
:1014700056338BEC97E068E672E00E94ED318BEC1E
:1014800097E00E94093589EB91E067E171E00E94E5
:101490005D2560E177E280E090E00E94EA2F28E09D
:1014A00088E190E00FB6F894A895809360000FBE95
:1014B00020936000FFCF0E94C6220E94511A0E9412
:1014C000DC2F3B014C01C616D706E806F90698F753
:1014D0008BEC97E00E94CD3180912604882391F512
:1014E0008BEC97E06FE572E00E94A23182E592E01A
:1014F000652D702F48E650E022E938E00E940A1876
:101500000894A11CB11C8BEC97E067E071E00E948D
:1015100088330E946D24BC018BEC97E04AE050E0D8
:101520000E94B53284E0A816B10409F494CFF8E91A
:10153000CF2EFAE3DF2EE12CF12CC60CD71CE81CD1
:10154000F91CB9CF8BEC97E064E472E00E94ED31B6
:10155000E4960FB6F894DEBF0FBECDBFCF91DF91FA
:101560001F910F91FF90EF90DF90CF90BF90AF90C1
:101570009F908F907F906F905F9008951F93F9993F
:10158000FECF12BC11BCF89A10B5133739F48BECAE
:1015900097E067E273E00E94ED3115C08BEC97E0B5
:1015A00069E073E00E94A2318BEC97E0612F40E18B
:1015B00050E00E94E43281E00E9480180E94010AFB
:1015C00080E00E9480181F910895DF92EF92FF92B1
:1015D0000F931F93DF93CF93CDB7DEB762970FB60C
:1015E000F894DEBF0FBECDBFFE01319682E1DF0170
:1015F0001D928A95E9F77F0100E010E0BAE3DB2E47
:10160000C8018C5C9B4FB70141E00E945805053032
:1016100019F4F701128203C0D7011296DC920F5F12
:101620001F4FE3E0F0E0EE0EFF1E0630110541F71C
:101630008BEC97E00E94CD318BEC97E06DEB73E083
:101640000E94A2318BEC97E0BE016F5F7F4F0E943A
:101650008B338BEC97E00E94CD3184EF91E064E313
:1016600074E048E00E947212882331F48BEC97E01A
:1016700068E973E00E94ED310E9478208823F1F43C
:101680008BEC97E062E873E00E94ED3189EB91E02A
:1016900066E271E00E945D2560E177E280E090E023
:1016A0000E94EA2F28E088E190E00FB6F894A89510
:1016B000809360000FBE20936000FFCF8BEC97E01B
:1016C0006DE773E00E94A23186E395E00E94261741
:1016D0008BEC97E00E94CD318BEC97E068E773E0EC
:1016E0000E94A23182E495E00E9426178BEC97E0DD
:1016F0000E94CD318BEC97E062E773E00E94A2314B
:101700008AE495E00E9426178BEC97E00E94CD3189
:101710008BEC97E067E071E00E9488330E946D24B3
:10172000BC018BEC97E04AE050E00E94B53288E6BD
:1017300090E060E00E94AF20882331F48BEC97E0CA
:1017400067E673E00E94ED318BEC97E061E673E0B1
:101750000E94A2318EE495E00E9426178BEC97E060
:101760000E94CD310E94382262960FB6F894DEBFF7
:101770000FBECDBFCF91DF911F910F91FF90EF90E2
:10178000DF9008950F931F93CF93DF938C010E94F6
:10179000DC2FAB01BC018BEC97E02AE030E00E942B
:1017A00081328BEC97E065EE73E00E94ED31C0E092
:1017B000D0E0F801EC0FFD1F8BEC97E060814AE070
:1017C00050E00E94D2328BEC97E063EE73E00E940F
:1017D000A2312196C830D10561F78BEC97E00E94C9
:1017E000CD318091DA018F5F8093DA018BEC97E045
:1017F0006DEC73E00E94A2318BEC97E06091DA010E
:101800004AE050E00E94E432DF91CF911F910F91A6
:101810000895EF92FF920F931F930BEC17E0C8010E
:101820006DEA74E00E94A2310E94DC2FAB01BC0182
:10183000C8012AE030E00E949032C8016DE974E0EE
:101840000E94A2318BEDE82E81E0F82EC7010E94A4
:10185000780D682FC80140E150E00E94E432C801D1
:1018600061E874E00E94A231C7010E947B0DBC01B7
:10187000C8014AE050E00E94B532C80166E674E053
:101880000E94A231C7010E94840D0E946908C8010C
:101890006CE474E00E94A231C7010E94890D0E948D
:1018A0006908C8016BE374E00E94A231C7010E947D
:1018B0008E0D682FC8014AE050E00E94E432C80152
:1018C0006BE274E00E94A231C7010E94910DBC013D
:1018D000C8010E948B33C8016AE174E00E94A23102
:1018E000C7010E94960DBC01C8010E948B33C8013C
:1018F00069E074E00E94A231C7010E949B0DAB0118
:10190000BC01C8012AE030E00E944233C8010E94B5
:10191000CD311F910F91FF90EF9008950F930E948A
:10192000C6220E94511A0E94FE058BED91E00E9492
:10193000C70D882301F180913102E82FF0E0EE0F0E
:10194000FF1FE75DFE4F608171818F5F80933102E1
:1019500089EB91E028EE33E040E050E001E00E94A6
:101960005F2780913102843010F0109231020E9482
:10197000090C0E940D060E94E705882311F18BECEB
:1019800097E060EC74E00E94ED318BEC97E00E94F0
:10199000093589EB91E063E271E00E945D2560E129
:1019A00077E280E090E00E94EA2F28E088E190E072
:1019B0000FB6F894A895809360000FBE2093600046
:1019C000FFCF89EB91E00E94D625A8950F9108954D
:1019D0008BEC97E040E052EC61E070E00E9428342C
:1019E0008BEC97E067E071E00E9488330E946D24E1
:1019F000BC018BEC97E04AE050E00E94B5328BECE2
:101A000097E062E175E00E94ED318BEC97E063E0D6
:101A100075E00E94A23184E394E00E94690889EB9A
:101A200091E063E271E028EB3BE040E050E00E948F
:101A3000FE268BED91E00E94F10D8BED91E062ECC2
:101A40007BE00E94720D04C089EB91E00E94D625D4
:101A50008BED91E00E941B0E8823B1F389EB91E09E
:101A60000E947F2489EB91E06EE272E00E945D2586
:101A70008091DA01882319F08DE191E002C086E2BD
:101A800091E063E028EE33E040E050E00E942B0854
:101A90008BEC97E062EF74E00E94ED310E94E50A62
:101AA00080E291E063E028EE33E040E050E00E9405
:101AB0002B080E94BE0A8AE191E063E028EE33E041
:101AC00040E050E00E942B080E94DC0529E288E1FA
:101AD00090E00FB6F894A895809360000FBE209315
:101AE00060000895FC01EF5AFF4F718360830895F1
:101AF000FC0180810895FC01918180E0228130E029
:101B0000282B392BC90108959C01275F3F4FC9013C
:101B100008959C01215F3F4FC9010895FC0185890B
:101B200008959C012A5E3F4FC90108959C012A5DDA
:101B30003F4FC9010895FC0186A990E0A0E0B0E004
:101B4000BA2FA92F982F882727A930E040E050E02E
:101B5000282B392B4A2B5B2B542F432F322F222734
:101B600080AD90E0A0E0B0E0282B392B4A2B5B2B16
:101B7000542F432F322F222781AD90E0A0E0B0E018
:101B8000282B392B4A2B5B2BB901CA010895CF931F
:101B9000DF93EC010E94870F8823F9F080913B04CA
:101BA00090913C04892BC9F4809140048333A9F4BB
:101BB000CE018E5B9F4F63E474E046E050E00E94EC
:101BC0005304009751F4DE01E0E4F4E08AE301906D
:101BD0000D928150E1F781E001C080E0DF91CF916B
:101BE00008950F931F938C010E94DC2F045B1F4FFD
:101BF000F8011082118212821382605F784D8F4F3C
:101C00009F4F92938293729362938F01085F1F4F4D
:101C100081E0F801808300551040F80185E581934B
:101C2000D801AE5BBF4F86E00D9001928150E1F785
:101C30001F910F910895EF92FF920F931F93CF93EF
:101C4000DF93EC010E94DC2F7B018C010E94870F47
:101C5000882381F080913B0490913C04892B51F4BE
:101C6000CF5ADF4FE881F981C155D040309711F04C
:101C7000CE010995C85BDF4F88819981AA81BB811C
:101C8000C854D040E816F9060A071B0710F081E097
:101C900031C0FE01E45BFF4F80819181A281B3815D
:101CA000A8019701281B390B4A0B5B0BDA01C9010C
:101CB000815D9740A040B04050F0E082F182028305
:101CC0001383C05BDF4F81E08883C055D0408E0115
:101CD000005B1F4FF8018081882359F00E94161085
:101CE000882339F080E0BE0147E00E947110F801BE
:101CF000108280E0DF91CF911F910F91FF90EF90C4
:101D00000895FC01EF5AFF4F118210823F97DB01CB
:101D100086E00D9001928150E1F781E461E044EDAD
:101D20000E94B5100895782F8CB581608CBD65B187
:101D300021E030E040E050E00090310104C0220F8B
:101D4000331F441F551F0A94D2F7522F822F8095BC
:101D5000862385B99EBD0DB407FEFDCF8EB57EBD31
:101D60000DB407FEFDCF4EB5382F20E085B1582BBE
:101D700055B98CB58E7F8CBD50E0422B532BCA01D8
:101D8000089580E090E00E94930E80918B0485304E
:101D900009F054C080E090EB0E94930E282F8091B0
:101DA0008D04882371F490918C04992351F08091D3
:101DB0008D04E82FF0E0E35CFB4F90838F5F80930E
:101DC0008D0480918D04E82FF0E0E35CFB4F2083CD
:101DD0008F5F80938D0480913B0490913C04822717
:101DE000282F22952827022E269526952025022E7B
:101DF000269520252770082E892F2695079427954C
:101E0000902D8227069427959025822790933C0455
:101E100080933B0480913F0420918D0490E00496D0
:101E200030E0821793072CF080918D04873408F4FA
:101E30006DC08DE092E80E94930E089580918B040E
:101E400087FF2EC0E0913F0480918B048F5F8093C9
:101E50008B048150ED5FE80FF0E0E35CFB4FE08125
:101E600080913B0490913C048E27282F22952827AF
:101E7000022E269526952025022E269520252770B0
:101E8000082E892F269507942795902D8227069452
:101E900027959025822790933C0480933B0430C083
:101EA00080918B048F5F80938B048150833019F174
:101EB00084302CF4882399F0813009F516C08930DC
:101EC00019F08A30E1F402C0EDE21AC0E0918C040E
:101ED00090913F048EEF891B80938B0411C08091F9
:101EE0003B0490913C04E82F0BC080913B049091FF
:101EF0003C04E92F05C08DE092E80E94930EEAEAC7
:101F00008E2F90E0805098440E94930E0895809107
:101F10008B04853009F042C080913F0420918D04EC
:101F200090E0049630E08217930724F080918D04AE
:101F30008734A0F184E080938B0480913F04833444
:101F400030F081E090E090933C0480933B048091DA
:101F50003E0486FF12C080918A04282F30E0C90118
:101F60008F7190704F9749F080913E0490E08227E6
:101F700093278F719070892B89F480913B04909105
:101F80003C04892B09F044C0E0918804F091890455
:101F9000309709F43DC080E0099546C080918B04DC
:101FA000843011F080E0089510923F0480913F0446
:101FB00080938D048FEF9FEF90933C0480933B04BC
:101FC00020918C042223D9F08227282F22952827BC
:101FD000022E269526952025022E2695202527704F
:101FE000082E892F269507942795902D82270694F1
:101FF00027959025822790933C0480933B0485E0AD
:1020000080938B048DED92E80E94930E80E00895FA
:102010008FEF9FEFAFEFBFEF809384049093850421
:10202000A0938604B093870481E0089580918B0487
:102030008530A1F480918D04882381F41EBC0DB4F9
:1020400007FEFDCF0EB400FC09C08DE092E80E94AF
:10205000930E84E080938B0481E0089580E00895DE
:10206000982F86FD05C0907E80918A048F71980F0D
:1020700090933E04E0918804F0918904309711F028
:1020800081E009958FEF9FEF90933C0480933B0490
:1020900080913B0490913C0420918C048227282F4E
:1020A00022952827022E269526952025022E269554
:1020B00020252770082E892F269507942795902D87
:1020C0008227069427959025822790933C0480933D
:1020D0003B0486E080938B048DE392E80E94930E8C
:1020E00008951F93182F40933F0420E434E0C90162
:1020F00050E00E946004812F0E9430101F910895CB
:1021000025B181E090E0A0E0B0E00090310104C092
:10211000880F991FAA1FBB1F0A94D2F7282B25B935
:1021200024B1822B84B98AE061E00E94ED2E8AE01E
:1021300061E00E94AE2E8BE061E00E94AE2E8CE04A
:1021400060E00E94AE2E8DE061E00E94AE2E80E540
:102150008CBD8DB581608DBD82E060E00E94AE2EA9
:1021600082E061E00E94ED2E08951F93162F809368
:102170008A0440938C040E94801080E090E00E94CA
:10218000930E85E092E80E94930E80E098EB02C0E7
:1021900080E090E00E94930E82E00E94412F892B04
:1021A000B9F3812F90E074E0880F991F7A95E1F7D9
:1021B000876C90680E94930E80E496EA0E94930ECA
:1021C00086E096EC0E94930E82EA94E90E94930EB8
:1021D0008CEA92EC0E94930E10918C04112341F032
:1021E00083E89AEC0E94930E812F90E09E6C06C0CB
:1021F0008BE89AEC0E94930E8DE29EEC0E94930E67
:1022000083E894EC0E94930E80E598E90E94930E77
:1022100087E79CEC0E94930E80E090EE0E94930E64
:1022200080E098EC0E94930E89E490EC0E94930E5B
:1022300084E080938B0480918A0490E08F71907089
:10224000892B41F080E061EC7EE040E050E00E94AC
:10225000883003C080E00E94AB3080918A041F91D7
:1022600008950F931F93579889E090E00E944330A0
:1022700009B184E190E00E94433019B189E090E017
:102280000E94433017FD02C080E005C0802F80957A
:10229000881F8827881F1F910F9108956F927F9242
:1022A0008F929F92AF92BF92CF92DF92FF920F9345
:1022B0001F93CF93DF935C013B016A0100E010E0C4
:1022C0004A010894810891082AC0FF24C0E0D0E0A8
:1022D000C5010E943111FF0CF82A2196C830D105A2
:1022E000B9F7579A0815190539F45F9A84E190E017
:1022F0000E9443305F9806C05F9884E190E00E949E
:1023000043305F9A84E190E00E944330C5010E940F
:102310003111F301E00FF11FF0820F5F1F4F0C1519
:102320001D059CF2DF91CF911F910F91FF90DF90DF
:10233000CF90BF90AF909F908F907F906F900895B7
:10234000EF92FF921F93CF93DF937C01162F579A42
:10235000C0E0D0E017FF07C05F9884E190E00E94E2
:1023600043305F9A06C05F9A84E190E00E94433058
:102370005F9884E190E00E9443302196C830D105F7
:1023800011F0110FE7CF5F9884E190E00E94433095
:102390005F9A84E190E00E944330C7010E943111AE
:1023A000DF91CF911F91FF90EF9008950F931F93AE
:1023B0008C015F9886E090E00E944330C80165E59B
:1023C0000E94A0111F910F910895579A5F9A88E576
:1023D00092E00E9443300895EF92FF920F931F9373
:1023E0008C017B01F8940E94E511C8010E94D6116E
:1023F000C80160EA0E94A011C80163E00E94A01118
:10240000C80160E00E94A011C8016AEF0E94A011FB
:10241000C801B70146E050E00E944E11C8010E9479
:10242000E51178941F910F91FF90EF900895CF934D
:10243000DF93C0E0D0E05C2FFE01E257FB4FE0816C
:10244000EE2349F120E030E06E2F70E0CB01022E48
:1024500002C0959587950A94E2F780FF17C0C2578E
:10246000DB4F81E090E0A0E0B0E0022E04C0880FD6
:10247000991FAA1FBB1F0A94D2F780958E238883C9
:10248000852F880F880F880F820F0AC02F5F3F4F5C
:1024900028303105D9F62196C032D10561F680E0A9
:1024A000DF91CF910895CF93DF93EC019B018A30A8
:1024B000910548F06AE070E00E941038CB01B90144
:1024C0000E9453129C01CE016AE070E00E94103815
:1024D000805DF9018193D90111961C92CF01DF91A2
:1024E000CF910895AF92BF92CF92DF92FF920F9358
:1024F0001F93CF93DF938C01EB01F42E10925205C2
:1025000038E341E050E060E070E018C0832F90E0D5
:10251000FC01B3E0F595E795BA95E1F7E257FB4F7B
:10252000877090705A016B0104C0AA0CBB1CCC1CB4
:10253000DD1C8A95D2F720812A292083315031F77A
:1025400080E395E0BE010E944717C80160E375E093
:102550004F2D0E94C523DF91CF911F910F91FF90C6
:10256000DF90CF90BF90AF900895CF92DF92EF921F
:10257000FF920F931F93DF93CF93CDB7DEB7EB841A
:10258000FC84CD84DE84DE011F9601C0D801F601F3
:102590008491882309F4BAC00894C11CD11C8432E8
:1025A00009F097C0F6010894C11CD11C84918634AF
:1025B00009F45DC0873434F4843469F0853409F05B
:1025C00088C06CC08C34B9F1833509F443C08834B9
:1025D00009F07FC00BC08D010E5F1F4FF7016681B0
:1025E00077818D919C910E9453127EC02C91822FF5
:1025F000992787FD909514E0959587951A95E1F7B1
:102600008F702F702A300CF0295F8A300CF0895FB0
:102610008D010E5F1F4FF701A681B781805DFD011F
:102620008193205D11962C933196D7011796FC93D8
:10263000EE931697ABCF8D010C5F1F4F6D917D917F
:102640008D919C91F701468157812AE030E00E94EC
:1026500007054AC08D010E5F1F4F6D917C91D70118
:1026600016968D919C9117970E9474043DC08D0120
:102670000E5F1F4F2D913C910AC0D7011696ED9128
:10268000FC91179781931796FC93EE931697F90197
:102690002F5F3F4F8491882381F778CF8D010E5FA4
:1026A0001F4F2D913C910AC0D7011696ED91FC91D8
:1026B000179781931796FC93EE931697F999FECF8F
:1026C00032BD21BDF89A80B52F5F3F4F882361F757
:1026D0005DCFF70126813781F90181939F01F701D1
:1026E000378326838D0152CFD70116968D919C9109
:1026F0001797FC0101900020E9F73197E81BF90BCF
:102700008E0F9F1FF7019783868340CFCF91DF9174
:102710001F910F91FF90EF90DF90CF900895EF926F
:10272000FF920F931F93CF93DF93EC0131E0E32EE1
:10273000F12C012D112D1EC090E0FC0123E0F59538
:10274000E7952A95E1F7E257FB4F87709070A80153
:10275000970104C0220F331F441F551F8A95D2F7DB
:10276000DA01C9012081282B20838D816FE30E942B
:1027700089228D838D818823F9F6DF91CF911F9176
:102780000F91FF90EF900895982F8091EE04981785
:1027900029F4E62FF0E0E255FB4F08C080912F05A9
:1027A000981731F4E62FF0E0E151FB4F8081089556
:1027B000892F0E94892208950F931F93FC010481A1
:1027C0008FE3089F8001112486816EE30E94C41369
:1027D000080F111D03501040C8011F910F9108955B
:1027E0001F93CF93DF93982F162FC82FD0E0FE01B1
:1027F00056E0EE0FFF1F5A95E1F7EC0FFD1FE25573
:10280000FB4FE05CFF4F8081E054F040681771F1AE
:10281000992359F4BF010E944F2380912F05181767
:1028200091F48FEF80932F050EC08091EE0468170E
:1028300051F4AFEEB4E0EEEAF4E081E401900D92E1
:102840008150E1F713C0FE0146E0EE0FFF1F4A95ED
:10285000E1F7EC0FFD1FE255FB4FE05CFF4F1083EB
:10286000E054F040812FBF010E94AC22DF91CF9154
:102870001F91089580E060E00E94F0138091AE0403
:102880009091AF040895CF93DF93EC0181E06F81C5
:102890000E94F0139F818E81981739F4988580915A
:1028A0002D05981710F080E013C08885E82FF0E020
:1028B000E151FB4FE0818F5F88878F3340F09F812C
:1028C0008E81981721F080912E058F8318868E2F88
:1028D000DF91CF9108951F93CF93DF93EC01162FD3
:1028E00080E06E810E94F0138091EC04E82FF0E00C
:1028F000E255FB4F10838F5F8F3318F48093EC0405
:1029000010C00E941712682F8093ED048E8380E020
:102910000E94F0131092ED041092EC048C818F5FF2
:102920008C83DF91CF911F910895CF93DF93EC01BA
:1029300080E06D810E94F013AEEAB4E0FE013496AF
:1029400083E001900D928150E1F790912F058D81E8
:10295000981721F481E060E00E94F013DF91CF919D
:102960000895CF93DF93EC016F8383E0888781E044
:102970000E94F013DE011496EFEEF4E083E0019084
:102980000D928150E1F78F81DF91CF910895AF9241
:10299000BF92CF92DF92EF92FF920F931F93DF933C
:1029A000CF93CDB7DEB729970FB6F894DEBF0FBE31
:1029B000CDBF80E060E00E94F0130091B004109160
:1029C000B10470EBE72E74E0F72E6EE4A62E61E002
:1029D000B62E6E010894C11CD11C02C00F5F1F4FA0
:1029E000F80184918823C9F00F5F1F4F8432C1F72B
:1029F00082E090E0E80EF91EF7016081F801849111
:102A0000883461F71C821B82BA82A982C6010E94A7
:102A1000B114C6010E948F13E1CF29960FB6F89426
:102A2000DEBF0FBECDBFCF91DF911F910F91FF9001
:102A3000EF90DF90CF90BF90AF9008954F925F924C
:102A40006F927F928F929F92AF92BF92CF92DF92BE
:102A5000EF92FF920F931F93DF93CF93CDB7DEB723
:102A600060970FB6F894DEBF0FBECDBF8E010D5D2F
:102A70001F4FF801E190F1908F0180E060E00E942B
:102A8000F013C7010E941D049093AF048093AE041D
:102A9000F092B104E092B0046801A2EB8A2EA4E0A7
:102AA0009A2EFEE44F2EF1E05F2EE8E06E2E712CA0
:102AB0006C0E7D1E5E010894A11CB11CF70184916F
:102AC000882309F465C00894E11CF11C8432B1F735
:102AD000F60100811181F7018491863429F1873450
:102AE00028F4843469F0853429F407C0883469F106
:102AF000833591F0A0E0B0E034C0A0E0B0E019C0B0
:102B0000C801B5010E945312D5010D900020E9F7CC
:102B10001197AA19BB0925C0D8010D900020E9F72B
:102B20001197A01BB10B1DC0C8010E941D0418C045
:102B30001196F999FECFCD01800F911F92BD81BDF5
:102B4000F89A80B58823A1F70CC01B861A8659868F
:102B50004886C301602F0E94B114C3010E94DC1398
:102B6000DC010894E11CF11CF401019311934F0165
:102B70008091AE049091AF0402978A0F9B1F9093AF
:102B8000AF048093AE0482E090E0C80ED91E96CFC9
:102B900060960FB6F894DEBF0FBECDBFCF91DF9128
:102BA0001F910F91FF90EF90DF90CF90BF90AF906B
:102BB0009F908F907F906F905F904F9008952F928D
:102BC0003F924F925F926F927F928F929F92AF92BD
:102BD000BF92CF92DF92FF920F931F93DF93CF9319
:102BE000CDB7DEB760970FB6F894DEBF0FBECDBF8E
:102BF0001C013B01142F052F80E060E00E94F013C0
:102C0000C090B004D090B1041B861A868EE491E087
:102C1000998788871F861D86212F302FC9012C0197
:102C20008824992400EBA02E04E0B02E10E4F12EAD
:102C300000E010E0620C731C83C086E4F81609F40F
:102C40005EC08F1564F094E4F91609F454C09F1522
:102C50000CF45AC0E0E4FE1609F070C009C0F8E4B4
:102C6000FF1609F45BC083E5F81609F067C043C09E
:102C7000F6018491282F882309F466C00894C11CAA
:102C8000D11C843209F050C082E090E0A80EB91E39
:102C9000F50160812181F6010894C11CD11CF490DA
:102CA000F6E4FF1544F085E4F816C4F494E4F9164C
:102CB00009F046C008C0E8E4FE16A9F0F3E5FF16E7
:102CC00009F03EC00BC0862F922FBE016F5F7F4F71
:102CD0000E9453128E010F5F1F4F32C0862F922F1A
:102CE0009C0189012DC0CE0108960E94B1148E016D
:102CF000085F1F4F25C0F80121918F0113C0F80113
:102D00000F5F1F4F24910EC0F999FECFC8010196A5
:102D100012BD01BDF89A20B58C0104C0C8010E9403
:102D20004314282F222351F08214930418F0F20147
:102D300021932F010894811C911C02C0B0E4FB2E4A
:102D40008614970408F479CF60960FB6F894DEBF26
:102D50000FBECDBFCF91DF911F910F91FF90DF90FC
:102D6000CF90BF90AF909F908F907F906F905F902B
:102D70004F903F902F900895EF92FF921F937C0108
:102D80000E941712182F80E0612F0E94F013EEEAC4
:102D9000F4E01092AE041093B0041093AF0483E0FB
:102DA00086AF17AEC701612F0E94B1141F91FF902B
:102DB000EF90089580917C05811181E00895CF9274
:102DC000DF92EF92FF920F931F93CF93DF93C4E5AF
:102DD000D5E030E0CC24DD2429C02A814B818091CC
:102DE000560290E0042F10E080179107D9F49091DB
:102DF00057029217B9F48C818823A1F020915902CF
:102E000030E028503040F0905802EE242E0D3F1D47
:102E1000E881F981892F942F6CE472E04CE552E04F
:102E2000099531E00894C11CD11C259680917C0540
:102E300090E0C816D9068CF2832FDF91CF911F91B5
:102E40000F91FF90EF90DF90CF9008950F931F9315
:102E5000CF93DF938C01C0E0D0E0F801EC0FFD1FB1
:102E60008BEC97E060814AE050E00E94D232C330A0
:102E700029F08BEC97E06EE20E94C5312196C430B8
:102E8000D10559F7DF91CF911F910F910895DC0182
:102E9000FB0186E001900D928150E1F708959C01BD
:102EA000FB0180819181A281B381F90180839183AB
:102EB000A283B3830895FC01A681B7816D93B78384
:102EC000A68381E090E00895DF92EF92FF920F9346
:102ED0001F93CF93DF93D82E862FBA01213041F470
:102EE000675F7F4F9B0140E050E0695070400EC02B
:102EF000223029F020E030E040E050E007C062508E
:102F000070409B0140E050E06E5F7F4FE82EFF2451
:102F100082E392E0E80EF91E8B01E7010FC0F88111
:102F2000E0E0898190E08E2B9F2BA0E0B0E0280F9D
:102F3000391F4A1F5B1F22960250104002301105B4
:102F400070F7CB018E7FD701A80FB91F68177907DB
:102F500079F08C9190E0A0E0B0E0BA2FA92F982FE3
:102F6000882702C040E050E0280F391F4A1F5B1F2E
:102F7000CA01AA27BB270097A105B10599F7C90186
:102F800080959095ED2DF0E0EE5CFD4F9083818370
:102F9000DF91CF911F910F91FF90EF90DF900895F7
:102FA00010924A0210924B0280E4809346021092E3
:102FB00047028093480288E16EE044E150E020E05F
:102FC0000E946417089580917D0586958095817093
:102FD000089580913A05809590913605892B8093CC
:102FE0003E0580913B05809590913705892B809314
:102FF0003F0580913C05809590913805892B809301
:10300000400580913D05809590913905892B8093ED
:1030100041050895909394058093930570939E05C0
:1030200060939D05509396054093950585EE95E038
:10303000909398058093970510929A0510929905A0
:1030400030939C0520939B053091320120913301F0
:1030500086EA9DE1909385058093840586EE9CE148
:103060009093870580938605209380053093810592
:1030700081E080937E0580917F058F5F87708093CC
:103080007F05809392050895662341F4809338016B
:103090004E5C5D4F509391054093900581E00895FB
:1030A000309132012091330184E498E190938505B9
:1030B0008093840586EC9CE1909387058093860538
:1030C000209380053093810581E080937E05809177
:1030D0007F058F5F877080937F05809392050895A9
:1030E00090913801981719F020E030E007C08BE785
:1030F000809338012091900530919105C901089580
:103100008093530508950F931F93BC0102E312E0CF
:10311000C8010E944717C801069660E375E00E9447
:1031200047171F910F910895EF92FF920F931F93EE
:103130007B010E94831800E512E0C801B7010E94DC
:103140004F17C801049766E375E00E944F171F915F
:103150000F91FF90EF900895EF92FF920F931F93BE
:10316000CF93DF937C01EB018A0188E895E00E9410
:1031700094188881807F803E49F088819981AA8156
:10318000BB818F5F9F4FAF4FBF4F31F482E392E01F
:1031900066E771E00E94471788E080933E02109234
:1031A0003F0280E492E060E475E049E050E00E9474
:1031B00009041092420281E1809349021093560261
:1031C00000935702F0925402E09255021092580276
:1031D00010925A0210925B02DF91CF911F910F91D2
:1031E000FF90EF900895EF92FF920F931F9308E3E3
:1031F00012E0C8010E94831874E1E72EF12CE00E62
:10320000F11EC8014896B7010E944F17C70166E337
:1032100075E00E944F170E94D0171F910F91FF90E9
:10322000EF900895BC0181E080937D0582E495E0F4
:103230000E944F1708950F931F938C0188969093C7
:103240004202809343020E94D017109264021092AF
:103250006502045E1F4F82E36AE1A80122E00E943A
:103260006417C8014A960E9469231F910F9108951F
:10327000CF93DF939C01862F80618093610264303D
:1032800029F02115310511F421E030E0909156022A
:103290008091540280935602909354029091570269
:1032A000809155028093570290935502CBE5D2E06E
:1032B0008881A901480F511D2C814C832883252F1B
:1032C0003327219752E0C735D50791F71D861E8613
:1032D00080E589871092420288E2809343020E942F
:1032E000F31884E08B871C8682E36AE14CE150E0AE
:1032F00022E00E94641786E390E00E946923DF9138
:10330000CF910895E82F4091560250E0292F30E0E8
:103310004217530709F092C0809157028E1709F0A7
:103320008DC080916102E82F81FF4EC01092420251
:103330008CE2809343020E94F31882E18093610241
:1033400090915602809154028093560290935402B9
:1033500090915702809155028093570290935502A5
:10336000EBE5F2E021E030E08081A901480F511D3A
:1033700044831082252F3327319752E0E735F50734
:1033800099F7158616861182128280913701838300
:1033900014828D5F8093370182E0818B84E0828B81
:1033A00095E0938B148A80E68187938788E78487EA
:1033B00082E36AE140E250E022E00E9464178AE37F
:1033C00090E00E9469233AC084FF38C09091420285
:1033D00080E02091430230E0282B392B809160025D
:1033E000482F50E0A4E055954795AA95E1F7CA010A
:1033F000880F991F880F991F281B390B24513040C3
:1034000037FF02C020E030E030938F0520938E0517
:10341000232B69F09A01220F331F220F331F2E5DD9
:103420003F4F685070406217730740F009C0E0FFDB
:1034300005C080E090E060E00E94381920E030E0B4
:10344000C90108950F931F93DF93CF930F92CDB7C8
:10345000DEB78C01045E1F4F109342020C511040E6
:10346000802F845E8093430289830E94D017085F77
:103470001F4F109358028981845180935902085F2D
:103480001F4F88E26AE1A80121E00E946417C80189
:103490004A960E9469230F90CF91DF911F910F915F
:1034A0000895DF92EF92FF920F931F93CF93DF93D4
:1034B000EC0180915205882319F0CE010E94FA1E7A
:1034C000209709F0BFC080917D058570F1F1809152
:1034D000340190913501892BC1F50E944A2288233D
:1034E000A1F186E791E00E94831888E080933E0274
:1034F000E6E0FE2EF0923F0280E492E068E375E0A1
:1035000048E050E00E94090402E512E0D8011D9253
:10351000FA94E9F7C8010A9760E375E00E9447173B
:10352000C801069662E475E00E944F17C80104972F
:1035300066E375E00E944F1780917D058860809357
:103540007D058AE290E00E94692380913401909188
:1035500035010196909335018093340180917E0569
:10356000813009F003C280917D0581FFFFC102E037
:1035700000937E05809136018F5F809336018F71B5
:1035800010917F051295110F107E182BE090800589
:10359000D090810588E895E06EE475E00E9494186B
:1035A00078E0F72EF0923E0210923F0280E492E023
:1035B00060E475E049E050E00E9409048CE28093E9
:1035C000430286E0809349020E94D017E09256029F
:1035D000D09257028BE08093540210935502E8E595
:1035E000F2E0DF011D92FA94E9F7809137018093B0
:1035F0005A028D5F8093370180E6809360020093CA
:10360000610283E08093620210926302109264026E
:10361000109265021092660210926702009368028F
:1036200084E08093690200936A0286E280936B02D1
:1036300082E36AE140E250E022E00E9464178AE3FC
:1036400090E0AFC0C932D10508F490C110913E029C
:10365000183009F096C180913F02863009F091C17F
:1036600088E592E066E375E044E050E00E94530490
:10367000009709F086C180914702813029F588E3DF
:1036800092E00E9483181092460282E080934702E3
:1036900082E592E068E472E00E94471788E492E0D5
:1036A00060E375E00E94471788E592E06EE472E0FF
:1036B0000E944F178EE492E066E375E00E944F1778
:1036C0008AE290E00E94692380917D0583FF4EC1CC
:1036D00010914702123009F049C18EE492E062E491
:1036E00075E044E050E00E945304009709F03EC1A9
:1036F00088E895E068E472E00E94471710937D0522
:1037000035C1183009F032C180913F02882309F099
:103710002DC180914002853409F028C180E592E0F6
:1037200066E375E044E050E00E9453040097A9F07E
:1037300080E592E06EE375E044E050E00E945304BF
:10374000009759F080E592E066E771E044E050E0D0
:103750000E945304009709F009C180914902813009
:1037600019F5809154028830F9F4E0918205F091C6
:103770008305309719F08CE492E009950E94F318C4
:103780001092540280915602883F28F0809157028F
:103790008F5F8093570280915602885F8093560214
:1037A000CE010E946923E2C00E94DA16882351F0FC
:1037B00080914902813131F4CE010E94DF168823C5
:1037C00009F0D4C0C633D10528F48091490286306F
:1037D00009F0CCC0809156028B3009F0BEC08CE459
:1037E00092E06EE475E044E050E00E9453040097DC
:1037F00009F0BCC080916102382F82FF13C0E091B4
:103800008405F0918505309759F080915702829593
:103810008695877063E040E050E020E030E0099555
:1038200085E090C09091420280E020914302022FF7
:1038300010E0082B192B80916002482F50E064E0C3
:10384000559547956A95E1F7CA01880F991F880F2A
:10385000991F081B190B0451104017FF02C000E00C
:1038600010E080917E05823079F531FF21C034FF70
:103870001FC080E090E060E00E94381988E18093EA
:103880006102E0918605F0918705309719F420E0F8
:1038900030E007C080915502829586958770099522
:1038A0009C0183E080937E05C9010E941B195EC0C4
:1038B00081E080937E0534FF03C080E090E002C089
:1038C000C801019664E046C0833081F501151105F9
:1038D00079F1E0918405F0918505309749F1440F25
:1038E000551F440F551FCE0108974E5D5F4F84173B
:1038F000950708F4AC01C801840F951FC817D907B4
:1039000010F0980103C09E01241B350B80915702D3
:1039100082958695877060E009958091530588238C
:1039200019F0C80168E016C0C80108C08530F1F080
:1039300030FF0BC08330D1F0C801019669E00E94CE
:10394000381986E080937E0511C00115110571F0CC
:10395000C80160E00E94381909C08091320190913D
:103960003301BE010E9482199C0102C020E030E0B8
:10397000C901DF91CF911F910F91FF90EF90DF90E0
:103980000895CA32D10508F0BCCEF0CFEF92FF9275
:103990000F931F930E943A148C01F8E6EF2EF2E089
:1039A000FF2E80E090E0B801A7010E94DF150E9481
:1039B000C714E00EF11EF70110828BE780933801E7
:1039C000C8011F910F91FF90EF900895CF92DF9261
:1039D000EF92FF920F931F93DF93CF93CDB7DEB794
:1039E00028970FB6F894DEBF0FBECDBF28E632E0B1
:1039F0003E832D8338872F8390919205891709F094
:103A00008FC01C821B8280E891E09A838983409159
:103A1000990550919A0541155105A9F58DB79EB7A5
:103A20000C970FB6F8949EBF0FBE8DBFEDB7FEB7D3
:103A30003196CE010196ADB7BEB712969C938E9388
:103A4000119781EC95E09383828380919305909107
:103A500094059583848380919D0590919E0597831D
:103A600086838091950590919605918780878091B6
:103A7000970590919805938782870E94B5128DB71C
:103A80009EB70C9648C02091970530919805E0901C
:103A90009305F090940500919505109196052115D8
:103AA000310519F06FE071E004C062E171E029E4D2
:103AB00035E0DA010D900020E9F76D010894C108A6
:103AC000D108C41AD50A8DB79EB740970FB6F8949F
:103AD0009EBF0FBE8DBFEDB7FEB73196CE010196EA
:103AE000ADB7BEB712969C938E9311978AE495E07A
:103AF00093838283F582E48217830683318720874C
:103B000073876287D586C486578746870E94B51219
:103B10008DB79EB740960FB6F8949EBF0FBE8DBF6F
:103B20002F8138858D819E81281B390BC9012896EC
:103B30000FB6F894DEBF0FBECDBFCF91DF911F91BE
:103B40000F91FF90EF90DF90CF9008950F931F9308
:103B5000CF93DF93890190919205891759F0E091F5
:103B60009B05F0919C0584E060E070E040E050E04F
:103B700009952AC0662341F52D30310528F1C09101
:103B80009B05D0919C052097F9F0455C5D4F83E142
:103B900091E0BA0143E050E00E947B049C0180E088
:103BA000232B09F081E06091600270E0B4E075952C
:103BB0006795BA95E1F7660F771F660F771F6E5D01
:103BC0007F4FA801FE01099580E0DF91CF911F9101
:103BD0000F910895DF93CF9300D000D000D0CDB7E0
:103BE000DEB7DE011196E4E8F1E086E001900D9287
:103BF0008150E1F786E191E0E2E3F2E0DF019C0130
:103C00001D9221503040E1F780919F05833019F4D7
:103C100066E475E003C0BE016F5F7F4F84E490E00F
:103C200043E450E00E94AC1880919F05833039F046
:103C300082E392E0BE016F5F7F4F0E94471781E0F1
:103C400080935C0280935D0286E080935E028091A7
:103C5000AC059091AD05A091AE05B091AF058093F4
:103C6000600290936102A0936202B093630280911C
:103C70009F05833039F48CE592E00C9666E375E09D
:103C80000E944F1788E792E060E375E00E944717B3
:103C9000A8E4B3E0E4E4F1E002C081918D9331E067
:103CA000EA34F307D1F790919F05992311F083E04F
:103CB00001C081E080934E038DE380934F0387E042
:103CC0008093500381E080935103A2E5B3E0E0E3E9
:103CD000F5E002C081918D9385E0E633F807D1F7D6
:103CE0008CE0809358038AE080935903E9E3F1E084
:103CF000AAE5B3E002C081918D9321E0E334F2079D
:103D0000D1F724E633E03093B4052093B305913026
:103D100069F582E38093640384E080936503D901AD
:103D20001296E6E3F5E002C081918D9335E0EA3327
:103D3000F307D1F786E380936A0384E080936B03F3
:103D40008CE693E09093B4058093B305DC01E6E440
:103D5000F5E002C081918D9385E0EA34F807D1F750
:103D600080E793E09093B4058093B3052091B2056A
:103D7000222311F094E001C093E0A091B305B0912B
:103D8000B405FD0187E3819311969C93DF011196A1
:103D900081E08183FD01319683E011968C93DF01F0
:103DA000119686E08183CD0101969093B4058093AE
:103DB000B305222339F011962C9301969093B40504
:103DC0008093B305E091B305F091B4058FEF819333
:103DD000F093B405E093B305CF018C5592400E9457
:103DE000221A26960FB6F894DEBF0FBECDBFCF9134
:103DF000DF910895EF92FF920F931F93CF93DF937C
:103E00008C0180919F05823009F4F7C0833030F433
:103E1000882351F1813009F064C14AC0833021F018
:103E2000843009F05EC1E9C00E94DC2F2091A40516
:103E30003091A5054091A6055091A705E090A005F9
:103E4000F090A1050091A2051091A3052E0D3F1D34
:103E5000401F511F621773078407950708F441C17B
:103E60000E94EA1D84E017C00E94DC2F6093AC051D
:103E70007093AD058093AE059093AF051092360513
:103E80001092370510923805109239050E94EA1DEC
:103E90000E94412281E080939F050E94DC2F609365
:103EA000A8057093A9058093AA059093AB0519C145
:103EB0000634110508F4D5C080915502833409F009
:103EC000D0C0209160023091610240916202509115
:103ED00063028091AC059091AD05A091AE05B091C3
:103EE000AF05281739074A075B0709F0BAC0CCE4C9
:103EF000D3E0FE01A8014E5C5D4FDF011196918178
:103F00009D012F5F3F4F8081853329F411968C915D
:103F1000823009F4C5C0F901E90FF11DE417F50776
:103F200060F39FC0FE019191E980EF0121969333E8
:103F3000D9F0943340F4933089F0963091F0913079
:103F400009F046C008C09A3379F09F3F09F451C088
:103F50009633F1F537C08AE395E036C082E495E008
:103F600033C08AE495E030C0618170E080E090E089
:103F7000982F872F762F66272981620F711D811D4B
:103F8000911D982F872F762F66272A81620F711D2A
:103F9000811D911D982F872F762F66272B81620F09
:103FA000711D811D911D28EE33E040E050E00E941C
:103FB000F1376093A4057093A5058093A6059093AF
:103FC000A70588C086E495E0BE010E944F1782C015
:103FD000E091B005F091B105309709F47BC0809174
:103FE000B205981709F076C0892FBE014E2D0995AC
:103FF00071C00E94EA1D82E04ECF0634110588F19F
:1040000080915502833469F52091600230916102FC
:1040100040916202509163028091AC059091AD0590
:10402000A091AE05B091AF05281739074A075B0785
:10403000C1F4ECE4F3E0A8014E5C5D4FDF011196A2
:1040400091819D012F5F3F4F8081853321F411962F
:104050008C91853071F1F901E90FF11DE417F50735
:1040600068F30E94DC2F2091A8053091A9054091AA
:10407000AA055091AB05205F384D4F4F5F4F261773
:1040800037074807590748F02CC082E495E00E94A2
:10409000121983E080939F0524C010929F0521C0D0
:1040A00086E395E06CE672E00E944F170E5C1D4FB0
:1040B00039CF0E9438220E94DC2F6093A0057093B4
:1040C000A1058093A2059093A305809142058823C2
:1040D00001F3DBCFCE0DD11DC017D10708F422CFDD
:1040E00088CFDF91CF911F910F91FF90EF900895AE
:1040F000CF93DF9381E08093520590913505892F0E
:1041000082958F70805D809341019F70905D909348
:10411000420110929F050E94DC2FEB0104C00E9417
:10412000C6220E94FA1E80919F05833061F00E9492
:10413000DC2F6C1B7D0B60567A4E28F40E944A22BD
:10414000882389F3ECCF0E94E91790E080919F05C6
:10415000833009F491E0892FDF91CF910895FF9288
:104160000F931F93CF93DF93EC01F62E0E94DC2F69
:104170008B010E944A22882329F00E94E31788239A
:1041800009F4D7C00E94C6220E94511A0E94DC2F57
:10419000601B710B6053754760F3C4C088E098E002
:1041A000A8E0B8E080934A0590934B05A0934C0596
:1041B000B0934D058091B50590E0906E6AE475E08E
:1041C00045E350E00E94AC18ECE5F2E08CE0DF0142
:1041D0001D928A95E9F7DF011C9690E0FF2011F00F
:1041E000888102C0FE01849121968E3241F088239D
:1041F00031F09F5FFD01E90FF11D8083EFCFFD01DD
:104200009193DF01A90FB11D882339F7FD011192A8
:1042100011961C92DF01119641E04183FD01319618
:1042200011961C92418386ED22E332E0821B329686
:104230008E0F80935C029091B50590935D02409340
:104240005E024093610290E00E94221A0E94DC2FDD
:104250008B0161C00E94DC2F601B710B605375479E
:1042600008F060C00E94C622EC01009709F453C018
:104270000E94511A892B09F04EC0C634D10508F4AA
:104280004AC080915502853309F045C0809156029D
:10429000803E09F040C0909157028091B505981773
:1042A000D1F580915D028917B1F580915F0290E0B0
:1042B0008F709070892B79F580915C02E82FF0E087
:1042C000E45AFD4F9E012E5C3D4F8081807C39F089
:1042D000329609C08081882311F4319604C031964A
:1042E000E217F307B8F3CF010E962817390798F0B5
:1042F0008181813051F48185843039F43A968EE49D
:1043000095E0BF010E944F1706C0818590E00A9694
:10431000E80FF91FDACF80914E05882309F49ACF70
:1043200081E001C080E0DF91CF911F910F91FF905C
:10433000089510924E0510924F051092500510925C
:1043400051058091B5058F5F8093B50580914A0531
:10435000882309F02FCF22CF8091B80561E00E9419
:10436000ED2E78940895FF920F931F93082F162F28
:10437000F42EF8948091B80560E00E94ED2E1F7134
:10438000102B1EBD0DB407FEFDCFFEBC0DB407FE05
:10439000FDCF0E94AC211F910F91FF9008951F93B4
:1043A000182F282F30E0207630708091B90590E0EA
:1043B0002817390799F080EA6FE143E00E94B321A2
:1043C000412F40764093B90550E085E055954795DB
:1043D0008A95E1F780E86FE10E94B3211F9108956B
:1043E0000F931F93182F062F0E94CF2180E4612F77
:1043F000402F0E94B3211F910F9108950F931F9397
:10440000182F072F0E94F021812F8F5F602F0E94AD
:10441000F0211F910F9108950F931F93182F062FCE
:10442000F8948091B80560E00E94ED2E802F8F7186
:10443000812B8EBD0DB407FEFDCF1EBC0DB407FE53
:10444000FDCF07FF04C01EBC0DB407FEFDCF1EB597
:104450000E94AC21812F1F910F9108951F93182F57
:104460000E94CF2180E0612F0E940C221F910895AD
:1044700088E30E942E22682F6E7F88E30E94F0213D
:10448000089588E30E942E22682F616088E30E94CD
:10449000F021089584ED61E10E94F02182ED61E058
:1044A0000E94F0218AEE0E942E2280FDFBCF82ED39
:1044B00060E00E94F02189ED0E942E2290E0969506
:1044C000879596958795817008950F931F93CF9345
:1044D000DF93EC018B01F8948091B80560E00E94B5
:1044E000ED2E8AE38EBD0DB407FEFDCF09C01EBCC4
:1044F0000DB407FEFDCF8EB5F80181938F01219792
:104500002097A9F70E94AC21DF91CF911F910F91C5
:104510000895DF93CF930F92CDB7DEB7198290E065
:1045200036E0880F991F3A95E1F7860F911DBC017F
:1045300060507E4E80509E4050F480E00E94FE21EC
:1045400081E090E0BE016F5F7F4F0E94652289810C
:104550000F90CF91DF910895CF93DF93EB0190E01F
:1045600046E0880F991F4A95E1F7BC0160507E4EE6
:10457000815C9D4040F480E00E94FE2180E490E058
:10458000BE010E946522DF91CF9108950F931F9382
:10459000DF93CF9300D000D000D0CDB7DEB789E352
:1045A0000E942E22882319F400E010E048C0609198
:1045B000BA057091BB0580E00E94FE2186E090E084
:1045C000BE016F5F7F4F0E94652289819A8190931F
:1045D000BB058093BA052B813C81E091B605F09133
:1045E000B7058D8187FD03C000E010E00EC02450A8
:1045F00030408F01015010402017310708F4890125
:10460000C80162E372E00E946522F801EE5CFD4F92
:1046100010826091BA057091BB058CE0613078071B
:1046200024F08CE06FEF7BE003C0615070408CE0C1
:104630000E94FE2180E86EE140E40E94B321C8019F
:1046400026960FB6F894DEBF0FBECDBFCF91DF9197
:104650001F910F9108950F931F93CF93DF938C01B8
:10466000EB01F8948091B80560E00E94ED2E8AE796
:104670008EBD0DB407FEFDCF08C088818EBD0DB480
:1046800007FEFDCF21960150104001151105A9F735
:104690000E94AC21DF91CF911F910F910895CF938C
:1046A000DF93EB0190E056E0880F991F5A95E1F7F0
:1046B000BC0160507E4E815C9D4040F482E00E94CF
:1046C000FE2180E490E0BE010E942B23DF91CF9178
:1046D0000895CF93DF93EC010FC08CE10E942E224E
:1046E00081FF0AC080E86FE140E80E94B32180EAC0
:1046F0006FE140E80E94B32180E06FE10E940C224C
:1047000083FDEBCF82E060E07CE00E94FE21BE01F1
:104710006050744F86E00E94FE218AE760E040E02E
:104720000E94B321CE0162E372E00E942B2380E855
:104730006FE148E00E94B321DF91CF9108958AE0B4
:1047400061E00E94AE2E8AE061E00E94ED2E8BE0D7
:1047500061E00E94AE2E8DE061E00E94AE2E8CE002
:1047600060E00E94AE2E8BE061E00E94ED2E8BE0B7
:1047700060E00E94ED2E8DE060E00E94ED2E80E56D
:104780008CBD8DB581608DBD08951F93CF93DF9350
:10479000EB01142F9093B7058093B6050CB406FC7B
:1047A00002C00E949F231093B805812F61E00E94F0
:1047B000AE2E0E94AC218FEF60E04FEF0E94B3213C
:1047C00062E070E080E090E00E94EA2F80E06DE11E
:1047D0000E940C228823D1F31092BB051092BA05D7
:1047E00088E060E070E00E94FE218CE060E070E014
:1047F0000E94FE218AE06FEF7BE00E94FE2184E0B0
:1048000060E07CE00E94FE2186E06FEF71E10E9493
:10481000FE210E94412288E26FE370E30E94FE21A4
:1048200080E369EF77EF0E94FE2180EC6DE00E944B
:10483000F02181EC60E00E94F02180E862EC42E32C
:104840000E94B32186EC62E17CE00E94FE2184ECB0
:1048500062E10E94F0218AEC6CED75E00E94FE217D
:1048600084EE68810E94F02185EE69810E94F0212A
:1048700082EE6A810E94F02183EE6B810E94F0211A
:1048800080EE6C810E94F02181EE6D810E94F0210A
:1048900084ED60E10E94F02186ED60E071E00E940D
:1048A000FE218AEE0E942E2280FDFBCF8FE10E9426
:1048B000CF2180E86BE140EC0E94B32180E86FE1FA
:1048C00044E00E94B32182E70E942E22863008F045
:1048D0008F5FDF91CF911F910895EDEEF7E020E01B
:1048E00030E003C031962F5F3F4F8081853C29F433
:1048F00088E0EF3FF807B1F3A8F3C9010895FC0180
:1049000017821682108213821186108611821482F9
:104910001386128612821582178A1786108A118AC8
:10492000128A08951F93CF93DF93FC016487458714
:104930002687EC0110E08C8561E00E94AE2E8C850C
:1049400060E070E00E9418311F5F2196133099F7E4
:10495000DF91CF911F9108954F925F926F927F9256
:104960008F929F92AF92BF92CF92DF92EF92FF927F
:104970000F931F93CF93DF93582E492E5B01FB01BA
:1049800024813581828193812817390708F4C90170
:10499000F50120813181BC012817390708F4B901DC
:1049A000852D942D9C016901C0E0D0E03B01882455
:1049B0009924C401B3010E9400377B018C01F501E9
:1049C000EC0FFD1F6081718180E090E00E94003754
:1049D0009B01AC01C801B7010E946C3620E030E0B9
:1049E00040E853E40E948E3720E030E040E05FE38F
:1049F0000E9408360E94D436F601748F638F229687
:104A000082E090E0C80ED91EC630D10591F6852D02
:104A1000942D65E043E026E00E949224DF91CF913F
:104A20001F910F91FF90EF90DF90CF90BF90AF90CC
:104A30009F908F907F906F905F904F900895DF933D
:104A4000CF9300D000D000D0CDB7DEB7DE011196F5
:104A5000E0E9F1E026E001900D922150E1F7BE017E
:104A60006F5F7F4F0E94AC2426960FB6F894DEBF8E
:104A70000FBECDBFCF91DF910895EF92FF920F93BC
:104A80001F937C018B01FB016081FC01848570E038
:104A90000E941831F8016181F701858570E00E945C
:104AA0001831F8016281F701868570E00E941831A3
:104AB0001F910F91FF90EF9008952F923F924F9288
:104AC0005F926F927F928F929F92AF92BF92CF929E
:104AD000DF92EF92FF920F931F93DF93CF9300D05B
:104AE0000F92CDB7DEB7382E292E2B019C0139014C
:104AF0008824992400D000D0F201E80DF91D6081CE
:104B000070E080E090E0F301238D348D40E050E0D0
:104B1000EDB7FEB7218332834383548320E030E036
:104B200040E050E0EFEFEE2EF12C012D112DAA24E4
:104B3000BB2465010E94AF35E1E0F0E0EC0FFD1F02
:104B4000E80DF91DCB010F900F900F900F906F3F64
:104B5000710519F010F08FEF90E080830894811CAC
:104B6000911C82E090E0680E791E93E08916910412
:104B700009F6832D922DBE016F5F7F4F0E943D2568
:104B80000F900F900F90CF91DF911F910F91FF9099
:104B9000EF90DF90CF90BF90AF909F908F907F90DD
:104BA0006F905F904F903F902F9008952F923F927B
:104BB0004F925F926F927F929F92AF92BF92CF92ED
:104BC000DF92EF92FF920F931F93DF93CF93CDB7B6
:104BD000DEB72C970FB6F894DEBF0FBECDBF3C01F9
:104BE000DE011196EAE8F1E083E001900D92815038
:104BF000E1F70E94DC2FF301278530894189528932
:104C0000621B730B840B950B0E94003720E030E091
:104C100048EC52E40E948E377B018C01F3016389DA
:104C20007489858996890E9402379B01AC01C8016D
:104C3000B7010E946C360E94D436CB0165367105EF
:104C400010F084E690E078866F82130144245524A6
:104C50009C0140E050E029873A874B875C87F3014D
:104C6000E40DF51D908000D000D0F1018681978180
:104C7000AA2797FDA095BA2FEDB7FEB7818392833F
:104C8000A383B48369857A858B859C8520E030E099
:104C900040E050E0B4E6EB2EF12C012D112DAA24BA
:104CA000BB2465010E94AF35E4E0F0E0EC0FFD1F8E
:104CB000E40DF51D960E90820894411C511C22E0D3
:104CC00030E0220E331E0F900F900F900F9033E0C4
:104CD0004316510421F6C301BE016C5F7F4F0E9451
:104CE0005D2520E0F30193818C81981321E081E020
:104CF0002827F30194818D81981320E0F301958199
:104D00008E81981320E0F3018789882309F45EC01F
:104D1000222309F45BC0228D222351F48E010C5F03
:104D20001F4F7301A7E0CA2ED12CCC0EDD1E25C06B
:104D3000F301808D918D0196918F808F9695879547
:104D400030E08217930751F7C301BE016F5F7F4FB9
:104D50000E945D25F301178216821082138211864C
:104D60001086118214821386128612821582178A87
:104D70001786108A118A128A29C0EF81F8858081EE
:104D8000F8018083EF81F88523812083F8018191E8
:104D90008F01EF81F885838390E0821B9109F701F1
:104DA000978386830E94DC2FF3016787708B818B4A
:104DB000928B2F8138852F5F3F4F38872F8342E0BA
:104DC00050E0E40EF51E0C151D05B9F62C960FB635
:104DD000F894DEBF0FBECDBFCF91DF911F910F9131
:104DE000FF90EF90DF90CF90BF90AF909F907F901B
:104DF0006F905F904F903F902F900895AF92BF9229
:104E0000CF92DF92EF92FF920F931F93DF93CF9396
:104E100000D00F92CDB7DEB78C015B0169017A013A
:104E2000DE011196EDE8F1E083E001900D928150F2
:104E3000E1F7C801BE016F5F7F4F0E945D25A801A9
:104E4000D80120E030E0FA011082F501E20FF31FF3
:104E50008081FA01838316968C93169717961C927D
:104E600017972F5F3F4F4F5F5F4F129623303105EB
:104E700051F781E0F801878B128E0E94DC2FF80138
:104E80006787708B818B928BC701B60122E030E07F
:104E900040E050E00E944638F801238B348B458B6C
:104EA000568B0F900F900F90CF91DF911F910F9124
:104EB000FF90EF90DF90CF90BF90AF900895EF926A
:104EC000FF920F937C010E94FE26F701028F118E44
:104ED000108E0F91FF90EF9008952F923F924F9276
:104EE0005F926F927F928F929F92AF92BF92CF927A
:104EF000DF92EF92FF920F931F93DF93CF93CDB783
:104F0000DEB7A2970FB6F894DEBF0FBECDBF8B5BA6
:104F10009F4FDC012D913D914D915D9129833A8305
:104F20004B835C832D913D914D915D912D833E830B
:104F30004F8358872D913D914D915D9129873A87F7
:104F40004B875C876D907D908D909D902D913D91CC
:104F50004D915D912D873E874F87588B2D913D91C7
:104F60004D915D91298B3A8B4B8B5C8B2D913D91B3
:104F70004D915D91BAA3A9A32D8B3E8B4F8B588F7A
:104F80008D919D910D90BC91A02DE9A1FAA1E156C2
:104F9000F040FAA3E9A321E036E03C8F2B8F41E0FB
:104FA00050E05A8F498F0EC1598D503108F4CBC053
:104FB000698D7A8D6F707070E98DFA8D3297EF7010
:104FC000F0703196EE0FFF1FEE0FFF1F89A19AA11F
:104FD000E80FF91FA080B180C280D380E98DFA8DDF
:104FE0003F97EF70F0703196EE0FFF1FEE0FFF1F2F
:104FF000E80FF91F6080718082809380E98DFA8DBF
:105000003797EF70F0703196EE0FFF1FEE0FFF1F16
:10501000E80FF91F6F5F7F4F660F771F660F771FCF
:10502000680F791FE080F18002811381FB0180818C
:105030009181A281B381E80EF91E0A1F1B1FD601C0
:10504000C50121E1B695A795979587952A95D1F742
:10505000A6019501FFE0220F331F441F551FFA954B
:10506000D1F7822B932BA42BB52BA6019501EAE057
:105070005695479537952795EA95D1F78227932737
:10508000A427B527A6019501FDE0220F331F441F79
:10509000551FFA95D1F7E3E1D694C794B794A79436
:1050A000EA95D1F72A293B294C295D2982279327A4
:1050B000A427B527E80EF91E0A1F1B1FD401C30140
:1050C00027E0B695A795979587952A95D1F7A401DE
:1050D0009301F9E1220F331F441F551FFA95D1F7B1
:1050E000822B932BA42BB52BA4019301E3E05695BF
:1050F000479537952795EA95D1F782279327A427D7
:10510000B527A4019301FEE0220F331F441F551F52
:10511000FA95D1F7E2E19694879477946794EA95AB
:10512000D1F7262937294829592982279327A427E7
:10513000B527E80EF91E0A1F1B1FDB01ED92FD9239
:105140000D931C931397EB8DFC8D3496FC8FEB8F96
:10515000298D3A8D2F5F3F4F3A8F298F8D899E89F8
:10516000AF89B88D29893A894B895C892D8B3E8B13
:105170004F8B588F2D853E854F855889298B3A8BCB
:105180004B8B5C8B69847A848B849C842D813E81DB
:105190004F81588529873A874B875C8729813A81D7
:1051A0004B815C812D833E834F83588729823A82CD
:1051B0004B825C822D8D3E8D4F8D58A12D873E8771
:1051C0004F87588B2B8D3C8DF901A590B590C590DC
:1051D000D490A80EB91ECA1EDB1E2D853E854F85B4
:1051E00058890BE056954795379527950A95D1F73D
:1051F0008D859E85AF85B88915E1880F991FAA1FF7
:10520000BB1F1A95D1F7282B392B4A2B5B2B8D8589
:105210009E85AF85B889F6E0B695A7959795879551
:10522000FA95D1F7ED84FE840F851889EAE1EE0C3A
:10523000FF1C001F111FEA95D1F78E299F29A02B73
:10524000B12B282739274A275B278D859E85AF8577
:10525000B88979E1B695A795979587957A95D1F70D
:10526000ED84FE840F85188967E0EE0CFF1C001F9B
:10527000111F6A95D1F78E299F29A02BB12B2827C2
:1052800039274A275B27A20EB31EC41ED51E898963
:105290009A89AB89BC892D893E894F89588D82278F
:1052A0009327A427B5272D853E854F8558898223CE
:1052B0009323A423B5232D893E894F89588D8227B6
:1052C0009327A427B527A80EB91ECA1EDB1EE98D99
:1052D000FA8D3197EF70F0703196EE0FFF1FEE0FE1
:1052E000FF1F49A15AA1E40FF51F80819181A2817E
:1052F000B381A80EB91ECA1EDB1EE980FA800B819D
:105300001C813DE016950795F794E7943A95D1F7FF
:1053100089819A81AB81BC8123E1880F991FAA1FE3
:10532000BB1F2A95D1F7E82AF92A0A2B1B2B898162
:105330009A81AB81BC81F2E0B695A7959795879548
:10534000FA95D1F729813A814B815C81EEE1220FF8
:10535000331F441F551FEA95D1F7822B932BA42BA3
:10536000B52BE826F9260A271B2789819A81AB816C
:10537000BC8176E1B695A795979587957A95D1F7F3
:1053800029813A814B815C816AE0220F331F441FDF
:10539000551F6A95D1F7822B932BA42BB52BE826AA
:1053A000F9260A271B27D601C501860D971DA81DC2
:1053B000B91D8D8F9E8FAF8FB8A32D803E804F80FB
:1053C000588429853A854B855C85222A332A442ACC
:1053D000552A89819A81AB81BC81282239224A22AF
:1053E0005B228D819E81AF81B88582239323A42384
:1053F000B523282A392A4A2A5B2A2E0C3F1C401E34
:10540000511E2A0C3B1C4C1C5D1CAB8DBC8DAD5F32
:10541000B64009F0C9CDE9A1FAA1EB5BFF4F80814D
:105420009181A281B381280E391E4A1E5B1E208203
:1054300031824282538269A17AA1675B7F4FFB016F
:1054400080819181A281B38129813A814B815C81E4
:10545000820F931FA41FB51F80839183A283B38300
:1054600069A17AA1635B7F4FFB0180819181A28159
:10547000B3812D813E814F815885820F931FA41FD8
:10548000B51F80839183A283B38369A17AA16F5AE8
:105490007F4FFB0180819181A281B38129853A856B
:1054A0004B855C85820F931FA41FB51F808391835A
:1054B000A283B383E9A1FAA1EB5AFF4F6080718008
:1054C000828093802D8D3E8D4F8D58A1260D371DE6
:1054D000481D591D208331834283538369A17AA1DA
:1054E000675A7F4FFB0180819181A281B3812D8515
:1054F0003E854F855889820F931FA41FB51F808357
:105500009183A283B38369A17AA1635A7F4FFB0180
:1055100080819181A281B38129893A894B895C89F3
:10552000820F931FA41FB51F80839183A283B3832F
:1055300069A17AA16F597F4FFB0180819181A2817E
:10554000B3812D893E894F89588D820F931FA41FE7
:10555000B51F80839183A283B383A2960FB6F8947C
:10556000DEBF0FBECDBFCF91DF911F910F91FF9096
:10557000EF90DF90CF90BF90AF909F908F907F90F3
:105580006F905F904F903F902F900895CF93DF934F
:105590009C01EC01CC5BDF4F988183E08927F90106
:1055A000E80FF11D64839F5F9883903421F4C90153
:1055B0000E946D271882DF91CF910895FC01EB596D
:1055C000FF4F20813181428153812F5F3F4F4F4FE9
:1055D0005F4F20833183428353830E94C62A81E038
:1055E00090E008951092BF051092BE058AE991E0FF
:1055F0009093BD058093BC0508952F923F924F92E2
:105600005F926F927F928F929F92AF92BF92CF9252
:10561000DF92EF92FF920F931F93DF93CF93CDB75B
:10562000DEB762970FB6F894DEBF0FBECDBF8B5BBF
:105630009F4FDC012D913D914D915D912D833E83D6
:105640004F8358872D903D904D905D906D907D904B
:105650008D909D902D913D914D915D9129833A833F
:105660004B835C832D913D914D915C9113972B87DA
:105670003C874D875E87A555B040B88BAF871A86AB
:1056800019861985103108F469C069857A856F70AB
:1056900070706F5F7F4F660F771F660F771FEF8504
:1056A000F8896E0F7F1FA985BA851D96AF70B070FF
:1056B0001196AA0FBB1FAA0FBB1FAE0FBF1F898574
:1056C0009A8508968F7090700196880F991F880FA1
:1056D000991F8E0F9F1F2D913D914D915C91FC0163
:1056E00080819181A281B381282739274A275B27AE
:1056F000FB0180819181A281B381282739274A2724
:105700005B27E985FA853296EF70F0703196EE0FDF
:10571000FF1FEE0FFF1F8F859889E80FF91F80810B
:105720009181A281B381282739274A275B27DA0193
:10573000C901880F991FAA1FBB1F222757FD239558
:10574000332744275527822B932BA42BB52BFB0102
:1057500080839183A283B3831431C8F429813A8171
:105760004B815C8126253725482559252221332167
:105770004421552189819A81AB81BC812827392711
:105780004A275B27275636484D47554A46C01832A8
:1057900098F4A401930122253325442555258981B8
:1057A0009A81AB81BC81282739274A275B272F554F
:1057B00034414642514931C01C33E8F4A4019301FD
:1057C000222933294429552989819A81AB81BC81B9
:1057D000282339234A235B23D401C3018221932147
:1057E000A421B521282B392B4A2B5B2B245233447F
:1057F000444E504712C0A40193012225332544256D
:10580000552589819A81AB81BC81282739274A2770
:105810005B272A523E434D495543ED80FE800F8160
:105820001885EBE116950795F794E794EA95D1F77B
:105830008D819E81AF81B88575E0880F991FAA1F61
:10584000BB1F7A95D1F7E82AF92A0A2B1B2B8B85E7
:105850009C85AD85BE85E80EF91E0A1F1B1FE985D4
:10586000FA85EF70F0703196EE0FFF1FEE0FFF1FFD
:10587000AF85B889EA0FFB1F80819181A281B38136
:10588000E80EF91E0A1F1B1FE20EF31E041F151F50
:10589000620151019EE1AA0CBB1CCC1CDD1C9A9537
:1058A000D1F782E056944794379427948A95D1F79C
:1058B000A228B328C428D528E985FA853196FA8725
:1058C000E98729813A814B815C812B873C874D8711
:1058D0005E87B301898A9A8A2D803E804F805884E2
:1058E000E035F10589F0C701D8018D839E83AF8330
:1058F000B8873501460149895A89CB01DA01898384
:105900009A83AB83BC83BDCEEF85F889EB5BFF4FF9
:1059100080819181A281B381E80EF91E0A1F1B1FAD
:10592000E082F182028313836F857889675B7F4F02
:10593000FB0180819181A281B3812D813E814F81C4
:105940005885820F931FA41FB51F80839183A28364
:10595000B383EF85F889E35BFF4F80819181A2815A
:10596000B381A80EB91ECA1EDB1EA082B182C282FC
:10597000D382EF85F889EF5AFF4F80819181A28110
:10598000B381860D971DA81DB91D80839183A283C5
:10599000B3836F8578896B5A7F4FFB01808191813A
:1059A000A281B38129813A814B815C81820F931F4F
:1059B000A41FB51F80839183A283B38362960FB621
:1059C000F894DEBF0FBECDBFCF91DF911F910F9135
:1059D000FF90EF90DF90CF90BF90AF909F908F900F
:1059E0007F906F905F904F903F902F900895CF934E
:1059F000DF939C01EC01CC5BDF4F988183E089272A
:105A0000F901E80FF11D64839F5F9883903421F4BE
:105A1000C9010E94FD2A1882DF91CF910895FC01EF
:105A2000E75AFF4F20813181428153812F5F3F4FE1
:105A30004F4F5F4F20833183428353830E94F72C63
:105A400081E090E008950F931F93CF93DF93EC01D3
:105A500060E80E94F72C8E010C5B1F4F04C0CE0142
:105A600060E00E94F72CF80180818833C1F7CE01F5
:105A700060E00E94F72CCE0160E00E94F72CCE017E
:105A800060E00E94F72C8E01075A1F4FF801208119
:105A9000318142815381FDE1569547953795279590
:105AA000FA95D1F7CE01622F0E94F72CF8012081E0
:105AB000318142815381E5E1569547953795279588
:105AC000EA95D1F7CE01622F0E94F72CF8012081D0
:105AD0003181428153817DE05695479537952795D1
