:100000000C94BE030C947F2D0C94AC2D0C94F9032E
:100010000C94F9030C94F9030C94F9030C94F90370
:100020000C94F9030C94F9030C94F9030C94F90360
:100030000C94F9030C94F9030C94F9030C94F90350
:100040000C94D92D0C94F9030C9414300C94623058
:100050000C94F9030C94F9030C94F9030C94F90330
:100060000C94F9030C94F9036170692E636F736D3E
:100070002E636F6D003E3E3E20524553504F4E530F
:1000800045205245434549564544202D2D2D0025F8
:1000900030325800446174612073656E740053659A
:1000A0006E64696E67206461746120746F20436FB1
:1000B000736D0050555420687474703A2F2F244685
:1000C0002F76322F66656564732F24452E6A736F11
:1000D0006E20485454502F312E300D0A486F7374DF
:1000E0003A2024460D0A582D4170694B65793A2013
:1000F00024450D0A436F6E74656E742D4C656E67F2
:1001000074683A2024440D0A0D0A24480050726590
:10011000706172696E6720737461736800227D7DFF
:100120005D7D00222C2273796D626F6C223A220071
:10013000225D2C22756E6974223A7B226C616265A5
:100140006C223A2200222C226171653A6669726D36
:10015000776172655F76657273696F6E3D00636F7C
:100160006D70757465640072617700222C22617174
:10017000653A646174615F6F726967696E3D002200
:100180002C226171653A73656E736F725F696E647C
:1001900065783D00222C226171653A73656E736F3C
:1001A000725F616464726573733D005F72617700B2
:1001B000222C2274616773223A5B226171653A7363
:1001C000656E736F725F747970653D00222C2263D7
:1001D000757272656E745F76616C7565223A220085
:1001E0007B226461746173747265616D73223A5B22
:1001F0007B226964223A20220057726F7465204680
:1002000045454420494420746F20454550524F4D88
:100210003A200057726F746520415049204B455970
:1002200020746F20454550524F4D3A20003E3E41CC
:1002300043544956415445443C3C002F76322F6488
:100240006576696365732F003C3C3C205245512024
:10025000002074696D65732C20726573746172740B
:10026000696E670050726F766973696F6E696E6749
:10027000206661696C656420002E2E2E004645457F
:1002800044204C454E475448203D200041504920D1
:100290004B4559204C454E475448203D20003E3E9A
:1002A0003E464F554E4420464545445F49440A006A
:1002B000666565645F6964003E3E3E464F554E4448
:1002C000204150494B45590A006170696B657900BE
:1002D000546F6B656E3A20003E3E3E2050524F56A2
:1002E0004953494F4E494E472043414C4C424143AC
:1002F0004B00556E696E697469616C697A6564203A
:100300002D20746573742076616C7565203D200026
:1003100050726576696F75736C792070726F76694B
:1003200073696F6E6564002F6163746976617465CB
:1003300000636F6D70757465207368613A200053B7
:10034000657269616C20233A20005352563A2000AE
:10035000444E53206661696C656400444E533A20F4
:100360000047573A200049503A2000444843502063
:100370006661696C656420726573657474696E6723
:10038000004661696C656420746F20616363657306
:10039000732045746865726E657420636F6E747245
:1003A0006F6C6C6572004567672053657269616C9C
:1003B00020233A20200050616972696E67204576DB
:1003C000656E7420436F756E743A200020002052D1
:1003D00065636569766564205061636B657420446C
:1003E0007572696E672050616972696E67005F009F
:1003F0003000202053656E736F722056616C7565F6
:100400003A2000202053656E736F7220556E697418
:10041000733A2000202053656E736F7220547970F8
:10042000653A2000202053656E736F7220496E6418
:1004300065783A20002020536F75726365205365FC
:100440006E736F7220416464726573733A2000208A
:100450002052656D6F74652053746174696F6E20EE
:10046000416464726573733A2000202052656D6F99
:100470007465204669726D77617265205665727386
:10048000696F6E3A200020205061636B65742054C0
:100490007970653A20005061636B65742052656322
:1004A000656976656420402000546F6F204C6F6E44
:1004B000672053696E6365204C61737420526573C5
:1004C000706F6E73652046726F6D20436F736D2C75
:1004D00020526573657474696E6700506169726952
:1004E0006E6720636F6D706C65746500556E69741E
:1004F00020416464726573733A20000A5B4169723B
:10050000205175616C69747920456767202D204200
:1005100061736520456767202D2076312E30335D6D
:1005200000000108000604000145000082000040B0
:100530000020504F535420244620485454502F310B
:100540002E300D0A486F73743A2024460D0A244653
:1005500024534163636570743A202A2F2A0D0A439D
:100560006F6E74656E742D4C656E6774683A2024E6
:10057000440D0A436F6E74656E742D547970653A3C
:10058000206170706C69636174696F6E2F782D776C
:1005900077772D666F726D2D75726C656E636F6403
:1005A00065640D0A0D0A245300474554202446244F
:1005B0005320485454502F312E300D0A486F737415
:1005C0003A2024460D0A4163636570743A207465CD
:1005D00078742F68746D6C0D0A0D0A00E30004FA3C
:1005E0000001000000010123456789ABCDEFFEDC6F
:1005F000BA9876543210F0E1D2C3982F8A429144CF
:100600003771CFFBC0B5A5DBB5E95BC25639F11137
:10061000F159A4823F92D55E1CAB98AA07D8015B22
:100620008312BE853124C37D0C55745DBE72FEB14C
:10063000DE80A706DC9B74F19BC1C1699BE4864701
:10064000BEEFC69DC10FCCA10C246F2CE92DAA844E
:10065000744ADCA9B05CDA88F97652513E986DC6CE
:1006600031A8C82703B0C77F59BFF30BE0C6479135
:10067000A7D55163CA0667292914850AB7273821E7
:100680001B2EFC6D2C4D130D385354730A65BB0A99
:100690006A762EC9C281852C7292A1E8BFA24B66F0
:1006A0001AA8708B4BC2A3516CC719E892D12406CB
:1006B00099D685350EF470A06A1016C1A419086C7D
:1006C000371E4C774827B5BCB034B30C1C394AAA46
:1006D000D84E4FCA9C5BF36F2E68EE828F746F63A7
:1006E000A5781478C8840802C78CFAFFBE90EB6C1A
:1006F00050A4F7A3F9BEF27871C667E6096A85AE21
:1007000067BB72F36E3C3AF54FA57F520E518C6871
:10071000059BABD9831F19CDE05B000000002400CE
:1007200027002A0000000000250028002B00000000
:100730000000230026002900040404040404040427
:10074000020202020202030303030303010204087C
:10075000102040800102040810200102040810202B
:100760000000000700020100000304060000000072
:1007700000000000A605E6283E2DCE31E3ECF7E0B0
:1007800085EC98E001C08193EF3FF907E0F3D9F3DE
:1007900011241FBECFEFD8E0DEBFCDBF14BE88E16D
:1007A0000FB6F89480936000109260000FBE11E0C5
:1007B000A0E0B1E0E6E7FEE602C005900D92AC3B9A
:1007C000B107D9F717E0ACEBB1E001C01D92A33C33
:1007D000B107E1F717E0CCE7D7E004C02297FE01AC
:1007E0000E94FE36C437D107C9F70E9424320C9408
:1007F00039370C940000FB01DC0102C005900D921A
:1008000041505040D8F70895FB01DC010D900020C5
:10081000E9F7119705900D920020E1F70895FC018A
:1008200005900020E9F7809590958E0F9F1F089501
:10083000FB01DC014150504030F08D910590801952
:1008400019F40020B9F7881B990B0895FB01559105
:100850005523A9F0BF01DC014D9145174111E1F786
:1008600059F4CD010590002049F04D9140154111FA
:10087000C9F3FB014111EFCF81E090E001970895AA
:100880004CEB51E00E948A040895FB01DC0104C096
:100890008D910190801921F441505040C8F7881B78
:1008A000990B0895FB01DC0102C001900D924150AB
:1008B0005040D8F70895FB01DC010D900020E9F7C6
:1008C000119701900D920020E1F70895FB01DC01E2
:1008D00001900D920020E1F70895FB01DC014150E9
:1008E000504030F08D910190801919F40020B9F733
:1008F000881B990B0895FB01DC014150504048F0E2
:1009000001900D920020C9F701C01D924150504046
:10091000E0F70895009731F4DA018D919C910097EA
:1009200009F40EC0DC01FB013D912191222319F055
:100930003217C9F3FACF332331F4DA011D921C9236
:100940008827992708951197AF93BF93FB013D9195
:100950002191321771F4332321F4882799271197B5
:1009600002C01E921196FA01A193B0839F918F91BC
:100970000895222369F7EACFA0E0B0E0E2ECF4E0CA
:100980000C940C37EC017B018A01690109C0CE018E
:100990002196F70161917F01F60109950150104000
:1009A00001151105A1F7CDB7DEB7E8E00C942837A3
:1009B000FB019F01E8944230C4F04532B4F44A3060
:1009C00029F497FB1EF4909581959F4F642F77270C
:1009D0000E94AB36805D8A330CF0895D8193CB0138
:1009E0000097A1F716F45DE251931082C9010C94AF
:1009F0002D05FA01CF93FF93EF93223044F1253276
:100A000034F5C22FE894CA3049F497FB3EF4909530
:100A10008095709561957F4F8F4F9F4F2C2F332777
:100A200044275527FF93EF930E94BF36EF91FF9124
:100A3000605D6A330CF0695D6193B901CA01605071
:100A400070408040904051F716F4CDE2C19310827F
:100A50008F919F91CF910C942D05DC01FC01672FA4
:100A600071917723E1F7329704C07C916D93708385
:100A70006291AE17BF07C8F308959C01F999FECFA4
:100A80001FBA32BD21BD60BD0FB6F894FA9AF99A2B
:100A90000FBE08950F931F93CF93DF938B01BC017B
:100AA000E80120E030E0A42FB0E01BC0FB01808112
:100AB000E82FF0E094E0F595E7959A95E1F7E85A8C
:100AC000FE4F80818883FB018191BF01E82FF0E018
:100AD000EF70F070E85AFE4F808189832F5F3F4F9F
:100AE00022962A173B0714F3AA0FBB1FA00FB11FB2
:100AF0001C92DF91CF911F910F910895DF92EF9299
:100B0000FF920F931F93CF93DF937C01D42E8B0121
:100B1000C0E0D0E0C7018C0F9D1FB80141E00E94EA
:100B20004A05C53019F4F801128202C0F801D282D8
:100B300021960D5F1F4FC630D10561F7DF91CF9130
:100B40001F910F91FF90EF90DF9008950F931F93E7
:100B50000AE314E08EEB91E0B8010E948C118FEB58
:100B600091E00E94BA2381EE91E0B8010E94210E2B
:100B7000109234041092330484E591E0909332048F
:100B80008093310410923804109236041F910F9113
:100B900008950E943F1A81E090E008950E94212E5E
:100BA00060932D0470932E0480932F04909330044F
:100BB00008950E94212EE0E020912D0430912E0412
:100BC00040912F0450913004621B730B840B950BE2
:100BD000615C77428940904008F0E1E08E2F0895F3
:100BE000809140040E949C1D892B41F081EA97E08E
:100BF00065E770E00E94A8320E94CE0508958F92AA
:100C00009F92AF92BF92CF92DF92EF92FF920F939B
:100C10001F93DF93CF93CDB7DEB7CA54D0400FB642
:100C2000F894DEBF0FBECDBF81E394E00E94901C1C
:100C3000882E60E4962E5BE0A52EB12CAC0EBD1E76
:100C4000D501E92D1D92EA95E9F743E0C42ED12C98
:100C5000CC0EDD1E88E0D6011D928A95E9F78091C1
:100C60000001909101019A83898381EE91E00E94B5
:100C7000310DDC010D900020E9F78D01015010408D
:100C8000081B190B81EE91E00E94310DBC01C501DA
:100C90000E945B04C5017E010894E11CF11CB701B0
:100CA0000E945B0481EE91E00E94290D0F5F1F4FAF
:100CB0000A0D1B1DB8014DE20E947E05C501B7015A
:100CC0000E945B0481EE91E00E942E0D90E0B6013F
:100CD0004AE050E00E94D804C501B6010E945B04BE
:100CE00081E394E060EE71E00E945D3281E394E084
:100CF000B5010E94433481E394E06CEC71E00E9402
:100D00005D3281EE91E00E943B0DAB01BC0181E3BD
:100D100094E02AE030E00E94BD3381E394E060EB90
:100D200071E00E945D3281EE91E00E94310D6BEA2C
:100D300071E00E942604892B09F1F50111929A9421
:100D4000E9F781EE91E00E94310D8C0181EE91E096
:100D50000E94310DDC010D900020E9F7A81BB90BB2
:100D60001597C501B801AD010E947B0481E394E0B1
:100D7000B5010E944334EE24E3940AC081EE91E071
:100D80000E94310DBC0181E394E00E944334EE24C3
:100D900081E394E064E971E00E945D328E01055FB9
:100DA0001F4F80E4D8011D928A95E9F781EE91E00A
:100DB0000E94290DB8014AE30E947E0581E394E078
:100DC000B8010E94433481E394E06FE771E00E9430
:100DD0005D3281EE91E00E942E0D682F81E394E058
:100DE0004AE050E00E948D3381E394E06BE671E0CD
:100DF0000E945D32EE2029F081E394E067E671E025
:100E000004C081E394E06EE571E00E945D3281E30D
:100E100094E065E471E00E945D3281EE91E00E9411
:100E20001B0DBC0181E394E04AE050E00E945F3377
:100E300081E394E060E371E00E945D3281EE91E035
:100E40000E94360DBC0181E394E00E94433481E3AB
:100E500094E063E271E00E945D3281EE91E00E94D5
:100E6000360DBC0181E394E00E94433481E394E0B9
:100E70006DE171E00E945D3281E394E00E94691AA5
:100E800081EA97E06DE071E00E94A83281E394E08E
:100E90000E94B019EDB7FEB73E970FB6F894FEBFAB
:100EA0000FBEEDBF319623EB30E0ADB7BEB7129663
:100EB0003C932E93119748E650E05383428322E3FC
:100EC00030E0358324835783468321E030E0318747
:100ED000208793878287848615860E94F21AEDB751
:100EE000FEB73E960FB6F894FEBF0FBEEDBF81EA87
:100EF00097E06EE970E00E94A8320E947C1D80930A
:100F0000400481EA97E064E970E00E94A832C65B81
:100F1000DF4F0FB6F894DEBF0FBECDBFCF91DF918C
:100F20001F910F91FF90EF90DF90CF90BF90AF9007
:100F30009F908F900895EF92FF920F931F937C01E3
:100F400082E390E0B7014AE050E02DE335E00E94F3
:100F5000BC0401EA17E0C80169EF71E00E945D324C
:100F6000C801B7010E9446341F910F91FF90EF9086
:100F70000895EF92FF920F931F937C0181E090E020
:100F8000B70141E350E02DE335E00E94BC0401EAE3
:100F900017E0C80163E172E00E945D32C801B70149
:100FA0000E9446341F910F91FF90EF900895AF92E9
:100FB000BF92CF92DF92EF92FF920F931F93CF9346
:100FC000DF935C0179018A0116950795F794E79400
:100FD000C0E0D0E0C62EDD2414C08FEB91E064E3C6
:100FE00072E00E94F823C801B7010E942F2E8FEBF8
:100FF00091E0B5010E94F823C801B7010E942F2E8D
:101000002196CC15DD0548F38FEB91E064E372E0A7
:101010000E94F823DF91CF911F910F91FF90EF90E5
:10102000DF90CF90BF90AF9008951F93CF93DF9341
:10103000EC0110E088818A3030F481EA97E060EFBB
:1010400073E00E945D3281EA97E0688140E150E000
:101050000E948D33153031F081EA97E06EEE73E037
:101060000E945D321F5F2196163021F781EA97E0DA
:101070000E948832DF91CF911F910895CF92DF9225
:10108000EF92FF920F931F93CF93DF93182F7B0163
:101090006A0181EA97E068ED72E00E94A83281EA75
:1010A00097E0612F70E04AE050E00E94243481EA2A
:1010B00097E0B7014AE050E00E94243481EA97E0CB
:1010C000B6014AE050E00E942434C701885C9D4F7D
:1010D00062E071E00E944004EC0110E000E0EE24C8
:1010E000CC2495C081EA97E060ED72E00E945D3209
:1010F00081EA97E0BE010E944634002351F0CE0100
:101100000E94B907FE0101900020E9F73197EE2E09
:10111000EC1A112351F0CE010E949B07FE010190B1
:101120000020E9F73197CE2ECC1ACE0169EC72E09F
:1011300046E050E00E941804892B11F000E007C03F
:1011400081EA97E068EB72E00E945D3201E0CE0137
:1011500060EB72E046E050E00E941804892B11F029
:1011600010E007C081EA97E06EE972E00E945D320C
:1011700011E0CC2009F444C0EE2009F441C081E024
:1011800080932C0481EA97E06CE872E00E945D3263
:1011900081EA97E06E2D4AE050E00E949F3381EA99
:1011A00097E06DE772E00E945D3281EA97E06C2D76
:1011B0004AE050E00E949F33F999FECF1FBA12BC5B
:1011C00011BC83E780BD0FB6F894FA9AF99A0FBE66
:1011D0008FEB91E06AE171E00E94F82360E177E231
:1011E00080E090E00E942F2E28E088E190E00FB68A
:1011F000F894A895809360000FBE20936000FFCF05
:1012000080E090E062E071E00E944004EC012097F1
:1012100009F068CF81EA97E069E772E00E94A8329E
:10122000DF91CF911F910F91FF90EF90DF90CF90C2
:101230000895BF92CF92DF92EF92FF920F931F9388
:10124000DF93CF93CDB7DEB7A6970FB6F894DEBF86
:101250000FBECDBF6C01DE015396E8E6F1E084E1FC
:1012600001900D928150E1F78E010F5F1F4F82E1D7
:10127000F80111928A95E9F781EA97E06FE373E04C
:101280000E945D32780100E010E0EAE3BE2EC80162
:10129000865C9B4FB70141E00E944A05053019F476
:1012A000F701128202C0F701B2820F5F1F4F83E085
:1012B00090E0E80EF91E0630110549F781EA97E043
:1012C0008E010F5F1F4FB8010E94463481EA97E0FC
:1012D00061E373E00E94A83282E995E0BE016D5E91
:1012E0007F4F44E150E00E945D2982E995E0B8011A
:1012F0000E94433482E995E00E940A29B60144E144
:101300000E944A0581EA97E067E071E00E94433459
:101310000E940823BC0181EA97E04AE050E00E9465
:101320007033C60167E273E00E94040481EA97E02B
:10133000B6010E944634F60113AAA6960FB6F89499
:10134000DEBF0FBECDBFCF91DF911F910F91FF90F8
:10135000EF90DF90CF90BF9008955F926F927F9251
:101360008F929F92AF92BF92CF92DF92EF92FF92B5
:101370000F931F93DF93CF93CDB7DEB7E4970FB6EC
:10138000F894DEBF0FBECDBF8E010F5F1F4FC801A7
:101390000E94190910922C04A0E1CA2EA7E2DA2EAD
:1013A000E12CF12CAA24BB24502E012F30C081EA5D
:1013B00097E064E672E00E945D3281EA97E064E0C3
:1013C00070E04AE050E00E94113481EA97E061E564
:1013D00072E00E94A83281EA97E00E947E318FEB92
:1013E00091E067E171E00E94F82360E177E280E03C
:1013F00090E00E942F2E28E088E190E00FB6F8944C
:10140000A895809360000FBE20936000FFCF0E94DC
:1014100044160E94DD1E0E94212E3B014C01C6167F
:10142000D706E806F90698F781EA97E00E94883225
:1014300080912C04882391F581EA97E068E472E0BA
:101440000E945D328BE392E0652D702F48E650E0FC
:101450002EE338E00E943C1D0894A11CB11C81EAD7
:1014600097E067E071E00E9443340E940823BC01CA
:1014700081EA97E04AE050E00E94703384E0A816C9
:10148000B10409F494CFF8E9CF2EFAE3DF2EE12C72
:10149000F12CC60CD71CE81CF91CB9CF81EA97E0E7
:1014A0006DE272E00E94A832E4960FB6F894DEBFB7
:1014B0000FBECDBFCF91DF911F910F91FF90EF90A5
:1014C000DF90CF90BF90AF909F908F907F906F9064
:1014D0005F9008951F93F999FECF12BC11BCF89A42
:1014E00010B5133739F481EA97E060E173E00E94A8
:1014F000A83215C081EA97E062EF72E00E945D3287
:1015000081EA97E0612F40E150E00E949F3381E043
:101510000E94AC1D0E94AD0980E00E94AC1D1F918D
:101520000895DF92EF92FF920F931F93DF93CF9373
:10153000CDB7DEB762970FB6F894DEBF0FBECDBF52
:10154000FE01319682E1DF011D928A95E9F77F0164
:1015500000E010E0BAE3DB2EC801865C9B4FB701C8
:1015600041E00E944A05053019F4F701128203C0D8
:10157000D7011296DC920F5F1F4FE3E0F0E0EE0E12
:10158000FF1E0630110541F781EA97E00E9488327C
:1015900081EA97E066EA73E00E945D3281EA97E0B3
:1015A000BE016F5F7F4F0E94463481EA97E00E9440
:1015B000883284EF91E06AE374E048E00E944618C4
:1015C000882331F481EA97E061E873E00E94A83251
:1015D0000E94FB138823F1F481EA97E06BE673E045
:1015E0000E94A8328FEB91E066E271E00E94F8233E
:1015F00060E177E280E090E00E942F2E28E088E111
:1016000090E00FB6F894A895809360000FBE2093E9
:101610006000FFCF81EA97E066E673E00E945D32EA
:1016200086E595E00E94D32281EA97E00E94883205
:1016300081EA97E061E673E00E945D328EE595E015
:101640000E94D32281EA97E00E94883281EA97E0E3
:101650006BE573E00E945D3286E695E00E94D3223E
:1016600081EA97E00E94883281EA97E067E071E0C2
:101670000E9443340E940823BC0181EA97E04AE0BB
:1016800050E00E94703388E690E060E00E943014E1
:10169000882331F481EA97E060E573E00E94A83284
:1016A00081EA97E06AE473E00E945D328AE695E0A1
:1016B0000E94D32281EA97E00E9488320E9492150C
:1016C00062960FB6F894DEBF0FBECDBFCF91DF910B
:1016D0001F910F91FF90EF90DF9008950F931F934C
:1016E000CF93DF938C010E94212EAB01BC0181EAD4
:1016F00097E02AE030E00E943C3381EA97E06EEC0C
:1017000073E00E94A832C0E0D0E0F801EC0FFD1FAA
:1017100081EA97E060814AE050E00E948D3381EADF
:1017200097E06CEC73E00E945D322196C830D105E1
:1017300061F781EA97E00E9488328091E0018F5F33
:101740008093E00181EA97E066EB73E00E945D32EE
:1017500081EA97E06091E0014AE050E00E949F3307
:10176000DF91CF911F910F910895EF92FF920F9308
:101770001F9301EA17E0C80166E974E00E945D3238
:101780000E94212EAB01BC01C8012AE030E00E947A
:101790004B33C80166E874E00E945D3281EEE82EAA
:1017A00081E0F82EC7010E94180D682FC80140E1A2
:1017B00050E00E949F33C8016AE674E00E945D32E7
:1017C000C7010E941B0DBC01C8014AE050E00E9405
:1017D0007033C8016FE474E00E945D32C7010E945B
:1017E000240D0E941508C80165E374E00E945D3273
:1017F000C7010E94290D0E941508C80164E274E027
:101800000E945D32C7010E942E0D682FC8014AE078
:1018100050E00E949F33C80164E174E00E945D3291
:10182000C7010E94310DBC01C8010E944634C801A5
:1018300063E074E00E945D32C7010E94360DBC0176
:10184000C8010E944634C80162EF73E00E945D3215
:10185000C7010E943B0DAB01BC01C8012AE030E08A
:101860000E94FD33C8010E9488321F910F91FF90A2
:10187000EF9008950F930E9444160E94DD1E0E946F
:10188000F00581EE91E00E94670D882301F18091BF
:101890003702E82FF0E0EE0FFF1FE75DFE4F60819B
:1018A00071818F5F809337028FEB91E028EE33E0F8
:1018B00040E050E001E00E94FA2580913702843038
:1018C00010F0109237020E94B50B0E94FF050E9493
:1018D000D905882311F181EA97E069EA74E00E9452
:1018E000A83281EA97E00E947E318FEB91E063E2BB
:1018F00071E00E94F82360E177E280E090E00E94CE
:101900002F2E28E088E190E00FB6F894A8958093F8
:1019100060000FBE20936000FFCF8FEB91E00E942C
:1019200071240F91089581EA97E040E052EC61E064
:1019300070E00E949D3081EA97E067E071E00E94CC
:1019400043340E940823BC0181EA97E04AE050E05A
:101950000E94703381EA97E06BEF74E00E94A83236
:1019600081EA97E06CEE74E00E945D328AE394E0D5
:101970000E9415088FEB91E063E271E028EB3BE0F9
:1019800040E050E00E94992581EE91E00E94910D87
:1019900081EE91E06EE67BE00E94120D04C08FEBB9
:1019A00091E00E94712481EE91E00E94BB0D88239A
:1019B000B1F38FEB91E00E941A238FEB91E064E387
:1019C00072E00E94F8238091E001882319F08DE1F4
:1019D00091E002C086E291E063E028EE33E040E06F
:1019E00050E00E94D70781EA97E06BED74E00E9417
:1019F000A8320E94910A80E291E063E028EE33E091
:101A000040E050E00E94D7070E946A0A8AE191E014
:101A100063E028EE33E040E050E00E94D7070E94E8
:101A2000CE050895FC01EF5AFF4F7183608308953E
:101A3000FC0180810895FC01918180E0228130E0E9
:101A4000282B392BC90108959C01275F3F4FC901FD
:101A500008959C01215F3F4FC9010895FC018589CC
:101A600008959C012A5E3F4FC90108959C012A5D9B
:101A70003F4FC9010895FC0186A990E0A0E0B0E0C5
:101A8000BA2FA92F982F882727A930E040E050E0EF
:101A9000282B392B4A2B5B2B542F432F322F2227F5
:101AA00080AD90E0A0E0B0E0282B392B4A2B5B2BD7
:101AB000542F432F322F222781AD90E0A0E0B0E0D9
:101AC000282B392B4A2B5B2BB901CA010895CF93E0
:101AD000DF93EC010E94270F8823F9F080914104E5
:101AE00090914204892BC9F4809146048333A9F470
:101AF000CE018E5B9F4F69E474E046E050E00E94A7
:101B00004504009751F4DE01E6E4F4E08AE3019035
:101B10000D928150E1F781E001C080E0DF91CF912B
:101B200008950F931F938C010E94212E045B1F4F79
:101B3000F8011082118212821382605F784D8F4FFC
:101B40009F4F92938293729362938F01085F1F4F0E
:101B500081E0F801808300551040F80185E581930C
:101B6000D801AE5BBF4F86E00D9001928150E1F746
:101B70001F910F910895EF92FF920F931F93CF93B0
:101B8000DF93EC010E94212E7B018C010E94270F24
:101B9000882381F08091410490914204892B51F473
:101BA000CF5ADF4FE881F981C155D040309711F00D
:101BB000CE010995C85BDF4F88819981AA81BB81DD
:101BC000C854D040E816F9060A071B0710F081E058
:101BD00031C0FE01E45BFF4F80819181A281B3811E
:101BE000A8019701281B390B4A0B5B0BDA01C901CD
:101BF000815D9740A040B04050F0E082F1820283C6
:101C00001383C05BDF4F81E08883C055D0408E01D5
:101C1000005B1F4FF8018081882359F00E94B60FA6
:101C2000882339F080E0BE0147E00E941110F801DE
:101C3000108280E0DF91CF911F910F91FF90EF9084
:101C40000895FC01EF5AFF4F118210823F97DB018C
:101C500086E00D9001928150E1F781E461E044ED6E
:101C60000E9455100895782F8CB581608CBD65B1A8
:101C700021E030E040E050E00090310104C0220F4C
:101C8000331F441F551F0A94D2F7522F822F80957D
:101C9000862385B99EBD0DB407FEFDCF8EB57EBDF2
:101CA0000DB407FEFDCF4EB5382F20E085B1582B7F
:101CB00055B98CB58E7F8CBD50E0422B532BCA0199
:101CC000089580E090E00E94330E80919104853069
:101CD00009F054C080E090EB0E94330E282F8091D1
:101CE0009304882371F490919204992351F0809188
:101CF0009304E82FF0E0ED5BFB4F90838F5F8093C0
:101D0000930480919304E82FF0E0ED5BFB4F208378
:101D10008F5F8093930480914104909142048227C5
:101D2000282F22952827022E269526952025022E3B
:101D3000269520252770082E892F2695079427950C
:101D4000902D822706942795902582279093420410
:101D500080934104809145042091930490E004967F
:101D600030E0821793072CF080919304873408F4B5
:101D70006DC08DE092E80E94330E08958091910429
:101D800087FF2EC0E0914504809191048F5F80937E
:101D900091048150ED5FE80FF0E0ED5BFB4FE081D7
:101DA00080914104909142048E27282F2295282764
:101DB000022E269526952025022E26952025277071
:101DC000082E892F269507942795902D8227069413
:101DD000279590258227909342048093410430C038
:101DE000809191048F5F809391048150833019F129
:101DF00084302CF4882399F0813009F516C089309D
:101E000019F08A30E1F402C0EDE21AC0E0919204C8
:101E1000909145048EEF891B8093910411C08091AD
:101E2000410490914204E82F0BC0809141049091AD
:101E30004204E92F05C08DE092E80E94330EEAEAE1
:101E40008E2F90E0805098440E94330E0895809128
:101E50009104853009F042C080914504209193049B
:101E600090E0049630E08217930724F08091930469
:101E70008734A0F184E080939104809145048334F9
:101E800030F081E090E0909342048093410480918F
:101E9000440486FF12C080919004282F30E0C901CD
:101EA0008F7190704F9749F08091440490E08227A1
:101EB00093278F719070892B89F4809141049091C0
:101EC0004204892B09F044C0E0918E04F0918F0404
:101ED000309709F43DC080E0099546C08091910497
:101EE000843011F080E008951092450480914504FB
:101EF000809393048FEF9FEF90934204809341046B
:101F0000209192042223D9F08227282F2295282776
:101F1000022E269526952025022E2695202527700F
:101F2000082E892F269507942795902D82270694B1
:101F3000279590258227909342048093410485E061
:101F4000809391048DED92E80E94330E80E0089515
:101F50008FEF9FEFAFEFBFEF80938A0490938B04D6
:101F6000A0938C04B0938D0481E008958091910436
:101F70008530A1F480919304882381F41EBC0DB4B4
:101F800007FEFDCF0EB400FC09C08DE092E80E9470
:101F9000330E84E08093910481E0089580E00895F9
:101FA000982F86FD05C0907E809190048F71980FC8
:101FB00090934404E0918E04F0918F04309711F0D7
:101FC00081E009958FEF9FEF909342048093410445
:101FD0008091410490914204209192048227282FFD
:101FE00022952827022E269526952025022E269515
:101FF00020252770082E892F269507942795902D48
:1020000082270694279590258227909342048093F7
:10201000410486E0809391048DE392E80E94330EA0
:1020200008951F93182F4093450426E434E0C90116
:1020300050E00E945204812F0E94D00F1F910895FA
:1020400025B181E090E0A0E0B0E00090310104C053
:10205000880F991FAA1FBB1F0A94D2F7282B25B9F6
:1020600024B1822B84B98AE061E00E946C2F8AE05F
:1020700061E00E942D2F8BE061E00E942D2F8CE00B
:1020800060E00E942D2F8DE061E00E942D2F80E501
:102090008CBD8DB581608DBD82E060E00E942D2FEA
:1020A00082E061E00E946C2F08951F93162F8093A9
:1020B0009004409392040E94201080E090E00E94DF
:1020C000330E85E092E80E94330E80E098EB02C068
:1020D00080E090E00E94330E82E00E94C02F892BA6
:1020E000B9F3812F90E074E0880F991F7A95E1F79A
:1020F000876C90680E94330E80E496EA0E94330E4B
:1021000086E096EC0E94330E82EA94E90E94330E38
:102110008CEA92EC0E94330E10919204112341F04C
:1021200083E89AEC0E94330E812F90E09E6C06C0EB
:102130008BE89AEC0E94330E8DE29EEC0E94330EE7
:1021400083E894EC0E94330E80E598E90E94330EF8
:1021500087E79CEC0E94330E80E090EE0E94330EE5
:1021600080E098EC0E94330E89E490EC0E94330EDC
:1021700084E0809391048091900490E08F7190703E
:10218000892B41F080E061E67EE040E050E00E9473
:10219000492D03C080E00E946C2D809190041F9116
:1021A00008950F931F93579889E090E00E94882E1E
:1021B00009B184E190E00E94882E19B189E090E095
:1021C0000E94882E17FD02C080E005C0802F8095F8
:1021D000881F8827881F1F910F9108956F927F9203
:1021E0008F929F92AF92BF92CF92DF92FF920F9306
:1021F0001F93CF93DF935C013B016A0100E010E085
:102200004A010894810891082AC0FF24C0E0D0E068
:10221000C5010E94D110FF0CF82A2196C830D105C3
:10222000B9F7579A0815190539F45F9A84E190E0D7
:102230000E94882E5F9806C05F9884E190E00E941B
:10224000882E5F9A84E190E00E94882EC5010E944A
:10225000D110F301E00FF11FF0820F5F1F4F0C153B
:102260001D059CF2DF91CF911F910F91FF90DF90A0
:10227000CF90BF90AF909F908F907F906F90089578
:10228000EF92FF921F93CF93DF937C01162F579A03
:10229000C0E0D0E017FF07C05F9884E190E00E94A3
:1022A000882E5F9A06C05F9A84E190E00E94882E93
:1022B0005F9884E190E00E94882E2196C830D10575
:1022C00011F0110FE7CF5F9884E190E00E94882E13
:1022D0005F9A84E190E00E94882EC7010E94D1108D
:1022E000DF91CF911F91FF90EF9008950F931F936F
:1022F0008C015F9886E090E00E94882EC80165E519
:102300000E9440111F910F910895579A5F9A88E596
:1023100092E00E94882E0895EF92FF920F931F93F0
:102320008C017B01F8940E948511C8010E947611EE
:10233000C80160EA0E944011C80163E00E94401198
:10234000C80160E00E944011C8016AEF0E9440117C
:10235000C801B70146E050E00E94EE10C8010E949B
:10236000851178941F910F91FF90EF900895DF935E
:10237000CF9300D000D000D0CDB7DEB7DE011196EC
:10238000ECE7F1E086E001900D928150E1F786E103
:1023900091E0E8E3F2E0DF019C011D922150304022
:1023A000E1F780919404833019F462E675E003C08C
:1023B000BE016F5F7F4F84E490E043E450E00E94F1
:1023C000D81D80919404833039F088E392E0BE01F7
:1023D0006F5F7F4F0E94F42281E0809362028093BE
:1023E000630286E0809364028091A1049091A2042C
:1023F000A091A304B091A404809366029093670215
:10240000A0936802B093690280919404833039F4F8
:1024100082E692E00C9666E575E00E94FC228EE76B
:1024200092E060E575E00E94F422AEE4B3E0E3E4FC
:10243000F1E002C081918D9331E0E934F307D1F7E7
:1024400090919404992311F083E001C081E080937E
:1024500054038DE38093550387E08093560381E016
:1024600080935703A8E5B3E0E0E5F5E002C0819171
:102470008D9385E0E635F807D1F78CE080935E0315
:102480008AE080935F03E2E3F1E0A0E6B3E002C0FC
:1024900081918D9321E0EC33F207D1F72AE633E006
:1024A0003093A6042093A504913069F582E38093CC
:1024B0006A0384E080936B03D9011296E6E5F5E0A8
:1024C00002C081918D9335E0EA35F307D1F786E3B9
:1024D0008093700384E08093710382E793E090938C
:1024E000A6048093A504DC01E2E6F5E002C0819138
:1024F0008D9385E0E636F807D1F786E793E0909371
:10250000A6048093A5042091A5043091A604D901C6
:10251000EDE3F1E002C081918D9381E0E334F807AF
:10252000D1F7C90106969093A6048093A50482561C
:1025300092400E94AE1E26960FB6F894DEBF0FBEE4
:10254000CDBFCF91DF910895EF92FF920F931F932C
:10255000CF93DF93EC0180919404823009F4E0C0C2
:10256000833030F4882351F1813009F03DC14AC0F5
:10257000833021F0843009F037C1D2C00E94212E6F
:102580002091990430919A0440919B0450919C04AD
:10259000E0909504F09096040091970410919804AF
:1025A0002E0D3F1D401F511F6217730784079507AB
:1025B00008F41AC10E94B71184E017C00E94212EAE
:1025C0006093A1047093A2048093A3049093A40445
:1025D0001092560510925705109258051092590501
:1025E0000E94B7110E94971581E0809394040E9485
:1025F000212E60939D0470939E0480939F0490937A
:10260000A004F2C0C634D10508F4B2C080915B02C8
:10261000833409F0ADC080916202823009F0A8C015
:1026200020916602309167024091680250916902E0
:102630008091A1049091A204A091A304B091A4045C
:10264000281739074A075B0709F092C080915203A7
:10265000853309F08DC080915403823009F088C021
:10266000A6C0DF011196E180ED01219680818630C0
:10267000A9F0873030F4813059F0833009F045C03B
:102680000AC08633E9F18A3361F08333F1F509C07A
:102690008AE595E037C08EE595E034C086E695E0A2
:1026A00031C011966C9170E080E090E0982F872FF8
:1026B000762F66272981620F711D811D911D982F2C
:1026C000872F762F66272A81620F711D811D911D2C
:1026D000982F872F762F66272B81620F711D811D02
:1026E000911D28EE33E040E050E00E948C3660936C
:1026F000990470939A0480939B0490939C0405C062
:1027000082E695E0BE010E94FC22FE01EE0DF11D65
:10271000E017F10708F4A5CF0E94B71182E065CF5A
:10272000C634D10528F180915B02833409F580918C
:1027300062028230E9F42091660230916702409192
:102740006802509169028091A1049091A204A09125
:10275000A304B091A404281739074A075B0741F482
:1027600080915203853321F480915403853059F1CF
:102770000E94212E20919D0430919E0440919F043F
:102780005091A004205F384D4F4F5F4F26173707F9
:102790004807590748F028C08EE595E00E943E1E84
:1027A00083E08093940420C0109294041DC086E5B9
:1027B00095E062E772E00E94FC22E2E5F3E08E0120
:1027C000085C1D4F4ECF0E9492150E94212E6093EF
:1027D0009504709396048093970490939804809145
:1027E0005E058823E9F2D8CFDF91CF911F910F9139
:1027F000FF90EF900895CF93DF9381E080936E0573
:1028000090915505892F82958F70805D80933A0154
:102810009F70905D90933B01109294040E94212E32
:10282000EB0104C00E9444160E94A41280919404FB
:10283000833061F00E94212E6C1B7D0B60567A4E16
:1028400028F40E94C815882389F3ECCF90E080918A
:102850009404833009F491E0892FDF91CF9108959A
:10286000FF920F931F93CF93DF93182F092FF62E0C
:102870000E94212EEB010E94C815882329F00E9496
:10288000361D882309F4DBC00E9444160E94DD1E19
:102890000E94212E6C1B7D0B6053754760F3C8C0EE
:1028A00088E098E0A8E0B8E080936605909367051B
:1028B000A0936805B09369058091A70490E0906E9D
:1028C00066E675E045E350E00E94D81DA2E6B2E05E
:1028D0008CE0FD0111928A95E9F7812F902FFC0180
:1028E000CF011C9630E0FF2019F0FC01208102C0CE
:1028F000FC01249101962E3241F0222331F03F5FFA
:10290000FD01E30FF11D2083EECFFD013193DF01C7
:10291000A30FB11D222331F7FD01119211961C92D4
:10292000DF01119641E04183FD01319611961C9221
:10293000418386ED28E332E0821B32968E0F80932E
:1029400062029091A70490936302409364024093C3
:10295000670290E00E94AE1E0E94212E8B0161C092
:102960000E94212E601B710B6053754708F060C0F8
:102970000E944416EC01009709F453C00E94DD1E2A
:10298000892B09F04EC0C634D10508F44AC08091A5
:102990005B02853309F045C080915C02803E09F0FE
:1029A00040C090915D028091A7049817D1F5809165
:1029B00063028917B1F58091650290E08F70907085
:1029C000892B79F580916202E82FF0E0EE59FD4FF6
:1029D0009E01285C3D4F8081807C39F0329609C091
:1029E0008081882311F4319604C03196E217F307F1
:1029F000B8F3CF010E962817390798F081818130FE
:102A000051F48185843039F43A968AE695E0BF0125
:102A10000E94FC2206C0818590E00A96E80FF91F0B
:102A2000DACF80916A05882309F49ACF81E001C04A
:102A300080E0DF91CF911F910F91FF900895109248
:102A40006A0510926B0510926C0510926D058091CD
:102A5000A7048F5F8093A70480916605882309F0FF
:102A60002BCF1ECF8091AA0461E00E946C2F789436
:102A70000895FF920F931F93082F162FF42EF894AA
:102A80008091AA0460E00E946C2F1F71102B1EBD64
:102A90000DB407FEFDCFFEBC0DB407FEFDCF0E94B6
:102AA00032151F910F91FF9008951F93182F282F13
:102AB00030E0207630708091AB0490E02817390721
:102AC00099F080EA6FE143E00E943915412F40768A
:102AD0004093AB0450E085E0559547958A95E1F722
:102AE00080E86FE10E9439151F9108950F931F939D
:102AF000182F062F0E94551580E4612F402F0E9449
:102B000039151F910F9108950F931F93182F072FB9
:102B10000E947615812F8F5F602F0E9476151F917E
:102B20000F91089588E360EB0E947615089588E37D
:102B300061EB0E94761508950F931F93182F062FAF
:102B4000F8948091AA0460E00E946C2F802F8F710E
:102B5000812B8EBD0DB407FEFDCF1EBC0DB407FE4C
:102B6000FDCF07FF04C01EBC0DB407FEFDCF1EB590
:102B70000E943215812F1F910F9108951F93182FD6
:102B80000E94551580E0612F0E949C151F910895A9
:102B900084ED61E10E94761582ED61E00E94761578
:102BA0008AEE0E94BE1580FDFBCF82ED60E00E94A0
:102BB000761589ED0E94BE1590E0969587959695BD
:102BC0008795817008950F931F93CF93DF93EC0146
:102BD0008B01F8948091AA0460E00E946C2F8AE334
:102BE0008EBD0DB407FEFDCF09C01EBC0DB407FE9F
:102BF000FDCF8EB5F80181938F0121972097A9F71A
:102C00000E943215DF91CF911F910F910895DF93AC
:102C1000CF930F92CDB7DEB7198290E036E0880FE0
:102C2000991F3A95E1F7860F911DBC0160507E4EC9
:102C300080509E4050F480E00E94841581E090E036
:102C4000BE016F5F7F4F0E94E31589810F90CF9186
:102C5000DF910895CF93DF93EB0190E046E0880F7A
:102C6000991F4A95E1F7BC0160507E4E815C9D4002
:102C700040F480E00E94841580E490E0BE010E9450
:102C8000E315DF91CF9108950F931F93DF93CF93B7
:102C900000D000D000D0CDB7DEB789E30E94BE15CA
:102CA000882319F400E010E048C06091AC047091F2
:102CB000AD0480E00E94841586E090E0BE016F5F65
:102CC0007F4F0E94E31589819A819093AD04809390
:102CD000AC042B813C81E091A804F091A9048D8182
:102CE00087FD03C000E010E00EC0245030408F018B
:102CF000015010402017310708F48901C80168E32A
:102D000072E00E94E315F801E85CFD4F10826091CB
:102D1000AC047091AD048CE06130780724F08CE055
:102D20006FEF7BE003C0615070408CE00E9484151F
:102D300080E86EE140E40E943915C80126960FB67E
:102D4000F894DEBF0FBECDBFCF91DF911F910F91E1
:102D500008950F931F93CF93DF938C01EB01F894A9
:102D60008091AA0460E00E946C2F8AE78EBD0DB4AA
:102D700007FEFDCF08C088818EBD0DB407FEFDCFD4
:102D800021960150104001151105A9F70E94321536
:102D9000DF91CF911F910F910895CF93DF93EB01B6
:102DA00090E056E0880F991F5A95E1F7BC016050FA
:102DB0007E4E815C9D4040F482E00E94841580E458
:102DC00090E0BE010E94A916DF91CF910895CF93A4
:102DD000DF93EC010FC08CE10E94BE1581FF0AC099
:102DE00080E86FE140E80E94391580EA6FE140E831
:102DF0000E94391580E06FE10E949C1583FDEBCFA6
:102E000082E060E07CE00E948415BE016050744F57
:102E100086E00E9484158AE760E040E00E94391550
:102E2000CE0168E372E00E94A91680E86FE148E0F5
:102E30000E943915DF91CF9108958AE061E00E94E8
:102E40002D2F8AE061E00E946C2F8BE061E00E94F0
:102E50002D2F8DE061E00E942D2F8CE060E00E941C
:102E60002D2F8BE061E00E946C2F8BE060E00E94D0
:102E70006C2F8DE060E00E946C2F80E58CBD8DB5DD
:102E800081608DBD08951F93CF93DF93EB01142FC5
:102E90009093A9048093A8040CB406FC02C00E947D
:102EA0001D171093AA04812F61E00E942D2F0E940C
:102EB00032158FEF60E04FEF0E94391562E070E04D
:102EC00080E090E00E942F2E80E06DE10E949C1532
:102ED0008823D1F31092AD041092AC0488E060E036
:102EE00070E00E9484158CE060E070E00E94841520
:102EF0008AE06FEF7BE00E94841584E060E07CE074
:102F00000E94841586E06FEF71E10E9484150E9493
:102F1000971588E26FE370E30E94841580E369EF00
:102F200077EF0E94841580EC6DE00E94761581ECAD
:102F300060E00E94761580E862EC42E30E94391559
:102F400086EC62E17CE00E94841584EC62E10E94E0
:102F500076158AEC6CED75E00E94841584EE68812C
:102F60000E94761585EE69810E94761582EE6A814F
:102F70000E94761583EE6B810E94761580EE6C813F
:102F80000E94761581EE6D810E94761584ED60E1D8
:102F90000E94761586ED60E071E00E9484158AEE4D
:102FA0000E94BE1580FDFBCF8FE10E94551580E881
:102FB0006BE140EC0E94391580E86FE144E00E942B
:102FC000391582E70E94BE15863008F08F5FDF91C9
:102FD000CF911F910895CF93DF93C0E0D0E05C2F95
:102FE000FE01E255FB4FE081EE2349F120E030E0A5
:102FF0006E2F70E0CB01022E02C0959587950A9442
:10300000E2F780FF17C0C255DB4F81E090E0A0E0FF
:10301000B0E0022E04C0880F991FAA1FBB1F0A949C
:10302000D2F780958E238883852F880F880F880F8D
:10303000820F0AC02F5F3F4F28303105D9F6219605
:10304000C032D10561F680E0DF91CF910895CF9332
:10305000DF93EC019B018A30910548F06AE070E053
:103060000E94AB36CB01B9010E9427189C01CE010A
:103070006AE070E00E94AB36805DF9018193D9016E
:1030800011961C92CF01DF91CF910895AF92BF921C
:10309000CF92DF92FF920F931F93CF93DF938C0118
:1030A000EB01F42E10926E0538E341E050E060E051
:1030B00070E018C0832F90E0FC01B3E0F595E79530
:1030C000BA95E1F7E255FB4F877090705A016B019A
:1030D00004C0AA0CBB1CCC1CDD1C8A95D2F7208135
:1030E0002A292083315031F780E595E0BE010E9406
:1030F000F422C80160E575E04F2D0E944317DF916F
:10310000CF911F910F91FF90DF90CF90BF90AF9024
:103110000895CF92DF92EF92FF920F931F93DF9368
:10312000CF93CDB7DEB7EB84FC84CD84DE84DE01A3
:103130001F9601C0D801F6018491882309F4BAC012
:103140000894C11CD11C843209F097C0F601089480
:10315000C11CD11C8491863409F45DC0873434F4D9
:10316000843469F0853409F088C06CC08C34B9F1BE
:10317000833509F443C0883409F07FC00BC08D014A
:103180000E5F1F4FF701668177818D919C910E94A0
:1031900027187EC02C91822F992787FD909514E0E7
:1031A000959587951A95E1F78F702F702A300CF05E
:1031B000295F8A300CF0895F8D010E5F1F4FF70188
:1031C000A681B781805DFD018193205D11962C93CE
:1031D0003196D7011796FC93EE931697ABCF8D01DE
:1031E0000C5F1F4F6D917D918D919C91F7014681F0
:1031F00057812AE030E00E94F9044AC08D010E5F39
:103200001F4F6D917C91D70116968D919C911797C8
:103210000E9466043DC08D010E5F1F4F2D913C91B1
:103220000AC0D7011696ED91FC91179781931796D6
:10323000FC93EE931697F9012F5F3F4F84918823FB
:1032400081F778CF8D010E5F1F4F2D913C910AC001
:10325000D7011696ED91FC91179781931796FC93E1
:10326000EE931697F999FECF32BD21BDF89A80B53D
:103270002F5F3F4F882361F75DCFF70126813781AC
:10328000F90181939F01F701378326838D0152CF86
:10329000D70116968D919C911797FC010190002003
:1032A000E9F73197E81BF90B8E0F9F1FF701978302
:1032B000868340CFCF91DF911F910F91FF90EF90C8
:1032C000DF90CF900895EF92FF920F931F93CF93CB
:1032D000DF93EC0131E0E32EF12C012D112D1EC006
:1032E00090E0FC0123E0F595E7952A95E1F7E2559A
:1032F000FB4F87709070A801970104C0220F331F05
:10330000441F551F8A95D2F7DA01C9012081282B65
:1033100020838D816FE30E9407168D838D81882322
:10332000F9F6DF91CF911F910F91FF90EF900895E3
:10333000982F80910E05981729F4E62FF0E0E253BC
:10334000FB4F08C080914F05981731F4E62FF0E04D
:10335000E15FFA4F80810895892F0E940716089532
:103360000F931F93FC0104818FE3089F80011124B8
:1033700086816EE30E949819080F111D03501040BA
:10338000C8011F910F9108951F93CF93DF93982F3A
:10339000162FC82FD0E0FE0156E0EE0FFF1F5A9502
:1033A000E1F7EC0FFD1FE253FB4FE05CFF4F808124
:1033B000E054F040681771F1992359F4BF010E945D
:1033C000CD1680914F05181791F48FEF80934F051C
:1033D0000EC080910E05681751F4AFE0B5E0EEEC39
:1033E000F4E081E401900D928150E1F713C0FE01F9
:1033F00046E0EE0FFF1F4A95E1F7EC0FFD1FE25389
:10340000FB4FE05CFF4F1083E054F040812FBF0181
:103410000E942A16DF91CF911F91089580E060E00D
:103420000E94C4198091CE049091CF040895CF9347
:10343000DF93EC0181E06F810E94C4199F818E812E
:10344000981739F4988580914D05981710F080E011
:1034500013C08885E82FF0E0E15FFA4FE0818F5FCD
:1034600088878F3340F09F818E81981721F080915B
:103470004E058F8318868E2FDF91CF9108951F936D
:10348000CF93DF93EC01162F80E06E810E94C41968
:1034900080910C05E82FF0E0E253FB4F10838F5F23
:1034A0008F3318F480930C0510C00E94EB17682F1F
:1034B00080930D058E8380E00E94C41910920D0543
:1034C00010920C058C818F5F8C83DF91CF911F91BF
:1034D0000895CF93DF93EC0180E06D810E94C419C1
:1034E000AEECB4E0FE01349683E001900D92815081
:1034F000E1F790914F058D81981721F481E060E00C
:103500000E94C419DF91CF910895CF93DF93EC010E
:103510006F8383E0888781E00E94C419DE011496DE
:10352000EFE0F5E083E001900D928150E1F78F81AB
:10353000DF91CF910895AF92BF92CF92DF92EF9239
:10354000FF920F931F93DF93CF93CDB7DEB72997E9
:103550000FB6F894DEBF0FBECDBF80E060E00E94E2
:10356000C4190091D0041091D10470EDE72E74E0DD
:10357000F72E64E5A62E61E0B62E6E010894C11CFC
:10358000D11C02C00F5F1F4FF80184918823C9F03E
:103590000F5F1F4F8432C1F782E090E0E80EF91E02
:1035A000F7016081F8018491883461F71C821B82E5
:1035B000BA82A982C6010E94851AC6010E946319B7
:1035C000E1CF29960FB6F894DEBF0FBECDBFCF91E5
:1035D000DF911F910F91FF90EF90DF90CF90BF9000
:1035E000AF9008954F925F926F927F928F929F92C9
:1035F000AF92BF92CF92DF92EF92FF920F931F9301
:10360000DF93CF93CDB7DEB760970FB6F894DEBFE8
:103610000FBECDBF8E010D5D1F4FF801E190F190FF
:103620008F0180E060E00E94C419C7010E940F046E
:103630009093CF048093CE04F092D104E092D00412
:103640006801A2ED8A2EA4E09A2EF4E54F2EF1E057
:103650005F2EE8E06E2E712C6C0E7D1E5E010894CC
:10366000A11CB11CF7018491882309F465C008945A
:10367000E11CF11C8432B1F7F60100811181F701E0
:103680008491863429F1873428F4843469F08534B0
:1036900029F407C0883469F1833591F0A0E0B0E0E7
:1036A00034C0A0E0B0E019C0C801B5010E942718DD
:1036B000D5010D900020E9F71197AA19BB0925C083
:1036C000D8010D900020E9F71197A01BB10B1DC088
:1036D000C8010E940F0418C01196F999FECFCD01C0
:1036E000800F911F92BD81BDF89A80B58823A1F704
:1036F0000CC01B861A8659864886C301602F0E941B
:10370000851AC3010E94B019DC010894E11CF11C68
:10371000F401019311934F018091CE049091CF0455
:1037200002978A0F9B1F9093CF048093CE0482E070
:1037300090E0C80ED91E96CF60960FB6F894DEBF03
:103740000FBECDBFCF91DF911F910F91FF90EF90F2
:10375000DF90CF90BF90AF909F908F907F906F90B1
:103760005F904F9008952F923F924F925F926F9289
:103770007F928F929F92AF92BF92CF92DF92FF92F1
:103780000F931F93DF93CF93CDB7DEB760970FB63C
:10379000F894DEBF0FBECDBF1C013B01142F052FD7
:1037A00080E060E00E94C419C090D004D090D104A1
:1037B0001B861A8684E591E0998788871F861D8677
:1037C000212F302FC9012C0190E4F92E00E010E0E8
:1037D0008824992480EDA82E84E0B82E620C731CF6
:1037E00083C086E4F81609F45EC08F1564F094E493
:1037F000F91609F454C09F150CF45AC0E0E4FE1603
:1038000009F070C009C0F8E4FF1609F45BC083E555
:10381000F81609F067C043C0F6018491282F882369
:1038200009F466C00894C11CD11C843209F050C050
:1038300082E090E0A80EB91EF50160812181F601B9
:103840000894C11CD11CF490F6E4FF1544F085E403
:10385000F816C4F494E4F91609F046C008C0E8E488
:10386000FE16A9F0F3E5FF1609F03EC00BC0862F47
:10387000922FBE016F5F7F4F0E9427188E010F5F4E
:103880001F4F32C0862F922F9C0189012DC0CE017F
:1038900008960E94851A8E01085F1F4F25C0F80107
:1038A00021918F0113C0F8010F5F1F4F24910EC0AB
:1038B000F999FECFC801019612BD01BDF89A20B555
:1038C0008C0104C0C8010E94171A282F222351F02E
:1038D0008214930418F0F20121932F010894811CA3
:1038E000911C02C0B0E4FB2E8614970408F479CF33
:1038F00060960FB6F894DEBF0FBECDBFCF91DF91BB
:103900001F910F91FF90DF90CF90BF90AF909F904D
:103910008F907F906F905F904F903F902F90089581
:10392000EF92FF921F937C010E94EB17182F80E00B
:10393000612F0E94C419EEECF4E01092CE041093B3
:10394000D0041093CF0483E086AF17AEC701612F78
:103950000E94851A1F91FF90EF900895FC01A681A7
:10396000B7816D93B783A68381E090E00895DF92DD
:10397000EF92FF920F931F93CF93DF93D82E862F52
:10398000BA01213041F4675F7F4F9B0140E050E076
:10399000695070400EC0223029F020E030E040E055
:1039A00050E007C0625070409B0140E050E06E5F05
:1039B0007F4FE82EFF2488E392E0E80EF91E8B018A
:1039C000E7010FC0F881E0E0898190E08E2B9F2B0A
:1039D000A0E0B0E0280F391F4A1F5B1F229602505B
:1039E00010400230110570F7CB018E7FD701A80F70
:1039F000B91F6817790779F08C9190E0A0E0B0E0EA
:103A0000BA2FA92F982F882702C040E050E0280F36
:103A1000391F4A1F5B1FCA01AA27BB270097A105B0
:103A2000B10599F7C90180959095ED2DF0E0E85C1E
:103A3000FD4F90838183DF91CF911F910F91FF9074
:103A4000EF90DF900895109250021092510280E49E
:103A500080934C0210924D0280934E0288E16EE0FA
:103A600044E150E020E00E94B71C08958091700569
:103A7000869580958170089590938705809386053B
:103A80007093910560939005509389054093880544
:103A900010928D0510928C0530938F0520938E0522
:103AA0003091490120914A018FE892E29093780584
:103AB0008093770586ED91E290937A05809379055E
:103AC000209373053093740581E080937105809194
:103AD00072058F5F877080937205809385050895C6
:103AE000662341F480934F01485C5D4F50938405F9
:103AF0004093830581E008953091490120914A0166
:103B000080E79DE1909378058093770586EB91E2BD
:103B100090937A058093790520937305309374050B
:103B200081E080937105809172058F5F877080932B
:103B3000720580938505089590914F01981719F0AB
:103B400020E030E007C08BE780934F012091830590
:103B500030918405C901089580936F0508950F93EE
:103B60001F93BC0108E312E0C8010E94F422C801BF
:103B7000069660E575E00E94F4221F910F9108956A
:103B8000EF92FF920F931F937B010E94AF1D06E5FA
:103B900012E0C801B7010E94FC22C801049766E543
:103BA00075E00E94FC221F910F91FF90EF90089505
:103BB000EF92FF920F931F93CF93DF937C01EB0162
:103BC0008A018DE795E00E94C01D8881807F803E3C
:103BD00049F088819981AA81BB818F5F9F4FAF4F48
:103BE000BF4F31F488E392E062E871E00E94F42272
:103BF00088E0809344021092450286E492E069E2F4
:103C000075E049E050E00E94FB031092480281E118
:103C100080934F0210935C0200935D02F0925A026F
:103C2000E0925B0210925E021092600210926102BA
:103C3000DF91CF911F910F91FF90EF900895EF9238
:103C4000FF920F931F930EE312E0C8010E94AF1D75
:103C500074E1E72EF12CE00EF11EC8014896B70181
:103C60000E94FC22C70166E575E00E94FC220E94CA
:103C7000231D1F910F91FF90EF900895BC0181E0EB
:103C8000809370058EE595E00E94FC2208950F93C5
:103C90001F938C01889690934802809349020E945A
:103CA000231D10926A0210926B02045E1F4F82E382
:103CB0006AE1A80122E00E94B71CC8014A960E944E
:103CC000E7161F910F910895CF93DF939C01862FE4
:103CD000806180936702643029F02115310511F469
:103CE00021E030E090915C0280915A0280935C0266
:103CF00090935A0290915D0280915B0280935D02E5
:103D000090935B02C1E6D2E08881A901480F511D62
:103D10002C814C832883252F3327219752E0CD35E2
:103D2000D50791F71D861E8680E589871092480287
:103D300088E2809349020E941F1E84E08B871C86C4
:103D400082E36AE14CE150E022E00E94B71C86E386
:103D500090E00E94E716DF91CF9108950F931F9393
:103D6000DF93CF930F92CDB7DEB78C01045E1F4F68
:103D7000109348020C511040802F845E80934902BA
:103D800089830E94231D085F1F4F10935E02898163
:103D9000845180935F02085F1F4F88E26AE1A801A7
:103DA00021E00E94B71CC8014A960E94E7160F90B6
:103DB000CF91DF911F910F910895DF92EF92FF92C3
:103DC0000F931F93CF93DF93EC0180916E058823AF
:103DD00019F0CE010E94A412209709F0B6C080917C
:103DE00070058570F1F180914B0190914C01892B08
:103DF000C1F50E94C8158823A1F182E891E00E94D4
:103E0000AF1D88E08093440256E0F52EF092450203
:103E100086E492E061E275E048E050E00E94FB0336
:103E200008E512E0D8011D92FA94E9F7C8010A9753
:103E300060E575E00E94F422C80106966EE575E023
:103E40000E94FC22C801049766E575E00E94FC22EE
:103E5000809170058860809370058AE290E00E94EE
:103E6000E71680914B0190914C01019690934C0183
:103E700080934B0180917105813009F067C2809178
:103E8000700581FF63C202E00093710580914D01CE
:103E90008F5F80934D018F71109172051295110FF4
:103EA000107E182BE0907305D09074058DE795E097
:103EB0006AE675E00E94C01D48E0F42EF0924402CC
:103EC0001092450286E492E069E275E049E050E034
:103ED0000E94FB038CE28093490286E080934F02AC
:103EE0000E94231DE0925C02D0925D028BE08093E1
:103EF0005A0210935B02EEE5F2E0DF011D92FA94A4
:103F0000E9F780914E01809360028D5F80934E01AE
:103F100080E6809366020093670283E080936802E4
:103F20001092690210926A0210926B0210926C0257
:103F300010926D0200936E0284E080936F020093F2
:103F4000700286E280937102BCC1C932D10508F4C7
:103F5000FDC110914402183009F003C2809145025E
:103F6000863009F0FEC18EE592E066E575E044E03A
:103F700050E00E944504009709F0F3C180914D0282
:103F8000813029F58EE392E00E94AF1D10924C0221
:103F900082E080934D0288E592E06EE472E00E9438
:103FA000F4228EE492E060E575E00E94F4228EE552
:103FB00092E064E572E00E94FC2284E592E066E50E
:103FC00075E00E94FC228AE290E00E94E716809150
:103FD000700583FFBBC110914D02123009F0B6C1CC
:103FE00084E592E06EE575E044E050E00E9445040F
:103FF000009709F0ABC18DE795E06EE472E00E9496
:10400000F42210937005A2C1183009F09FC180916D
:104010004502882309F09AC180914602853409F04F
:1040200095C186E592E066E575E044E050E00E94C7
:104030004504009709F08AC190914F02913009F52B
:1040400080915A028830E9F4E0917505F091760587
:10405000309719F082E592E009950E941F1E109298
:104060005A0280915C02883F28F080915D028F5F48
:1040700080935D0280915C02885F80935C02CE0138
:1040800029C1C633D10518F4963009F05FC12091DB
:104090005C022B3009F0BFC082E592E06AE675E071
:1040A00044E050E00E944504009709F04FC1809120
:1040B0006702682F82FF13C0E0917705F0917805C1
:1040C000309759F080915D0282958695877063E004
:1040D00040E050E020E030E0099585E093C0909109
:1040E000480280E020914902022F10E0082B192B92
:1040F00080916602482F50E034E0559547953A95F7
:10410000E1F7CA01880F991F880F991F081B190B27
:104110000451104017FF02C000E010E098018091A8
:104120007105823079F561FF21C064FF1FC080E016
:1041300090E060E00E94641E88E180936702E09155
:104140007905F0917A05309719F420E030E007C046
:1041500080915B0282958695877009959C0183E02A
:1041600080937105C9010E94471EF0C081E08093D1
:10417000710564FF03C080E090E002C0C8010196B1
:1041800064E0E2C0833081F50115110581F1E09111
:104190007705F0917805309751F1440F551F440F82
:1041A000551FCE0108974E5D5F4F8417950708F4A1
:1041B000AC01C801840F951FC817D90710F09801EA
:1041C00003C09E01241B350B80915D02829586956C
:1041D000877060E0099580916F05882319F0C80108
:1041E00068E0B2C0C8010AC0853009F4AFC060FF02
:1041F0000CC0833009F4AAC0C801019669E00E948E
:10420000641E86E080937105A1C00115110509F4B3
:104210009FC0C80198C04091490130E080914A0197
:1042200090E02817390709F091C080915D0284174A
:1042300009F08CC080916702682F81FF4EC01092F8
:1042400048028CE2809349020E941F1E82E1809303
:10425000670290915C0280915A0280935C02909375
:104260005A0290915D0280915B0280935D0290936F
:104270005B02E1E6F2E021E030E08081A901480F35
:10428000511D44831082252F3327319752E0ED359D
:10429000F50799F7158616861182128280914E01D4
:1042A000838314828D5F80934E0182E0818B84E052
:1042B000828B95E0938B148A80E68187938788E7C9
:1042C000848782E36AE140E250E022E00E94B71C6A
:1042D0008AE390E00E94E71639C084FF37C09091CE
:1042E000480280E02091490230E0282B392B809150
:1042F0006602482F50E014E0559547951A95E1F76E
:10430000CA01880F991F880F991F281B390B245148
:10431000304037FF02C020E030E030937C0520932E
:104320007B05232B61F09A01220F331F220F331FCD
:104330002E5D3F4F2897C217D30740F009C060FF9A
:1043400005C080E090E060E00E94641E20E030E064
:10435000C901DF91CF911F910F91FF90EF90DF90F6
:104360000895CA32D10508F04FCEF0CFEF92FF92F8
:104370000F931F930E940E1A8C016EE6E62E62E0E8
:10438000F62E80E090E0B801A7010E94B31B0E94C6
:104390009B1AE00EF11EF70110828BE780934F010C
:1043A000C8011F910F91FF90EF900895CF92DF9277
:1043B000EF92FF920F931F93DF93CF93CDB7DEB7AA
:1043C00028970FB6F894DEBF0FBECDBF2EE632E0C1
:1043D0003E832D8338872F8390918505891709F0B7
:1043E00088C01C821B828CE891E09A83898340916B
:1043F0008C0550918D054115510579F58DB79EB706
:104400000A970FB6F8949EBF0FBE8DBFEDB7FEB7EB
:104410003196CE010196ADB7BEB712969C938E939E
:10442000119789EA95E09383828380918605909124
:10443000870595838483809190059091910597835A
:1044400086838091880590918905918780870E9455
:1044500089188DB79EB70A9647C080918A059091BA
:104460008B050091860510918705609188057091F4
:104470008905009721F07C012FE031E003C022E1A3
:1044800031E07901DA010D900020E9F76D0108941F
:10449000C108D108C41AD50A8DB79EB740970FB688
:1044A000F8949EBF0FBE8DBFEDB7FEB73196CE011B
:1044B0000196ADB7BEB712969C938E93119782E387
:1044C00095E0938382831583048377836683E086F4
:1044D000F18633872287D586C486578746870E9410
:1044E00089188DB79EB740960FB6F8949EBF0FBE41
:1044F0008DBF2F8138858D819E81281B390BC90185
:1045000028960FB6F894DEBF0FBECDBFCF91DF91D6
:104510001F910F91FF90EF90DF90CF9008950F9330
:104520001F93CF93DF93890190918505891759F0E7
:10453000E0918E05F0918F0584E060E070E040E04E
:1045400050E009952AC0662341F52D30310528F148
:10455000C0918E05D0918F052097F9F04F5B5D4F8C
:1045600083E191E0BA0143E050E00E946D049C01B8
:1045700080E0232B09F081E06091660270E0F4E0B6
:1045800075956795FA95E1F7660F771F660F771FA8
:104590006E5D7F4FA801FE01099580E0DF91CF910C
:1045A0001F910F9108950F931F93CF93DF938C0169
:1045B000C0E0D0E0F801EC0FFD1F81EA97E06081D8
:1045C0004AE050E00E948D33C33029F081EA97E041
:1045D0006EE20E9480322196C430D10559F7DF91F6
:1045E000CF911F910F910895DC01FB0186E00190AE
:1045F0000D928150E1F708959C01FB01808191812A
:10460000A281B381F90180839183A283B38308954A
:10461000E3ECF7E020E030E003C031962F5F3F4F3E
:104620008081853C29F488E0EF3FF807B1F3A8F3D7
:10463000C9010895FC011782168210821382118627
:104640001086118214821386128612821582178AAE
:104650001786108A118A128A08951F93CF93DF93C9
:10466000FC01648745872687EC0110E08C8561E0BA
:104670000E942D2F8C8560E070E00E94CD2E1F5F80
:104680002196133099F7DF91CF911F9108954F92A2
:104690005F926F927F928F929F92AF92BF92CF92D2
:1046A000DF92EF92FF920F931F93CF93DF93582ED9
:1046B000492E5B01FB01248135818281938128177A
:1046C000390708F4C901F50120813181BC0128179F
:1046D000390708F4B901852D942D9C016901C0E0CA
:1046E000D0E03B0188249924C401B3010E949B358A
:1046F0007B018C01F501EC0FFD1F6081718180E071
:1047000090E00E949B359B01AC01C801B7010E945B
:10471000073520E030E040E853E40E94293620E0ED
:1047200030E040E05FE30E94A3340E946F35F60161
:10473000748F638F229682E090E0C80ED91EC63037
:10474000D10591F6852D942D65E043E026E00E9489
:104750002D23DF91CF911F910F91FF90EF90DF906C
:10476000CF90BF90AF909F908F907F906F905F9011
:104770004F900895DF93CF9300D000D000D0CDB7F5
:10478000DEB7DE011196E6E9F1E026E001900D9238
:104790002150E1F7BE016F5F7F4F0E9447232696AD
:1047A0000FB6F894DEBF0FBECDBFCF91DF91089555
:1047B000EF92FF920F931F937C018B01FB016081AD
:1047C000FC01848570E00E94CD2EF8016181F70123
:1047D000858570E00E94CD2EF8016281F701868503
:1047E00070E00E94CD2E1F910F91FF90EF900895E1
:1047F0002F923F924F925F926F927F928F929F92F1
:10480000AF92BF92CF92DF92EF92FF920F931F93DE
:10481000DF93CF9300D00F92CDB7DEB7382E292E7D
:104820002B019C0139018824992400D000D0F20189
:10483000E80DF91D608170E080E090E0F301238DC8
:10484000348D40E050E0EDB7FEB7218332834383DF
:10485000548320E030E040E050E0EFEFEE2EF12C0A
:10486000012D112DAA24BB2465010E945934E1E0D9
:10487000F0E0EC0FFD1FE80DF91DCB010F900F903C
:104880000F900F906F3F710519F010F08FEF90E0CF
:1048900080830894811C911C82E090E0680E791E50
:1048A00093E08916910409F6832D922DBE016F5F66
:1048B0007F4F0E94D8230F900F900F90CF91DF91E0
:1048C0001F910F91FF90EF90DF90CF90BF90AF902E
:1048D0009F908F907F906F905F904F903F902F9020
:1048E00008952F923F924F925F926F927F929F9284
:1048F000AF92BF92CF92DF92EF92FF920F931F93EE
:10490000DF93CF93CDB7DEB72C970FB6F894DEBF09
:104910000FBECDBF3C01DE011196E0E9F1E083E07E
:1049200001900D928150E1F70E94212EF30127851D
:10493000308941895289621B730B840B950B0E944D
:104940009B3520E030E048EC52E40E9429367B01A0
:104950008C01F30163897489858996890E949D354C
:104960009B01AC01C801B7010E9407350E946F3559
:10497000CB016536710510F084E690E078866F8291
:104980001301442455249C0140E050E029873A87D4
:104990004B875C87F301E40DF51D908000D000D0BB
:1049A000F10186819781AA2797FDA095BA2FEDB7CF
:1049B000FEB781839283A383B48369857A858B85CF
:1049C0009C8520E030E040E050E0B4E6EB2EF12C96
:1049D000012D112DAA24BB2465010E945934E4E065
:1049E000F0E0EC0FFD1FE40DF51D960E908208948B
:1049F000411C511C22E030E0220E331E0F900F901C
:104A00000F900F9033E04316510421F6C301BE010D
:104A10006C5F7F4F0E94F82320E0F30193818C812B
:104A2000981321E081E02827F30194818D81981368
:104A300020E0F30195818E81981320E0F3018789AE
:104A4000882309F45EC0222309F45BC0228D22234F
:104A500051F48E010C5F1F4F7301A7E0CA2ED12CB9
:104A6000CC0EDD1E25C0F301808D918D0196918FB6
:104A7000808F9695879530E08217930751F7C30191
:104A8000BE016F5F7F4F0E94F823F30117821682E9
:104A90001082138211861086118214821386128668
:104AA00012821582178A1786108A118A128A29C0E3
:104AB000EF81F8858081F8018083EF81F88523817B
:104AC0002083F80181918F01EF81F885838390E045
:104AD000821B9109F701978386830E94212EF3019F
:104AE0006787708B818B928B2F8138852F5F3F4F2B
:104AF00038872F8342E050E0E40EF51E0C151D05AB
:104B0000B9F62C960FB6F894DEBF0FBECDBFCF918D
:104B1000DF911F910F91FF90EF90DF90CF90BF90AA
:104B2000AF909F907F906F905F904F903F902F90AD
:104B30000895AF92BF92CF92DF92EF92FF920F93C0
:104B40001F93DF93CF9300D00F92CDB7DEB78C01C8
:104B50005B0169017A01DE011196E3E9F1E083E08E
:104B600001900D928150E1F7C801BE016F5F7F4F48
:104B70000E94F823A801D80120E030E0FA01108259
:104B8000F501E20FF31F8081FA01838316968C935F
:104B9000169717961C9217972F5F3F4F4F5F5F4FE7
:104BA00012962330310551F781E0F801878B128E80
:104BB0000E94212EF8016787708B818B928BC70131
:104BC000B60122E030E040E050E00E94E136F8011A
:104BD000238B348B458B568B0F900F900F90CF917A
:104BE000DF911F910F91FF90EF90DF90CF90BF90DA
:104BF000AF900895EF92FF920F937C010E94992548
:104C0000F701028F118E108E0F91FF90EF90089593
:104C10002F923F924F925F926F927F928F929F92CC
:104C2000AF92BF92CF92DF92EF92FF920F931F93BA
:104C3000DF93CF93CDB7DEB762970FB6F894DEBFA0
:104C40000FBECDBF8B5B9F4FDC012D913D914D91F0
:104C50005D912D833E834F8358872D903D904D90DD
:104C60005D906D907D908D909D902D913D914D9199
:104C70005D9129833A834B835C832D913D914D91C6
:104C80005C9113972B873C874D875E87A555B04075
:104C9000B88BAF871A8619861985103108F469C058
:104CA00069857A856F7070706F5F7F4F660F771FB1
:104CB000660F771FEF85F8896E0F7F1FA985BA856C
:104CC0001D96AF70B0701196AA0FBB1FAA0FBB1F25
:104CD000AE0FBF1F89859A8508968F7090700196D8
:104CE000880F991F880F991F8E0F9F1F2D913D913F
:104CF0004D915C91FC0180819181A281B381282733
:104D000039274A275B27FB0180819181A281B381EA
:104D1000282739274A275B27E985FA853296EF70DD
:104D2000F0703196EE0FFF1FEE0FFF1F8F859889F1
:104D3000E80FF91F80819181A281B381282739274B
:104D40004A275B27DA01C901880F991FAA1FBB1FD9
:104D5000222757FD2395332744275527822B932B52
:104D6000A42BB52BFB0180839183A283B3831431E1
:104D7000C8F429813A814B815C8126253725482555
:104D80005925222133214421552189819A81AB81E2
:104D9000BC81282739274A275B27275636484D47A5
:104DA000554A46C0183298F4A401930122253325B0
:104DB0004425552589819A81AB81BC8128273927D3
:104DC0004A275B272F5534414642514931C01C3395
:104DD000E8F4A40193012229332944295529898122
:104DE0009A81AB81BC81282339234A235B23D401D8
:104DF000C30182219321A421B521282B392B4A2BD1
:104E00005B2B24523344444E504712C0A4019301FB
:104E1000222533254425552589819A81AB81BC8182
:104E2000282739274A275B272A523E434D495543B5
:104E3000ED80FE800F811885EBE116950795F794BC
:104E4000E794EA95D1F78D819E81AF81B88575E0B1
:104E5000880F991FAA1FBB1F7A95D1F7E82AF92A54
:104E60000A2B1B2B8B859C85AD85BE85E80EF91E14
:104E70000A1F1B1FE985FA85EF70F0703196EE0F5F
:104E8000FF1FEE0FFF1FAF85B889EA0FFB1F808160
:104E90009181A281B381E80EF91E0A1F1B1FE20E49
:104EA000F31E041F151F620151019EE1AA0CBB1CD9
:104EB000CC1CDD1C9A95D1F782E056944794379428
:104EC00027948A95D1F7A228B328C428D528E98544
:104ED000FA853196FA87E98729813A814B815C818D
:104EE0002B873C874D875E87B301898A9A8A2D80FC
:104EF0003E804F805884E035F10589F0C701D80124
:104F00008D839E83AF83B8873501460149895A89CD
:104F1000CB01DA0189839A83AB83BC83BDCEEF8555
:104F2000F889EB5BFF4F80819181A281B381E80E0C
:104F3000F91E0A1F1B1FE082F182028313836F8513
:104F40007889675B7F4FFB0180819181A281B3816A
:104F50002D813E814F815885820F931FA41FB51F5D
:104F600080839183A283B383EF85F889E35BFF4F4E
:104F700080819181A281B381A80EB91ECA1EDB1E59
:104F8000A082B182C282D382EF85F889EF5AFF4FA7
:104F900080819181A281B381860D971DA81DB91DC5
:104FA00080839183A283B3836F8578896B5A7F4F07
:104FB000FB0180819181A281B38129813A814B815A
:104FC0005C81820F931FA41FB51F80839183A283EE
:104FD000B38362960FB6F894DEBF0FBECDBFCF91FC
:104FE000DF911F910F91FF90EF90DF90CF90BF90D6
:104FF000AF909F908F907F906F905F904F903F9079
:105000002F900895CF93DF939C01EC01CC5BDF4F91
:10501000988183E08927F901E80FF11D64839F5F80
:105020009883903421F4C9010E9408261882DF91E8
:10503000CF910895FC01E75AFF4F208131814281D1
:1050400053812F5F3F4F4F4F5F4F20833183428308
:1050500053830E94022881E090E008950F931F93EC
:10506000CF93DF93EC0160E80E9402288E010C5B75
:105070001F4F04C0CE0160E00E940228F801808129
:105080008833C1F7CE0160E00E940228CE0160E0C3
:105090000E940228CE0160E00E9402288E01075A79
:1050A0001F4FF8012081318142815381FDE15695E6
:1050B000479537952795FA95D1F7CE01622F0E9433
:1050C0000228F8012081318142815381E5E1569522
:1050D000479537952795EA95D1F7CE01622F0E9423
:1050E0000228F80120813181428153817DE056956B
:1050F0004795379527957A95D1F7CE01622F0E9473
:105100000228F801208131814281538165E0569562
:105110004795379527956A95D1F7CE01622F0E9462
:105120000228F8016081660F660F660FCE010E94AB
:105130000228DF91CF911F910F910895EF92FF9276
:105140000F931F93CF93DF93EC010E942E28FE0153
:10515000EB5BFF4F60E070E0208131814281538141
:10516000B22FAA2799278827E52EFF240027112789
:10517000E82AF92A0A2B1B2BB42FA32F922F88275A
:1051800080709070B070E82AF92A0A2B1B2B232F0D
:10519000342F452F5527207040705070E22AF32A93
:1051A000042B152BE192F192019311936F5F7F4FC6
:1051B0006530710589F69E012B5B3F4FC901DF9178
:1051C000CF911F910F91FF90EF9008951092950548
:1051D0001092940580EA91E0909393058093920554
:1051E00008950F931F938C018B5B9F4F66EE75E0C4
:1051F00044E150E00E94FB03075A1F4FF801108260
:1052000011821282138205511040F80110821F9101
:105210000F910895BF92CF92DF92EF92FF920F937A
:105220001F93CF93DF93EC013DE9C32ED12CC80E21
:10523000D91E0E949E28D601FC0184E101900D92A6
:105240008150E1F7CE010E94F1288E01035A1F4FD1
:105250002CE5B22E9DE9E92EF12CEC0EFD1EE88125
:10526000F981D8016D918D016B250190F081E02DC0
:10527000CE0109950E151F0591F7860181EBE82EE9
:10528000F12CEC0EFD1EE881F9810190F081E02DFA
:10529000CE01D8016D918D0109950E151F0599F765
:1052A000CE010E949E28DF91CF911F910F91FF9018
:1052B000EF90DF90CF90BF900895CF92DF92EF9262
:1052C000FF920F931F93CF93DF938C017B01EA0131
:1052D0006DE5C62ED12CC80ED91E80E4D6011D92D4
:1052E0008A95E9F741345105FCF0C8010E94F12884
:1052F0000BC0F70161917F01D801ED91FC91019004
:10530000F081E02DC80109952197BFEFCF3FDB0762
:1053100081F7C8010E949E28D601FC0184E101901A
:105320000D928150E1F704C0C601B7010E945204FA
:10533000C8010E94F128E60156E3D52E4DE9E42E7E
:10534000F12CE00EF11ED801ED91FC9169916D25D3
:105350000190F081E02DC8010995CE15DF0599F780
:10536000DF91CF911F910F91FF90EF90DF90CF9041
:1053700008952F923F924F925F926F927F928F92F9
:105380009F92AF92BF92CF92DF92EF92FF920F93D4
:105390001F93DF93CF93CDB7DEB7A2970FB6F894E4
:1053A000DEBF0FBECDBF8B5B9F4FDC012D913D91CA
:1053B0004D915D9129833A834B835C832D913D917F
:1053C0004D915D912D833E834F8358872D913D9163
:1053D0004D915D9129873A874B875C876D907D90D1
:1053E0008D909D902D913D914D915D912D873E87A2
:1053F0004F87588B2D913D914D915D91298B3A8B23
:105400004B8B5C8B2D913D914D915D91BAA3A9A3DE
:105410002D8B3E8B4F8B588F8D919D910D90BC9114
:10542000A02DE9A1FAA1E156F040FAA3E9A32AEFE1
:1054300035E03C8F2B8F41E050E05A8F498F0EC1F1
:10544000598D503108F4CBC0698D7A8D6F707070B2
:10545000E98DFA8D3297EF70F0703196EE0FFF1FE5
:10546000EE0FFF1F89A19AA1E80FF91FA080B1805C
:10547000C280D380E98DFA8D3F97EF70F07031963E
:10548000EE0FFF1FEE0FFF1FE80FF91F6080718006
:1054900082809380E98DFA8D3797EF70F0703196A6
:1054A000EE0FFF1FEE0FFF1FE80FF91F6F5F7F4F1B
:1054B000660F771F660F771F680F791FE080F180F6
:1054C00002811381FB0180819181A281B381E80E69
:1054D000F91E0A1F1B1FD601C50121E1B695A7952C
:1054E000979587952A95D1F7A6019501FFE0220FA0
:1054F000331F441F551FFA95D1F7822B932BA42BF2
:10550000B52BA6019501EAE0569547953795279565
:10551000EA95D1F782279327A427B527A6019501FD
:10552000FDE0220F331F441F551FFA95D1F7E3E129
:10553000D694C794B794A794EA95D1F72A293B2922
:105540004C295D2982279327A427B527E80EF91E49
:105550000A1F1B1FD401C30127E0B695A795979595
:1055600087952A95D1F7A4019301F9E1220F331F02
:10557000441F551FFA95D1F7822B932BA42BB52BE3
:10558000A4019301E3E05695479537952795EA9551
:10559000D1F782279327A427B527A4019301FEE022
:1055A000220F331F441F551FFA95D1F7E2E196945D
:1055B000879477946794EA95D1F726293729482963
:1055C000592982279327A427B527E80EF91E0A1F19
:1055D0001B1FDB01ED92FD920D931C931397EB8D36
:1055E000FC8D3496FC8FEB8F298D3A8D2F5F3F4FCA
:1055F0003A8F298F8D899E89AF89B88D29893A89FB
:105600004B895C892D8B3E8B4F8B588F2D853E852A
:105610004F855889298B3A8B4B8B5C8B69847A84B4
:105620008B849C842D813E814F81588529873A87C0
:105630004B875C8729813A814B815C812D833E8336
:105640004F83588729823A824B825C822D8D3E8D12
:105650004F8D58A12D873E874F87588B2B8D3C8DC2
:10566000F901A590B590C590D490A80EB91ECA1E98
:10567000DB1E2D853E854F8558890BE05695479555
:10568000379527950A95D1F78D859E85AF85B88981
:1056900015E1880F991FAA1FBB1F1A95D1F7282B58
:1056A000392B4A2B5B2B8D859E85AF85B889F6E01B
:1056B000B695A79597958795FA95D1F7ED84FE84D1
:1056C0000F851889EAE1EE0CFF1C001F111FEA95F7
:1056D000D1F78E299F29A02BB12B282739274A27BC
:1056E0005B278D859E85AF85B88979E1B695A795AD
:1056F000979587957A95D1F7ED84FE840F85188963
:1057000067E0EE0CFF1C001F111F6A95D1F78E2970
:105710009F29A02BB12B282739274A275B27A20EC8
:10572000B31EC41ED51E89899A89AB89BC892D896F
:105730003E894F89588D82279327A427B5272D8529
:105740003E854F85588982239323A423B5232D8931
:105750003E894F89588D82279327A427B527A80E05
:10576000B91ECA1EDB1EE98DFA8D3197EF70F070FD
:105770003196EE0FFF1FEE0FFF1F49A15AA1E40F54
:10578000F51F80819181A281B381A80EB91ECA1E26
:10579000DB1EE980FA800B811C813DE016950795A0
:1057A000F794E7943A95D1F789819A81AB81BC81CE
:1057B00023E1880F991FAA1FBB1F2A95D1F7E82A5A
:1057C000F92A0A2B1B2B89819A81AB81BC81F2E0DB
:1057D000B695A79597958795FA95D1F729813A813E
:1057E0004B815C81EEE1220F331F441F551FEA9568
:1057F000D1F7822B932BA42BB52BE826F9260A2769
:105800001B2789819A81AB81BC8176E1B695A795EA
:10581000979587957A95D1F729813A814B815C815B
:105820006AE0220F331F441F551F6A95D1F7822B60
:10583000932BA42BB52BE826F9260A271B27D60184
:10584000C501860D971DA81DB91D8D8F9E8FAF8F29
:10585000B8A32D803E804F80588429853A854B859A
:105860005C85222A332A442A552A89819A81AB8170
:10587000BC81282239224A225B228D819E81AF8100
:10588000B88582239323A423B523282A392A4A2AB8
:105890005B2A2E0C3F1C401E511E2A0C3B1C4C1C2C
:1058A0005D1CAB8DBC8DA65FB64009F0C9CDE9A1EA
:1058B000FAA1EB5BFF4F80819181A281B381280E19
:1058C000391E4A1E5B1E208231824282538269A1A8
:1058D0007AA1675B7F4FFB0180819181A281B381B7
:1058E00029813A814B815C81820F931FA41FB51FD0
:1058F00080839183A283B38369A17AA1635B7F4F85
:10590000FB0180819181A281B3812D813E814F81F4
:105910005885820F931FA41FB51F80839183A28394
:10592000B38369A17AA16F5A7F4FFB018081918176
:10593000A281B38129853A854B855C85820F931FAF
:10594000A41FB51F80839183A283B383E9A1FAA129
:10595000EB5AFF4F60807180828093802D8D3E8D49
:105960004F8D58A1260D371D481D591D20833183A9
:105970004283538369A17AA1675A7F4FFB018081DB
:105980009181A281B3812D853E854F855889820FF3
:10599000931FA41FB51F80839183A283B38369A142
:1059A0007AA1635A7F4FFB0180819181A281B381EB
:1059B00029893A894B895C89820F931FA41FB51FDF
:1059C00080839183A283B38369A17AA16F597F4FAA
:1059D000FB0180819181A281B3812D893E894F890C
:1059E000588D820F931FA41FB51F80839183A283BC
:1059F000B383A2960FB6F894DEBF0FBECDBFCF9192
:105A0000DF911F910F91FF90EF90DF90CF90BF90AB
:105A1000AF909F908F907F906F905F904F903F904E
:105A20002F900895CF93DF939C01EC01CC5BDF4F67
:105A3000988183E08927F901E80FF11D64839F5F56
:105A40009883903421F4C9010E94B9291882DF910A
:105A5000CF910895FC01EB59FF4F208131814281A4
:105A600053812F5F3F4F4F4F5F4F208331834283DE
:105A700053830E94122D81E090E008951092460613
:105A80001092450688EA91E090934406809343067D
:105A90000895823000F5E82FF0E0EE0FFF1FE45F7D
:105AA000F84F71836083882319F08130A1F408C016
:105AB000809169008C7F842B80936900E89A089517
:105AC00080916900440F551F440F551F837F842B1D
:105AD00080936900E99A0895823080F4882319F050
