:100000000C94E7030C94182F0C94452F0C942204A5
:100010000C9422040C9422040C9422040C942204C8
:100020000C9422040C9422040C9422040C942204B8
:100030000C9422040C9422040C9422040C942204A8
:100040000C94722F0C9422040C94AD310C94FB315F
:100050000C9422040C9422040C9422040C94220488
:100060000C9422040C9422046170692E78697665E0
:100070006C792E636F6D003E3E3E20524553504FCB
:100080004E5345205245434549564544202D2D2D7C
:10009000002530325800446174612073656E74002D
:1000A00053656E64696E67206461746120746F20AB
:1000B000436F736D0050555420687474703A2F2F3D
:1000C00024462F76322F66656564732F24452E6A89
:1000D000736F6E20485454502F312E300D0A486FE4
:1000E00073743A2024460D0A582D4170694B657986
:1000F0003A2024450D0A436F6E74656E742D4C656D
:100100006E6774683A2024440D0A0D0A2448005092
:100110007265706172696E67207374617368002222
:100120007D7D5D7D00222C2273796D626F6C223A99
:100130002200225D2C22756E6974223A7B226C614A
:1001400062656C223A2200222C226171653A66694E
:10015000726D776172655F76657273696F6E3D006F
:10016000636F6D7075746564007230007261770042
:10017000222C226171653A646174615F6F726967F4
:10018000696E3D00222C226171653A73656E736F52
:10019000725F696E6465783D00222C226171653A58
:1001A00073656E736F725F616464726573733D0033
:1001B0005F7230005F7261770053656E736F7220FB
:1001C000547970653A2000222C2274616773223AB8
:1001D0005B226171653A73656E736F725F747970DB
:1001E000653D00222C2263757272656E745F7661C4
:1001F0006C7565223A22007B2264617461737472AB
:1002000065616D73223A5B7B226964223A20220089
:1002100057726F7465204645454420494420746FE9
:1002200020454550524F4D3A200057726F7465205B
:10023000415049204B455920746F20454550524F3D
:100240004D3A20003E3E4143544956415445443CBA
:100250003C002F76322F646576696365732F003C0E
:100260003C3C2052455120002074696D65732C2060
:1002700072657374617274696E670050726F76692B
:1002800073696F6E696E67206661696C65642000D2
:100290002E2E2E0046454544204C454E47544820BE
:1002A0003D2000415049204B4559204C454E475474
:1002B00048203D20003E3E3E464F554E4420464598
:1002C00045445F49440A00666565645F6964003EB1
:1002D0003E3E464F554E44204150494B45590A0039
:1002E0006170696B657900546F6B656E3A20003EF2
:1002F0003E3E2050524F564953494F4E494E47209B
:1003000043414C4C4241434B00556E696E697469E0
:10031000616C697A6564202D207465737420766140
:100320006C7565203D200050726576696F75736C41
:10033000792070726F766973696F6E6564002F61E2
:100340006374697661746500636F6D7075746520A0
:100350007368613A200053657269616C20233A200A
:10036000005352563A2000444E53206C6F6F6B7509
:1003700070207375636365656465642E0046616C07
:100380006C696E67206261636B20746F20586976B8
:10039000656C792053746174696320495000444E40
:1003A00053206661696C656400444E533A200047EF
:1003B000573A200049503A20004448435020666193
:1003C000696C656420726573657474696E67004654
:1003D00061696C656420746F206163636573732069
:1003E00045746865726E657420636F6E74726F6CAD
:1003F0006C6572004567672053657269616C2023E4
:100400003A20200050616972696E67204576656EFA
:100410007420436F756E743A20002000205265638B
:100420006569766564205061636B657420447572FC
:10043000696E672050616972696E67005F00300005
:10044000202053656E736F722056616C75653A207B
:1004500000202053656E736F7220556E6974733A75
:100460002000202053656E736F7220547970653AB6
:100470002000202053656E736F7220496E6465788A
:100480003A20002020536F757263652053656E73A8
:100490006F7220416464726573733A2000202052A9
:1004A000656D6F74652053746174696F6E2041646B
:1004B00064726573733A2000202052656D6F746515
:1004C000204669726D776172652056657273696F37
:1004D0006E3A200020205061636B6574205479705F
:1004E000653A20005061636B6574205265636569ED
:1004F00076656420402000546F6F204C6F6E67203B
:1005000053696E6365204C61737420526573706F1C
:100510006E73652046726F6D20436F736D2C205291
:100520006573657474696E670050616972696E679E
:1005300020636F6D706C65746500556E6974204141
:100540006464726573733A20000A5B4169722051DA
:1005500075616C69747920456767202D204261734D
:100560006520456767202D2076322E30335D0000F0
:100570000108000604000145000082000040002040
:1005800000504F535420244620485454502F312EAD
:10059000300D0A486F73743A2024460D0A2446240D
:1005A000534163636570743A202A2F2A0D0A436F02
:1005B0006E74656E742D4C656E6774683A202444C1
:1005C0000D0A436F6E74656E742D547970653A2010
:1005D0006170706C69636174696F6E2F782D7777C5
:1005E000772D666F726D2D75726C656E636F6465C5
:1005F000640D0A0D0A245300474554202446245311
:1006000020485454502F312E300D0A486F73743ADD
:100610002024460D0A24460D0A0D0A004163636535
:1006200070743A20746578742F68746D6C00E30000
:1006300004FA0001000000010123456789ABCDEFFA
:10064000FEDCBA9876543210F0E1D2C3982F8A4279
:1006500091443771CFFBC0B5A5DBB5E95BC2563914
:10066000F111F159A4823F92D55E1CAB98AA07D82C
:10067000015B8312BE853124C37D0C55745DBE724F
:10068000FEB1DE80A706DC9B74F19BC1C1699BE4CF
:100690008647BEEFC69DC10FCCA10C246F2CE92D5F
:1006A000AA84744ADCA9B05CDA88F97652513E9883
:1006B0006DC631A8C82703B0C77F59BFF30BE0C68A
:1006C0004791A7D55163CA0667292914850AB72718
:1006D00038211B2EFC6D2C4D130D385354730A65B5
:1006E000BB0A6A762EC9C281852C7292A1E8BFA28C
:1006F0004B661AA8708B4BC2A3516CC719E892D1F4
:10070000240699D685350EF470A06A1016C1A41976
:10071000086C371E4C774827B5BCB034B30C1C3975
:100720004AAAD84E4FCA9C5BF36F2E68EE828F7434
:100730006F63A5781478C8840802C78CFAFFBE904E
:10074000EB6C50A4F7A3F9BEF27871C667E6096AAC
:1007500085AE67BB72F36E3C3AF54FA57F520E51E2
:100760008C68059BABD9831F19CDE05B00000000AE
:10077000240027002A0000000000250028002B008C
:1007800000000000230026002900040404040404DF
:100790000404020202020202030303030303010230
:1007A00004081020408001020408102001020408FF
:1007B00010200000000700020100000304060000F2
:1007C000000000000000CF057F2AD72E6733EDEE32
:1007D000F7E085EC98E001C08193EF3FF907E0F383
:1007E000D9F311241FBECFEFD8E0DEBFCDBF14BEBA
:1007F00088E10FB6F89480936000109260000FBEFD
:1008000011E0A0E0B1E0E8EAF1E702C005900D9246
:10081000A63BB107D9F717E0A6EBB1E001C01D92E6
:10082000AD3EB107E1F717E0CEECD7E004C0229768
:10083000FE010E949738C63CD107C9F70E94BD331C
:100840000C94D2380C940000FB01DC0102C005902E
:100850000D9241505040D8F70895FB01DC010D90F6
:100860000020E9F7119705900D920020E1F7089517
:10087000FC0105900020E9F7809590958E0F9F1F51
:100880000895FB01DC014150504030F08D910590FE
:10089000801919F40020B9F7881B990B0895FB0102
:1008A00055915523A9F0BF01DC014D914517411128
:1008B000E1F759F4CD010590002049F04D91401524
:1008C0004111C9F3FB014111EFCF81E090E00197A5
:1008D000089546EB51E00E94B3040895FB01DC014A
:1008E00004C08D910190801921F441505040C8F707
:1008F000881B990B0895FB01DC0102C001900D9249
:1009000041505040D8F70895FB01DC010D900020C4
:10091000E9F7119701900D920020E1F70895FB018E
:10092000DC0101900D920020E1F70895FB01DC014C
:100930004150504030F08D910190801919F4002001
:10094000B9F7881B990B0895FB01DC014150504019
:1009500048F001900D920020C9F701C01D9241504E
:100960005040E0F70895009731F4DA018D919C91A1
:10097000009709F40EC0DC01FB013D912191222377
:1009800019F03217C9F3FACF332331F4DA011D928B
:100990001C928827992708951197AF93BF93FB0165
:1009A0003D912191321771F4332321F4882799273F
:1009B000119702C01E921196FA01A193B0839F91E4
:1009C0008F910895222369F7EACFA0E0B0E0EBEE23
:1009D000F4E00C94A538EC017B018A01690109C09F
:1009E000CE012196F70161917F01F6010995015031
:1009F000104001151105A1F7CDB7DEB7E8E00C9462
:100A0000C138FB019F01E8944230C4F04532B4F490
:100A10004A3029F497FB1EF4909581959F4F642FDF
:100A200077270E944438805D8A330CF0895D81937A
:100A3000CB010097A1F716F45DE251931082C90132
:100A40000C945605FA01CF93FF93EF93223044F1B3
:100A5000253234F5C22FE894CA3049F497FB3EF4AE
:100A600090958095709561957F4F8F4F9F4F2C2F5C
:100A7000332744275527FF93EF930E945838EF916F
:100A8000FF91605D6A330CF0695D6193B901CA0141
:100A9000605070408040904051F716F4CDE2C19311
:100AA00010828F919F91CF910C945605DC01FC012F
:100AB000672F71917723E1F7329704C07C916D9392
:100AC00070836291AE17BF07C8F308959C01F9992E
:100AD000FECF1FBA32BD21BD60BD0FB6F894FA9AA1
:100AE000F99A0FBE08950F931F93CF93DF938B0155
:100AF000BC01E80120E030E0A42FB0E01BC0FB0106
:100B00008081E82FF0E094E0F595E7959A95E1F77C
:100B1000EE5AFE4F80818883FB018191BF01E82F4F
:100B2000F0E0EF70F070EE5AFE4F808189832F5F06
:100B30003F4F22962A173B0714F3AA0FBB1FA00FA3
:100B4000B11F1C92DF91CF911F910F910895DF92F9
:100B5000EF92FF920F931F93CF93DF937C01D42EDC
:100B60008B01C0E0D0E0C7018C0F9D1FB80141E0B0
:100B70000E947305C53019F4F801128202C0F80111
:100B8000D28221960D5F1F4FC630D10561F7DF91EC
:100B9000CF911F910F91FF90EF90DF9008950F93E9
:100BA0001F9304E314E088EB91E0B8010E94201247
:100BB00089EB91E00E9453258BED91E0B8010E94F2
:100BC000B50E10922E0410922D048EE491E09093B5
:100BD0002C0480932B0410923204109230041F9145
:100BE0000F9108950E94221B81E090E008950E94D9
:100BF000BA2F60932704709328048093290490935C
:100C00002A0408950E94BA2FE0E020912704309131
:100C100028044091290450912A04621B730B840B11
:100C2000950B615C77428940904008F0E1E08E2F9F
:100C3000089580913A040E94A61E892B41F08BEC06
:100C400097E067E770E00E9441340E94F70508953D
:100C50008F929F92AF92BF92CF92DF92EF92FF92CC
:100C60000F931F93DF93CF93CDB7DEB7CA54D04015
:100C70000FB6F894DEBF0FBECDBF8BE294E00E94AA
:100C8000731D882E60E4962E5BE0A52EB12CAC0E71
:100C9000BD1ED501E92D1D92EA95E9F743E0C42E6A
:100CA000D12CCC0EDD1E88E0D6011D928A95E9F785
:100CB00080910001909101019A8389838BED91E0ED
:100CC0000E94C50DDC010D900020E9F78D01015057
:100CD0001040081B190B8BED91E00E94C50DBC0163
:100CE000C5010E948404C5017E010894E11CF11C29
:100CF000B7010E9484048BED91E00E94BD0D0F5F4F
:100D00001F4F0A0D1B1DB8014DE20E94A705C5012A
:100D1000B7010E9484048BED91E00E94C20D90E027
:100D2000B6014AE050E00E940105C501B6010E94EB
:100D300084048BE294E067EF71E00E94F6338BE26B
:100D400094E0B5010E94DC358BE294E063EE71E043
:100D50000E94F6338BED91E00E94CF0DAB01BC01F8
:100D60008BE294E02AE030E00E9456358BE294E07A
:100D700067EC71E00E94F6338BEC97E069EB71E071
:100D80000E94F6338BED91E00E94C50DBC018BEC07
:100D900097E00E94DF358BED91E00E94C50D64EB7A
:100DA00071E00E944F04892B09F1F50111929A9488
:100DB000E9F78BED91E00E94C50D8C018BED91E080
:100DC0000E94C50DDC010D900020E9F7A81BB90BAE
:100DD0001597C501B801AD010E94A4048BE294E00F
:100DE000B5010E94DC35CC24C39436C08BED91E074
:100DF0000E94C50D60EB71E00E944F04892B11F138
:100E0000D5011D929A94E9F78BED91E00E94C50DF2
:100E10008C018BED91E00E94C50DDC010D9000204E
:100E2000E9F7A81BB90B1497C501B801AD010E94E1
:100E3000A4048BE294E0B5010E94DC35CC24EE24BE
:100E4000E3940BC08BED91E00E94C50DBC018BE2D9
:100E500094E00E94DC35CC24EE248BE294E069E936
:100E600071E00E94F6338E01055F1F4F80E4F801A8
:100E700011928A95E9F78BED91E00E94BD0DB801C2
:100E80004AE30E94A7058BE294E0B8010E94DC359A
:100E90008BE294E064E871E00E94F6338BED91E020
:100EA0000E94C20D682F8BE294E04AE050E00E945D
:100EB00026358BE294E060E771E00E94F633CC20A7
:100EC00029F08BE294E06CE671E00BC0EE2029F093
:100ED0008BE294E069E671E004C08BE294E060E6A6
:100EE00071E00E94F6338BE294E067E471E00E94C7
:100EF000F6338BED91E00E94AF0DBC018BE294E0E4
:100F00004AE050E00E94F8348BE294E062E371E042
:100F10000E94F6338BED91E00E94CA0DBC018BE27A
:100F200094E00E94DC358BE294E065E271E00E947F
:100F3000F6338BED91E00E94CA0DBC018BE294E088
:100F40000E94DC358BE294E06FE171E00E94F633A1
:100F50008BE294E00E944C1B8BEC97E06FE071E019
:100F60000E9441348BE294E00E94931A2DB73EB761
:100F70002E5030400FB6F8943EBF0FBE2DBFEDB7D8
:100F8000FEB7319625EB30E0ADB7BEB712963C9375
:100F90002E93119748E650E05383428322E330E0DA
:100FA000358324835783468321E030E031872087CF
:100FB00093878287848615860E94D51BEDB7FEB77E
:100FC0003E960FB6F894FEBF0FBEEDBF8BEC97E0D8
:100FD00060EA70E00E9441340E94861E80933A04C9
:100FE0008BEC97E066E970E00E944134C65BDF4F0E
:100FF0000FB6F894DEBF0FBECDBFCF91DF911F912A
:101000000F91FF90EF90DF90CF90BF90AF909F90A7
:101010008F900895EF92FF920F931F937C0182E3CC
:1010200090E0B70141E150E026E635E00E94E5049A
:101030000BEC17E0C80160E172E00E94F633C801D2
:10104000B7010E94DF351F910F91FF90EF90089537
:10105000EF92FF920F931F937C0181E090E0B70124
:1010600041E350E026E635E00E94E5040BEC17E092
:10107000C8016AE272E00E94F633C801B7010E941B
:10108000DF351F910F91FF90EF900895AF92BF92BF
:10109000CF92DF92EF92FF920F931F93CF93DF9344
:1010A0005C0179018A0116950795F794E794C0E0F1
:1010B000D0E0C62EDD2414C089EB91E06EE272E030
:1010C0000E949125C801B7010E94C82F89EB91E0C9
:1010D000B5010E949125C801B7010E94C82F219631
:1010E000CC15DD0548F389EB91E06EE272E00E94D9
:1010F0009125DF91CF911F910F91FF90EF90DF909D
:10110000CF90BF90AF9008951F93CF93DF93EC01E2
:1011100010E088818A3030F48BEC97E06EE374E065
:101120000E94F6338BEC97E0688140E150E00E942A
:101130002635153031F08BEC97E06CE374E00E94BB
:10114000F6331F5F2196163021F78BEC97E00E9453
:101150002134DF91CF911F910895CF92DF92EF92CA
:10116000FF920F931F93CF93DF93182F7B016A0198
:101170008BEC97E06FEE72E00E9441348BEC97E0CD
:10118000612F70E04AE050E00E94BD358BEC97E0A3
:10119000B7014AE050E00E94BD358BEC97E0B60104
:1011A0004AE050E00E94BD35C7018E5C9D4F62E071
:1011B00071E00E946904EC0110E000E0EE24CC2410
:1011C00095C08BEC97E067EE72E00E94F6338BECF3
:1011D00097E0BE010E94DF35002351F0CE010E944E
:1011E0002808FE0101900020E9F73197EE2EEC1A55
:1011F000112351F0CE010E940A08FE010190002047
:10120000E9F73197CE2ECC1ACE0160EE72E046E0BF
:1012100050E00E944104892B11F000E007C08BECE4
:1012200097E06FEC72E00E94F63301E0CE0167ECCC
:1012300072E046E050E00E944104892B11F010E07A
:1012400007C08BEC97E065EB72E00E94F63311E08B
:10125000CC2009F444C0EE2009F441C081E0809321
:1012600026048BEC97E063EA72E00E94F6338BEC85
:1012700097E06E2D4AE050E00E9438358BEC97E005
:1012800064E972E00E94F6338BEC97E06C2D4AE043
:1012900050E00E943835F999FECF1FBA12BC11BC3C
:1012A00083E780BD0FB6F894FA9AF99A0FBE89EBDE
:1012B00091E06AE171E00E94912560E177E280E0CF
:1012C00090E00E94C82F28E088E190E00FB6F894E3
:1012D000A895809360000FBE20936000FFCF80E050
:1012E00090E062E071E00E946904EC01209709F04F
:1012F00068CF8BEC97E060E972E00E944134DF91A7
:10130000CF911F910F91FF90EF90DF90CF900895B4
:10131000BF92CF92DF92EF92FF920F931F93DF93D2
:10132000CF93CDB7DEB7A6970FB6F894DEBF0FBE4A
:10133000CDBF6C01DE015396E2E6F1E084E101905D
:101340000D928150E1F78E010F5F1F4F82E1F8018E
:1013500011928A95E9F78BEC97E066E573E00E94BD
:10136000F633780100E010E0EAE3BE2EC8018C5CA1
:101370009B4FB70141E00E947305053019F4F70156
:10138000128202C0F701B2820F5F1F4F83E090E02C
:10139000E80EF91E0630110549F78BEC97E08E0137
:1013A0000F5F1F4FB8010E94DF358BEC97E068E4B8
:1013B00073E00E9441348CEB95E0BE016D5E7F4F7F
:1013C00044E150E00E94F62A8CEB95E0B8010E94BF
:1013D000DC358CEB95E00E94A32AB60144E10E9423
:1013E00073058BEC97E067E071E00E94DC350E94AA
:1013F000A124BC018BEC97E04AE050E00E94093543
:10140000C6016EE373E00E942D048BEC97E0B601F9
:101410000E94DF35F60113AAA6960FB6F894DEBF38
:101420000FBECDBFCF91DF911F910F91FF90EF9035
:10143000DF90CF90BF9008955F926F927F928F92CE
:101440009F92AF92BF92CF92DF92EF92FF920F9353
:101450001F93DF93CF93CDB7DEB7E4970FB6F89421
:10146000DEBF0FBECDBF8E010F5F1F4FC8010E94B0
:10147000880910922604A0E1CA2EA7E2DA2EE12CF8
:10148000F12CAA24BB24502E012F30C08BEC97E006
:101490006BE772E00E94F6338BEC97E064E070E05B
:1014A0004AE050E00E94AA358BEC97E068E672E0D3
:1014B0000E9441348BEC97E00E94173389EB91E056
:1014C00067E171E00E94912560E177E280E090E0C1
:1014D0000E94C82F28E088E190E00FB6F894A89504
:1014E000809360000FBE20936000FFCF0E942717FB
:1014F0000E9487200E94BA2F3B014C01C616D706D6
:10150000E806F90698F78BEC97E00E942134809169
:101510002604882391F58BEC97E06FE572E00E943A
:10152000F63382E592E0652D702F48E650E02DEA13
:1015300038E00E94401E0894A11CB11C8BEC97E07F
:1015400067E071E00E94DC350E94A124BC018BECB5
:1015500097E04AE050E00E94093584E0A816B10403
:1015600009F494CFF8E9CF2EFAE3DF2EE12CF12C29
:10157000C60CD71CE81CF91CB9CF8BEC97E064E4CF
:1015800072E00E944134E4960FB6F894DEBF0FBEBD
:10159000CDBFCF91DF911F910F91FF90EF90DF9022
:1015A000CF90BF90AF909F908F907F906F905F9003
:1015B00008951F93F999FECF12BC11BCF89A10B58B
:1015C000133739F48BEC97E067E273E00E94413403
:1015D00015C08BEC97E069E073E00E94F6338BEC6A
:1015E00097E0612F40E150E00E94383581E00E9491
:1015F000B61E0E941C0A80E00E94B61E1F9108952C
:10160000DF92EF92FF920F931F93DF93CF93CDB7AB
:10161000DEB762970FB6F894DEBF0FBECDBFFE01F6
:10162000319682E1DF011D928A95E9F77F0100E0A2
:1016300010E0BAE3DB2EC8018C5C9B4FB70141E0A0
:101640000E947305053019F4F701128203C0D70117
:101650001296DC920F5F1F4FE3E0F0E0EE0EFF1EEC
:101660000630110541F78BEC97E00E9421348BEC9A
:1016700097E064EF73E00E94F6338BEC97E0BE01D5
:101680006F5F7F4F0E94DF358BEC97E00E94213423
:1016900084EF91E064E374E048E00E942919882314
:1016A00031F48BEC97E06FEC73E00E9441340E94C0
:1016B000D9148823F1F48BEC97E069EB73E00E9476
:1016C000413489EB91E066E271E00E94912560E18E
:1016D00077E280E090E00E94C82F28E088E190E067
:1016E0000FB6F894A895809360000FBE2093600019
:1016F000FFCF8BEC97E064EB73E00E94F63383E559
:1017000095E00E946C248BEC97E00E9421348BECD6
:1017100097E06FEA73E00E94F6338FE595E00E9450
:101720006C248BEC97E00E9421348BEC97E069EA03
:1017300073E00E94F63387E695E00E946C248BEC00
:1017400097E00E9421348BEC97E067E071E00E9403
:10175000DC350E94A124BC018BEC97E04AE050E00C
:101760000E94093588E690E060E00E941015882309
:10177000C9F48BEC97E06EE973E00E9441348BEC86
:1017800097E06DE773E00E9441348DEA80936B052A
:101790008BEC80936C0582E680936D058DE18093E0
:1017A0006E0506C08BEC97E067E673E00E9441345B
:1017B0008BEC97E061E673E00E94F6338BE695E0F0
:1017C0000E946C248BEC97E00E9421340E949916B1
:1017D00062960FB6F894DEBF0FBECDBFCF91DF91FA
:1017E0001F910F91FF90EF90DF9008950F931F933B
:1017F000CF93DF938C010E94BA2FAB01BC018BEC1D
:1018000097E02AE030E00E94D5348BEC97E06CE161
:1018100074E00E944134C0E0D0E0F801EC0FFD1FFD
:101820008BEC97E060814AE050E00E9426358BEC1B
:1018300097E06AE174E00E94F6332196C830D10542
:1018400061F78BEC97E00E9421348091DA018F5F81
:101850008093DA018BEC97E064E074E00E94F63349
:101860008BEC97E06091DA014AE050E00E94383555
:10187000DF91CF911F910F910895EF92FF920F93F7
:101880001F930BEC17E0C80164EE74E00E94F6337E
:101890000E94BA2FAB01BC01C8012AE030E00E94CF
:1018A000E434C80164ED74E00E94F6338BEDE82E59
:1018B00081E0F82EC7010E94AC0D682FC80140E1FD
:1018C00050E00E943835C80168EB74E00E94F6339E
:1018D000C7010E94AF0DBC01C8014AE050E00E9460
:1018E0000935C8016DE974E00E94F633C7010E9412
:1018F000B80D0E948408C80163E874E00E94F633C2
:10190000C7010E94BD0D0E948408C80162E774E00F
:101910000E94F633C7010E94C20D682FC8014AE039
:1019200050E00E943835C80162E674E00E94F63348
:10193000C7010E94C50DBC01C8010E94DF35C80166
:1019400061E574E00E94F633C7010E94CA0DBC0134
:10195000C8010E94DF35C80160E474E00E94F633DC
:10196000C7010E94CF0DAB01BC01C8012AE030E0E5
:101970000E949635C8010E9421341F910F91FF905B
:10198000EF9008950F930E9427170E9487200E94CE
:1019900019068BED91E00E94FB0D882301F18091E7
:1019A0003102E82FF0E0EE0FFF1FE75DFE4F608190
:1019B00071818F5F8093310289EB91E028EE33E0F3
:1019C00040E050E001E00E94932780913102843092
:1019D00010F0109231020E943D0C0E9428060E94D5
:1019E0000206882311F18BEC97E067EF74E00E9408
:1019F00041348BEC97E00E94173389EB91E063E26E
:101A000071E00E94912560E177E280E090E00E9421
:101A1000C82F28E088E190E00FB6F894A89580934D
:101A200060000FBE20936000FFCF89EB91E00E9421
:101A30000A26A8950F9108958BEC97E040E052ECB0
:101A400061E070E00E9436328BEC97E067E071E075
:101A50000E94DC350E94A124BC018BEC97E04AE097
:101A600050E00E9409358BEC97E069E475E00E9434
:101A700041348BEC97E06AE375E00E94F63384E32F
:101A800094E00E94840889EB91E063E271E028EB26
:101A90003BE040E050E00E9432278BED91E00E9455
:101AA000250E8BED91E066EF7BE00E94A60D04C051
:101AB00089EB91E00E940A268BED91E00E944F0E87
:101AC0008823B1F389EB91E00E94B32489EB91E084
:101AD0006EE272E00E9491258091DA01882319F06C
:101AE0008DE191E002C086E291E063E028EE33E010
:101AF00040E050E00E9446088BEC97E069E275E018
:101B00000E9441340E94000B80E291E063E028EEE5
:101B100033E040E050E00E9446080E94D90A8AE182
:101B200091E063E028EE33E040E050E00E94460898
:101B30000E94F70529E288E190E00FB6F894A89595
:101B4000809360000FBE209360000895FC01EF5A5F
:101B5000FF4F718360830895FC0180810895FC012B
:101B6000918180E0228130E0282B392BC901089532
:101B70009C01275F3F4FC90108959C01215F3F4FA2
:101B8000C9010895FC01858908959C012A5E3F4F93
:101B9000C90108959C012A5D3F4FC9010895FC01C8
:101BA00086A990E0A0E0B0E0BA2FA92F982F88274F
:101BB00027A930E040E050E0282B392B4A2B5B2B43
:101BC000542F432F322F222780AD90E0A0E0B0E0C9
:101BD000282B392B4A2B5B2B542F432F322F2227B4
:101BE00081AD90E0A0E0B0E0282B392B4A2B5B2B95
:101BF000B901CA010895CF93DF93EC010E94BB0F96
:101C00008823F9F080913B0490913C04892BC9F41E
:101C1000809140048333A9F4CE018E5B9F4F63E42F
:101C200074E046E050E00E946E04009751F4DE013B
:101C3000E0E4F4E08AE301900D928150E1F781E065
:101C400001C080E0DF91CF9108950F931F938C0125
:101C50000E94BA2F045B1F4FF8011082118212827A
:101C60001382605F784D8F4F9F4F92938293729350
:101C700062938F01085F1F4F81E0F8018083005558
:101C80001040F80185E58193D801AE5BBF4F86E037
:101C90000D9001928150E1F71F910F910895EF92FD
:101CA000FF920F931F93CF93DF93EC010E94BA2F03
:101CB0007B018C010E94BB0F882381F080913B0443
:101CC00090913C04892B51F4CF5ADF4FE881F98180
:101CD000C155D040309711F0CE010995C85BDF4F58
:101CE00088819981AA81BB81C854D040E816F90641
:101CF0000A071B0710F081E031C0FE01E45BFF4FD3
:101D000080819181A281B381A8019701281B390BA1
:101D10004A0B5B0BDA01C901815D9740A040B040DE
:101D200050F0E082F18202831383C05BDF4F81E0D9
:101D30008883C055D0408E01005B1F4FF801808121
:101D4000882359F00E944A10882339F080E0BE01B0
:101D500047E00E94A510F801108280E0DF91CF914A
:101D60001F910F91FF90EF900895FC01EF5AFF4FE4
:101D7000118210823F97DB0186E00D900192815025
:101D8000E1F781E461E044ED0E94E9100895782FC5
:101D90008CB581608CBD65B121E030E040E050E061
:101DA0000090310104C0220F331F441F551F0A94B5
:101DB000D2F7522F822F8095862385B99EBD0DB410
:101DC00007FEFDCF8EB57EBD0DB407FEFDCF4EB52F
:101DD000382F20E085B1582B55B98CB58E7F8CBD3E
:101DE00050E0422B532BCA01089580E090E00E94FE
:101DF000C70E80918B04853009F054C080E090EBD1
:101E00000E94C70E282F80918D04882371F4909131
:101E10008C04992351F080918D04E82FF0E0E35C6D
:101E2000FB4F90838F5F80938D0480918D04E82F0A
:101E3000F0E0E35CFB4F20838F5F80938D04809103
:101E40003B0490913C048227282F22952827022EBC
:101E5000269526952025022E269520252770082ECA
:101E6000892F269507942795902D822706942795EC
:101E70009025822790933C0480933B0480913F04FB
:101E800020918D0490E0049630E0821793072CF0A7
:101E900080918D04873408F46DC08DE092E80E9433
:101EA000C70E089580918B0487FF2EC0E0913F04F8
:101EB00080918B048F5F80938B048150ED5FE80FDE
:101EC000F0E0E35CFB4FE08180913B0490913C04A7
:101ED0008E27282F22952827022E26952695202505
:101EE000022E269520252770082E892F26950794E7
:101EF0002795902D822706942795902582279093E9
:101F00003C0480933B0430C080918B048F5F8093AE
:101F10008B048150833019F184302CF4882399F09C
:101F2000813009F516C0893019F08A30E1F402C019
:101F3000EDE21AC0E0918C0490913F048EEF891B72
:101F400080938B0411C080913B0490913C04E82F56
:101F50000BC080913B0490913C04E92F05C08DE0BB
:101F600092E80E94C70EEAEA8E2F90E080509844D3
:101F70000E94C70E089580918B04853009F042C0FD
:101F800080913F0420918D0490E0049630E0821708
:101F9000930724F080918D048734A0F184E080932E
:101FA0008B0480913F04833430F081E090E0909383
:101FB0003C0480933B0480913E0486FF12C08091D4
:101FC0008A04282F30E0C9018F7190704F9749F033
:101FD00080913E0490E0822793278F719070892B27
:101FE00089F480913B0490913C04892B09F044C012
:101FF000E0918804F0918904309709F43DC080E0B5
:10200000099546C080918B04843011F080E00895DA
:1020100010923F0480913F0480938D048FEF9FEFD7
:1020200090933C0480933B0420918C042223D9F0AC
:102030008227282F22952827022E269526952025AF
:10204000022E269520252770082E892F2695079485
:102050002795902D82270694279590258227909387
:102060003C0480933B0485E080938B048DED92E8E3
:102070000E94C70E80E008958FEF9FEFAFEFBFEF94
:102080008093840490938504A0938604B09387047E
:1020900081E0089580918B048530A1F480918D04B6
:1020A000882381F41EBC0DB407FEFDCF0EB400FCE6
:1020B00009C08DE092E80E94C70E84E080938B04F3
:1020C00081E0089580E00895982F86FD05C0907EF8
:1020D00080918A048F71980F90933E04E091880458
:1020E000F0918904309711F081E009958FEF9FEF0F
:1020F00090933C0480933B0480913B0490913C047A
:1021000020918C048227282F22952827022E26959D
:1021100026952025022E269520252770082E892F0A
:10212000269507942795902D82270694279590252C
:10213000822790933C0480933B0486E080938B0439
:102140008DE392E80E94C70E08951F93182F4093C5
:102150003F0420E434E0C90150E00E947B04812F59
:102160000E9464101F91089525B181E090E0A0E0E5
:10217000B0E00090310104C0880F991FAA1FBB1F57
:102180000A94D2F7282B25B924B1822B84B98AE08E
:1021900061E00E9405318AE061E00E94C6308BE078
:1021A00061E00E94C6308CE060E00E94C6308DE0A5
:1021B00061E00E94C63080E58CBD8DB581608DBD2B
:1021C00082E060E00E94C63082E061E00E9405315A
:1021D00008951F93162F80938A0440938C040E94C5
:1021E000B41080E090E00E94C70E85E092E80E9463
:1021F000C70E80E098EB02C080E090E00E94C70E1E
:1022000082E00E945931892BB9F3812F90E074E06C
:10221000880F991F7A95E1F7876C90680E94C70E26
:1022200080E496EA0E94C70E86E096EC0E94C70EF4
:1022300082EA94E90E94C70E8CEA92EC0E94C70ED3
:1022400010918C04112341F083E89AEC0E94C70E90
:10225000812F90E09E6C06C08BE89AEC0E94C70E1E
:102260008DE29EEC0E94C70E83E894EC0E94C70E9C
:1022700080E598E90E94C70E87E79CEC0E94C70E94
:1022800080E090EE0E94C70E80E098EC0E94C70E9E
:1022900089E490EC0E94C70E84E080938B048091C7
:1022A0008A0490E08F719070892B41F080E065EF97
:1022B0007EE040E050E00E94E22E03C080E00E94F9
:1022C000052F80918A041F9108950F931F935798AB
:1022D00089E090E00E94213009B184E190E00E9401
:1022E000213019B189E090E00E94213017FD02C031
:1022F00080E005C0802F8095881F8827881F1F9148
:102300000F9108956F927F928F929F92AF92BF929A
:10231000CF92DF92FF920F931F93CF93DF935C01D5
:102320003B016A0100E010E04A010894810891082D
:102330002AC0FF24C0E0D0E0C5010E946511FF0C57
:10234000F82A2196C830D105B9F7579A081519050A
:1023500039F45F9A84E190E00E9421305F9806C0D2
:102360005F9884E190E00E9421305F9A84E190E0E0
:102370000E942130C5010E946511F301E00FF11F99
:10238000F0820F5F1F4F0C151D059CF2DF91CF915E
:102390001F910F91FF90DF90CF90BF90AF909F90D3
:1023A0008F907F906F900895EF92FF921F93CF933D
:1023B000DF937C01162F579AC0E0D0E017FF07C0CB
:1023C0005F9884E190E00E9421305F9A06C05F9A96
:1023D00084E190E00E9421305F9884E190E00E94C7
:1023E00021302196C830D10511F0110FE7CF5F9849
:1023F00084E190E00E9421305F9A84E190E00E94A5
:102400002130C7010E946511DF91CF911F91FF908C
:10241000EF9008950F931F938C015F9886E090E0F2
:102420000E942130C80165E50E94D4111F910F91CF
:102430000895579A5F9A88E592E00E9421300895A6
:10244000EF92FF920F931F938C017B01F8940E94EF
:102450001912C8010E940A12C80160EA0E94D41130
:10246000C80163E00E94D411C80160E00E94D41149
:10247000C8016AEF0E94D411C801B70146E050E0DC
:102480000E948211C8010E94191278941F910F9125
:10249000FF90EF900895DF93CF9300D000D000D04D
:1024A000CDB7DEB7DE011196E6E7F1E086E00190F8
:1024B0000D928150E1F786E191E0E2E3F2E0DF0185
:1024C0009C011D9221503040E1F780918E048330B1
:1024D00019F463E675E003C0BE016F5F7F4F84E4CB
:1024E00090E043E450E00E94E21E80918E0483302D
:1024F00039F082E392E0BE016F5F7F4F0E948D242E
:1025000081E080935C0280935D0286E080935E02AE
:1025100080919B0490919C04A0919D04B0919E0495
:102520008093600290936102A0936202B093630271
:1025300080918E04833039F48CE592E00C9663E54B
:1025400075E00E94952488E792E06DE475E00E94B2
:102550008D24A8E4B3E0EDE3F1E002C081918D9316
:1025600031E0E334F307D1F790918E04992311F011
:1025700083E001C081E080934E038DE380934F039D
:1025800087E08093500381E080935103A2E5B3E09C
:10259000EDE4F5E002C081918D9385E0E335F80725
:1025A000D1F78CE0809358038AE080935903E2E3EB
:1025B000F1E0AAE5B3E002C081918D9321E0EC3314
:1025C000F207D1F724E633E03093A3042093A2046A
:1025D000913069F582E38093640384E0809365031E
:1025E000D9011296E3E5F5E002C081918D9335E0C3
:1025F000E735F307D1F786E380936A0384E080939D
:102600006B038CE693E09093A3048093A204DC0117
:10261000E3E6F5E002C081918D9385E0E736F807A7
:10262000D1F780E793E09093A3048093A2042091D4
:10263000A104222311F094E001C093E0A091A20430
:10264000B091A304FD0187E3819311969C93DF0170
:10265000119681E08183FD01319683E011968C9380
:10266000DF01119686E08183CD0101969093A3044A
:102670008093A204222339F011962C930196909313
:10268000A3048093A204E091A204F091A3048FEF2D
:102690008193F093A304E093A204CF018C55924060
:1026A0000E94582026960FB6F894DEBF0FBECDBF0D
:1026B000CF91DF910895EF92FF920F931F93CF93E5
:1026C000DF938C0180918E04823009F4F7C083304F
:1026D00030F4882351F1813009F064C14AC083305D
:1026E00021F0843009F05EC1E9C00E94BA2F209128
:1026F0009304309194044091950450919604E09095
:102700008F04F090900400919104109192042E0D8A
:102710003F1D401F511F621773078407950708F478
:1027200041C10E944B1284E017C00E94BA2F6093EF
:102730009B0470939C0480939D0490939E0410923C
:1027400053051092540510925505109256050E949B
:102750004B120E94A21681E080938E040E94BA2F31
:1027600060939704709398048093990490939A04CB
:1027700019C10634110508F4D5C08091550283347F
:1027800009F0D0C020916002309161024091620254
:102790005091630280919B0490919C04A0919D04B0
:1027A000B0919E04281739074A075B0709F0BAC0A1
:1027B000CCE4D3E0FE01A8014E5C5D4FDF01119631
:1027C00091819D012F5F3F4F8081853329F41196C0
:1027D0008C91823009F4C5C0F901E90FF11DE417AD
:1027E000F50760F39FC0FE019191E980EF0121960A
:1027F0009333D9F0943340F4933089F0963091F0CC
:10280000913009F046C008C09A3379F09F3F09F42F
:1028100051C09633F1F537C087E595E036C08FE5B6
:1028200095E033C087E695E030C0618170E080E0DC
:1028300090E0982F872F762F66272981620F711DD0
:10284000811D911D982F872F762F66272A81620F71
:10285000711D811D911D982F872F762F66272B8143
:10286000620F711D811D911D28EE33E040E050E0A4
:102870000E94253860939304709394048093950488
:102880009093960488C083E695E0BE010E9495244B
:1028900082C0E0919F04F091A004309709F47BC0BE
:1028A0008091A104981709F076C0892FBE014E2DA2
:1028B000099571C00E944B1282E04ECF063411057B
:1028C00088F180915502833469F52091600230913E
:1028D0006102409162025091630280919B04909149
:1028E0009C04A0919D04B0919E04281739074A07C3
:1028F0005B07C1F4ECE4F3E0A8014E5C5D4FDF013F
:10290000119691819D012F5F3F4F8081853321F486
:1029100011968C91853071F1F901E90FF11DE417E1
:10292000F50768F30E94BA2F20919704309198041C
:102930004091990450919A04205F384D4F4F5F4F5A
:10294000261737074807590748F02CC08FE595E050
:102950000E94481F83E080938E0424C010928E044E
:1029600021C083E595E06CE672E00E9495240E5C40
:102970001D4F39CF0E9499160E94BA2F60938F0481
:1029800070939004809391049093920480915F05DA
:10299000882301F3DBCFCE0DD11DC017D10708F47A
:1029A00022CF88CFDF91CF911F910F91FF90EF90B1
:1029B0000895CF93DF9381E080936F059091520546
:1029C000892F82958F70805D80933A019F70905D12
:1029D00090933B0110928E040E94BA2FEB0104C029
:1029E0000E9427170E945B1380918E04833061F050
:1029F0000E94BA2F6C1B7D0B60567A4E28F40E9401
:102A0000AB16882389F3ECCF0E941F1E90E08091C3
:102A10008E04833009F491E0892FDF91CF910895DE
:102A2000FF920F931F93CF93DF93EC01F62E0E943A
:102A3000BA2F8B010E94AB16882329F00E94191E21
:102A4000882309F4D7C00E9427170E9487200E947C
:102A5000BA2F601B710B6053754760F3C4C088E0E8
:102A600098E0A8E0B8E08093670590936805A0938C
:102A70006905B0936A058091A40490E0906E67E6C2
:102A800075E045E350E00E94E21EECE5F2E08CE0E8
:102A9000DF011D928A95E9F7DF011C9690E0FF2087
:102AA00011F0888102C0FE01849121968E3241F09E
:102AB000882331F09F5FFD01E90FF11D8083EFCF87
:102AC000FD019193DF01A90FB11D882339F7FD01A5
:102AD000119211961C92DF01119641E04183FD0194
:102AE000319611961C92418386ED22E332E0821BDF
:102AF00032968E0F80935C029091A40490935D02B5
:102B000040935E024093610290E00E9458200E9430
:102B1000BA2F8B0161C00E94BA2F601B710B6053EA
:102B2000754708F060C00E942717EC01009709F470
:102B300053C00E948720892B09F04EC0C634D105AE
:102B400008F44AC080915502853309F045C0809150
:102B50005602803E09F040C0909157028091A40433
:102B60009817D1F580915D028917B1F580915F02C8
:102B700090E08F709070892B79F580915C02E82F3E
:102B8000F0E0E45AFD4F9E012E5C3D4F8081807C39
:102B900039F0329609C08081882311F4319604C03F
:102BA0003196E217F307B8F3CF010E9628173907CD
:102BB00098F08181813051F48185843039F43A96DE
:102BC0008BE695E0BF010E94952406C0818590E0C8
:102BD0000A96E80FF91FDACF80916B05882309F474
:102BE0009ACF81E001C080E0DF91CF911F910F91DA
:102BF000FF90089510926B0510926C0510926D0570
:102C000010926E058091A4048F5F8093A40480913C
:102C10006705882309F02FCF22CF8091A70461E0B8
:102C20000E94053178940895FF920F931F93082F07
:102C3000162FF42EF8948091A70460E00E940531CD
:102C40001F71102B1EBD0DB407FEFDCFFEBC0DB4D1
:102C500007FEFDCF0E940D161F910F91FF90089562
:102C60001F93182F282F30E0207630708091A80411
:102C700090E02817390799F080EA6FE143E00E945D
:102C80001416412F40764093A80450E085E05595F6
:102C900047958A95E1F780E86FE10E9414161F912D
:102CA00008950F931F93182F062F0E94301680E46B
:102CB000612F402F0E9414161F910F9108950F93BA
:102CC0001F93182F072F0E945116812F8F5F602F9F
:102CD0000E9451161F910F9108950F931F93182F63
:102CE000062FF8948091A70460E00E940531802FA0
:102CF0008F71812B8EBD0DB407FEFDCF1EBC0DB4B0
:102D000007FEFDCF07FF04C01EBC0DB407FEFDCFBC
:102D10001EB50E940D16812F1F910F9108951F93CC
:102D2000182F0E94301680E0612F0E946D161F91AF
:102D3000089588E30E948F16682F6E7F88E30E94B3
:102D40005116089588E30E948F16682F616088E30A
:102D50000E945116089584ED61E10E94511682EDA2
:102D600061E00E9451168AEE0E948F1680FDFBCF13
:102D700082ED60E00E94511689ED0E948F1690E06E
:102D80009695879596958795817008950F931F93D3
:102D9000CF93DF93EC018B01F8948091A70460E05E
:102DA0000E9405318AE38EBD0DB407FEFDCF09C038
:102DB0001EBC0DB407FEFDCF8EB5F80181938F01C7
:102DC00021972097A9F70E940D16DF91CF911F91AF
:102DD0000F910895DF93CF930F92CDB7DEB719828D
:102DE00090E036E0880F991F3A95E1F7860F911D24
:102DF000BC0160507E4E80509E4050F480E00E94A6
:102E00005F1681E090E0BE016F5F7F4F0E94C616A3
:102E100089810F90CF91DF910895CF93DF93EB01DC
:102E200090E046E0880F991F4A95E1F7BC01605099
:102E30007E4E815C9D4040F480E00E945F1680E4FD
:102E400090E0BE010E94C616DF91CF9108950F93C6
:102E50001F93DF93CF9300D000D000D0CDB7DEB763
:102E600089E30E948F16882319F400E010E048C01F
:102E70006091A9047091AA0480E00E945F1686E028
:102E800090E0BE016F5F7F4F0E94C61689819A81D4
:102E90009093AA048093A9042B813C81E091A5041E
:102EA000F091A6048D8187FD03C000E010E00EC004
:102EB000245030408F01015010402017310708F492
:102EC0008901C80162E372E00E94C616F801EE5C57
:102ED000FD4F10826091A9047091AA048CE06130CA
:102EE000780724F08CE06FEF7BE003C06150704006
:102EF0008CE00E945F1680E86EE140E40E941416A8
:102F0000C80126960FB6F894DEBF0FBECDBFCF9195
:102F1000DF911F910F9108950F931F93CF93DF932C
:102F20008C01EB01F8948091A70460E00E940531C8
:102F30008AE78EBD0DB407FEFDCF08C088818EBD27
:102F40000DB407FEFDCF219601501040011511056B
:102F5000A9F70E940D16DF91CF911F910F9108954F
:102F6000CF93DF93EB0190E056E0880F991F5A95BD
:102F7000E1F7BC0160507E4E815C9D4040F482E0F0
:102F80000E945F1680E490E0BE010E948C17DF91E2
:102F9000CF910895CF93DF93EC010FC08CE10E9495
:102FA0008F1681FF0AC080E86FE140E80E94141686
:102FB00080EA6FE140E80E94141680E06FE10E9411
:102FC0006D1683FDEBCF82E060E07CE00E945F162F
:102FD000BE016050744F86E00E945F168AE760E091
:102FE00040E00E941416CE0162E372E00E948C174A
:102FF00080E86FE148E00E941416DF91CF910895B8
:103000008AE061E00E94C6308AE061E00E940531FA
:103010008BE061E00E94C6308DE061E00E94C63026
:103020008CE060E00E94C6308BE061E00E940531D8
:103030008BE060E00E9405318DE060E00E94053188
:1030400080E58CBD8DB581608DBD08951F93CF93B4
:10305000DF93EB01142F9093A6048093A5040CB486
:1030600006FC02C00E9400181093A704812F61E0A3
:103070000E94C6300E940D168FEF60E04FEF0E9455
:10308000141662E070E080E090E00E94C82F80E0BB
:103090006DE10E946D168823D1F31092AA0410925C
:1030A000A90488E060E070E00E945F168CE060E0B8
:1030B00070E00E945F168AE06FEF7BE00E945F166F
:1030C00084E060E07CE00E945F1686E06FEF71E1D3
:1030D0000E945F160E94A21688E26FE370E30E94CE
:1030E0005F1680E369EF77EF0E945F1680EC6DE07A
:1030F0000E94511681EC60E00E94511680E862EC5B
:1031000042E30E94141686EC62E17CE00E945F16A6
:1031100084EC62E10E9451168AEC6CED75E00E942D
:103120005F1684EE68810E94511685EE69810E94C7
:10313000511682EE6A810E94511683EE6B810E94C5
:10314000511680EE6C810E94511681EE6D810E94B5
:10315000511684ED60E10E94511686ED60E071E049
:103160000E945F168AEE0E948F1680FDFBCF8FE1D2
:103170000E94301680E86BE140EC0E94141680E853
:103180006FE144E00E94141682E70E948F16863099
:1031900008F08F5FDF91CF911F910895CF93DF9358
:1031A000C0E0D0E05C2FFE01E555FB4FE081EE234F
:1031B00049F120E030E06E2F70E0CB01022E02C01A
:1031C000959587950A94E2F780FF17C0C555DB4FA8
:1031D00081E090E0A0E0B0E0022E04C0880F991FCB
:1031E000AA1FBB1F0A94D2F780958E238883852F50
:1031F000880F880F880F820F0AC02F5F3F4F28303B
:103200003105D9F62196C032D10561F680E0DF9113
:10321000CF910895CF93DF93EC019B018A30910504
:1032200048F06AE070E00E944438CB01B9010E9486
:103230000A199C01CE016AE070E00E944438805D6A
:10324000F9018193D90111961C92CF01DF91CF91A1
:103250000895AF92BF92CF92DF92FF920F931F9388
:10326000CF93DF938C01EB01F42E10926F0538E3BE
:1032700041E050E060E070E018C0832F90E0FC0176
:10328000B3E0F595E795BA95E1F7E555FB4F877003
:1032900090705A016B0104C0AA0CBB1CCC1CDD1C35
:1032A0008A95D2F720812A292083315031F78DE485
:1032B00095E0BE010E948D24C8016DE475E04F2D9C
:1032C0000E942618DF91CF911F910F91FF90DF9000
:1032D000CF90BF90AF900895CF92DF92EF92FF9280
:1032E0000F931F93DF93CF93CDB7DEB7EB84FC84AE
:1032F000CD84DE84DE011F9601C0D801F6018491E1
:10330000882309F4BAC00894C11CD11C843209F086
:1033100097C0F6010894C11CD11C8491863409F42D
:103320005DC0873434F4843469F0853409F088C092
:103330006CC08C34B9F1833509F443C0883409F08A
:103340007FC00BC08D010E5F1F4FF7016681778133
:103350008D919C910E940A197EC02C91822F9927F1
:1033600087FD909514E0959587951A95E1F78F70F4
:103370002F702A300CF0295F8A300CF0895F8D01A4
:103380000E5F1F4FF701A681B781805DFD0181931C
:10339000205D11962C933196D7011796FC93EE93EE
:1033A0001697ABCF8D010C5F1F4F6D917D918D9165
:1033B0009C91F701468157812AE030E00E94220566
:1033C0004AC08D010E5F1F4F6D917C91D7011696FB
:1033D0008D919C9117970E948F043DC08D010E5FC7
:1033E0001F4F2D913C910AC0D7011696ED91FC918B
:1033F000179781931796FC93EE931697F9012F5F19
:103400003F4F8491882381F778CF8D010E5F1F4F46
:103410002D913C910AC0D7011696ED91FC9117971A
:1034200081931796FC93EE931697F999FECF32BDD0
:1034300021BDF89A80B52F5F3F4F882361F75DCF9C
:10344000F70126813781F90181939F01F7013783C5
:1034500026838D0152CFD70116968D919C91179797
:10346000FC0101900020E9F73197E81BF90B8E0F62
:103470009F1FF7019783868340CFCF91DF911F91E4
:103480000F91FF90EF90DF90CF900895EF92FF9211
:103490000F931F93CF93DF93EC0131E0E32EF12CD8
:1034A000012D112D1EC090E0FC0123E0F595E7955C
:1034B0002A95E1F7E555FB4F87709070A8019701B9
:1034C00004C0220F331F441F551F8A95D2F7DA011B
:1034D000C9012081282B20838D816FE30E94EA1689
:1034E0008D838D818823F9F6DF91CF911F910F9104
:1034F000FF90EF900895982F80910B05981729F46D
:10350000E62FF0E0E553FB4F08C080914C0598177B
:1035100031F4E62FF0E0E45FFA4F80810895892FBF
:103520000E94EA1608950F931F93FC0104818FE314
:10353000089F8001112486816EE30E947B1A080F88
:10354000111D03501040C8011F910F9108951F9342
:10355000CF93DF93982F162FC82FD0E0FE0156E0AF
:10356000EE0FFF1F5A95E1F7EC0FFD1FE553FB4FE0
:10357000E05CFF4F8081E054F040681771F19923BF
:1035800059F4BF010E94B01780914C05181791F4AF
:103590008FEF80934C050EC080910B05681751F496
:1035A000ACE0B5E0EBECF4E081E401900D928150E9
:1035B000E1F713C0FE0146E0EE0FFF1F4A95E1F769
:1035C000EC0FFD1FE553FB4FE05CFF4F1083E05411
:1035D000F040812FBF010E940D17DF91CF911F9105
:1035E000089580E060E00E94A71A8091CB0490913A
:1035F000CC040895CF93DF93EC0181E06F810E94AA
:10360000A71A9F818E81981739F4988580914A0571
:10361000981710F080E013C08885E82FF0E0E45F91
:10362000FA4FE0818F5F88878F3340F09F818E81D2
:10363000981721F080914B058F8318868E2FDF918C
:10364000CF9108951F93CF93DF93EC01162F80E065
:103650006E810E94A71A80910905E82FF0E0E553DA
:10366000FB4F10838F5F8F3318F48093090510C0D0
:103670000E94CE18682F80930A058E8380E00E94F6
:10368000A71A10920A05109209058C818F5F8C830E
:10369000DF91CF911F910895CF93DF93EC0180E0EC
:1036A0006D810E94A71AABECB4E0FE01349683E072
:1036B00001900D928150E1F790914C058D81981702
:1036C00021F481E060E00E94A71ADF91CF91089574
:1036D000CF93DF93EC016F8383E0888781E00E94C2
:1036E000A71ADE011496ECE0F5E083E001900D925C
:1036F0008150E1F78F81DF91CF910895AF92BF9212
:10370000CF92DF92EF92FF920F931F93DF93CF93AD
:10371000CDB7DEB729970FB6F894DEBF0FBECDBF89
:1037200080E060E00E94A71A0091CD041091CE04C1
:103730007DECE72E74E0F72E6EE4A62E61E0B62E47
:103740006E010894C11CD11C02C00F5F1F4FF8010D
:1037500084918823C9F00F5F1F4F8432C1F782E044
:1037600090E0E80EF91EF7016081F8018491883439
:1037700061F71C821B82BA82A982C6010E94681B63
:10378000C6010E94461AE1CF29960FB6F894DEBF13
:103790000FBECDBFCF91DF911F910F91FF90EF90A2
:1037A000DF90CF90BF90AF9008954F925F926F924D
:1037B0007F928F929F92AF92BF92CF92DF92EF92C1
:1037C000FF920F931F93DF93CF93CDB7DEB7609730
:1037D0000FB6F894DEBF0FBECDBF8E010D5D1F4F3B
:1037E000F801E190F1908F0180E060E00E94A71A5B
:1037F000C7010E9438049093CC048093CB04F092CC
:10380000CE04E092CD046801AFEC8A2EA4E09A2E9B
:10381000FEE44F2EF1E05F2EE8E06E2E712C6C0E70
:103820007D1E5E010894A11CB11CF70184918823C0
:1038300009F465C00894E11CF11C8432B1F7F6016B
:1038400000811181F7018491863429F1873428F4AD
:10385000843469F0853429F407C0883469F18335EC
:1038600091F0A0E0B0E034C0A0E0B0E019C0C80121
:10387000B5010E940A19D5010D900020E9F71197B2
:10388000AA19BB0925C0D8010D900020E9F71197AE
:10389000A01BB10B1DC0C8010E94380418C01196AE
:1038A000F999FECFCD01800F911F92BD81BDF89A8D
:1038B00080B58823A1F70CC01B861A8659864886D6
:1038C000C301602F0E94681BC3010E94931ADC0190
:1038D0000894E11CF11CF401019311934F018091B4
:1038E000CB049091CC0402978A0F9B1F9093CC0439
:1038F0008093CB0482E090E0C80ED91E96CF6096EC
:103900000FB6F894DEBF0FBECDBFCF91DF911F91F0
:103910000F91FF90EF90DF90CF90BF90AF909F906E
:103920008F907F906F905F904F9008952F923F926D
:103930004F925F926F927F928F929F92AF92BF92BF
:10394000CF92DF92FF920F931F93DF93CF93CDB768
:10395000DEB760970FB6F894DEBF0FBECDBF1C0177
:103960003B01142F052F80E060E00E94A71AC09051
:10397000CD04D090CE041B861A868EE491E0998700
:1039800088871F861D86212F302FC9012C010DEC41
:10399000802E04E0902E10E4F12E00E010E0AA2426
:1039A000BB24620C731C83C086E4F81609F45EC065
:1039B0008F1564F094E4F91609F454C09F150CF4C3
:1039C0005AC0E0E4FE1609F070C009C0F8E4FF1622
:1039D00009F45BC083E5F81609F067C043C0F6013F
:1039E0008491282F882309F466C00894C11CD11C37
:1039F000843209F050C082E090E0880E991EF401F4
:103A000060812181F6010894C11CD11CF490F6E478
:103A1000FF1544F085E4F816C4F494E4F91609F0AF
:103A200046C008C0E8E4FE16A9F0F3E5FF1609F069
:103A30003EC00BC0862F922FBE016F5F7F4F0E944A
:103A40000A198E010F5F1F4F32C0862F922F9C01E3
:103A500089012DC0CE0108960E94681B8E01085F67
:103A60001F4F25C0F80121918F0113C0F8010F5F8E
:103A70001F4F24910EC0F999FECFC801019612BDC7
:103A800001BDF89A20B58C0104C0C8010E94FA1A41
:103A9000282F222351F0A214B30418F0F20121932D
:103AA0002F010894A11CB11C02C0B0E4FB2EA61487
:103AB000B70408F479CF60960FB6F894DEBF0FBE56
:103AC000CDBFCF91DF911F910F91FF90DF90CF90ED
:103AD000BF90AF909F908F907F906F905F904F902E
:103AE0003F902F900895EF92FF921F937C010E94C8
:103AF000CE18182F80E0612F0E94A71AEBECF4E09B
:103B00001092CB041093CD041093CC0483E086AFC5
:103B100017AEC701612F0E94681B1F91FF90EF90A5
:103B20000895FC01A681B7816D93B783A68381E0D8
:103B300090E00895DF92EF92FF920F931F93CF933F
:103B4000DF93D82E862FBA01213041F4675F7F4F73
:103B50009B0140E050E0695070400EC0223029F0D7
:103B600020E030E040E050E007C0625070409B0130
:103B700040E050E06E5F7F4FE82EFF2482E392E04A
:103B8000E80EF91E8B01E7010FC0F881E0E08981A2
:103B900090E08E2B9F2BA0E0B0E0280F391F4A1F2A
:103BA0005B1F2296025010400230110570F7CB01C6
:103BB0008E7FD701A80FB91F6817790779F08C910C
:103BC00090E0A0E0B0E0BA2FA92F982F882702C07C
:103BD00040E050E0280F391F4A1F5B1FCA01AA2787
:103BE000BB270097A105B10599F7C901809590956C
:103BF000ED2DF0E0EE5CFD4F90838183DF91CF915E
:103C00001F910F91FF90EF90DF90089510924A025C
:103C100010924B0280E480934602109247028093F8
:103C2000480288E16EE044E150E020E00E949A1DE5
:103C30000895809171058695809581700895809191
:103C40005705809590915305892B80935B05809152
:103C50005805809590915405892B80935C0580913F
:103C60005905809590915505892B80935D0580912C
:103C70005A05809590915605892B80935E0508958D
:103C800090938805809387057093920560939105C2
:103C900050938A05409389058CE196E090938C05BA
:103CA00080938B0510928E0510928D0530939005B0
:103CB00020938F0530914301209144018CED93E2D4
:103CC00090937905809378058CE193E290937B053E
:103CD00080937A05209374053093750581E0809375
:103CE0007205809173058F5F877080937305809351
:103CF00086050895662341F4809349014E5C5D4F2B
:103D0000509385054093840581E0089530914301E7
:103D1000209144018AE79EE190937905809378058C
:103D20008CEF92E290937B0580937A052093740543
:103D30003093750581E080937205809173058F5FE4
:103D4000877080937305809386050895909149014B
:103D5000981719F020E030E007C08BE78093490105
:103D60002091840530918505C901089580937005DF
:103D700008950F931F93BC0102E312E0C8010E9453
:103D80008D24C80106966DE475E00E948D241F9174
:103D90000F910895EF92FF920F931F937B010E9462
:103DA000B91E00E512E0C801B7010E949524C801C0
:103DB000049763E575E00E9495241F910F91FF9091
:103DC000EF900895EF92FF920F931F93CF93DF939D
:103DD0007C01EB018A018CE795E00E94CA1E888174
:103DE000807F803E49F088819981AA81BB818F5F65
:103DF0009F4FAF4FBF4F31F482E392E06CE771E029
:103E00000E948D2488E080933E0210923F0280E45D
:103E100092E067E775E049E050E00E9424041092C8
:103E2000420281E1809349021093560200935702A7
:103E3000F0925402E09255021092580210925A02E7
:103E400010925B02DF91CF911F910F91FF90EF9045
:103E50000895EF92FF920F931F9308E312E0C801B9
:103E60000E94B91E74E1E72EF12CE00EF11EC8018C
:103E70004896B7010E949524C70163E575E00E944A
:103E800095240E94061E1F910F91FF90EF900895B8
:103E9000BC0181E0809371058FE595E00E94952437
:103EA00008950F931F938C018896909342028093FC
:103EB00043020E94061E1092640210926502045E84
:103EC0001F4F82E36AE1A80122E00E949A1DC80107
:103ED0004A960E94CA171F910F910895CF93DF93BE
:103EE0009C01862F806180936102643029F0211546
:103EF000310511F421E030E0909156028091540296
:103F000080935602909354029091570280915502EB
:103F10008093570290935502CBE5D2E08881A901A6
:103F2000480F511D2C814C832883252F332721973F
:103F300052E0C735D50791F71D861E8680E5898733
:103F40001092420288E2809343020E94291F84E07B
:103F50008B871C8682E36AE14CE150E022E00E94FC
:103F60009A1D86E390E00E94CA17DF91CF910895D1
:103F7000E82F4091560250E0292F30E042175307B6
:103F800009F092C0809157028E1709F08DC0809180
:103F90006102E82F81FF4EC0109242028CE28093B2
:103FA00043020E94291F82E1809361029091560290
:103FB000809154028093560290935402909157023C
:103FC000809155028093570290935502EBE5F2E001
:103FD00021E030E08081A901480F511D4483108207
:103FE000252F3327319752E0E735F50799F71586E6
:103FF00016861182128280914801838314828D5F1C
:104000008093480182E0818B84E0828B95E0938BE2
:10401000148A80E68187938788E7848782E36AE150
:1040200040E250E022E00E949A1D8AE390E00E9464
:10403000CA173AC084FF38C09091420280E02091B4
:10404000430230E0282B392B80916002482F50E04A
:10405000A4E055954795AA95E1F7CA01880F991FE5
:10406000880F991F281B390B2451304037FF02C09D
:1040700020E030E03093830520938205232B69F004
:104080009A01220F331F220F331F2E5D3F4F6850BE
:1040900070406217730740F009C0E0FF05C080E080
:1040A00090E060E00E946E1F20E030E0C9010895BA
:1040B0000F931F93DF93CF930F92CDB7DEB78C0191
:1040C000045E1F4F109342020C511040802F845EFB
:1040D0008093430289830E94061E085F1F4F10933E
:1040E00058028981845180935902085F1F4F88E2EA
:1040F0006AE1A80121E00E949A1DC8014A960E9427
:10410000CA170F90CF91DF911F910F910895DF9201
:10411000EF92FF920F931F93CF93DF93EC01809167
:104120006F05882319F0CE010E945B13209709F0D8
:10413000BFC0809171058570F1F18091450190912A
:104140004601892BC1F50E94AB168823A1F18CE7AB
:1041500091E00E94B91E88E080933E02E6E0FE2EC8
:10416000F0923F0280E492E06FE675E048E050E0B4
:104170000E94240402E512E0D8011D92FA94E9F7A6
:10418000C8010A976DE475E00E948D24C801069667
:104190006FE575E00E949524C801049763E575E01A
:1041A0000E949524809171058860809371058AE250
:1041B00090E00E94CA1780914501909146010196B6
:1041C000909346018093450180917205813009F0FA
:1041D00003C28091710581FFFFC102E00093720567
:1041E000809147018F5F809347018F711091730514
:1041F0001295110F107E182BE0907405D090750564
:104200008CE795E06BE675E00E94CA1E78E0F72E19
:10421000F0923E0210923F0280E492E067E775E080
:1042200049E050E00E9424048CE28093430286E03F
:10423000809349020E94061EE0925602D0925702D5
:104240008BE08093540210935502E8E5F2E0DF0121
:104250001D92FA94E9F78091480180935A028D5F8C
:104260008093480180E6809360020093610283E0BE
:1042700080936202109263021092640210926502AF
:1042800010926602109267020093680284E08093A5
:10429000690200936A0286E280936B0282E36AE11C
:1042A00040E250E022E00E949A1D8AE390E0AFC015
:1042B000C932D10508F490C110913E02183009F0BE
:1042C00096C180913F02863009F091C188E592E065
:1042D00063E575E044E050E00E946E04009709F049
:1042E00086C180914702813029F588E392E00E94DF
:1042F000B91E1092460282E08093470282E592E066
:1043000068E472E00E948D2488E492E06DE475E038
:104310000E948D2488E592E06EE472E00E9495246C
:104320008EE492E063E575E00E9495248AE290E0D5
:104330000E94CA178091710583FF4EC110914702F8
:10434000123009F049C18EE492E06FE575E044E077
:1043500050E00E946E04009709F03EC18CE795E0A2
:1043600068E472E00E948D241093710535C1183005
:1043700009F032C180913F02882309F02DC180915C
:104380004002853409F028C180E592E063E575E0DC
:1043900044E050E00E946E040097A9F080E592E0AE
:1043A0006BE575E044E050E00E946E04009759F020
:1043B00080E592E06CE771E044E050E00E946E041A
:1043C000009709F009C180914902813019F5809167
:1043D00054028830F9F4E0917605F0917705309732
:1043E00019F08CE492E009950E94291F1092540262
:1043F00080915602883F28F0809157028F5F80930A
:10440000570280915602885F80935602CE010E9427
:10441000CA17E2C00E942024882351F080914902EB
:10442000813131F4CE010E942524882309F0D4C0C3
:10443000C633D10528F480914902863009F0CCC0FA
:10444000809156028B3009F0BEC08CE492E06BE69E
:1044500075E044E050E00E946E04009709F0BCC093
:1044600080916102382F82FF13C0E0917805F091AE
:104470007905309759F0809157028295869587701B
:1044800063E040E050E020E030E0099585E090C036
:104490009091420280E020914302022F10E0082B0D
:1044A000192B80916002482F50E064E055954795A4
:1044B0006A95E1F7CA01880F991F880F991F081B99
:1044C000190B0451104017FF02C000E010E080916A
:1044D0007205823079F531FF21C034FF1FC080E0C2
:1044E00090E060E00E946E1F88E180936102E0919D
:1044F0007A05F0917B05309719F420E030E007C091
:104500008091550282958695877009959C0183E07C
:1045100080937205C9010E94511F5EC081E08093A3
:10452000720534FF03C080E090E002C0C80101962C
:1045300064E046C0833081F50115110579F1E09101
:104540007805F0917905309749F1440F551F440FD4
:10455000551FCE0108974E5D5F4F8417950708F4ED
:10456000AC01C801840F951FC817D90710F0980136
:1045700003C09E01241B350B8091570282958695BE
:10458000877060E0099580917005882319F0C80153
:1045900068E016C0C80108C08530F1F030FF0BC0DC
:1045A0008330D1F0C801019669E00E946E1F86E059
:1045B0008093720511C00115110571F0C80160E00A
:1045C0000E946E1F09C08091430190914401BE0179
:1045D0000E94B81F9C0102C020E030E0C901DF91B9
:1045E000CF911F910F91FF90EF90DF900895CA3205
:1045F000D10508F0BCCEF0CFEF92FF920F931F933E
:104600000E94F11A8C01F8E6EF2EF2E0FF2E80E016
:1046100090E0B801A7010E94961C0E947E1BE00E4C
:10462000F11EF70110828BE780934901C8011F91A9
:104630000F91FF90EF900895CF92DF92EF92FF924B
:104640000F931F93DF93CF93CDB7DEB728970FB6A5
:10465000F894DEBF0FBECDBF28E632E03E832D8347
:1046600038872F8390918605891709F08FC01C82A7
:104670001B8286E891E09A83898340918D05509151
:104680008E0541155105A9F58DB79EB70C970FB64C
:10469000F8949EBF0FBE8DBFEDB7FEB73196CE0129
:1046A0000196ADB7BEB712969C938E93119788EF83
:1046B00095E0938382838091870590918805958307
:1046C0008483809191059091920597838683809150
:1046D000890590918A059187808780918B059091BB
:1046E0008C05938782870E946C198DB79EB70C96B4
:1046F00048C020918B0530918C05E0908705F090A3
:1047000088050091890510918A052115310519F058
:104710006FE071E004C062E171E020E835E0DA01A9
:104720000D900020E9F76D010894C108D108C41A62
:10473000D50A8DB79EB740970FB6F8949EBF0FBEAF
:104740008DBFEDB7FEB73196CE010196ADB7BEB7BE
:1047500012969C938E93119781E895E093838283C0
:10476000F582E48217830683318720877387628707
:10477000D586C486578746870E946C198DB79EB729
:1047800040960FB6F8949EBF0FBE8DBF2F8138851F
:104790008D819E81281B390BC90128960FB6F8948C
:1047A000DEBF0FBECDBFCF91DF911F910F91FF9064
:1047B000EF90DF90CF9008950F931F93CF93DF93E7
:1047C000890190918605891759F0E0918F05F09144
:1047D000900584E060E070E040E050E009952AC078
:1047E000662341F52D30310528F1C0918F05D09118
:1047F00090052097F9F0455C5D4F83E191E0BA01A7
:1048000043E050E00E9496049C0180E0232B09F0D5
:1048100081E06091600270E0B4E075956795BA95AB
:10482000E1F7660F771F660F771F6E5D7F4FA80158
:10483000FE01099580E0DF91CF911F910F910895BE
:104840008091BB05811181E00895CF92DF92EF92B4
:10485000FF920F931F93CF93DF93C3E9D5E030E02E
:10486000CC24DD2429C02A814B818091560290E01E
:10487000042F10E080179107D9F4909157029217F6
:10488000B9F48C818823A1F02091590230E028509E
:104890003040F0905802EE242E0D3F1DE881F98142
:1048A000892F942F6CE472E04CE552E0099531E0D9
:1048B0000894C11CD11C25968091BB0590E0C816B8
:1048C000D9068CF2832FDF91CF911F910F91FF902A
:1048D000EF90DF90CF9008950F931F93CF93DF93C6
:1048E0008C01C0E0D0E0F801EC0FFD1F8BEC97E0ED
:1048F00060814AE050E00E942635C33029F08BECFD
:1049000097E06EE20E9419342196C430D10559F720
:10491000DF91CF911F910F910895DC01FB0186E09B
:1049200001900D928150E1F708959C01FB01808177
:104930009181A281B381F90180839183A283B383A2
:104940000895EDEEF7E020E030E003C031962F5FF0
:104950003F4F8081853C29F488E0EF3FF807B1F3B1
:10496000A8F3C9010895FC011782168210821382F0
:104970001186108611821482138612861282158285
:10498000178A1786108A118A128A08951F93CF9367
:10499000DF93FC01648745872687EC0110E08C8556
:1049A00061E00E94C6308C8560E070E00E94663055
:1049B0001F5F2196133099F7DF91CF911F910895D2
:1049C0004F925F926F927F928F929F92AF92BF921F
:1049D000CF92DF92EF92FF920F931F93CF93DF93CB
:1049E000582E492E5B01FB01248135818281938100
:1049F0002817390708F4C901F50120813181BC016C
:104A00002817390708F4B901852D942D9C016901F7
:104A1000C0E0D0E03B0188249924C401B3010E9486
:104A200034377B018C01F501EC0FFD1F6081718132
:104A300080E090E00E9434379B01AC01C801B701CF
:104A40000E94A03620E030E040E853E40E94C237E4
:104A500020E030E040E05FE30E943C360E940837EF
:104A6000F601748F638F229682E090E0C80ED91E03
:104A7000C630D10591F6852D942D65E043E026E002
:104A80000E94C624DF91CF911F910F91FF90EF906C
:104A9000DF90CF90BF90AF909F908F907F906F905E
:104AA0005F904F900895DF93CF9300D000D000D057
:104AB000CDB7DEB7DE011196E0E9F1E026E0019026
:104AC0000D922150E1F7BE016F5F7F4F0E94E024FD
:104AD00026960FB6F894DEBF0FBECDBFCF91DF9103
:104AE0000895EF92FF920F931F937C018B01FB01BE
:104AF0006081FC01848570E00E946630F80161816C
:104B0000F701858570E00E946630F8016281F70147
:104B1000868570E00E9466301F910F91FF90EF90A4
:104B200008952F923F924F925F926F927F928F9251
:104B30009F92AF92BF92CF92DF92EF92FF920F932C
:104B40001F93DF93CF9300D00F92CDB7DEB7382EEF
:104B5000292E2B019C0139018824992400D000D0F2
:104B6000F201E80DF91D608170E080E090E0F30152
:104B7000238D348D40E050E0EDB7FEB721833283C2
:104B80004383548320E030E040E050E0EFEFEE2E2E
:104B9000F12C012D112DAA24BB2465010E94F235B0
:104BA000E1E0F0E0EC0FFD1FE80DF91DCB010F90E7
:104BB0000F900F900F906F3F710519F010F08FEF6D
:104BC00090E080830894811C911C82E090E0680E44
:104BD000791E93E08916910409F6832D922DBE016A
:104BE0006F5F7F4F0E9471250F900F900F90CF91B4
:104BF000DF911F910F91FF90EF90DF90CF90BF90CA
:104C0000AF909F908F907F906F905F904F903F906C
:104C10002F9008952F923F924F925F926F927F92C2
:104C20009F92AF92BF92CF92DF92EF92FF920F933B
:104C30001F93DF93CF93CDB7DEB72C970FB6F894C1
:104C4000DEBF0FBECDBF3C01DE011196EAE8F1E008
:104C500083E001900D928150E1F70E94BA2FF30199
:104C60002785308941895289621B730B840B950B10
:104C70000E94343720E030E048EC52E40E94C23712
:104C80007B018C01F30163897489858996890E946F
:104C900036379B01AC01C801B7010E94A0360E94C3
:104CA0000837CB016536710510F084E690E0788610
:104CB0006F821301442455249C0140E050E0298771
:104CC0003A874B875C87F301E40DF51D908000D097
:104CD00000D0F10186819781AA2797FDA095BA2F70
:104CE000EDB7FEB781839283A383B48369857A8508
:104CF0008B859C8520E030E040E050E0B4E6EB2E70
:104D0000F12C012D112DAA24BB2465010E94F2353E
:104D1000E4E0F0E0EC0FFD1FE40DF51D960E90822F
:104D20000894411C511C22E030E0220E331E0F90EB
:104D30000F900F900F9033E04316510421F6C301FA
:104D4000BE016C5F7F4F0E94912520E0F3019381AB
:104D50008C81981321E081E02827F30194818D81D3
:104D6000981320E0F30195818E81981320E0F301E0
:104D70008789882309F45EC0222309F45BC0228D51
:104D8000222351F48E010C5F1F4F7301A7E0CA2E3E
:104D9000D12CCC0EDD1E25C0F301808D918D0196A6
:104DA000918F808F9695879530E08217930751F702
:104DB000C301BE016F5F7F4F0E949125F3011782EF
:104DC0001682108213821186108611821482138635
:104DD000128612821582178A1786108A118A128A01
:104DE00029C0EF81F8858081F8018083EF81F88503
:104DF00023812083F80181918F01EF81F8858383DE
:104E000090E0821B9109F701978386830E94BA2F55
:104E1000F3016787708B818B928B2F8138852F5F91
:104E20003F4F38872F8342E050E0E40EF51E0C150B
:104E30001D05B9F62C960FB6F894DEBF0FBECDBF98
:104E4000CF91DF911F910F91FF90EF90DF90CF9066
:104E5000BF90AF909F907F906F905F904F903F90EA
:104E60002F900895AF92BF92CF92DF92EF92FF9270
:104E70000F931F93DF93CF9300D00F92CDB7DEB780
:104E80008C015B0169017A01DE011196EDE8F1E028
:104E900083E001900D928150E1F7C801BE016F5F80
:104EA0007F4F0E949125A801D80120E030E0FA014F
:104EB0001082F501E20FF31F8081FA0183831696B9
:104EC0008C93169717961C9217972F5F3F4F4F5F43
:104ED0005F4F12962330310551F781E0F801878B3F
:104EE000128E0E94BA2FF8016787708B818B928B8C
:104EF000C701B60122E030E040E050E00E947A387D
:104F0000F801238B348B458B568B0F900F900F90AD
:104F1000CF91DF911F910F91FF90EF90DF90CF9095
:104F2000BF90AF900895EF92FF920F937C010E9483
:104F30003227F701028F118E108E0F91FF90EF90A4
:104F400008952F923F924F925F926F927F928F922D
:104F50009F92AF92BF92CF92DF92EF92FF920F9308
:104F60001F93DF93CF93CDB7DEB762970FB6F89458
:104F7000DEBF0FBECDBF8B5B9F4FDC012D913D91FE
:104F80004D915D912D833E834F8358872D903D90A9
:104F90004D905D906D907D908D909D902D913D9167
:104FA0004D915D9129833A834B835C832D913D9193
:104FB0004D915C9113972B873C874D875E87A55554
:104FC000B040B88BAF871A8619861985103108F45E
:104FD00069C069857A856F7070706F5F7F4F660FEB
:104FE000771F660F771FEF85F8896E0F7F1FA985E2
:104FF000BA851D96AF70B0701196AA0FBB1FAA0F8D
:10500000BB1FAE0FBF1F89859A8508968F70907061
:105010000196880F991F880F991F8E0F9F1F2D9142
:105020003D914D915C91FC0180819181A281B38180
:10503000282739274A275B27FB0180819181A2819C
:10504000B381282739274A275B27E985FA853296D5
:10505000EF70F0703196EE0FFF1FEE0FFF1F8F8580
:105060009889E80FF91F80819181A281B381282757
:1050700039274A275B27DA01C901880F991FAA1F20
:10508000BB1F222757FD2395332744275527822B03
:10509000932BA42BB52BFB0180839183A283B38335
:1050A0001431C8F429813A814B815C81262537254A
:1050B00048255925222133214421552189819A816E
:1050C000AB81BC81282739274A275B2727563648DA
:1050D0004D47554A46C0183298F4A4019301222541
:1050E00033254425552589819A81AB81BC812827A8
:1050F00039274A275B272F5534414642514931C051
:105100001C33E8F4A40193012229332944295529A9
:1051100089819A81AB81BC81282339234A235B236F
:10512000D401C30182219321A421B521282B392B3D
:105130004A2B5B2B24523344444E504712C0A401E7
:105140009301222533254425552589819A81AB81F8
:10515000BC81282739274A275B272A523E434D49DD
:105160005543ED80FE800F811885EBE1169507957C
:10517000F794E794EA95D1F78D819E81AF81B88548
:1051800075E0880F991FAA1FBB1F7A95D1F7E82AEF
:10519000F92A0A2B1B2B8B859C85AD85BE85E80ED5
:1051A000F91E0A1F1B1FE985FA85EF70F070319612
:1051B000EE0FFF1FEE0FFF1FAF85B889EA0FFB1F31
:1051C00080819181A281B381E80EF91E0A1F1B1F05
:1051D000E20EF31E041F151F620151019EE1AA0C8D
:1051E000BB1CCC1CDD1C9A95D1F782E056944794E9
:1051F000379427948A95D1F7A228B328C428D528B4
:10520000E985FA853196FA87E98729813A814B81C8
:105210005C812B873C874D875E87B301898A9A8A98
:105220002D803E804F805884E035F10589F0C7011C
:10523000D8018D839E83AF83B887350146014989A4
:105240005A89CB01DA0189839A83AB83BC83BDCEB3
:10525000EF85F889EB5BFF4F80819181A281B3815B
:10526000E80EF91E0A1F1B1FE082F18202831383DE
:105270006F857889675B7F4FFB0180819181A28177
:10528000B3812D813E814F815885820F931FA41FCA
:10529000B51F80839183A283B383EF85F889E35B95
:1052A000FF4F80819181A281B381A80EB91ECA1ED1
:1052B000DB1EA082B182C282D382EF85F889EF5AC9
:1052C000FF4F80819181A281B381860D971DA81D1A
:1052D000B91D80839183A283B3836F8578896B5ACC
:1052E0007F4FFB0180819181A281B38129813A8125
:1052F0004B815C81820F931FA41FB51F8083918314
:10530000A283B38362960FB6F894DEBF0FBECDBF03
:10531000CF91DF911F910F91FF90EF90DF90CF9091
:10532000BF90AF909F908F907F906F905F904F90C5
:105330003F902F900895CF93DF939C01EC01CC5BBD
:10534000DF4F988183E08927F901E80FF11D64831D
:105350009F5F9883903421F4C9010E94A12718828D
:10536000DF91CF910895FC01E75AFF4F20813181F1
:10537000428153812F5F3F4F4F4F5F4F20833183D7
:10538000428353830E949B2981E090E008950F930C
:105390001F93CF93DF93EC0160E80E949B298E015D
:1053A0000C5B1F4F04C0CE0160E00E949B29F801F6
:1053B00080818833C1F7CE0160E00E949B29CE0135
:1053C00060E00E949B29CE0160E00E949B298E0133
:1053D000075A1F4FF8012081318142815381FDE13D
:1053E0005695479537952795FA95D1F7CE01622FB7
:1053F0000E949B29F8012081318142815381E5E19E
:105400005695479537952795EA95D1F7CE01622FA6
:105410000E949B29F80120813181428153817DE0E6
:1054200056954795379527957A95D1F7CE01622FF6
:105430000E949B29F801208131814281538165E0DE
:1054400056954795379527956A95D1F7CE01622FE6
:105450000E949B29F8016081660F660F660FCE01DE
:105460000E949B29DF91CF911F910F910895EF9298
:10547000FF920F931F93CF93DF93EC010E94C729F4
:10548000FE01EB5BFF4F60E070E0208131814281E3
:105490005381B22FAA2799278827E52EFF240027BA
:1054A0001127E82AF92A0A2B1B2BB42FA32F922F9E
:1054B000882780709070B070E82AF92A0A2B1B2B7D
:1054C000232F342F452F5527207040705070E22A2B
:1054D000F32A042B152BE192F192019311936F5F44
:1054E0007F4F6530710589F69E012B5B3F4FC901E7
:1054F000DF91CF911F910F91FF90EF90089510923F
:10550000BF051092BE058AE991E09093BD05809396
:10551000BC0508950F931F938C018B5B9F4F68E32D
:1055200076E044E150E00E942404075A1F4FF8013E
:10553000108211821282138205511040F8011082EC
:105540001F910F910895BF92CF92DF92EF92FF9239
:105550000F931F93CF93DF93EC013DE9C32ED12C22
:10556000C80ED91E0E94372AD601FC0184E10190A1
:105570000D928150E1F7CE010E948A2A8E01035AD2
:105580001F4F2CE5B22E9DE9E92EF12CEC0EFD1EED
:10559000E881F981D8016D918D016B250190F08131
:1055A000E02DCE0109950E151F0591F7860181EBBF
:1055B000E82EF12CEC0EFD1EE881F9810190F081BE
:1055C000E02DCE01D8016D918D0109950E151F05B5
:1055D00099F7CE010E94372ADF91CF911F910F9149
:1055E000FF90EF90DF90CF90BF900895CF92DF9221
:1055F000EF92FF920F931F93CF93DF938C017B0168
:10560000EA016DE5C62ED12CC80ED91E80E4D60164
:105610001D928A95E9F741345105FCF0C8010E94BA
:105620008A2A0BC0F70161917F01D801ED91FC91AD
:105630000190F081E02DC80109952197BFEFCF3F80
:10564000DB0781F7C8010E94372AD601FC0184E1FB
:1056500001900D928150E1F704C0C601B7010E948C
:105660007B04C8010E948A2AE60156E3D52E4DE943
:10567000E42EF12CE00EF11ED801ED91FC91699120
:105680006D250190F081E02DC8010995CE15DF054B
:1056900099F7DF91CF911F910F91FF90EF90DF90DD
:1056A000CF9008952F923F924F925F926F927F9288
:1056B0008F929F92AF92BF92CF92DF92EF92FF9222
:1056C0000F931F93DF93CF93CDB7DEB7A2970FB69B
:1056D000F894DEBF0FBECDBF8B5B9F4FDC012D91D9
:1056E0003D914D915D9129833A834B835C832D914C
:1056F0003D914D915D912D833E834F8358872D9130
:105700003D914D915D9129873A874B875C876D90DC
:105710007D908D909D902D913D914D915D912D8726
:105720003E874F87588B2D913D914D915D91298BEF
:105730003A8B4B8B5C8B2D913D914D915D91BAA332
:10574000A9A32D8B3E8B4F8B588F8D919D910D90E2
:10575000BC91A02DE9A1FAA1E156F040FAA3E9A37A
:105760002CE436E03C8F2B8F41E050E05A8F498F7C
:105770000EC1598D503108F4CBC0698D7A8D6F7090
:105780007070E98DFA8D3297EF70F0703196EE0FF0
:10579000FF1FEE0FFF1F89A19AA1E80FF91FA0803C
:1057A000B180C280D380E98DFA8D3F97EF70F070A1
:1057B0003196EE0FFF1FEE0FFF1FE80FF91F6080FD
:1057C000718082809380E98DFA8D3797EF70F07049
:1057D0003196EE0FFF1FEE0FFF1FE80FF91F6F5FEF
:1057E0007F4F660F771F660F771F680F791FE08066
:1057F000F18002811381FB0180819181A281B381BB
:10580000E80EF91E0A1F1B1FD601C50121E1B6953E
:10581000A795979587952A95D1F7A6019501FFE061
:10582000220F331F441F551FFA95D1F7822B932B5C
:10583000A42BB52BA6019501EAE05695479537951F
:105840002795EA95D1F782279327A427B527A601A4
:105850009501FDE0220F331F441F551FFA95D1F724
:10586000E3E1D694C794B794A794EA95D1F72A298F
:105870003B294C295D2982279327A427B527E80EC9
:10588000F91E0A1F1B1FD401C30127E0B695A79577
:10589000979587952A95D1F7A4019301F9E1220FF5
:1058A000331F441F551FFA95D1F7822B932BA42B3E
:1058B000B52BA4019301E3E05695479537952795BD
:1058C000EA95D1F782279327A427B527A40193014E
:1058D000FEE0220F331F441F551FFA95D1F7E2E176
:1058E0009694879477946794EA95D1F72629372977
:1058F0004829592982279327A427B527E80EF91E9E
:105900000A1F1B1FDB01ED92FD920D931C93139751
:10591000EB8DFC8D3496FC8FEB8F298D3A8D2F5FAC
:105920003F4F3A8F298F8D899E89AF89B88D2989FC
:105930003A894B895C892D8B3E8B4F8B588F2D85F7
:105940003E854F855889298B3A8B4B8B5C8B6984BC
:105950007A848B849C842D813E814F815885298750
:105960003A874B875C8729813A814B815C812D8303
:105970003E834F83588729823A824B825C822D8DE9
:105980003E8D4F8D58A12D873E874F87588B2B8D8D
:105990003C8DF901A590B590C590D490A80EB91E84
:1059A000CA1EDB1E2D853E854F8558890BE0569516
:1059B0004795379527950A95D1F78D859E85AF85B3
:1059C000B88915E1880F991FAA1FBB1F1A95D1F737
:1059D000282B392B4A2B5B2B8D859E85AF85B8896B
:1059E000F6E0B695A79597958795FA95D1F7ED844A
:1059F000FE840F851889EAE1EE0CFF1C001F111FC1
:105A0000EA95D1F78E299F29A02BB12B282739277A
:105A10004A275B278D859E85AF85B88979E1B69544
:105A2000A795979587957A95D1F7ED84FE840F8594
:105A3000188967E0EE0CFF1C001F111F6A95D1F753
:105A40008E299F29A02BB12B282739274A275B278E
:105A5000A20EB31EC41ED51E89899A89AB89BC8942
:105A60002D893E894F89588D82279327A427B527F2
:105A70002D853E854F85588982239323A423B52302
:105A80002D893E894F89588D82279327A427B527D2
:105A9000A80EB91ECA1EDB1EE98DFA8D3197EF7074
:105AA000F0703196EE0FFF1FEE0FFF1F49A15AA1B4
:105AB000E40FF51F80819181A281B381A80EB91EE8
:105AC000CA1EDB1EE980FA800B811C813DE0169521
:105AD0000795F794E7943A95D1F789819A81AB813C
