:100000000C948E020C94C9020C94C9020C94C9027F
:100010000C94C9020C94C9020C94C9020C94C90234
:100020000C94C9020C94C9020C94C9020C94C90224
:100030000C94C9020C94C9020C94C9020C94C90214
:100040000C9446230C94C9020C9443250C949125DE
:100050000C94C9020C94C9020C94C9020C94C902F4
:100060000C94140C0C94C9026170692E636F736D4B
:100070002E636F6D005F726177006F686D7300258E
:100080000048756D69646974790064656720430090
:1000900054656D7065726174757265003E3E3E20F8
:1000A000524553504F4E53452052454345495645BE
:1000B00044202D2D2D0025303258004461746120DC
:1000C00073656E7420666F72200053656E64696E8E
:1000D00067206461746120746F20436F736D0050FA
:1000E000555420687474703A2F2F24462F76322F7F
:1000F00066656564732F24452E6A736F6E204854BD
:1001000054502F312E300D0A486F73743A20244614
:100110000D0A582D4170694B65793A2024450D0A26
:10012000436F6E74656E742D4C656E6774683A200B
:1001300024440D0A0D0A24480050726570617269EA
:100140006E6720737461736800227D7D5D7D00227F
:100150002C2273796D626F6C223A2200225D2C2270
:10016000756E6974223A7B226C6162656C223A2258
:1001700000636F6D70757465640072617700222C86
:10018000226171653A646174615F6F726967696E5B
:100190003D00222C226171653A6669726D77617249
:1001A000655F76657273696F6E3D00222C22617106
:1001B000653A73656E736F725F696E6465783D0052
:1001C000222C226171653A73656E736F725F616490
:1001D00064726573733D005F72617700222C227434
:1001E000616773223A5B226171653A73656E736F62
:1001F000725F747970653D00222C2263757272659E
:100200006E745F76616C7565223A22007B226461B0
:10021000746173747265616D73223A5B7B226964E9
:10022000223A2022005352563A2000444E53206670
:1002300061696C656400444E533A200047573A2088
:100240000049503A200044484350206661696C657B
:100250006420726573657474696E67004661696CC9
:10026000656420746F2061636365737320457468EF
:1002700065726E657420636F6E74726F6C6C6572FC
:10028000004567672053657269616C20233A20201E
:10029000003A003000546F6F204C6F6E6720536936
:1002A0006E6365204C61737420526573706F6E735A
:1002B000652046726F6D20436F736D2C20526573FD
:1002C000657474696E670020506F737465642053A1
:1002D000656E736F722044617461002E2E2E20496A
:1002E0006E636F6E6365697661626C65210054723E
:1002F000616E736D6974205374617465203D2000D4
:1003000054696D6520666F72206F75722072656723
:10031000756C61726C79207363686564756C656473
:10032000205265737461727421002053656E7420CD
:10033000456767204275732043616C63756C617417
:100340006564203A3A20002053656E742045676743
:100350002042757320526177203A3A20002053657D
:100360006E742048756D6964697479002053656EF8
:10037000742054656D7065726174757265004B69A7
:10038000636B696E67206F6666207472616E736D51
:100390006974206379636C6500536F6D6574686977
:1003A0006E672069732074616B696E67206C6F6E75
:1003B000676572207468616E206578706563746526
:1003C000642C20526573657474696E67000A5B4122
:1003D0006972205175616C69747920456767202DB9
:1003E00020426173652053656E736F72202D2076F5
:1003F000312E31325D000001080006040001450085
:1004000000820000400020504F53542024462048D2
:100410005454502F312E300D0A486F73743A2024F3
:10042000460D0A244624534163636570743A202ABA
:100430002F2A0D0A436F6E74656E742D4C656E67BE
:1004400074683A2024440D0A436F6E74656E742DEF
:10045000547970653A206170706C69636174696F7A
:100460006E2F782D7777772D666F726D2D75726C84
:10047000656E636F6465640D0A0D0A245300474579
:1004800054202446245320485454502F312E300DEC
:100490000A486F73743A2024460D0A4163636570FD
:1004A000743A20746578742F68746D6C0D0A0D0AA7
:1004B00000E30004FA000100000001000000002435
:1004C0000027002A0000000000250028002B000063
:1004D000000000230026002900040404040404048E
:1004E00004020202020202030303030303010204E3
:1004F00008102040800102040810200102040810A6
:1005000020000000070002010000030406000000B4
:100510000000000000002504B00AFD26E2EDF6E030
:1005200085EC98E001C08193EF3FF907E0F3D9F340
:1005300011241FBECFEFD8E0DEBFCDBF14BE88E1CF
:100540000FB6F89480936000109260000FBE11E027
:10055000A0E0B1E0E8E7F9E502C005900D92A63A07
:10056000B107D9F716E0A6EAB1E001C01D92A23D9D
:10057000B107E1F715E0CCE1D5E004C02297FE0118
:100580000E947F2CC631D107C9F70E9453270C94D3
:10059000BA2C0C940000A0E0B0E0E1EDF2E00C9485
:1005A0008B2CEC01A880B980CA80DB80A114B10437
:1005B000C104D10441F484E2A82E89EDB82E8BE564
:1005C000C82E87E0D82EC601B5012DE133EF41E0FA
:1005D00050E00E94622C27EA31E440E050E00E94A3
:1005E0000D2C7B018C01C601B5012DE133EF41E0FB
:1005F00050E00E94622CCA01B9012CEE34EF4FEF9B
:100600005FEF0E940D2C6E0D7F1D801F911F97FFC5
:1006100004C06150704080409048688379838A8329
:100620009B839B01AC015F77B901CA01CDB7DEB7EF
:10063000EAE00C94A72C0E94CB02089581E391E09C
:100640000E94CB0208956093310170933201809330
:100650003301909334010895FB01DC0102C0059041
:100660000D9241505040D8F70895FB01DC010D90E8
:100670000020E9F7119705900D920020E1F7089509
:10068000FB01DC0105900D920020E1F70895FC01CB
:1006900005900020E9F7809590958E0F9F1F089593
:1006A000FB0155915523A9F0BF01DC014D91451780
:1006B0004111E1F759F4CD010590002049F04D9129
:1006C00040154111C9F3FB014111EFCF81E090E0EA
:1006D00001970895FB01DC0104C08D910190801900
:1006E00021F441505040C8F7881B990B0895FB0135
:1006F000DC010D900020E9F7119701900D92002088
:10070000E1F70895FB01DC0101900D920020E1F773
:100710000895FB01DC014150504048F001900D92DA
:100720000020C9F701C01D9241505040E0F70895E4
:10073000FB019F01E8944230C4F04532B4F44A30E2
:1007400029F497FB1EF4909581959F4F642F77278E
:100750000E942C2C805D8A330CF0895D8193CB0143
:100760000097A1F716F45DE251931082C9010C9431
:10077000B903DC01FC01672F71917723E1F7329710
:1007800004C07C916D9370836291AE17BF07C8F36C
:1007900008950F931F93CF93DF938B01BC01E80162
:1007A00020E030E0A42FB0E01BC0FB018081E82FE7
:1007B000F0E094E0F595E7959A95E1F7E659FE4F5C
:1007C00080818883FB018191BF01E82FF0E0EF7009
:1007D000F070E659FE4F808189832F5F3F4F22964C
:1007E0002A173B0714F3AA0FBB1FA00FB11F1C92BF
:1007F000DF91CF911F910F910895DF92EF92FF92B9
:100800000F931F93CF93DF937C01D42E8B01C0E015
:10081000D0E0C7018C0F9D1FB80141E00E94C903C1
:10082000C53019F4F801128202C0F801D282219673
:100830000D5F1F4FC630D10561F7DF91CF911F913A
:100840000F91FF90EF90DF90089587EA91E066E6C0
:1008500074E00E94491288EA91E00E94811110928E
:1008600027041092260486E691E090932504809355
:10087000240410922B04109229048DE294E061E18B
:1008800046E10E94C02108950E94221A81E090E072
:10089000089580E1EAE3F4E0DF01982F1D929A9534
:1008A000E9F7EAE4F4E0DF011D928A95E9F786E0D2
:1008B000EAE5F4E0DF011D928A95E9F780E090E037
:1008C000A0E0B0E08093600490936104A093620480
:1008D000B0936304109264041092650408956F92BB
:1008E0007F928F929F92AF92BF92CF92DF92EF92C0
:1008F000FF920F931F93182F0E94490488EA91E0FA
:100900006091A6010E94FC10BC018AE394E00E9461
:10091000820388EA91E00E942C11AAE5B4E0FC0170
:1009200086E001900D928150E1F78091A6018093BD
:10093000640488EA91E00E940E11809365041123FB
:1009400009F04BC08AE494E06AE770E00E9440033B
:100950008AE394E065E770E00E94350388EA91E05D
:100960006091A6010E947A0E7B018C0188EA91E0D9
:100970006091A6010E94E80E3B014C0188EA91E0DB
:100980006091A6010E94400E5B016C018FEFE8169A
:100990008FEFF8068FEF08078FEF180729F46FEF36
:1009A0007FEF8FEF9FEF16C0C801B7010E94F02ABA
:1009B000A40193010E94A62B7B018C01C601B50105
:1009C0000E94F02A9B01AC01C801B7010E94A62B2E
:1009D0000E94C42A0E94F02A11C088EA91E0609126
:1009E000A6010E94EA10BC018AE494E00E948203FE
:1009F00088EA91E06091A6010E94900F60936004E4
:100A00007093610480936204909363041F910F912B
:100A1000FF90EF90DF90CF90BF90AF909F908F901E
:100A20007F906F9008950E948E23609320047093AE
:100A30002104809322049093230408950E948E231E
:100A4000E0E0209120043091210440912204509153
:100A50002304621B730B840B950B615C7742894006
:100A6000904008F0E1E08E2F089580916C040E9480
:100A7000421D892B11F480E0089580EB96E06CE92B
:100A800070E00E94D7270E94130581E008956F92BD
:100A90007F928F929F92AF92BF92CF92DF92EF920E
:100AA000FF920F931F93DF93CF93CDB7DEB7CA5456
:100AB000D0400FB6F894DEBF0FBECDBF84E294E005
:100AC0000E94731C682E70E4772E6BE0A62EB12C6A
:100AD000AC0EBD1ED501E72D1D92EA95E9F753E056
:100AE000C52ED12CCC0EDD1E88E0D6011D928A9534
:100AF000E9F780910001909101019A8389834AE38B
:100B0000842E44E0942EF40101900020E9F78F0137
:100B10000150104008191909C501B4010E9477035A
:100B2000C5017E010894E11CF11CB7010E94770306
:100B30000F5F1F4F0A0D1B1D8AE594E0B8014DE2BF
:100B40000E94FD03C501B7010E94770380916404F0
:100B500090E0B6014AE050E00E949803C501B6015A
:100B60000E94770384E294E06CE072E00E948C279C
:100B700084E294E0B5010E94E92884E294E068EF01
:100B800071E00E948C274091600450916104609153
:100B900062047091630484E294E028E030E00E94F3
:100BA000D02984E294E06CED71E00E948C27C401AE
:100BB00067ED71E00E945003892BB9F0D5011D92B9
:100BC0007A94E9F7F40101900020E9F7EF53F4403B
:100BD000C501B401AF010E94890384E294E0B5012C
:100BE0000E94E928EE24E39406C084E294E0B40174
:100BF0000E94E928EE2484E294E060EC71E00E9417
:100C00008C278E01055F1F4F80E4F80111928A95B1
:100C1000E9F78AE594E0B8014AE30E94FD0384E223
:100C200094E0B8010E94E92884E294E06BEA71E064
:100C30000E948C2784E294E0609164044AE050E0D2
:100C40000E94972884E294E062E971E00E948C2778
:100C500084E294E0609165044AE050E00E949728A5
:100C600084E294E06EE771E00E948C27EE2029F088
:100C700084E294E06AE771E004C084E294E061E712
:100C800071E00E948C2784E294E06CE571E00E94A0
:100C90008C2784E294E06AE474E00E94E92884E20C
:100CA00094E06FE471E00E948C2784E294E06AE4AF
:100CB00074E00E94E92884E294E069E471E00E9413
:100CC0008C2784E294E00E944C1A80EB96E069E362
:100CD00071E00E94D72784E294E00E9493192DB717
:100CE0003EB72E5030400FB6F8943EBF0FBE2DBF1A
:100CF000EDB7FEB731962FED30E0ADB7BEB7129627
:100D00003C932E93119748E650E05383428322E3AD
:100D100030E0358324835783468321E030E03187F8
:100D2000208793878287648615860E94D51AEDB73F
:100D3000FEB73E960FB6F894FEBF0FBEEDBF80EB38
:100D400096E06AEC70E00E94D7270E94221D8093F3
:100D50006C0480EB96E06BEB70E00E948C2780EBDC
:100D600096E06AE374E00E94D329C65BDF4F0FB6BA
:100D7000F894DEBF0FBECDBFCF91DF911F910F91D1
:100D8000FF90EF90DF90CF90BF90AF909F908F90AB
:100D90007F906F900895EF92FF920F931F938DE2D3
:100DA00094E060E00E94D4227B018C019701A801AD
:100DB0000E94092C8823B9F064EC79E080E090E08F
:100DC0000E949C238DE294E060E00E94D4227B018B
:100DD0008C019701A8010E94092C882321F0EE24A0
:100DE000FF2400E81FEBB701C8011F910F91FF908E
:100DF000EF9008950E9449048AE394E060E970E06E
:100E00000E9440038AE494E06AE870E00E94400394
:100E1000AAE5B4E0E6E6F4E086E001900D928150A8
:100E2000E1F70E94CB0660936004709361048093A5
:100E300062049093630481E0809364048CE1809366
:100E400065040895EF92FF920F931F938DE294E053
:100E50000E947D227B018C019701A8010E94092C30
:100E60008823B1F064EC79E080E090E00E949C235C
:100E70008DE294E00E947D227B018C019701A80104
:100E80000E94092C882321F0EE24FF2400E81FEBA8
:100E9000B701C8011F910F91FF90EF9008950E9434
:100EA00049048AE394E061E870E00E9440038AE428
:100EB00094E06FE770E00E944003AAE5B4E0E6E644
:100EC000F4E086E001900D928150E1F70E94220744
:100ED0006093600470936104809362049093630450
:100EE000109264048CE18093650408950E940117B8
:100EF0000E94801E08951F93CF93DF93EC0110E0B2
:100F000088818A3030F480EB96E063E972E00E94D9
:100F10008C2780EB96E0688140E150E00E949728A2
:100F2000153031F080EB96E061E972E00E948C2789
:100F30001F5F2196163021F780EB96E00E94B727BD
:100F4000DF91CF911F910895FF920F931F93CF933D
:100F5000DF93E8ECF1E082E1DF011D928A95E9F789
:100F60008F01C0E0D0E0EAE3FE2ECE018A599B4F0C
:100F7000B80141E00E94C903C53019F4F80112829A
:100F800003C0D8011296FC9221960D5F1F4FC63008
:100F9000D10559F780EB96E00E94B72780EB96E0E9
:100FA00061E872E00E948C2780EB96E068EC71E0CB
:100FB0000E94D32980EB96E00E94B72788E592E053
:100FC00066E674E048E00E940319882331F480EB60
:100FD00096E06CE572E00E94D7270E94B81488233F
:100FE00091F480EB96E066E472E00E94D72728E057
:100FF00088E190E00FB6F894A895809360000FBE4A
:1010000020936000FFCF80EB96E061E472E00E94E5
:101010008C278FEE95E00E94792180EB96E00E946C
:10102000B72780EB96E06CE372E00E948C2787EF95
:1010300095E00E94792180EB96E00E94B72780EB33
:1010400096E066E372E00E948C278FEF95E00E94A5
:10105000792180EB96E00E94B72780EB96E062E072
:1010600071E00E94E9280E94AE21BC0180EB96E06D
:101070004AE050E00E947A2888E690E060E00E9412
:10108000ED14882331F480EB96E06BE272E00E946D
:10109000D72780EB96E065E272E00E948C2783E020
:1010A00096E00E94792180EB96E00E94B7270E948B
:1010B0004F16DF91CF911F910F91FF900895CF921E
:1010C000DF92EF92FF921F930E948E236B017C01AF
:1010D0000E9476078091BB019091BC01A091BD0157
:1010E000B091BE01A7019601281B390B4A0B5B0B7F
:1010F0008091350190913601A0913701B09138016E
:1011000082179307A407B507B8F580914201843090
:10111000E1F080EB96E069E973E00E94D72780EB6D
:1011200096E00E94AD2668EE73E080E090E00E94B9
:101130009C2328E088E190E00FB6F894A89580936E
:1011400060000FBE20936000FFCF80EB96E06EE75B
:1011500073E00E94D727C092BB01D092BC01E092FD
:10116000BD01F092BE011092C70181E0809342015F
:1011700088EA91E00E94C30D8091C3019091C4015F
:10118000A091C501B091C601A7019601281B390B9A
:101190004A0B5B0B80913D0190913E01A0913F0174
:1011A000B091400182179307A407B50740F4C0929D
:1011B000C301D092C401E092C501F092C6018091B2
:1011C000C701882309F0E1C010914201123011F1EA
:1011D000133020F4113009F0C4C006C01330E9F117
:1011E000143009F0BEC09CC00E94FA061093C701DB
:1011F0000E948E23AB01BC0180EB96E02AE030E038
:101200000E946B2880EB96E06CE673E00E94D72783
:1012100082E020C00E944F0781E08093C7011092B6
:10122000A6010E948E23AB01BC0180EB96E02AE070
:1012300030E00E946B2880EB96E06DE573E00E9441
:10124000D72788EA91E00E943C11882311F083E0BF
:1012500001C084E08093420198C01091A60188EA01
:1012600091E00E941D11181708F04BC08091BA013F
:10127000882309F50E946F040E948E23AB01BC01F4
:1012800080EB96E02AE030E00E946B2880EB96E04D
:1012900067E473E00E948C2788EA91E06091A601E0
:1012A0000E94FC10BC0180EB96E00E94D32981E0F3
:1012B0008093BA012EC081E00E946F040E948E23A9
:1012C000AB01BC0180EB96E02AE030E00E946B2885
:1012D00080EB96E06AE273E00E948C2788EA91E056
:1012E0006091A6010E94FC10BC0180EB96E00E9478
:1012F000D3291092BA018091A6018F5F8093A60135
:1013000008C088EA91E00E943C11882331F01092D5
:10131000A60181E08093C70138C01092C70199CF20
:1013200081ECC81687E2D80689E0E80680E0F80676
:1013300060F180EB96E060E073E00E94D72768EEF2
:1013400073E080E090E00E949C2328E088E190E038
:101350000FB6F894A895809360000FBE20936000AC
:10136000FFCF80EB96E06EEE72E00E948C2780EB60
:1013700096E0609142014AE050E00E94972880EB9D
:1013800096E06BED72E00E94D7278091410188239F
:1013900031F58091BF019091C001A091C101B09140
:1013A000C201A7019601281B390B4A0B5B0B8091E8
:1013B000390190913A01A0913B01B0913C01821713
:1013C0009307A407B50758F481E080934101C092C8
:1013D000BF01D092C001E092C101F092C2018091A0
:1013E0004101882331F18091C701882311F10E94C6
:1013F00047050E948E23AB01BC0180EB96E02AE0FA
:1014000030E00E946B2880EB96E067EC72E00E946F
:10141000D72780EB96E00E94B7271092C701109261
:101420004101C092BF01D092C001E092C101F0928F
:10143000C2010E941E058823C1F080EB96E065E999
:1014400072E00E94D72768EE73E080E090E00E948F
:101450009C2328E088E190E00FB6F894A89580934B
:1014600060000FBE20936000FFCF0E9435051F91E2
:10147000FF90EF90DF90CF9008950F931F9380E03F
:101480000E943A240E94E62900EB16E0C80140E0E1
:1014900052EC61E070E00E94CC25C8016DEC73E075
:1014A0000E94D727C8016AE071E00E94E92886E619
:1014B00094E00E947B0783E996E1AFE3B4E0809378
:1014C000BB019093BC01A093BD01B093BE010E94EB
:1014D000A4071F910F91089581E08093B204609357
:1014E0008F041092B0041092B104089581E08093AB
:1014F000B20460938F041092B0041092B104089566
:1015000020918E0430E080918D04281B3109C9019F
:10151000089540918D0480918E04481718F02FEFA4
:101520003FEF0AC0E42FF0E0E359FB4F8081282F02
:1015300030E04F5F40938D04C9010895E0918D0420
:1015400080918E04E81718F0EFEFFFEF06C0F0E08F
:10155000E359FB4F8081E82FF0E0CF010895089513
:101560001092B6041092B50488EE93E0A0E0B0E0CB
:101570008093B7049093B804A093B904B093BA04CD
:101580008EE791E09093B4048093B3040895CF92D2
:10159000DF92EF92FF920F931F93CF93DF937C0123
:1015A0006B018A018091B2048823A1F0C0E0D0E0F1
:1015B0000DC0D701ED91FC91D601AC0FBD1F01907C
:1015C000F081E02DC7016C9109952196C017D107D4
:1015D00080F304C0CB01642F0E94F90BC801DF9196
:1015E000CF911F910F91FF90EF90DF90CF900895D2
:1015F000DF93CF930F92CDB7DEB7FC016983809163
:10160000B2048823C9F08091B104803238F081E0BF
:1016100090E09383828320E030E015C08091B00495
:10162000E82FF0E0E057FB4F998190838F5F809324
:10163000B0048093B10405C0CE01019661E00E9420
:10164000F90B21E030E0C9010F90CF91DF910895AF
:101650000F93062F80918F0460E974E04091B104EC
:1016600021E00E94A40B1092B0041092B1041092D9
:10167000B2040F91089561E00E94280B0895413251
:1016800008F040E2862F6DE674E00E945B0B10923A
:101690008D0480938E04089521E00E943F0B0895ED
:1016A00010928D0410928E041092B0041092B10426
:1016B0000E94A50D0895382F413210F040E042C03D
:1016C0008091BF048823E1F791E09093BF042093B9
:1016D000C1048FEF80932C051092E7044150409392
:1016E000E8044F5F9093C0048091C004330F832BB4
:1016F0008093C0048091C204813041F41092C204EE
:101700008091C0048093BB0085EC01C085EE80937E
:10171000BC008091BF048130E1F38091E70484171D
:1017200010F44091E70420E030E00AC0FB01E20F32
:10173000F31FD901A953BB4F8C9180832F5F3F4F7B
:101740002417A0F3842F08950F931F93582F122F5F
:10175000413210F081E04AC08091BF048823E1F754
:1017600082E08093BF040093C1048FEF80932C0527
:101770001092E7044093E804A7ECB4E0FB0102C038
:1017800081918D938E2F861B8417D0F31092C00405
:101790008091C004550F852B8093C0048091C204B2
:1017A000813041F41092C2048091C0048093BB0048
:1017B00085EC01C085EE8093BC00112321F080915F
:1017C000BF048230E1F380912C058F3F11F480E05B
:1017D0000DC080912C05803211F482E007C0809109
:1017E0002C05803311F084E001C083E01F910F913C
:1017F0000895482F613210F081E008958091BF0470
:10180000843011F082E0089560930A05A9EEB4E0F7
:10181000842F9C01F90102C081918D938E2F841B2E
:101820008617D0F380E008951F920F920FB60F92A3
:1018300011242F933F934F935F936F937F938F93D5
:101840009F93AF93BF93EF93FF938091B90090E084
:10185000887F90708036910509F4F2C08136910539
:10186000CCF58832910509F47BC089329105B4F436
:101870008031910509F46FC0813191053CF40097E6
:1018800009F447C1089709F04FC165C08831910537
:1018900009F466C0809709F047C182C08034910581
:1018A00009F4A4C08134910544F48033910509F40E
:1018B00082C0C89709F038C189C08035910509F404
:1018C00089C08835910509F496C08834910509F0DE
:1018D0002BC1AEC08839910509F413C1893991052E
:1018E000ECF48837910509F4ABC0893791054CF4C5
:1018F0008836910509F4A4C08037910509F014C118
:101900009FC08838910509F4FCC08039910509F41D
:101910009DC08038910509F007C198C0803B9105B2
:1019200009F4C6C0813B91054CF4803A910509F455
:101930009FC0883A910509F0F7C0BAC0803C910574
:1019400009F4E3C0883C910509F4DFC0883B9105A8
:1019500009F0EAC0C2C08091C0048093BB00CFC030
:101960009091E7048091E804981768F49091E70457
:10197000E92FF0E0E953FB4F80818093BB009F5F2C
:101980009093E704BCC08091C104882309F44BC044
:1019900085ED8093BC008091BC0084FDFCCFC2C06B
:1019A00080E280932C0585ED8093BC008091BC0083
:1019B00084FDFCCFB7C080E380932C0585ED809338
:1019C000BC008091BC0084FDFCCFACC088E3809358
:1019D0002C059BC08091E7049091BB00E82FF0E0BC
:1019E000E953FB4F90838F5F8093E7049091E70466
:1019F0008091E80482C08091E7049091BB00E82FB9
:101A0000F0E0E953FB4F90838F5F8093E704809170
:101A1000C104882341F085ED8093BC008091BC0017
:101A200084FDFCCF7FC081E08093C20484EA6EC055
:101A300085ED8093BC008091BC0084FDFCCF72C01A
:101A400083E08093BF0410922B0559C080912B0531
:101A5000803208F056C080912B059091BB00E82F92
:101A6000F0E0E55FFA4F90838F5F80932B0547C0CE
:101A700080912B05803230F4E0912B05F0E0E55F9A
:101A8000FA4F108285ED8093BC008091BC0084FDEC
:101A9000FCCF1092BF0460912B05E091C504F0913A
:101AA000C6048BE095E070E0099510922B052DC0DF
:101AB00084E08093BF041092090510920A05E0911A
:101AC000C304F091C404099580910A05882329F480
:101AD00081E080930A051092E90490910905E92FAD
:101AE000F0E0E751FB4F80818093BB009F5F9093B4
:101AF00009059091090580910A05981710F485EC65
:101B000001C085E88093BC000FC085EC8093BC00C9
:101B100009C010922C0585ED8093BC008091BC001B
:101B200084FDFCCF1092BF04FF91EF91BF91AF9164
:101B30009F918F917F916F915F914F913F912F91E5
:101B40000F900FBE0F901F9018951092BF0481E068
:101B50008093C1041092C20482E161E00E949B2440
:101B600083E161E00E949B24E9EBF0E080818E7FBD
:101B7000808380818D7F808388E48093B80085E4B2
:101B80008093BC000895FC011082118208951F9378
:101B9000613011F414E005C0623011F415E001C0A9
:101BA00010E083EB94E060E770E00E94760A83EB3C
:101BB00094E0612F0E94F80A83EB94E00E943B0BB3
:101BC0001F9108951F93CF93DF93EA0183EB94E075
:101BD000422F0E944C0B10E009C083EB94E00E945E
:101BE000890AFE01E10FF11D80831F5F83EB94E002
:101BF0000E94800A892B89F7DF91CF911F91089568
:101C0000EF92FF920F931F937A0103EB14E0C80148
:101C10000E946C0AC80161E10E94F80AC8016F2D98
:101C20000E94F80AC8016E2D0E94F80AC8010E949D
:101C30003B0B1F910F91FF90EF900895EF92FF9251
:101C40000F931F938C01F62EE22E0E94000E61E08E
:101C500070E080E090E00E949C23C8016F2D0E5F31
:101C60001F4FA8012E2D0E94E20D61E070E080E080
:101C700090E00E949C231F910F91FF90EF90089598
:101C80000F931F938C01562F40E0405C5F4FF8018B
:101C9000618124E00E941E0EF801828190E0A0E0A4
:101CA000B0E0BA2FA92F982F8827238130E040E099
:101CB00050E0282B392B4A2B5B2B542F432F322FEC
:101CC0002227848190E0A0E0B0E0282B392B4A2B1A
:101CD0005B2B542F432F322F2227858190E0A0E0E9
:101CE000B0E0282B392B4A2B5B2BB901CA011F917D
:101CF0000F9108950F931F938C01562F40E04C5B7A
:101D00005F4FF801618124E00E941E0EF80182817C
:101D100090E0A0E0B0E0BA2FA92F982F8827238168
:101D200030E040E050E0282B392B4A2B5B2B542F1E
:101D3000432F322F2227848190E0A0E0B0E0282BAF
:101D4000392B4A2B5B2B542F432F322F222785818F
:101D500090E0A0E0B0E0282B392B4A2B5B2BB90197
:101D6000CA011F910F910895EF92FF920F931F9355
:101D7000CF93DF93EC01E62F7901F0E055E0EE0F11
:101D8000FF1F5A95E1F7E40FF11D3B9633E0EE0F8C
:101D9000FF1F3A95E1F76981AF0122E00E941E0E14
:101DA0008A81F70180838B81F80180838A818F3F4C
:101DB00011F420E005C020E08B818F3F09F021E085
:101DC000822FDF91CF911F910F91FF90EF90089597
:101DD0000F931F938C01562F40E04C5A5F4FF80130
:101DE000618124E00E941E0EF801228130E040E073
:101DF00050E0542F432F322F2227638170E080E080
:101E000090E0622B732B842B952B982F872F762FA6
:101E10006627248130E040E050E0622B732B842B56
:101E2000952B982F872F762F6627258130E040E06D
:101E300050E0622B732B842B952B1F910F910895EB
:101E40000F931F938C01562F40E0405B5F4FF801CA
:101E5000618124E00E941E0EF801228130E040E002
:101E600050E0542F432F322F2227638170E080E00F
:101E700090E0622B732B842B952B982F872F762F36
:101E80006627248130E040E050E0622B732B842BE6
:101E9000952B982F872F762F6627258130E040E0FD
:101EA00050E0622B732B842B952B1F910F9108957B
:101EB0000F931F938C01562F40E0485B5F4FF80152
:101EC000618124E00E941E0EF801228130E040E092
:101ED00050E0542F432F322F2227638170E080E09F
:101EE00090E0622B732B842B952B982F872F762FC6
:101EF0006627248130E040E050E0622B732B842B76
:101F0000952B982F872F762F6627258130E040E08C
:101F100050E0622B732B842B952B1F910F9108950A
:101F20002F923F924F925F926F927F928F929F92E9
:101F3000AF92BF92CF92DF92EF92FF920F931F93D7
:101F4000DF93CF93CDB7DEB76D970FB6F894DEBFB2
:101F50000FBECDBF9C8F8B8F6D8F0E94580F6F8BE4
:101F6000788F898F9A8F8B8D9C8D6D8D0E94200F1D
:101F70006B8B7C8B8D8B9E8B8B8D9C8D6D8D0E9446
:101F8000E80E7B018C018B8D9C8D6D8D0E947A0EED
:101F90000E94F02A9B01AC01C801B7010E94A62B48
:101FA0005B016C01EE2480E090E0A0E0B0E08F8760
:101FB000988BA98BBA8B8B879C87AD87BE878F83C5
:101FC0009887A987BA878B839C83AD83BE83A2C081
:101FD000698170E0882777FD8095982F0E94F22A0A
:101FE0009B01AC016F89788D898D9A8D0E94A62BFB
:101FF0001B012C016A8170E0882777FD8095982F5E
:102000000E94F22A9B01AC016B897C898D899E8993
:102010000E94A62B3B014C01C201B101A601950112
:102020000E94532A882309F4B2C0E39491E0E91690
:10203000A1F4C201B101A60195010E94A22B1816BC
:102040000CF050C0C401B301A20191010E94572AB3
:10205000A60195010E94A62B98C0A1E0AE1508F03C
:1020600041C0C201B101A60195010E94A22B181620
:10207000CCF5C601B5012F85388949895A890E9456
:10208000A22B18167CF5C601B5012F853889498920
:102090005A890E94EE295B016C01C401B3012B85B2
:1020A0003C854D855E850E94EE297B018C01C20135
:1020B000B1012F85388949895A890E94EE299B01EF
:1020C000AC01C801B7010E94572A9B01AC01C601AF
:1020D000B5010E94A62B9B01AC016B857C858D858B
:1020E0009E8551C08B859C85AD85BE858B839C83E9
:1020F000AD83BE838F859889A989BA898F83988794
:10210000A987BA876B867C868D869E862F86388ABD
:10211000498A5A8A8B8D9C8D6D8D4E2D9E012F5F25
:102120003F4F8E010E5F1F4F0E94B40E882309F0AF
:102130004FCFC401B3012B813C814D815E810E9450
:10214000EE297B018C01C201B1012F8138854985BF
:102150005A850E94EE299B01AC01C801B7010E947B
:10216000572A7B018C01C601B501A20191010E9491
:10217000EE299B01AC01C801B7010E94A62B9B016F
:10218000AC01C401B3010E94EF293B014C01B30132
:10219000C4016D960FB6F894DEBF0FBECDBFCF91D0
:1021A000DF911F910F91FF90EF90DF90CF90BF9044
:1021B000AF909F908F907F906F905F904F903F90E7
:1021C0002F900895FC01618140E050E021E00E94E1
:1021D0001E0E08950F931F938C01562F40E0405D13
:1021E0005F4FF801618120E10E941E0E0E5F1F4FBC
:1021F000C8011F910F9108950F931F938C01562FC3
:1022000040E0405E5F4FF801618120E10E941E0EB8
:102210000E5F1F4FC8011F910F9108950F931F93D9
:102220008C01F801618147E050E024E00E941E0E1D
:10223000F80185811F910F9108950F931F938C01D1
:10224000F801618140E050E021E00E941E0EF8019B
:1022500082811F910F9108950F931F938C01F801B4
:10226000618141E050E026E00E941E0E0E5F1F4F8C
:10227000C8011F910F910895AF92BF92DF92EF9224
:10228000FF920F931F93DF93CF930F92CDB7DEB7DB
:102290007C011982FC01D0805E010894A11CB11C54
:1022A00020C0C7010E94E210C7016D2D0E94C70D1A
:1022B000F701118112C0103781F0812FB50140E084
:1022C00021E000E00E94A40B882339F4F701D082BA
:1022D0001183C7010E94E21008C01F5F17FFEBCFF8
:1022E000D394F2E0FD15E8F610E0812F0F90CF9126
:1022F000DF911F910F91FF90EF90DF90BF90AF9013
:1023000008950F931F938C0183EB94E00E94500B70
:10231000F801108211821F910F9108950F931F935E
:10232000579889E090E00E94F52309B184E190E09C
:102330000E94F52319B189E090E00E94F52317FD72
:1023400002C080E005C0802F8095881F8827881FE5
:102350001F910F9108956F927F928F929F92AF92EB
:10236000BF92CF92DF92FF920F931F93CF93DF9391
:102370005C013B016A0100E010E04A010894810819
:1023800091082AC0FF24C0E0D0E0C5010E948E1150
:10239000FF0CF82A2196C830D105B9F7579A0815CD
:1023A000190539F45F9A84E190E00E94F5235F9863
:1023B00006C05F9884E190E00E94F5235F9A84E173
:1023C00090E00E94F523C5010E948E11F301E00FF9
:1023D000F11FF0820F5F1F4F0C151D059CF2DF915E
:1023E000CF911F910F91FF90DF90CF90BF90AF9052
:1023F0009F908F907F906F900895EF92FF921F9320
:10240000CF93DF937C01162F579AC0E0D0E017FFDF
:1024100007C05F9884E190E00E94F5235F9A06C0B0
:102420005F9A84E190E00E94F5235F9884E190E058
:102430000E94F5232196C830D10511F0110FE7CF86
:102440005F9884E190E00E94F5235F9A84E190E038
:102450000E94F523C7010E948E11DF91CF911F9139
:10246000FF90EF9008950F931F938C015F9886E083
:1024700090E00E94F523C80165E50E94FD111F91BF
:102480000F910895579A5F9A88E592E00E94F5238C
:102490000895EF92FF920F931F938C017B01F894A4
:1024A0000E944212C8010E943312C80160EA0E94D1
:1024B000FD11C80163E00E94FD11C80160E00E94A7
:1024C000FD11C8016AEF0E94FD11C801B70146E085
:1024D00050E00E94AB11C8010E94421278941F91F3
:1024E0000F91FF90EF900895DF93CF9300D000D02D
:1024F00000D0CDB7DEB7DE011196EAE8F1E086E064
:1025000001900D928150E1F786E191E0E8ECF1E075
:10251000DF019C011D9221503040E1F780912D0593
:10252000833019F46BEF75E003C0BE016F5F7F4F1E
:1025300084E490E043E450E00E947B1D80912D05EF
:10254000833039F088EC91E0BE016F5F7F4F0E94CD
:102550009A2181E08093F2018093F30186E08093D9
:10256000F40180913A0590913B05A0913C05B09112
:102570003D058093F6019093F701A093F801B09385
:10258000F90180912D05833039F482EF91E00C96AA
:102590006FEE75E00E94A2218EE092E069EE75E098
:1025A0000E949A21AEEDB2E0E4E5F1E002C0819133
:1025B0008D9331E0EA35F307D1F790912D059923FA
:1025C00011F083E001C081E08093E4028DE3809309
:1025D000E50287E08093E60281E08093E702A8EEBF
:1025E000B2E0E9EEF5E002C081918D9385E0EF3E27
:1025F000F807D1F78CE08093EE028AE08093EF0237
:10260000E3E4F1E0A0EFB2E002C081918D9321E01C
:10261000ED34F207D1F72AEF32E030933F052093F3
:102620003E05913069F582E38093FA0284E080935D
:10263000FB02D9011296EFEEF5E002C081918D9375
:1026400035E0E33FF307D1F786E38093000384E0AE
:102650008093010382E093E090933F0580933E05D1
:10266000DC01EBEFF5E002C081918D9385E0EF3F57
:10267000F807D1F786E093E090933F0580933E05FD
:1026800020913E0530913F05D901EEE4F1E002C012
:1026900081918D9381E0E435F807D1F7C901069661
:1026A00090933F0580933E05825F91400E94511EAA
:1026B00026960FB6F894DEBF0FBECDBFCF91DF9147
:1026C0000895EF92FF920F931F93CF93DF93EC0146
:1026D00080912D05823009F4E0C0833030F48823E6
:1026E00051F1813009F03DC14AC0833021F084307E
:1026F00009F037C1D2C00E948E232091320530915B
:1027000033054091340550913505E0902E05F09049
:102710002F0500913005109131052E0D3F1D401FF2
:10272000511F621773078407950708F41AC10E94A6
:10273000741284E017C00E948E2360933A05709350
:102740003B0580933C0590933D051092EF05109258
:10275000F0051092F1051092F2050E9474120E9489
:10276000541681E080932D050E948E2360933605D8
:10277000709337058093380590933905F2C0C634BD
:10278000D10508F4B2C08091EB01833409F0ADC0EB
:102790008091F201823009F0A8C02091F6013091B9
:1027A000F7014091F8015091F90180913A0590911B
:1027B0003B05A0913C05B0913D05281739074A0714
:1027C0005B0709F092C08091E202853309F08DC069
:1027D0008091E402823009F088C0A6C0DF01119622
:1027E000E180ED01219680818630A9F0873030F4B8
:1027F000813059F0833009F045C00AC08633E9F1D1
:102800008A3361F08333F1F509C083EF95E037C077
:1028100087EF95E034C08FEF95E031C011966C9151
:1028200070E080E090E0982F872F762F662729812F
:10283000620F711D811D911D982F872F762F66279E
:102840002A81620F711D811D911D982F872F762F70
:1028500066272B81620F711D811D911D28EE33E0CB
:1028600040E050E00E940D2C6093320570933305D8
:10287000809334059093350505C08BEF95E0BE013C
:102880000E94A221FE01EE0DF11DE017F10708F4F0
:10289000A5CF0E94741282E065CFC634D10528F11D
:1028A0008091EB01833409F58091F2018230E9F4E3
:1028B0002091F6013091F7014091F8015091F90112
:1028C00080913A0590913B05A0913C05B0913D0562
:1028D000281739074A075B0741F48091E2028533E4
:1028E00021F48091E402853059F10E948E232091D9
:1028F0003605309137054091380550913905205FF4
:10290000384D4F4F5F4F261737074807590748F094
:1029100028C087EF95E00E94E11D83E080932D059C
:1029200020C010922D051DC08FEE95E062E072E090
:102930000E94A221E2EEF2E08E0108531E4F4ECF1C
:102940000E944F160E948E2360932E0570932F05D0
:1029500080933005909331058091F7058823E9F243
:10296000D8CFDF91CF911F910F91FF90EF900895F5
:10297000CF93DF9381E0809307069091EE05892F36
:1029800082958F70805D80934B019F70905D9093D6
:102990004C0110922D050E948E23EB0104C00E9471
:1029A00001170E94611380912D05833061F00E9410
:1029B0008E236C1B7D0B60567A4E28F40E94851680
:1029C000882389F3ECCF90E080912D05833009F4C2
:1029D00091E0892FDF91CF910895FF920F931F937C
:1029E000CF93DF93182F092FF62E0E948E23EB0131
:1029F0000E948516882329F00E94101D882309F45F
:102A0000DBC00E9401170E94801E0E948E236C1B57
:102A10007D0B6053754760F3C8C088E098E0A8E07C
:102A2000B8E08093FF0590930006A0930106B09351
:102A300002068091400590E0906E6FEF75E045E3EF
:102A400050E00E947B1DA2EFB1E08CE0FD011192ED
:102A50008A95E9F7812F902FFC01CF011C9630E079
:102A6000FF2019F0FC01208102C0FC012491019695
:102A70002E3241F0222331F03F5FFD01E30FF11DC3
:102A80002083EECFFD013193DF01A30FB11D22237F
:102A900031F7FD01119211961C92DF01119641E070
:102AA0004183FD01319611961C92418386ED28ECFD
:102AB00031E0821B32968E0F8093F2019091400597
:102AC0009093F3014093F4014093F70190E00E944A
:102AD000511E0E948E238B0161C00E948E23601BB9
:102AE000710B6053754708F060C00E940117EC013C
:102AF000009709F453C00E94801E892B09F04EC034
:102B0000C634D10508F44AC08091EB01853309F041
:102B100045C08091EC01803E09F040C09091ED01EC
:102B2000809140059817D1F58091F3018917B1F58F
:102B30008091F50190E08F709070892B79F58091EC
:102B4000F201E82FF0E0EE50FE4F9E0128533E4F79
:102B50008081807C39F0329609C08081882311F40D
:102B6000319604C03196E217F307B8F3CF010E9601
:102B70002817390798F08181813051F4818584309C
:102B800039F43A9683E096E0BF010E94A22106C084
:102B9000818590E00A96E80FF91FDACF809103064D
:102BA000882309F49ACF81E001C080E0DF91CF91C2
:102BB0001F910F91FF900895109203061092040642
:102BC0001092050610920606809140058F5F809353
:102BD00040058091FF05882309F02BCF1ECF8091FF
:102BE000430561E00E949B2478940895FF920F931F
:102BF0001F93082F162FF42EF8948091430560E060
:102C00000E949B241F71102B1EBD0DB407FEFDCF2B
:102C1000FEBC0DB407FEFDCF0E94EF151F910F9172
:102C2000FF9008951F93182F282F30E020763070E2
:102C30008091440590E02817390799F080EA6FE108
:102C400043E00E94F615412F40764093440550E042
:102C500085E0559547958A95E1F780E86FE10E94F8
:102C6000F6151F9108950F931F93182F062F0E949A
:102C7000121680E4612F402F0E94F6151F910F91CC
:102C800008950F931F93182F072F0E943316812F3B
:102C90008F5F602F0E9433161F910F91089588E374
:102CA00060EB0E943316089588E361EB0E943316AF
:102CB00008950F931F93182F062FF89480914305C2
:102CC00060E00E949B24802F8F71812B8EBD0DB4FC
:102CD00007FEFDCF1EBC0DB407FEFDCF07FF04C0ED
:102CE0001EBC0DB407FEFDCF1EB50E94EF15812F4F
:102CF0001F910F9108951F93182F0E94121680E0C4
:102D0000612F0E9459161F91089584ED61E10E9480
:102D1000331682ED61E00E9433168AEE0E947B1624
:102D200080FDFBCF82ED60E00E94331689ED0E94AA
:102D30007B1690E096958795969587958170089576
:102D40000F931F93CF93DF93EC018B01F894809145
:102D5000430560E00E949B248AE38EBD0DB407FE0C
:102D6000FDCF09C01EBC0DB407FEFDCF8EB5F80126
:102D700081938F0121972097A9F70E94EF15DF918A
:102D8000CF911F910F910895DF93CF930F92CDB7FD
:102D9000DEB7198290E036E0880F991F3A95E1F787
:102DA000860F911DBC0160507E4E80509E4050F4B5
:102DB00080E00E94411681E090E0BE016F5F7F4F8E
:102DC0000E94A01689810F90CF91DF910895CF9333
:102DD000DF93EB0190E046E0880F991F4A95E1F7F9
:102DE000BC0160507E4E815C9D4040F480E00E94BA
:102DF000411680E490E0BE010E94A016DF91CF91C1
:102E000008950F931F93DF93CF9300D000D000D08D
:102E1000CDB7DEB789E30E947B16882319F400E062
:102E200010E048C0609145057091460580E00E9421
:102E3000411686E090E0BE016F5F7F4F0E94A016B2
:102E400089819A8190934605809345052B813C8129
:102E5000E0914105F09142058D8187FD03C000E0BE
:102E600010E00EC0245030408F0101501040201758
:102E7000310708F48901C80168EC71E00E94A016CE
:102E8000F801E853FE4F10826091450570914605A8
:102E90008CE06130780724F08CE06FEF7BE003C0BA
:102EA000615070408CE00E94411680E86EE140E481
:102EB0000E94F615C80126960FB6F894DEBF0FBE25
:102EC000CDBFCF91DF911F910F9108950F931F9365
:102ED000CF93DF938C01EB01F8948091430560E080
:102EE0000E949B248AE78EBD0DB407FEFDCF08C06B
:102EF00088818EBD0DB407FEFDCF21960150104094
:102F000001151105A9F70E94EF15DF91CF911F91CF
:102F10000F910895CF93DF93EB0190E056E0880F77
:102F2000991F5A95E1F7BC0160507E4E815C9D402F
:102F300040F482E00E94411680E490E0BE010E94CD
:102F40006617DF91CF910895CF93DF93EC010FC007
:102F50008CE10E947B1681FF0AC080E86FE140E8A7
:102F60000E94F61580EA6FE140E80E94F61580E0C5
:102F70006FE10E94591683FDEBCF82E060E07CE0B8
:102F80000E944116BE016050744F86E00E944116B7
:102F90008AE760E040E00E94F615CE0168EC71E03F
:102FA0000E94661780E86FE148E00E94F615DF9105
:102FB000CF9108958AE061E00E945C248AE061E09C
:102FC0000E949B248BE061E00E945C248DE061E024
:102FD0000E945C248CE060E00E945C248BE061E055
:102FE0000E949B248BE060E00E949B248DE060E0C7
:102FF0000E949B2480E58CBD8DB581608DBD0895B8
:103000001F93CF93DF93EB01142F9093420580938E
:1030100041050CB406FC02C00E94DA171093430568
:10302000812F61E00E945C240E94EF158FEF60E029
:103030004FEF0E94F61562E070E080E090E00E94A1
:103040009C2380E06DE10E9459168823D1F31092F1
:1030500046051092450588E060E070E00E94411648
:103060008CE060E070E00E9441168AE06FEF7BE048
:103070000E94411684E060E07CE00E94411686E0F8
:103080006FEF71E10E9441160E94541688E26FE3CF
:1030900070E30E94411680E369EF77EF0E944116CA
:1030A00080EC6DE00E94331681EC60E00E943316E4
:1030B00080E862EC42E30E94F61586EC62E17CE077
:1030C0000E94411684EC62E10E9433168AEC6CED9A
:1030D00075E00E94411684EE68810E94331685EEE9
:1030E00069810E94331682EE6A810E94331683EE54
:1030F0006B810E94331680EE6C810E94331681EE44
:103100006D810E94331684ED60E10E94331686EDD6
:1031100060E071E00E9441168AEE0E947B1680FDFD
:10312000FBCF8FE10E94121680E86BE140EC0E9419
:10313000F61580E86FE144E00E94F61582E70E94F0
:103140007B16863008F08F5FDF91CF911F91089535
:10315000CF93DF93C0E0D0E05C2FFE01E95BFA4F34
:10316000E081EE2349F120E030E06E2F70E0CB01EA
:10317000022E02C0959587950A94E2F780FF17C04A
:10318000C95BDA4F81E090E0A0E0B0E0022E04C01D
:10319000880F991FAA1FBB1F0A94D2F780958E2310
:1031A0008883852F880F880F880F820F0AC02F5FB2
:1031B0003F4F28303105D9F62196C032D10561F64E
:1031C00080E0DF91CF910895CF93DF93EC019B01D5
:1031D0008A30910548F06AE070E00E942C2CCB0107
:1031E000B9010E94E4189C01CE016AE070E00E94DF
:1031F0002C2C805DF9018193D90111961C92CF018D
:10320000DF91CF910895AF92BF92CF92DF92FF925C
:103210000F931F93CF93DF938C01EB01F42E109249
:10322000070638E341E050E060E070E018C0832F0B
:1032300090E0FC01B3E0F595E795BA95E1F7E95B1D
:10324000FA4F877090705A016B0104C0AA0CBB1C26
:10325000CC1CDD1C8A95D2F720812A29208331508D
:1032600031F789EE95E0BE010E949A21C80169EE0E
:1032700075E04F2D0E940018DF91CF911F910F91A3
:10328000FF90DF90CF90BF90AF900895EF92FF92A4
:103290000F931F93CF93DF93EC0131E0E32EF12CDA
:1032A000012D112D1EC090E0FC0123E0F595E7955E
:1032B0002A95E1F7E95BFA4F87709070A8019701B2
:1032C00004C0220F331F441F551F8A95D2F7DA011D
:1032D000C9012081282B20838D816FE30E94C416B1
:1032E0008D838D818823F9F6DF91CF911F910F9106
:1032F000FF90EF900895982F8091A705981729F4D3
:10330000E62FF0E0E959FA4F08C08091E8059817D8
:1033100031F4E62FF0E0E855FA4F80810895892FC7
:103320000E94C41608950F931F93FC0104818FE33C
:10333000089F8001112486816EE30E947B19080F8B
:10334000111D03501040C8011F910F9108951F9344
:10335000CF93DF93982F162FC82FD0E0FE0156E0B1
:10336000EE0FFF1F5A95E1F7EC0FFD1FE959FA4FD9
:10337000E05CFF4F8081E054F040681771F19923C1
:1033800059F4BF010E948A178091E805181791F43B
:103390008FEF8093E8050EC08091A705681751F460
:1033A000A8EAB5E0E7E6F5E081E401900D928150EE
:1033B000E1F713C0FE0146E0EE0FFF1F4A95E1F76B
:1033C000EC0FFD1FE959FA4FE05CFF4F1083E0540A
:1033D000F040812FBF010E94E716DF91CF911F912E
:1033E000089580E060E00E94A719809167059091A0
:1033F00068050895CF93DF93EC0181E06F810E940F
:10340000A7199F818E81981739F498858091E605D8
:10341000981710F080E013C08885E82FF0E0E85599
:10342000FA4FE0818F5F88878F3340F09F818E81D4
:10343000981721F08091E7058F8318868E2FDF91F2
:10344000CF9108951F93CF93DF93EC01162F80E067
:103450006E810E94A7198091A505E82FF0E0E95937
:10346000FA4F10838F5F8F3318F48093A50510C037
:103470000E94A818682F8093A6058E8380E00E9482
:10348000A7191092A6051092A5058C818F5F8C83D9
:10349000DF91CF911F910895CF93DF93EC0180E0EE
:1034A0006D810E94A719A7E6B5E0FE01349683E07E
:1034B00001900D928150E1F79091E8058D81981768
:1034C00021F481E060E00E94A719DF91CF91089577
:1034D000CF93DF93EC016F8383E0888781E00E94C4
:1034E000A719DE011496E8EAF5E083E001900D9259
:1034F0008150E1F78F81DF91CF910895AF92BF9214
:10350000CF92DF92EF92FF920F931F93DF93CF93AF
:10351000CDB7DEB729970FB6F894DEBF0FBECDBF8B
:1035200080E060E00E94A7190091690510916A058A
:1035300079E6E72E75E0F72E66E6A62E61E0B62E58
:103540006E010894C11CD11C02C00F5F1F4FF8010F
:1035500084918823C9F00F5F1F4F8432C1F782E046
:1035600090E0E80EF91EF7016081F801849188343B
:1035700061F71C821B82BA82A982C6010E94681A66
:10358000C6010E944619E1CF29960FB6F894DEBF16
:103590000FBECDBFCF91DF911F910F91FF90EF90A4
:1035A000DF90CF90BF90AF9008954F925F926F924F
:1035B0007F928F929F92AF92BF92CF92DF92EF92C3
:1035C000FF920F931F93DF93CF93CDB7DEB7609732
:1035D0000FB6F894DEBF0FBECDBF8E010D5D1F4F3D
:1035E000F801E190F1908F0180E060E00E94A7195E
:1035F000C7010E9447039093680580936705F09286
:103600006A05E09269056801ABE68A2EA5E09A2E6C
:10361000F6E64F2EF1E05F2EE8E06E2E712C6C0E78
:103620007D1E5E010894A11CB11CF70184918823C2
:1036300009F465C00894E11CF11C8432B1F7F6016D
:1036400000811181F7018491863429F1873428F4AF
:10365000843469F0853429F407C0883469F18335EE
:1036600091F0A0E0B0E034C0A0E0B0E019C0C80123
:10367000B5010E94E418D5010D900020E9F71197DB
:10368000AA19BB0925C0D8010D900020E9F71197B0
:10369000A01BB10B1DC0C8010E94470318C01196A2
:1036A000F999FECFCD01800F911F92BD81BDF89A8F
:1036B00080B58823A1F70CC01B861A8659864886D8
:1036C000C301602F0E94681AC3010E949319DC0194
:1036D0000894E11CF11CF401019311934F018091B6
:1036E00067059091680502978A0F9B1F9093680564
:1036F0008093670582E090E0C80ED91E96CF609651
:103700000FB6F894DEBF0FBECDBFCF91DF911F91F2
:103710000F91FF90EF90DF90CF90BF90AF909F9070
:103720008F907F906F905F904F9008952F923F926F
:103730004F925F926F927F928F929F92AF92BF92C1
:10374000CF92DF92FF920F931F93DF93CF93CDB76A
:10375000DEB760970FB6F894DEBF0FBECDBF1C0179
:103760003B01142F052F80E060E00E94A719C09054
:103770006905D0906A051B861A8686E691E09987CE
:1037800088871F861D86212F302FC9012C0190E4C8
:10379000F92E00E010E08824992489E6A82E85E01F
:1037A000B82E620C731C83C086E4F81609F45EC060
:1037B0008F1564F094E4F91609F454C09F150CF4C5
:1037C0005AC0E0E4FE1609F070C009C0F8E4FF1624
:1037D00009F45BC083E5F81609F067C043C0F60141
:1037E0008491282F882309F466C00894C11CD11C39
:1037F000843209F050C082E090E0A80EB91EF501B5
:1038000060812181F6010894C11CD11CF490F6E47A
:10381000FF1544F085E4F816C4F494E4F91609F0B1
:1038200046C008C0E8E4FE16A9F0F3E5FF1609F06B
:103830003EC00BC0862F922FBE016F5F7F4F0E944C
:10384000E4188E010F5F1F4F32C0862F922F9C010C
:1038500089012DC0CE0108960E94681A8E01085F6A
:103860001F4F25C0F80121918F0113C0F8010F5F90
:103870001F4F24910EC0F999FECFC801019612BDC9
:1038800001BDF89A20B58C0104C0C8010E94FA1944
:10389000282F222351F08214930418F0F20121936F
:1038A0002F010894811C911C02C0B0E4FB2E8614E9
:1038B000970408F479CF60960FB6F894DEBF0FBE78
:1038C000CDBFCF91DF911F910F91FF90DF90CF90EF
:1038D000BF90AF909F908F907F906F905F904F9030
:1038E0003F902F900895EF92FF921F937C010E94CA
:1038F000A818182F80E0612F0E94A719E7E6F5E0CD
:1039000010926705109369051093680583E086AFF0
:1039100017AEC701612F0E94681A1F91FF90EF90A8
:103920000895DF92EF92FF920F931F93CF93DF934F
:10393000D82E862FBA01213041F4675F7F4F9B015B
:1039400040E050E0695070400EC0223029F020E085
:1039500030E040E050E007C0625070409B0140E022
:1039600050E06E5F7F4FE82EFF2488EC91E0E80E78
:10397000F91E8B01E7010FC0F881E0E0898190E03A
:103980008E2B9F2BA0E0B0E0280F391F4A1F5B1F32
:103990002296025010400230110570F7CB018E7F45
:1039A000D701A80FB91F6817790779F08C9190E0BB
:1039B000A0E0B0E0BA2FA92F982F882702C040E0DE
:1039C00050E0280F391F4A1F5B1FCA01AA27BB27D7
:1039D0000097A105B10599F7C90180959095ED2D46
:1039E000F0E0E853FE4F90838183DF91CF911F91E8
:1039F0000F91FF90EF90DF9008951092E0011092E8
:103A0000E10180E48093DC011092DD018093DE010E
:103A100088E16EE044E150E020E00E94911C0895AE
:103A2000809109068695809581700895662341F4FA
:103A30008093600148535E4F50931D0640931C06CF
:103A400081E0089530915A0120915B0186E19DE16A
:103A5000909311068093100689E591E290931306E6
:103A60008093120620930C0630930D0681E080931C
:103A70000A0680910B068F5F877080930B068093F8
:103A80001E06089590916001981719F020E030E02B
:103A900007C08BE78093600120911C0630911D06C2
:103AA000C90108950F931F93BC0108EC11E0C801F0
:103AB0000E949A21C801069669EE75E00E949A213B
:103AC0001F910F910895EF92FF920F931F937B0127
:103AD0000E94521D06EE11E0C801B7010E94A2210A
:103AE000C80104976FEE75E00E94A2211F910F910B
:103AF000FF90EF900895EF92FF920F931F93CF9353
:103B0000DF937C01EB018A0186E196E00E94631D50
:103B10008881807F803E49F088819981AA81BB811C
:103B20008F5F9F4FAF4FBF4F31F488EC91E060E95A
:103B300071E00E949A2188E08093D4011092D5010F
:103B400086ED91E06EEF73E049E050E00E942C03B7
:103B50001092D80181E18093DF011093EC01009372
:103B6000ED01F092EA01E092EB011092EE01109269
:103B7000F0011092F101DF91CF911F910F91FF9011
:103B8000EF900895EF92FF920F931F930EEC11E0C8
:103B9000C8010E94521D74E1E72EF12CE00EF11EC7
:103BA000C8014896B7010E94A221C7016FEE75E0D7
:103BB0000E94A2210E94FD1C1F910F91FF90EF9087
:103BC0000895BC0181E08093090687EF95E00E948B
:103BD000A22108950F931F938C0188969093D8018A
:103BE0008093D9010E94FD1C1092FA011092FB01F2
:103BF000045E1F4F82E36AE1A80122E00E94911C4B
:103C0000C8014A960E94A4171F910F910895CF935F
:103C1000DF939C01862F80618093F701643029F047
:103C20002115310511F421E030E09091EC018091F3
:103C3000EA018093EC019093EA019091ED0180916B
:103C4000EB018093ED019093EB01C1EFD1E088810E
:103C5000A901480F511D2C814C832883252F332720
:103C6000219751E0CD3ED50791F71D861E8680E550
:103C700089871092D80188E28093D9010E94C21DE1
:103C800084E08B871C8682E36AE14CE150E022E00D
:103C90000E94911C86E390E00E94A417DF91CF91CF
:103CA00008950F931F93DF93CF930F92CDB7DEB795
:103CB0008C01045E1F4F1093D8010C511040802FCF
:103CC000845E8093D90189830E94FD1C085F1F4F89
:103CD0001093EE01898184518093EF01085F1F4F9B
:103CE00088E26AE1A80121E00E94911CC8014A967D
:103CF0000E94A4170F90CF91DF911F910F9108950B
:103D0000DF92EF92FF920F931F93CF93DF93EC011B
:103D100080910706882319F0CE010E946113209735
:103D200009F0B6C0809109068570F1F180915C01BF
:103D300090915D01892BC1F50E9485168823A1F120
:103D400080E991E00E94521D88E08093D40156E002
:103D5000F52EF092D50186ED91E066EF73E048E034
:103D600050E00E942C0308EE11E0D8011D92FA9455
:103D7000E9F7C8010A9769EE75E00E949A21C80127
:103D8000069667EF75E00E94A221C80104976FEEC6
:103D900075E00E94A221809109068860809309063F
:103DA0008AE290E00E94A41780915C0190915D01ED
:103DB000019690935D0180935C0180910A068130A9
:103DC00009F067C28091090681FF63C202E0009397
:103DD0000A0680915E018F5F80935E018F71109162
:103DE0000B061295110F107E182BE0900C06D09048
:103DF0000D0686E196E063E076E00E94631D48E0F0
:103E0000F42EF092D4011092D50186ED91E06EEF80
:103E100073E049E050E00E942C038CE28093D901CA
:103E200086E08093DF010E94FD1CE092EC01D092BD
:103E3000ED018BE08093EA011093EB01EEEEF1E0EF
:103E4000DF011D92FA94E9F780915F018093F00100
:103E50008D5F80935F0180E68093F6010093F70108
:103E600083E08093F8011092F9011092FA01109208
:103E7000FB011092FC011092FD010093FE0184E011
:103E80008093FF010093000286E280930102BCC18F
:103E9000C932D10508F4FDC11091D401183009F0E0
:103EA00003C28091D501863009F0FEC18EEE91E00B
:103EB0006FEE75E044E050E00E946A03009709F05D
:103EC000F3C18091DD01813029F58EEC91E00E94F3
:103ED000521D1092DC0182E08093DD0188EE91E0BA
:103EE0006EED71E00E949A218EED91E069EE75E031
:103EF0000E949A218EEE91E064EE71E00E94A22170
:103F000084EE91E06FEE75E00E94A2218AE290E0DB
:103F10000E94A4178091090683FFBBC11091DD01A7
:103F2000123009F0B6C184EE91E067EF75E044E02D
:103F300050E00E946A03009709F0ABC186E196E069
:103F40006EED71E00E949A2110930906A2C118300B
:103F500009F09FC18091D501882309F09AC1809111
:103F6000D601853409F095C186EE91E06FEE75E0DB
:103F700044E050E00E946A03009709F08AC19091E2
:103F8000DF01913009F58091EA018830E9F4E09190
:103F90000E06F0910F06309719F082EE91E0099528
:103FA0000E94C21D1092EA018091EC01883F28F026
:103FB0008091ED018F5F8093ED018091EC01885F2E
:103FC0008093EC01CE0129C1C633D10518F4963097
:103FD00009F05FC12091EC012B3009F0BFC082EEE7
:103FE00091E063E076E044E050E00E946A030097CD
:103FF00009F04FC18091F701682F82FF13C0E09153
:104000001006F0911106309759F08091ED018295DC
:104010008695877063E040E050E020E030E009954D
:1040200085E093C09091D80180E02091D901022FC2
:1040300010E0082B192B8091F601482F50E034E056
:10404000559547953A95E1F7CA01880F991F880F52
:10405000991F081B190B0451104017FF02C000E004
:1040600010E0980180910A06823079F561FF21C045
:1040700064FF1FC080E090E060E00E94071E88E1BE
:104080008093F701E0911206F0911306309719F42E
:1040900020E030E007C08091EB0182958695877023
:1040A00009959C0183E080930A06C9010E94EA1DDC
:1040B000F0C081E080930A0664FF03C080E090E0D6
:1040C00002C0C801019664E0E2C0833081F50115A9
:1040D000110581F1E0911006F0911106309751F130
:1040E000440F551F440F551FCE0108974E5D5F4F7B
:1040F0008417950708F4AC01C801840F951FC817F1
:10410000D90710F0980103C09E01241B350B809144
:10411000ED0182958695877060E00995809108068B
:10412000882319F0C80168E0B2C0C8010AC0853010
:1041300009F4AFC060FF0CC0833009F4AAC0C80105
:10414000019669E00E94071E86E080930A06A1C0DE
:104150000115110509F49FC0C80198C040915A018A
:1041600030E080915B0190E02817390709F091C099
:104170008091ED01841709F08CC08091F701682FC0
:1041800081FF4EC01092D8018CE28093D9010E9429
:10419000C21D82E18093F7019091EC018091EA01C8
:1041A0008093EC019093EA019091ED018091EB01F5
:1041B0008093ED019093EB01E1EFF1E021E030E03D
:1041C0008081A901480F511D44831082252F332778
:1041D000319751E0ED3EF50799F715861686118265
:1041E000128280915F01838314828D5F80935F01CF
:1041F00082E0818B84E0828B95E0938B148A80E649
:104200008187938788E7848782E36AE140E250E010
:1042100022E00E94911C8AE390E00E94A41739C01A
:1042200084FF37C09091D80180E02091D90130E01F
:10423000282B392B8091F601482F50E014E055953A
:1042400047951A95E1F7CA01880F991F880F991FA2
:10425000281B390B2451304037FF02C020E030E0EA
:104260003093150620931406232B61F09A01220F38
:10427000331F220F331F2E5D3F4F2897C217D307DE
:1042800040F009C060FF05C080E090E060E00E945F
:10429000071E20E030E0C901DF91CF911F910F91FF
:1042A000FF90EF90DF900895CA32D10508F04FCE0D
:1042B000F0CFEF92FF920F931F930E94F1198C01A0
:1042C0006EEFE62E61E0F62E80E090E0B801A701E7
:1042D0000E94961B0E947E1AE00EF11EF7011082CA
:1042E0008BE780936001C8011F910F91FF90EF90C1
:1042F00008950F931F93CF93DF938C01C0E0D0E01C
:10430000F801EC0FFD1F80EB96E060814AE050E081
:104310000E949728C33029F080EB96E06EE20E945D
:10432000AF272196C430D10559F7DF91CF911F9166
:104330000F910895DC01FB0186E001900D92815000
:10434000E1F708959C01FB0180819181A281B381F5
:10435000F90180839183A283B3830895E2EDF6E0AF
:1043600020E030E003C031962F5F3F4F8081853CD5
:1043700029F488E0EF3FF807B1F3A8F3C9010895E5
:10438000FC016683478381E084870895CF92DF92A2
:10439000EF92FF920F931F93CF93DF93EC018E81E7
:1043A00061E00E949B246AEF70E080E090E00E9450
:1043B0009C230E948E239B01AC0188859985AA8548
:1043C000BB85281739074A075B0720F4188619862A
:1043D0001A861B868C85882371F488859985AA8521
:1043E000BB85281B390B4A0B5B0B205D37404040D7
:1043F000504008F477C01C860E948E236887798716
:104400008A879B871C821B821A82198218828E815E
:1044100061E00E945C248E8160E00E949B2464E144
:1044200070E080E090E00E949C23F8948E8161E02F
:104430000E949B2488E290E00E94F5238E8160E038
:104440000E945C2481E0EE2400E010E00AC0F394B6
:1044500081E090E00E94F5232FEFF21629F40AC0C4
:10446000892FFF24C82EDD248E810E94EF248C1515
:104470009D0569F38E810E94EF24982F8FEFF81627
:10448000C9F0043090F000FD10C08E2D8695869501
:104490008695FE01E80FF11D8081880F808326E05C
:1044A0002F1510F481608083E3940F5F1F4F053553
:1044B0001105B1F6789487E28E1510F030E013C044
:1044C00030E04C8150E02981888190E0820F911D7D
:1044D0002A81820F911D2B81820F911D90704817A8
:1044E000590709F431E0832FDF91CF911F910F918C
:1044F000FF90EF90DF90CF900895EF92FF920F938F
:104500001F93CF93DF93EC010E94C6218823A9F16A
:104510008F818B3031F08B3080F18551823068F59E
:1045200007C0688170E080E090E00E94F02A22C01D
:10453000688170E080E090E00E94F02A20E030E0A6
:1045400040E853E40E94A62B7B018C01698170E056
:10455000882777FD8095982F0E94F22A9B01AC0155
:10456000C801B7010E94EF2920E030E040E251E4A9
:104570000E94572AE62F692F0AC080EB96E069E176
:1045800071E00E94E928E0E070E080EC6FE72E2FF8
:10459000372F482F562FB901CA01DF91CF911F91B4
:1045A0000F91FF90EF900895CF92DF92EF92FF92DC
:1045B0000F931F93CF93DF93EC01C62E0E94C62169
:1045C000882309F450C08F818B3041F08B3008F480
:1045D0004AC08551823008F046C007C06A8170E049
:1045E00080E090E00E94F02A29C0DA806D2D70E012
:1045F0006F777070882777FD8095982F0E94F22A38
:1046000020E030E040E853E40E94A62B7B018C01BF
:104610006B8170E0882777FD8095982F0E94F22AA1
:104620009B01AC01C801B7010E94EF2920E030E0F6
:1046300040E251E40E94572AD7FC9058CC20E9F080
:1046400020E030E040E151E40E94A62B20E030E081
:1046500040EA50E40E94572A20E030E040E052E473
:104660000E94EF290AC080EB96E069E171E00E94A8
:10467000E92860E070E080EC9FE7DF91CF911F9127
:104680000F91FF90EF90DF90CF9008951F920F92BF
:104690000FB60F9211242F933F938F939F93AF9355
:1046A000BF938091230690912406A0912506B09196
:1046B0002606309127060196A11DB11D232F2D5FDF
:1046C0002D3720F02D570196A11DB11D20932706EF
:1046D0008093230690932406A0932506B093260684
:1046E00080911F0690912006A0912106B09122068C
:1046F0000196A11DB11D80931F0690932006A093E3
:104700002106B0932206BF91AF919F918F913F9167
:104710002F910F900FBE0F901F9018958FB7F894A0
:1047200020912306309124064091250650912606BB
:104730008FBFB901CA0108959B01AC017FB7F894FE
:1047400080911F0690912006A0912106B09122062B
:1047500066B5A89B05C06F3F19F00196A11DB11D5C
:104760007FBFBA2FA92F982F8827860F911DA11DD3
:10477000B11D62E0880F991FAA1FBB1F6A95D1F770
:10478000BC012DC0FFB7F89480911F0690912006C0
:10479000A0912106B0912206E6B5A89B05C0EF3F87
:1047A00019F00196A11DB11DFFBFBA2FA92F982F97
:1047B00088278E0F911DA11DB11DE2E0880F991F62
:1047C000AA1FBB1FEA95D1F7861B970B885E934003
:1047D000C8F2215030404040504068517C4F211574
:1047E00031054105510571F60895019739F0880F9B
:1047F000991F880F991F02970197F1F708957894F0
:1048000084B5826084BD84B5816084BD85B58260D5
:1048100085BD85B5816085BDEEE6F0E08081816073
:104820008083E1E8F0E01082808182608083808173
:1048300081608083E0E8F0E0808181608083E1EB4B
:10484000F0E0808184608083E0EBF0E08081816033
:104850008083EAE7F0E080818460808380818260E9
:1048600080838081816080838081806880831092D2
:10487000C1000895982F8E3008F09E509770809157
:1048800061018295880F880F807C892B80937C0042
:1048900080917A00806480937A0080917A0086FD0E
:1048A000FCCF2091780040917900942F80E030E097
:1048B000282B392BC9010895CF93DF93482F50E05F
:1048C000CA0183519B4FFC01349147525B4FFA015F
:1048D0008491882369F190E0880F991FFC01E554C9
:1048E000FB4FA591B491FC01EB53FB4FC591D491C3
:1048F000662351F42FB7F8948C91932F90958923C8
:104900008C93888189230BC0623061F42FB7F894AF
:104910008C91932F909589238C938881832B888306
:104920002FBF06C09FB7F8948C91832B8C939FBFA9
:10493000DF91CF910895482F50E0CA018F5F9A4FC1
:10494000FC012491CA0183519B4FFC019491475271
:104950005B4FFA013491332309F440C0222351F113
:10496000233071F0243028F42130A1F0223011F5E9
:1049700014C02630B1F02730C1F02430D9F404C07F
:10498000809180008F7703C0809180008F7D80931D
:10499000800010C084B58F7702C084B58F7D84BD40
:1049A00009C08091B0008F7703C08091B0008F7DE7
:1049B0008093B000E32FF0E0EE0FFF1FEB53FB4FAF
:1049C000A591B4912FB7F894662321F48C9190951A
:1049D000892302C08C91892B8C932FBF0895682F57
:1049E00070E0CB018F5F9A4FFC012491CB01835182
:1049F0009B4FFC01449167527B4FFB01949199239B
:104A000019F420E030E03CC0222351F1233071F052
:104A1000243028F42130A1F0223011F514C02630C2
:104A2000B1F02730C1F02430D9F404C08091800067
:104A30008F7703C0809180008F7D8093800010C0AD
:104A400084B58F7702C084B58F7D84BD09C0809105
:104A5000B0008F7703C08091B0008F7D8093B0004D
:104A6000892F90E0880F991F81539B4FFC01A591DE
:104A7000B4918C9120E030E0842311F021E030E00B
:104A8000C901089508951F920F920FB60F92112435
:104A90002F933F934F938F939F93EF93FF93809127
:104AA000C00082FD1DC04091C60020916806309173
:104AB00069062F5F3F4F2F73307080916A06909187
:104AC0006B062817390771F0E0916806F0916906C6
:104AD000E85DF94F4083309369062093680602C071
:104AE0008091C600FF91EF919F918F914F913F91DF
:104AF0002F910F900FBE0F901F901895E091BC065C
:104B0000F091BD06E05CFF4F819191912081318150
:104B1000821B930B8F739070892B11F00E9442259A
:104B200008951F920F920FB60F9211242F933F9367
:104B30008F939F93EF93FF932091AC063091AD0636
:104B40008091AE069091AF062817390731F4809115
:104B5000C1008F7D8093C10014C0E091AE06F0913A
:104B6000AF06E459F94F20818091AE069091AF06CF
:104B700001968F7390709093AF068093AE0620934A
:104B8000C600FF91EF919F918F913F912F910F90D0
:104B90000FBE0F901F901895AF92BF92DF92EF92C9
:104BA000FF920F931F93CF93DF93EC017A018B0158
:104BB000DD24403081EE580780E0680780E0780708
:104BC00011F0DD24D39491E0A92EB12CEC89FD895C
:104BD000DD2069F0C50108A002C0880F991F0A9462
:104BE000E2F7808360E079E08DE390E005C0108219
:104BF00060E874E88EE190E0A80197010E94402CE3
:104C00002150304040405040569547953795279564
:104C100080E12030380720F0DD2011F0DD24D6CFF0
:104C2000E889F9893083EA89FB89208319A2EE8912
:104C3000FF89408121E030E0C9010C8C02C0880F5F
:104C4000991F0A94E2F7482B4083EE89FF8940813F
:104C5000C9010D8C02C0880F991F0A94E2F7482BF6
:104C60004083EE89FF894081C9010E8C02C0880F04
:104C7000991F0A94E2F7482B4083EE89FF898081CF
:104C80000F8C02C0220F331F0A94E2F720952823CD
:104C90002083DF91CF911F910F91FF90EF90DF90D4
:104CA000BF90AF900895DC011C96ED91FC911D978B
:104CB000E05CFF4F2191319180819181281B390B5C
:104CC0002F733070C9010895DC011C96ED91FC91A1
:104CD0001D97E05CFF4F20813181E054F040DF01FF
:104CE000AE5BBF4F8D919C9111972817390719F42E
:104CF0002FEF3FEF07C08D919C91E80FF91F808146
:104D0000282F30E0C9010895DC011C96ED91FC913B
:104D10001D97E05CFF4F20813181E054F040DF01BE
:104D2000AE5BBF4F8D919C9111972817390719F4ED
:104D30002FEF3FEF10C08D919C911197E80FF91F55
:104D400020818D919C91119701968F73907011968F
:104D50009C938E9330E0C9010895DC0191968C916B
:104D60009197882339F05496ED91FC915597808165
:104D700086FFF9CF91961C920895CF93DF93EC01B3
:104D8000EE85FF85E05CFF4F20813181E054F040EB
:104D90002F5F3F4F2F733070DF01AE5BBF4F8D91A0
:104DA0009C91119728173907D1F3E05CFF4F808160
:104DB0009181E054F040E80FF91F6083EE85FF8594
:104DC000E05CFF4F31832083EE89FF89208181E001
:104DD00090E00F8C02C0880F991F0A94E2F7282BED
:104DE000208381E089A3EC89FD89808180648083B0
:104DF00081E090E0DF91CF9108951092B306109278
:104E0000B20688EE93E0A0E0B0E08093B406909301
:104E1000B506A093B606B093B7068AE991E09093E1
:104E2000B1068093B00688E296E09093BD06809329
:104E3000BC068CE696E09093BF068093BE0685EC98
:104E400090E09093C1068093C00684EC90E090932C
:104E5000C3068093C20680EC90E09093C5068093D1
:104E6000C40681EC90E09093C7068093C60682EC5E
:104E700090E09093C9068093C80686EC90E09093EA
:104E8000CB068093CA0684E08093CC0683E08093AF
:104E9000CD0687E08093CE0685E08093CF0681E043
:104EA0008093D0060895CF93DF930E94FF230E9442
:104EB0003D0ACEE7D5E20E945F082097E1F30E9409
:104EC0007E25F9CFCF92DF92EF92FF920F931F933F
:104ED000CF93DF937C016B018A01C0E0D0E00FC06B
:104EE000D6016D916D01D701ED91FC910190F0819A
:104EF000E02DC7010995C80FD91F015010400115B9
:104F0000110571F7CE01DF91CF911F910F91FF90A5
:104F1000EF90DF90CF900895EF92FF920F931F9341
:104F2000CF93DF937C018B01C0E0D0E0F8010F5FED
:104F30001F4F6491662359F0D701ED91FC910190C8
:104F4000F081E02DC7010995C80FD91FEFCFCE0121
:104F5000DF91CF911F910F91FF90EF900895DC01A9
:104F6000ED91FC910190F081E02D09950895EF926B
:104F7000FF920F931F938C01DC01ED91FC91019046
:104F8000F081E02D6DE009957C01D801ED91FC9157
:104F90000190F081E02DC8016AE009959C012E0D79
:104FA0003F1DC9011F910F91FF90EF900895EF925F
:104FB000FF920F931F937C010E948C278C01C701E5
:104FC0000E94B7279C01200F311FC9011F910F912B
:104FD000FF90EF900895CF93DF93EC016115710579
:104FE00019F420E030E00FC0DB010D900020E9F75C
:104FF0001197A61BB70BE881F9810280F381E02DA0
:10500000AD0109959C01C901DF91CF9108954F929F
:105010005F927F928F929F92AF92BF92CF92DF92D8
:10502000EF92FF920F931F93DF93CF93CDB7DEB72D
:10503000A1970FB6F894DEBF0FBECDBF2C01742E22
:10504000CB01223008F42AE019A231E2C32ED12C80
:10505000CC0EDD1E822E9924AA24BB24672D752F29
:10506000A50194010E94402C79018A01C801B70171
:10507000A50194010E940D2C472D461B0894C108E0
:10508000D1084A3014F4405D01C0495CF601408308
:10509000E114F1040105110521F07E2C5F2DC801FA
:1050A000DDCFC201B6010E94EB27A1960FB6F8949E
:1050B000DEBF0FBECDBFCF91DF911F910F91FF904B
:1050C000EF90DF90CF90BF90AF909F908F907F90A8
:1050D0005F904F900895DC012115310541F4ED9169
:1050E000FC910190F081E02D642F099508950E94B4
:1050F00007280895CF92DF92EF92FF920F931F93AC
:105100006C017B019A0100E010E0B801A7010E9448
:105110006B288C01C6010E94B727080F191FC80110
:105120001F910F91FF90EF90DF90CF900895EF9235
:10513000FF920F931F939A01E62EFF2400E010E0E8
:10514000B801A7010E946B281F910F91FF90EF906B
:105150000895CF92DF92EF92FF920F931F93CF9318
:10516000DF93EC016A017B012115310541F4E881EF
:10517000F9810190F081E02D642F09951FC02A303C
:105180003105D1F477FF17C0E881F9810190F081F2
:10519000E02D6DE209958C0144275527BA014C1981
:1051A0005D096E097F09CE012AE00E940728980157
:1051B000280F391F04C02AE00E9407289C01C9015A
:1051C000DF91CF911F910F91FF90EF90DF90CF90E3
:1051D00008950E94EB2708957F928F929F92AF923D
:1051E000BF92CF92DF92EF92FF920F931F93CF93D4
:1051F000DF934C017A018B01722ECB01BA01A80119
:1052000097010E94092C882321F0C40163E271E018
:1052100021C0C0E0D0E057016801E894D7F8C6018A
:10522000B5012FEF3FEF4FE75FE70E94092C88237E
:1052300051F4C601B5012FEF3FEF4FE75FE70E9442
:10524000532A181614F0C1E0D0E0219739F0C401B8
:1052500067E271E00E94EB27EC0193C0C801B7013F
:105260002FEF3FEF4FE75FE40E94A22B181654F098
:10527000C801B7012FEF3FEF4FE75FEC0E94532AC1
:10528000882324F4C4016BE271E0E4CFC801B701C4
:1052900020E030E040E050E00E94532A87FD03C048
:1052A000C0E0D0E00EC0D401ED91FC910190F081FE
:1052B000E02DC4016DE20995EC0117FB109517F97B
:1052C000109520E030E040E05FE3DD240BC0CA0130
:1052D000B90120E030E040E251E40E94572A9B01EE
:1052E000AC01D394D71498F3C801B7010E94EF29F9
:1052F0005B016C010E94C42A7B018C01C401B801CE
:10530000A7012AE030E00E946B28C80FD91F772040
:1053100039F0C4016FE271E00E94EB27C80FD91F7A
:10532000C801B7010E94F02A9B01AC01C601B5017A
:105330000E94EE2924C020E030E040E251E40E94C7
:10534000A62B7B018C010E94BF2A5B016C01CC243F
:10535000B7FCC094DC2CC401B601A5012AE030E002
:105360000E94A928C80FD91FC601B5010E94F22AC0
:105370009B01AC01C801B7010E94EE297A94772005
:10538000D1F6CE01DF91CF911F910F91FF90EF9059
:10539000DF90CF90BF90AF909F908F907F900895B7
:1053A0000E94EC280895EF92FF920F931F937C01C7
:1053B0000E94EB278C01C7010E94B727080F191F15
:1053C000C8011F910F91FF90EF900895009729F069
:1053D000BC0180E090E00E94230308955058BB2751
:1053E000AA270ED075C166D130F06BD120F031F410
:1053F0009F3F11F41EF45BC10EF4E095E7FB51C131
:10540000E92F77D180F3BA176207730784079507EE
:1054100018F071F49EF58FC10EF4E0950B2EBA2FA3
:10542000A02D0B01B90190010C01CA01A0011124AA
:10543000FF27591B99F0593F50F4503E68F11A1656
:10544000F040A22F232F342F4427585FF3CF4695E7
:1054500037952795A795F0405395C9F77EF41F1609
:10546000BA0B620B730B840BBAF09150A1F0FF0FD3
:10547000BB1F661F771F881FC2F70EC0BA0F621FBF
:10548000731F841F48F4879577956795B795F795AF
:105490009E3F08F0B3CF9395880F08F09927EE0F41
:1054A000979587950895D9D008F481E008950CD098
:1054B0000FC107D140F0FED030F021F45F3F19F06A
:1054C000F0C0511139C1F3C014D198F39923C9F335
:1054D0005523B1F3951B550BBB27AA2762177307FA
:1054E000840738F09F5F5F4F220F331F441FAA1FAE
:1054F000A9F333D00E2E3AF0E0E830D0915050406E
:10550000E695001CCAF729D0FE2F27D0660F771F1B
:10551000881FBB1F261737074807AB07B0E809F0FD
:10552000BB0B802DBF01FF2793585F4F2AF09E3F92
:10553000510568F0B6C000C15F3FECF3983EDCF364
:10554000869577956795B795F7959F5FC9F7880F0B
:10555000911D9695879597F90895E1E0660F771F5D
:10556000881FBB1F621773078407BA0720F0621BEE
:10557000730B840BBA0BEE1F88F7E095089504D0E7
:105580006894B111D9C00895BCD088F09F5790F0AD
:10559000B92F9927B751A0F0D1F0660F771F881F58
:1055A000991F1AF0BA95C9F712C0B13081F0C3D073
:1055B000B1E00895C0C0672F782F8827B85F39F011
:1055C000B93FCCF3869577956795B395D9F73EF4B7
:1055D00090958095709561957F4F8F4F9F4F08955F
:1055E000E89409C097FB3EF490958095709561957D
:1055F0007F4F8F4F9F4F9923A9F0F92F96E9BB2733
:105600009395F695879577956795B795F111F8CFAE
:10561000FAF4BB0F11F460FF1BC06F5F7F4F8F4F19
:105620009F4F16C0882311F096E911C0772321F00F
:105630009EE8872F762F05C0662371F096E8862FA7
:1056400070E060E02AF09A95660F771F881FDAF7FE
:10565000880F9695879597F90895990F0008550F2B
:10566000AA0BE0E8FEEF16161706E807F907C0F0E8
:1056700012161306E407F50798F0621B730B840BF0
:10568000950B39F40A2661F0232B242B252B21F4CA
:1056900008950A2609F4A140A6958FEF811D811D6A
:1056A000089597F99F6780E870E060E008959FEFA4
:1056B00080EC089500240A941616170618060906A9
:1056C000089500240A941216130614060506089578
:1056D000092E0394000C11F4882352F0BB0F40F400
:1056E000BF2B11F460FF04C06F5F7F4F8F4F9F4F40
:1056F000089557FD9058440F551F59F05F3F71F0C2
:105700004795880F97FB991F61F09F3F79F0879528
:105710000895121613061406551FF2CF4695F1DFB1
:1057200008C0161617061806991FF1CF8695710541
:10573000610508940895E894BB2766277727CB0175
:1057400097F908958ADF08F48FEF08950BD0C0CF42
:10575000B1DF28F0B6DF18F0952309F0A2CFA7CF6C
:105760001124EACFC6DFA0F3959FD1F3950F50E047
:10577000551F629FF001729FBB27F00DB11D639F03
:10578000AA27F00DB11DAA1F649F6627B00DA11DA9
:10579000661F829F2227B00DA11D621F739FB00D4F
:1057A000A11D621F839FA00D611D221F749F3327BF
:1057B000A00D611D231F849F600D211D822F762F58
:1057C0006A2F11249F5750408AF0E1F088234AF055
:1057D000EE0FFF1FBB1F661F771F881F91505040A1
:1057E000A9F79E3F510570F05CCFA6CF5F3FECF369
:1057F000983EDCF3869577956795B795F795E7958D
:105800009F5FC1F7FE2B880F911D9695879597F99D
:10581000089523DF880B990B0895629FD001739F31
:10582000F001829FE00DF11D649FE00DF11D929F3C
:10583000F00D839FF00D749FF00D659FF00D99277B
:10584000729FB00DE11DF91F639FB00DE11DF91F9F
:10585000BD01CF0111240895AA1BBB1B51E107C054
:10586000AA1FBB1FA617B70710F0A61BB70B881FF0
:10587000991F5A95A9F780959095BC01CD0108957F
:10588000A1E21A2EAA1BBB1BFD010DC0AA1FBB1F44
:10589000EE1FFF1FA217B307E407F50720F0A21BB6
:1058A000B30BE40BF50B661F771F881F991F1A9423
:1058B00069F760957095809590959B01AC01BD014D
:1058C000CF01089597FB092E05260ED057FD04D071
:1058D000D7DF0AD0001C38F45095409530952195BB
:1058E0003F4F4F4F5F4F0895F6F790958095709515
:1058F00061957F4F8F4F9F4F0895EE0FFF1F0590CB
:10590000F491E02D09942F923F924F925F926F9203
:105910007F928F929F92AF92BF92CF92DF92EF923F
:10592000FF920F931F93CF93DF93CDB7DEB7CA1BC0
:10593000DB0B0FB6F894DEBF0FBECDBF09942A88EB
:10594000398848885F846E847D848C849B84AA8493
:10595000B984C884DF80EE80FD800C811B81AA8120
:10596000B981CE0FD11D0FB6F894DEBF0FBECDBFEB
:10597000ED010895F894FFCF5F00537461636B3AB3
:105980002000556E697420416464726573733A2017
:105990000052656164206661696C006E616E006929
:1059A0006E66006F7666002E000100000060EA005F
:1059B0000088130000F4010000010441726475695D
:1059C0006E6F2D3030003703010306FF638253638F
:1059D000350150000100010A7B0100000000440471
:1059E0006227303132333435363738396162636497
:1059F000656600000000F80AC70A800A890A9E0A44
:105A0000AF0AFFFFFFFFFFFFFFFFFFFFFFFF0000E9
:105A10000000BD266227532684266426AD26006931
:105A20006E66006F7666002E000100000060EA00DE
:105A30000088130000F401000001044172647569DC
:105A40006E6F2D3030003703010306FF638253630E
:105A5000350150000100010A7B01000000004404F0
:105A60006227303132333435363738396162636416
:105A7000656600000000F80AC70A800A890A9E0AC3
:105A800000000000F80AC70A800A890A9E0AAF0AC5
:105A9000FFFFFFFFFFFFFFFFFFFFFFFF0000000012
:105AA000882989251E294F292F29782900696E66A2
:105AB000006F7666002E000100000060EA0000889A
:105AC000130000F4010000010450000100010A7BF2
:105AD00041726475696E6F2D303000370301030623
