:100000000C94A2020C94DD020C94DD020C94DD022F
:100010000C94DD020C94DD020C94DD020C94DD02E4
:100020000C94DD020C94DD020C94DD020C94DD02D4
:100030000C94DD020C94DD020C94DD020C94DD02C4
:100040000C94FA250C94DD020C9495290C94E32968
:100050000C94DD020C94DD020C94DD020C94DD02A4
:100060000C94370C0C94DD026170692E636F736D14
:100070002E636F6D005F7230006F686D73005F728A
:100080006177006F686D7300250048756D6964695C
:1000900074790064656720430054656D7065726112
:1000A00074757265003E3E3E20524553504F4E538C
:1000B00045205245434549564544202D2D2D0025C8
:1000C00030325800446174612073656E7420666F2D
:1000D00072200053656E64696E67206461746120EC
:1000E000746F20436F736D005055542068747470A2
:1000F0003A2F2F24462F76322F66656564732F249E
:10010000452E6A736F6E20485454502F312E300D97
:100110000A486F73743A2024460D0A582D417069BD
:100120004B65793A2024450D0A436F6E74656E74F1
:100130002D4C656E6774683A2024440D0A0D0A241C
:100140004800507265706172696E672073746173E4
:100150006800227D7D5D7D00222C2273796D626FA7
:100160006C223A2200225D2C22756E6974223A7B41
:10017000226C6162656C223A2200636F6D70757447
:1001800065640072300072617700222C2261716513
:100190003A646174615F6F726967696E3D00222C19
:1001A000226171653A6669726D776172655F766525
:1001B0007273696F6E3D00222C226171653A73651E
:1001C0006E736F725F696E6465783D00222C2261E8
:1001D00071653A73656E736F725F616464726573A3
:1001E000733D005F7230005F72617700222C2274D1
:1001F000616773223A5B226171653A73656E736F52
:10020000725F747970653D00222C2263757272658D
:100210006E745F76616C7565223A22007B226461A0
:10022000746173747265616D73223A5B7B226964D9
:10023000223A2022005352563A2000444E53206660
:1002400061696C656400444E533A200047573A2078
:100250000049503A200044484350206661696C656B
:100260006420726573657474696E67004661696CB9
:10027000656420746F2061636365737320457468DF
:1002800065726E657420636F6E74726F6C6C6572EC
:10029000004567672053657269616C20233A20200E
:1002A000003A003000546F6F204C6F6E6720536926
:1002B0006E6365204C61737420526573706F6E734A
:1002C000652046726F6D20436F736D2C20526573ED
:1002D000657474696E670020506F73746564205391
:1002E000656E736F722044617461002E2E2E20495A
:1002F0006E636F6E6365697661626C65210054722E
:10030000616E736D6974205374617465203D2000C3
:1003100054696D6520666F72206F75722072656713
:10032000756C61726C79207363686564756C656463
:10033000205265737461727421002053656E7420BD
:10034000456767204275732043616C63756C617407
:100350006564203A3A20002053656E742045676733
:1003600020427573205230203A3A20002053656EA7
:1003700074204567672042757320526177203A3AAE
:1003800020002053656E742048756D696469747926
:10039000002053656E742054656D706572617475CC
:1003A0007265004B69636B696E67206F66662074C7
:1003B00072616E736D6974206379636C6500536F4D
:1003C0006D657468696E672069732074616B696E0E
:1003D00067206C6F6E676572207468616E20657847
:1003E0007065637465642C20526573657474696EFE
:1003F00067000A5B416972205175616C69747920EC
:10040000456767202D20426173652053656E736FC9
:1004100072202D2076322E30315D0000010800065A
:10042000040001450000820000400020504F53545A
:1004300020244620485454502F312E300D0A486F46
:1004400073743A2024460D0A24462453416363659D
:1004500070743A202A2F2A0D0A436F6E74656E74E9
:100460002D4C656E6774683A2024440D0A436F6E04
:1004700074656E742D547970653A206170706C6982
:10048000636174696F6E2F782D7777772D666F7241
:100490006D2D75726C656E636F6465640D0A0D0A6F
:1004A0002453004745542024462453204854545094
:1004B0002F312E300D0A486F73743A2024460D0AEE
:1004C00024460D0A0D0A004163636570743A207476
:1004D0006578742F68746D6C00E30004FA00010005
:1004E00000000100000000240027002A0000000096
:1004F00000250028002B0000000000230026002912
:1005000000040404040404040402020202020203BC
:1005100003030303030102040810204080010204C6
:10052000081020010204081020000000070002014A
:100530000000030406000000000000000000390471
:10054000D30A4F2BEFEFF6E085EC98E001C08193E2
:10055000EF3FF907E0F3D9F311241FBECFEFD8E046
:10056000DEBFCDBF14BE88E10FB6F8948093600063
:10057000109260000FBE11E0A0E0B1E0E4E1FDE503
:1005800002C005900D92A63AB107D9F716E0A6EA87
:10059000B1E001C01D92AF3FB107E1F715E0C4E43F
:1005A000D5E004C02297FE010E944D2ECE33D10724
:1005B000C9F70E94AD2B0C94882E0C940000A0E08B
:1005C000B0E0E5EEF2E00C94592EEC01A880B98081
:1005D000CA80DB80A114B104C104D10441F484E2D7
:1005E000A82E89EDB82E8BE5C82E87E0D82EC6013F
:1005F000B5012DE133EF41E050E00E94302E27EAB3
:1006000031E440E050E00E94DB2D7B018C01C6010B
:10061000B5012DE133EF41E050E00E94302ECA01D8
:10062000B9012CEE34EF4FEF5FEF0E94DB2D6E0D22
:100630007F1D801F911F97FF04C061507040804054
:100640009048688379838A839B839B01AC015F77A1
:10065000B901CA01CDB7DEB7EAE00C94752E0E944D
:10066000DF02089581E391E00E94DF020895609324
:1006700031017093320180933301909334010895D6
:10068000FB01DC0102C005900D9241505040D8F7AB
:100690000895FB01DC010D900020E9F7119705900A
:1006A0000D920020E1F70895FB01DC0105900D9209
:1006B0000020E1F70895FC0105900020E9F78095FE
:1006C00090958E0F9F1F0895FB0155915523A9F01A
:1006D000BF01DC014D9145174111E1F759F4CD01FE
:1006E0000590002049F04D9140154111C9F3FB01DF
:1006F0004111EFCF81E090E001970895FB01DC010B
:1007000004C08D910190801921F441505040C8F7E8
:10071000881B990B0895FB01DC010D900020E9F77F
:10072000119701900D920020E1F70895FB01DC0183
:1007300001900D920020E1F70895FB01DC0141508A
:10074000504048F001900D920020C9F701C01D9261
:1007500041505040E0F70895FB019F01E89442307A
:10076000C4F04532B4F44A3029F497FB1EF4909556
:1007700081959F4F642F77270E94FA2D805D8A33E1
:100780000CF0895D8193CB010097A1F716F45DE22F
:1007900051931082C9010C94CD03DC01FC01672F39
:1007A00071917723E1F7329704C07C916D93708348
:1007B0006291AE17BF07C8F308950F931F93CF93AD
:1007C000DF938B01BC01E80120E030E0A42FB0E012
:1007D0001BC0FB018081E82FF0E094E0F595E795E0
:1007E0009A95E1F7E659FE4F80818883FB0181915C
:1007F000BF01E82FF0E0EF70F070E659FE4F808106
:1008000089832F5F3F4F22962A173B0714F3AA0FC5
:10081000BB1FA00FB11F1C92DF91CF911F910F91B1
:100820000895DF92EF92FF920F931F93CF93DF9380
:100830007C01D42E8B01C0E0D0E0C7018C0F9D1F3E
:10084000B80141E00E94DD03C53019F4F8011282BD
:1008500002C0F801D28221960D5F1F4FC630D1052C
:1008600061F7DF91CF911F910F91FF90EF90DF9093
:10087000089587EA91E06AE674E00E94881388EAA6
:1008800091E00E94C01210922B0410922A0486E676
:1008900091E0909329048093280410922F041092E1
:1008A0002D0481E394E061E146E10E948E230895E6
:1008B0000E942D1581E090E0089580E1EEE3F4E0E0
:1008C000DF01982F1D929A95E9F7EEE4F4E0DF013D
:1008D0001D928A95E9F786E0EEE5F4E0DF011D92CE
:1008E0008A95E9F780E090E0A0E0B0E080936404AE
:1008F00090936504A0936604B09367041092680413
:100900001092690408951F93182F0E945D0488EACD
:1009100091E06091A6010E943B12BC018EE394E03D
:100920000E94960388EA91E00E946B12AEE5B4E063
:10093000FC0186E001900D928150E1F78091A601C3
:100940008093680488EA91E00E944D1280936904C4
:100950001123A9F48EE494E063E870E00E9454034C
:100960008EE394E06EE770E00E94490388EA91E02C
:100970006091A6010E947B0F0E94922C14C012303D
:10098000A9F48EE494E069E770E00E9454038EE3DA
:1009900094E065E770E00E94490388EA91E0609185
:1009A000A6010E94F30F0E94BE2C11C088EA91E0BC
:1009B0006091A6010E942912BC018EE494E00E947D
:1009C000960388EA91E06091A6010E94D11060939D
:1009D00064047093650480936604909367041F9188
:1009E00008950E9442266093240470932504809306
:1009F00026049093270408950E944226E0E0209167
:100A00002404309125044091260450912704621B50
:100A1000730B840B950B615C77428940904008F022
:100A2000E1E08E2F0895809170040E94CE18892BEA
:100A300011F480E008958DED96E065EA70E00E9483
:100A400085270E94F10481E008956F927F928F9232
:100A50009F92AF92BF92CF92DF92EF92FF920F934D
:100A60001F93DF93CF93CDB7DEB7CA54D0400FB6F4
:100A7000F894DEBF0FBECDBF88E294E00E947E17DF
:100A8000682E70E4772E6BE0A62EB12CAC0EBD1E46
:100A9000D501E72D1D92EA95E9F753E0C52ED12C3B
:100AA000CC0EDD1E88E0D6011D928A95E9F7809173
:100AB0000001909101019A8389834EE3842E44E0E2
:100AC000942EF40101900020E9F78F0101501040AD
:100AD00008191909C501B4010E948B03C5017E01E3
:100AE0000894E11CF11CB7010E948B030F5F1F4F9C
:100AF0000A0D1B1D8EE594E0B8014DE20E94110421
:100B0000C501B7010E948B038091680490E0B60193
:100B10004AE050E00E94AC03C501B6010E948B037D
:100B200088E294E06CE172E00E943A2788E294E067
:100B3000B5010E94972888E294E068E072E00E9484
:100B40003A27409164045091650460916604709165
:100B5000670488E294E028E030E00E947E2988E281
:100B600094E06CEE71E00E943A27C40167EE71E0F8
:100B70000E946403892BB9F0D5011D927A94E9F79C
:100B8000F40101900020E9F7E354F440C501B401F9
:100B9000AF010E949D0388E294E0B5010E9497286E
:100BA000CC24C39425C0C40163EE71E00E946403A9
:100BB000892BC1F0F50111927A94E9F7F4010190C3
:100BC0000020E9F7E254F440C501B401AF010E94EE
:100BD0009D0388E294E0B5010E949728CC24EE247E
:100BE000E39407C088E294E0B4010E949728CC24E3
:100BF000EE2488E294E06CEC71E00E943A278E01CA
:100C0000055F1F4F80E4D8011D928A95E9F78EE5B4
:100C100094E0B8014AE30E94110488E294E0B8012C
:100C20000E94972888E294E067EB71E00E943A27DF
:100C300088E294E0609168044AE050E00E94452810
:100C400088E294E06EE971E00E943A2788E294E03D
:100C5000609169044AE050E00E94452888E294E0EF
:100C60006AE871E00E943A27CC2029F088E294E0FB
:100C700066E871E00BC0EE2029F088E294E063E8BA
:100C800071E004C088E294E06AE771E00E943A27CC
:100C900088E294E065E671E00E943A2788E294E0F9
:100CA0006EE474E00E94972888E294E068E571E0C1
:100CB0000E943A2788E294E06EE474E00E9497284C
:100CC00088E294E062E571E00E943A2788E294E0CD
:100CD0000E9457158DED96E062E471E00E94852731
:100CE00088E294E00E949E14EDB7FEB73E970FB6DF
:100CF000F894FEBF0FBEEDBF319628EE30E0ADB7E1
:100D0000BEB712963C932E93119748E650E053835A
:100D1000428322E330E0358324835783468321E0F6
:100D200030E03187208793878287648615860E940A
:100D3000E015EDB7FEB73E960FB6F894FEBF0FBEB6
:100D4000EDBF8DED96E063ED70E00E9485270E9477
:100D5000AE18809370048DED96E064EC70E00E9414
:100D60003A278DED96E06EE374E00E948129C65B20
:100D7000DF4F0FB6F894DEBF0FBECDBFCF91DF912E
:100D80001F910F91FF90EF90DF90CF90BF90AF90A9
:100D90009F908F907F906F900895EF92FF920F93A6
:100DA0001F9381E394E060E00E94A2247B018C0108
:100DB0009701A8010E94D72D8823B9F064EC79E04F
:100DC00080E090E00E94502681E394E060E00E9481
:100DD000A2247B018C019701A8010E94D72D8823B2
:100DE00021F0EE24FF2400E81FEBB701C8011F919A
:100DF0000F91FF90EF9008950E945D048EE394E0C0
:100E000069E970E00E9454038EE494E063E970E0C5
:100E10000E945403AEE5B4E0EAE6F4E086E0019017
:100E20000D928150E1F70E94CD06609364047093A7
:100E30006504809366049093670481E0809368045E
:100E400081E2809369040895EF92FF920F931F93BC
:100E500081E394E00E944B247B018C019701A8015F
:100E60000E94D72D8823B1F064EC79E080E090E017
:100E70000E94502681E394E00E944B247B018C0168
:100E80009701A8010E94D72D882321F0EE24FF248A
:100E900000E81FEBB701C8011F910F91FF90EF9081
:100EA00008950E945D048EE394E06AE870E00E9479
:100EB00054038EE494E068E870E00E945403AEE5C9
:100EC000B4E0EAE6F4E086E001900D928150E1F7AB
:100ED0000E94240760936404709365048093660401
:100EE000909367041092680481E2809369040895E6
:100EF0000E94D5210E94AE1A08951F93CF93DF93CD
:100F0000EC0110E088818A3030F48DED96E063EAE0
:100F100072E00E943A278DED96E0688140E150E052
:100F20000E944528153031F08DED96E061EA72E0BF
:100F30000E943A271F5F2196163021F78DED96E02B
:100F40000E946527DF91CF911F910895FF920F9323
:100F50001F93CF93DF93ECECF1E082E1DF011D9270
:100F60008A95E9F78F01C0E0D0E0EAE3FE2ECE01DA
:100F700086599B4FB80141E00E94DD03C53019F44A
:100F8000F801128203C0D8011296FC9221960D5FDF
:100F90001F4FC630D10559F78DED96E00E946527A9
:100FA0008DED96E061E972E00E943A278DED96E0C2
:100FB0006CEC71E00E9481298DED96E00E9465271E
:100FC00088E592E06AE674E048E00E940E14882307
:100FD00031F48DED96E06CE672E00E9485270E9468
:100FE0008C1F882391F48DED96E066E572E00E94F7
:100FF000852728E088E190E00FB6F894A8958093C3
:1010000060000FBE20936000FFCF8DED96E061E59C
:1010100072E00E943A2789ED95E00E94E8178DED75
:1010200096E00E9465278DED96E06CE472E00E94E8
:101030003A2781EE95E00E94E8178DED96E00E9438
:1010400065278DED96E066E472E00E943A2789EE0E
:1010500095E00E94E8178DED96E00E9465278DEDE2
:1010600096E062E071E00E9497280E947C23BC0118
:101070008DED96E04AE050E00E94282888E690E056
:1010800060E00E94C11F882331F48DED96E06BE390
:1010900072E00E9485278DED96E065E372E00E9484
:1010A0003A278DEE95E00E94E8178DED96E00E94BC
:1010B00065270E942321DF91CF911F910F91FF900F
:1010C0000895CF92DF92EF92FF921F930E944226E3
:1010D0006B017C010E9478078091BF019091C00153
:1010E000A091C101B091C201A7019601281B390B43
:1010F0004A0B5B0B8091350190913601A09137012D
:10110000B091380182179307A407B507B8F580910D
:1011100042018430E1F08DED96E06EEB73E00E94C9
:1011200085278DED96E00E94FF2A68EE73E080E04F
:1011300090E00E94502628E088E190E00FB6F894F5
:10114000A895809360000FBE20936000FFCF8DEDC7
:1011500096E063EA73E00E948527C092BF01D092B7
:10116000C001E092C101F092C2011092CB0181E076
:101170008093420188EA91E00E94E60D8091C701C8
:101180009091C801A091C901B091CA01A70196012F
:10119000281B390B4A0B5B0B80913D0190913E015E
:1011A000A0913F01B091400182179307A407B507B2
:1011B00040F4C092C701D092C801E092C901F092F8
:1011C000CA018091CB01882309F002C1109142012C
:1011D000123011F1133020F4113009F0E5C006C0CF
:1011E0001330E9F1143009F0DFC0BDC00E94FC06E5
:1011F0001093CB010E944226AB01BC018DED96E01D
:101200002AE030E00E9419288DED96E061E973E054
:101210000E94852782E020C00E94510781E08093D0
:10122000CB011092A6010E944226AB01BC018DEDBC
:1012300096E02AE030E00E9419288DED96E062E801
:1012400073E00E94852788EA91E00E947B12882340
:1012500011F083E001C084E080934201B9C0109195
:10126000A60188EA91E00E945C12181708F06CC091
:101270008091BE018823F9F40E9483040E944226D3
:10128000AB01BC018DED96E02AE030E00E94192808
:101290008DED96E06CE673E00E943A2788EA91E0D3
:1012A0006091A6010E943B12BC018DED96E00E9468
:1012B000812982E020C0823009F50E9483040E94C7
:1012C0004226AB01BC018DED96E02AE030E00E94A1
:1012D00019288DED96E067E573E00E943A2788EAC9
:1012E00091E06091A6010E943B12BC018DED96E059
:1012F0000E94812981E08093BE012EC081E00E947E
:1013000083040E944226AB01BC018DED96E02AE0E9
:1013100030E00E9419288DED96E06AE373E00E94A8
:101320003A2788EA91E06091A6010E943B12BC0135
:101330008DED96E00E9481291092BE018091A60158
:101340008F5F8093A60108C088EA91E00E947B121B
:10135000882331F01092A60181E08093CB0138C040
:101360001092CB0178CF81ECC81687E2D80689E0CD
:10137000E80680E0F80660F18DED96E060E173E04C
:101380000E94852768EE73E080E090E00E9450267E
:1013900028E088E190E00FB6F894A895809360006B
:1013A0000FBE20936000FFCF8DED96E06EEF72E0F0
:1013B0000E943A278DED96E0609142014AE050E0AC
:1013C0000E9445288DED96E06BEE72E00E94852725
:1013D00080914101882331F58091C3019091C4012E
:1013E000A091C501B091C601A7019601281B390B38
:1013F0004A0B5B0B8091390190913A01A0913B011E
:10140000B0913C0182179307A407B50758F481E017
:1014100080934101C092C301D092C401E092C50102
:10142000F092C60180914101882331F18091CB0176
:10143000882311F10E9425050E944226AB01BC01C0
:101440008DED96E02AE030E00E9419288DED96E0BF
:1014500067ED72E00E9485278DED96E00E9465277A
:101460001092CB0110924101C092C301D092C401ED
:10147000E092C501F092C6010E94FC048823C1F0ED
:101480008DED96E065EA72E00E94852768EE73E0D4
:1014900080E090E00E94502628E088E190E00FB6BE
:1014A000F894A895809360000FBE20936000FFCF52
:1014B0000E9413051F91FF90EF90DF90CF90089549
:1014C0000F931F9380E00E94EE260E94A52B0DED46
:1014D00016E0C80140E052EC61E070E00E941E2A74
:1014E000C80162EF73E00E948527C8016AE071E0DD
:1014F0000E9497288AE694E00E947D0783E996E19E
:10150000AFE3B4E08093BF019093C001A093C10109
:10151000B093C2010E94A6071F910F91089581E028
:101520008093B604609393041092B4041092B504AF
:10153000089581E08093B604609393041092B404FC
:101540001092B50408952091920430E080919104A6
:10155000281B3109C901089540919104809192049A
:10156000481718F02FEF3FEF0AC0E42FF0E0EF58D4
:10157000FB4F8081282F30E04F5F40939104C901D9
:101580000895E091910480919204E81718F0EFEF2C
:10159000FFEF06C0F0E0EF58FB4F8081E82FF0E04E
:1015A000CF01089508951092BA041092B90488EEFC
:1015B00093E0A0E0B0E08093BB049093BC04A093C0
:1015C000BD04B093BE048EE791E09093B80480937D
:1015D000B7040895CF92DF92EF92FF920F931F937B
:1015E000CF93DF937C016B018A018091B60488233D
:1015F000A1F0C0E0D0E00DC0D701ED91FC91D60183
:10160000AC0FBD1F0190F081E02DC7016C910995D1
:101610002196C017D10780F304C0CB01642F0E942C
:101620001C0CC801DF91CF911F910F91FF90EF909B
:10163000DF90CF900895DF93CF930F92CDB7DEB7B1
:10164000FC0169838091B6048823C9F08091B504B8
:10165000803238F081E090E09383828320E030E0B4
:1016600015C08091B404E82FF0E0EC56FB4F99814F
:1016700090838F5F8093B4048093B50405C0CE013E
:10168000019661E00E941C0C21E030E0C9010F903E
:10169000CF91DF9108950F93062F8091930464E911
:1016A00074E04091B50421E00E94C70B1092B4048D
:1016B0001092B5041092B6040F91089561E00E9453
:1016C0004B0B0895413208F040E2862F61E774E049
:1016D0000E947E0B1092910480939204089521E061
:1016E0000E94620B0895109291041092920410923D
:1016F000B4041092B5040E94C80D0895382F4132E9
:1017000010F040E042C08091C3048823E1F791E0EB
:101710009093C3042093C5048FEF809330051092FB
:10172000EB0441504093EC044F5F9093C4048091CC
:10173000C404330F832B8093C4048091C60481308A
:1017400041F41092C6048091C4048093BB0085ECE0
:1017500001C085EE8093BC008091C3048130E1F329
:101760008091EB04841710F44091EB0420E030E00A
:101770000AC0FB01E20FF31FD901A553BB4F8C91A7
:1017800080832F5F3F4F2417A0F3842F08950F937A
:101790001F93582F122F413210F081E04AC08091E0
:1017A000C3048823E1F782E08093C3040093C50457
:1017B0008FEF809330051092EB044093EC04ABEC78
:1017C000B4E0FB0102C081918D938E2F861B84179C
:1017D000D0F31092C4048091C404550F852B8093DC
:1017E000C4048091C604813041F41092C6048091F3
:1017F000C4048093BB0085EC01C085EE8093BC00DF
:10180000112321F08091C3048230E1F380913005EF
:101810008F3F11F480E00DC080913005803211F4CB
:1018200082E007C080913005803311F084E001C070
:1018300083E01F910F910895482F613210F081E0ED
:1018400008958091C304843011F082E0089560937C
:101850000E05ADEEB4E0842F9C01F90102C0819128
:101860008D938E2F841B8617D0F380E008951F92EE
:101870000F920FB60F9211242F933F934F935F93C4
:101880006F937F938F939F93AF93BF93EF93FF9348
:101890008091B90090E0887F90708036910509F4BE
:1018A000F2C081369105CCF58832910509F47BC0F0
:1018B00089329105B4F48031910509F46FC081310A
:1018C00091053CF4009709F447C1089709F04FC10E
:1018D00065C08831910509F466C0809709F047C159
:1018E00082C08034910509F4A4C08134910544F488
:1018F0008033910509F482C0C89709F038C189C0C6
:101900008035910509F489C08835910509F496C0A0
:101910008834910509F02BC1AEC08839910509F4CE
:1019200013C189399105ECF48837910509F4ABC0EE
:10193000893791054CF48836910509F4A4C08037A5
:10194000910509F014C19FC08838910509F4FCC0C5
:101950008039910509F49DC08038910509F007C1CF
:1019600098C0803B910509F4C6C0813B91054CF4B9
:10197000803A910509F49FC0883A910509F0F7C0B3
:10198000BAC0803C910509F4E3C0883C910509F494
:10199000DFC0883B910509F0EAC0C2C08091C40451
:1019A0008093BB00CFC09091EB048091EC0498171A
:1019B00068F49091EB04E92FF0E0E553FB4F808150
:1019C0008093BB009F5F9093EB04BCC08091C504E3
:1019D000882309F44BC085ED8093BC008091BC0046
:1019E00084FDFCCFC2C080E28093300585ED8093FA
:1019F000BC008091BC0084FDFCCFB7C080E3809325
:101A0000300585ED8093BC008091BC0084FDFCCF47
:101A1000ACC088E3809330059BC08091EB0490912B
:101A2000BB00E82FF0E0E553FB4F90838F5F80937E
:101A3000EB049091EB048091EC0482C08091EB0464
:101A40009091BB00E82FF0E0E553FB4F90838F5F50
:101A50008093EB048091C504882341F085ED809349
:101A6000BC008091BC0084FDFCCF7FC081E08093EE
:101A7000C60484EA6EC085ED8093BC008091BC00F2
:101A800084FDFCCF72C083E08093C30410922F05C5
:101A900059C080912F05803208F056C080912F05E3
:101AA0009091BB00E82FF0E0E15FFA4F90838F5FE9
:101AB00080932F0547C080912F05803230F4E0914C
:101AC0002F05F0E0E15FFA4F108285ED8093BC00B6
:101AD0008091BC0084FDFCCF1092C30460912F055F
:101AE000E091C904F091CA048FE095E070E0099597
:101AF00010922F052DC084E08093C30410920D0531
:101B000010920E05E091C704F091C80409958091E8
:101B10000E05882329F481E080930E051092ED04D0
:101B200090910D05E92FF0E0E351FB4F8081809308
:101B3000BB009F5F90930D0590910D0580910E0560
:101B4000981710F485EC01C085E88093BC000FC0A5
:101B500085EC8093BC0009C01092300585ED809320
:101B6000BC008091BC0084FDFCCF1092C304FF91A7
:101B7000EF91BF91AF919F918F917F916F915F9105
:101B80004F913F912F910F900FBE0F901F9018957E
:101B90001092C30481E08093C5041092C60482E1D0
:101BA00061E00E94532583E161E00E945325E9EB47
:101BB000F0E080818E7F808380818D7F808388E4C8
:101BC0008093B80085E48093BC000895FC011082E6
:101BD000118208951F93613011F414E005C0623042
:101BE00011F415E001C010E087EB94E060E770E0CD
:101BF0000E94990A87EB94E0612F0E941B0B87EBF0
:101C000094E00E945E0B1F9108951F93CF93DF9382
:101C1000EA0187EB94E0422F0E946F0B10E009C0AD
:101C200087EB94E00E94AC0AFE01E10FF11D808376
:101C30001F5F87EB94E00E94A30A892B89F7DF914D
:101C4000CF911F910895EF92FF920F931F937A0106
:101C500007EB14E0C8010E948F0AC80161E10E94ED
:101C60001B0BC8016F2D0E941B0BC8016E2D0E941B
:101C70001B0BC8010E945E0B1F910F91FF90EF900C
:101C80000895EF92FF920F931F938C01F62EE22E90
:101C90000E94230E61E070E080E090E00E945026F8
:101CA000C8016F2D0E5F1F4FA8012E2D0E94050E3B
:101CB00061E070E080E090E00E9450261F910F915B
:101CC000FF90EF9008956F927F928F929F92AF92C4
:101CD000BF92CF92DF92EF92FF920F931F935C011E
:101CE0004A013901562F40E0445B5F4FD501119600
:101CF0006C9124E10E94410EF501828190E0A0E008
:101D0000B0E0BA2FA92F982F8827238130E040E038
:101D100050E0282B392B4A2B5B2B542F432F322F8B
:101D20002227848190E0A0E0B0E0282B392B4A2BB9
:101D30005B2B542F432F322F2227858190E0A0E088
:101D4000B0E0282B392B4A2B5B2BD4012D933D93EC
:101D50004D935C9313973696D50116968C9190E02F
:101D6000A0E0B0E0BA2FA92F982F8827218130E07A
:101D700040E050E0282B392B4A2B5B2B542F432F6C
:101D8000322F2227828190E0A0E0B0E0282B392B6F
:101D90004A2B5B2B542F432F322F2227838190E035
:101DA000A0E0B0E0282B392B4A2B5B2BF3012083DA
:101DB000318342835383F5013A96D5011A968C916B
:101DC00090E0A0E0B0E0BA2FA92F982F88272181BA
:101DD00030E040E050E0282B392B4A2B5B2B542F6E
:101DE000432F322F2227828190E0A0E0B0E0282B01
:101DF000392B4A2B5B2B542F432F322F22278381E1
:101E000090E0A0E0B0E0282B392B4A2B5B2BF801A7
:101E10002083318342835383F5013E96D5011E967C
:101E20008C9190E0A0E0B0E0BA2FA92F982F8827DE
:101E3000218130E040E050E0282B392B4A2B5B2BEE
:101E4000542F432F322F2227828190E0A0E0B0E070
:101E5000282B392B4A2B5B2B542F432F322F222731
:101E6000838190E0A0E0B0E0282B392B4A2B5B2B3C
:101E7000F7012083318342835383F5017296D501A4
:101E800052968C9190E0A0E0B0E0BA2FA92F982F45
:101E90008827218130E040E050E0282B392B4A2B65
:101EA0005B2B542F432F322F2227828190E0A0E01A
:101EB000B0E0282B392B4A2B5B2B542F432F322F8A
:101EC0002227838190E0A0E0B0E0282B392B4A2B19
:101ED0005B2BF60120833183428353831F910F9143
:101EE000FF90EF90DF90CF90BF90AF909F908F903A
:101EF0007F906F900895AF92BF92CF92DF92EF9252
:101F0000FF920F931F93DF93CF93CDB7DEB7649704
:101F10000FB6F894DEBF0FBECDBFAE014F5F5F4F6F
:101F20009E012B5F3F4F8E01075F1F4FEDE0EE2EAE
:101F3000F12CEC0EFD1E71E1C72ED12CCC0EDD1E56
:101F40000E94630E69817A818B819C810E94BE2CE4
:101F50007B018C0169897A898B899C890E94BE2CBE
:101F60009B01AC01C801B7010E94252C7B018C01AB
:101F70006D857E858F8598890E94BE2C9B01AC0162
:101F8000C801B7010E94742D5B016C0169857A85D7
:101F90008B859C850E94BE2CA60195010E94BC2BBE
:101FA0007B018C016D817E818F8198850E94BE2C82
:101FB0009B01AC01C801B7010E94742DA6019501D7
:101FC0000E94252C64960FB6F894DEBF0FBECDBFDD
:101FD000CF91DF911F910F91FF90EF90DF90CF9005
:101FE000BF90AF9008950F931F938C01562F40E040
:101FF000405C5F4FF801618124E00E94410EF801CE
:10200000828190E0A0E0B0E0BA2FA92F982F882716
:10201000238130E040E050E0282B392B4A2B5B2B0A
:10202000542F432F322F2227848190E0A0E0B0E08C
:10203000282B392B4A2B5B2B542F432F322F22274F
:10204000858190E0A0E0B0E0282B392B4A2B5B2B58
:10205000B901CA011F910F910895EF92FF920F935A
:102060001F93CF93DF93EC01E62F7901F0E055E069
:10207000EE0FFF1F5A95E1F7E40FF11D3B9633E099
:10208000EE0FFF1F3A95E1F76981AF0122E00E9450
:10209000410E8A81F70180838B81F80180838A81D8
:1020A0008F3F11F420E005C020E08B818F3F09F0C5
:1020B00021E0822FDF91CF911F910F91FF90EF9040
:1020C00008950F931F938C01562F40E0405B5F4FA4
:1020D000F801618124E00E94410EF801228130E084
:1020E00040E050E0542F432F322F2227638170E0CD
:1020F00080E090E0622B732B842B952B982F872FF9
:10210000762F6627248130E040E050E0622B732B6D
:10211000842B952B982F872F762F6627258130E0EB
:1021200040E050E0622B732B842B952B1F910F9175
:1021300008950F931F938C01562F40E0485B5F4F2B
:10214000F801618124E00E94410EF801228130E013
:1021500040E050E0542F432F322F2227638170E05C
:1021600080E090E0622B732B842B952B982F872F88
:10217000762F6627248130E040E050E0622B732BFD
:10218000842B952B982F872F762F6627258130E07B
:1021900040E050E0622B732B842B952B1F910F9105
:1021A00008952F923F924F925F926F927F928F92FB
:1021B0009F92AF92BF92CF92DF92EF92FF920F93D6
:1021C0001F93DF93CF93CDB7DEB76D970FB6F8941B
:1021D000DEBF0FBECDBF9C8F8B8F6D8F0E9499107D
:1021E0006F8B788F898F9A8F8B8D9C8D6D8D0E94D0
:1021F00061106B8B7C8B8D8B9E8B8B8D9C8D6D8DF5
:102200000E947B0F7B018C018B8D9C8D6D8D0E94BC
:10221000F30F0E94BE2C9B01AC01C801B7010E94C4
:10222000252C5B016C0180E090E0A0E0B0E08B87A2
:102230009C87AD87BE878F839887A987BA878B8352
:102240009C83AD83BE83EE24A0C0698170E08827A3
:1022500077FD8095982F0E94C02C9B01AC016F895F
:10226000788D898D9A8D0E94742D1B012C016A81B5
:1022700070E0882777FD8095982F0E94C02C9B01E5
:10228000AC016B897C898D899E890E94742D3B01EC
:102290004C01C201B101A60195010E94212C8823A5
:1022A00009F4B4C0E39491E0E916A1F4C201B101CC
:1022B000A60195010E94702D18160CF050C0C401A3
:1022C000B301A20191010E94252CA60195010E9453
:1022D000742D9AC0A1E0AE1508F041C0C201B10151
:1022E000A60195010E94702D1816CCF5C601B50106
:1022F0002F85388949895A890E94702D18167CF5D6
:10230000C601B5012F85388949895A890E94BC2B9D
:102310005B016C01C401B3012B853C854D855E8555
:102320000E94BC2B7B018C01C201B1012F85388931
:1023300049895A890E94BC2B9B01AC01C801B70195
:102340000E94252C9B01AC01C601B5010E94742D91
:102350009B01AC016B857C858D859E8553C08B85EB
:102360009C85AD85BE858B839C83AD83BE838F8525
:102370009889A989BA898F839887A987BA876B8634
:102380007C868D869E86C101D2018F87988BA98B12
:10239000BA8B8B8D9C8D6D8D4E2D9E012F5F3F4F87
:1023A0008E010E5F1F4F0E942D10882309F04DCF24
:1023B000C401B3012B813C814D815E810E94BC2B05
:1023C0007B018C01C201B1012F81388549855A8575
:1023D0000E94BC2B9B01AC01C801B7010E94252CB7
:1023E0007B018C01C601B501A20191010E94BC2BA9
:1023F0009B01AC01C801B7010E94742D9B01AC0187
:10240000C401B3010E94BD2B3B014C01B301C401C7
:102410006D960FB6F894DEBF0FBECDBFCF91DF91A2
:102420001F910F91FF90EF90DF90CF90BF90AF90F2
:102430009F908F907F906F905F904F903F902F90E4
:102440000895FC01618140E050E021E00E94410ECE
:1024500008950F931F938C01562F40E0405D5F4F0E
:10246000F801618120E10E94410E0E5F1F4FC801FB
:102470001F910F9108950F931F938C01562F40E0E9
:10248000405E5F4FF801618120E10E94410E0E5FC6
:102490001F4FC8011F910F9108950F931F938C0137
:1024A000F801618147E050E024E00E94410EF8010C
:1024B00085811F910F9108950F931F938C01F8014F
:1024C000618140E050E021E00E94410EF8018281EC
:1024D0001F910F9108950F931F938C01F801618153
:1024E00041E050E026E00E94410E0E5F1F4FC80100
:1024F0001F910F910895AF92BF92DF92EF92FF92DA
:102500000F931F93DF93CF930F92CDB7DEB77C016C
:102510001982FC01D0805E010894A11CB11C20C06E
:10252000C7010E942112C7016D2D0E94EA0DF7011B
:10253000118112C0103781F0812FB50140E021E0F8
:1025400000E00E94C70B882339F4F701D082118381
:10255000C7010E94211208C01F5F17FFEBCFD39461
:10256000F2E0FD15E8F610E0812F0F90CF91DF919A
:102570001F910F91FF90EF90DF90BF90AF90089563
:102580000F931F938C0187EB94E00E94730BF8016B
:10259000108211821F910F9108950F931F935798E6
:1025A00089E090E00E94A92609B184E190E00E94B0
:1025B000A92619B189E090E00E94A92617FD02C062
:1025C00080E005C0802F8095881F8827881F1F9175
:1025D0000F9108956F927F928F929F92AF92BF92C8
:1025E000CF92DF92FF920F931F93CF93DF935C0103
:1025F0003B016A0100E010E04A010894810891085B
:102600002AC0FF24C0E0D0E0C5010E94CD12FF0C1B
:10261000F82A2196C830D105B9F7579A0815190537
:1026200039F45F9A84E190E00E94A9265F9806C081
:102630005F9884E190E00E94A9265F9A84E190E08F
:102640000E94A926C5010E94CD12F301E00FF11FDF
:10265000F0820F5F1F4F0C151D059CF2DF91CF918B
:102660001F910F91FF90DF90CF90BF90AF909F9000
:102670008F907F906F900895EF92FF921F93CF936A
:10268000DF937C01162F579AC0E0D0E017FF07C0F8
:102690005F9884E190E00E94A9265F9A06C05F9A45
:1026A00084E190E00E94A9265F9884E190E00E9476
:1026B000A9262196C830D10511F0110FE7CF5F98F8
:1026C00084E190E00E94A9265F9A84E190E00E9454
:1026D000A926C7010E94CD12DF91CF911F91FF90D3
:1026E000EF9008950F931F938C015F9886E090E020
:1026F0000E94A926C80165E50E943C131F910F9115
:102700000895579A5F9A88E592E00E94A926089555
:10271000EF92FF920F931F938C017B01F8940E941C
:102720008113C8010E947213C80160EA0E943C1321
:10273000C80163E00E943C13C80160E00E943C13A2
:10274000C8016AEF0E943C13C801B70146E050E09F
:102750000E94EA12C8010E94811378941F910F9180
:10276000FF90EF900895CF93DF93C0E0D0E05C2F0F
:10277000FE01EF5CFA4FE081EE2349F120E030E00A
:102780006E2F70E0CB01022E02C0959587950A94BA
:10279000E2F780FF17C0CF5CDA4F81E090E0A0E065
:1027A000B0E0022E04C0880F991FAA1FBB1F0A9415
:1027B000D2F780958E238883852F880F880F880F06
:1027C000820F0AC02F5F3F4F28303105D9F621967E
:1027D000C032D10561F680E0DF91CF910895CF93AB
:1027E000DF93EC019B018A30910548F06AE070E0CC
:1027F0000E94FA2DCB01B9010E94EF139C01CE017A
:102800006AE070E00E94FA2D805DF9018193D901A0
:1028100011961C92CF01DF91CF910895AF92BF9294
:10282000CF92DF92FF920F931F93CF93DF938C0190
:10283000EB01F42E1092F10538E341E050E060E046
:1028400070E018C0832F90E0FC01B3E0F595E795A8
:10285000BA95E1F7EF5CFA4F877090705A016B01FF
:1028600004C0AA0CBB1CCC1CDD1C8A95D2F72081AD
:102870002A292083315031F783ED95E0BE010E9473
:102880000918C80163ED75E04F2D0E94D422DF9135
:10289000CF911F910F91FF90DF90CF90BF90AF909D
:1028A0000895EF92FF920F931F93CF93DF93EC0164
:1028B00031E0E32EF12C012D112D1EC090E0FC0122
:1028C00023E0F595E7952A95E1F7EF5CFA4F8770DD
:1028D0009070A801970104C0220F331F441F551F99
:1028E0008A95D2F7DA01C9012081282B20838D81B6
:1028F0006FE30E9498218D838D818823F9F6DF9103
:10290000CF911F910F91FF90EF900895982F809194
:102910009105981729F4E62FF0E0EF5AFA4F08C016
:102920008091D205981731F4E62FF0E0EE56FA4F79
:1029300080810895892F0E94982108950F931F93F5
:10294000FC0104818FE3089F8001112486816EE3DE
:102950000E948614080F111D03501040C8011F91DA
:102960000F9108951F93CF93DF93982F162FC82FA1
:10297000D0E0FE0156E0EE0FFF1F5A95E1F7EC0F95
:10298000FD1FEF5AFA4FE05CFF4F8081E054F040AA
:10299000681771F1992359F4BF010E945E2280915A
:1029A000D205181791F48FEF8093D2050EC0809155
:1029B0009105681751F4A2E9B5E0E1E5F5E081E49D
:1029C00001900D928150E1F713C0FE0146E0EE0F39
:1029D000FF1F4A95E1F7EC0FFD1FEF5AFA4FE05C3D
:1029E000FF4F1083E054F040812FBF010E94BB21B4
:1029F000DF91CF911F91089580E060E00E94B214B2
:102A000080915105909152050895CF93DF93EC0189
:102A100081E06F810E94B2149F818E81981739F4F2
:102A200098858091D005981710F080E013C08885B4
:102A3000E82FF0E0EE56FA4FE0818F5F88878F3302
:102A400040F09F818E81981721F08091D1058F836E
:102A500018868E2FDF91CF9108951F93CF93DF9328
:102A6000EC01162F80E06E810E94B21480918F05D8
:102A7000E82FF0E0EF5AFA4F10838F5F8F3318F48E
:102A800080938F0510C00E94B313682F8093900528
:102A90008E8380E00E94B2141092900510928F05F0
:102AA0008C818F5F8C83DF91CF911F910895CF939D
:102AB000DF93EC0180E06D810E94B214A1E5B5E0E6
:102AC000FE01349683E001900D928150E1F79091E0
:102AD000D2058D81981721F481E060E00E94B21444
:102AE000DF91CF910895CF93DF93EC016F8383E063
:102AF000888781E00E94B214DE011496E2E9F5E0D5
:102B000083E001900D928150E1F78F81DF91CF91A9
:102B10000895AF92BF92CF92DF92EF92FF920F9300
:102B20001F93DF93CF93CDB7DEB729970FB6F894F5
:102B3000DEBF0FBECDBF80E060E00E94B214009106
:102B400053051091540573E5E72E75E0F72E66E600
:102B5000A62E61E0B62E6E010894C11CD11C02C0E5
:102B60000F5F1F4FF80184918823C9F00F5F1F4F3B
:102B70008432C1F782E090E0E80EF91EF70160812F
:102B8000F8018491883461F71C821B82BA82A98281
:102B9000C6010E947315C6010E945114E1CF299607
:102BA0000FB6F894DEBF0FBECDBFCF91DF911F915E
:102BB0000F91FF90EF90DF90CF90BF90AF9008956E
:102BC0004F925F926F927F928F929F92AF92BF923D
:102BD000CF92DF92EF92FF920F931F93DF93CF93E9
:102BE000CDB7DEB760970FB6F894DEBF0FBECDBF8E
:102BF0008E010D5D1F4FF801E190F1908F0180E093
:102C000060E00E94B214C7010E945B0390935205DA
:102C100080935105F0925405E09253056801A5E5B3
:102C20008A2EA5E09A2EF6E64F2EF1E05F2EE8E020
:102C30006E2E712C6C0E7D1E5E010894A11CB11CC1
:102C4000F7018491882309F465C00894E11CF11C04
:102C50008432B1F7F60100811181F7018491863445
:102C600029F1873428F4843469F0853429F407C0C5
:102C7000883469F1833591F0A0E0B0E034C0A0E081
:102C8000B0E019C0C801B5010E94EF13D5010D9045
:102C90000020E9F71197AA19BB0925C0D8010D90AA
:102CA0000020E9F71197A01BB10B1DC0C8010E94BD
:102CB0005B0318C01196F999FECFCD01800F911FCB
:102CC00092BD81BDF89A80B58823A1F70CC01B8600
:102CD0001A8659864886C301602F0E947315C30166
:102CE0000E949E14DC010894E11CF11CF401019384
:102CF00011934F01809151059091520502978A0FCF
:102D00009B1F909352058093510582E090E0C80E7E
:102D1000D91E96CF60960FB6F894DEBF0FBECDBF1A
:102D2000CF91DF911F910F91FF90EF90DF90CF90A7
:102D3000BF90AF909F908F907F906F905F904F90DB
:102D400008952F923F924F925F926F927F928F924F
:102D50009F92AF92BF92CF92DF92FF920F931F93F9
:102D6000DF93CF93CDB7DEB760970FB6F894DEBF91
:102D70000FBECDBF1C013B01142F052F80E060E08A
:102D80000E94B214C0905305D09054051B861A8639
:102D900086E691E0998788871F861D86212F302F30
:102DA000C9012C0103E5802E05E0902E10E4F12EE0
:102DB00000E010E0AA24BB24620C731C83C086E4EC
:102DC000F81609F45EC08F1564F094E4F91609F45E
:102DD00054C09F150CF45AC0E0E4FE1609F070C010
:102DE00009C0F8E4FF1609F45BC083E5F81609F0A2
:102DF00067C043C0F6018491282F882309F466C078
:102E00000894C11CD11C843209F050C082E090E0CB
:102E1000880E991EF40160812181F6010894C11C7D
:102E2000D11CF490F6E4FF1544F085E4F816C4F4E0
:102E300094E4F91609F046C008C0E8E4FE16A9F0CB
:102E4000F3E5FF1609F03EC00BC0862F922FBE019E
:102E50006F5F7F4F0E94EF138E010F5F1F4F32C0D5
:102E6000862F922F9C0189012DC0CE0108960E94C9
:102E700073158E01085F1F4F25C0F80121918F0146
:102E800013C0F8010F5F1F4F24910EC0F999FECFB8
:102E9000C801019612BD01BDF89A20B58C0104C08D
:102EA000C8010E940515282F222351F0A214B30453
:102EB00018F0F20121932F010894A11CB11C02C04B
:102EC000B0E4FB2EA614B70408F479CF60960FB6D1
:102ED000F894DEBF0FBECDBFCF91DF911F910F9150
:102EE000FF90DF90CF90BF90AF909F908F907F909A
:102EF0006F905F904F903F902F900895EF92FF92C8
:102F00001F937C010E94B313182F80E0612F0E9451
:102F1000B214E1E5F5E010925105109353051093BA
:102F2000520583E086AF17AEC701612F0E9473156B
:102F30001F91FF90EF90089580911B06811181E011
:102F40000895CF92DF92EF92FF920F931F93CF934A
:102F5000DF93C3EFD5E030E0CC24DD2429C02A8103
:102F60004B818091F00190E0042F10E080179107D1
:102F7000D9F49091F1019217B9F48C818823A1F0D2
:102F80002091F30130E028503040F090F201EE241F
:102F90002E0D3F1DE881F981892F942F66EE71E097
:102FA00046EF51E0099531E00894C11CD11C2596EB
:102FB00080911B0690E0C816D9068CF2832FDF9112
:102FC000CF911F910F91FF90EF90DF90CF900895D8
:102FD0000F931F93CF93DF938C01C0E0D0E0F801F3
:102FE000EC0FFD1F8DED96E060814AE050E00E94FD
:102FF0004528C33029F08DED96E06EE20E945D27F2
:103000002196C430D10559F7DF91CF911F910F91CF
:103010000895DC01FB0186E001900D928150E1F7FB
:1030200008959C01FB0180819181A281B381F90106
:1030300080839183A283B3830895DF92EF92FF92FE
:103040000F931F93CF93DF93D82E862FBA01213091
:1030500041F4675F7F4F9B0140E050E06950704052
:103060000EC0223029F020E030E040E050E007C000
:10307000625070409B0140E050E06E5F7F4FE82E51
:10308000FF248CEC91E0E80EF91E8B01E7010FC0E4
:10309000F881E0E0898190E08E2B9F2BA0E0B0E0EA
:1030A000280F391F4A1F5B1F229602501040023022
:1030B000110570F7CB018E7FD701A80FB91F6817D4
:1030C000790779F08C9190E0A0E0B0E0BA2FA92FB9
:1030D000982F882702C040E050E0280F391F4A1F70
:1030E0005B1FCA01AA27BB270097A105B10599F765
:1030F000C90180959095ED2DF0E0E453FE4F90834B
:103100008183DF91CF911F910F91FF90EF90DF901E
:1031100008951092E4011092E50180E48093E001AB
:103120001092E1018093E20188E16EE044E150E019
:1031300020E00E941D18089580911C0686958095B8
:1031400081700895662341F48093490144535E4F92
:103150005093300640932F0681E00895309143014B
:103160002091440182EA98E19093240680932306FB
:103170008FE09DE1909326068093250620931F06FD
:103180003093200681E080931D0680911E068F5F9C
:10319000877080931E0680933106089590914901AF
:1031A000981719F020E030E007C08BE780934901C1
:1031B00020912F0630913006C90108950F931F9377
:1031C000BC010CEC11E0C8010E940918C801069668
:1031D00063ED75E00E9409181F910F910895EF9219
:1031E000FF920F931F937B010E94DE180AEE11E0FD
:1031F000C801B7010E941118C801049769ED75E074
:103200000E9411181F910F91FF90EF900895EF9277
:10321000FF920F931F93CF93DF937C01EB018A0101
:1032200087E296E00E94EF188881807F803E49F017
:1032300088819981AA81BB818F5F9F4FAF4FBF4F1C
:1032400031F48CEC91E06AE871E00E94091888E0A2
:103250008093D8011092D9018AED91E063E274E085
:1032600049E050E00E9440031092DC0181E180932C
:10327000E3011093F0010093F101F092EE01E0926E
:10328000EF011092F2011092F4011092F501DF911A
:10329000CF911F910F91FF90EF900895EF92FF92C1
:1032A0000F931F9302ED11E0C8010E94DE1874E134
:1032B000E72EF12CE00EF11EC8014896B7010E94DE
:1032C0001118C70169ED75E00E9411180E94891854
:1032D0001F910F91FF90EF900895BC0181E08093C2
:1032E0001C0681EE95E00E94111808950F931F931C
:1032F0008C0188969093DC018093DD010E948918EF
:103300001092FE011092FF01045E1F4F82E36AE1FA
:10331000A80122E00E941D18C8014A960E94782246
:103320001F910F910895CF93DF939C01862F8061A9
:103330008093FB01643029F02115310511F421E05F
:1033400030E09091F0018091EE018093F001909334
:10335000EE019091F1018091EF018093F101909342
:10336000EF01C5EFD1E08881A901480F511D2C81E3
:103370004C832883252F3327219751E0C13FD50760
:1033800091F71D861E8680E589871092DC0188E210
:103390008093DD010E944E1984E08B871C8682E3B6
:1033A0006AE14CE150E022E00E941D1886E390E0C3
:1033B0000E947822DF91CF910895E82FA091DC013F
:1033C000B091DD01F091FA014091F00150E0292F18
:1033D00030E04217530709F08EC08091F1018E173B
:1033E00009F089C08091FB01E82F81FF4EC0109247
:1033F000DC018CE28093DD010E944E1982E1809312
:10340000FB019091F0018091EE018093F001909387
:10341000EE019091F1018091EF018093F101909381
:10342000EF01E5EFF1E021E030E08081A901480FF4
:10343000511D44831082252F3327319751E0E13FFE
:10344000F50799F715861686118212828091480138
:10345000838314828D5F8093480182E0818B84E0B6
:10346000828B95E0938B148A80E68187938788E727
:10347000848782E36AE140E250E022E00E941D1866
:103480008AE390E00E94782236C084FF34C04F2F38
:1034900050E084E0559547958A95E1F79A2F80E0B2
:1034A0002B2F30E0282B392BCA01880F991F880F4A
:1034B000991F281B390B2451304037FF02C020E0F0
:1034C00030E030932E0620932D06232B69F09A01CD
:1034D000220F331F220F331F2E5D3F4F6850704065
:1034E0006217730740F009C0E0FF05C080E090E07C
:1034F00060E00E94931920E030E0C90108950F9325
:103500001F93DF93CF930F92CDB7DEB78C01045E8C
:103510001F4F1093DC010C511040802F845E80936C
:10352000DD0189830E948918085F1F4F1093F20103
:10353000898184518093F301085F1F4F88E26AE11B
:10354000A80121E00E941D18C8014A960E94782215
:103550000F90CF91DF911F910F910895DF92EF921D
:10356000FF920F931F93CF93DF93EC018091F105AE
:10357000882319F0CE010E941C1E209709F0BFC0BD
:1035800080911C068570F1F1809145019091460172
:10359000892BC1F50E9459218823A1F18AE891E085
:1035A0000E94DE1888E08093D801A6E0FA2EF092FF
:1035B000D9018AED91E06BE174E048E050E00E94AF
:1035C00040030CEE11E0D8011D92FA94E9F7C8010E
:1035D0000A9763ED75E00E940918C801069661EE2E
:1035E00075E00E941118C801049769ED75E00E940A
:1035F000111880911C06886080931C068AE290E076
:103600000E94782280914501909146010196909305
:1036100046018093450180911D06813009F0EFC17C
:1036200080911C0681FFEBC102E000931D06809192
:1036300047018F5F809347018F7110911E0612958D
:10364000110F107E182BE0901F06D090200687E205
:1036500096E06DEE75E00E94EF18F8E0FF2EF09214
:10366000D8011092D9018AED91E063E274E049E05B
:1036700050E00E9440038CE28093DD0186E080935D
:10368000E3010E948918E092F001D092F1018BE0F1
:103690008093EE011093EF01E2EFF1E0DF011D9264
:1036A000FA94E9F7809148018093F4018D5F80934B
:1036B000480180E68093FA010093FB0183E0809348
:1036C000FC011092FD011092FE011092FF01109278
:1036D0000002109201020093020284E08093030230
:1036E0000093040286E28093050282E36AE140E2ED
:1036F00050E022E00E941D188AE390E09BC0C9328E
:10370000D10508F47CC11091D801183009F082C1AC
:103710008091D901863009F07DC182EF91E069ED99
:1037200075E044E050E00E947E03009709F072C10A
:103730008091E101813029F582ED91E00E94DE184F
:103740001092E00182E08093E1018CEE91E062EE64
:1037500071E00E94091882EE91E063ED75E00E942D
:10376000091882EF91E068EE71E00E94111888EE6E
:1037700091E069ED75E00E9411188AE290E00E94E4
:10378000782280911C0683FF3AC11091E10112302A
:1037900009F035C188EE91E061EE75E044E050E05B
:1037A0000E947E03009709F02AC187E296E062EE4C
:1037B00071E00E94091810931C0621C1183009F00D
:1037C0001EC18091D901882309F019C18091DA01C5
:1037D000853409F014C18AEE91E069ED75E044E0AA
:1037E00050E00E947E03009709F009C18091E30137
:1037F000813019F58091EE018830F9F4E0912106CD
:10380000F0912206309719F086EE91E009950E941A
:103810004E191092EE018091F001883F28F08091BE
:10382000F1018F5F8093F1018091F001885F8093B7
:10383000F001CE010E947822E2C00E949C178823EA
:1038400051F08091E301813131F4CE010E94A11742
:10385000882309F0D4C0C633D10528F48091E30150
:10386000863009F0CCC08091F0018B3009F0BEC0E9
:1038700086EE91E06DEE75E044E050E00E947E033C
:10388000009709F0BCC08091FB01382F82FF13C064
:10389000E0912306F0912406309759F08091F101D0
:1038A00082958695877063E040E050E020E030E04C
:1038B000099585E090C09091DC0180E02091DD01C8
:1038C000022F10E0082B192B8091FA01482F50E0AD
:1038D000E4E055954795EA95E1F7CA01880F991FED
:1038E000880F991F081B190B0451104017FF02C0C5
:1038F00000E010E080911D06823079F531FF21C093
:1039000034FF1FC080E090E060E00E94931988E1DE
:103910008093FB01E0912506F0912606309719F47B
:1039200020E030E007C08091EF0182958695877096
:1039300009959C0183E080931D06C9010E947619B8
:103940005EC081E080931D0634FF03C080E090E0FC
:1039500002C0C801019664E046C0833081F50115BC
:10396000110579F1E0912306F0912406309749F191
:10397000440F551F440F551FCE0108974E5D5F4FF2
:103980008417950708F4AC01C801840F951FC81768
:10399000D90710F0980103C09E01241B350B8091BC
:1039A000F10182958695877060E009958091F20516
:1039B000882319F0C80168E016C0C80108C0853026
:1039C000F1F030FF0BC08330D1F0C801019669E0FF
:1039D0000E94931986E080931D0611C00115110500
:1039E00071F0C80160E00E94931909C08091430101
:1039F00090914401BE010E94DD199C0102C020E0AB
:103A000030E0C901DF91CF911F910F91FF90EF90AE
:103A1000DF900895CA32D10508F0D0CEF0CFEF92F2
:103A2000FF920F931F930E94FC148C01B2E0EB2EC7
:103A3000B2E0FB2E80E090E0B801A7010E94A11641
:103A40000E948915E00EF11EF70110828BE780932A
:103A50004901C8011F910F91FF90EF900895DF93E6
:103A6000CF9300D000D000D0CDB7DEB7DE011196E5
:103A7000E0E9F1E086E001900D928150E1F786E106
:103A800091E0ECECF1E0DF019C011D92215030400F
:103A9000E1F780913206833019F465EE75E003C0DA
:103AA000BE016F5F7F4F84E490E043E450E00E94EA
:103AB000071980913206833039F08CEC91E0BE0119
:103AC0006F5F7F4F0E94091881E08093F601809319
:103AD000F70186E08093F80180913F0690914006BF
:103AE000A0914106B09142068093FA019093FB01A8
:103AF000A093FC01B093FD0180913206833039F42C
:103B000086EF91E00C9669ED75E00E94111882E154
:103B100092E063ED75E00E940918A2EEB2E0EBE5D9
:103B2000F1E002C081918D9331E0E136F307D1F7E6
:103B300090913206992311F083E001C081E08093D7
:103B4000E8028DE38093E90287E08093EA0281E056
:103B50008093EB02ACEEB2E0E3EDF5E002C08191C0
:103B60008D9385E0E93DF807D1F78CE08093F20270
:103B70008AE08093F302EAE4F1E0A4EFB2E002C04D
:103B800081918D9321E0E435F207D1F72EEF32E0F9
:103B90003093440620934306913069F582E3809385
:103BA000FE0284E08093FF02D9011296E9EDF5E070
:103BB00002C081918D9335E0ED3DF307D1F786E3A7
:103BC0008093040384E08093050386E093E0909360
:103BD000440680934306DC01E5EEF5E002C08191E6
:103BE0008D9385E0E93EF807D1F78AE093E0909362
:103BF0004406809343062091430630914406D90140
:103C0000E5E5F1E002C081918D9381E0EB35F807A5
:103C1000D1F7C90106969093440680934306865FC8
:103C200091400E947F1A26960FB6F894DEBF0FBE11
:103C3000CDBFCF91DF910895DF92EF92FF920F9366
:103C40001F93CF93DF938C0180913206823009F469
:103C5000F7C0833030F4882351F1813009F054C12A
:103C60004AC0833021F0843009F04EC1E9C00E947F
:103C700042262091370630913806409139065091FE
:103C80003A06E0903306F090340600913506109124
:103C900036062E0D3F1D401F511F62177307840704
:103CA000950708F431C10E942F1D84E017C00E94BF
:103CB000422660933F06709340068093410690939E
:103CC00042061092D9051092DA051092DB05109287
:103CD000DC050E942F1D0E94282181E0809332067E
:103CE0000E94422660933B0670933C0680933D06FB
:103CF00090933E0609C10634110508F4F0C0809186
:103D0000EF01833409F0EBC02091FA013091FB01FF
:103D10004091FC015091FD0180913F069091400639
:103D2000A0914106B0914206281739074A075B0760
:103D300009F0D5C0C6EED2E0FE01A80144535E4FA3
:103D4000DF01119691819D012F5F3F4F8081853367
:103D500021F411968C91823039F0F901E90FF11DAF
:103D6000E417F50768F3BBC089ED95E066E072E003
:103D70000E9411185CECE52E51E0F52EE00EF11ECC
:103D8000FE013196D9808F010F5F1F4F88818630E9
:103D9000A9F0873030F4813059F0833009F045C004
:103DA0000AC08633E9F18A3361F08333F1F509C043
:103DB0008DED95E037C081EE95E034C089EE95E059
:103DC00031C0618170E080E090E0982F872F762FDE
:103DD0006627F8012181620F711D811D911D982FA9
:103DE000872F762F66272281620F711D811D911DFD
:103DF000982F872F762F66272381620F711D811DD3
:103E0000911D28EE33E040E050E00E94DB2D6093EE
:103E10003706709338068093390690933A0605C0AA
:103E200085EE95E0B8010E941118E801CD0DD11D75
:103E3000CE15DF0508F4A4CF0E942F1D82E04ECFDF
:103E40000634110508F44BC08091EF01833409F06A
:103E500046C02091FA013091FB014091FC01509144
:103E6000FD0180913F0690914006A0914106B091DE
:103E70004206281739074A075B0789F5E6EEF2E0A4
:103E8000A80144535E4FDF01119691819D012F5F80
:103E90003F4F8081853321F411968C91853039F024
:103EA000F901E90FF11DE417F50768F318C00E9446
:103EB00023210E9442266093330670933406809338
:103EC0003506909336068091E105882321F081EE36
:103ED00095E00E946D1983E08093320615C00E9420
:103EE000422620913B0630913C0640913D06509180
:103EF0003E06205F384D4F4F5F4F26173707480764
:103F0000590710F410923206DF91CF911F910F9153
:103F1000FF90EF90DF900895CF93DF9381E080933F
:103F2000F1059091D805892F82958F70805D8093DF
:103F300052019F70905D90935301109232060E943F
:103F40004226EB0104C00E94D5210E941C1E8091D4
:103F50003206833061F00E9442266C1B7D0B605656
:103F60007A4E28F40E945921882389F3ECCF90E0FF
:103F700080913206833009F491E0892FDF91CF914F
:103F80000895FF920F931F93CF93DF93182F092F5C
:103F9000F62E0E944226EB010E945921882329F027
:103FA0000E949C18882309F4DBC00E94D5210E943E
:103FB000AE1A0E9442266C1B7D0B6053754760F35E
:103FC000C8C088E098E0A8E0B8E08093E905909345
:103FD000EA05A093EB05B093EC058091450690E0CF
:103FE000906E69EE75E045E350E00E940719A6EF78
:103FF000B1E08CE0FD0111928A95E9F7812F902FB5
:10400000FC01CF011C9630E0FF2019F0FC0120815B
:1040100002C0FC01249101962E3241F0222331F09E
:104020003F5FFD01E30FF11D2083EECFFD013193D2
:10403000DF01A30FB11D222331F7FD01119211966B
:104040001C92DF01119641E04183FD0131961196EA
:104050001C92418386ED2CEC31E0821B32968E0F50
:104060008093F601909145069093F7014093F801F3
:104070004093FB0190E00E947F1A0E9442268B0130
:1040800061C00E944226601B710B6053754708F0A7
:1040900060C00E94D521EC01009709F453C00E9432
:1040A000AE1A892B09F04EC0C634D10508F44AC0B7
:1040B0008091EF01853309F045C08091F001803E89
:1040C00009F040C09091F101809145069817D1F513
:1040D0008091F7018917B1F58091F90190E08F7017
:1040E0009070892B79F58091F601E82FF0E0EA5085
:1040F000FE4F9E0124533E4F8081807C39F03296E2
:1041000009C08081882311F4319604C03196E217EA
:10411000F307B8F3CF010E962817390798F081817D
:10412000813051F48185843039F43A968DEE95E0F2
:10413000BF010E94111806C0818590E00A96E80F21
:10414000F91FDACF8091ED05882309F49ACF81E039
:1041500001C080E0DF91CF911F910F91FF900895F2
:104160001092ED051092EE051092EF051092F005F9
:10417000809145068F5F809345068091E9058823ED
:1041800009F02BCF1ECF8091480661E00E94532595
:1041900078940895FF920F931F93082F162FF42EF3
:1041A000F8948091480660E00E9453251F71102BFF
:1041B0001EBD0DB407FEFDCFFEBC0DB407FEFDCF46
:1041C0000E94C3201F910F91FF9008951F93182FF5
:1041D000282F30E0207630708091490690E0281733
:1041E000390799F080EA6FE143E00E94CA20412F2D
:1041F00040764093490650E085E0559547958A956D
:10420000E1F780E86FE10E94CA201F9108950F93A3
:104210001F93182F062F0E94E62080E4612F402F65
:104220000E94CA201F910F9108950F931F93182F7A
:10423000072F0E940721812F8F5F602F0E94072187
:104240001F910F91089588E360EB0E940721089564
:1042500088E361EB0E94072108950F931F93182FA5
:10426000062FF8948091480660E00E945325802F25
:104270008F71812B8EBD0DB407FEFDCF1EBC0DB41A
:1042800007FEFDCF07FF04C01EBC0DB407FEFDCF27
:104290001EB50E94C320812F1F910F9108951F9377
:1042A000182F0E94E62080E0612F0E942D211F918F
:1042B000089584ED61E10E94072182ED61E00E9492
:1042C00007218AEE0E944F2180FDFBCF82ED60E046
:1042D0000E94072189ED0E944F2190E096958795D5
:1042E00096958795817008950F931F93CF93DF93D1
:1042F000EC018B01F8948091480660E00E94532500
:104300008AE38EBD0DB407FEFDCF09C01EBC0DB4FF
:1043100007FEFDCF8EB5F80181938F01219720977D
:10432000A9F70E94C320DF91CF911F910F910895AB
:10433000DF93CF930F92CDB7DEB7198290E036E0CE
:10434000880F991F3A95E1F7860F911DBC016050C7
:104350007E4E80509E4050F480E00E94152181E006
:1043600090E0BE016F5F7F4F0E94742189810F90A2
:10437000CF91DF910895CF93DF93EB0190E046E07A
:10438000880F991F4A95E1F7BC0160507E4E815C11
:104390009D4040F480E00E94152180E490E0BE0141
:1043A0000E947421DF91CF9108950F931F93DF93A3
:1043B000CF9300D000D000D0CDB7DEB789E30E9404
:1043C0004F21882319F400E010E048C060914A06AC
:1043D00070914B0680E00E94152186E090E0BE01BE
:1043E0006F5F7F4F0E94742189819A8190934B0661
:1043F00080934A062B813C81E0914606F091470666
:104400008D8187FD03C000E010E00EC024503040D5
:104410008F01015010402017310708F48901C801AD
:104420006CEC71E00E947421F801E453FE4F10829D
:1044300060914A0670914B068CE06130780724F059
:104440008CE06FEF7BE003C0615070408CE00E9415
:10445000152180E86EE140E40E94CA20C80126963A
:104460000FB6F894DEBF0FBECDBFCF91DF911F9185
:104470000F9108950F931F93CF93DF938C01EB015E
:10448000F8948091480660E00E9453258AE78EBD2B
:104490000DB407FEFDCF08C088818EBD0DB407FEA8
:1044A000FDCF21960150104001151105A9F70E947A
:1044B000C320DF91CF911F910F910895CF93DF9388
:1044C000EB0190E056E0880F991F5A95E1F7BC0187
:1044D00060507E4E815C9D4040F482E00E94152138
:1044E00080E490E0BE010E943A22DF91CF910895CE
:1044F000CF93DF93EC010FC08CE10E944F2181FF2D
:104500000AC080E86FE140E80E94CA2080EA6FE1BB
:1045100040E80E94CA2080E06FE10E942D2183FDC7
:10452000EBCF82E060E07CE00E941521BE0160508C
:10453000744F86E00E9415218AE760E040E00E9407
:10454000CA20CE016CEC71E00E943A2280E86FE153
:1045500048E00E94CA20DF91CF9108958AE061E08F
:104560000E9414258AE061E00E9453258BE061E0FF
:104570000E9414258DE061E00E9414258CE060E02B
:104580000E9414258BE061E00E9453258BE060E0DF
:104590000E9453258DE060E00E94532580E58CBD8C
:1045A0008DB581608DBD08951F93CF93DF93EB018F
:1045B000142F90934706809346060CB406FC02C065
:1045C0000E94AE2210934806812F61E00E941425BC
:1045D0000E94C3208FEF60E04FEF0E94CA2062E08C
:1045E00070E080E090E00E94502680E06DE10E9443
:1045F0002D218823D1F310924B0610924A0688E0B1
:1046000060E070E00E9415218CE060E070E00E94A4
:1046100015218AE06FEF7BE00E94152184E060E0C5
:104620007CE00E94152186E06FEF71E10E94152168
:104630000E94282188E26FE370E30E94152180E345
:1046400069EF77EF0E94152180EC6DE00E94072151
:1046500081EC60E00E94072180E862EC42E30E9466
:10466000CA2086EC62E17CE00E94152184EC62E1C4
:104670000E9407218AEC6CED75E00E94152184EE02
:1046800068810E94072185EE69810E94072182EEE0
:104690006A810E94072183EE6B810E94072180EED0
:1046A0006C810E94072181EE6D810E94072184EDBB
:1046B00060E10E94072186ED60E071E00E94152113
:1046C0008AEE0E944F2180FDFBCF8FE10E94E62001
:1046D00080E86BE140EC0E94CA2080E86FE144E092
:1046E0000E94CA2082E70E944F21863008F08F5F27
:1046F000DF91CF911F910895EFEFF6E020E030E0D9
:1047000003C031962F5F3F4F8081853C29F488E0BC
:10471000EF3FF807B1F3A8F3C9010895FC016683E0
:10472000478381E084870895CF92DF92EF92FF92D2
:104730000F931F93CF93DF93EC018E8161E00E9472
:1047400053256AEF70E080E090E00E9450260E94BE
:1047500042269B01AC0188859985AA85BB852817CF
:1047600039074A075B0720F4188619861A861B86C4
:104770008C85882371F488859985AA85BB85281B3B
:10478000390B4A0B5B0B205D37404040504008F42A
:1047900077C01C860E944226688779878A879B8714
:1047A0001C821B821A82198218828E8161E00E940B
:1047B00014258E8160E00E94532564E170E080E062
:1047C00090E00E945026F8948E8161E00E9453256B
:1047D00088E290E00E94A9268E8160E00E94142564
:1047E00081E0EE2400E010E00AC0F39481E090E064
:1047F0000E94A9262FEFF21629F40AC0892FFF2460
:10480000C82EDD248E810E94A7258C159D0569F395
:104810008E810E94A725982F8FEFF816C9F00430DB
:1048200090F000FD10C08E2D869586958695FE0130
:10483000E80FF11D8081880F808326E02F1510F48A
:1048400081608083E3940F5F1F4F05351105B1F63A
:10485000789487E28E1510F030E013C030E04C8180
:1048600050E02981888190E0820F911D2A81820F7A
:10487000911D2B81820F911D90704817590709F4E3
:1048800031E0832FDF91CF911F910F91FF90EF9037
:10489000DF90CF900895EF92FF920F931F93CF93E5
:1048A000DF93EC010E9494238823A9F18F818B3040
:1048B00031F08B3080F18551823068F507C0688116
:1048C00070E080E090E00E94BE2C22C0688170E021
:1048D00080E090E00E94BE2C20E030E040E853E40D
:1048E0000E94742D7B018C01698170E0882777FD1F
:1048F0008095982F0E94C02C9B01AC01C801B70184
:104900000E94BD2B20E030E040E251E40E94252CC3
:10491000E62F692F0AC08DED96E069E171E00E94F3
:104920009728E0E070E080EC6FE72E2F372F482FBC
:10493000562FB901CA01DF91CF911F910F91FF90BE
:10494000EF900895CF92DF92EF92FF920F931F9313
:10495000CF93DF93EC01C62E0E949423882309F4A1
:1049600050C08F818B3041F08B3008F44AC08551A4
:10497000823008F046C007C06A8170E080E090E0B5
:104980000E94BE2C29C0DA806D2D70E06F777070A8
:10499000882777FD8095982F0E94C02C20E030E07A
:1049A00040E853E40E94742D7B018C016B8170E020
:1049B000882777FD8095982F0E94C02C9B01AC0121
:1049C000C801B7010E94BD2B20E030E040E251E475
:1049D0000E94252CD7FC9058CC20E9F020E030E054
:1049E00040E151E40E94742D20E030E040EA50E4C0
:1049F0000E94252C20E030E040E052E40E94BD2BD4
:104A00000AC08DED96E069E171E00E94972860E0B0
:104A100070E080EC9FE7DF91CF911F910F91FF90A5
:104A2000EF90DF90CF900895CF93DF93482F50E021
:104A3000CA018B5E9A4FFC0134914F5F5A4FFA01C5
:104A40008491882369F190E0880F991FFC01ED5152
:104A5000FB4FA591B491FC01E351FB4FC591D4915B
:104A6000662351F42FB7F8948C91932F9095892356
:104A70008C93888189230BC0623061F42FB7F8943E
:104A80008C91932F909589238C938881832B888395
:104A90002FBF06C09FB7F8948C91832B8C939FBF38
:104AA000DF91CF910895482F50E0CA01875D9A4F5A
:104AB000FC012491CA018B5E9A4FFC0194914F5FD7
:104AC0005A4FFA013491332309F440C0222351F1A3
:104AD000233071F0243028F42130A1F0223011F578
:104AE00014C02630B1F02730C1F02430D9F404C00E
:104AF000809180008F7703C0809180008F7D8093AC
:104B0000800010C084B58F7702C084B58F7D84BDCE
:104B100009C08091B0008F7703C08091B0008F7D75
:104B20008093B000E32FF0E0EE0FFF1FE351FB4F47
:104B3000A591B4912FB7F894662321F48C919095A8
:104B4000892302C08C91892B8C932FBF0895682FE5
:104B500070E0CB01875D9A4FFC012491CB018B5E05
:104B60009A4FFC0144916F5F7A4FFB019491992316
:104B700019F420E030E03CC0222351F1233071F0E1
:104B8000243028F42130A1F0223011F514C0263051
:104B9000B1F02730C1F02430D9F404C080918000F6
:104BA0008F7703C0809180008F7D8093800010C03C
:104BB00084B58F7702C084B58F7D84BD09C0809194
:104BC000B0008F7703C08091B0008F7D8093B000DC
:104BD000892F90E0880F991F89509B4FFC01A59168
:104BE000B4918C9120E030E0842311F021E030E09A
:104BF000C90108951F920F920FB60F9211242F939F
:104C00003F938F939F93AF93BF9380915006909162
:104C10005106A0915206B091530630915406019668
:104C2000A11DB11D232F2D5F2D3720F02D5701968B
:104C3000A11DB11D209354068093500690935106F8
:104C4000A0935206B093530680914C0690914D0666
:104C5000A0914E06B0914F060196A11DB11D809303
:104C60004C0690934D06A0934E06B0934F06BF910D
:104C7000AF919F918F913F912F910F900FBE0F9009
:104C80001F9018958FB7F8942091500630915106D7
:104C900040915206509153068FBFB901CA01089541
:104CA0009B01AC017FB7F89480914C0690914D0622
:104CB000A0914E06B0914F0666B5A89B05C06F3F08
:104CC00019F00196A11DB11D7FBFBA2FA92F982FF2
:104CD0008827860F911DA11DB11D62E0880F991FC5
:104CE000AA1FBB1F6A95D1F7BC012DC0FFB7F8946E
:104CF00080914C0690914D06A0914E06B0914F06C2
:104D0000E6B5A89B05C0EF3F19F00196A11DB11DA6
:104D1000FFBFBA2FA92F982F88278E0F911DA11D95
:104D2000B11DE2E0880F991FAA1FBB1FEA95D1F7BA
:104D3000861B970B885E9340C8F22150304040405C
:104D4000504068517C4F211531054105510571F6E0
:104D50000895019739F0880F991F880F991F0297BE
:104D60000197F1F70895789484B5826084BD84B585
:104D7000816084BD85B5826085BD85B5816085BD56
:104D8000EEE6F0E0808181608083E1E8F0E010826F
:104D9000808182608083808181608083E0E8F0E0B0
:104DA000808181608083E1EBF0E08081846080839A
:104DB000E0EBF0E0808181608083EAE7F0E08081D1
:104DC0008460808380818260808380818160808331
:104DD0008081806880831092C1000895982F8E3062
:104DE00008F09E509770809161018295880F880F1E
:104DF000807C892B80937C0080917A0080648093F2
:104E00007A0080917A0086FDFCCF20917800409155
:104E10007900942F80E030E0282B392BC9010895C8
:104E2000CF92DF92EF92FF920F931F93CF93DF9376
:104E30007C016B018A01C0E0D0E00FC0D6016D910A
:104E40006D01D701ED91FC910190F081E02DC7013A
:104E50000995C80FD91F015010400115110571F7B0
:104E6000CE01DF91CF911F910F91FF90EF90DF90D6
:104E7000CF900895EF92FF920F931F93CF93DF93FC
:104E80007C018B01C0E0D0E0F8010F5F1F4F6491FF
:104E9000662359F0D701ED91FC910190F081E02D4E
:104EA000C7010995C80FD91FEFCFCE01DF91CF9170
:104EB0001F910F91FF90EF900895DC01ED91FC910F
:104EC0000190F081E02D09950895EF92FF920F93E4
:104ED0001F938C01DC01ED91FC910190F081E02D9C
:104EE0006DE009957C01D801ED91FC910190F08174
:104EF000E02DC8016AE009959C012E0D3F1DC901F6
:104F00001F910F91FF90EF900895EF92FF920F93F2
:104F10001F937C010E943A278C01C7010E946527DC
:104F20009C01200F311FC9011F910F91FF90EF903D
:104F30000895CF93DF93EC016115710519F420E01A
:104F400030E00FC0DB010D900020E9F71197A61BA0
:104F5000B70BE881F9810280F381E02DAD0109955D
:104F60009C01C901DF91CF9108954F925F927F928A
:104F70008F929F92AF92BF92CF92DF92EF92FF9269
:104F80000F931F93DF93CF93CDB7DEB7A1970FB6E3
:104F9000F894DEBF0FBECDBF2C01742ECB012230A2
:104FA00008F42AE019A231E2C32ED12CCC0EDD1E6A
:104FB000822E9924AA24BB24672D752FA501940164
:104FC0000E940E2E79018A01C801B701A501940142
:104FD0000E94DB2D472D461B0894C108D1084A309A
:104FE00014F4405D01C0495CF6014083E114F10412
:104FF0000105110521F07E2C5F2DC801DDCFC20116
:10500000B6010E949927A1960FB6F894DEBF0FBE95
:10501000CDBFCF91DF911F910F91FF90EF90DF9067
:10502000CF90BF90AF909F908F907F905F904F9068
:105030000895DC012115310541F4ED91FC910190B9
:10504000F081E02D642F099508950E94B5270895F9
:10505000CF92DF92EF92FF920F931F936C017B012F
:105060009A0100E010E0B801A7010E9419288C0104
:10507000C6010E946527080F191FC8011F910F91D3
:10508000FF90EF90DF90CF900895EF92FF920F93F3
:105090001F939A01E62EFF2400E010E0B801A7015B
:1050A0000E9419281F910F91FF90EF900895CF92C1
:1050B000DF92EF92FF920F931F93CF93DF93EC0158
:1050C0006A017B012115310541F4E881F9810190E4
:1050D000F081E02D642F09951FC02A303105D1F4ED
:1050E00077FF17C0E881F9810190F081E02D6DE232
:1050F00009958C0144275527BA014C195D096E09A1
:105100007F09CE012AE00E94B5279801280F391F98
:1051100004C02AE00E94B5279C01C901DF91CF910C
:105120001F910F91FF90EF90DF90CF9008950E9414
:10513000992708957F928F929F92AF92BF92CF92BC
:10514000DF92EF92FF920F931F93CF93DF934C0167
:105150007A018B01722ECB01BA01A80197010E943E
:10516000D72D882321F0C40163E271E021C0C0E0A3
:10517000D0E057016801E894D7F8C601B5012FEFD8
:105180003FEF4FE75FE70E94D72D882351F4C60118
:10519000B5012FEF3FEF4FE75FE70E94212C181674
:1051A00014F0C1E0D0E0219739F0C40167E271E06A
:1051B0000E949927EC0193C0C801B7012FEF3FEF80
:1051C0004FE75FE40E94702D181654F0C801B70134
:1051D0002FEF3FEF4FE75FEC0E94212C882324F450
:1051E000C4016BE271E0E4CFC801B70120E030E018
:1051F00040E050E00E94212C87FD03C0C0E0D0E0D9
:105200000EC0D401ED91FC910190F081E02DC4011C
:105210006DE20995EC0117FB109517F9109520E048
:1052200030E040E05FE3DD240BC0CA01B90120E0BB
:1052300030E040E251E40E94252C9B01AC01D39464
:10524000D71498F3C801B7010E94BD2B5B016C0114
:105250000E94922C7B018C01C401B801A7012AE0B5
:1052600030E00E941928C80FD91F772039F0C401F7
:105270006FE271E00E949927C80FD91FC801B701DA
:105280000E94BE2C9B01AC01C601B5010E94BC2B43
:1052900024C020E030E040E251E40E94742D7B0104
:1052A0008C010E948D2C5B016C01CC24B7FCC09456
:1052B000DC2CC401B601A5012AE030E00E94572889
:1052C000C80FD91FC601B5010E94C02C9B01AC01BB
:1052D000C801B7010E94BC2B7A947720D1F6CE0189
:1052E000DF91CF911F910F91FF90EF90DF90CF90C2
:1052F000BF90AF909F908F907F9008950E949A28C2
:105300000895EF92FF920F931F937C010E949927BB
:105310008C01C7010E946527080F191FC8011F9142
:105320000F91FF90EF90089508951F920F920FB67E
:105330000F9211242F933F934F938F939F93EF934B
:10534000FF938091C00082FD1DC04091C600209156
:105350009506309196062F5F3F4F2F7330708091E6
:105360009706909198062817390771F0E0919506F5
:10537000F0919606EB5AF94F4083309396062093AE
:10538000950602C08091C600FF91EF919F918F9189
:105390004F913F912F910F900FBE0F901F90189536
:1053A000E091E906F091EA06E05CFF4F819191916E
:1053B00020813181821B930B8F739070892B11F0A8
:1053C0000E94942908951F920F920FB60F921124F4
:1053D0002F933F938F939F93EF93FF932091D90641
:1053E0003091DA068091DB069091DC0628173907A8
:1053F00031F48091C1008F7D8093C10014C0E09191
:10540000DB06F091DC06E756F94F20818091DB0640
:105410009091DC0601968F7390709093DC068093D8
:10542000DB062093C600FF91EF919F918F913F91F2
:105430002F910F900FBE0F901F901895AF92BF92B3
:10544000DF92EF92FF920F931F93CF93DF93EC01C4
:105450007A018B01DD24403081EE580780E0680737
:1054600080E0780711F0DD24D39491E0A92EB12CCF
:10547000EC89FD89DD2069F0C50108A002C0880F14
:10548000991F0A94E2F7808360E079E08DE390E071
:1054900005C0108260E874E88EE190E0A8019701F1
:1054A0000E940E2E21503040404050405695479566
:1054B0003795279580E12030380720F0DD2011F066
:1054C000DD24D6CFE889F9893083EA89FB892083F6
:1054D00019A2EE89FF89408121E030E0C9010C8CDE
:1054E00002C0880F991F0A94E2F7482B4083EE8987
:1054F000FF894081C9010D8C02C0880F991F0A9451
:10550000E2F7482B4083EE89FF894081C9010E8C68
:1055100002C0880F991F0A94E2F7482B4083EE8956
:10552000FF8980810F8C02C0220F331F0A94E2F79B
:10553000209528232083DF91CF911F910F91FF9019
:10554000EF90DF90BF90AF900895DC011C96ED9135
:10555000FC911D97E05CFF4F2191319180819181F9
:10556000281B390B2F733070C9010895DC011C967C
:10557000ED91FC911D97E05CFF4F20813181E0545B
:10558000F040DF01AE5BBF4F8D919C9111972817C2
:10559000390719F42FEF3FEF07C08D919C91E80F69
:1055A000F91F8081282F30E0C9010895DC011C9685
:1055B000ED91FC911D97E05CFF4F20813181E0541B
:1055C000F040DF01AE5BBF4F8D919C911197281782
:1055D000390719F42FEF3FEF10C08D919C9111976F
:1055E000E80FF91F20818D919C91119701968F737F
:1055F000907011969C938E9330E0C9010895DC0160
:1056000091968C919197882339F05496ED91FC9165
:105610005597808186FFF9CF91961C920895CF937C
:10562000DF93EC01EE85FF85E05CFF4F2081318147
:10563000E054F0402F5F3F4F2F733070DF01AE5BBF
:10564000BF4F8D919C91119728173907D1F3E05CDA
:10565000FF4F80819181E054F040E80FF91F608393
:10566000EE85FF85E05CFF4F31832083EE89FF8963
:10567000208181E090E00F8C02C0880F991F0A946E
:10568000E2F7282B208381E089A3EC89FD898081C2
:105690008064808381E090E0DF91CF910895109243
:1056A000E0061092DF0688EE93E0A0E0B0E0809381
:1056B000E1069093E206A093E306B093E4068AE93C
:1056C00091E09093DE068093DD0685E596E0909369
:1056D000EA068093E90689E996E09093EC068093C8
:1056E000EB0685EC90E09093EE068093ED0684EC5B
:1056F00090E09093F0068093EF0680EC90E090931A
:10570000F2068093F10681EC90E09093F40680938A
:10571000F30682EC90E09093F6068093F50686EC13
:1057200090E09093F8068093F70684E08093F90662
:1057300083E08093FA0687E08093FB0685E0809300
:10574000FC0681E08093FD060895009729F0BC01D6
:1057500080E090E00E9437030895CF93DF930E948A
:10576000B3260E94600AC0EDD9E20E94610820972A
:10577000E1F30E94D029F9CF5058BB27AA270ED0B9
:1057800075C166D130F06BD120F031F49F3F11F438
:105790001EF45BC10EF4E095E7FB51C1E92F77D110
:1057A00080F3BA17620773078407950718F071F43E
:1057B0009EF58FC10EF4E0950B2EBA2FA02D0B0194
:1057C000B90190010C01CA01A0011124FF27591B46
:1057D00099F0593F50F4503E68F11A16F040A22F4C
:1057E000232F342F4427585FF3CF469537952795BD
:1057F000A795F0405395C9F77EF41F16BA0B620BBC
:10580000730B840BBAF09150A1F0FF0FBB1F661F02
:10581000771F881FC2F70EC0BA0F621F731F841F45
:1058200048F4879577956795B795F7959E3F08F06B
:10583000B3CF9395880F08F09927EE0F979587952A
:105840000895D9D008F481E008950CD00FC107D194
:1058500040F0FED030F021F45F3F19F0F0C051115C
:1058600039C1F3C014D198F39923C9F35523B1F387
:10587000951B550BBB27AA2762177307840738F0BF
:105880009F5F5F4F220F331F441FAA1FA9F333D01E
:105890000E2E3AF0E0E830D091505040E695001CD2
:1058A000CAF729D0FE2F27D0660F771F881FBB1F8E
:1058B000261737074807AB07B0E809F0BB0B802D68
:1058C000BF01FF2793585F4F2AF09E3F510568F0B4
:1058D000B6C000C15F3FECF3983EDCF38695779548
:1058E0006795B795F7959F5FC9F7880F911D9695B6
:1058F000879597F90895E1E0660F771F881FBB1F12
:10590000621773078407BA0720F0621B730B840BBE
:10591000BA0BEE1F88F7E095089504D06894B11192
:10592000D9C00895BCD088F09F5790F0B92F99271F
:10593000B751A0F0D1F0660F771F881F991F1AF09A
:10594000BA95C9F712C0B13081F0C3D0B1E0089563
:10595000C0C0672F782F8827B85F39F0B93FCCF3E4
:10596000869577956795B395D9F73EF49095809590
:10597000709561957F4F8F4F9F4F0895E89409C0B0
:1059800097FB3EF490958095709561957F4F8F4F72
:105990009F4F9923A9F0F92F96E9BB279395F69588
:1059A000879577956795B795F111F8CFFAF4BB0F06
:1059B00011F460FF1BC06F5F7F4F8F4F9F4F16C06A
:1059C000882311F096E911C0772321F09EE8872FF4
:1059D000762F05C0662371F096E8862F70E060E0B0
:1059E0002AF09A95660F771F881FDAF7880F969529
:1059F000879597F90895990F0008550FAA0BE0E8CD
:105A0000FEEF16161706E807F907C0F01216130680
:105A1000E407F50798F0621B730B840B950B39F4C0
:105A20000A2661F0232B242B252B21F408950A2626
:105A300009F4A140A6958FEF811D811D089597F966
:105A40009F6780E870E060E008959FEF80EC089524
:105A500000240A941616170618060906089500244D
:105A60000A9412161306140605060895092E0394C7
:105A7000000C11F4882352F0BB0F40F4BF2B11F43B
:105A800060FF04C06F5F7F4F8F4F9F4F089557FD9A
:105A90009058440F551F59F05F3F71F04795880F9C
:105AA00097FB991F61F09F3F79F087950895121633
:105AB00013061406551FF2CF4695F1DF08C01616DF
:105AC00017061806991FF1CF869571056105089490
:105AD0000895E894BB2766277727CB0197F90895A7
