:100000000C94BE020C94F9020C94F9020C94F902BF
:100010000C94F9020C94F9020C94F9020C94F90274
:100020000C94F9020C94F9020C94F9020C94F90264
:100030000C94F9020C94F9020C94F9020C94F90254
:100040000C94B4250C94F9020C94B1270C94FF275E
:100050000C94F9020C94F9020C94F9020C94F90234
:100060000C946C0C0C94F9026170692E636F736DC3
:100070002E636F6D005F7230006F686D73005F728A
:100080006177006F686D7300250048756D6964695C
:1000900074790064656720430054656D7065726112
:1000A00074757265003E3E3E20524553504F4E538C
:1000B00045205245434549564544202D2D2D0025C8
:1000C00030325800446174612073656E7420666F2D
:1000D00072200053656E64696E67206461746120EC
:1000E000746F20436F736D005055542068747470A2
:1000F0003A2F2F24462F76322F66656564732F249E
:10010000452E6A736F6E20485454502F312E300D97
:100110000A486F73743A2024460D0A582D417069BD
:100120004B65793A2024450D0A436F6E74656E74F1
:100130002D4C656E6774683A2024440D0A0D0A241C
:100140004800507265706172696E672073746173E4
:100150006800227D7D5D7D00222C2273796D626FA7
:100160006C223A2200225D2C22756E6974223A7B41
:10017000226C6162656C223A2200636F6D70757447
:1001800065640072300072617700222C2261716513
:100190003A646174615F6F726967696E3D00222C19
:1001A000226171653A6669726D776172655F766525
:1001B0007273696F6E3D00222C226171653A73651E
:1001C0006E736F725F696E6465783D00222C2261E8
:1001D00071653A73656E736F725F616464726573A3
:1001E000733D005F7230005F72617700222C2274D1
:1001F000616773223A5B226171653A73656E736F52
:10020000725F747970653D00222C2263757272658D
:100210006E745F76616C7565223A22007B226461A0
:10022000746173747265616D73223A5B7B226964D9
:10023000223A2022005352563A2000444E53206C5A
:100240006F6F6B7570207375636365656465642E8D
:100250000046616C6C696E67206261636B20746F2D
:1002600020586976656C79205374617469632049FC
:100270005000444E53206661696C656400444E53DF
:100280003A200047573A200049503A20004448435A
:1002900050206661696C6564207265736574746969
:1002A0006E67004661696C656420746F20616363EA
:1002B0006573732045746865726E657420636F6E34
:1002C00074726F6C6C657200456767205365726964
:1002D000616C20233A2020003A003000546F6F20D8
:1002E0004C6F6E672053696E6365204C6173742098
:1002F000526573706F6E73652046726F6D20436F29
:10030000736D2C20526573657474696E670020509C
:100310006F737465642053656E736F7220446174EB
:1003200061002E2E2E20496E636F6E6365697661C3
:10033000626C6521005472616E736D697420537430
:10034000617465203D200054696D6520666F7220E0
:100350006F757220726567756C61726C792073635A
:10036000686564756C65642052657374617274218C
:10037000002053656E7420456767204275732043E3
:10038000616C63756C61746564203A3A2000205397
:10039000656E742045676720427573205230203A9D
:1003A0003A20002053656E742045676720427573BC
:1003B00020526177203A3A20002053656E7420481D
:1003C000756D6964697479002053656E7420546595
:1003D0006D7065726174757265004B69636B696EEF
:1003E00067206F6666207472616E736D6974206336
:1003F00079636C6500536F6D657468696E67206919
:10040000732074616B696E67206C6F6E6765722014
:100410007468616E2065787065637465642C205221
:100420006573657474696E67000A5B416972205177
:1004300075616C69747920456767202D204261736E
:10044000652053656E736F72202D2076322E303307
:100450005D00000108000604000145000082000064
:1004600040002000504F53542024462048545450FC
:100470002F312E300D0A486F73743A2024460D0A2E
:10048000244624534163636570743A202A2F2A0D51
:100490000A436F6E74656E742D4C656E6774683AAE
:1004A0002024440D0A436F6E74656E742D54797068
:1004B000653A206170706C69636174696F6E2F7842
:1004C0002D7777772D666F726D2D75726C656E6303
:1004D0006F6465640D0A0D0A2453004745542024B7
:1004E00046245320485454502F312E300D0A486F63
:1004F00073743A2024460D0A24460D0A0D0A004161
:1005000063636570743A20746578742F68746D6CD9
:1005100000E30004FA0001000000010000000024D4
:100520000027002A0000000000250028002B000002
:10053000000000230026002900040404040404042D
:100540000402020202020203030303030301020482
:100550000810204080010204081020010204081045
:100560002000000007000201000003040600000054
:100570000000000000005504080B6B29E0E0F7E0E4
:1005800085EC98E001C08193EF3FF907E0F3D9F3E0
:1005900011241FBECFEFD8E0DEBFCDBF14BE88E16F
:1005A0000FB6F89480936000109260000FBE11E0C7
:1005B000A0E0B1E0E4E5FEE502C005900D92A03AAE
:1005C000B107D9F717E0A0EAB1E001C01D92A03051
:1005D000B107E1F715E0CCE7D5E004C02297FE01B2
:1005E0000E94ED2EC637D107C9F70E94C1290C948D
:1005F000282F0C940000A0E0B0E0E1E0F3E00C94C0
:10060000F92EEC01A880B980CA80DB80A114B10466
:10061000C104D10441F484E2A82E89EDB82E8BE503
:10062000C82E87E0D82EC601B5012DE133EF41E099
:1006300050E00E94D02E27EA31E440E050E00E94D2
:100640007B2E7B018C01C601B5012DE133EF41E02A
:1006500050E00E94D02ECA01B9012CEE34EF4FEFCA
:100660005FEF0E947B2E6E0D7F1D801F911F97FFF5
:1006700004C06150704080409048688379838A83C9
:100680009B839B01AC015F77B901CA01CDB7DEB78F
:10069000EAE00C94152F0E94FB02089581E391E09B
:1006A0000E94FB02089560933101709332018093A0
:1006B0003301909334010895FB01DC0102C00590E1
:1006C0000D9241505040D8F70895FB01DC010D9088
:1006D0000020E9F7119705900D920020E1F70895A9
:1006E000FB01DC0105900D920020E1F70895FC016B
:1006F00005900020E9F7809590958E0F9F1F089533
:10070000FB0155915523A9F0BF01DC014D9145171F
:100710004111E1F759F4CD010590002049F04D91C8
:1007200040154111C9F3FB014111EFCF81E090E089
:1007300001970895FB01DC0104C08D91019080199F
:1007400021F441505040C8F7881B990B0895FB01D4
:10075000DC010D900020E9F7119701900D92002027
:10076000E1F70895FB01DC0101900D920020E1F713
:100770000895FB01DC014150504048F001900D927A
:100780000020C9F701C01D9241505040E0F7089584
:10079000FB019F01E8944230C4F04532B4F44A3082
:1007A00029F497FB1EF4909581959F4F642F77272E
:1007B0000E949A2E805D8A330CF0895D8193CB0173
:1007C0000097A1F716F45DE251931082C9010C94D1
:1007D000E903DC01FC01672F71917723E1F7329780
:1007E00004C07C916D9370836291AE17BF07C8F30C
:1007F00008950F931F93CF93DF938B01BC01E80102
:1008000020E030E0A42FB0E01BC0FB018081E82F86
:10081000F0E094E0F595E7959A95E1F7EC59FE4FF5
:1008200080818883FB018191BF01E82FF0E0EF70A8
:10083000F070EC59FE4F808189832F5F3F4F2296E5
:100840002A173B0714F3AA0FBB1FA00FB11F1C925E
:10085000DF91CF911F910F910895DF92EF92FF9258
:100860000F931F93CF93DF937C01D42E8B01C0E0B5
:10087000D0E0C7018C0F9D1FB80141E00E94F90331
:10088000C53019F4F801128202C0F801D282219613
:100890000D5F1F4FC630D10561F7DF91CF911F91DA
:1008A0000F91FF90EF90DF90089581EA91E064E668
:1008B00074E00E94BF1382EA91E00E94F712109246
:1008C00025041092240480E691E090932304809301
:1008D000220410922904109227048BE294E061E133
:1008E00046E10E942E2408950E94E71B81E090E0DB
:1008F000089580E1E8E3F4E0DF01982F1D929A95D6
:10090000E9F7E8E4F4E0DF011D928A95E9F786E073
:10091000E8E5F4E0DF011D928A95E9F780E090E0D8
:10092000A0E0B0E080935E0490935F04A093600425
:10093000B0936104109262041092630408951F93AF
:10094000182F0E94790482EA91E06091A0010E9430
:100950007212BC0188E394E00E94B20382EA91E043
:100960000E94A212A8E5B4E0FC0186E001900D927D
:100970008150E1F78091A0018093620482EA91E0C6
:100980000E948412809363041123A9F488E494E004
:1009900063E870E00E94700388E394E06EE770E023
:1009A0000E94650382EA91E06091A0010E94B00F6D
:1009B0000E94322D14C01230A9F488E494E069E753
:1009C00070E00E94700388E394E065E770E00E94A5
:1009D000650382EA91E06091A0010E9428100E94C4
:1009E0005E2D11C082EA91E06091A0010E94601228
:1009F000BC0188E494E00E94B20382EA91E0609135
:100A0000A0010E94061160935E0470935F048093BE
:100A10006004909361041F9108950E94FC256093E7
:100A20001E0470931F048093200490932104089562
:100A30000E94FC25E0E020911E0430911F044091AB
:100A4000200450912104621B730B840B950B615C95
:100A500077428940904008F0E1E08E2F0895809120
:100A60006A040E94281F892B11F480E008958EEDFE
:100A700096E065EA70E00E94452A0E940D0581E03B
:100A800008956F927F928F929F92AF92BF92CF9272
:100A9000DF92EF92FF920F931F93DF93CF93CDB727
:100AA000DEB7CA54D0400FB6F894DEBF0FBECDBF3C
:100AB00082E294E00E94381E682E70E4772E6BE08C
:100AC000A62EB12CAC0EBD1ED501E72D1D92EA95C8
:100AD000E9F753E0C52ED12CCC0EDD1E88E0D601FF
:100AE0001D928A95E9F780910001909101019A8306
:100AF000898348E3842E44E0942EF4010190002081
:100B0000E9F78F010150104008191909C501B40116
:100B10000E94A703C5017E010894E11CF11CB701E6
:100B20000E94A7030F5F1F4F0A0D1B1D88E594E06D
:100B3000B8014DE20E942D04C501B7010E94A70330
:100B40008091620490E0B6014AE050E00E94C80340
:100B5000C501B6010E94A70382E294E06CE172E055
:100B60000E94FA2982E294E0B5010E94572B82E2AA
:100B700094E068E072E00E94FA2940915E0450918E
:100B80005F04609160047091610482E294E028E067
:100B900030E00E943E2C82E294E06CEE71E00E9414
:100BA000FA29C40167EE71E00E948003892BB9F035
:100BB000D5011D927A94E9F7F40101900020E9F73C
:100BC000ED53F440C501B401AF010E94B90382E2C4
:100BD00094E0B5010E94572BCC24C39425C0C401D6
:100BE00063EE71E00E948003892BC1F0F501119240
:100BF0007A94E9F7F40101900020E9F7EC53F4400E
:100C0000C501B401AF010E94B90382E294E0B501CD
:100C10000E94572BCC24EE24E39407C082E294E098
:100C2000B4010E94572BCC24EE2482E294E06CECB9
:100C300071E00E94FA298E01055F1F4F80E4D80100
:100C40001D928A95E9F788E594E0B8014AE30E948D
:100C50002D0482E294E0B8010E94572B82E294E0D6
:100C600067EB71E00E94FA2982E294E060916204ED
:100C70004AE050E00E94052B82E294E06EE971E0C8
:100C80000E94FA2982E294E0609163044AE050E015
:100C90000E94052B82E294E06AE871E00E94FA2942
:100CA000CC2029F082E294E066E871E00BC0EE20EF
:100CB00029F082E294E063E871E004C082E294E00B
:100CC0006AE771E00E94FA2982E294E065E671E049
:100CD0000E94FA2982E294E068E474E00E94572BB3
:100CE00082E294E068E571E00E94FA2982E294E0F1
:100CF00068E474E00E94572B82E294E062E571E0C0
:100D00000E94FA2982E294E00E94111C8EED96E086
:100D100062E471E00E94452A82E294E00E94581B3E
:100D2000EDB7FEB73E970FB6F894FEBF0FBEEDBF0E
:100D3000319628EE30E0ADB7BEB712963C932E93B5
:100D4000119748E650E05383428322E330E0358335
:100D500024835783468321E030E0318720879387BF
:100D60008287648615860E949A1CEDB7FEB73E9670
:100D70000FB6F894FEBF0FBEEDBF8EED96E063EDAB
:100D800070E00E94452A0E94081F80936A048EED3D
:100D900096E064EC70E00E94FA298EED96E068E33C
:100DA00074E00E94412CC65BDF4F0FB6F894DEBFA3
:100DB0000FBECDBFCF91DF911F910F91FF90EF90AC
:100DC000DF90CF90BF90AF909F908F907F906F906B
:100DD0000895EF92FF920F931F938BE294E060E0EF
:100DE0000E9442257B018C019701A8010E94772E69
:100DF0008823B9F064EC79E080E090E00E940A2654
:100E00008BE294E060E00E9442257B018C01970117
:100E1000A8010E94772E882321F0EE24FF2400E809
:100E20001FEBB701C8011F910F91FF90EF9008953C
:100E30000E94790488E394E069E970E00E947003FD
:100E400088E494E063E970E00E947003A8E5B4E0F0
:100E5000E4E6F4E086E001900D928150E1F70E9413
:100E6000E90660935E0470935F048093600490933E
:100E7000610481E08093620482E2809363040895B8
:100E8000EF92FF920F931F938BE294E00E94EB246A
:100E90007B018C019701A8010E94772E8823B1F075
:100EA00064EC79E080E090E00E940A268BE294E016
:100EB0000E94EB247B018C019701A8010E94772EF0
:100EC000882321F0EE24FF2400E81FEBB701C801BE
:100ED0001F910F91FF90EF9008950E94790488E38D
:100EE00094E06AE870E00E94700388E494E068E8A7
:100EF00070E00E947003A8E5B4E0E4E6F4E086E068
:100F000001900D928150E1F70E94400760935E04CA
:100F100070935F0480936004909361041092620464
:100F200082E28093630408950E94C6180E940621FD
:100F300008951F93CF93DF93EC0110E088818A30EE
:100F400030F48EED96E06AED72E00E94FA298EEDA3
:100F500096E0688140E150E00E94052B153031F0A9
:100F60008EED96E068ED72E00E94FA291F5F2196EF
:100F7000163021F78EED96E00E94252ADF91CF9161
:100F80001F910895FF920F931F93CF93DF93E6EC89
:100F9000F1E082E1DF011D928A95E9F78F01C0E05F
:100FA000D0E0EAE3FE2ECE018C599B4FB80141E020
:100FB0000E94F903C53019F4F801128203C0D80168
:100FC0001296FC9221960D5F1F4FC630D10559F73E
:100FD0008EED96E00E94252A8EED96E068EC72E098
:100FE0000E94FA298EED96E066EC71E00E94412C99
:100FF0008EED96E00E94252A88E592E064E674E092
:1010000048E00E94C81A882331F48EED96E063EA26
:1010100072E00E94452A0E947816882391F48EED92
:1010200096E06DE872E00E94452A28E088E190E0B1
:101030000FB6F894A895809360000FBE20936000CF
:10104000FFCF8EED96E068E872E00E94FA2980EF0B
:1010500095E00E94E7238EED96E00E94252A8EED12
:1010600096E063E872E00E94FA298CEF95E00E9416
:10107000E7238EED96E00E94252A8EED96E06DE73F
:1010800072E00E94FA2984E096E00E94E7238EED48
:1010900096E00E94252A8EED96E062E071E00E94C3
:1010A000572B0E941C24BC018EED96E04AE050E0D4
:1010B0000E94E82A88E690E060E00E94AF1688234C
:1010C000C9F48EED96E062E772E00E94452A8EED4B
:1010D00096E061E572E00E94452A8DEA8093080659
:1010E0008BEC8093090682E680930A068DE180935B
:1010F0000B0606C08EED96E06BE372E00E94452A77
:101100008EED96E065E372E00E94FA2988E096E0B1
:101110000E94E7238EED96E00E94252A0E9438184F
:10112000DF91CF911F910F91FF900895CF92DF92A1
:10113000EF92FF921F930E94FC256B017C010E949D
:1011400094078091B9019091BA01A091BB01B0912F
:10115000BC01A7019601281B390B4A0B5B0B809140
:10116000350190913601A0913701B0913801821775
:101170009307A407B507B8F5809142018430E1F0E8
:101180008EED96E065EF73E00E94452A8EED96E0C5
:101190000E941B2968EE73E080E090E00E940A261E
:1011A00028E088E190E00FB6F894A895809360005D
:1011B0000FBE20936000FFCF8EED96E06AED73E0E6
:1011C0000E94452AC092B901D092BA01E092BB01B7
:1011D000F092BC011092C50181E08093420182EA45
:1011E00091E00E941B0E8091C1019091C201A091DB
:1011F000C301B091C401A7019601281B390B4A0B0A
:101200005B0B80913D0190913E01A0913F01B09117
:10121000400182179307A407B50740F4C092C101AB
:10122000D092C201E092C301F092C4018091C50145
:10123000882309F002C110914201123011F11330DC
:1012400020F4113009F0E5C006C01330E9F1143084
:1012500009F0DFC0BDC00E9418071093C5010E94AD
:10126000FC25AB01BC018EED96E02AE030E00E9447
:10127000D92A8EED96E068EC73E00E94452A82E060
:1012800020C00E946D0781E08093C5011092A001EB
:101290000E94FC25AB01BC018EED96E02AE030E017
:1012A0000E94D92A8EED96E069EB73E00E94452AF0
:1012B00082EA91E00E94B212882311F083E001C01B
:1012C00084E080934201B9C01091A00182EA91E0CC
:1012D0000E949312181708F06CC08091B8018823FF
:1012E000F9F40E949F040E94FC25AB01BC018EED25
:1012F00096E02AE030E00E94D92A8EED96E063EA7B
:1013000073E00E94FA2982EA91E06091A0010E94B4
:101310007212BC018EED96E00E94412C82E020C04A
:10132000823009F50E949F040E94FC25AB01BC019C
:101330008EED96E02AE030E00E94D92A8EED96E00C
:101340006EE873E00E94FA2982EA91E06091A001C0
:101350000E947212BC018EED96E00E94412C81E049
:101360008093B8012EC081E00E949F040E94FC255A
:10137000AB01BC018EED96E02AE030E00E94D92A54
:101380008EED96E061E773E00E94FA2982EA91E02F
:101390006091A0010E947212BC018EED96E00E9445
:1013A000412C1092B8018091A0018F5F8093A00121
:1013B00008C082EA91E00E94B212882331F01092B4
:1013C000A00181E08093C50138C01092C50178CF9B
:1013D00081ECC81687E2D80689E0E80680E0F806C6
:1013E00060F18EED96E067E473E00E94452A68EEB6
:1013F00073E080E090E00E940A2628E088E190E017
:101400000FB6F894A895809360000FBE20936000FB
:10141000FFCF8EED96E065E373E00E94FA298EED32
:1014200096E0609142014AE050E00E94052B8EED6B
:1014300096E062E273E00E94452A80914101882390
:1014400031F58091BD019091BE01A091BF01B09195
:10145000C001A7019601281B390B4A0B5B0B809139
:10146000390190913A01A0913B01B0913C01821762
:101470009307A407B50758F481E080934101C09217
:10148000BD01D092BE01E092BF01F092C0018091F7
:101490004101882331F18091C501882311F10E9417
:1014A00041050E94FC25AB01BC018EED96E02AE0CF
:1014B00030E00E94D92A8EED96E06EE073E00E9443
:1014C000452A8EED96E00E94252A1092C5011092C1
:1014D0004101C092BD01D092BE01E092BF01F092E5
:1014E000C0010E9418058823C1F08EED96E06CEDD6
:1014F00072E00E94452A68EE73E080E090E00E946E
:101500000A2628E088E190E00FB6F894A895809329
:1015100060000FBE20936000FFCF0E942F051F9137
:10152000FF90EF90DF90CF9008950F931F9380E08E
:101530000E94A8260E94542C0EED16E0C80140E03F
:1015400052EC61E070E00E943A28C80169E274E060
:101550000E94452AC8016AE071E00E94572B84E688
:1015600094E00E94990783E996E1AFE3B4E08093A9
:10157000B9019093BA01A093BB01B093BC010E9442
:10158000C2071F910F91089581E08093B00460938A
:101590008D041092AE041092AF04089581E0809300
:1015A000B00460938D041092AE041092AF040895BD
:1015B00020918C0430E080918B04281B3109C901F3
:1015C000089540918B0480918C04481718F02FEFF8
:1015D0003FEF0AC0E42FF0E0E559FB4F8081282F50
:1015E00030E04F5F40938B04C9010895E0918B0474
:1015F00080918C04E81718F0EFEFFFEF06C0F0E0E1
:10160000E559FB4F8081E82FF0E0CF010895089560
:101610001092B4041092B30488EE93E0A0E0B0E01E
:101620008093B5049093B604A093B704B093B80424
:1016300088E791E09093B2048093B1040895CF922B
:10164000DF92EF92FF920F931F93CF93DF937C0172
:101650006B018A018091B0048823A1F0C0E0D0E042
:101660000DC0D701ED91FC91D601AC0FBD1F0190CB
:10167000F081E02DC7016C9109952196C017D10723
:1016800080F304C0CB01642F0E94510CC801DF918C
:10169000CF911F910F91FF90EF90DF90CF90089521
:1016A000DF93CF930F92CDB7DEB7FC0169838091B2
:1016B000B0048823C9F08091AF04803238F081E013
:1016C00090E09383828320E030E015C08091AE04E7
:1016D000E82FF0E0E257FB4F998190838F5F809372
:1016E000AE048093AF0405C0CE01019661E00E9474
:1016F000510C21E030E0C9010F90CF91DF910895A6
:101700000F93062F80918D046EE874E04091AF0432
:1017100021E00E94FC0B1092AE041092AF041092D4
:10172000B0040F91089561E00E94800B089541324A
:1017300008F040E2862F6BE674E00E94B30B109233
:101740008B0480938C04089521E00E94970B0895E8
:1017500010928B0410928C041092AE041092AF047D
:101760000E94FD0D0895382F413210F040E042C034
:101770008091BD048823E1F791E09093BD0420930C
:10178000BF048FEF80932A051092E50441504093E7
:10179000E6044F5F9093BE048091BE04330F832B09
:1017A0008093BE048091C004813041F41092C00443
:1017B0008091BE048093BB0085EC01C085EE8093D0
:1017C000BC008091BD048130E1F38091E504841771
:1017D00010F44091E50420E030E00AC0FB01E20F84
:1017E000F31FD901AB53BB4F8C9180832F5F3F4FC9
:1017F0002417A0F3842F08950F931F93582F122FAF
:10180000413210F081E04AC08091BD048823E1F7A5
:1018100082E08093BD040093BF048FEF80932A057C
:101820001092E5044093E604A5ECB4E0FB0102C08D
:1018300081918D938E2F861B8417D0F31092BE0456
:101840008091BE04550F852B8093BE048091C00407
:10185000813041F41092C0048091BE048093BB009B
:1018600085EC01C085EE8093BC00112321F08091AE
:10187000BD048230E1F380912A058F3F11F480E0AE
:101880000DC080912A05803211F482E007C080915A
:101890002A05803311F084E001C083E01F910F918D
:1018A0000895482F613210F081E008958091BD04C1
:1018B000843011F082E0089560930805A7EEB4E04B
:1018C000842F9C01F90102C081918D938E2F841B7E
:1018D0008617D0F380E008951F920F920FB60F92F3
:1018E00011242F933F934F935F936F937F938F9325
:1018F0009F93AF93BF93EF93FF938091B90090E0D4
:10190000887F90708036910509F4F2C08136910588
:10191000CCF58832910509F47BC089329105B4F485
:101920008031910509F46FC0813191053CF4009735
:1019300009F447C1089709F04FC165C08831910586
:1019400009F466C0809709F047C182C080349105D0
:1019500009F4A4C08134910544F48033910509F45D
:1019600082C0C89709F038C189C08035910509F453
:1019700089C08835910509F496C08834910509F02D
:101980002BC1AEC08839910509F413C1893991057D
:10199000ECF48837910509F4ABC0893791054CF414
:1019A0008836910509F4A4C08037910509F014C167
:1019B0009FC08838910509F4FCC08039910509F46D
:1019C0009DC08038910509F007C198C0803B910502
:1019D00009F4C6C0813B91054CF4803A910509F4A5
:1019E0009FC0883A910509F0F7C0BAC0803C9105C4
:1019F00009F4E3C0883C910509F4DFC0883B9105F8
:101A000009F0EAC0C2C08091BE048093BB00CFC081
:101A10009091E5048091E604981768F49091E504AC
:101A2000E92FF0E0EB53FB4F80818093BB009F5F79
:101A30009093E504BCC08091BF04882309F44BC097
:101A400085ED8093BC008091BC0084FDFCCFC2C0BA
:101A500080E280932A0585ED8093BC008091BC00D4
:101A600084FDFCCFB7C080E380932A0585ED809389
:101A7000BC008091BC0084FDFCCFACC088E38093A7
:101A80002A059BC08091E5049091BB00E82FF0E00F
:101A9000EB53FB4F90838F5F8093E5049091E504B7
:101AA0008091E60482C08091E5049091BB00E82F0C
:101AB000F0E0EB53FB4F90838F5F8093E5048091C0
:101AC000BF04882341F085ED8093BC008091BC0069
:101AD00084FDFCCF7FC081E08093C00484EA6EC0A7
:101AE00085ED8093BC008091BC0084FDFCCF72C06A
:101AF00083E08093BD041092290559C08091290587
:101B0000803208F056C0809129059091BB00E82FE3
:101B1000F0E0E75FFA4F90838F5F8093290547C01D
:101B200080912905803230F4E0912905F0E0E75FEB
:101B3000FA4F108285ED8093BC008091BC0084FD3B
:101B4000FCCF1092BD0460912905E091C304F0918F
:101B5000C40489E095E070E00995109229052DC034
:101B600084E08093BD041092070510920805E0916F
:101B7000C104F091C204099580910805882329F4D5
:101B800081E0809308051092E70490910705E92F02
:101B9000F0E0E951FB4F80818093BB009F5F909301
:101BA00007059091070580910805981710F485ECBA
:101BB00001C085E88093BC000FC085EC8093BC0019
:101BC00009C010922A0585ED8093BC008091BC006D
:101BD00084FDFCCF1092BD04FF91EF91BF91AF91B6
:101BE0009F918F917F916F915F914F913F912F9135
:101BF0000F900FBE0F901F9018951092BD0481E0BA
:101C00008093BF041092C00482E161E00E94092722
:101C100083E161E00E940927E9EBF0E080818E7F9B
:101C2000808380818D7F808388E48093B80085E401
:101C30008093BC000895FC011082118208951F93C7
:101C4000613011F414E005C0623011F415E001C0F8
:101C500010E081EB94E060E770E00E94CE0A81EB37
:101C600094E0612F0E94500B81EB94E00E94930B53
:101C70001F9108951F93CF93DF93EA0181EB94E0C6
:101C8000422F0E94A40B10E009C081EB94E00E9457
:101C9000E10AFE01E10FF11D80831F5F81EB94E0FB
:101CA0000E94D80A892B89F7DF91CF911F9108955F
:101CB000EF92FF920F931F937A0101EB14E0C8019A
:101CC0000E94C40AC80161E10E94500BC8016F2D37
:101CD0000E94500BC8016E2D0E94500BC8010E943B
:101CE000930B1F910F91FF90EF900895EF92FF9249
:101CF0000F931F938C01F62EE22E0E94580E61E086
:101D000070E080E090E00E940A26C8016F2D0E5F0F
:101D10001F4FA8012E2D0E943A0E61E070E080E076
:101D200090E00E940A261F910F91FF90EF90089576
:101D30006F927F928F929F92AF92BF92CF92DF92DB
:101D4000EF92FF920F931F935C014A013901562FC6
:101D500040E0445B5F4FD50111966C9124E10E94F5
:101D6000760EF501828190E0A0E0B0E0BA2FA92FB5
:101D7000982F8827238130E040E050E0282B392B32
:101D80004A2B5B2B542F432F322F2227848190E044
:101D9000A0E0B0E0282B392B4A2B5B2B542F432F8C
:101DA000322F2227858190E0A0E0B0E0282B392B4C
:101DB0004A2B5B2BD4012D933D934D935C9313974A
:101DC0003696D50116968C9190E0A0E0B0E0BA2F3F
:101DD000A92F982F8827218130E040E050E0282B60
:101DE000392B4A2B5B2B542F432F322F22278281F2
:101DF00090E0A0E0B0E0282B392B4A2B5B2B542F2E
:101E0000432F322F2227838190E0A0E0B0E0282BDF
:101E1000392B4A2B5B2BF30120833183428353837D
:101E2000F5013A96D5011A968C9190E0A0E0B0E0C9
:101E3000BA2FA92F982F8827218130E040E050E069
:101E4000282B392B4A2B5B2B542F432F322F222741
:101E5000828190E0A0E0B0E0282B392B4A2B5B2B4D
:101E6000542F432F322F2227838190E0A0E0B0E04F
:101E7000282B392B4A2B5B2BF8012083318342839B
:101E80005383F5013E96D5011E968C9190E0A0E01B
:101E9000B0E0BA2FA92F982F8827218130E040E0A9
:101EA00050E0282B392B4A2B5B2B542F432F322FFA
:101EB0002227828190E0A0E0B0E0282B392B4A2B2A
:101EC0005B2B542F432F322F2227838190E0A0E0F9
:101ED000B0E0282B392B4A2B5B2BF7012083318371
:101EE00042835383F5017296D50152968C9190E00E
:101EF000A0E0B0E0BA2FA92F982F8827218130E0E9
:101F000040E050E0282B392B4A2B5B2B542F432FDA
:101F1000322F2227828190E0A0E0B0E0282B392BDD
:101F20004A2B5B2B542F432F322F2227838190E0A3
:101F3000A0E0B0E0282B392B4A2B5B2BF601208345
:101F40003183428353831F910F91FF90EF90DF9075
:101F5000CF90BF90AF909F908F907F906F9008959B
:101F6000AF92BF92CF92DF92EF92FF920F931F93A7
:101F7000DF93CF93CDB7DEB764970FB6F894DEBF8B
:101F80000FBECDBFAE014F5F5F4F9E012B5F3F4F36
:101F90008E01075F1F4FEDE0EE2EF12CEC0EFD1EC3
:101FA00071E1C72ED12CCC0EDD1E0E94980E6981E6
:101FB0007A818B819C810E945E2D7B018C016989D5
:101FC0007A898B899C890E945E2D9B01AC01C80196
:101FD000B7010E94C52C7B018C016D857E858F85A4
:101FE00098890E945E2D9B01AC01C801B7010E9437
:101FF000142E5B016C0169857A858B859C850E9416
:102000005E2DA60195010E945C2C7B018C016D81E7
:102010007E818F8198850E945E2D9B01AC01C80155
:10202000B7010E94142EA60195010E94C52C64964A
:102030000FB6F894DEBF0FBECDBFCF91DF911F91D9
:102040000F91FF90EF90DF90CF90BF90AF900895E9
:102050000F931F938C01562F40E0405C5F4FF801B7
:10206000618124E00E94760EF801828190E0A0E078
:10207000B0E0BA2FA92F982F8827238130E040E0C5
:1020800050E0282B392B4A2B5B2B542F432F322F18
:102090002227848190E0A0E0B0E0282B392B4A2B46
:1020A0005B2B542F432F322F2227858190E0A0E015
:1020B000B0E0282B392B4A2B5B2BB901CA011F91A9
:1020C0000F910895EF92FF920F931F93CF93DF9399
:1020D000EC01E62F7901F0E055E0EE0FFF1F5A9575
:1020E000E1F7E40FF11D3B9633E0EE0FFF1F3A9549
:1020F000E1F76981AF0122E00E94760E8A81F70143
:1021000080838B81F80180838A818F3F11F420E0E6
:1021100005C020E08B818F3F09F021E0822FDF9105
:10212000CF911F910F91FF90EF9008950F931F9300
:102130008C01562F40E0405B5F4FF801618124E045
:102140000E94760EF801228130E040E050E0542FEA
:10215000432F322F2227638170E080E090E0622BD2
:10216000732B842B952B982F872F762F662724810E
:1021700030E040E050E0622B732B842B952B982F9E
:10218000872F762F6627258130E040E050E0622BD4
:10219000732B842B952B1F910F9108950F931F93F1
:1021A0008C01562F40E0485B5F4FF801618124E0CD
:1021B0000E94760EF801228130E040E050E0542F7A
:1021C000432F322F2227638170E080E090E0622B62
:1021D000732B842B952B982F872F762F662724819E
:1021E00030E040E050E0622B732B842B952B982F2E
:1021F000872F762F6627258130E040E050E0622B64
:10220000732B842B952B1F910F9108952F923F9242
:102210004F925F926F927F928F929F92AF92BF92F6
:10222000CF92DF92EF92FF920F931F93DF93CF93A2
:10223000CDB7DEB76D970FB6F894DEBF0FBECDBF3A
:102240009C8F8B8F6D8F0E94CE106F8B788F898FB4
:102250009A8F8B8D9C8D6D8D0E9496106B8B7C8BD5
:102260008D8B9E8B8B8D9C8D6D8D0E94B00F7B0115
:102270008C018B8D9C8D6D8D0E9428100E945E2D8F
:102280009B01AC01C801B7010E94C52C5B016C0128
:1022900080E090E0A0E0B0E08F87988BA98BBA8BAC
:1022A0008B879C87AD87BE878F839887A987BA87DE
:1022B0008B839C83AD83BE83EE24A2C0698170E0D2
:1022C000882777FD8095982F0E94602D9B01AC0197
:1022D0006F89788D898D9A8D0E94142E1B012C0197
:1022E0006A8170E0882777FD8095982F0E94602D85
:1022F0009B01AC016B897C898D899E890E94142E7B
:102300003B014C01C201B101A60195010E94C12C03
:10231000882309F4B2C0E39491E0E916A1F4C20164
:10232000B101A60195010E94102E18160CF050C0A4
:10233000C401B301A20191010E94C52CA60195011F
:102340000E94142E98C0A1E0AE1508F041C0C20151
:10235000B101A60195010E94102E1816CCF5C601F8
:10236000B5012F85388949895A890E94102E18167F
:102370007CF5C601B5012F85388949895A890E94A3
:102380005C2C5B016C01C401B3012B853C854D8540
:102390005E850E945C2C7B018C01C201B1012F85FE
:1023A000388949895A890E945C2C9B01AC01C8017B
:1023B000B7010E94C52C9B01AC01C601B5010E946A
:1023C000142E9B01AC016B857C858D859E8551C04B
:1023D0008B859C85AD85BE858B839C83AD83BE83B9
:1023E0008F859889A989BA898F839887A987BA87A1
:1023F0006B867C868D869E862F86388A498A5A8A85
:102400008B8D9C8D6D8D4E2D9E012F5F3F4F8E01CC
:102410000E5F1F4F0E946210882309F04FCFC40146
:10242000B3012B813C814D815E810E945C2C7B013C
:102430008C01C201B1012F81388549855A850E94DE
:102440005C2C9B01AC01C801B7010E94C52C7B012B
:102450008C01C601B501A20191010E945C2C9B0177
:10246000AC01C801B7010E94142E9B01AC01C4014C
:10247000B3010E945D2C3B014C01B301C4016D9678
:102480000FB6F894DEBF0FBECDBFCF91DF911F9185
:102490000F91FF90EF90DF90CF90BF90AF909F9003
:1024A0008F907F906F905F904F903F902F90089506
:1024B000FC01618140E050E021E00E94760E089529
:1024C0000F931F938C01562F40E0405D5F4FF80142
:1024D000618120E10E94760E0E5F1F4FC8011F919F
:1024E0000F9108950F931F938C01562F40E0405E8B
:1024F0005F4FF801618120E10E94760E0E5F1F4F51
:10250000C8011F910F9108950F931F938C01F8013B
:10251000618147E050E024E00E94760EF801858159
:102520001F910F9108950F931F938C01F801618102
:1025300040E050E021E00E94760EF80182811F9178
:102540000F9108950F931F938C01F801618141E071
:1025500050E026E00E94760E0E5F1F4FC8011F91CB
:102560000F910895AF92BF92DF92EF92FF920F9377
:102570001F93DF93CF930F92CDB7DEB77C01198203
:10258000FC01D0805E010894A11CB11C20C0C701D1
:102590000E945812C7016D2D0E941F0EF701118174
:1025A00012C0103781F0812FB50140E021E000E03A
:1025B0000E94FC0B882339F4F701D0821183C701F4
:1025C0000E94581208C01F5F17FFEBCFD394F2E0B0
:1025D000FD15E8F610E0812F0F90CF91DF911F914C
:1025E0000F91FF90EF90DF90BF90AF9008950F9301
:1025F0001F938C0181EB94E00E94A80BF8011082DC
:1026000011821F910F9108950F931F93579889E09E
:1026100090E00E94632609B184E190E00E94632665
:1026200019B189E090E00E94632617FD02C080E0A6
:1026300005C0802F8095881F8827881F1F910F91C4
:1026400008956F927F928F929F92AF92BF92CF9296
:10265000DF92FF920F931F93CF93DF935C013B01B7
:102660006A0100E010E04A010894810891082AC03C
:10267000FF24C0E0D0E0C5010E940413FF0CF82A3B
:102680002196C830D105B9F7579A0815190539F4BC
:102690005F9A84E190E00E9463265F9806C05F988D
:1026A00084E190E00E9463265F9A84E190E00E94BA
:1026B0006326C5010E940413F301E00FF11FF082AD
:1026C0000F5F1F4F0C151D059CF2DF91CF911F91DD
:1026D0000F91FF90DF90CF90BF90AF909F908F9021
:1026E0007F906F900895EF92FF921F93CF93DF93A7
:1026F0007C01162F579AC0E0D0E017FF07C05F9803
:1027000084E190E00E9463265F9A06C05F9A84E1AC
:1027100090E00E9463265F9884E190E00E94632627
:102720002196C830D10511F0110FE7CF5F9884E1F1
:1027300090E00E9463265F9A84E190E00E94632605
:10274000C7010E940413DF91CF911F91FF90EF907A
:1027500008950F931F938C015F9886E090E00E948C
:102760006326C80165E50E9473131F910F910895B8
:10277000579A5F9A88E592E00E9463260895EF9247
:10278000FF920F931F938C017B01F8940E94B81362
:10279000C8010E94A913C80160EA0E947313C8010E
:1027A00063E00E947313C80160E00E947313C801C4
:1027B0006AEF0E947313C801B70146E050E00E941F
:1027C0002113C8010E94B81378941F910F91FF90B4
:1027D000EF900895DF93CF9300D000D000D0CDB715
:1027E000DEB7DE011196E4E8F1E086E001900D929B
:1027F0008150E1F786E191E0E6ECF1E0DF019C0138
:102800001D9221503040E1F780912B05833019F45F
:1028100060E076E003C0BE016F5F7F4F84E490E02C
:1028200043E450E00E94611F80912B05833039F012
:1028300086EC91E0BE016F5F7F4F0E94082481E02B
:102840008093F0018093F10186E08093F201809102
:10285000380590913905A0913A05B0913B058093D8
:10286000F4019093F501A093F601B093F7018091E4
:102870002B05833039F480EF91E00C9660EF75E022
:102880000E9410248CE092E06AEE75E00E94082419
:10289000ACEDB2E0EEE4F1E002C081918D9331E065
:1028A000E435F307D1F790912B05992311F083E0DC
:1028B00001C081E08093E2028DE38093E30287E030
:1028C0008093E40281E08093E502A6EEB2E0EAEEB6
:1028D000F5E002C081918D9385E0E03FF807D1F7E4
:1028E0008CE08093EC028AE08093ED02E3E4F1E077
:1028F000AEEEB2E002C081918D9321E0ED34F2079B
:10290000D1F728EF32E03093400520933F05913016
:1029100069F582E38093F80284E08093F902D9019B
:102920001296E0EFF5E002C081918D9335E0E43F2F
:10293000F307D1F786E38093FE0284E08093FF02E1
:1029400080E093E09093400580933F05DC01E0E058
:10295000F6E002C081918D9386E0E430F807D1F76C
:1029600084E093E09093400580933F0520913E05DD
:10297000222311F094E001C093E0A0913F05B091B3
:102980004005FD0187E3819311969C93DF01119629
:1029900081E08183FD01319683E011968C93DF0104
:1029A000119686E08183CD01019690934005809336
:1029B0003F05222339F011962C9301969093400500
:1029C00080933F05E0913F05F09140058FEF8193A3
:1029D000F0934005E0933F05CF01805F91400E9456
:1029E000D72026960FB6F894DEBF0FBECDBFCF918D
:1029F000DF910895EF92FF920F931F93CF93DF9390
:102A00008C0180912B05823009F4F7C0833030F4BB
:102A1000882351F1813009F064C14AC0833021F02C
:102A2000843009F05EC1E9C00E94FC252091300588
:102A3000309131054091320550913305E0902C05DD
:102A4000F0902D0500912E0510912F052E0D3F1DA4
:102A5000401F511F621773078407950708F441C18F
:102A60000E94EA1384E017C00E94FC256093380599
:102A70007093390580933A0590933B051092F005C9
:102A80001092F1051092F2051092F3050E94EA13DC
:102A90000E94411881E080932B050E94FC256093E1
:102AA000340570933505809336059093370519C129
:102AB0000634110508F4D5C08091E901833409F08A
:102AC000D0C02091F4013091F5014091F601509170
:102AD000F7018091380590913905A0913A05B091A0
:102AE0003B05281739074A075B0709F0BAC0C0EE53
:102AF000D2E0FE01A8014A535E4FDF011196918199
:102B00009D012F5F3F4F8081853329F411968C9171
:102B1000823009F4C5C0F901E90FF11DE417F5078A
:102B200060F39FC0FE019191E980EF0121969333FC
:102B3000D9F0943340F4933089F0963091F091308D
:102B400009F046C008C09A3379F09F3F09F451C09C
:102B50009633F1F537C084EF95E036C08CEF95E001
:102B600033C084E096E030C0618170E080E090E0A6
:102B7000982F872F762F66272981620F711D811D5F
:102B8000911D982F872F762F66272A81620F711D3E
:102B9000811D911D982F872F762F66272B81620F1D
:102BA000711D811D911D28EE33E040E050E00E9430
:102BB0007B2E60933005709331058093320590939E
:102BC000330588C080E096E0BE010E94102482C0D8
:102BD000E0913C05F0913D05309709F47BC0809170
:102BE0003E05981709F076C0892FBE014E2D099534
:102BF00071C00E94EA1382E04ECF0634110588F1BD
:102C00008091E901833469F52091F4013091F50157
:102C10004091F6015091F701809138059091390566
:102C2000A0913A05B0913B05281739074A075B0781
:102C3000C1F4E0EEF2E0A8014A535E4FDF011196C5
:102C400091819D012F5F3F4F8081853321F4119643
:102C50008C91853071F1F901E90FF11DE417F50749
:102C600068F30E94FC252091340530913505409190
:102C7000360550913705205F384D4F4F5F4F26176F
:102C800037074807590748F02CC08CEF95E00E94A1
:102C9000C71F83E080932B0524C010922B0521C011
:102CA00080EF95E060E072E00E9410240A531E4F0E
:102CB00039CF0E9438180E94FC2560932C05709330
:102CC0002D0580932E0590932F058091FC05882378
:102CD00001F3DBCFCE0DD11DC017D10708F422CFF1
:102CE00088CFDF91CF911F910F91FF90EF900895C2
:102CF000CF93DF9381E080930C069091EF05892FAD
:102D000082958F70805D80934B019F70905D909352
:102D10004C0110922B050E94FC25EB0104C00E947F
:102D2000C6180E94FA1480912B05833061F00E942E
:102D3000FC256C1B7D0B60567A4E28F40E944A18C5
:102D4000882389F3ECCF0E94DB1E90E080912B0555
:102D5000833009F491E0892FDF91CF910895FF929C
:102D60000F931F93CF93DF93EC01F62E0E94FC2567
:102D70008B010E944A18882329F00E94D51E8823BF
:102D800009F4D7C00E94C6180E9406210E94FC25A3
:102D9000601B710B6053754760F3C4C088E098E016
:102DA000A8E0B8E08093040690930506A093060679
:102DB000B09307068091410590E0906E64E076E064
:102DC00045E350E00E94611FE0EFF1E08CE0DF019D
:102DD0001D928A95E9F7DF011C9690E0FF2011F023
:102DE000888102C0FE01849121968E3241F08823B1
:102DF00031F09F5FFD01E90FF11D8083EFCFFD01F1
:102E00009193DF01A90FB11D882339F7FD011192BC
:102E100011961C92DF01119641E04183FD0131962C
:102E200011961C92418386ED26EC31E0821B32968E
:102E30008E0F8093F001909141059093F1014093A2
:102E4000F2014093F50190E00E94D7200E94FC25FA
:102E50008B0161C00E94FC25601B710B605375479C
:102E600008F060C00E94C618EC01009709F453C036
:102E70000E940621892B09F04EC0C634D10508F402
:102E80004AC08091E901853309F045C08091EA018B
:102E9000803E09F040C09091EB0180914105981768
:102EA000D1F58091F1018917B1F58091F30190E09E
:102EB0008F709070892B79F58091F001E82FF0E008
:102EC000E051FE4F9E012A533E4F8081807C39F0B5
:102ED000329609C08081882311F4319604C031965E
:102EE000E217F307B8F3CF010E962817390798F0C9
:102EF0008181813051F48185843039F43A9688E0BB
:102F000096E0BF010E94102406C0818590E00A96D9
:102F1000E80FF91FDACF80910806882309F49ACFC9
:102F200081E001C080E0DF91CF911F910F91FF9070
:102F30000895109208061092090610920A0610923F
:102F40000B06809141058F5F8093410580910406B7
:102F5000882309F02FCF22CF8091440561E00E94A1
:102F6000092778940895FF920F931F93082F162F27
:102F7000F42EF8948091440560E00E9409271F71A7
:102F8000102B1EBD0DB407FEFDCFFEBC0DB407FE19
:102F9000FDCF0E94AC171F910F91FF9008951F93D2
:102FA000182F282F30E0207630708091450590E072
:102FB0002817390799F080EA6FE143E00E94B317C0
:102FC000412F40764093450550E085E05595479563
:102FD0008A95E1F780E86FE10E94B3171F91089589
:102FE0000F931F93182F062F0E94CF1780E4612F95
:102FF000402F0E94B3171F910F9108950F931F93B5
:10300000182F072F0E94F017812F8F5F602F0E94CB
:10301000F0171F910F9108950F931F93182F062FEC
:10302000F8948091440560E00E940927802F8F71F9
:10303000812B8EBD0DB407FEFDCF1EBC0DB407FE67
:10304000FDCF07FF04C01EBC0DB407FEFDCF1EB5AB
:103050000E94AC17812F1F910F9108951F93182F75
:103060000E94CF1780E0612F0E940C181F910895D5
:1030700088E30E942E18682F6E7F88E30E94F01765
:10308000089588E30E942E18682F616088E30E94EB
:10309000F017089584ED61E10E94F01782ED61E080
:1030A0000E94F0178AEE0E942E1880FDFBCF82ED61
:1030B00060E00E94F01789ED0E942E1890E096952E
:1030C000879596958795817008950F931F93CF9359
:1030D000DF93EC018B01F8948091440560E00E943D
:1030E00009278AE38EBD0DB407FEFDCF09C01EBCC3
:1030F0000DB407FEFDCF8EB5F80181938F012197A6
:103100002097A9F70E94AC17DF91CF911F910F91E3
:103110000895DF93CF930F92CDB7DEB7198290E079
:1031200036E0880F991F3A95E1F7860F911DBC0193
:1031300060507E4E80509E4050F480E00E94FE170A
:1031400081E090E0BE016F5F7F4F0E94651889812A
:103150000F90CF91DF910895CF93DF93EB0190E033
:1031600046E0880F991F4A95E1F7BC0160507E4EFA
:10317000815C9D4040F480E00E94FE1780E490E076
:10318000BE010E946518DF91CF9108950F931F93A0
:10319000DF93CF9300D000D000D0CDB7DEB789E366
:1031A0000E942E18882319F400E010E048C06091B6
:1031B00046057091470580E00E94FE1786E090E08A
:1031C000BE016F5F7F4F0E94651889819A8190933D
:1031D0004705809346052B813C81E0914205F091A3
:1031E00043058D8187FD03C000E010E00EC0245030
:1031F00030408F01015010402017310708F4890139
:10320000C80166EC71E00E946518F801EA53FE4FB0
:10321000108260914605709147058CE06130780717
:1032200024F08CE06FEF7BE003C0615070408CE0D5
:103230000E94FE1780E86EE140E40E94B317C801C7
:1032400026960FB6F894DEBF0FBECDBFCF91DF91AB
:103250001F910F9108950F931F93CF93DF938C01CC
:10326000EB01F8948091440560E00E9409278AE709
:103270008EBD0DB407FEFDCF08C088818EBD0DB494
:1032800007FEFDCF21960150104001151105A9F749
:103290000E94AC17DF91CF911F910F910895CF93AA
:1032A000DF93EB0190E056E0880F991F5A95E1F704
:1032B000BC0160507E4E815C9D4040F482E00E94E3
:1032C000FE1780E490E0BE010E942B19DF91CF91A0
:1032D0000895CF93DF93EC010FC08CE10E942E186C
:1032E00081FF0AC080E86FE140E80E94B31780EADE
:1032F0006FE140E80E94B31780E06FE10E940C1874
:1033000083FDEBCF82E060E07CE00E94FE17BE010F
:103310006050744F86E00E94FE178AE760E040E04C
:103320000E94B317CE0166EC71E00E942B1980E871
:103330006FE148E00E94B317DF91CF9108958AE0D2
:1033400061E00E94CA268AE061E00E9409278BE0C2
:1033500061E00E94CA268DE061E00E94CA268CE0EE
:1033600060E00E94CA268BE061E00E9409278BE0A2
:1033700060E00E9409278DE060E00E94092780E557
:103380008CBD8DB581608DBD08951F93CF93DF9364
:10339000EB01142F90934305809342050CB406FC77
:1033A00002C00E949F1910934405812F61E00E9482
:1033B000CA260E94AC178FEF60E04FEF0E94B31750
:1033C00062E070E080E090E00E940A2680E06DE11B
:1033D0000E940C188823D1F31092470510924605DD
:1033E00088E060E070E00E94FE178CE060E070E032
:1033F0000E94FE178AE06FEF7BE00E94FE1784E0D8
:1034000060E07CE00E94FE1786E06FEF71E10E94B1
:10341000FE170E94411888E26FE370E30E94FE17D6
:1034200080E369EF77EF0E94FE1780EC6DE00E9469
:10343000F01781EC60E00E94F01780E862EC42E354
:103440000E94B31786EC62E17CE00E94FE1784ECD8
:1034500062E10E94F0178AEC6CED75E00E94FE17A5
:1034600084EE68810E94F01785EE69810E94F01752
:1034700082EE6A810E94F01783EE6B810E94F01742
:1034800080EE6C810E94F01781EE6D810E94F01732
:1034900084ED60E10E94F01786ED60E071E00E942B
:1034A000FE178AEE0E942E1880FDFBCF8FE10E944E
:1034B000CF1780E86BE140EC0E94B31780E86FE122
:1034C00044E00E94B31782E70E942E18863008F06D
:1034D0008F5FDF91CF911F910895CF93DF93C0E06D
:1034E000D0E05C2FFE01E85BFA4FE081EE2349F16A
:1034F00020E030E06E2F70E0CB01022E02C09595E7
:1035000087950A94E2F780FF17C0C85BDA4F81E025
:1035100090E0A0E0B0E0022E04C0880F991FAA1F1F
:10352000BB1F0A94D2F780958E238883852F880F3E
:10353000880F880F820F0AC02F5F3F4F2830310558
:10354000D9F62196C032D10561F680E0DF91CF91A6
:103550000895CF93DF93EC019B018A30910548F0E9
:103560006AE070E00E949A2ECB01B9010E94A91A6C
:103570009C01CE016AE070E00E949A2E805DF90104
:103580008193D90111961C92CF01DF91CF910895BB
:10359000AF92BF92CF92DF92FF920F931F93CF9380
:1035A000DF938C01EB01F42E10920C0638E341E01E
:1035B00050E060E070E018C0832F90E0FC01B3E0C1
:1035C000F595E795BA95E1F7E85BFA4F877090704B
:1035D0005A016B0104C0AA0CBB1CCC1CDD1C8A95D3
:1035E000D2F720812A292083315031F78AEE95E0E5
:1035F000BE010E940824C8016AEE75E04F2D0E94AA
:10360000C519DF91CF911F910F91FF90DF90CF905F
:10361000BF90AF900895EF92FF920F931F93CF93B7
:10362000DF93EC0131E0E32EF12C012D112D1EC0B2
:1036300090E0FC0123E0F595E7952A95E1F7E85B3A
:10364000FA4F87709070A801970104C0220F331FB2
:10365000441F551F8A95D2F7DA01C9012081282B12
:1036600020838D816FE30E9489188D838D8188234B
:10367000F9F6DF91CF911F910F91FF90EF90089590
:10368000982F8091A805981729F4E62FF0E0E859C3
:10369000FA4F08C08091E905981731F4E62FF0E061
:1036A000E755FA4F80810895892F0E94891808955F
:1036B0000F931F93FC0104818FE3089F8001112465
:1036C00086816EE30E94401B080F111D03501040BD
:1036D000C8011F910F9108951F93CF93DF93982FE7
:1036E000162FC82FD0E0FE0156E0EE0FFF1F5A95AF
:1036F000E1F7EC0FFD1FE859FA4FE05CFF4F8081C6
:10370000E054F040681771F1992359F4BF010E9409
:103710004F198091E905181791F48FEF8093E9050F
:103720000EC08091A805681751F4A9EAB5E0E8E653
:10373000F5E081E401900D928150E1F713C0FE01A4
:1037400046E0EE0FFF1F4A95E1F7EC0FFD1FE85929
:10375000FA4FE05CFF4F1083E054F040812FBF012F
:103760000E94AC18DF91CF911F91089580E060E036
:103770000E946C1B80916805909169050895CF9314
:10378000DF93EC0181E06F810E946C1B9F818E8131
:10379000981739F498858091E705981710F080E024
:1037A00013C08885E82FF0E0E755FA4FE0818F5F7E
:1037B00088878F3340F09F818E81981721F0809108
:1037C000E8058F8318868E2FDF91CF9108951F9380
:1037D000CF93DF93EC01162F80E06E810E946C1B6B
:1037E0008091A605E82FF0E0E859FA4F10838F5F2B
:1037F0008F3318F48093A60510C00E946D1A682FAD
:103800008093A7058E8380E00E946C1B1092A70511
:103810001092A6058C818F5F8C83DF91CF911F91D1
:103820000895CF93DF93EC0180E06D810E946C1BC3
:10383000A8E6B5E0FE01349683E001900D92815038
:10384000E1F79091E9058D81981721F481E060E01E
:103850000E946C1BDF91CF910895CF93DF93EC0111
:103860006F8383E0888781E00E946C1BDE011496E1
:10387000E9EAF5E083E001900D928150E1F78F8154
:10388000DF91CF910895AF92BF92CF92DF92EF92E6
:10389000FF920F931F93DF93CF93CDB7DEB7299796
:1038A0000FB6F894DEBF0FBECDBF80E060E00E948F
:1038B0006C1B00916A0510916B057AE6E72E75E0A6
:1038C000F72E60E6A62E61E0B62E6E010894C11CAC
:1038D000D11C02C00F5F1F4FF80184918823C9F0EB
:1038E0000F5F1F4F8432C1F782E090E0E80EF91EAF
:1038F000F7016081F8018491883461F71C821B8292
:10390000BA82A982C6010E942D1CC6010E940B1B0F
:10391000E1CF29960FB6F894DEBF0FBECDBFCF9191
:10392000DF911F910F91FF90EF90DF90CF90BF90AC
:10393000AF9008954F925F926F927F928F929F9275
:10394000AF92BF92CF92DF92EF92FF920F931F93AD
:10395000DF93CF93CDB7DEB760970FB6F894DEBF95
:103960000FBECDBF8E010D5D1F4FF801E190F190AC
:103970008F0180E060E00E946C1BC7010E9477030A
:103980009093690580936805F0926B05E0926A0553
:103990006801ACE68A2EA5E09A2EF0E64F2EF1E003
:1039A0005F2EE8E06E2E712C6C0E7D1E5E01089479
:1039B000A11CB11CF7018491882309F465C0089407
:1039C000E11CF11C8432B1F7F60100811181F7018D
:1039D0008491863429F1873428F4843469F085345D
:1039E00029F407C0883469F1833591F0A0E0B0E094
:1039F00034C0A0E0B0E019C0C801B5010E94A91A06
:103A0000D5010D900020E9F71197AA19BB0925C02F
:103A1000D8010D900020E9F71197A01BB10B1DC034
:103A2000C8010E94770318C01196F999FECFCD0105
:103A3000800F911F92BD81BDF89A80B58823A1F7B0
:103A40000CC01B861A8659864886C301602F0E94C7
:103A50002D1CC3010E94581BDC010894E11CF11CC1
:103A6000F401019311934F018091680590916905CC
:103A700002978A0F9B1F909369058093680582E0E7
:103A800090E0C80ED91E96CF60960FB6F894DEBFB0
:103A90000FBECDBFCF91DF911F910F91FF90EF909F
:103AA000DF90CF90BF90AF909F908F907F906F905E
:103AB0005F904F9008952F923F924F925F926F9236
:103AC0007F928F929F92AF92BF92CF92DF92FF929E
:103AD0000F931F93DF93CF93CDB7DEB760970FB6E9
:103AE000F894DEBF0FBECDBF1C013B01142F052F84
:103AF00080E060E00E946C1BC0906A05D0906B056E
:103B00001B861A8680E691E0998788871F861D8626
:103B1000212F302FC9012C010AE6802E05E0902EBE
:103B200010E4F12E00E010E0AA24BB24620C731C08
:103B300083C086E4F81609F45EC08F1564F094E43F
:103B4000F91609F454C09F150CF45AC0E0E4FE16AF
:103B500009F070C009C0F8E4FF1609F45BC083E502
:103B6000F81609F067C043C0F6018491282F882316
:103B700009F466C00894C11CD11C843209F050C0FD
:103B800082E090E0880E991EF40160812181F601A7
:103B90000894C11CD11CF490F6E4FF1544F085E4B0
:103BA000F816C4F494E4F91609F046C008C0E8E435
:103BB000FE16A9F0F3E5FF1609F03EC00BC0862FF4
:103BC000922FBE016F5F7F4F0E94A91A8E010F5F77
:103BD0001F4F32C0862F922F9C0189012DC0CE012C
:103BE00008960E942D1C8E01085F1F4F25C0F8010A
:103BF00021918F0113C0F8010F5F1F4F24910EC058
:103C0000F999FECFC801019612BD01BDF89A20B501
:103C10008C0104C0C8010E94BF1B282F222351F031
:103C2000A214B30418F0F20121932F010894A11CEF
:103C3000B11C02C0B0E4FB2EA614B70408F479CF7F
:103C400060960FB6F894DEBF0FBECDBFCF91DF9167
:103C50001F910F91FF90DF90CF90BF90AF909F90FA
:103C60008F907F906F905F904F903F902F9008952E
:103C7000EF92FF921F937C010E946D1A182F80E033
:103C8000612F0E946C1BE8E6F5E010926805109326
:103C90006A051093690583E086AF17AEC701612FEF
:103CA0000E942D1C1F91FF90EF900895DF92EF92DC
:103CB000FF920F931F93CF93DF93D82E862FBA01D5
:103CC000213041F4675F7F4F9B0140E050E0695035
:103CD00070400EC0223029F020E030E040E050E09B
:103CE00007C0625070409B0140E050E06E5F7F4F24
:103CF000E82EFF2486EC91E0E80EF91E8B01E70127
:103D00000FC0F881E0E0898190E08E2B9F2BA0E02E
:103D1000B0E0280F391F4A1F5B1F22960250104047
:103D20000230110570F7CB018E7FD701A80FB91FA4
:103D30006817790779F08C9190E0A0E0B0E0BA2F95
:103D4000A92F982F882702C040E050E0280F391F84
:103D50004A1F5B1FCA01AA27BB270097A105B1050F
:103D600099F7C90180959095ED2DF0E0EA53FE4F4B
:103D700090838183DF91CF911F910F91FF90EF90FE
:103D8000DF9008951092DE011092DF0180E48093AD
:103D9000DA011092DB018093DC0188E16EE044E1FE
:103DA00050E020E00E94561E089580910E068695F0
:103DB0008095817008958091F40580959091F0052B
:103DC000892B8093F8058091F50580959091F105F8
:103DD000892B8093F9058091F60580959091F205E5
:103DE000892B8093FA058091F70580959091F305D2
:103DF000892B8093FB050895662341F480935A0133
:103E00004A535E4F509322064093210681E0089565
:103E100030915401209155018CEF9EE1909316064C
:103E2000809315068BE793E290931806809317060C
:103E3000209311063093120681E080930F06809143
:103E400010068F5F87708093100680932306089575
:103E500090915A01981719F020E030E007C08BE7E5
:103E600080935A012091210630912206C9010895BC
:103E70000F931F93BC0106EC11E0C8010E940824B7
:103E8000C80106966AEE75E00E9408241F910F9102
:103E90000895EF92FF920F931F937B010E94381FAA
:103EA00004EE11E0C801B7010E941024C801049774
:103EB00060EF75E00E9410241F910F91FF90EF902A
:103EC0000895EF92FF920F931F93CF93DF937C019E
:103ED000EB018A0189E196E00E94491F8881807F79
:103EE000803E49F088819981AA81BB818F5F9F4F75
:103EF000AF4FBF4F31F486EC91E06AE871E00E9469
:103F0000082488E08093D2011092D30184ED91E0DF
:103F10006AE574E049E050E00E945C031092D6012B
:103F200081E18093DD011093EA010093EB01F092AF
:103F3000E801E092E9011092EC011092EE0110927A
:103F4000EF01DF91CF911F910F91FF90EF900895B6
:103F5000EF92FF920F931F930CEC11E0C8010E94A7
:103F6000381F74E1E72EF12CE00EF11EC8014896CF
:103F7000B7010E941024C70160EF75E00E94102471
:103F80000E94C21E1F910F91FF90EF900895BC01F7
:103F900081E080930E068CEF95E00E941024089536
:103FA0000F931F938C0188969093D6018093D7012D
:103FB0000E94C21E1092F8011092F901045E1F4F78
:103FC00082E36AE1A80122E00E94561EC8014A96D7
:103FD0000E9469191F910F910895CF93DF939C015F
:103FE000862F80618093F501643029F02115310519
:103FF00011F421E030E09091EA018091E801809392
:10400000EA019093E8019091EB018091E90180939E
:10401000EB019093E901CFEED1E08881A901480F2F
:10402000511D2C814C832883252F3327219751E064
:10403000CB3ED50791F71D861E8680E589871092B5
:10404000D60188E28093D7010E94A81F84E08B8765
:104050001C8682E36AE14CE150E022E00E94561E99
:1040600086E390E00E946919DF91CF910895E82FCF
:104070004091EA0150E0292F30E04217530709F040
:1040800092C08091EB018E1709F08DC08091F501EF
:10409000E82F81FF4EC01092D6018CE28093D701A9
:1040A0000E94A81F82E18093F5019091EA0180911E
:1040B000E8018093EA019093E8019091EB018091EF
:1040C000E9018093EB019093E901EFEEF1E021E04B
:1040D00030E08081A901480F511D44831082252FB3
:1040E0003327319751E0EB3EF50799F71586168691
:1040F0001182128280915901838314828D5F809393
:10410000590182E0818B84E0828B95E0938B148A45
:1041100080E68187938788E7848782E36AE140E2CB
:1041200050E022E00E94561E8AE390E00E94691946
:104130003AC084FF38C09091D60180E02091D70129
:1041400030E0282B392B8091F401482F50E0A4E077
:1041500055954795AA95E1F7CA01880F991F880FD1
:10416000991F281B390B2451304037FF02C020E033
:1041700030E03093200620931F06232B69F09A012C
:10418000220F331F220F331F2E5D3F4F68507040A8
:104190006217730740F009C0E0FF05C080E090E0BF
:1041A00060E00E94ED1F20E030E0C90108950F9308
:1041B0001F93DF93CF930F92CDB7DEB78C01045ED0
:1041C0001F4F1093D6010C511040802F845E8093B6
:1041D000D70189830E94C21E085F1F4F1093EC0114
:1041E000898184518093ED01085F1F4F88E26AE165
:1041F000A80121E00E94561EC8014A960E94691932
:104200000F90CF91DF911F910F910895DF92EF9260
:10421000FF920F931F93CF93DF93EC0180910C06D5
:10422000882319F0CE010E94FA14209709F0BFC02C
:1042300080910E068570F1F18091560190915701A1
:10424000892BC1F50E944A188823A1F18AE891E0E0
:104250000E94381F88E08093D201E6E0FE2EF092A3
:10426000D30184ED91E062E574E048E050E00E9403
:104270005C0306EE11E0D8011D92FA94E9F7C8013B
:104280000A976AEE75E00E940824C80106966CEF52
:1042900075E00E941024C801049760EF75E00E9449
:1042A000102480910E06886080930E068AE290E0CA
:1042B0000E9469198091560190915701019690933F
:1042C00057018093560180910F06813009F003C297
:1042D00080910E0681FFFFC102E000930F068091DE
:1042E00058018F5F809358018F71109110061295BD
:1042F000110F107E182BE0901106D090120689E164
:1043000096E068E076E00E94491F78E0F72EF09290
:10431000D2011092D30184ED91E06AE574E049E0A6
:1043200050E00E945C038CE28093D70186E080938A
:10433000DD010E94C21EE092EA01D092EB018BE007
:104340008093E8011093E901ECEEF1E0DF011D92AA
:10435000FA94E9F7809159018093EE018D5F809383
:10436000590180E68093F4010093F50183E0809386
:10437000F6011092F7011092F8011092F9011092D3
:10438000FA011092FB010093FC0184E08093FD018F
:104390000093FE0186E28093FF0182E36AE140E23E
:1043A00050E022E00E94561E8AE390E0AFC0C9327E
:1043B000D10508F490C11091D201183009F096C1CE
:1043C0008091D301863009F091C18CEE91E060EFCD
:1043D00075E044E050E00E949A03009709F086C11E
:1043E0008091DB01813029F58CEC91E00E94381F2F
:1043F0001092DA0182E08093DB0186EE91E06CEDB1
:1044000071E00E9408248CED91E06AEE75E00E9454
:1044100008248CEE91E062EE71E00E94102482EE9E
:1044200091E060EF75E00E9410248AE290E00E9423
:10443000691980910E0683FF4EC11091DB01123085
:1044400009F049C182EE91E06CEF75E044E050E084
:104450000E949A03009709F03EC189E196E06CED55
:1044600071E00E94082410930E0635C1183009F03F
:1044700032C18091D301882309F02DC18091D401EC
:10448000853409F028C184EE91E060EF75E044E0E6
:1044900050E00E949A030097A9F084EE91E068EF43
:1044A00075E044E050E00E949A03009759F084EED2
:1044B00091E06AE871E044E050E00E949A030097BE
:1044C00009F009C18091DD01813019F58091E80181
:1044D0008830F9F4E0911306F0911406309719F042
:1044E00080EE91E009950E94A81F1092E80180914A
:1044F000EA01883F28F08091EB018F5F8093EB0108
:104500008091EA01885F8093EA01CE010E946919D7
:10451000E2C00E949B23882351F08091DD0181310C
:1045200031F4CE010E94A023882309F0D4C0C63301
:10453000D10528F48091DD01863009F0CCC080914E
:10454000EA018B3009F0BEC080EE91E068E076E0D1
:1045500044E050E00E949A03009709F0BCC08091AB
:10456000F501382F82FF13C0E0911506F091160671
:10457000309759F08091EB0182958695877063E0C2
:1045800040E050E020E030E0099585E090C0909157
:10459000D60180E02091D701022F10E0082B192BC3
:1045A0008091F401482F50E064E0559547956A9555
:1045B000E1F7CA01880F991F880F991F081B190B73
:1045C0000451104017FF02C000E010E080910F0678
:1045D000823079F531FF21C034FF1FC080E090E0C8
:1045E00060E00E94ED1F88E18093F501E0911706DD
:1045F000F0911806309719F420E030E007C0809160
:10460000E90182958695877009959C0183E08093E6
:104610000F06C9010E94D01F5EC081E080930F0683
:1046200034FF03C080E090E002C0C801019664E05E
:1046300046C0833081F50115110579F1E091150629
:10464000F0911606309749F1440F551F440F551F3E
:10465000CE0108974E5D5F4F8417950708F4AC01B3
:10466000C801840F951FC817D90710F0980103C01F
:104670009E01241B350B8091EB01829586958770F6
:1046800060E0099580910D06882319F0C80168E063
:1046900016C0C80108C08530F1F030FF0BC0833070
:1046A000D1F0C801019669E00E94ED1F86E0809379
:1046B0000F0611C00115110571F0C80160E00E94DC
:1046C000ED1F09C08091540190915501BE010E94D7
:1046D00037209C0102C020E030E0C901DF91CF917A
:1046E0001F910F91FF90EF90DF900895CA32D1058E
:1046F00008F0BCCEF0CFEF92FF920F931F930E9471
:10470000B61B8C01FCEFEF2EF1E0FF2E80E090E075
:10471000B801A7010E945B1D0E94431CE00EF11E20
:10472000F70110828BE780935A01C8011F910F9106
:10473000FF90EF90089580914C06811181E00895DB
:10474000CF92DF92EF92FF920F931F93CF93DF935D
:10475000C4E2D6E030E0CC24DD2429C02A814B819C
:104760008091EA0190E0042F10E080179107D9F4BE
:104770009091EB019217B9F48C818823A1F02091DC
:10478000ED0130E028503040F090EC01EE242E0D89
:104790003F1DE881F981892F942F60EE71E040EF91
:1047A00051E0099531E00894C11CD11C25968091F7
:1047B0004C0690E0C816D9068CF2832FDF91CF917A
:1047C0001F910F91FF90EF90DF90CF9008950F937E
:1047D0001F93CF93DF938C01C0E0D0E0F801EC0F82
:1047E000FD1F8EED96E060814AE050E00E94052BAF
:1047F000C33029F08EED96E06EE20E941D2A2196CC
:10480000C430D10559F7DF91CF911F910F910895D1
:10481000DC01FB0186E001900D928150E1F70895E3
:104820009C01FB0180819181A281B381F901808388
:104830009183A283B3830895E0E0F7E020E030E0C5
:1048400003C031962F5F3F4F8081853C29F488E07B
:10485000EF3FF807B1F3A8F3C9010895FC0166839F
:10486000478381E084870895CF92DF92EF92FF9291
:104870000F931F93CF93DF93EC018E8161E00E9431
:1048800009276AEF70E080E090E00E940A260E940B
:10489000FC259B01AC0188859985AA85BB852817D5
:1048A00039074A075B0720F4188619861A861B8683
:1048B0008C85882371F488859985AA85BB85281BFA
:1048C000390B4A0B5B0B205D37404040504008F4E9
:1048D00077C01C860E94FC25688779878A879B871A
:1048E0001C821B821A82198218828E8161E00E94CA
:1048F000CA268E8160E00E94092764E170E080E0B2
:1049000090E00E940A26F8948E8161E00E940927B7
:1049100088E290E00E9463268E8160E00E94CA26B1
:1049200081E0EE2400E010E00AC0F39481E090E022
:104930000E9463262FEFF21629F40AC0892FFF2464
:10494000C82EDD248E810E945D278C159D0569F39C
:104950008E810E945D27982F8FEFF816C9F00430E2
:1049600090F000FD10C08E2D869586958695FE01EF
:10497000E80FF11D8081880F808326E02F1510F449
:1049800081608083E3940F5F1F4F05351105B1F6F9
:10499000789487E28E1510F030E013C030E04C813F
:1049A00050E02981888190E0820F911D2A81820F39
:1049B000911D2B81820F911D90704817590709F4A2
:1049C00031E0832FDF91CF911F910F91FF90EF90F6
:1049D000DF90CF900895EF92FF920F931F93CF93A4
:1049E000DF93EC010E9434248823A9F18F818B305E
:1049F00031F08B3080F18551823068F507C06881D5
:104A000070E080E090E00E945E2D22C0688170E03E
:104A100080E090E00E945E2D20E030E040E853E42A
:104A20000E94142E7B018C01698170E0882777FD3C
:104A30008095982F0E94602D9B01AC01C801B701A1
:104A40000E945D2C20E030E040E251E40E94C52C41
:104A5000E62F692F0AC08EED96E069E171E00E94B1
:104A6000572BE0E070E080EC6FE72E2F372F482FB8
:104A7000562FB901CA01DF91CF911F910F91FF907D
:104A8000EF900895CF92DF92EF92FF920F931F93D2
:104A9000CF93DF93EC01C62E0E943424882309F4BF
:104AA00050C08F818B3041F08B3008F44AC0855163
:104AB000823008F046C007C06A8170E080E090E074
:104AC0000E945E2D29C0DA806D2D70E06F777070C6
:104AD000882777FD8095982F0E94602D20E030E098
:104AE00040E853E40E94142E7B018C016B8170E03E
:104AF000882777FD8095982F0E94602D9B01AC013F
:104B0000C801B7010E945D2C20E030E040E251E492
:104B10000E94C52CD7FC9058CC20E9F020E030E072
:104B200040E151E40E94142E20E030E040EA50E4DD
:104B30000E94C52C20E030E040E052E40E945D2C51
:104B40000AC08EED96E069E171E00E94572B60E0AB
:104B500070E080EC9FE7DF91CF911F910F91FF9064
:104B6000EF90DF90CF9008951F920F920FB60F92A3
:104B700011242F933F938F939F93AF93BF93809173
:104B8000510690915206A0915306B091540630916F
:104B900055060196A11DB11D232F2D5F2D3720F045
:104BA0002D570196A11DB11D2093550680935106E6
:104BB00090935206A0935306B093540680914D06ED
:104BC00090914E06A0914F06B09150060196A11DFE
:104BD000B11D80934D0690934E06A0934F06B0935F
:104BE0005006BF91AF919F918F913F912F910F9060
:104BF0000FBE0F901F9018958FB7F8942091510613
:104C00003091520640915306509154068FBFB9011E
:104C1000CA0108959B01AC017FB7F89480914D06BD
:104C200090914E06A0914F06B091500666B5A89B94
:104C300005C06F3F19F00196A11DB11D7FBFBA2FAE
:104C4000A92F982F8827860F911DA11DB11D62E005
:104C5000880F991FAA1FBB1F6A95D1F7BC012DC0F1
:104C6000FFB7F89480914D0690914E06A0914F06A3
:104C7000B0915006E6B5A89B05C0EF3F19F001962C
:104C8000A11DB11DFFBFBA2FA92F982F88278E0F06
:104C9000911DA11DB11DE2E0880F991FAA1FBB1F26
:104CA000EA95D1F7861B970B885E9340C8F2215096
:104CB00030404040504068517C4F2115310541053E
:104CC000510571F60895019739F0880F991F880FE3
:104CD000991F02970197F1F70895789484B582603F
:104CE00084BD84B5816084BD85B5826085BD85B590
:104CF000816085BDEEE6F0E0808181608083E1E83F
:104D0000F0E0108280818260808380818160808376
:104D1000E0E8F0E0808181608083E1EBF0E0808179
:104D200084608083E0EBF0E0808181608083EAE74B
:104D3000F0E08081846080838081826080838081D4
:104D4000816080838081806880831092C100089593
:104D5000982F8E3008F09E50977080915B0182955D
:104D6000880F880F807C892B80937C0080917A004B
:104D7000806480937A0080917A0086FDFCCF209138
:104D8000780040917900942F80E030E0282B392B77
:104D9000C9010895CF93DF93482F50E0CA01835B88
:104DA0009A4FFC013491475C5A4FFA018491882351
:104DB00069F190E0880F991FFC01E55EFA4FA5911B
:104DC000B491FC01EB5DFA4FC591D491662351F487
:104DD0002FB7F8948C91932F909589238C93888189
:104DE00089230BC0623061F42FB7F8948C91932F14
:104DF000909589238C938881832B88832FBF06C04D
:104E00009FB7F8948C91832B8C939FBFDF91CF91A8
:104E10000895482F50E0CA018F599A4FFC01249100
:104E2000CA01835B9A4FFC019491475C5A4FFA0187
:104E30003491332309F440C0222351F1233071F01F
:104E4000243028F42130A1F0223011F514C026308E
:104E5000B1F02730C1F02430D9F404C08091800033
:104E60008F7703C0809180008F7D8093800010C079
:104E700084B58F7702C084B58F7D84BD09C08091D1
:104E8000B0008F7703C08091B0008F7D8093B00019
:104E9000E32FF0E0EE0FFF1FEB5DFA4FA591B49109
:104EA0002FB7F894662321F48C919095892302C042
:104EB0008C91892B8C932FBF0895682F70E0CB01C4
:104EC0008F599A4FFC012491CB01835B9A4FFC01CF
:104ED0004491675C7A4FFB019491992319F420E087
:104EE00030E03CC0222351F1233071F0243028F40B
:104EF0002130A1F0223011F514C02630B1F0273056
:104F0000C1F02430D9F404C0809180008F7703C0B1
:104F1000809180008F7D8093800010C084B58F7752
:104F200002C084B58F7D84BD09C08091B0008F77A9
:104F300003C08091B0008F7D8093B000892F90E0F6
:104F4000880F991F815D9A4FFC01A591B4918C91B6
:104F500020E030E0842311F021E030E0C901089521
:104F600008951F920F920FB60F9211242F933F9323
:104F70004F938F939F93EF93FF938091C00082FD97
:104F80001DC04091C60020919606309197062F5F74
:104F90003F4F2F7330708091980690919906281793
:104FA000390771F0E0919606F0919706EA5AF94FA9
:104FB0004083309397062093960602C08091C600E6
:104FC000FF91EF919F918F914F913F912F910F9072
:104FD0000FBE0F901F901895E091EA06F091EB0636
:104FE000E05CFF4F8191919120813181821B930B75
:104FF0008F739070892B11F00E94B02708951F9233
:105000000F920FB60F9211242F933F938F939F937C
:10501000EF93FF932091DA063091DB068091DC0656
:105020009091DD062817390731F48091C1008F7DFA
:105030008093C10014C0E091DC06F091DD06E656D5
:10504000F94F20818091DC069091DD0601968F73E7
:1050500090709093DD068093DC062093C600FF914C
:10506000EF919F918F913F912F910F900FBE0F90D5
:105070001F901895AF92BF92DF92EF92FF920F931D
:105080001F93CF93DF93EC017A018B01DD24403035
:1050900081EE580780E0680780E0780711F0DD2492
:1050A000D39491E0A92EB12CEC89FD89DD2069F023
:1050B000C50108A002C0880F991F0A94E2F78083F7
:1050C00060E079E08DE390E005C0108260E874E86C
:1050D0008EE190E0A80197010E94AE2E2150304051
:1050E00040405040569547953795279580E12030B0
:1050F000380720F0DD2011F0DD24D6CFE889F989CA
:105100003083EA89FB89208319A2EE89FF894081D7
:1051100021E030E0C9010C8C02C0880F991F0A946D
:10512000E2F7482B4083EE89FF894081C9010D8C4D
:1051300002C0880F991F0A94E2F7482B4083EE893A
:10514000FF894081C9010E8C02C0880F991F0A9403
:10515000E2F7482B4083EE89FF8980810F8C02C0E3
:10516000220F331F0A94E2F7209528232083DF9132
:10517000CF911F910F91FF90EF90DF90BF90AF9074
:105180000895DC011C96ED91FC911D97E05CFF4FAA
:105190002191319180819181281B390B2F733070BF
:1051A000C9010895DC011C96ED91FC911D97E05C0E
:1051B000FF4F20813181E054F040DF01AE5BBF4FF3
:1051C0008D919C9111972817390719F42FEF3FEF14
:1051D00007C08D919C91E80FF91F8081282F30E046
:1051E000C9010895DC011C96ED91FC911D97E05CCE
:1051F000FF4F20813181E054F040DF01AE5BBF4FB3
:105200008D919C9111972817390719F42FEF3FEFD3
:1052100010C08D919C911197E80FF91F20818D91FD
:105220009C91119701968F73907011969C938E9319
:1052300030E0C9010895DC0191968C919197882303
:1052400039F05496ED91FC915597808186FFF9CF06
:1052500091961C920895CF93DF93EC01EE85FF8524
:10526000E05CFF4F20813181E054F0402F5F3F4FE1
:105270002F733070DF01AE5BBF4F8D919C91119702
:1052800028173907D1F3E05CFF4F80819181E0540A
:10529000F040E80FF91F6083EE85FF85E05CFF4F6B
:1052A00031832083EE89FF89208181E090E00F8C9B
:1052B00002C0880F991F0A94E2F7282B208381E00F
:1052C00089A3EC89FD8980818064808381E090E0FE
:1052D000DF91CF9108951092E1061092E00688EEDA
:1052E00093E0A0E0B0E08093E2069093E306A09301
:1052F000E406B093E50684E991E09093DF0680939D
:10530000DE0686E596E09093EB068093EA068AE94E
:1053100096E09093ED068093EC0685EC90E09093F8
:10532000EF068093EE0684EC90E09093F106809374
:10533000F00680EC90E09093F3068093F20681EC07
:1053400090E09093F5068093F40682EC90E09093C1
:10535000F7068093F60686EC90E09093F90680932A
:10536000F80684E08093FA0683E08093FB0687E0EA
:105370008093FC0685E08093FD0681E08093FE0625
:105380000895CF93DF930E946D260E94950ACCEE7C
:10539000D7E20E9496082097E1F30E94EC27F9CF0C
:1053A000CF92DF92EF92FF920F931F93CF93DF93F1
:1053B0007C016B018A01C0E0D0E00FC0D6016D9185
:1053C0006D01D701ED91FC910190F081E02DC701B5
:1053D0000995C80FD91F015010400115110571F72B
:1053E000CE01DF91CF911F910F91FF90EF90DF9051
:1053F000CF900895EF92FF920F931F93CF93DF9377
:105400007C018B01C0E0D0E0F8010F5F1F4F649179
:10541000662359F0D701ED91FC910190F081E02DC8
:10542000C7010995C80FD91FEFCFCE01DF91CF91EA
:105430001F910F91FF90EF900895DC01ED91FC9189
:105440000190F081E02D09950895EF92FF920F935E
:105450001F938C01DC01ED91FC910190F081E02D16
:105460006DE009957C01D801ED91FC910190F081EE
:10547000E02DC8016AE009959C012E0D3F1DC90170
:105480001F910F91FF90EF900895EF92FF920F936D
:105490001F937C010E94FA298C01C7010E94252AD2
:1054A0009C01200F311FC9011F910F91FF90EF90B8
:1054B0000895CF93DF93EC016115710519F420E095
:1054C00030E00FC0DB010D900020E9F71197A61B1B
:1054D000B70BE881F9810280F381E02DAD010995D8
:1054E0009C01C901DF91CF9108954F925F927F9205
:1054F0008F929F92AF92BF92CF92DF92EF92FF92E4
:105500000F931F93DF93CF93CDB7DEB7A1970FB65D
:10551000F894DEBF0FBECDBF2C01742ECB0122301C
:1055200008F42AE019A231E2C32ED12CCC0EDD1EE4
:10553000822E9924AA24BB24672D752FA5019401DE
:105540000E94AE2E79018A01C801B701A50194011C
:105550000E947B2E472D461B0894C108D1084A3073
:1055600014F4405D01C0495CF6014083E114F1048C
:105570000105110521F07E2C5F2DC801DDCFC20190
:10558000B6010E94592AA1960FB6F894DEBF0FBE4D
:10559000CDBFCF91DF911F910F91FF90EF90DF90E2
:1055A000CF90BF90AF909F908F907F905F904F90E3
:1055B0000895DC012115310541F4ED91FC91019034
:1055C000F081E02D642F099508950E94752A0895B1
:1055D000CF92DF92EF92FF920F931F936C017B01AA
:1055E0009A0100E010E0B801A7010E94D92A8C01BD
:1055F000C6010E94252A080F191FC8011F910F918B
:10560000FF90EF90DF90CF900895EF92FF920F936D
:105610001F939A01E62EFF2400E010E0B801A701D5
:105620000E94D92A1F910F91FF90EF900895CF9279
:10563000DF92EF92FF920F931F93CF93DF93EC01D2
:105640006A017B012115310541F4E881F98101905E
:10565000F081E02D642F09951FC02A303105D1F467
:1056600077FF17C0E881F9810190F081E02D6DE2AC
:1056700009958C0144275527BA014C195D096E091B
:105680007F09CE012AE00E94752A9801280F391F50
:1056900004C02AE00E94752A9C01C901DF91CF91C4
:1056A0001F910F91FF90EF90DF90CF9008950E948F
:1056B000592A08957F928F929F92AF92BF92CF9274
:1056C000DF92EF92FF920F931F93CF93DF934C01E2
:1056D0007A018B01722ECB01BA01A80197010E94B9
:1056E000772E882321F0C40163E271E021C0C0E07D
:1056F000D0E057016801E894D7F8C601B5012FEF53
:105700003FEF4FE75FE70E94772E882351F4C601F1
:10571000B5012FEF3FEF4FE75FE70E94C12C18164E
:1057200014F0C1E0D0E0219739F0C40167E271E0E4
:105730000E94592AEC0193C0C801B7012FEF3FEF37
:105740004FE75FE40E94102E181654F0C801B7010D
:105750002FEF3FEF4FE75FEC0E94C12C882324F42A
:10576000C4016BE271E0E4CFC801B70120E030E092
:1057700040E050E00E94C12C87FD03C0C0E0D0E0B3
:105780000EC0D401ED91FC910190F081E02DC40197
:105790006DE20995EC0117FB109517F9109520E0C3
:1057A00030E040E05FE3DD240BC0CA01B90120E036
:1057B00030E040E251E40E94C52C9B01AC01D3943F
:1057C000D71498F3C801B7010E945D2C5B016C01EE
:1057D0000E94322D7B018C01C401B801A7012AE08F
:1057E00030E00E94D92AC80FD91F772039F0C401B0
:1057F0006FE271E00E94592AC80FD91FC801B70192
:105800000E945E2D9B01AC01C601B5010E945C2C7B
:1058100024C020E030E040E251E40E94142E7B01DD
:105820008C010E942D2D5B016C01CC24B7FCC0942F
:10583000DC2CC401B601A5012AE030E00E94172B40
:10584000C80FD91FC601B5010E94602D9B01AC0194
:10585000C801B7010E945C2C7A947720D1F6CE0162
:10586000DF91CF911F910F91FF90EF90DF90CF903C
:10587000BF90AF909F908F907F9008950E945A2B79
:105880000895EF92FF920F931F937C010E94592A73
:105890008C01C7010E94252A080F191FC8011F91FA
:1058A0000F91FF90EF900895009729F0BC0180E0E0
:1058B00090E00E94530308955058BB27AA270ED0AA
:1058C00075C166D130F06BD120F031F49F3F11F4F7
:1058D0001EF45BC10EF4E095E7FB51C1E92F77D1CF
:1058E00080F3BA17620773078407950718F071F4FD
:1058F0009EF58FC10EF4E0950B2EBA2FA02D0B0153
:10590000B90190010C01CA01A0011124FF27591B04
:1059100099F0593F50F4503E68F11A16F040A22F0A
:10592000232F342F4427585FF3CF4695379527957B
:10593000A795F0405395C9F77EF41F16BA0B620B7A
:10594000730B840BBAF09150A1F0FF0FBB1F661FC1
:10595000771F881FC2F70EC0BA0F621F731F841F04
:1059600048F4879577956795B795F7959E3F08F02A
:10597000B3CF9395880F08F09927EE0F97958795E9
:105980000895D9D008F481E008950CD00FC107D153
:1059900040F0FED030F021F45F3F19F0F0C051111B
:1059A00039C1F3C014D198F39923C9F35523B1F346
:1059B000951B550BBB27AA2762177307840738F07E
:1059C0009F5F5F4F220F331F441FAA1FA9F333D0DD
:1059D0000E2E3AF0E0E830D091505040E695001C91
:1059E000CAF729D0FE2F27D0660F771F881FBB1F4D
:1059F000261737074807AB07B0E809F0BB0B802D27
:105A0000BF01FF2793585F4F2AF09E3F510568F072
:105A1000B6C000C15F3FECF3983EDCF38695779506
:105A20006795B795F7959F5FC9F7880F911D969574
:105A3000879597F90895E1E0660F771F881FBB1FD0
:105A4000621773078407BA0720F0621B730B840B7D
:105A5000BA0BEE1F88F7E095089504D06894B11151
:105A6000D9C00895BCD088F09F5790F0B92F9927DE
:105A7000B751A0F0D1F0660F771F881F991F1AF059
:105A8000BA95C9F712C0B13081F0C3D0B1E0089522
:105A9000C0C0672F782F8827B85F39F0B93FCCF3A3
:105AA000869577956795B395D9F73EF4909580954F
:105AB000709561957F4F8F4F9F4F0895E89409C06F
:105AC00097FB3EF490958095709561957F4F8F4F31
:105AD0009F4F9923A9F0F92F96E9BB279395F69547
