:100000000C9403010C94BA160C94E7160C9434016A
:100010000C9434010C9434010C9434010C9434018C
:100020000C9434010C9434010C9434010C9434017C
:100030000C9434010C9434010C9434010C9434016C
:100040000C9490150C9434010C946F180C94BD18FA
:100050000C9434010C9434010C9434010C9434014C
:100060000C9488070C9434013A0030005472616E8D
:10007000736D6974746564205061636B65743A20B4
:10008000002E2E2E20496E636F6E63656976616265
:100090006C6521005472616E736D697420537461D4
:1000A0007465203D2000536F6D657468696E67202C
:1000B00069732074616B696E67206C6F6E6765721F
:1000C000207468616E2065787065637465642C20A7
:1000D000526573657474696E6700526574727969EC
:1000E0006E6700417373756D696E67207072657617
:1000F000696F75736C792070616972656420426103
:1001000073652053746174696F6E00506169726920
:100110006E67204661696C656400426173652053B7
:10012000746174696F6E20416464726573733A2000
:100130000050616972696E672053756363657373FC
:1001400066756C004C61737420506169726564203F
:10015000426173653A2000556E697420416464728F
:100160006573733A20000A5B416972205175616CB6
:1001700069747920456767202D2052656D6F74651D
:10018000202D2076322E30325D004F7665727772E8
:100190006974696E6720454550524F4D0053656E36
:1001A000742041434B0000000000240027002A0077
:1001B00000000000250028002B00000000002300A4
:1001C00026002900040404040404040402020202B8
:1001D000020203030303030301020408102040800A
:1001E000010204081020010204081020000000078A
:1001F00000020100000304060000000000000000EF
:10020000FF012406291A11241FBECFEFD8E0DEBF5C
:10021000CDBF14BE88E10FB6F894809360001092B1
:1002200060000FBE11E0A0E0B1E0E0EAFAE302C036
:1002300005900D92A436B107D9F713E0A4E6B1E01A
:1002400001C01D92AE3CB107E1F712E0C6E0D2E07A
:1002500004C02297FE010E94131DC030D107C9F7C8
:100260000E94871A0C944E1D0C940000A0E0B0E090
:10027000ECE3F1E00C941F1DEC01A880B980CA806A
:10028000DB80A114B104C104D10441F484E2A82E9E
:1002900089EDB82E8BE5C82E87E0D82EC601B501B2
:1002A0002DE133EF41E050E00E94F61C27EA31E4F3
:1002B00040E050E00E94B51C7B018C01C601B501F5
:1002C0002DE133EF41E050E00E94F61CCA01B90174
:1002D0002CEE34EF4FEF5FEF0E94B51C6E0D7F1DCB
:1002E000801F911F97FF04C061507040804090486C
:1002F000688379838A839B839B01AC015F77B90113
:10030000CA01CDB7DEB7EAE00C943B1D0E9436016E
:10031000089588E191E00E943601089560931801E4
:100320007093190180931A0190931B010895FB01AA
:10033000DC0104C08D910190801921F4415050409E
:10034000C8F7881B990B0895FB01DC0102C00190DE
:100350000D9241505040D8F70895FB01DC010D90FB
:100360000020E9F7119701900D920020E1F7089520
:10037000FB01DC014150504048F001900D920020FB
:10038000C9F701C01D9241505040E0F70895A0E028
:10039000B0E0EDECF1E00C94211D7C01EB018A0151
:1003A000690109C0CE012196F6010995F7018193F3
:1003B0007F010150104001151105A1F7CDB7DEB73F
:1003C000E8E00C943D1DA0E0B0E0E9EEF1E00C9413
:1003D000211DEC017B018A01690109C0CE01219632
:1003E000F70161917F01F601099501501040011557
:1003F0001105A1F7CDB7DEB7E8E00C943D1D0F93D2
:100400001F930EEF11E085E891E0B8010E94F91208
:1004100086E891E00E94130E8DE991E0B8010E94F8
:100420007D0F81EF91E061E146E10E9424131F916D
:100430000F910895EF92FF920F931F9381EF91E038
:1004400060E00E9438147B018C019701A8010E9492
:10045000B11C8823B9F064EC79E080E090E00E9460
:10046000E61581EF91E060E00E9438147B018C0179
:100470009701A8010E94B11C882321F0EE24FF24DB
:1004800000E81FEBB701C8011F910F91FF90EF909B
:100490000895EF92FF920F931F9381EF91E00E94D6
:1004A000E1137B018C019701A8010E94B11C8823F4
:1004B000A9F064EC79E080E090E00E94E61581EF1D
:1004C00091E00E94E1139B01AC010E94B11C8823C2
:1004D00009F406C0EE24FF2400E81FEBB701C801B1
:1004E0001F910F91FF90EF900895EF92FF920F935D
:1004F0001F9386E891E0609164010E94440B7B01A8
:100500008C01A5E6B1E0E0E0F0E080E201900D9220
:100510008150E1F786E891E0609164010E948E0DC0
:10052000BC0185E691E044E150E00E94B80185E617
:1005300091E060E071E00E94AD018DE991E063E33C
:100540000E943A0E86E891E00E94A00D682F8DE986
:1005500091E070E00E943D0E8DE991E06EEF71E058
:100560000E949A0E86E891E00E94BE0DBC018DE9C2
:1005700091E00E94910E8DE991E0609164010E94EA
:10058000410E8DE991E065E671E00E94840E8DE9EF
:1005900091E064E071E00E94770E8DE991E0B8018E
:1005A000A7010E94440E1F910F91FF90EF900895B4
:1005B000A5E6B1E0E0E0F0E080E201900D9281502C
:1005C000E1F785E691E06EE271E044E150E00E94DF
:1005D000B8018DE991E063E30E943A0E8DE991E064
:1005E00061E270E00E943D0E8DE991E06EEF71E0F6
:1005F0000E949A0E8DE991E06EEF71E00E94910EDB
:100600008DE991E061E00E94410E8DE991E06EE29A
:1006100071E00E94840E8DE991E067E371E00E9431
:10062000770E0E9449020E94671BAB01BC018DE955
:1006300091E00E94440E0895A5E6B1E0E0E0F0E00C
:1006400080E201900D928150E1F785E691E06CE146
:1006500071E044E150E00E94B8018DE991E063E36C
:100660000E943A0E8DE991E061E270E00E943D0E39
:100670008DE991E06EEF71E00E949A0E8DE991E0B4
:100680006EEF71E00E94910E8DE991E060E00E94B2
:10069000410E8DE991E06CE171E00E94840E8DE9DC
:1006A00091E068E271E00E94770E0E941A020E94B7
:1006B000671BAB01BC018DE991E00E94440E0895D7
:1006C000CF92DF92EF92FF920F931F9396E8C92E7D
:1006D00091E0D92EC601609164010E948E0DBC018B
:1006E00085E6E82E81E0F82EC70144E150E00E9443
:1006F000B801C70169E071E00E94AD010DE911E0A8
:10070000C80163E30E943A0EC6010E94A00D682F43
:10071000C80170E00E943D0EC8016EEF71E00E94BA
:100720009A0EC6010E94BE0DBC01C8010E94910E26
:10073000C801609164010E94410EC801B7010E9486
:10074000840EC80164E071E00E94770EC6016091DA
:1007500064010E94CC0A0E946C1BAB01BC01C80161
:100760000E94440E1F910F91FF90EF90DF90CF9069
:100770000895EF92FF920F931F93A5E6B1E0E0E09A
:10078000F0E080E201900D928150E1F786E891E07F
:10079000609164010E948E0DBC0185E691E044E108
:1007A00050E00E94B8018DE991E063E30E943A0EA7
:1007B00086E891E00E94A00D682F8DE991E070E03D
:1007C0000E943D0E8DE991E06EEF71E00E949A0E5D
:1007D00086E891E00E94BE0DBC018DE991E00E9487
:1007E000910E8DE991E0609164010E94410E86E8CE
:1007F00091E0609164010E948E0DBC018DE991E051
:100800000E94840E86E891E0609164010E947C0D54
:10081000BC018DE991E00E94770E86E891E060913D
:1008200064010E94220C7B018C0120E030E040E05A
:1008300050E00E94FB1A882354F40F2EF0E0EF2EB4
:10084000F0E0FF2EF0E00F2FF0E01F2FF02DC80199
:10085000B7010E94671BAB01BC018DE991E00E94CA
:10086000440E1F910F91FF90EF9008951F93CF9327
:10087000DF93EC0110E088818A3030F48CEA93E059
:100880006AE670E00E9460178CEA93E0688140E1BC
:1008900050E00E944618153031F08CEA93E068E68B
:1008A00070E00E9460171F5F2196163021F78CEAD6
:1008B00093E00E948317DF91CF911F910895AF922B
:1008C000BF92CF92DF92EF92FF920F931F930E94FD
:1008D000D8155B016C01809139018130B9F08091AC
:1008E000EB019091EC01A091ED01B091EE01860138
:1008F0007501E81AF90A0A0B1B0B8DE991E00E94B9
:10090000590E6E157F0580079107A8F580913A0171
:100910008430E1F08CEA93E066EA70E00E94A3176D
:100920008CEA93E00E94D91968EE73E080E090E0D1
:100930000E94E61528E088E190E00FB6F894A895AB
:10094000809360000FBE20936000FFCF10923901AA
:10095000A092EB01B092EC01C092ED01D092EE01B9
:100960001092F0011092EF0181E080933A0186E845
:1009700091E00E9437098091EF019091F001892B5D
:1009800009F07AC080913A018230B1F0833020F4CE
:10099000813009F05DC006C0833021F1843009F058
:1009A00057C06AC00E941C0381E090E09093F00160
:1009B0008093EF0182E013C00E94D80281E090E0B2
:1009C0009093F0018093EF011092640186E891E02A
:1009D0000E94CE0D882311F083E001C084E0809353
:1009E0003A014AC01091640186E891E00E94AF0D7F
:1009F000181700F580919C01882321F40E94600360
:100A000082E005C0823031F40E94750281E080935B
:100A10009C0109C00E94B90310929C01809164015D
:100A20008F5F8093640181E090E09093F001809368
:100A3000EF0122C086E891E00E94CE0D882319F0D4
:100A40001092640119C01092F0011092EF01C6CF0C
:100A50008CEA93E064E970E00E9460178CEA93E00E
:100A600060913A014AE050E00E9446188CEA93E017
:100A700061E870E00E94A3178DE991E00E94B20E38
:100A8000882301F18091EF019091F001892BD1F041
:100A90008DE991E00E94A30E1092F0011092EF01F7
:100AA0008CEA93E06CE670E00E9460178CEA93E0B9
:100AB00065E671E00E945B1868E873E180E090E011
:100AC0000E94E6151F910F91FF90EF90DF90CF905D
:100AD000BF90AF90089580E00E9414170E947F1A83
:100AE0008DE991E040EC54ED61E070E00E94610E10
:100AF0008CEA93E040E052EC61E070E00E94F8186C
:100B00008CEA93E066E671E00E94A3178CEA93E01A
:100B100067E571E00E9460178EEF91E00E94360455
:100B20008CEA93E064E471E00E9460178DE991E043
:100B30000E94350E0E9436048DE991E00E94B70EA6
:100B40008823C9F08CEA93E061E371E00E94A31767
:100B50008CEA93E06AE171E00E9460178DE991E010
:100B60000E94350E0E94360460E177E280E090E05A
:100B70000E94E6151AC08CEA93E06BE071E00E94D7
:100B8000A3178DE991E00E94690E882339F08CEA61
:100B900093E063EE70E00E94A31707C08CEA93E035
:100BA0006AED70E00E94A317C7CF0E94D81560932A
:100BB000EB017093EC018093ED019093EE010895A9
:100BC00081E08093490260932602109247021092BE
:100BD0004802089581E080934902609326021092B2
:100BE00047021092480208952091250230E080913A
:100BF0002402281B3109C9010895409124028091E3
:100C00002502481718F02FEF3FEF0AC0E42FF0E05D
:100C1000EC5FFD4F8081282F30E04F5F409324022E
:100C2000C9010895E091240280912502E81718F087
:100C3000EFEFFFEF06C0F0E0EC5FFD4F8081E82FA3
:100C4000F0E0CF010895089510924D0210924C02E9
:100C500088EE93E0A0E0B0E080934E0290934F02C4
:100C6000A0935002B093510281E491E090934B0223
:100C700080934A020895CF92DF92EF92FF920F93F2
:100C80001F93CF93DF937C016B018A01809149020E
:100C90008823A1F0C0E0D0E00DC0D701ED91FC9118
:100CA000D601AC0FBD1F0190F081E02DC7016C9102
:100CB00009952196C017D10780F304C0CB01642F9A
:100CC0000E946D07C801DF91CF911F910F91FF9096
:100CD000EF90DF90CF900895DF93CF930F92CDB731
:100CE000DEB7FC016983809149028823C9F08091B5
:100CF0004802803238F081E090E09383828320E0E4
:100D000030E015C080914702E82FF0E0E95DFD4F2B
:100D1000998190838F5F809347028093480205C03A
:100D2000CE01019661E00E946D0721E030E0C9012B
:100D30000F90CF91DF9108950F93062F8091260297
:100D400067E272E04091480221E00E941807109289
:100D5000470210924802109249020F91089561E0F3
:100D60000E949C060895413208F040E2862F64E01C
:100D700072E00E94CF06109224028093250208950B
:100D800021E00E94B30608951092240210922502D9
:100D900010924702109248020E9419090895382FB4
:100DA000413210F040E042C0809156028823E1F7C2
:100DB00091E090935602209358028FEF8093C302E4
:100DC00010927E02415040937F024F5F90935702F2
:100DD00080915702330F832B8093570280915902E1
:100DE000813041F410925902809157028093BB00E8
:100DF00085EC01C085EE8093BC0080915602813065
:100E0000E1F380917E02841710F440917E0220E08D
:100E100030E00AC0FB01E20FF31FD901A25ABD4F17
:100E20008C9180832F5F3F4F2417A0F3842F089568
:100E30000F931F93582F122F413210F081E04AC0B8
:100E4000809156028823E1F782E080935602009356
:100E500058028FEF8093C30210927E0240937F026C
:100E6000AEE5B2E0FB0102C081918D938E2F861B0F
:100E70008417D0F31092570280915702550F852B9B
:100E80008093570280915902813041F410925902A7
:100E9000809157028093BB0085EC01C085EE809362
:100EA000BC00112321F0809156028230E1F3809141
:100EB000C3028F3F11F480E00DC08091C3028032E5
:100EC00011F482E007C08091C302803311F084E006
:100ED00001C083E01F910F910895482F613210F0F7
:100EE00081E0089580915602843011F082E00895E7
:100EF0006093A102A0E8B2E0842F9C01F90102C036
:100F000081918D938E2F841B8617D0F380E00895F6
:100F10001F920F920FB60F9211242F933F934F936E
:100F20005F936F937F938F939F93AF93BF93EF9351
:100F3000FF938091B90090E0887F90708036910592
:100F400009F4F2C081369105CCF58832910509F497
:100F50007BC089329105B4F48031910509F46FC0EA
:100F6000813191053CF4009709F447C1089709F0D5
:100F70004FC165C08831910509F466C0809709F0BA
:100F800047C182C08034910509F4A4C08134910521
:100F900044F48033910509F482C0C89709F038C140
:100FA00089C08035910509F489C08835910509F417
:100FB00096C08834910509F02BC1AEC088399105DF
:100FC00009F413C189399105ECF48837910509F4C6
:100FD000ABC0893791054CF48836910509F4A4C05B
:100FE0008037910509F014C19FC08838910509F434
:100FF000FCC08039910509F49DC08038910509F045
:1010000007C198C0803B910509F4C6C0813B91059A
:101010004CF4803A910509F49FC0883A910509F093
:10102000F7C0BAC0803C910509F4E3C0883C910543
:1010300009F4DFC0883B910509F0EAC0C2C0809185
:1010400057028093BB00CFC090917E0280917F02B7
:10105000981768F490917E02E92FF0E0E25AFD4F74
:1010600080818093BB009F5F90937E02BCC0809183
:101070005802882309F44BC085ED8093BC00809111
:10108000BC0084FDFCCFC2C080E28093C30285ED2A
:101090008093BC008091BC0084FDFCCFB7C080E38E
:1010A0008093C30285ED8093BC008091BC0084FDD9
:1010B000FCCFACC088E38093C3029BC080917E02CA
:1010C0009091BB00E82FF0E0E25AFD4F90838F5FD4
:1010D00080937E0290917E0280917F0282C08091F7
:1010E0007E029091BB00E82FF0E0E25AFD4F908322
:1010F0008F5F80937E0280915802882341F085EDB6
:101100008093BC008091BC0084FDFCCF7FC081E057
:101110008093590284EA6EC085ED8093BC00809173
:10112000BC0084FDFCCF72C083E080935602109215
:10113000C20259C08091C202803208F056C080912C
:10114000C2029091BB00E82FF0E0EE55FD4F908376
:101150008F5F8093C20247C08091C202803230F418
:10116000E091C202F0E0EE55FD4F108285ED8093D4
:10117000BC008091BC0084FDFCCF109256026091AF
:10118000C202E0915C02F0915D0282EA92E070E0BE
:1011900009951092C2022DC084E0809356021092ED
:1011A000A0021092A102E0915A02F0915B0209950F
:1011B0008091A102882329F481E08093A1021092FA
:1011C00080029091A002E92FF0E0E058FD4F80816D
:1011D0008093BB009F5F9093A0029091A0028091AA
:1011E000A102981710F485EC01C085E88093BC003B
:1011F0000FC085EC8093BC0009C01092C30285ED3E
:101200008093BC008091BC0084FDFCCF10925602FC
:10121000FF91EF91BF91AF919F918F917F916F91CE
:101220005F914F913F912F910F900FBE0F901F90A4
:1012300018951092560281E080935802109259023C
:1012400082E161E00E94E91483E161E00E94E91417
:10125000E9EBF0E080818E7F808380818D7F8083C9
:1012600088E48093B80085E48093BC000895FC0175
:101270001082118208951F93613011F414E005C0AB
:10128000623011F415E001C010E08AE492E060E7FA
:1012900070E00E94EA058AE492E0612F0E946C06E9
:1012A0008AE492E00E94AF061F9108951F93CF93A6
:1012B000DF93EA018AE492E0422F0E94C00610E028
:1012C00009C08AE492E00E94FD05FE01E10FF11DD4
:1012D00080831F5F8AE492E00E94F405892B89F7DE
:1012E000DF91CF911F910895EF92FF920F931F937B
:1012F0007A010AE412E0C8010E94E005C80161E138
:101300000E946C06C8016F2D0E946C06C8016E2DEC
:101310000E946C06C8010E94AF061F910F91FF90BA
:10132000EF900895EF92FF920F931F938C01F62E8A
:10133000E22E0E94740961E070E080E090E00E947B
:10134000E615C8016F2D0E5F1F4FA8012E2D0E94BC
:10135000560961E070E080E090E00E94E6151F9180
:101360000F91FF90EF9008956F927F928F929F92CE
:10137000AF92BF92CF92DF92EF92FF920F931F93A3
:101380005C014A013901562F40E0445B5F4FD501B3
:1013900011966C9124E10E949209F501828190E0FE
:1013A000A0E0B0E0BA2FA92F982F8827238130E042
:1013B00040E050E0282B392B4A2B5B2B542F432F36
:1013C000322F2227848190E0A0E0B0E0282B392B37
:1013D0004A2B5B2B542F432F322F2227858190E0FD
:1013E000A0E0B0E0282B392B4A2B5B2BD4012D93A6
:1013F0003D934D935C9313973696D50116968C9139
:1014000090E0A0E0B0E0BA2FA92F982F8827218183
:1014100030E040E050E0282B392B4A2B5B2B542F37
:10142000432F322F2227828190E0A0E0B0E0282BCA
:10143000392B4A2B5B2B542F432F322F22278381AA
:1014400090E0A0E0B0E0282B392B4A2B5B2BF30176
:101450002083318342835383F5013A96D5011A964E
:101460008C9190E0A0E0B0E0BA2FA92F982F8827A8
:10147000218130E040E050E0282B392B4A2B5B2BB8
:10148000542F432F322F2227828190E0A0E0B0E03A
:10149000282B392B4A2B5B2B542F432F322F2227FB
:1014A000838190E0A0E0B0E0282B392B4A2B5B2B06
:1014B000F8012083318342835383F5013E96D501A1
:1014C0001E968C9190E0A0E0B0E0BA2FA92F982F43
:1014D0008827218130E040E050E0282B392B4A2B2F
:1014E0005B2B542F432F322F2227828190E0A0E0E4
:1014F000B0E0282B392B4A2B5B2B542F432F322F54
:101500002227838190E0A0E0B0E0282B392B4A2BE2
:101510005B2BF7012083318342835383F50172965D
:10152000D50152968C9190E0A0E0B0E0BA2FA92F9F
:10153000982F8827218130E040E050E0282B392B7C
:101540004A2B5B2B542F432F322F2227828190E08E
:10155000A0E0B0E0282B392B4A2B5B2B542F432FD4
:10156000322F2227838190E0A0E0B0E0282B392B96
:101570004A2B5B2BF60120833183428353831F91D7
:101580000F91FF90EF90DF90CF90BF90AF909F9022
:101590008F907F906F900895AF92BF92CF92DF921D
:1015A000EF92FF920F931F93DF93CF93CDB7DEB7E8
:1015B00064970FB6F894DEBF0FBECDBFAE014F5F8C
:1015C0005F4F9E012B5F3F4F8E01075F1F4FEDE086
:1015D000EE2EF12CEC0EFD1E71E1C72ED12CCC0E9F
:1015E000DD1E0E94B40969817A818B819C810E94F1
:1015F000981B7B018C0169897A898B899C890E945F
:10160000981B9B01AC01C801B7010E94FF1A7B0126
:101610008C016D857E858F8598890E94981B9B0122
:10162000AC01C801B7010E944E1C5B016C016985C9
:101630007A858B859C850E94981BA60195010E9446
:10164000961A7B018C016D817E818F8198850E9425
:10165000981B9B01AC01C801B7010E944E1CA6015A
:1016600095010E94FF1A64960FB6F894DEBF0FBE74
:10167000CDBFCF91DF911F910F91FF90EF90DF9041
:10168000CF90BF90AF9008950F931F938C01562F6A
:1016900040E0405C5F4FF801618124E00E949209C4
:1016A000F801828190E0A0E0B0E0BA2FA92F982F36
:1016B0008827238130E040E050E0282B392B4A2B4B
:1016C0005B2B542F432F322F2227848190E0A0E000
:1016D000B0E0282B392B4A2B5B2B542F432F322F72
:1016E0002227858190E0A0E0B0E0282B392B4A2BFF
:1016F0005B2BB901CA011F910F910895EF92FF92E0
:101700000F931F93CF93DF93EC01E62F7901F0E065
:1017100055E0EE0FFF1F5A95E1F7E40FF11D3B96E0
:1017200033E0EE0FFF1F3A95E1F76981AF0122E048
:101730000E9492098A81F70180838B81F80180835E
:101740008A818F3F11F420E005C020E08B818F3F1C
:1017500009F021E0822FDF91CF911F910F91FF902F
:10176000EF9008950F931F938C01562F40E0405B3C
:101770005F4FF801618124E00E949209F801228103
:1017800030E040E050E0542F432F322F2227638176
:1017900070E080E090E0622B732B842B952B982FC8
:1017A000872F762F6627248130E040E050E0622BBF
:1017B000732B842B952B982F872F762F66272581C7
:1017C00030E040E050E0622B732B842B952B1F916F
:1017D0000F9108950F931F938C01562F40E0485BA3
:1017E0005F4FF801618124E00E949209F801228193
:1017F00030E040E050E0542F432F322F2227638106
:1018000070E080E090E0622B732B842B952B982F57
:10181000872F762F6627248130E040E050E0622B4E
:10182000732B842B952B982F872F762F6627258156
:1018300030E040E050E0622B732B842B952B1F91FE
:101840000F9108952F923F924F925F926F927F92E5
:101850008F929F92AF92BF92CF92DF92EF92FF92C0
:101860000F931F93DF93CF93CDB7DEB76D970FB66E
:10187000F894DEBF0FBECDBF9C8F8B8F6D8F0E9403
:10188000EA0B6F8B788F898F9A8F8B8D9C8D6D8DE6
:101890000E94B20B6B8B7C8B8D8B9E8B8B8D9C8D6A
:1018A0006D8D0E94CC0A7B018C018B8D9C8D6D8D82
:1018B0000E94440B0E94981B9B01AC01C801B70118
:1018C0000E94FF1A5B016C01EE2480E090E0A0E032
:1018D000B0E08F87988BA98BBA8B8B879C87AD875D
:1018E000BE878F839887A987BA878B839C83AD83B4
:1018F000BE83A2C0698170E0882777FD8095982F0C
:101900000E949A1B9B01AC016F89788D898D9A8DFD
:101910000E944E1C1B012C016A8170E0882777FD14
:101920008095982F0E949A1B9B01AC016B897C8942
:101930008D899E890E944E1C3B014C01C201B10160
:10194000A60195010E94FB1A882309F4B2C0E39412
:1019500091E0E916A1F4C201B101A60195010E942E
:101960004A1C18160CF050C0C401B301A201910129
:101970000E94FF1AA60195010E944E1C98C0A1E08A
:10198000AE1508F041C0C201B101A60195010E9447
:101990004A1C1816CCF5C601B5012F85388949892E
:1019A0005A890E944A1C18167CF5C601B5012F857C
:1019B000388949895A890E94961A5B016C01C401D1
:1019C000B3012B853C854D855E850E94961A7B016F
:1019D0008C01C201B1012F85388949895A890E9439
:1019E000961A9B01AC01C801B7010E94FF1A9B0126
:1019F000AC01C601B5010E944E1C9B01AC016B8578
:101A00007C858D859E8551C08B859C85AD85BE85E9
:101A10008B839C83AD83BE838F859889A989BA897E
:101A20008F839887A987BA876B867C868D869E86EA
:101A30002F86388A498A5A8A8B8D9C8D6D8D4E2DC2
:101A40009E012F5F3F4F8E010E5F1F4F0E947E0B46
:101A5000882309F04FCFC401B3012B813C814D8114
:101A60005E810E94961A7B018C01C201B1012F8117
:101A7000388549855A850E94961A9B01AC01C80198
:101A8000B7010E94FF1A7B018C01C601B501A201BA
:101A900091010E94961A9B01AC01C801B7010E94F6
:101AA0004E1C9B01AC01C401B3010E94971A3B017B
:101AB0004C01B301C4016D960FB6F894DEBF0FBEA2
:101AC000CDBFCF91DF911F910F91FF90EF90DF90ED
:101AD000CF90BF90AF909F908F907F906F905F90CE
:101AE0004F903F902F900895FC01618140E050E0BD
:101AF00021E00E94920908950F931F938C01562FA5
:101B000040E0405D5F4FF801618120E10E94920951
:101B10000E5F1F4FC8011F910F9108950F931F93E0
:101B20008C01562F40E0405E5F4FF801618120E15B
:101B30000E9492090E5F1F4FC8011F910F910895D7
:101B40000F931F938C01F801618147E050E024E07E
:101B50000E949209F80185811F910F9108950F93BA
:101B60001F938C01F801618140E050E021E00E9468
:101B70009209F80182811F910F9108950F931F938D
:101B80008C01F801618141E050E026E00E94920959
:101B90000E5F1F4FC8011F910F910895AF92BF9222
:101BA000DF92EF92FF920F931F93DF93CF930F92E9
:101BB000CDB7DEB77C011982FC01D0805E010894AC
:101BC000A11CB11C20C0C7010E94740DC7016D2D5E
:101BD0000E943B09F701118112C0103781F0812F5B
:101BE000B50140E021E000E00E941807882339F4A5
:101BF000F701D0821183C7010E94740D08C01F5FD6
:101C000017FFEBCFD394F2E0FD15E8F610E0812F3B
:101C10000F90CF91DF911F910F91FF90EF90DF9088
:101C2000BF90AF9008950F931F938C018AE492E0C8
:101C30000E94C406F801108211821F910F9108952D
:101C40009C01F999FECF32BD21BDF89A80B5089567
:101C50009C01F999FECF1FBA32BD21BD60BD0FB600
:101C6000F894FA9AF99A0FBE08959C012E5B3F4FA3
:101C7000C9010895FC0160830895FC0171836283AA
:101C80000895FC01658B0895FC01872F9927AA27E9
:101C9000BB2786ABCB01BB2797FDB095AB2F87AB9E
:101CA000BB2777FDBA95A72F962F852F80AF41AF21
:101CB0000895FC01E65BFF4F608171818281938111
:101CC0000895FC01E65BFF4F408351836283738379
:101CD00008958E5B9F4F6DE471E046E050E00E94F6
:101CE00097019C0180E0232B09F081E008950F9378
:101CF0001F938C0186964FE050E00E94B801F801D6
:101D000015AA1F910F9108950F931F938C0146966A
:101D10004FE050E00E94B801F80115A21F910F9109
:101D20000895DC011F96FB0186E001900D92815021
:101D3000E1F70895DC011996FB0186E001900D9210
:101D40008150E1F70895BC01DC011396FC01EE5BC4
:101D5000FF4F86E001900D928150E1F74AE30E9427
:101D60007E1108950E9494100E94231108953F92BD
:101D70004F925F926F927F928F929F92AF92BF929B
:101D8000CF92DF92EF92FF920F931F93DF93CF9347
:101D900000D000D000D0CDB7DEB78C0142E4A42E35
:101DA000B12CA80EB91EC5016AE270E046E050E011
:101DB00020E23EE00E94C70138010894611C711CBA
:101DC000302EE12EFF24CC24DD244E010894811C0A
:101DD000911C085B1F4F37E0432E512C4C0E5D1EAB
:101DE0000E949410882309F460C08091C4029091ED
:101DF000C502892B09F059C08091C902853509F0C7
:101E000054C0D401EAECF2E086E001900D928150DA
:101E1000E1F7D301F801808191819C01F90186E00D
:101E200001900D928150E1F768EC70E080E090E065
:101E30000E94E61502C00E9494100E94231188237C
:101E4000D1F380E0632D7E2D47E00E947E118CEA65
:101E500093E06DE971E00E94A317F401D50121E040
:101E600090818C91981320E031961196E415F50538
:101E7000B9F72223C1F48CEA93E06AE871E00E948A
:101E8000A3178AE290E0B40146E050E028E23EE089
:101E90000E94E301C5016AE270E046E050E020E202
:101EA0003EE00E94C701FF24F39461E070E080E00F
:101EB00090E00E94E6150894C11CD11CF0E1CF16F9
:101EC000F7E2DF0609F08CCF8F2D26960FB6F89437
:101ED000DEBF0FBECDBFCF91DF911F910F91FF905D
:101EE000EF90DF90CF90BF90AF909F908F907F90BA
:101EF0006F905F904F903F9008950F931F938C01C8
:101F0000065B1F4F80E69AEEA0E0B0E0F801808308
:101F10009183A283B383729362938F0181E461E022
:101F200044ED0E94C211C80106976AE270E046E0E3
:101F300050E020E23EE00E94C7011F910F910895FA
:101F4000782F8CB581608CBD65B121E030E040E038
:101F500050E000903B0104C0220F331F441F551F67
:101F60000A94D2F7522F822F8095862385B99EBD81
:101F70000DB407FEFDCF8EB57EBD0DB407FEFDCFBF
:101F80004EB5382F20E085B1582B55B98CB58E7FD2
:101F90008CBD50E0422B532BCA01089580E090E0A5
:101FA0000E94A00F80911403853009F054C080E096
:101FB00090EB0E94A00F282F80911603882371F4C4
:101FC00090911503992351F080911603E82FF0E0CA
:101FD000EA53FD4F90838F5F809316038091160321
:101FE000E82FF0E0EA53FD4F20838F5F80931603C4
:101FF0008091C4029091C5028227282F229528271C
:10200000022E269526952025022E2695202527701E
:10201000082E892F269507942795902D82270694C0
:102020002795902582279093C5028093C4028091C2
:10203000C8022091160390E0049630E082179307BF
:102040002CF080911603873408F46DC08DE092E87F
:102050000E94A00F08958091140387FF2EC0E09185
:10206000C802809114038F5F809314038150ED5F49
:10207000E80FF0E0EA53FD4FE0818091C4029091B7
:10208000C5028E27282F22952827022E26952695D1
:102090002025022E269520252770082E892F26958B
:1020A00007942795902D82270694279590258227BF
:1020B0009093C5028093C40230C0809114038F5F57
:1020C000809314038150833019F184302CF48823D9
:1020D00099F0813009F516C0893019F08A30E1F4A1
:1020E00002C0EDE21AC0E09115039091C8028EEF94
:1020F000891B8093140311C08091C4029091C50282
:10210000E82F0BC08091C4029091C502E92F05C051
:102110008DE092E80E94A00FEAEA8E2F90E08050B6
:1021200098440E94A00F089580911403853009F00F
:1021300042C08091C8022091160390E0049630E0DE
:102140008217930724F0809116038734A0F184E06E
:10215000809314038091C802833430F081E090E0D2
:102160009093C5028093C4028091C70286FF12C07B
:1021700080911303282F30E0C9018F7190704F9721
:1021800049F08091C70290E0822793278F71907069
:10219000892B89F48091C4029091C502892B09F0A2
:1021A00044C0E0911103F0911203309709F43DC04F
:1021B00080E0099546C080911403843011F080E0DE
:1021C00008951092C8028091C802809316038FEF81
:1021D0009FEF9093C5028093C402209115032223A0
:1021E000D9F08227282F22952827022E269526957A
:1021F0002025022E269520252770082E892F26952A
:1022000007942795902D822706942795902582275D
:102210009093C5028093C40285E0809314038DEDF2
:1022200092E80E94A00F80E008958FEF9FEFAFEF3C
:10223000BFEF80930D0390930E03A0930F03B09311
:10224000100381E00895809114038530A1F48091FA
:102250001603882381F41EBC0DB407FEFDCF0EB417
:1022600000FC09C08DE092E80E94A00F84E08093FA
:10227000140381E0089580E00895982F86FD05C03D
:10228000907E809113038F71980F9093C702E09115
:102290001103F0911203309711F081E009958FEF4F
:1022A0009FEF9093C5028093C4028091C4029091E5
:1022B000C502209115038227282F22952827022E58
:1022C000269526952025022E269520252770082E56
:1022D000892F269507942795902D82270694279578
:1022E000902582279093C5028093C40286E0809354
:1022F00014038DE392E80E94A00F08951F93182FF6
:102300004093C80229EC32E0C90150E00E94A401C8
:10231000812F0E943D111F91089525B181E090E029
:10232000A0E0B0E000903B0104C0880F991FAA1FF5
:10233000BB1F0A94D2F7282B25B924B1822B84B96C
:102340008AE061E00E94E9148AE061E00E94AA1438
:102350008BE061E00E94AA148CE060E00E94AA1465
:102360008DE061E00E94AA1480E58CBD8DB581608E
:102370008DBD82E060E00E94AA1482E061E00E94CC
:10238000E91408951F93162F8093130340931503A8
:102390000E948D1180E090E00E94A00F85E092E8FD
:1023A0000E94A00F80E098EB02C080E090E00E94C5
:1023B000A00F82E00E943D15892BB9F3812F90E098
:1023C00074E0880F991F7A95E1F7876C90680E94F6
:1023D000A00F80E496EA0E94A00F86E096EC0E948F
:1023E000A00F82EA94E90E94A00F8CEA92EC0E946E
:1023F000A00F10911503112341F083E89AEC0E947D
:10240000A00F812F90E09E6C06C08BE89AEC0E9492
:10241000A00F8DE29EEC0E94A00F83E894EC0E9436
:10242000A00F80E598E90E94A00F87E79CEC0E942E
:10243000A00F80E090EE0E94A00F80E098EC0E9438
:10244000A00F89E490EC0E94A00F84E08093140315
:102450008091130390E08F719070892B41F080E0A0
:102460006EEC7FE040E050E00E94841603C080E004
:102470000E94A716809113031F9108950F931F9335
:10248000579889E090E00E943F1609B184E190E0FE
:102490000E943F1619B189E090E00E943F1617FD97
:1024A00002C080E005C0802F8095881F8827881F84
:1024B0001F910F9108956F927F928F929F92AF928A
:1024C000BF92CF92DF92FF920F931F93CF93DF9330
:1024D0005C013B016A0100E010E04A0108948108B8
:1024E00091082AC0FF24C0E0D0E0C5010E943E123E
:1024F000FF0CF82A2196C830D105B9F7579A08156C
:10250000190539F45F9A84E190E00E943F165F98C4
:1025100006C05F9884E190E00E943F165F9A84E1D4
:1025200090E00E943F16C5010E943E12F301E00FA9
:10253000F11FF0820F5F1F4F0C151D059CF2DF91FC
:10254000CF911F910F91FF90DF90CF90BF90AF90F0
:102550009F908F907F906F900895EF92FF921F93BE
:10256000CF93DF937C01162F579AC0E0D0E017FF7E
:1025700007C05F9884E190E00E943F165F9A06C012
:102580005F9A84E190E00E943F165F9884E190E0BA
:102590000E943F162196C830D10511F0110FE7CFE8
:1025A0005F9884E190E00E943F165F9A84E190E09A
:1025B0000E943F16C7010E943E12DF91CF911F91EA
:1025C000FF90EF9008950F931F938C015F9886E022
:1025D00090E00E943F16C80165E50E94AD121F9170
:1025E0000F910895579A5F9A88E592E00E943F16EE
:1025F0000895EF92FF920F931F938C017B01F89443
:102600000E94F212C8010E94E312C80160EA0E940F
:10261000AD12C80163E00E94AD12C80160E00E94E3
:10262000AD12C8016AEF0E94AD12C801B70146E0C1
:1026300050E00E945B12C8010E94F21278941F9130
:102640000F91FF90EF900895FC016683478381E02E
:1026500084870895CF92DF92EF92FF920F931F939A
:10266000CF93DF93EC018E8161E00E94E9146AEF61
:1026700070E080E090E00E94E6150E94D8159B0172
:10268000AC0188859985AA85BB85281739074A0733
:102690005B0720F4188619861A861B868C8588238A
:1026A00071F488859985AA85BB85281B390B4A0B4F
:1026B0005B0B205D37404040504008F477C01C86DB
:1026C0000E94D815688779878A879B871C821B821E
:1026D0001A82198218828E8161E00E94AA148E816A
:1026E00060E00E94E91464E170E080E090E00E9404
:1026F000E615F8948E8161E00E94E91488E290E08A
:102700000E943F168E8160E00E94AA1481E0EE24B0
:1027100000E010E00AC0F39481E090E00E943F16D0
:102720002FEFF21629F40AC0892FFF24C82EDD24CA
:102730008E810E943D158C159D0569F38E810E9446
:102740003D15982F8FEFF816C9F0043090F000FD7A
:1027500010C08E2D869586958695FE01E80FF11D99
:102760008081880F808326E02F1510F4816080839C
:10277000E3940F5F1F4F05351105B1F6789487E29A
:102780008E1510F030E013C030E04C8150E029810C
:10279000888190E0820F911D2A81820F911D2B81EB
:1027A000820F911D90704817590709F431E0832F6B
:1027B000DF91CF911F910F91FF90EF90DF90CF901D
:1027C0000895EF92FF920F931F93CF93DF93EC0145
:1027D0000E942A138823A9F18F818B3031F08B302E
:1027E00080F18551823068F507C0688170E080E033
:1027F00090E00E94981B22C0688170E080E090E029
:102800000E94981B20E030E040E853E40E944E1CF8
:102810007B018C01698170E0882777FD8095982F76
:102820000E949A1B9B01AC01C801B7010E94971A34
:1028300020E030E040E251E40E94FF1AE62F692FC9
:102840000AC08CEA93E06EE071E00E945818E0E064
:1028500070E080EC6FE72E2F372F482F562FB901ED
:10286000CA01DF91CF911F910F91FF90EF900895D2
:10287000CF92DF92EF92FF920F931F93CF93DF934C
:10288000EC01C62E0E942A13882309F450C08F81C0
:102890008B3041F08B3008F44AC08551823008F00B
:1028A00046C007C06A8170E080E090E00E94981BFB
:1028B00029C0DA806D2D70E06F777070882777FD02
:1028C0008095982F0E949A1B20E030E040E853E466
:1028D0000E944E1C7B018C016B8170E0882777FD84
:1028E0008095982F0E949A1B9B01AC01C801B701EB
:1028F0000E94971A20E030E040E251E40E94FF1A63
:10290000D7FC9058CC20E9F020E030E040E151E4E1
:102910000E944E1C20E030E040EA50E40E94FF1A82
:1029200020E030E040E052E40E94971A0AC08CEAAE
:1029300093E06EE071E00E94581860E070E080EC77
:102940009FE7DF91CF911F910F91FF90EF90DF9064
:10295000CF900895CF93DF93482F50E0CA0188525B
:102960009E4FFC0134914C535E4FFA0184918823B1
:1029700069F190E0880F991FFC01EA55FE4FA5917F
:10298000B491FC01E055FE4FC591D491662351F4FA
:102990002FB7F8948C91932F909589238C938881ED
:1029A00089230BC0623061F42FB7F8948C91932F78
:1029B000909589238C938881832B88832FBF06C0B1
:1029C0009FB7F8948C91832B8C939FBFDF91CF910D
:1029D0000895482F50E0CA0184519E4FFC01249174
:1029E000CA0188529E4FFC0194914C535E4FFA01EC
:1029F0003491332309F440C0222351F1233071F084
:102A0000243028F42130A1F0223011F514C02630F2
:102A1000B1F02730C1F02430D9F404C08091800097
:102A20008F7703C0809180008F7D8093800010C0DD
:102A300084B58F7702C084B58F7D84BD09C0809135
:102A4000B0008F7703C08091B0008F7D8093B0007D
:102A5000E32FF0E0EE0FFF1FE055FE4FA591B4917C
:102A60002FB7F894662321F48C919095892302C0A6
:102A70008C91892B8C932FBF0895682F70E0CB0128
:102A800084519E4FFC012491CB0188529E4FFC0142
:102A900044916C537E4FFB019491992319F420E0EB
:102AA00030E03CC0222351F1233071F0243028F46F
:102AB0002130A1F0223011F514C02630B1F02730BA
:102AC000C1F02430D9F404C0809180008F7703C016
:102AD000809180008F7D8093800010C084B58F77B7
:102AE00002C084B58F7D84BD09C08091B0008F770E
:102AF00003C08091B0008F7D8093B000892F90E05B
:102B0000880F991F86549E4FFC01A591B4918C911A
:102B100020E030E0842311F021E030E0C901089585
:102B20001F920F920FB60F9211242F933F938F9302
:102B30009F93AF93BF9380911B0390911C03A0912F
:102B40001D03B0911E0330911F030196A11DB11DFD
:102B5000232F2D5F2D3720F02D570196A11DB11D7C
:102B600020931F0380931B0390931C03A0931D03CA
:102B7000B0931E038091170390911803A09119033D
:102B8000B0911A030196A11DB11D80931703909374
:102B90001803A0931903B0931A03BF91AF919F91AB
:102BA0008F913F912F910F900FBE0F901F9018950E
:102BB0008FB7F89420911B0330911C0340911D03A3
:102BC00050911E038FBFB901CA0108959B01AC014A
:102BD0007FB7F8948091170390911803A09119037F
:102BE000B0911A0366B5A89B05C06F3F19F0019616
:102BF000A11DB11D7FBFBA2FA92F982F8827860F3F
:102C0000911DA11DB11D62E0880F991FAA1FBB1F56
:102C10006A95D1F7BC012DC0FFB7F89480911703D6
:102C200090911803A0911903B0911A03E6B5A89BDF
:102C300005C0EF3F19F00196A11DB11DFFBFBA2FCE
:102C4000A92F982F88278E0F911DA11DB11DE2E09D
:102C5000880F991FAA1FBB1FEA95D1F7861B970BF8
:102C6000885E9340C8F22150304040405040685147
:102C70007C4F211531054105510571F608950197E5
:102C800039F0880F991F880F991F02970197F1F764
:102C90000895789484B5826084BD84B5816084BDD4
:102CA00085B5826085BD85B5816085BDEEE6F0E0C5
:102CB000808181608083E1E8F0E010828081826021
:102CC0008083808181608083E0E8F0E080818160A2
:102CD0008083E1EBF0E0808184608083E0EBF0E0D2
:102CE000808181608083EAE7F0E080818460808376
:102CF0008081826080838081816080838081806820
:102D000080831092C1000895823000F5E82FF0E032
:102D1000EE0FFF1FE05EFC4F71836083882319F084
:102D20008130A1F408C0809169008C7F842B80934E
:102D30006900E89A089580916900440F551F440F77
:102D4000551F837F842B80936900E99A0895823010
:102D500080F4882319F0813021F402C0E89801C082
:102D6000E998E82FF0E0EE0FFF1FE05EFC4F1182C4
:102D7000108208951F920F920FB60F9211242F9375
:102D80003F934F935F936F937F938F939F93AF93F3
:102D9000BF93EF93FF938091200390912103892BA0
:102DA00029F0E0912003F09121030995FF91EF9123
:102DB000BF91AF919F918F917F916F915F914F9153
:102DC0003F912F910F900FBE0F901F9018951F925B
:102DD0000F920FB60F9211242F933F934F935F934F
:102DE0006F937F938F939F93AF93BF93EF93FF93D3
:102DF0008091220390912303892B29F0E0912203F3
:102E0000F09123030995FF91EF91BF91AF919F91AD
:102E10008F917F916F915F914F913F912F910F9083
:102E20000FBE0F901F901895982F8E3008F09E506F
:102E3000977080913C018295880F880F807C892B48
:102E400080937C0080917A00806480937A008091E6
:102E50007A0086FDFCCF2091780040917900942F74
:102E600080E030E0282B392BC9010895CF92DF9202
:102E7000EF92FF920F931F93CF93DF937C016B012F
:102E80008A01C0E0D0E00FC0D6016D916D01D7017D
:102E9000ED91FC910190F081E02DC7010995C80FDB
:102EA000D91F015010400115110571F7CE01DF91B6
:102EB000CF911F910F91FF90EF90DF90CF900895E9
:102EC000EF92FF920F931F93CF93DF937C018B01BF
:102ED000C0E0D0E0F8010F5F1F4F6491662359F006
:102EE000D701ED91FC910190F081E02DC70109958A
:102EF000C80FD91FEFCFCE01DF91CF911F910F9156
:102F0000FF90EF900895EF92FF920F931F938C0123
:102F1000DC01ED91FC910190F081E02D6DE00995CF
:102F20007C01D801ED91FC910190F081E02DC80168
:102F30006AE009959C012E0D3F1DC9011F910F915B
:102F4000FF90EF900895EF92FF920F931F937C01F3
:102F50000E9460178C01C7010E9483179C01200FFB
:102F6000311FC9011F910F91FF90EF900895CF93EA
:102F7000DF93EC016115710519F420E030E00FC01A
:102F8000DB010D900020E9F71197A61BB70BE88134
:102F9000F9810280F381E02DAD0109959C01C90101
:102FA000DF91CF9108954F925F927F928F929F927F
:102FB000AF92BF92CF92DF92EF92FF920F931F9347
:102FC000DF93CF93CDB7DEB7A1970FB6F894DEBFEE
:102FD0000FBECDBF2C01742ECB01223008F42AE0A5
:102FE00019A231E2C32ED12CCC0EDD1E822E9924E3
:102FF000AA24BB24672D752FA50194010E94D41C1F
:1030000079018A01C801B701A50194010E94B51C8C
:10301000472D461B0894C108D1084A3014F4405D7E
:1030200001C0495CF6014083E114F104010511057A
:1030300021F07E2C5F2DC801DDCFC201B6010E94B8
:10304000B717A1960FB6F894DEBF0FBECDBFCF91D4
:10305000DF911F910F91FF90EF90DF90CF90BF9085
:10306000AF909F908F907F905F904F900895DC017C
:103070002115310541F4ED91FC910190F081E02D95
:10308000642F099508950E94D3170895EF92FF9237
:103090000F931F939A01E62EFF2400E010E0B80181
:1030A000A7010E9437181F910F91FF90EF9008958C
:1030B0000E94B7170895EF92FF920F931F937C0120
:1030C0000E94B7178C01C7010E948317080F191FB0
:1030D000C8011F910F91FF90EF90089508951F92DE
:1030E0000F920FB60F9211242F933F934F938F930C
:1030F0009F93EF93FF938091C00082FD1DC040918C
:10310000C60020916403309165032F5F3F4F2F73FA
:10311000307080916603909167032817390771F02A
:10312000E0916403F0916503EC5DFC4F40833093C4
:1031300065032093640302C08091C600FF91EF9164
:103140009F918F914F913F912F910F900FBE0F90B4
:103150001F901895E091B803F091B903E05CFF4F20
:103160008191919120813181821B930B8F7390709B
:10317000892B11F00E946E1808951F920F920FB6BE
:103180000F9211242F933F938F939F93EF93FF936D
:103190002091A8033091A9038091AA039091AB03D9
:1031A0002817390731F48091C1008F7D8093C100C9
:1031B00014C0E091AA03F091AB03E859FC4F2081C1
:1031C0008091AA039091AB0301968F7390709093B6
:1031D000AB038093AA032093C600FF91EF919F91C8
:1031E0008F913F912F910F900FBE0F901F901895C8
:1031F000AF92BF92DF92EF92FF920F931F93CF9304
:10320000DF93EC017A018B01DD24403081EE580719
:1032100080E0680780E0780711F0DD24D39491E026
:10322000A92EB12CEC89FD89DD2069F0C50108A02B
:1032300002C0880F991F0A94E2F7808360E079E06A
:103240008DE390E005C0108260E874E88EE190E0C4
:10325000A80197010E94D41C2150304040405040AA
:10326000569547953795279580E12030380720F00F
:10327000DD2011F0DD24D6CFE889F9893083EA8991
:10328000FB89208319A2EE89FF89408121E030E08B
:10329000C9010C8C02C0880F991F0A94E2F7482BD1
:1032A0004083EE89FF894081C9010D8C02C0880FDF
:1032B000991F0A94E2F7482B4083EE89FF894081E9
:1032C000C9010E8C02C0880F991F0A94E2F7482B9F
:1032D0004083EE89FF8980810F8C02C0220F331F4B
:1032E0000A94E2F7209528232083DF91CF911F9144
:1032F0000F91FF90EF90DF90BF90AF900895DC01A9
:103300001C96ED91FC911D97E05CFF4F219131914E
:1033100080819181281B390B2F733070C90108956A
:10332000DC011C96ED91FC911D97E05CFF4F208124
:103330003181E054F040DF01AE5BBF4F8D919C9135
:1033400011972817390719F42FEF3FEF07C08D9118
:103350009C91E80FF91F8081282F30E0C901089562
:10336000DC011C96ED91FC911D97E05CFF4F2081E4
:103370003181E054F040DF01AE5BBF4F8D919C91F5
:1033800011972817390719F42FEF3FEF10C08D91CF
:103390009C911197E80FF91F20818D919C911197B5
:1033A00001968F73907011969C938E9330E0C901B3
:1033B0000895DC0191968C919197882339F0549669
:1033C000ED91FC915597808186FFF9CF91961C92E3
:1033D0000895CF93DF93EC01EE85FF85E05CFF4F0E
:1033E00020813181E054F0402F5F3F4F2F733070C8
:1033F000DF01AE5BBF4F8D919C9111972817390764
:10340000D1F3E05CFF4F80819181E054F040E80F00
:10341000F91F6083EE85FF85E05CFF4F31832083D9
:10342000EE89FF89208181E090E00F8C02C0880F37
:10343000991F0A94E2F7282B208381E089A3EC8965
:10344000FD8980818064808381E090E0DF91CF916D
:1034500008951092AF031092AE0388EE93E0A0E0BF
:10346000B0E08093B0039093B103A093B203B09304
:10347000B30387E591E09093AD038093AC0384E2BE
:1034800093E09093B9038093B80388E693E0909318
:10349000BB038093BA0385EC90E09093BD038093C7
:1034A000BC0384EC90E09093BF038093BE0380EC58
:1034B00090E09093C1038093C00381EC90E09093DF
:1034C000C3038093C20382EC90E09093C503809382
:1034D000C40386EC90E09093C7038093C60384E016
:1034E0008093C80383E08093C90387E08093CA0375
:1034F00085E08093CB0381E08093CC03089500970F
:1035000029F0BC0180E090E00E948E010895CF93E5
:10351000DF930E9449160E946B05CAEAD8E10E9417
:103520005F042097E1F30E94AA18F9CF5058BB27F7
:10353000AA270ED075C166D130F06BD120F031F4DE
:103540009F3F11F41EF45BC10EF4E095E7FB51C1FF
:10355000E92F77D180F3BA176207730784079507BD
:1035600018F071F49EF58FC10EF4E0950B2EBA2F72
:10357000A02D0B01B90190010C01CA01A001112479
:10358000FF27591B99F0593F50F4503E68F11A1625
:10359000F040A22F232F342F4427585FF3CF4695B6
:1035A00037952795A795F0405395C9F77EF41F16D8
:1035B000BA0B620B730B840BBAF09150A1F0FF0FA2
:1035C000BB1F661F771F881FC2F70EC0BA0F621F8E
:1035D000731F841F48F4879577956795B795F7957E
:1035E0009E3F08F0B3CF9395880F08F09927EE0F10
:1035F000979587950895D9D008F481E008950CD067
:103600000FC107D140F0FED030F021F45F3F19F038
:10361000F0C0511139C1F3C014D198F39923C9F303
:103620005523B1F3951B550BBB27AA2762177307C8
:10363000840738F09F5F5F4F220F331F441FAA1F7C
:10364000A9F333D00E2E3AF0E0E830D0915050403C
:10365000E695001CCAF729D0FE2F27D0660F771FEA
:10366000881FBB1F261737074807AB07B0E809F0CC
:10367000BB0B802DBF01FF2793585F4F2AF09E3F61
:10368000510568F0B6C000C15F3FECF3983EDCF333
:10369000869577956795B795F7959F5FC9F7880FDA
:1036A000911D9695879597F90895E1E0660F771F2C
:1036B000881FBB1F621773078407BA0720F0621BBD
:1036C000730B840BBA0BEE1F88F7E095089504D0B6
:1036D0006894B111D9C00895BCD088F09F5790F07C
:1036E000B92F9927B751A0F0D1F0660F771F881F27
:1036F000991F1AF0BA95C9F712C0B13081F0C3D042
:10370000B1E00895C0C0672F782F8827B85F39F0DF
:10371000B93FCCF3869577956795B395D9F73EF485
:1037200090958095709561957F4F8F4F9F4F08952D
:10373000E89409C097FB3EF490958095709561954B
:103740007F4F8F4F9F4F9923A9F0F92F96E9BB2701
:103750009395F695879577956795B795F111F8CF7D
:10376000FAF4BB0F11F460FF1BC06F5F7F4F8F4FE8
:103770009F4F16C0882311F096E911C0772321F0DE
:103780009EE8872F762F05C0662371F096E8862F76
:1037900070E060E02AF09A95660F771F881FDAF7CD
:1037A000880F9695879597F90895990F0008550FFA
:1037B000AA0BE0E8FEEF16161706E807F907C0F0B7
:1037C00012161306E407F50798F0621B730B840BBF
:1037D000950B39F40A2661F0232B242B252B21F499
:1037E00008950A2609F4A140A6958FEF811D811D39
:1037F000089597F99F6780E870E060E008959FEF73
:1038000080EC089500240A94161617061806090677
:10381000089500240A941216130614060506089546
:10382000092E0394000C11F4882352F0BB0F40F4CE
:10383000BF2B11F460FF04C06F5F7F4F8F4F9F4F0E
:10384000089557FD9058440F551F59F05F3F71F090
:103850004795880F97FB991F61F09F3F79F08795F7
:103860000895121613061406551FF2CF4695F1DF80
:1038700008C0161617061806991FF1CF8695710510
:10388000610508940895E894BB2766277727CB0144
:1038900097F908958ADF08F48FEF08950BD0C0CF11
:1038A000B1DF28F0B6DF18F0952309F0A2CFA7CF3B
:1038B0001124EACFC6DFA0F3959FD1F3950F50E016
:1038C000551F629FF001729FBB27F00DB11D639FD2
:1038D000AA27F00DB11DAA1F649F6627B00DA11D78
:1038E000661F829F2227B00DA11D621F739FB00D1E
:1038F000A11D621F839FA00D611D221F749F33278E
:10390000A00D611D231F849F600D211D822F762F26
:103910006A2F11249F5750408AF0E1F088234AF023
:10392000EE0FFF1FBB1F661F771F881F915050406F
:10393000A9F79E3F510570F05CCFA6CF5F3FECF337
:10394000983EDCF3869577956795B795F795E7955B
:103950009F5FC1F7FE2B880F911D9695879597F96C
:10396000089523DF880B990B0895629FD001739F00
:10397000F001829FE00DF11D649FE00DF11D929F0B
:10398000F00D839FF00D749FF00D659FF00D99274A
:10399000729FB00DE11DF91F639FB00DE11DF91F6E
:1039A000BD01CF0111240895A1E21A2EAA1BBB1B51
:1039B000FD010DC0AA1FBB1FEE1FFF1FA217B307FB
:1039C000E407F50720F0A21BB30BE40BF50B661F11
:1039D000771F881F991F1A9469F7609570958095D5
:1039E00090959B01AC01BD01CF01089597FB092E75
:1039F00005260ED057FD04D0D7DF0AD0001C38F4BE
:103A000050954095309521953F4F4F4F5F4F08950A
:103A1000F6F790958095709561957F4F8F4F9F4FEA
:103A20000895EE0FFF1F0590F491E02D09942F9259
:103A30003F924F925F926F927F928F929F92AF923E
:103A4000BF92CF92DF92EF92FF920F931F93CF938B
:103A5000DF93CDB7DEB7CA1BDB0B0FB6F894DEBF22
:103A60000FBECDBF09942A88398848885F846E8448
:103A70007D848C849B84AA84B984C884DF80EE8092
:103A8000FD800C811B81AA81B981CE0FD11D0FB69B
:103A9000F894DEBF0FBECDBFED010895F894FFCFBF
:103AA0005F7230006F686D73005F726177005265FE
:103AB0006164206661696C000100000054656D70EE
:103AC00065726174757265006465672043004875AE
:103AD0006D69646974790025000104020100000029
:103AE000006C063B06F405FD0512062306FFFFFFEA
:103AF000FFFFFF00000000E91936177F19B0199089
:103B000019D919001B81AA81B981CE0FD11D0FB619
:103B1000F894DEBF0FBECDBFED010895F894FFCF3E
:103B20005F7230006F686D73005F7261770052657D
:103B30006164206661696C000100000054656D706D
:103B4000657261747572650064656720430048752D
:103B50006D696469747900250001040201000000A8
:103B6000006C063B06F405FD0512062306FFFFFF69
:103B7000FFFFFF00000000E91936177F19B0199008
:103B80003040E1F78091A105833019F468E475E0D5
:103B900003C0BE016F5F7F4F84E490E043E450E0D8
:103BA0000E947D188091A105833039F088E392E06E
:103BB000BE016F5F7F4F0E94391781E080936202E0
:103BC0008093630286E0809364028091AE059091B9
:103BD000AF05A091B005B091B105809366029093B6
:103BE0006702A0936802B09369028091A1058330B7
:103BF00039F482E692E00C966CE375E00E9441177E
:103C00008EE792E066E375E00E943917AEE4B3E018
:103C1000EAE4F1E002C081918D9331E0E035F307F1
:103C2000D1F79091A105992311F083E001C081E0C3
:103C3000809354038DE38093550387E0809356036C
:103C400081E080935703A8E5B3E0E6E3F5E002C026
:103C500081918D9385E0EC33F807D1F78CE0809368
:103C60005E038AE080935F03E9E3F1E0A0E6B3E05E
:103C700002C081918D9321E0E334F207D1F72AE667
:103C800033E03093B3052093B205913069F582E3B8
:103C900080936A0384E080936B03D9011296ECE36E
:103CA000F5E002C081918D9335E0E034F307D1F760
:103CB00086E38093700384E08093710382E793E04E
:103CC0009093B3058093B205DC01E8E4F5E002C00F
:103CD00081918D9385E0EC34F807D1F786E793E086
:103CE0009093B3058093B2052091B2053091B3054E
:103CF000D901E4E4F1E002C081918D9381E0EA34DE
:103D0000F807D1F7C90106969093B3058093B205E1
:103D1000825692400E94F51926960FB6F894DEBF9F
:103D20000FBECDBFCF91DF910895DF92EF92FF924A
:103D30000F931F93CF93DF938C018091A105823065
:103D400009F4F7C0833030F4882351F1813009F051
:103D500054C14AC0833021F0843009F04EC1E9C01B
:103D60000E94642F2091A6053091A7054091A805D7
:103D70005091A905E090A205F090A3050091A4053B
:103D80001091A5052E0D3F1D401F511F621773078F
:103D90008407950708F431C10E94A81D84E017C06C
:103DA0000E94642F6093AE057093AF058093B005B9
:103DB0009093B10510923C0510923D0510923E057E
:103DC00010923F050E94A81D0E94A12181E08093CE
:103DD000A1050E94642F6093AA057093AB058093A0
:103DE000AC059093AD0509C10634110508F4F0C087
:103DF00080915B02833409F0EBC020916602309120
:103E0000670240916802509169028091AE059091DD
:103E1000AF05A091B005B091B105281739074A0741
:103E20005B0709F0D5C0C2E5D3E0FE01A801485CFC
:103E30005D4FDF01119691819D012F5F3F4F808182
:103E4000853321F411968C91823039F0F901E90F14
:103E5000F11DE417F50768F3BBC08CE395E062E75A
:103E600072E00E94411758E3E52E52E0F52EE00E75
:103E7000F11EFE013196D9808F010F5F1F4F88819F
:103E80008630A9F0873030F4813059F0833009F062
:103E900045C00AC08633E9F18A3361F08333F1F516
:103EA00009C080E495E037C084E495E034C08CE438
:103EB00095E031C0618170E080E090E0982F872F1D
:103EC000762F6627F8012181620F711D811D911DDA
:103ED000982F872F762F66272281620F711D811DF3
:103EE000911D982F872F762F66272381620F711DD2
:103EF000811D911D28EE33E040E050E00E947937AB
:103F00006093A6057093A7058093A8059093A905D3
:103F100005C088E495E0B8010E944117E801CD0D85
:103F2000D11DCE15DF0508F4A4CF0E94A81D82E0A4
:103F30004ECF0634110508F44BC080915B028334E8
:103F400009F046C0209166023091670240916802F4
:103F5000509169028091AE059091AF05A091B00596
:103F6000B091B105281739074A075B0789F5E2E5E3
:103F7000F3E0A801485C5D4FDF01119691819D013E
:103F80002F5F3F4F8081853321F411968C918530CE
:103F900039F0F901E90FF11DE417F50768F318C0CE
:103FA0000E949C210E94642F6093A2057093A30538
:103FB0008093A4059093A50580914405882321F062
:103FC00084E495E00E94E31883E08093A10515C086
:103FD0000E94642F2091AA053091AB054091AC0559
:103FE0005091AD05205F384D4F4F5F4F2617370773
:103FF0004807590710F41092A105DF91CF911F9146
:104000000F91FF90EF90DF900895CF93DF9381E0C1
:104010008093540590913B05892F82958F70805D28
:10402000809341019F70905D909342011092A10591
:104030000E94642FEB0104C00E944E220E94951E34
:104040008091A105833061F00E94642F6C1B7D0B71
:1040500060567A4E28F40E94D221882389F3ECCF4F
:1040600090E08091A105833009F491E0892FDF91E0
:10407000CF910895FF920F931F93CF93DF93182F43
:10408000092FF62E0E94642FEB010E94D221882373
:1040900029F00E94D517882309F4DBC00E944E2224
:1040A0000E94241A0E94642F6C1B7D0B605375477D
:1040B00060F3C8C088E098E0A8E0B8E080934C05C1
:1040C00090934D05A0934E05B0934F058091B40594
:1040D00090E0906E6CE475E045E350E00E947D183E
:1040E000A2E6B2E08CE0FD0111928A95E9F7812FFA
:1040F000902FFC01CF011C9630E0FF2019F0FC014D
:10410000208102C0FC01249101962E3241F022232D
:1041100031F03F5FFD01E30FF11D2083EECFFD0184
:104120003193DF01A30FB11D222331F7FD0111925D
:1041300011961C92DF01119641E04183FD013196F9
:1041400011961C92418386ED28E332E0821B329661
:104150008E0F809362029091B40590936302409316
:1041600064024093670290E00E94F5190E94642F58
:104170008B0161C00E94642F601B710B60537547F7
:1041800008F060C00E944E22EC01009709F453C071
:104190000E94241A892B09F04EC0C634D10508F4B8
:1041A0004AC080915B02853309F045C080915C0272
:1041B000803E09F040C090915D028091B40598174F
:1041C000D1F5809163028917B1F58091650290E085
:1041D0008F709070892B79F580916202E82FF0E062
:1041E000EE59FD4F9E01285C3D4F8081807C39F067
:1041F000329609C08081882311F4319604C031962B
:10420000E217F307B8F3CF010E962817390798F095
:104210008181813051F48185843039F43A9680E58A
:1042200095E0BF010E94411706C0818590E00A9683
:10423000E80FF91FDACF80915005882309F49ACF4F
:1042400081E001C080E0DF91CF911F910F91FF903D
:104250000895109250051092510510925205109237
:1042600053058091B4058F5F8093B40580914C0510
:10427000882309F02BCF1ECF8091B70561E00E9403
:10428000752E78940895FF920F931F93082F162F81
:10429000F42EF8948091B70560E00E94752E1F718E
:1042A000102B1EBD0DB407FEFDCFFEBC0DB407FEE6
:1042B000FDCF0E943C211F910F91FF9008951F9305
:1042C000182F282F30E0207630708091B80590E0CC
:1042D0002817390799F080EA6FE143E00E944321F3
:1042E000412F40764093B80550E085E055954795BD
:1042F0008A95E1F780E86FE10E9443211F910895BC
:104300000F931F93182F062F0E945F2180E4612FC7
:10431000402F0E9443211F910F9108950F931F93E7
:10432000182F072F0E948021812F8F5F602F0E94FE
:1043300080211F910F91089588E360EB0E948021F6
:10434000089588E361EB0E94802108950F931F93E5
:10435000182F062FF8948091B70560E00E94752E03
:10436000802F8F71812B8EBD0DB407FEFDCF1EBC3B
:104370000DB407FEFDCF07FF04C01EBC0DB407FE41
:10438000FDCF1EB50E943C21812F1F910F910895F2
:104390001F93182F0E945F2180E0612F0E94A621A9
:1043A0001F91089584ED61E10E94802182ED61E01A
:1043B0000E9480218AEE0E94C82180FDFBCF82ED01
:1043C00060E00E94802189ED0E94C82190E09695CE
:1043D000879596958795817008950F931F93CF9336
:1043E000DF93EC018B01F8948091B70560E00E94A7
:1043F000752E8AE38EBD0DB407FEFDCF09C01EBC2D
:104400000DB407FEFDCF8EB5F80181938F01219782
:104410002097A9F70E943C21DF91CF911F910F9126
:104420000895DF93CF930F92CDB7DEB7198290E056
:1044300036E0880F991F3A95E1F7860F911DBC0170
:1044400060507E4E80509E4050F480E00E948E214D
:1044500081E090E0BE016F5F7F4F0E94ED21898176
:104460000F90CF91DF910895CF93DF93EB0190E010
:1044700046E0880F991F4A95E1F7BC0160507E4ED7
:10448000815C9D4040F480E00E948E2180E490E0B9
:10449000BE010E94ED21DF91CF9108950F931F93EC
:1044A000DF93CF9300D000D000D0CDB7DEB789E343
:1044B0000E94C821882319F400E010E048C06091F0
:1044C000B9057091BA0580E00E948E2186E090E0E7
:1044D000BE016F5F7F4F0E94ED2189819A81909389
:1044E000BA058093B9052B813C81E091B505F09127
:1044F000B6058D8187FD03C000E010E00EC024509A
:1045000030408F01015010402017310708F4890115
:10451000C80168E372E00E94ED21F801E85CFD4FFC
:1045200010826091B9057091BA058CE0613078070E
:1045300024F08CE06FEF7BE003C0615070408CE0B2
:104540000E948E2180E86EE140E40E944321C80170
:1045500026960FB6F894DEBF0FBECDBFCF91DF9188
:104560001F910F9108950F931F93CF93DF938C01A9
:10457000EB01F8948091B70560E00E94752E8AE700
:104580008EBD0DB407FEFDCF08C088818EBD0DB471
:1045900007FEFDCF21960150104001151105A9F726
:1045A0000E943C21DF91CF911F910F910895CF93ED
:1045B000DF93EB0190E056E0880F991F5A95E1F7E1
:1045C000BC0160507E4E815C9D4040F482E00E94C0
:1045D0008E2180E490E0BE010E94B322DF91CF9152
:1045E0000895CF93DF93EC010FC08CE10E94C821A6
:1045F00081FF0AC080E86FE140E80E94432180EA21
:104600006FE140E80E94432180E06FE10E94A62113
:1046100083FDEBCF82E060E07CE00E948E21BE0152
:104620006050744F86E00E948E218AE760E040E08F
:104630000E944321CE0168E372E00E94B32280E829
:104640006FE148E00E944321DF91CF9108958AE015
:1046500061E00E94362E8AE061E00E94752E8BE0B8
:1046600061E00E94362E8DE061E00E94362E8CE0E3
:1046700060E00E94362E8BE061E00E94752E8BE098
:1046800060E00E94752E8DE060E00E94752E80E54E
:104690008CBD8DB581608DBD08951F93CF93DF9341
:1046A000EB01142F9093B6058093B5050CB406FC6E
:1046B00002C00E9427231093B705812F61E00E945A
:1046C000362E0E943C218FEF60E04FEF0E94432185
:1046D00062E070E080E090E00E94722F80E06DE187
:1046E0000E94A6218823D1F31092BA051092B90531
:1046F00088E060E070E00E948E218CE060E070E075
:104700000E948E218AE06FEF7BE00E948E2184E080
:1047100060E07CE00E948E2186E06FEF71E10E94F4
:104720008E210E94A12188E26FE370E30E948E2116
:1047300080E369EF77EF0E948E2180EC6DE00E94AC
:10474000802181EC60E00E94802180E862EC42E3FD
:104750000E94432186EC62E17CE00E948E2184EC81
:1047600062E10E9480218AEC6CED75E00E948E214E
:1047700084EE68810E94802185EE69810E948021FB
:1047800082EE6A810E94802183EE6B810E948021EB
:1047900080EE6C810E94802181EE6D810E948021DB
:1047A00084ED60E10E94802186ED60E071E00E946E
:1047B0008E218AEE0E94C82180FDFBCF8FE10E94EE
:1047C0005F2180E86BE140EC0E94432180E86FE1CB
:1047D00044E00E94432182E70E94C821863008F00D
:1047E0008F5FDF91CF911F910895ECEEF7E020E00D
:1047F00030E003C031962F5F3F4F8081853C29F424
:1048000088E0EF3FF807B1F3A8F3C9010895FC0170
:1048100017821682108213821186108611821482EA
:104820001386128612821582178A1786108A118AB9
:10483000128A08951F93CF93DF93FC016487458705
:104840002687EC0110E08C8561E00E94362E8C8575
:1048500060E070E00E94A0301F5F2196133099F74E
:10486000DF91CF911F9108954F925F926F927F9247
:104870008F929F92AF92BF92CF92DF92EF92FF9270
:104880000F931F93CF93DF93582E492E5B01FB01AB
:1048900024813581828193812817390708F4C90161
:1048A000F50120813181BC012817390708F4B901CD
:1048B000852D942D9C016901C0E0D0E03B01882446
:1048C0009924C401B3010E9488367B018C01F50153
:1048D000EC0FFD1F6081718180E090E00E948836BE
:1048E0009B01AC01C801B7010E94F43520E030E023
:1048F00040E853E40E94163720E030E040E05FE3F8
:104900000E9490350E945C36F601748F638F229668
:1049100082E090E0C80ED91EC630D10591F6852DF3
:10492000942D65E043E026E00E941A24DF91CF91A8
:104930001F910F91FF90EF90DF90CF90BF90AF90BD
:104940009F908F907F906F905F904F900895DF932E
:10495000CF9300D000D000D0CDB7DEB7DE011196E6
:10496000E6E9F1E026E001900D922150E1F7BE0169
:104970006F5F7F4F0E94342426960FB6F894DEBFF7
:104980000FBECDBFCF91DF910895EF92FF920F93AD
:104990001F937C018B01FB016081FC01848570E029
:1049A0000E94A030F8016181F701858570E00E94C6
:1049B000A030F8016281F701868570E00E94A03086
:1049C0001F910F91FF90EF9008952F923F924F9279
:1049D0005F926F927F928F929F92AF92BF92CF928F
:1049E000DF92EF92FF920F931F93DF93CF9300D04C
:1049F0000F92CDB7DEB7382E292E2B019C0139013D
:104A00008824992400D000D0F201E80DF91D6081BE
:104A100070E080E090E0F301238D348D40E050E0C1
:104A2000EDB7FEB7218332834383548320E030E027
:104A300040E050E0EFEFEE2EF12C012D112DAA24D5
:104A4000BB2465010E943735E1E0F0E0EC0FFD1F6B
:104A5000E80DF91DCB010F900F900F900F906F3F55
:104A6000710519F010F08FEF90E080830894811C9D
:104A7000911C82E090E0680E791E93E08916910403
:104A800009F6832D922DBE016F5F7F4F0E94C524D2
:104A90000F900F900F90CF91DF911F910F91FF908A
:104AA000EF90DF90CF90BF90AF909F908F907F90CE
:104AB0006F905F904F903F902F9008952F923F926C
:104AC0004F925F926F927F929F92AF92BF92CF92DE
:104AD000DF92EF92FF920F931F93DF93CF93CDB7A7
:104AE000DEB72C970FB6F894DEBF0FBECDBF3C01EA
:104AF000DE011196E0E9F1E083E001900D92815032
:104B0000E1F70E94642FF30127853089418952899A
:104B1000621B730B840B950B0E94883620E030E0FB
:104B200048EC52E40E9416377B018C01F301638943
:104B30007489858996890E948A369B01AC01C801D7
:104B4000B7010E94F4350E945C36CB0165367105D1
:104B500010F084E690E078866F8213014424552497
:104B60009C0140E050E029873A874B875C87F3013E
:104B7000E40DF51D908000D000D0F1018681978171
:104B8000AA2797FDA095BA2FEDB7FEB78183928330
:104B9000A383B48369857A858B859C8520E030E08A
:104BA00040E050E0B4E6EB2EF12C012D112DAA24AB
:104BB000BB2465010E943735E4E0F0E0EC0FFD1FF7
:104BC000E40DF51D960E90820894411C511C22E0C4
:104BD00030E0220E331E0F900F900F900F9033E0B5
:104BE0004316510421F6C301BE016C5F7F4F0E9442
:104BF000E52420E0F30193818C81981321E081E08A
:104C00002827F30194818D81981320E0F301958189
:104C10008E81981320E0F3018789882309F45EC010
:104C2000222309F45BC0228D222351F48E010C5FF4
:104C30001F4F7301A7E0CA2ED12CCC0EDD1E25C05C
:104C4000F301808D918D0196918F808F9695879538
:104C500030E08217930751F7C301BE016F5F7F4FAA
:104C60000E94E524F30117821682108213821186B6
:104C70001086118214821386128612821582178A78
:104C80001786108A118A128A29C0EF81F8858081DF
:104C9000F8018083EF81F88523812083F8018191D9
:104CA0008F01EF81F885838390E0821B9109F701E2
:104CB000978386830E94642FF3016787708B818BB3
:104CC000928B2F8138852F5F3F4F38872F8342E0AB
:104CD00050E0E40EF51E0C151D05B9F62C960FB626
:104CE000F894DEBF0FBECDBFCF91DF911F910F9122
:104CF000FF90EF90DF90CF90BF90AF909F907F900C
:104D00006F905F904F903F902F900895AF92BF9219
:104D1000CF92DF92EF92FF920F931F93DF93CF9387
:104D200000D00F92CDB7DEB78C015B0169017A012B
:104D3000DE011196E3E9F1E083E001900D928150EC
:104D4000E1F7C801BE016F5F7F4F0E94E524A80113
:104D5000D80120E030E0FA011082F501E20FF31FE4
:104D60008081FA01838316968C93169717961C926E
:104D700017972F5F3F4F4F5F5F4F129623303105DC
:104D800051F781E0F801878B128E0E94642FF801A1
:104D90006787708B818B928BC701B60122E030E070
:104DA00040E050E00E94CE37F801238B348B458BD6
:104DB000568B0F900F900F90CF91DF911F910F9115
:104DC000FF90EF90DF90CF90BF90AF900895EF925B
:104DD000FF920F937C010E948626F701028F118EAD
:104DE000108E0F91FF90EF9008952F923F924F9267
:104DF0005F926F927F928F929F92AF92BF92CF926B
:104E0000DF92EF92FF920F931F93DF93CF93CDB773
:104E1000DEB7A2970FB6F894DEBF0FBECDBF8B5B97
:104E20009F4FDC012D913D914D915D9129833A83F6
:104E30004B835C832D913D914D915D912D833E83FC
:104E40004F8358872D913D914D915D9129873A87E8
:104E50004B875C876D907D908D909D902D913D91BD
:104E60004D915D912D873E874F87588B2D913D91B8
:104E70004D915D91298B3A8B4B8B5C8B2D913D91A4
:104E80004D915D91BAA3A9A32D8B3E8B4F8B588F6B
:104E90008D919D910D90BC91A02DE9A1FAA1E156B3
:104EA000F040FAA3E9A32EEF35E03C8F2B8F41E0D1
:104EB00050E05A8F498F0EC1598D503108F4CBC044
:104EC000698D7A8D6F707070E98DFA8D3297EF7001
:104ED000F0703196EE0FFF1FEE0FFF1F89A19AA110
:104EE000E80FF91FA080B180C280D380E98DFA8DD0
:104EF0003F97EF70F0703196EE0FFF1FEE0FFF1F20
:104F0000E80FF91F6080718082809380E98DFA8DAF
:104F10003797EF70F0703196EE0FFF1FEE0FFF1F07
:104F2000E80FF91F6F5F7F4F660F771F660F771FC0
:104F3000680F791FE080F18002811381FB0180817D
:104F40009181A281B381E80EF91E0A1F1B1FD601B1
:104F5000C50121E1B695A795979587952A95D1F733
:104F6000A6019501FFE0220F331F441F551FFA953C
:104F7000D1F7822B932BA42BB52BA6019501EAE048
:104F80005695479537952795EA95D1F78227932728
:104F9000A427B527A6019501FDE0220F331F441F6A
:104FA000551FFA95D1F7E3E1D694C794B794A79427
:104FB000EA95D1F72A293B294C295D298227932795
:104FC000A427B527E80EF91E0A1F1B1FD401C30131
:104FD00027E0B695A795979587952A95D1F7A401CF
:104FE0009301F9E1220F331F441F551FFA95D1F7A2
:104FF000822B932BA42BB52BA4019301E3E05695B0
:10500000479537952795EA95D1F782279327A427C7
:10501000B527A4019301FEE0220F331F441F551F43
:10502000FA95D1F7E2E19694879477946794EA959C
:10503000D1F7262937294829592982279327A427D8
:10504000B527E80EF91E0A1F1B1FDB01ED92FD922A
:105050000D931C931397EB8DFC8D3496FC8FEB8F87
:10506000298D3A8D2F5F3F4F3A8F298F8D899E89E9
:10507000AF89B88D29893A894B895C892D8B3E8B04
:105080004F8B588F2D853E854F855889298B3A8BBC
:105090004B8B5C8B69847A848B849C842D813E81CC
:1050A0004F81588529873A874B875C8729813A81C8
:1050B0004B815C812D833E834F83588729823A82BE
:1050C0004B825C822D8D3E8D4F8D58A12D873E8762
:1050D0004F87588B2B8D3C8DF901A590B590C590CD
:1050E000D490A80EB91ECA1EDB1E2D853E854F85A5
:1050F00058890BE056954795379527950A95D1F72E
:105100008D859E85AF85B88915E1880F991FAA1FE7
:10511000BB1F1A95D1F7282B392B4A2B5B2B8D857A
:105120009E85AF85B889F6E0B695A7959795879542
:10513000FA95D1F7ED84FE840F851889EAE1EE0C2B
:10514000FF1C001F111FEA95D1F78E299F29A02B64
:10515000B12B282739274A275B278D859E85AF8568
:10516000B88979E1B695A795979587957A95D1F7FE
:10517000ED84FE840F85188967E0EE0CFF1C001F8C
:10518000111F6A95D1F78E299F29A02BB12B2827B3
:1051900039274A275B27A20EB31EC41ED51E898954
:1051A0009A89AB89BC892D893E894F89588D822780
:1051B0009327A427B5272D853E854F8558898223BF
:1051C0009323A423B5232D893E894F89588D8227A7
:1051D0009327A427B527A80EB91ECA1EDB1EE98D8A
:1051E000FA8D3197EF70F0703196EE0FFF1FEE0FD2
:1051F000FF1F49A15AA1E40FF51F80819181A2816F
:10520000B381A80EB91ECA1EDB1EE980FA800B818D
:105210001C813DE016950795F794E7943A95D1F7F0
:1052200089819A81AB81BC8123E1880F991FAA1FD4
:10523000BB1F2A95D1F7E82AF92A0A2B1B2B898153
:105240009A81AB81BC81F2E0B695A7959795879539
:10525000FA95D1F729813A814B815C81EEE1220FE9
:10526000331F441F551FEA95D1F7822B932BA42B94
:10527000B52BE826F9260A271B2789819A81AB815D
:10528000BC8176E1B695A795979587957A95D1F7E4
:1052900029813A814B815C816AE0220F331F441FD0
:1052A000551F6A95D1F7822B932BA42BB52BE8269B
:1052B000F9260A271B27D601C501860D971DA81DB3
:1052C000B91D8D8F9E8FAF8FB8A32D803E804F80EC
:1052D000588429853A854B855C85222A332A442ABD
:1052E000552A89819A81AB81BC81282239224A22A0
:1052F0005B228D819E81AF81B88582239323A42375
:10530000B523282A392A4A2A5B2A2E0C3F1C401E24
:10531000511E2A0C3B1C4C1C5D1CAB8DBC8DAA5F26
:10532000B64009F0C9CDE9A1FAA1EB5BFF4F80813E
:105330009181A281B381280E391E4A1E5B1E2082F4
:1053400031824282538269A17AA1675B7F4FFB0160
:1053500080819181A281B38129813A814B815C81D5
:10536000820F931FA41FB51F80839183A283B383F1
:1053700069A17AA1635B7F4FFB0180819181A2814A
:10538000B3812D813E814F815885820F931FA41FC9
:10539000B51F80839183A283B38369A17AA16F5AD9
:1053A0007F4FFB0180819181A281B38129853A855C
:1053B0004B855C85820F931FA41FB51F808391834B
:1053C000A283B383E9A1FAA1EB5AFF4F60807180F9
:1053D000828093802D8D3E8D4F8D58A1260D371DD7
:1053E000481D591D208331834283538369A17AA1CB
:1053F000675A7F4FFB0180819181A281B3812D8506
:105400003E854F855889820F931FA41FB51F808347
:105410009183A283B38369A17AA1635A7F4FFB0171
:1054200080819181A281B38129893A894B895C89E4
:10543000820F931FA41FB51F80839183A283B38320
:1054400069A17AA16F597F4FFB0180819181A2816F
:10545000B3812D893E894F89588D820F931FA41FD8
:10546000B51F80839183A283B383A2960FB6F8946D
:10547000DEBF0FBECDBFCF91DF911F910F91FF9087
:10548000EF90DF90CF90BF90AF909F908F907F90E4
:105490006F905F904F903F902F900895CF93DF9340
:1054A0009C01EC01CC5BDF4F988183E08927F901F7
:1054B000E80FF11D64839F5F9883903421F4C90144
:1054C0000E94F5261882DF91CF910895FC01EB59D7
:1054D000FF4F20813181428153812F5F3F4F4F4FDA
:1054E0005F4F20833183428353830E944E2A81E0A1
:1054F00090E008951092BE051092BD0580EA91E0FB
:105500009093BC058093BB0508952F923F924F92D4
:105510005F926F927F928F929F92AF92BF92CF9243
:10552000DF92EF92FF920F931F93DF93CF93CDB74C
:10553000DEB762970FB6F894DEBF0FBECDBF8B5BB0
:105540009F4FDC012D913D914D915D912D833E83C7
:105550004F8358872D903D904D905D906D907D903C
:105560008D909D902D913D914D915D9129833A8330
:105570004B835C832D913D914D915C9113972B87CB
:105580003C874D875E87A555B040B88BAF871A869C
:1055900019861985103108F469C069857A856F709C
:1055A00070706F5F7F4F660F771F660F771FEF85F5
:1055B000F8896E0F7F1FA985BA851D96AF70B070F0
:1055C0001196AA0FBB1FAA0FBB1FAE0FBF1F898565
:1055D0009A8508968F7090700196880F991F880F92
:1055E000991F8E0F9F1F2D913D914D915C91FC0154
:1055F00080819181A281B381282739274A275B279F
:10560000FB0180819181A281B381282739274A2714
:105610005B27E985FA853296EF70F0703196EE0FD0
:10562000FF1FEE0FFF1F8F859889E80FF91F8081FC
:105630009181A281B381282739274A275B27DA0184
:10564000C901880F991FAA1FBB1F222757FD239549
:10565000332744275527822B932BA42BB52BFB01F3
:1056600080839183A283B3831431C8F429813A8162
:105670004B815C8126253725482559252221332158
:105680004421552189819A81AB81BC812827392702
:105690004A275B27275636484D47554A46C0183299
:1056A00098F4A401930122253325442555258981A9
:1056B0009A81AB81BC81282739274A275B272F5540
:1056C00034414642514931C01C33E8F4A4019301EE
:1056D000222933294429552989819A81AB81BC81AA
:1056E000282339234A235B23D401C3018221932138
:1056F000A421B521282B392B4A2B5B2B2452334470
:10570000444E504712C0A40193012225332544255D
:10571000552589819A81AB81BC81282739274A2761
:105720005B272A523E434D495543ED80FE800F8151
:105730001885EBE116950795F794E794EA95D1F76C
:105740008D819E81AF81B88575E0880F991FAA1F52
:10575000BB1F7A95D1F7E82AF92A0A2B1B2B8B85D8
:105760009C85AD85BE85E80EF91E0A1F1B1FE985C5
:10577000FA85EF70F0703196EE0FFF1FEE0FFF1FEE
:10578000AF85B889EA0FFB1F80819181A281B38127
:10579000E80EF91E0A1F1B1FE20EF31E041F151F41
:1057A000620151019EE1AA0CBB1CCC1CDD1C9A9528
:1057B000D1F782E056944794379427948A95D1F78D
:1057C000A228B328C428D528E985FA853196FA8716
:1057D000E98729813A814B815C812B873C874D8702
:1057E0005E87B301898A9A8A2D803E804F805884D3
:1057F000E035F10589F0C701D8018D839E83AF8321
:10580000B8873501460149895A89CB01DA01898374
:105810009A83AB83BC83BDCEEF85F889EB5BFF4FEA
:1058200080819181A281B381E80EF91E0A1F1B1F9E
:10583000E082F182028313836F857889675B7F4FF3
:10584000FB0180819181A281B3812D813E814F81B5
:105850005885820F931FA41FB51F80839183A28355
:10586000B383EF85F889E35BFF4F80819181A2814B
:10587000B381A80EB91ECA1EDB1EA082B182C282ED
:10588000D382EF85F889EF5AFF4F80819181A28101
:10589000B381860D971DA81DB91D80839183A283B6
:1058A000B3836F8578896B5A7F4FFB01808191812B
:1058B000A281B38129813A814B815C81820F931F40
:1058C000A41FB51F80839183A283B38362960FB612
:1058D000F894DEBF0FBECDBFCF91DF911F910F9126
:1058E000FF90EF90DF90CF90BF90AF909F908F9000
:1058F0007F906F905F904F903F902F900895CF933F
:10590000DF939C01EC01CC5BDF4F988183E089271A
:10591000F901E80FF11D64839F5F9883903421F4AF
:10592000C9010E94852A1882DF91CF910895FC0158
:10593000E75AFF4F20813181428153812F5F3F4FD2
:105940004F4F5F4F20833183428353830E947F2CCC
:1059500081E090E008950F931F93CF93DF93EC01C4
:1059600060E80E947F2C8E010C5B1F4F04C0CE01AB
:1059700060E00E947F2CF80180818833C1F7CE015E
:1059800060E00E947F2CCE0160E00E947F2CCE015F
:1059900060E00E947F2C8E01075A1F4FF801208182
:1059A000318142815381FDE1569547953795279581
:1059B000FA95D1F7CE01622F0E947F2CF801208149
:1059C000318142815381E5E1569547953795279579
:1059D000EA95D1F7CE01622F0E947F2CF801208139
:1059E0003181428153817DE05695479537952795C2
:1059F0007A95D1F7CE01622F0E947F2CF801208189
:105A000031814281538165E05695479537952795B9
:105A10006A95D1F7CE01622F0E947F2CF801608138
:105A2000660F660F660FCE010E947F2CDF91CF912B
:105A30001F910F910895EF92FF920F931F93CF93B1
:105A4000DF93EC010E94AB2CFE01EB5BFF4F60E0AB
:105A500070E02081318142815381B22FAA2799279A
:105A60008827E52EFF2400271127E82AF92A0A2B88
:105A70001B2BB42FA32F922F882780709070B070AB
:105A8000E82AF92A0A2B1B2B232F342F452F5527C1
:105A9000207040705070E22AF32A042B152BE192FB
:105AA000F192019311936F5F7F4F6530710589F615
:105AB0009E012B5B3F4FC901DF91CF911F910F9149
:105AC000FF90EF900895109287061092860688EA5C
:105AD00091E0909385068093840608950F931F9319
