:100000000C9403010C949C160C94C9160C943401A6
:100010000C9434010C9434010C9434010C9434018C
:100020000C9434010C9434010C9434010C9434017C
:100030000C9434010C9434010C9434010C9434016C
:100040000C9472150C9434010C9451180C949F1854
:100050000C9434010C9434010C9434010C9434014C
:100060000C946A070C9434013A0030005472616EAB
:10007000736D6974746564205061636B65743A20B4
:10008000002E2E2E20496E636F6E63656976616265
:100090006C6521005472616E736D697420537461D4
:1000A0007465203D2000536F6D657468696E67202C
:1000B00069732074616B696E67206C6F6E6765721F
:1000C000207468616E2065787065637465642C20A7
:1000D000526573657474696E6700526574727969EC
:1000E0006E6700417373756D696E67207072657617
:1000F000696F75736C792070616972656420426103
:1001000073652053746174696F6E00506169726920
:100110006E67204661696C656400426173652053B7
:10012000746174696F6E20416464726573733A2000
:100130000050616972696E672053756363657373FC
:1001400066756C004C61737420506169726564203F
:10015000426173653A2000556E697420416464728F
:100160006573733A20000A5B416972205175616CB6
:1001700069747920456767202D2052656D6F74651D
:10018000202D2076322E30315D004F7665727772E9
:100190006974696E6720454550524F4D0053656E36
:1001A000742041434B0000000000240027002A0077
:1001B00000000000250028002B00000000002300A4
:1001C00026002900040404040404040402020202B8
:1001D000020203030303030301020408102040800A
:1001E000010204081020010204081020000000078A
:1001F00000020100000304060000000000000000EF
:10020000FF0106060B1A11241FBECFEFD8E0DEBF98
:10021000CDBF14BE88E10FB6F894809360001092B1
:1002200060000FBE11E0A0E0B1E0E4E6FAE302C036
:1002300005900D92A436B107D9F713E0A4E6B1E01A
:1002400001C01D92AE3CB107E1F712E0C6E0D2E07A
:1002500004C02297FE010E94F51CC030D107C9F7E7
:100260000E94691A0C94301D0C940000A0E0B0E0CC
:10027000ECE3F1E00C94011DEC01A880B980CA8088
:10028000DB80A114B104C104D10441F484E2A82E9E
:1002900089EDB82E8BE5C82E87E0D82EC601B501B2
:1002A0002DE133EF41E050E00E94D81C27EA31E411
:1002B00040E050E00E94971C7B018C01C601B50113
:1002C0002DE133EF41E050E00E94D81CCA01B90192
:1002D0002CEE34EF4FEF5FEF0E94971C6E0D7F1DE9
:1002E000801F911F97FF04C061507040804090486C
:1002F000688379838A839B839B01AC015F77B90113
:10030000CA01CDB7DEB7EAE00C941D1D0E9436018C
:10031000089588E191E00E943601089560931801E4
:100320007093190180931A0190931B010895FB01AA
:10033000DC0104C08D910190801921F4415050409E
:10034000C8F7881B990B0895FB01DC0102C00190DE
:100350000D9241505040D8F70895FB01DC010D90FB
:100360000020E9F7119701900D920020E1F7089520
:10037000FB01DC014150504048F001900D920020FB
:10038000C9F701C01D9241505040E0F70895A0E028
:10039000B0E0EDECF1E00C94031D7C01EB018A016F
:1003A000690109C0CE012196F6010995F7018193F3
:1003B0007F010150104001151105A1F7CDB7DEB73F
:1003C000E8E00C941F1DA0E0B0E0E9EEF1E00C9431
:1003D000031DEC017B018A01690109C0CE01219650
:1003E000F70161917F01F601099501501040011557
:1003F0001105A1F7CDB7DEB7E8E00C941F1D0F93F0
:100400001F930EEF11E085E891E0B8010E94DB1226
:1004100086E891E00E94F50D8DE991E0B8010E9417
:100420005F0F81EF91E061E146E10E9406131F91A9
:100430000F910895EF92FF920F931F9381EF91E038
:1004400060E00E941A147B018C019701A8010E94B0
:10045000931C8823B9F064EC79E080E090E00E947E
:10046000C81581EF91E060E00E941A147B018C01B5
:100470009701A8010E94931C882321F0EE24FF24F9
:1004800000E81FEBB701C8011F910F91FF90EF909B
:100490000895EF92FF920F931F9381EF91E00E94D6
:1004A000C3137B018C019701A8010E94931C882330
:1004B000A9F064EC79E080E090E00E94C81581EF3B
:1004C00091E00E94C3139B01AC010E94931C8823FE
:1004D00009F406C0EE24FF2400E81FEBB701C801B1
:1004E0001F910F91FF90EF900895EF92FF920F935D
:1004F0001F9386E891E0609164010E94260B7B01C6
:100500008C01A5E6B1E0E0E0F0E080E201900D9220
:100510008150E1F786E891E0609164010E94700DDE
:10052000BC0185E691E044E150E00E94B80185E617
:1005300091E060E071E00E94AD018DE991E063E33C
:100540000E941C0E86E891E00E94820D682F8DE9C2
:1005500091E070E00E941F0E8DE991E06EEF71E076
:100560000E947C0E86E891E00E94A00DBC018DE9FE
:1005700091E00E94730E8DE991E0609164010E9408
:10058000230E8DE991E065E671E00E94660E8DE92B
:1005900091E064E071E00E94590E8DE991E0B801AC
:1005A000A7010E94260E1F910F91FF90EF900895D2
:1005B000A5E6B1E0E0E0F0E080E201900D9281502C
:1005C000E1F785E691E06EE271E044E150E00E94DF
:1005D000B8018DE991E063E30E941C0E8DE991E082
:1005E00060E270E00E941F0E8DE991E06EEF71E015
:1005F0000E947C0E8DE991E06EEF71E00E94730E17
:100600008DE991E061E00E94230E8DE991E06EE2B8
:1006100071E00E94660E8DE991E067E371E00E944F
:10062000590E0E9449020E94491BAB01BC018DE991
:1006300091E00E94260E0895A5E6B1E0E0E0F0E02A
:1006400080E201900D928150E1F785E691E06CE146
:1006500071E044E150E00E94B8018DE991E063E36C
:100660000E941C0E8DE991E060E270E00E941F0E76
:100670008DE991E06EEF71E00E947C0E8DE991E0D2
:100680006EEF71E00E94730E8DE991E060E00E94D0
:10069000230E8DE991E06CE171E00E94660E8DE918
:1006A00091E068E271E00E94590E0E941A020E94D5
:1006B000491BAB01BC018DE991E00E94260E089513
:1006C000CF92DF92EF92FF920F931F9396E8C92E7D
:1006D00091E0D92EC601609164010E94700DBC01A9
:1006E00085E6E82E81E0F82EC70144E150E00E9443
:1006F000B801C70169E071E00E94AD010DE911E0A8
:10070000C80163E30E941C0EC6010E94820D682F7F
:10071000C80170E00E941F0EC8016EEF71E00E94D8
:100720007C0EC6010E94A00DBC01C8010E94730E80
:10073000C801609164010E94230EC801B7010E94A4
:10074000660EC80164E071E00E94590EC601609116
:1007500064010E94AE0A0E944E1BAB01BC01C8019D
:100760000E94260E1F910F91FF90EF90DF90CF9087
:100770000895A5E6B1E0E0E0F0E080E201900D929E
:100780008150E1F786E891E0609164010E94700D6C
:10079000BC0185E691E044E150E00E94B8018DE99A
:1007A00091E063E30E941C0E86E891E00E94820DB6
:1007B000682F8DE991E070E00E941F0E8DE991E0B5
:1007C0006EEF71E00E947C0E86E891E00E94A00D21
:1007D000BC018DE991E00E94730E8DE991E060917A
:1007E00064010E94230E86E891E0609164010E94FA
:1007F000700DBC018DE991E00E94660E86E891E0E3
:10080000609164010E945E0DBC018DE991E00E943F
:10081000590E86E891E0609164010E94040C0E94E8
:10082000491BAB01BC018DE991E00E94260E0895A1
:100830001F93CF93DF93EC0110E088818A3030F46E
:100840008CEA93E06AE670E00E9442178CEA93E03B
:10085000688140E150E00E942818153031F08CEAA0
:1008600093E068E670E00E9442171F5F2196163001
:1008700021F78CEA93E00E946517DF91CF911F91D9
:100880000895AF92BF92CF92DF92EF92FF920F93B3
:100890001F930E94BA155B016C0180913901813070
:1008A000B9F08091EB019091EC01A091ED01B09134
:1008B000EE0186017501E81AF90A0A0B1B0B8DE996
:1008C00091E00E943B0E6E157F0580079107A8F509
:1008D00080913A018430E1F08CEA93E066EA70E0BE
:1008E0000E9485178CEA93E00E94BB1968EE73E0C2
:1008F00080E090E00E94C81528E088E190E00FB603
:10090000F894A895809360000FBE20936000FFCFFD
:1009100010923901A092EB01B092EC01C092ED016E
:10092000D092EE011092F0011092EF0181E08093DD
:100930003A0186E891E00E9419098091EF019091B7
:10094000F001892B09F07AC080913A018230B1F030
:10095000833020F4813009F05DC006C0833021F17E
:10096000843009F057C06AC00E941C0381E090E007
:100970009093F0018093EF0182E013C00E94D802AF
:1009800081E090E09093F0018093EF011092640178
:1009900086E891E00E94B00D882311F083E001C049
:1009A00084E080933A014AC01091640186E891E0A6
:1009B0000E94910D181700F580919C01882321F465
:1009C0000E94600382E005C0823031F40E9475020B
:1009D00081E080939C0109C00E94B90310929C01A0
:1009E000809164018F5F8093640181E090E0909337
:1009F000F0018093EF0122C086E891E00E94B00DE3
:100A0000882319F01092640119C01092F00110921D
:100A1000EF01C6CF8CEA93E064E970E00E944217D0
:100A20008CEA93E060913A014AE050E00E94281875
:100A30008CEA93E061E870E00E9485178DE991E00F
:100A40000E94940E882301F18091EF019091F001B2
:100A5000892BD1F08DE991E00E94850E1092F00172
:100A60001092EF018CEA93E06CE670E00E9442176E
:100A70008CEA93E065E671E00E943D1868E873E156
:100A800080E090E00E94C8151F910F91FF90EF90B9
:100A9000DF90CF90BF90AF90089580E00E94F6164F
:100AA0000E94611A8DE991E040EC54ED61E070E044
:100AB0000E94430E8CEA93E040E052EC61E070E06B
:100AC0000E94DA188CEA93E066E671E00E948517CE
:100AD0008CEA93E067E571E00E9442178EEF91E0A7
:100AE0000E9418048CEA93E064E471E00E944217CB
:100AF0008DE991E00E94170E0E9418048DE991E0A3
:100B00000E94990E8823C9F08CEA93E061E371E0BA
:100B10000E9485178CEA93E06AE171E00E94421717
:100B20008DE991E00E94170E0E94180460E177E2BF
:100B300080E090E00E94C8151AC08CEA93E06BE058
:100B400071E00E9485178DE991E00E944B0E882389
:100B500039F08CEA93E063EE70E00E94851707C0DD
:100B60008CEA93E06AED70E00E948517C7CF0E947F
:100B7000BA156093EB017093EC018093ED019093B3
:100B8000EE01089581E0809349026093260210925D
:100B9000470210924802089581E0809349026093D1
:100BA00026021092470210924802089520912502D1
:100BB00030E080912402281B3109C9010895409139
:100BC000240280912502481718F02FEF3FEF0AC04A
:100BD000E42FF0E0EC5FFD4F8081282F30E04F5F85
:100BE00040932402C9010895E091240280912502D6
:100BF000E81718F0EFEFFFEF06C0F0E0EC5FFD4FF5
:100C00008081E82FF0E0CF010895089510924D0201
:100C100010924C0288EE93E0A0E0B0E080934E0288
:100C200090934F02A0935002B093510281E491E05F
:100C300090934B0280934A020895CF92DF92EF92F5
:100C4000FF920F931F93CF93DF937C016B018A0177
:100C5000809149028823A1F0C0E0D0E00DC0D70107
:100C6000ED91FC91D601AC0FBD1F0190F081E02DFC
:100C7000C7016C9109952196C017D10780F304C074
:100C8000CB01642F0E944F07C801DF91CF911F91C4
:100C90000F91FF90EF90DF90CF900895DF93CF9367
:100CA0000F92CDB7DEB7FC0169838091490288239A
:100CB000C9F080914802803238F081E090E093835F
:100CC000828320E030E015C080914702E82FF0E0F9
:100CD000E95DFD4F998190838F5F809347028093F8
:100CE000480205C0CE01019661E00E944F0721E055
:100CF00030E0C9010F90CF91DF9108950F93062F37
:100D00008091260267E272E04091480221E00E9451
:100D1000FA061092470210924802109249020F916F
:100D2000089561E00E947E060895413208F040E295
:100D3000862F64E072E00E94B10610922402809334
:100D40002502089521E00E9495060895109224023C
:100D50001092250210924702109248020E94FB084E
:100D60000895382F413210F040E042C08091560281
:100D70008823E1F791E090935602209358028FEF79
:100D80008093C30210927E02415040937F024F5FD6
:100D90009093570280915702330F832B8093570211
:100DA00080915902813041F410925902809157028A
:100DB0008093BB0085EC01C085EE8093BC008091E0
:100DC00056028130E1F380917E02841710F4409145
:100DD0007E0220E030E00AC0FB01E20FF31FD901E0
:100DE000A25ABD4F8C9180832F5F3F4F2417A0F3F1
:100DF000842F08950F931F93582F122F413210F014
:100E000081E04AC0809156028823E1F782E0809316
:100E10005602009358028FEF8093C30210927E0215
:100E200040937F02AEE5B2E0FB0102C081918D9359
:100E30008E2F861B8417D0F3109257028091570291
:100E4000550F852B8093570280915902813041F4D0
:100E500010925902809157028093BB0085EC01C02B
:100E600085EE8093BC00112321F0809156028230E0
:100E7000E1F38091C3028F3F11F480E00DC08091B7
:100E8000C302803211F482E007C08091C302803334
:100E900011F084E001C083E01F910F910895482F65
:100EA000613210F081E0089580915602843011F093
:100EB00082E008956093A102A0E8B2E0842F9C0133
:100EC000F90102C081918D938E2F841B8617D0F378
:100ED00080E008951F920F920FB60F9211242F9366
:100EE0003F934F935F936F937F938F939F93AF93B2
:100EF000BF93EF93FF938091B90090E0887F90704B
:100F00008036910509F4F2C081369105CCF588321E
:100F1000910509F47BC089329105B4F480319105C3
:100F200009F46FC0813191053CF4009709F447C181
:100F3000089709F04FC165C08831910509F466C072
:100F4000809709F047C182C08034910509F4A4C09C
:100F50008134910544F48033910509F482C0C89727
:100F600009F038C189C08035910509F489C08835F8
:100F7000910509F496C08834910509F02BC1AEC0E3
:100F80008839910509F413C189399105ECF4883742
:100F9000910509F4ABC0893791054CF48836910569
:100FA00009F4A4C08037910509F014C19FC08838A6
:100FB000910509F4FCC08039910509F49DC0803881
:100FC000910509F007C198C0803B910509F4C6C09E
:100FD000813B91054CF4803A910509F49FC0883A11
:100FE000910509F0F7C0BAC0803C910509F4E3C04F
:100FF000883C910509F4DFC0883B910509F0EAC0FF
:10100000C2C0809157028093BB00CFC090917E02F6
:1010100080917F02981768F490917E02E92FF0E0AA
:10102000E25AFD4F80818093BB009F5F90937E02C8
:10103000BCC080915802882309F44BC085ED809391
:10104000BC008091BC0084FDFCCFC2C080E28093D4
:10105000C30285ED8093BC008091BC0084FDFCCF71
:10106000B7C080E38093C30285ED8093BC0080917C
:10107000BC0084FDFCCFACC088E38093C3029BC05E
:1010800080917E029091BB00E82FF0E0E25AFD4F84
:1010900090838F5F80937E0290917E0280917F0289
:1010A00082C080917E029091BB00E82FF0E0E25A6E
:1010B000FD4F90838F5F80937E028091580288233A
:1010C00041F085ED8093BC008091BC0084FDFCCF95
:1010D0007FC081E08093590284EA6EC085ED8093E1
:1010E000BC008091BC0084FDFCCF72C083E0809383
:1010F00056021092C20259C08091C202803208F09A
:1011000056C08091C2029091BB00E82FF0E0EE55EE
:10111000FD4F90838F5F8093C20247C08091C202CF
:10112000803230F4E091C202F0E0EE55FD4F1082C3
:1011300085ED8093BC008091BC0084FDFCCF1092B3
:1011400056026091C202E0915C02F0915D0282EA77
:1011500092E070E009951092C2022DC084E0809365
:1011600056021092A0021092A102E0915A02F09150
:101170005B0209958091A102882329F481E0809384
:10118000A102109280029091A002E92FF0E0E058B5
:10119000FD4F80818093BB009F5F9093A002909150
:1011A000A0028091A102981710F485EC01C085E897
:1011B0008093BC000FC085EC8093BC0009C01092E6
:1011C000C30285ED8093BC008091BC0084FDFCCF00
:1011D00010925602FF91EF91BF91AF919F918F9125
:1011E0007F916F915F914F913F912F910F900FBE23
:1011F0000F901F9018951092560281E0809358022C
:101200001092590282E161E00E94CB1483E161E017
:101210000E94CB14E9EBF0E080818E7F8083808197
:101220008D7F808388E48093B80085E48093BC0040
:101230000895FC011082118208951F93613011F40A
:1012400014E005C0623011F415E001C010E08AE43A
:1012500092E060E770E00E94CC058AE492E0612FA2
:101260000E944E068AE492E00E9491061F91089522
:101270001F93CF93DF93EA018AE492E0422F0E940A
:10128000A20610E009C08AE492E00E94DF05FE0198
:10129000E10FF11D80831F5F8AE492E00E94D60572
:1012A000892B89F7DF91CF911F910895EF92FF92DB
:1012B0000F931F937A010AE412E0C8010E94C2054D
:1012C000C80161E10E944E06C8016F2D0E944E06C2
:1012D000C8016E2D0E944E06C8010E9491061F9102
:1012E0000F91FF90EF900895EF92FF920F931F934D
:1012F0008C01F62EE22E0E94560961E070E080E03B
:1013000090E00E94C815C8016F2D0E5F1F4FA80105
:101310002E2D0E94380961E070E080E090E00E948C
:10132000C8151F910F91FF90EF9008956F927F92D3
:101330008F929F92AF92BF92CF92DF92EF92FF92E5
:101340000F931F935C014A013901562F40E0445B23
:101350005F4FD50111966C9124E10E947409F5014B
:10136000828190E0A0E0B0E0BA2FA92F982F8827C3
:10137000238130E040E050E0282B392B4A2B5B2BB7
:10138000542F432F322F2227848190E0A0E0B0E039
:10139000282B392B4A2B5B2B542F432F322F2227FC
:1013A000858190E0A0E0B0E0282B392B4A2B5B2B05
:1013B000D4012D933D934D935C9313973696D501AD
:1013C00016968C9190E0A0E0B0E0BA2FA92F982F4C
:1013D0008827218130E040E050E0282B392B4A2B30
:1013E0005B2B542F432F322F2227828190E0A0E0E5
:1013F000B0E0282B392B4A2B5B2B542F432F322F55
:101400002227838190E0A0E0B0E0282B392B4A2BE3
:101410005B2BF3012083318342835383F5013A969A
:10142000D5011A968C9190E0A0E0B0E0BA2FA92FD8
:10143000982F8827218130E040E050E0282B392B7D
:101440004A2B5B2B542F432F322F2227828190E08F
:10145000A0E0B0E0282B392B4A2B5B2B542F432FD5
:10146000322F2227838190E0A0E0B0E0282B392B97
:101470004A2B5B2BF8012083318342835383F50190
:101480003E96D5011E968C9190E0A0E0B0E0BA2F78
:10149000A92F982F8827218130E040E050E0282BA9
:1014A000392B4A2B5B2B542F432F322F222782813B
:1014B00090E0A0E0B0E0282B392B4A2B5B2B542F77
:1014C000432F322F2227838190E0A0E0B0E0282B29
:1014D000392B4A2B5B2BF7012083318342835383C3
:1014E000F5017296D50152968C9190E0A0E0B0E0A3
:1014F000BA2FA92F982F8827218130E040E050E0B3
:10150000282B392B4A2B5B2B542F432F322F22278A
:10151000828190E0A0E0B0E0282B392B4A2B5B2B96
:10152000542F432F322F2227838190E0A0E0B0E098
:10153000282B392B4A2B5B2BF601208331834283E6
:1015400053831F910F91FF90EF90DF90CF90BF904A
:10155000AF909F908F907F906F900895AF92BF92C1
:10156000CF92DF92EF92FF920F931F93DF93CF936F
:10157000CDB7DEB764970FB6F894DEBF0FBECDBF10
:10158000AE014F5F5F4F9E012B5F3F4F8E01075FA4
:101590001F4FEDE0EE2EF12CEC0EFD1E71E1C72E7B
:1015A000D12CCC0EDD1E0E94960969817A818B8137
:1015B0009C810E947A1B7B018C0169897A898B89C5
:1015C0009C890E947A1B9B01AC01C801B7010E9453
:1015D000E11A7B018C016D857E858F8598890E943B
:1015E0007A1B9B01AC01C801B7010E94301C5B0152
:1015F0006C0169857A858B859C850E947A1BA60182
:1016000095010E94781A7B018C016D817E818F810A
:1016100098850E947A1B9B01AC01C801B7010E940A
:10162000301CA60195010E94E11A64960FB6F89449
:10163000DEBF0FBECDBFCF91DF911F910F91FF9005
:10164000EF90DF90CF90BF90AF9008950F931F93CE
:101650008C01562F40E0405C5F4FF801618124E02F
:101660000E947409F801828190E0A0E0B0E0BA2FF6
:10167000A92F982F8827238130E040E050E0282BC5
:10168000392B4A2B5B2B542F432F322F2227848157
:1016900090E0A0E0B0E0282B392B4A2B5B2B542F95
:1016A000432F322F2227858190E0A0E0B0E0282B45
:1016B000392B4A2B5B2BB901CA011F910F91089559
:1016C000EF92FF920F931F93CF93DF93EC01E62FDE
:1016D0007901F0E055E0EE0FFF1F5A95E1F7E40FB6
:1016E000F11D3B9633E0EE0FFF1F3A95E1F769815C
:1016F000AF0122E00E9474098A81F70180838B8107
:10170000F80180838A818F3F11F420E005C020E03A
:101710008B818F3F09F021E0822FDF91CF911F91C4
:101720000F91FF90EF9008950F931F938C01562F08
:1017300040E0405B5F4FF801618124E00E94740942
:10174000F801228130E040E050E0542F432F322F47
:101750002227638170E080E090E0622B732B842B62
:10176000952B982F872F762F6627248130E040E035
:1017700050E0622B732B842B952B982F872F762F7D
:101780006627258130E040E050E0622B732B842BEC
:10179000952B1F910F9108950F931F938C01562F36
:1017A00040E0485B5F4FF801618124E00E947409CA
:1017B000F801228130E040E050E0542F432F322FD7
:1017C0002227638170E080E090E0622B732B842BF2
:1017D000952B982F872F762F6627248130E040E0C5
:1017E00050E0622B732B842B952B982F872F762F0D
:1017F0006627258130E040E050E0622B732B842B7C
:10180000952B1F910F9108952F923F924F925F92C7
:101810006F927F928F929F92AF92BF92CF92DF9200
:10182000EF92FF920F931F93DF93CF93CDB7DEB765
:101830006D970FB6F894DEBF0FBECDBF9C8F8B8F18
:101840006D8F0E94CC0B6F8B788F898F9A8F8B8DC9
:101850009C8D6D8D0E94940B6B8B7C8B8D8B9E8BE6
:101860008B8D9C8D6D8D0E94AE0A7B018C018B8DC2
:101870009C8D6D8D0E94260B0E947A1B9B01AC01F2
:10188000C801B7010E94E11A5B016C01EE2480E0FF
:1018900090E0A0E0B0E08F87988BA98BBA8B8B8704
:1018A0009C87AD87BE878F839887A987BA878B83EC
:1018B0009C83AD83BE83A2C0698170E0882777FDD9
:1018C0008095982F0E947C1B9B01AC016F89788DBD
:1018D000898D9A8D0E94301C1B012C016A8170E059
:1018E000882777FD8095982F0E947C1B9B01AC0177
:1018F0006B897C898D899E890E94301C3B014C013B
:10190000C201B101A60195010E94DD1A882309F4E4
:10191000B2C0E39491E0E916A1F4C201B101A601BD
:1019200095010E942C1C18160CF050C0C401B30184
:10193000A20191010E94E11AA60195010E94301CAA
:1019400098C0A1E0AE1508F041C0C201B101A601E6
:1019500095010E942C1C1816CCF5C601B5012F85E7
:10196000388949895A890E942C1C18167CF5C601B1
:10197000B5012F85388949895A890E94781A5B01F7
:101980006C01C401B3012B853C854D855E850E94A9
:10199000781A7B018C01C201B1012F8538894989F0
:1019A0005A890E94781A9B01AC01C801B7010E94B4
:1019B000E11A9B01AC01C601B5010E94301C9B01DC
:1019C000AC016B857C858D859E8551C08B859C8502
:1019D000AD85BE858B839C83AD83BE838F859889BF
:1019E000A989BA898F839887A987BA876B867C86ED
:1019F0008D869E862F86388A498A5A8A8B8D9C8D41
:101A00006D8D4E2D9E012F5F3F4F8E010E5F1F4F3C
:101A10000E94600B882309F04FCFC401B3012B81D2
:101A20003C814D815E810E94781A7B018C01C2014C
:101A3000B1012F81388549855A850E94781A9B010A
:101A4000AC01C801B7010E94E11A7B018C01C601FB
:101A5000B501A20191010E94781A9B01AC01C80155
:101A6000B7010E94301C9B01AC01C401B3010E946C
:101A7000791A3B014C01B301C4016D960FB6F8947D
:101A8000DEBF0FBECDBFCF91DF911F910F91FF90B1
:101A9000EF90DF90CF90BF90AF909F908F907F900E
:101AA0006F905F904F903F902F900895FC0161815F
:101AB00040E050E021E00E94740908950F931F93C5
:101AC0008C01562F40E0405D5F4FF801618120E1BD
:101AD0000E9474090E5F1F4FC8011F910F91089556
:101AE0000F931F938C01562F40E0405E5F4FF8012B
:101AF000618120E10E9474090E5F1F4FC8011F9190
:101B00000F9108950F931F938C01F801618147E0B5
:101B100050E024E00E947409F80185811F910F9123
:101B200008950F931F938C01F801618140E050E00C
:101B300021E00E947409F80182811F910F9108959C
:101B40000F931F938C01F801618141E050E026E082
:101B50000E9474090E5F1F4FC8011F910F910895D5
:101B6000AF92BF92DF92EF92FF920F931F93DF939A
:101B7000CF930F92CDB7DEB77C011982FC01D080E4
:101B80005E010894A11CB11C20C0C7010E94560D23
:101B9000C7016D2D0E941D09F701118112C0103778
:101BA00081F0812FB50140E021E000E00E94FA06BB
:101BB000882339F4F701D0821183C7010E94560DA2
:101BC00008C01F5F17FFEBCFD394F2E0FD15E8F6D6
:101BD00010E0812F0F90CF91DF911F910F91FF9017
:101BE000EF90DF90BF90AF9008950F931F938C01FB
:101BF0008AE492E00E94A606F801108211821F91E9
:101C00000F9108959C01F999FECF32BD21BDF89A3C
:101C100080B508959C01F999FECF1FBA32BD21BD50
:101C200060BD0FB6F894FA9AF99A0FBE08959C0118
:101C30002E5B3F4FC9010895FC0160830895FC01AC
:101C4000718362830895FC01658B0895FC01872FE1
:101C50009927AA27BB2786ABCB01BB2797FDB09559
:101C6000AB2F87ABBB2777FDBA95A72F962F852F74
:101C700080AF41AF0895FC01E65BFF4F6081718149
:101C8000828193810895FC01E65BFF4F408351837D
:101C90006283738308958E5B9F4F6DE471E046E02D
:101CA00050E00E9497019C0180E0232B09F081E025
:101CB00008950F931F938C0186964FE050E00E9489
:101CC000B801F80115AA1F910F9108950F931F9362
:101CD0008C0146964FE050E00E94B801F80115A231
:101CE0001F910F910895DC011F96FB0186E0019082
:101CF0000D928150E1F70895DC011996FB0186E011
:101D000001900D928150E1F70895BC01DC0113961A
:101D1000FC01EE5BFF4F86E001900D928150E1F7F0
:101D20004AE30E94601108950E9476100E940511F6
:101D300008953F924F925F926F927F928F929F92FF
:101D4000AF92BF92CF92DF92EF92FF920F931F93C9
:101D5000DF93CF9300D000D000D0CDB7DEB78C0199
:101D600042E4A42EB12CA80EB91EC5016AE270E0AF
:101D700046E050E022E03EE00E94C70138010894AE
:101D8000611C711C302EE12EFF24CC24DD244E0179
:101D90000894811C911C085B1F4F37E0432E512C87
:101DA0004C0E5D1E0E947610882309F460C080915D
:101DB000C4029091C502892B09F059C08091C902D3
:101DC000853509F054C0D401EAECF2E086E00190D8
:101DD0000D928150E1F7D301F801808191819C013E
:101DE000F90186E001900D928150E1F768EC70E016
:101DF00080E090E00E94C81502C00E9476100E9408
:101E000005118823D1F380E0632D7E2D47E00E94E9
:101E100060118CEA93E06DE971E00E948517F4018E
:101E2000D50121E090818C91981320E03196119694
:101E3000E415F505B9F72223C1F48CEA93E06AE8CA
:101E400071E00E9485178AE290E0B40146E050E01C
:101E50002AE03EE00E94E301C5016AE270E046E04C
:101E600050E022E03EE00E94C701FF24F39461E0CD
:101E700070E080E090E00E94C8150894C11CD11C5D
:101E8000F0E1CF16F7E2DF0609F08CCF8F2D269612
:101E90000FB6F894DEBF0FBECDBFCF91DF911F917B
:101EA0000F91FF90EF90DF90CF90BF90AF909F90F9
:101EB0008F907F906F905F904F903F9008950F9319
:101EC0001F938C01065B1F4F80E69AEEA0E0B0E006
:101ED000F80180839183A283B383729362938F010D
:101EE00081E461E044ED0E94A411C80106976AE212
:101EF00070E046E050E022E03EE00E94C7011F9102
:101F00000F910895782F8CB581608CBD65B121E06B
:101F100030E040E050E000903B0104C0220F331F4E
:101F2000441F551F0A94D2F7522F822F8095862383
:101F300085B99EBD0DB407FEFDCF8EB57EBD0DB437
:101F400007FEFDCF4EB5382F20E085B1582B55B98F
:101F50008CB58E7F8CBD50E0422B532BCA01089567
:101F600080E090E00E94820F80911403853009F098
:101F700054C080E090EB0E94820F282F80911603BE
:101F8000882371F490911503992351F080911603E1
:101F9000E82FF0E0EA53FD4F90838F5F80931603A4
:101FA00080911603E82FF0E0EA53FD4F20838F5F06
:101FB000809316038091C4029091C5028227282F36
:101FC00022952827022E269526952025022E269535
:101FD00020252770082E892F269507942795902D68
:101FE000822706942795902582279093C502809397
:101FF000C4028091C8022091160390E0049630E05C
:10200000821793072CF080911603873408F46DC073
:102010008DE092E80E94820F08958091140387FF5B
:102020002EC0E091C802809114038F5F8093140347
:102030008150ED5FE80FF0E0EA53FD4FE0818091C1
:10204000C4029091C5028E27282F22952827022EA0
:10205000269526952025022E269520252770082EC8
:10206000892F269507942795902D822706942795EA
:10207000902582279093C5028093C40230C080913E
:1020800014038F5F809314038150833019F18430DF
:102090002CF4882399F0813009F516C0893019F0A5
:1020A0008A30E1F402C0EDE21AC0E091150390918C
:1020B000C8028EEF891B8093140311C08091C40263
:1020C0009091C502E82F0BC08091C4029091C50287
:1020D000E92F05C08DE092E80E94820FEAEA8E2F78
:1020E00090E0805098440E94820F089580911403DC
:1020F000853009F042C08091C8022091160390E01B
:10210000049630E08217930724F0809116038734F9
:10211000A0F184E0809314038091C802833430F0EE
:1021200081E090E09093C5028093C4028091C70241
:1021300086FF12C080911303282F30E0C9018F71F0
:1021400090704F9749F08091C70290E082279327C3
:102150008F719070892B89F48091C4029091C5028F
:10216000892B09F044C0E0911103F09112033097DC
:1021700009F43DC080E0099546C080911403843085
:1021800011F080E008951092C8028091C8028093F7
:1021900016038FEF9FEF9093C5028093C4022091A6
:1021A00015032223D9F08227282F22952827022ED3
:1021B000269526952025022E269520252770082E67
:1021C000892F269507942795902D82270694279589
:1021D000902582279093C5028093C40285E0809366
:1021E00014038DED92E80E94820F80E008958FEF36
:1021F0009FEFAFEFBFEF80930D0390930E03A0937B
:102200000F03B093100381E008958091140385308B
:10221000A1F480911603882381F41EBC0DB407FE3F
:10222000FDCF0EB400FC09C08DE092E80E94820F41
:1022300084E08093140381E0089580E00895982F4E
:1022400086FD05C0907E809113038F71980F909347
:10225000C702E0911103F0911203309711F081E071
:1022600009958FEF9FEF9093C5028093C4028091F0
:10227000C4029091C502209115038227282F229530
:102280002827022E269526952025022E26952025E4
:102290002770082E892F269507942795902D822741
:1022A00006942795902582279093C5028093C402B7
:1022B00086E0809314038DE392E80E94820F0895D4
:1022C0001F93182F4093C80229EC32E0C90150E057
:1022D0000E94A401812F0E941F111F91089525B112
:1022E00081E090E0A0E0B0E000903B0104C0880FE6
:1022F000991FAA1FBB1F0A94D2F7282B25B924B116
:10230000822B84B98AE061E00E94CB148AE061E00C
:102310000E948C148BE061E00E948C148CE060E0E1
:102320000E948C148DE061E00E948C1480E58CBDCD
:102330008DB581608DBD82E060E00E948C1482E0EA
:1023400061E00E94CB1408951F93162F809313030E
:10235000409315030E946F1180E090E00E94820F6D
:1023600085E092E80E94820F80E098EB02C080E056
:1023700090E00E94820F82E00E941F15892BB9F322
:10238000812F90E074E0880F991F7A95E1F7876CB0
:1023900090680E94820F80E496EA0E94820F86E095
:1023A00096EC0E94820F82EA94E90E94820F8CEAE6
:1023B00092EC0E94820F10911503112341F083E8E3
:1023C0009AEC0E94820F812F90E09E6C06C08BE8F1
:1023D0009AEC0E94820F8DE29EEC0E94820F83E8AD
:1023E00094EC0E94820F80E598E90E94820F87E7B3
:1023F0009CEC0E94820F80E090EE0E94820F80E0B1
:1024000098EC0E94820F89E490EC0E94820F84E095
:10241000809314038091130390E08F719070892B47
:1024200041F080E060EB7FE040E050E00E94661603
:1024300003C080E00E948916809113031F910895C4
:102440000F931F93579889E090E00E94211609B1DD
:1024500084E190E00E94211619B189E090E00E9489
:10246000211617FD02C080E005C0802F8095881FCF
:102470008827881F1F910F9108956F927F928F92E6
:102480009F92AF92BF92CF92DF92FF920F931F93D2
:10249000CF93DF935C013B016A0100E010E04A0149
:1024A0000894810891082AC0FF24C0E0D0E0C5014B
:1024B0000E942012FF0CF82A2196C830D105B9F7E6
:1024C000579A0815190539F45F9A84E190E00E9443
:1024D00021165F9806C05F9884E190E00E94211663
:1024E0005F9A84E190E00E942116C5010E942012AB
:1024F000F301E00FF11FF0820F5F1F4F0C151D0558
:102500009CF2DF91CF911F910F91FF90DF90CF90C0
:10251000BF90AF909F908F907F906F900895EF92B3
:10252000FF921F93CF93DF937C01162F579AC0E041
:10253000D0E017FF07C05F9884E190E00E94211669
:102540005F9A06C05F9A84E190E00E9421165F982E
:1025500084E190E00E9421162196C830D10511F047
:10256000110FE7CF5F9884E190E00E9421165F9AF7
:1025700084E190E00E942116C7010E942012DF91A1
:10258000CF911F91FF90EF9008950F931F938C01AF
:102590005F9886E090E00E942116C80165E50E94E0
:1025A0008F121F910F910895579A5F9A88E592E0D4
:1025B0000E9421160895EF92FF920F931F938C01B2
:1025C0007B01F8940E94D412C8010E94C512C80170
:1025D00060EA0E948F12C80163E00E948F12C80156
:1025E00060E00E948F12C8016AEF0E948F12C8013A
:1025F000B70146E050E00E943D12C8010E94D4128B
:1026000078941F910F91FF90EF900895FC016683DD
:10261000478381E084870895CF92DF92EF92FF9203
:102620000F931F93CF93DF93EC018E8161E00E94A3
:10263000CB146AEF70E080E090E00E94C8150E9421
:10264000BA159B01AC0188859985AA85BB85281799
:1026500039074A075B0720F4188619861A861B86F5
:102660008C85882371F488859985AA85BB85281B6C
:10267000390B4A0B5B0B205D37404040504008F45B
:1026800077C01C860E94BA15688779878A879B87DE
:102690001C821B821A82198218828E8161E00E943C
:1026A0008C148E8160E00E94CB1464E170E080E0C5
:1026B00090E00E94C815F8948E8161E00E94CB14CE
:1026C00088E290E00E9421168E8160E00E948C14C6
:1026D00081E0EE2400E010E00AC0F39481E090E095
:1026E0000E9421162FEFF21629F40AC0892FFF2429
:1026F000C82EDD248E810E941F158C159D0569F35F
:102700008E810E941F15982F8FEFF816C9F00430A4
:1027100090F000FD10C08E2D869586958695FE0161
:10272000E80FF11D8081880F808326E02F1510F4BB
:1027300081608083E3940F5F1F4F05351105B1F66B
:10274000789487E28E1510F030E013C030E04C81B1
:1027500050E02981888190E0820F911D2A81820FAB
:10276000911D2B81820F911D90704817590709F414
:1027700031E0832FDF91CF911F910F91FF90EF9068
:10278000DF90CF900895EF92FF920F931F93CF9316
:10279000DF93EC010E940C138823A9F18F818B3009
:1027A00031F08B3080F18551823068F507C0688147
:1027B00070E080E090E00E947A1B22C0688170E0A7
:1027C00080E090E00E947A1B20E030E040E853E493
:1027D0000E94301C7B018C01698170E0882777FDA5
:1027E0008095982F0E947C1B9B01AC01C801B7010A
:1027F0000E94791A20E030E040E251E40E94E11AA0
:10280000E62F692F0AC08CEA93E06EE071E00E9427
:102810003A18E0E070E080EC6FE72E2F372F482F5A
:10282000562FB901CA01DF91CF911F910F91FF90EF
:10283000EF900895CF92DF92EF92FF920F931F9344
:10284000CF93DF93EC01C62E0E940C13882309F46A
:1028500050C08F818B3041F08B3008F44AC08551D5
:10286000823008F046C007C06A8170E080E090E0E6
:102870000E947A1B29C0DA806D2D70E06F7770702E
:10288000882777FD8095982F0E947C1B20E030E000
:1028900040E853E40E94301C7B018C016B8170E0A6
:1028A000882777FD8095982F0E947C1B9B01AC01A7
:1028B000C801B7010E94791A20E030E040E251E4FB
:1028C0000E94E11AD7FC9058CC20E9F020E030E0DB
:1028D00040E151E40E94301C20E030E040EA50E446
:1028E0000E94E11A20E030E040E052E40E94791AB0
:1028F0000AC08CEA93E06EE071E00E943A1860E052
:1029000070E080EC9FE7DF91CF911F910F91FF90D6
:10291000EF90DF90CF900895CF93DF93482F50E052
:10292000CA0188529E4FFC0134914C535E4FFA010C
:102930008491882369F190E0880F991FFC01EA5582
:10294000FE4FA591B491FC01E055FE4FC591D49185
:10295000662351F42FB7F8948C91932F9095892387
:102960008C93888189230BC0623061F42FB7F8946F
:102970008C91932F909589238C938881832B8883C6
:102980002FBF06C09FB7F8948C91832B8C939FBF69
:10299000DF91CF910895482F50E0CA0184519E4F96
:1029A000FC012491CA0188529E4FFC0194914C5322
:1029B0005E4FFA013491332309F440C0222351F1D0
:1029C000233071F0243028F42130A1F0223011F5A9
:1029D00014C02630B1F02730C1F02430D9F404C03F
:1029E000809180008F7703C0809180008F7D8093DD
:1029F000800010C084B58F7702C084B58F7D84BD00
:102A000009C08091B0008F7703C08091B0008F7DA6
:102A10008093B000E32FF0E0EE0FFF1FE055FE4F74
:102A2000A591B4912FB7F894662321F48C919095D9
:102A3000892302C08C91892B8C932FBF0895682F16
:102A400070E0CB0184519E4FFC012491CB01885250
:102A50009E4FFC0144916C537E4FFB01949199234E
:102A600019F420E030E03CC0222351F1233071F012
:102A7000243028F42130A1F0223011F514C0263082
:102A8000B1F02730C1F02430D9F404C08091800027
:102A90008F7703C0809180008F7D8093800010C06D
:102AA00084B58F7702C084B58F7D84BD09C08091C5
:102AB000B0008F7703C08091B0008F7D8093B0000D
:102AC000892F90E0880F991F86549E4FFC01A59195
:102AD000B4918C9120E030E0842311F021E030E0CB
:102AE000C90108951F920F920FB60F9211242F93D0
:102AF0003F938F939F93AF93BF9380911B039091CC
:102B00001C03A0911D03B0911E0330911F03019679
:102B1000A11DB11D232F2D5F2D3720F02D570196BC
:102B2000A11DB11D20931F0380931B0390931C03D1
:102B3000A0931D03B0931E03809117039091180377
:102B4000A0911903B0911A030196A11DB11D8093A4
:102B5000170390931803A0931903B0931A03BF911E
:102B6000AF919F918F913F912F910F900FBE0F903A
:102B70001F9018958FB7F89420911B0330911C0378
:102B800040911D0350911E038FBFB901CA010895E2
:102B90009B01AC017FB7F8948091170390911803C3
:102BA000A0911903B0911A0366B5A89B05C06F3FA9
:102BB00019F00196A11DB11D7FBFBA2FA92F982F23
:102BC0008827860F911DA11DB11D62E0880F991FF6
:102BD000AA1FBB1F6A95D1F7BC012DC0FFB7F8949F
:102BE0008091170390911803A0911903B0911A03D3
:102BF000E6B5A89B05C0EF3F19F00196A11DB11DD8
:102C0000FFBFBA2FA92F982F88278E0F911DA11DC6
:102C1000B11DE2E0880F991FAA1FBB1FEA95D1F7EB
:102C2000861B970B885E9340C8F22150304040408D
:102C3000504068517C4F211531054105510571F611
:102C40000895019739F0880F991F880F991F0297EF
:102C50000197F1F70895789484B5826084BD84B5B6
:102C6000816084BD85B5826085BD85B5816085BD87
:102C7000EEE6F0E0808181608083E1E8F0E01082A0
:102C8000808182608083808181608083E0E8F0E0E1
:102C9000808181608083E1EBF0E0808184608083CB
:102CA000E0EBF0E0808181608083EAE7F0E0808102
:102CB0008460808380818260808380818160808362
:102CC0008081806880831092C1000895823000F571
:102CD000E82FF0E0EE0FFF1FE05EFC4F7183608392
:102CE000882319F08130A1F408C0809169008C7F9D
:102CF000842B80936900E89A089580916900440FBD
:102D0000551F440F551F837F842B80936900E99AD8
:102D10000895823080F4882319F0813021F402C0B4
:102D2000E89801C0E998E82FF0E0EE0FFF1FE05EA1
:102D3000FC4F1182108208951F920F920FB60F92CE
:102D400011242F933F934F935F936F937F938F93B0
:102D50009F93AF93BF93EF93FF9380912003909144
:102D60002103892B29F0E0912003F091210309959B
:102D7000FF91EF91BF91AF919F918F917F916F9153
:102D80005F914F913F912F910F900FBE0F901F9029
:102D900018951F920F920FB60F9211242F933F9305
:102DA0004F935F936F937F938F939F93AF93BF9353
:102DB000EF93FF938091220390912303892B29F0B5
:102DC000E0912203F09123030995FF91EF91BF91C8
:102DD000AF919F918F917F916F915F914F913F91B3
:102DE0002F910F900FBE0F901F901895982F8E3037
:102DF00008F09E50977080913C018295880F880F53
:102E0000807C892B80937C0080917A008064809301
:102E10007A0080917A0086FDFCCF20917800409165
:102E20007900942F80E030E0282B392BC9010895D8
:102E3000CF92DF92EF92FF920F931F93CF93DF9386
:102E40007C016B018A01C0E0D0E00FC0D6016D911A
:102E50006D01D701ED91FC910190F081E02DC7014A
:102E60000995C80FD91F015010400115110571F7C0
:102E7000CE01DF91CF911F910F91FF90EF90DF90E6
:102E8000CF900895EF92FF920F931F93CF93DF930C
:102E90007C018B01C0E0D0E0F8010F5F1F4F64910F
:102EA000662359F0D701ED91FC910190F081E02D5E
:102EB000C7010995C80FD91FEFCFCE01DF91CF9180
:102EC0001F910F91FF90EF900895EF92FF920F9353
:102ED0001F938C01DC01ED91FC910190F081E02DBC
:102EE0006DE009957C01D801ED91FC910190F08194
:102EF000E02DC8016AE009959C012E0D3F1DC90116
:102F00001F910F91FF90EF900895EF92FF920F9312
:102F10001F937C010E9442178C01C7010E94651714
:102F20009C01200F311FC9011F910F91FF90EF905D
:102F30000895CF93DF93EC016115710519F420E03A
:102F400030E00FC0DB010D900020E9F71197A61BC0
:102F5000B70BE881F9810280F381E02DAD0109957D
:102F60009C01C901DF91CF9108954F925F927F92AA
:102F70008F929F92AF92BF92CF92DF92EF92FF9289
:102F80000F931F93DF93CF93CDB7DEB7A1970FB603
:102F9000F894DEBF0FBECDBF2C01742ECB012230C2
:102FA00008F42AE019A231E2C32ED12CCC0EDD1E8A
:102FB000822E9924AA24BB24672D752FA501940184
:102FC0000E94B61C79018A01C801B701A5019401CC
:102FD0000E94971C472D461B0894C108D1084A300F
:102FE00014F4405D01C0495CF6014083E114F10432
:102FF0000105110521F07E2C5F2DC801DDCFC20136
:10300000B6010E949917A1960FB6F894DEBF0FBEC5
:10301000CDBFCF91DF911F910F91FF90EF90DF9087
:10302000CF90BF90AF909F908F907F905F904F9088
:103030000895DC012115310541F4ED91FC910190D9
:10304000F081E02D642F099508950E94B517089529
:10305000EF92FF920F931F939A01E62EFF2400E058
:1030600010E0B801A7010E9419181F910F91FF905D
:10307000EF9008950E9499170895EF92FF920F9391
:103080001F937C010E9499178C01C7010E9465174C
:10309000080F191FC8011F910F91FF90EF9008951D
:1030A00008951F920F920FB60F9211242F933F9302
:1030B0004F938F939F93EF93FF938091C00082FD76
:1030C0001DC04091C60020916403309165032F5FBD
:1030D0003F4F2F73307080916603909167032817DC
:1030E000390771F0E0916403F0916503EC5DFC4FEA
:1030F0004083309365032093640302C08091C6002F
:10310000FF91EF919F918F914F913F912F910F9050
:103110000FBE0F901F901895E091B803F091B9037E
:10312000E05CFF4F8191919120813181821B930B53
:103130008F739070892B11F00E94501808951F9280
:103140000F920FB60F9211242F933F938F939F935B
:10315000EF93FF932091A8033091A9038091AA03D4
:103160009091AB032817390731F48091C1008F7D0E
:103170008093C10014C0E091AA03F091AB03E85919
:10318000FC4F20818091AA039091AB0301968F732D
:1031900090709093AB038093AA032093C600FF9195
:1031A000EF919F918F913F912F910F900FBE0F90B4
:1031B0001F901895AF92BF92DF92EF92FF920F93FC
:1031C0001F93CF93DF93EC017A018B01DD24403014
:1031D00081EE580780E0680780E0780711F0DD2471
:1031E000D39491E0A92EB12CEC89FD89DD2069F002
:1031F000C50108A002C0880F991F0A94E2F78083D6
:1032000060E079E08DE390E005C0108260E874E84A
:103210008EE190E0A80197010E94B61C2150304039
:1032200040405040569547953795279580E120308E
:10323000380720F0DD2011F0DD24D6CFE889F989A8
:103240003083EA89FB89208319A2EE89FF894081B6
:1032500021E030E0C9010C8C02C0880F991F0A944C
:10326000E2F7482B4083EE89FF894081C9010D8C2C
:1032700002C0880F991F0A94E2F7482B4083EE8919
:10328000FF894081C9010E8C02C0880F991F0A94E2
:10329000E2F7482B4083EE89FF8980810F8C02C0C2
:1032A000220F331F0A94E2F7209528232083DF9111
:1032B000CF911F910F91FF90EF90DF90BF90AF9053
:1032C0000895DC011C96ED91FC911D97E05CFF4F89
:1032D0002191319180819181281B390B2F7330709E
:1032E000C9010895DC011C96ED91FC911D97E05CED
:1032F000FF4F20813181E054F040DF01AE5BBF4FD2
:103300008D919C9111972817390719F42FEF3FEFF2
:1033100007C08D919C91E80FF91F8081282F30E024
:10332000C9010895DC011C96ED91FC911D97E05CAC
:10333000FF4F20813181E054F040DF01AE5BBF4F91
:103340008D919C9111972817390719F42FEF3FEFB2
:1033500010C08D919C911197E80FF91F20818D91DC
:103360009C91119701968F73907011969C938E93F8
:1033700030E0C9010895DC0191968C9191978823E2
:1033800039F05496ED91FC915597808186FFF9CFE5
:1033900091961C920895CF93DF93EC01EE85FF8503
:1033A000E05CFF4F20813181E054F0402F5F3F4FC0
:1033B0002F733070DF01AE5BBF4F8D919C911197E1
:1033C00028173907D1F3E05CFF4F80819181E054E9
:1033D000F040E80FF91F6083EE85FF85E05CFF4F4A
:1033E00031832083EE89FF89208181E090E00F8C7A
:1033F00002C0880F991F0A94E2F7282B208381E0EE
:1034000089A3EC89FD8980818064808381E090E0DC
:10341000DF91CF9108951092AF031092AE0388EE22
:1034200093E0A0E0B0E08093B0039093B103A09349
:10343000B203B093B30387E591E09093AD0380931B
:10344000AC0384E293E09093B9038093B80388E6D9
:1034500093E09093BB038093BA0385EC90E0909344
:10346000BD038093BC0384EC90E09093BF038093F2
:10347000BE0380EC90E09093C1038093C00381EC85
:1034800090E09093C3038093C20382EC90E090930A
:10349000C5038093C40386EC90E09093C7038093A8
:1034A000C60384E08093C80383E08093C90387E068
:1034B0008093CA0385E08093CB0381E08093CC03A3
:1034C0000895009729F0BC0180E090E00E948E01F1
:1034D0000895CF93DF930E942B160E944D05CCE8F0
:1034E000D8E10E9441042097E1F30E948C18F9CFA3
:1034F0005058BB27AA270ED075C166D130F06BD1CA
:1035000020F031F49F3F11F41EF45BC10EF4E095FE
:10351000E7FB51C1E92F77D180F3BA176207730730
:103520008407950718F071F49EF58FC10EF4E095AD
:103530000B2EBA2FA02D0B01B90190010C01CA016D
:10354000A0011124FF27591B99F0593F50F4503E18
:1035500068F11A16F040A22F232F342F4427585F0A
:10356000F3CF469537952795A795F0405395C9F722
:103570007EF41F16BA0B620B730B840BBAF09150DA
:10358000A1F0FF0FBB1F661F771F881FC2F70EC079
:10359000BA0F621F731F841F48F48795779567954C
:1035A000B795F7959E3F08F0B3CF9395880F08F035
:1035B0009927EE0F979587950895D9D008F481E063
:1035C00008950CD00FC107D140F0FED030F021F4A7
:1035D0005F3F19F0F0C0511139C1F3C014D198F315
:1035E0009923C9F35523B1F3951B550BBB27AA2784
:1035F00062177307840738F09F5F5F4F220F331FF6
:10360000441FAA1FA9F333D00E2E3AF0E0E830D0C1
:1036100091505040E695001CCAF729D0FE2F27D0C4
:10362000660F771F881FBB1F261737074807AB0792
:10363000B0E809F0BB0B802DBF01FF2793585F4F07
:103640002AF09E3F510568F0B6C000C15F3FECF321
:10365000983EDCF3869577956795B795F7959F5FCC
:10366000C9F7880F911D9695879597F90895E1E020
:10367000660F771F881FBB1F621773078407BA077F
:1036800020F0621B730B840BBA0BEE1F88F7E095DA
:10369000089504D06894B111D9C00895BCD088F0C1
:1036A0009F5790F0B92F9927B751A0F0D1F0660F2E
:1036B000771F881F991F1AF0BA95C9F712C0B13049
:1036C00081F0C3D0B1E00895C0C0672F782F88275C
:1036D000B85F39F0B93FCCF3869577956795B39588
:1036E000D9F73EF490958095709561957F4F8F4FF7
:1036F0009F4F0895E89409C097FB3EF490958095FC
:10370000709561957F4F8F4F9F4F9923A9F0F92FA7
:1037100096E9BB279395F695879577956795B79525
:10372000F111F8CFFAF4BB0F11F460FF1BC06F5F0B
:103730007F4F8F4F9F4F16C0882311F096E911C01D
:10374000772321F09EE8872F762F05C0662371F03E
:1037500096E8862F70E060E02AF09A95660F771F52
:10376000881FDAF7880F9695879597F90895990F2E
:103770000008550FAA0BE0E8FEEF16161706E8073B
:10378000F907C0F012161306E407F50798F0621B5C
:10379000730B840B950B39F40A2661F0232B242B31
:1037A000252B21F408950A2609F4A140A6958FEF50
:1037B000811D811D089597F99F6780E870E060E0A2
:1037C00008959FEF80EC089500240A9416161706BA
:1037D00018060906089500240A9412161306140602
:1037E00005060895092E0394000C11F4882352F065
:1037F000BB0F40F4BF2B11F460FF04C06F5F7F4F1D
:103800008F4F9F4F089557FD9058440F551F59F003
:103810005F3F71F04795880F97FB991F61F09F3FBD
:1038200079F087950895121613061406551FF2CFE6
:103830004695F1DF08C0161617061806991FF1CF36
:1038400086957105610508940895E894BB2766275D
:103850007727CB0197F908958ADF08F48FEF089551
:103860000BD0C0CFB1DF28F0B6DF18F0952309F0F8
:10387000A2CFA7CF1124EACFC6DFA0F3959FD1F343
:10388000950F50E0551F629FF001729FBB27F00D0E
:10389000B11D639FAA27F00DB11DAA1F649F662763
:1038A000B00DA11D661F829F2227B00DA11D621FB2
:1038B000739FB00DA11D621F839FA00D611D221F6C
:1038C000749F3327A00D611D231F849F600D211D50
:1038D000822F762F6A2F11249F5750408AF0E1F0F3
:1038E00088234AF0EE0FFF1FBB1F661F771F881F3C
:1038F00091505040A9F79E3F510570F05CCFA6CF84
:103900005F3FECF3983EDCF3869577956795B79526
:10391000F795E7959F5FC1F7FE2B880F911D969550
:10392000879597F9089523DF880B990B0895629F77
:10393000D001739FF001829FE00DF11D649FE00DA7
:10394000F11D929FF00D839FF00D749FF00D659F08
:10395000F00D9927729FB00DE11DF91F639FB00D07
:10396000E11DF91FBD01CF0111240895A1E21A2E16
:10397000AA1BBB1BFD010DC0AA1FBB1FEE1FFF1F13
:10398000A217B307E407F50720F0A21BB30BE40B63
:10399000F50B661F771F881F991F1A9469F76095AA
:1039A0007095809590959B01AC01BD01CF01089564
:1039B00097FB092E05260ED057FD04D0D7DF0AD07D
:1039C000001C38F450954095309521953F4F4F4F4E
:1039D0005F4F0895F6F790958095709561957F4FAC
:1039E0008F4F9F4F0895EE0FFF1F0590F491E02D2C
:1039F00009942F923F924F925F926F927F928F9293
:103A00009F92AF92BF92CF92DF92EF92FF920F936D
:103A10001F93CF93DF93CDB7DEB7CA1BDB0B0FB677
:103A2000F894DEBF0FBECDBF09942A883988488834
:103A30005F846E847D848C849B84AA84B984C884CA
:103A4000DF80EE80FD800C811B81AA81B981CE0FC1
:103A5000D11D0FB6F894DEBF0FBECDBFED010895A6
:103A6000F894FFCF5F7230006F686D73005F726112
:103A7000770052656164206661696C000100000096
:103A800054656D7065726174757265006465672058
:103A9000430048756D69646974790025000104026A
:103AA00001000000004E061D06D605DF05F40505E1
:103AB00006FFFFFFFFFFFF00000000CB1918176192
:103AC0001992197219BB19001B81AA81B981CE0FF5
:103AD000D11D0FB6F894DEBF0FBECDBFED01089526
:103AE000F894FFCF5F7230006F686D73005F726192
:103AF000770052656164206661696C000100000016
:103B00001092CB041093CD041093CC0483E086AFC5
:103B100017AEC701612F0E94681B1F91FF90EF90A5
:103B20000895FC01A681B7816D93B783A68381E0D8
:103B300090E00895DF92EF92FF920F931F93CF933F
:103B4000DF93D82E862FBA01213041F4675F7F4F73
:103B50009B0140E050E0695070400EC0223029F0D7
:103B600020E030E040E050E007C0625070409B0130
:103B700040E050E06E5F7F4FE82EFF2482E392E04A
:103B8000E80EF91E8B01E7010FC0F881E0E08981A2
:103B900090E08E2B9F2BA0E0B0E0280F391F4A1F2A
:103BA0005B1F2296025010400230110570F7CB01C6
:103BB0008E7FD701A80FB91F6817790779F08C910C
:103BC00090E0A0E0B0E0BA2FA92F982F882702C07C
:103BD00040E050E0280F391F4A1F5B1FCA01AA2787
:103BE000BB270097A105B10599F7C901809590956C
:103BF000ED2DF0E0EE5CFD4F90838183DF91CF915E
:103C00001F910F91FF90EF90DF90089510924A025C
:103C100010924B0280E480934602109247028093F8
:103C2000480288E16EE044E150E020E00E949A1DE5
:103C30000895809171058695809581700895809191
:103C40005705809590915305892B80935B05809152
:103C50005805809590915405892B80935C0580913F
:103C60005905809590915505892B80935D0580912C
:103C70005A05809590915605892B80935E0508958D
:103C800090938805809387057093920560939105C2
:103C900050938A05409389058CE196E090938C05BA
:103CA00080938B0510928E0510928D0530939005B0
:103CB00020938F0530914301209144018CED93E2D4
:103CC00090937905809378058CE193E290937B053E
:103CD00080937A05209374053093750581E0809375
:103CE0007205809173058F5F877080937305809351
:103CF00086050895662341F4809349014E5C5D4F2B
:103D0000509385054093840581E0089530914301E7
:103D1000209144018AE79EE190937905809378058C
:103D20008CEF92E290937B0580937A052093740543
:103D30003093750581E080937205809173058F5FE4
:103D4000877080937305809386050895909149014B
:103D5000981719F020E030E007C08BE78093490105
:103D60002091840530918505C901089580937005DF
:103D700008950F931F93BC0102E312E0C8010E9453
:103D80008D24C80106966DE475E00E948D241F9174
:103D90000F910895EF92FF920F931F937B010E9462
:103DA000B91E00E512E0C801B7010E949524C801C0
:103DB000049763E575E00E9495241F910F91FF9091
:103DC000EF900895EF92FF920F931F93CF93DF939D
:103DD0007C01EB018A018CE795E00E94CA1E888174
:103DE000807F803E49F088819981AA81BB818F5F65
:103DF0009F4FAF4FBF4F31F482E392E06CE771E029
:103E00000E948D2488E080933E0210923F0280E45D
:103E100092E067E775E049E050E00E9424041092C8
:103E2000420281E1809349021093560200935702A7
:103E3000F0925402E09255021092580210925A02E7
:103E400010925B02DF91CF911F910F91FF90EF9045
:103E50000895EF92FF920F931F9308E312E0C801B9
:103E60000E94B91E74E1E72EF12CE00EF11EC8018C
:103E70004896B7010E949524C70163E575E00E944A
:103E800095240E94061E1F910F91FF90EF900895B8
:103E9000BC0181E0809371058FE595E00E94952437
:103EA00008950F931F938C018896909342028093FC
:103EB00043020E94061E1092640210926502045E84
:103EC0001F4F82E36AE1A80122E00E949A1DC80107
:103ED0004A960E94CA171F910F910895CF93DF93BE
:103EE0009C01862F806180936102643029F0211546
:103EF000310511F421E030E0909156028091540296
:103F000080935602909354029091570280915502EB
:103F10008093570290935502CBE5D2E08881A901A6
:103F2000480F511D2C814C832883252F332721973F
:103F300052E0C735D50791F71D861E8680E5898733
:103F40001092420288E2809343020E94291F84E07B
:103F50008B871C8682E36AE14CE150E022E00E94FC
:103F60009A1D86E390E00E94CA17DF91CF910895D1
:103F7000E82F4091560250E0292F30E042175307B6
:103F800009F092C0809157028E1709F08DC0809180
:103F90006102E82F81FF4EC0109242028CE28093B2
:103FA00043020E94291F82E1809361029091560290
:103FB000809154028093560290935402909157023C
:103FC000809155028093570290935502EBE5F2E001
:103FD00021E030E08081A901480F511D4483108207
:103FE000252F3327319752E0E735F50799F71586E6
:103FF00016861182128280914801838314828D5F1C
:104000008093480182E0818B84E0828B95E0938BE2
:10401000148A80E68187938788E7848782E36AE150
:1040200040E250E022E00E949A1D8AE390E00E9464
:10403000CA173AC084FF38C09091420280E02091B4
:10404000430230E0282B392B80916002482F50E04A
:10405000A4E055954795AA95E1F7CA01880F991FE5
:10406000880F991F281B390B2451304037FF02C09D
:1040700020E030E03093830520938205232B69F004
:104080009A01220F331F220F331F2E5D3F4F6850BE
:1040900070406217730740F009C0E0FF05C080E080
:1040A00090E060E00E946E1F20E030E0C9010895BA
:1040B0000F931F93DF93CF930F92CDB7DEB78C0191
:1040C000045E1F4F109342020C511040802F845EFB
:1040D0008093430289830E94061E085F1F4F10933E
:1040E00058028981845180935902085F1F4F88E2EA
:1040F0006AE1A80121E00E949A1DC8014A960E9427
:10410000CA170F90CF91DF911F910F910895DF9201
:10411000EF92FF920F931F93CF93DF93EC01809167
:104120006F05882319F0CE010E945B13209709F0D8
:10413000BFC0809171058570F1F18091450190912A
:104140004601892BC1F50E94AB168823A1F18CE7AB
:1041500091E00E94B91E88E080933E02E6E0FE2EC8
:10416000F0923F0280E492E06FE675E048E050E0B4
:104170000E94240402E512E0D8011D92FA94E9F7A6
:10418000C8010A976DE475E00E948D24C801069667
:104190006FE575E00E949524C801049763E575E01A
:1041A0000E949524809171058860809371058AE250
:1041B00090E00E94CA1780914501909146010196B6
:1041C000909346018093450180917205813009F0FA
:1041D00003C28091710581FFFFC102E00093720567
:1041E000809147018F5F809347018F711091730514
:1041F0001295110F107E182BE0907405D090750564
:104200008CE795E06BE675E00E94CA1E78E0F72E19
:10421000F0923E0210923F0280E492E067E775E080
:1042200049E050E00E9424048CE28093430286E03F
:10423000809349020E94061EE0925602D0925702D5
:104240008BE08093540210935502E8E5F2E0DF0121
:104250001D92FA94E9F78091480180935A028D5F8C
:104260008093480180E6809360020093610283E0BE
:1042700080936202109263021092640210926502AF
:1042800010926602109267020093680284E08093A5
:10429000690200936A0286E280936B0282E36AE11C
:1042A00040E250E022E00E949A1D8AE390E0AFC015
:1042B000C932D10508F490C110913E02183009F0BE
:1042C00096C180913F02863009F091C188E592E065
:1042D00063E575E044E050E00E946E04009709F049
:1042E00086C180914702813029F588E392E00E94DF
:1042F000B91E1092460282E08093470282E592E066
:1043000068E472E00E948D2488E492E06DE475E038
:104310000E948D2488E592E06EE472E00E9495246C
:104320008EE492E063E575E00E9495248AE290E0D5
:104330000E94CA178091710583FF4EC110914702F8
:10434000123009F049C18EE492E06FE575E044E077
:1043500050E00E946E04009709F03EC18CE795E0A2
:1043600068E472E00E948D241093710535C1183005
:1043700009F032C180913F02882309F02DC180915C
:104380004002853409F028C180E592E063E575E0DC
:1043900044E050E00E946E040097A9F080E592E0AE
:1043A0006BE575E044E050E00E946E04009759F020
:1043B00080E592E06CE771E044E050E00E946E041A
:1043C000009709F009C180914902813019F5809167
:1043D00054028830F9F4E0917605F0917705309732
:1043E00019F08CE492E009950E94291F1092540262
:1043F00080915602883F28F0809157028F5F80930A
:10440000570280915602885F80935602CE010E9427
:10441000CA17E2C00E942024882351F080914902EB
:10442000813131F4CE010E942524882309F0D4C0C3
:10443000C633D10528F480914902863009F0CCC0FA
:10444000809156028B3009F0BEC08CE492E06BE69E
:1044500075E044E050E00E946E04009709F0BCC093
:1044600080916102382F82FF13C0E0917805F091AE
:104470007905309759F0809157028295869587701B
:1044800063E040E050E020E030E0099585E090C036
:104490009091420280E020914302022F10E0082B0D
:1044A000192B80916002482F50E064E055954795A4
:1044B0006A95E1F7CA01880F991F880F991F081B99
:1044C000190B0451104017FF02C000E010E080916A
:1044D0007205823079F531FF21C034FF1FC080E0C2
:1044E00090E060E00E946E1F88E180936102E0919D
:1044F0007A05F0917B05309719F420E030E007C091
:104500008091550282958695877009959C0183E07C
:1045100080937205C9010E94511F5EC081E08093A3
:10452000720534FF03C080E090E002C0C80101962C
:1045300064E046C0833081F50115110579F1E09101
:104540007805F0917905309749F1440F551F440FD4
:10455000551FCE0108974E5D5F4F8417950708F4ED
:10456000AC01C801840F951FC817D90710F0980136
:1045700003C09E01241B350B8091570282958695BE
:10458000877060E0099580917005882319F0C80153
:1045900068E016C0C80108C08530F1F030FF0BC0DC
:1045A0008330D1F0C801019669E00E946E1F86E059
:1045B0008093720511C00115110571F0C80160E00A
:1045C0000E946E1F09C08091430190914401BE0179
:1045D0000E94B81F9C0102C020E030E0C901DF91B9
:1045E000CF911F910F91FF90EF90DF900895CA3205
:1045F000D10508F0BCCEF0CFEF92FF920F931F933E
:104600000E94F11A8C01F8E6EF2EF2E0FF2E80E016
:1046100090E0B801A7010E94961C0E947E1BE00E4C
:10462000F11EF70110828BE780934901C8011F91A9
:104630000F91FF90EF900895CF92DF92EF92FF924B
:104640000F931F93DF93CF93CDB7DEB728970FB6A5
:10465000F894DEBF0FBECDBF28E632E03E832D8347
:1046600038872F8390918605891709F08FC01C82A7
:104670001B8286E891E09A83898340918D05509151
:104680008E0541155105A9F58DB79EB70C970FB64C
:10469000F8949EBF0FBE8DBFEDB7FEB73196CE0129
:1046A0000196ADB7BEB712969C938E93119788EF83
:1046B00095E0938382838091870590918805958307
:1046C0008483809191059091920597838683809150
:1046D000890590918A059187808780918B059091BB
:1046E0008C05938782870E946C198DB79EB70C96B4
:1046F00048C020918B0530918C05E0908705F090A3
:1047000088050091890510918A052115310519F058
:104710006FE071E004C062E171E020E835E0DA01A9
:104720000D900020E9F76D010894C108D108C41A62
:10473000D50A8DB79EB740970FB6F8949EBF0FBEAF
:104740008DBFEDB7FEB73196CE010196ADB7BEB7BE
:1047500012969C938E93119781E895E093838283C0
:10476000F582E48217830683318720877387628707
:10477000D586C486578746870E946C198DB79EB729
:1047800040960FB6F8949EBF0FBE8DBF2F8138851F
:104790008D819E81281B390BC90128960FB6F8948C
:1047A000DEBF0FBECDBFCF91DF911F910F91FF9064
:1047B000EF90DF90CF9008950F931F93CF93DF93E7
:1047C000890190918605891759F0E0918F05F09144
:1047D000900584E060E070E040E050E009952AC078
:1047E000662341F52D30310528F1C0918F05D09118
:1047F00090052097F9F0455C5D4F83E191E0BA01A7
:1048000043E050E00E9496049C0180E0232B09F0D5
:1048100081E06091600270E0B4E075956795BA95AB
:10482000E1F7660F771F660F771F6E5D7F4FA80158
:10483000FE01099580E0DF91CF911F910F910895BE
:104840008091BB05811181E00895CF92DF92EF92B4
:10485000FF920F931F93CF93DF93C3E9D5E030E02E
:10486000CC24DD2429C02A814B818091560290E01E
:10487000042F10E080179107D9F4909157029217F6
:10488000B9F48C818823A1F02091590230E028509E
:104890003040F0905802EE242E0D3F1DE881F98142
:1048A000892F942F6CE472E04CE552E0099531E0D9
:1048B0000894C11CD11C25968091BB0590E0C816B8
:1048C000D9068CF2832FDF91CF911F910F91FF902A
:1048D000EF90DF90CF9008950F931F93CF93DF93C6
:1048E0008C01C0E0D0E0F801EC0FFD1F8BEC97E0ED
:1048F00060814AE050E00E942635C33029F08BECFD
:1049000097E06EE20E9419342196C430D10559F720
:10491000DF91CF911F910F910895DC01FB0186E09B
:1049200001900D928150E1F708959C01FB01808177
:104930009181A281B381F90180839183A283B383A2
:104940000895EDEEF7E020E030E003C031962F5FF0
:104950003F4F8081853C29F488E0EF3FF807B1F3B1
:10496000A8F3C9010895FC011782168210821382F0
:104970001186108611821482138612861282158285
:10498000178A1786108A118A128A08951F93CF9367
:10499000DF93FC01648745872687EC0110E08C8556
:1049A00061E00E94C6308C8560E070E00E94663055
:1049B0001F5F2196133099F7DF91CF911F910895D2
:1049C0004F925F926F927F928F929F92AF92BF921F
:1049D000CF92DF92EF92FF920F931F93CF93DF93CB
:1049E000582E492E5B01FB01248135818281938100
:1049F0002817390708F4C901F50120813181BC016C
:104A00002817390708F4B901852D942D9C016901F7
:104A1000C0E0D0E03B0188249924C401B3010E9486
:104A200034377B018C01F501EC0FFD1F6081718132
:104A300080E090E00E9434379B01AC01C801B701CF
:104A40000E94A03620E030E040E853E40E94C237E4
:104A500020E030E040E05FE30E943C360E940837EF
:104A6000F601748F638F229682E090E0C80ED91E03
:104A7000C630D10591F6852D942D65E043E026E002
:104A80000E94C624DF91CF911F910F91FF90EF906C
:104A9000DF90CF90BF90AF909F908F907F906F905E
:104AA0005F904F900895DF93CF9300D000D000D057
:104AB000CDB7DEB7DE011196E0E9F1E026E0019026
:104AC0000D922150E1F7BE016F5F7F4F0E94E024FD
:104AD00026960FB6F894DEBF0FBECDBFCF91DF9103
:104AE0000895EF92FF920F931F937C018B01FB01BE
:104AF0006081FC01848570E00E946630F80161816C
:104B0000F701858570E00E946630F8016281F70147
:104B1000868570E00E9466301F910F91FF90EF90A4
:104B200008952F923F924F925F926F927F928F9251
:104B30009F92AF92BF92CF92DF92EF92FF920F932C
:104B40001F93DF93CF9300D00F92CDB7DEB7382EEF
:104B5000292E2B019C0139018824992400D000D0F2
:104B6000F201E80DF91D608170E080E090E0F30152
:104B7000238D348D40E050E0EDB7FEB721833283C2
:104B80004383548320E030E040E050E0EFEFEE2E2E
:104B9000F12C012D112DAA24BB2465010E94F235B0
:104BA000E1E0F0E0EC0FFD1FE80DF91DCB010F90E7
:104BB0000F900F900F906F3F710519F010F08FEF6D
:104BC00090E080830894811C911C82E090E0680E44
:104BD000791E93E08916910409F6832D922DBE016A
:104BE0006F5F7F4F0E9471250F900F900F90CF91B4
:104BF000DF911F910F91FF90EF90DF90CF90BF90CA
:104C0000AF909F908F907F906F905F904F903F906C
:104C10002F9008952F923F924F925F926F927F92C2
:104C20009F92AF92BF92CF92DF92EF92FF920F933B
:104C30001F93DF93CF93CDB7DEB72C970FB6F894C1
:104C4000DEBF0FBECDBF3C01DE011196EAE8F1E008
:104C500083E001900D928150E1F70E94BA2FF30199
:104C60002785308941895289621B730B840B950B10
:104C70000E94343720E030E048EC52E40E94C23712
:104C80007B018C01F30163897489858996890E946F
:104C900036379B01AC01C801B7010E94A0360E94C3
:104CA0000837CB016536710510F084E690E0788610
:104CB0006F821301442455249C0140E050E0298771
:104CC0003A874B875C87F301E40DF51D908000D097
:104CD00000D0F10186819781AA2797FDA095BA2F70
:104CE000EDB7FEB781839283A383B48369857A8508
:104CF0008B859C8520E030E040E050E0B4E6EB2E70
:104D0000F12C012D112DAA24BB2465010E94F2353E
:104D1000E4E0F0E0EC0FFD1FE40DF51D960E90822F
:104D20000894411C511C22E030E0220E331E0F90EB
:104D30000F900F900F9033E04316510421F6C301FA
:104D4000BE016C5F7F4F0E94912520E0F3019381AB
:104D50008C81981321E081E02827F30194818D81D3
:104D6000981320E0F30195818E81981320E0F301E0
:104D70008789882309F45EC0222309F45BC0228D51
:104D8000222351F48E010C5F1F4F7301A7E0CA2E3E
:104D9000D12CCC0EDD1E25C0F301808D918D0196A6
:104DA000918F808F9695879530E08217930751F702
:104DB000C301BE016F5F7F4F0E949125F3011782EF
:104DC0001682108213821186108611821482138635
:104DD000128612821582178A1786108A118A128A01
:104DE00029C0EF81F8858081F8018083EF81F88503
:104DF00023812083F80181918F01EF81F8858383DE
:104E000090E0821B9109F701978386830E94BA2F55
:104E1000F3016787708B818B928B2F8138852F5F91
:104E20003F4F38872F8342E050E0E40EF51E0C150B
:104E30001D05B9F62C960FB6F894DEBF0FBECDBF98
:104E4000CF91DF911F910F91FF90EF90DF90CF9066
:104E5000BF90AF909F907F906F905F904F903F90EA
:104E60002F900895AF92BF92CF92DF92EF92FF9270
:104E70000F931F93DF93CF9300D00F92CDB7DEB780
:104E80008C015B0169017A01DE011196EDE8F1E028
:104E900083E001900D928150E1F7C801BE016F5F80
:104EA0007F4F0E949125A801D80120E030E0FA014F
:104EB0001082F501E20FF31F8081FA0183831696B9
:104EC0008C93169717961C9217972F5F3F4F4F5F43
:104ED0005F4F12962330310551F781E0F801878B3F
:104EE000128E0E94BA2FF8016787708B818B928B8C
:104EF000C701B60122E030E040E050E00E947A387D
:104F0000F801238B348B458B568B0F900F900F90AD
:104F1000CF91DF911F910F91FF90EF90DF90CF9095
:104F2000BF90AF900895EF92FF920F937C010E9483
:104F30003227F701028F118E108E0F91FF90EF90A4
:104F400008952F923F924F925F926F927F928F922D
:104F50009F92AF92BF92CF92DF92EF92FF920F9308
:104F60001F93DF93CF93CDB7DEB762970FB6F89458
:104F7000DEBF0FBECDBF8B5B9F4FDC012D913D91FE
:104F80004D915D912D833E834F8358872D903D90A9
:104F90004D905D906D907D908D909D902D913D9167
:104FA0004D915D9129833A834B835C832D913D9193
:104FB0004D915C9113972B873C874D875E87A55554
:104FC000B040B88BAF871A8619861985103108F45E
:104FD00069C069857A856F7070706F5F7F4F660FEB
:104FE000771F660F771FEF85F8896E0F7F1FA985E2
:104FF000BA851D96AF70B0701196AA0FBB1FAA0F8D
:10500000BB1FAE0FBF1F89859A8508968F70907061
:105010000196880F991F880F991F8E0F9F1F2D9142
:105020003D914D915C91FC0180819181A281B38180
:10503000282739274A275B27FB0180819181A2819C
:10504000B381282739274A275B27E985FA853296D5
:10505000EF70F0703196EE0FFF1FEE0FFF1F8F8580
:105060009889E80FF91F80819181A281B381282757
:1050700039274A275B27DA01C901880F991FAA1F20
:10508000BB1F222757FD2395332744275527822B03
:10509000932BA42BB52BFB0180839183A283B38335
:1050A0001431C8F429813A814B815C81262537254A
:1050B00048255925222133214421552189819A816E
:1050C000AB81BC81282739274A275B2727563648DA
:1050D0004D47554A46C0183298F4A4019301222541
:1050E00033254425552589819A81AB81BC812827A8
:1050F00039274A275B272F5534414642514931C051
:105100001C33E8F4A40193012229332944295529A9
:1051100089819A81AB81BC81282339234A235B236F
:10512000D401C30182219321A421B521282B392B3D
:105130004A2B5B2B24523344444E504712C0A401E7
:105140009301222533254425552589819A81AB81F8
:10515000BC81282739274A275B272A523E434D49DD
:105160005543ED80FE800F811885EBE1169507957C
:10517000F794E794EA95D1F78D819E81AF81B88548
:1051800075E0880F991FAA1FBB1F7A95D1F7E82AEF
:10519000F92A0A2B1B2B8B859C85AD85BE85E80ED5
:1051A000F91E0A1F1B1FE985FA85EF70F070319612
:1051B000EE0FFF1FEE0FFF1FAF85B889EA0FFB1F31
:1051C00080819181A281B381E80EF91E0A1F1B1F05
:1051D000E20EF31E041F151F620151019EE1AA0C8D
:1051E000BB1CCC1CDD1C9A95D1F782E056944794E9
:1051F000379427948A95D1F7A228B328C428D528B4
:10520000E985FA853196FA87E98729813A814B81C8
:105210005C812B873C874D875E87B301898A9A8A98
:105220002D803E804F805884E035F10589F0C7011C
:10523000D8018D839E83AF83B887350146014989A4
:105240005A89CB01DA0189839A83AB83BC83BDCEB3
:10525000EF85F889EB5BFF4F80819181A281B3815B
:10526000E80EF91E0A1F1B1FE082F18202831383DE
:105270006F857889675B7F4FFB0180819181A28177
:10528000B3812D813E814F815885820F931FA41FCA
:10529000B51F80839183A283B383EF85F889E35B95
:1052A000FF4F80819181A281B381A80EB91ECA1ED1
:1052B000DB1EA082B182C282D382EF85F889EF5AC9
:1052C000FF4F80819181A281B381860D971DA81D1A
:1052D000B91D80839183A283B3836F8578896B5ACC
:1052E0007F4FFB0180819181A281B38129813A8125
:1052F0004B815C81820F931FA41FB51F8083918314
:10530000A283B38362960FB6F894DEBF0FBECDBF03
:10531000CF91DF911F910F91FF90EF90DF90CF9091
:10532000BF90AF909F908F907F906F905F904F90C5
:105330003F902F900895CF93DF939C01EC01CC5BBD
:10534000DF4F988183E08927F901E80FF11D64831D
:105350009F5F9883903421F4C9010E94A12718828D
:10536000DF91CF910895FC01E75AFF4F20813181F1
:10537000428153812F5F3F4F4F4F5F4F20833183D7
:10538000428353830E949B2981E090E008950F930C
:105390001F93CF93DF93EC0160E80E949B298E015D
:1053A0000C5B1F4F04C0CE0160E00E949B29F801F6
:1053B00080818833C1F7CE0160E00E949B29CE0135
:1053C00060E00E949B29CE0160E00E949B298E0133
:1053D000075A1F4FF8012081318142815381FDE13D
:1053E0005695479537952795FA95D1F7CE01622FB7
:1053F0000E949B29F8012081318142815381E5E19E
:105400005695479537952795EA95D1F7CE01622FA6
:105410000E949B29F80120813181428153817DE0E6
:1054200056954795379527957A95D1F7CE01622FF6
:105430000E949B29F801208131814281538165E0DE
:1054400056954795379527956A95D1F7CE01622FE6
:105450000E949B29F8016081660F660F660FCE01DE
:105460000E949B29DF91CF911F910F910895EF9298
:10547000FF920F931F93CF93DF93EC010E94C729F4
:10548000FE01EB5BFF4F60E070E0208131814281E3
:105490005381B22FAA2799278827E52EFF240027BA
:1054A0001127E82AF92A0A2B1B2BB42FA32F922F9E
:1054B000882780709070B070E82AF92A0A2B1B2B7D
:1054C000232F342F452F5527207040705070E22A2B
:1054D000F32A042B152BE192F192019311936F5F44
:1054E0007F4F6530710589F69E012B5B3F4FC901E7
:1054F000DF91CF911F910F91FF90EF90089510923F
:10550000BF051092BE058AE991E09093BD05809396
:10551000BC0508950F931F938C018B5B9F4F68E32D
:1055200076E044E150E00E942404075A1F4FF8013E
:10553000108211821282138205511040F8011082EC
:105540001F910F910895BF92CF92DF92EF92FF9239
:105550000F931F93CF93DF93EC013DE9C32ED12C22
:10556000C80ED91E0E94372AD601FC0184E10190A1
:105570000D928150E1F7CE010E948A2A8E01035AD2
:105580001F4F2CE5B22E9DE9E92EF12CEC0EFD1EED
:10559000E881F981D8016D918D016B250190F08131
:1055A000E02DCE0109950E151F0591F7860181EBBF
:1055B000E82EF12CEC0EFD1EE881F9810190F081BE
:1055C000E02DCE01D8016D918D0109950E151F05B5
:1055D00099F7CE010E94372ADF91CF911F910F9149
:1055E000FF90EF90DF90CF90BF900895CF92DF9221
:1055F000EF92FF920F931F93CF93DF938C017B0168
:10560000EA016DE5C62ED12CC80ED91E80E4D60164
:105610001D928A95E9F741345105FCF0C8010E94BA
:105620008A2A0BC0F70161917F01D801ED91FC91AD
:105630000190F081E02DC80109952197BFEFCF3F80
:10564000DB0781F7C8010E94372AD601FC0184E1FB
:1056500001900D928150E1F704C0C601B7010E948C
:105660007B04C8010E948A2AE60156E3D52E4DE943
:10567000E42EF12CE00EF11ED801ED91FC91699120
:105680006D250190F081E02DC8010995CE15DF054B
:1056900099F7DF91CF911F910F91FF90EF90DF90DD
:1056A000CF9008952F923F924F925F926F927F9288
:1056B0008F929F92AF92BF92CF92DF92EF92FF9222
:1056C0000F931F93DF93CF93CDB7DEB7A2970FB69B
:1056D000F894DEBF0FBECDBF8B5B9F4FDC012D91D9
:1056E0003D914D915D9129833A834B835C832D914C
:1056F0003D914D915D912D833E834F8358872D9130
:105700003D914D915D9129873A874B875C876D90DC
:105710007D908D909D902D913D914D915D912D8726
:105720003E874F87588B2D913D914D915D91298BEF
:105730003A8B4B8B5C8B2D913D914D915D91BAA332
:10574000A9A32D8B3E8B4F8B588F8D919D910D90E2
:10575000BC91A02DE9A1FAA1E156F040FAA3E9A37A
:105760002CE436E03C8F2B8F41E050E05A8F498F7C
:105770000EC1598D503108F4CBC0698D7A8D6F7090
:105780007070E98DFA8D3297EF70F0703196EE0FF0
:10579000FF1FEE0FFF1F89A19AA1E80FF91FA0803C
:1057A000B180C280D380E98DFA8D3F97EF70F070A1
:1057B0003196EE0FFF1FEE0FFF1FE80FF91F6080FD
:1057C000718082809380E98DFA8D3797EF70F07049
:1057D0003196EE0FFF1FEE0FFF1FE80FF91F6F5FEF
:1057E0007F4F660F771F660F771F680F791FE08066
:1057F000F18002811381FB0180819181A281B381BB
:10580000E80EF91E0A1F1B1FD601C50121E1B6953E
:10581000A795979587952A95D1F7A6019501FFE061
:10582000220F331F441F551FFA95D1F7822B932B5C
:10583000A42BB52BA6019501EAE05695479537951F
:105840002795EA95D1F782279327A427B527A601A4
:105850009501FDE0220F331F441F551FFA95D1F724
:10586000E3E1D694C794B794A794EA95D1F72A298F
:105870003B294C295D2982279327A427B527E80EC9
:10588000F91E0A1F1B1FD401C30127E0B695A79577
:10589000979587952A95D1F7A4019301F9E1220FF5
:1058A000331F441F551FFA95D1F7822B932BA42B3E
:1058B000B52BA4019301E3E05695479537952795BD
:1058C000EA95D1F782279327A427B527A40193014E
:1058D000FEE0220F331F441F551FFA95D1F7E2E176
:1058E0009694879477946794EA95D1F72629372977
:1058F0004829592982279327A427B527E80EF91E9E
:105900000A1F1B1FDB01ED92FD920D931C93139751
:10591000EB8DFC8D3496FC8FEB8F298D3A8D2F5FAC
:105920003F4F3A8F298F8D899E89AF89B88D2989FC
:105930003A894B895C892D8B3E8B4F8B588F2D85F7
:105940003E854F855889298B3A8B4B8B5C8B6984BC
:105950007A848B849C842D813E814F815885298750
:105960003A874B875C8729813A814B815C812D8303
:105970003E834F83588729823A824B825C822D8DE9
:105980003E8D4F8D58A12D873E874F87588B2B8D8D
:105990003C8DF901A590B590C590D490A80EB91E84
:1059A000CA1EDB1E2D853E854F8558890BE0569516
:1059B0004795379527950A95D1F78D859E85AF85B3
:1059C000B88915E1880F991FAA1FBB1F1A95D1F737
:1059D000282B392B4A2B5B2B8D859E85AF85B8896B
:1059E000F6E0B695A79597958795FA95D1F7ED844A
:1059F000FE840F851889EAE1EE0CFF1C001F111FC1
:105A0000EA95D1F78E299F29A02BB12B282739277A
:105A10004A275B278D859E85AF85B88979E1B69544
:105A2000A795979587957A95D1F7ED84FE840F8594
:105A3000188967E0EE0CFF1C001F111F6A95D1F753
:105A40008E299F29A02BB12B282739274A275B278E
:105A5000A20EB31EC41ED51E89899A89AB89BC8942
:105A60002D893E894F89588D82279327A427B527F2
:105A70002D853E854F85588982239323A423B52302
:105A80002D893E894F89588D82279327A427B527D2
:105A9000A80EB91ECA1EDB1EE98DFA8D3197EF7074
:105AA000F0703196EE0FFF1FEE0FFF1F49A15AA1B4
:105AB000E40FF51F80819181A281B381A80EB91EE8
:105AC000CA1EDB1EE980FA800B811C813DE0169521
:105AD0000795F794E7943A95D1F789819A81AB813C
