:100000000C94F9000C9429160C9456160C942A01A1
:100010000C942A010C942A010C942A010C942A01B4
:100020000C942A010C942A010C942A010C942A01A4
:100030000C942A010C942A010C942A010C942A0194
:100040000C94FF140C942A010C94DE170C942C18B9
:100050000C942A010C942A010C942A010C942A0174
:100060000C945A070C942A013A0030005472616EC5
:10007000736D6974746564205061636B65743A20B4
:10008000002E2E2E20496E636F6E63656976616265
:100090006C6521005472616E736D697420537461D4
:1000A0007465203D2000536F6D657468696E67202C
:1000B00069732074616B696E67206C6F6E6765721F
:1000C000207468616E2065787065637465642C20A7
:1000D000526573657474696E6700526574727969EC
:1000E0006E6700417373756D696E67207072657617
:1000F000696F75736C792070616972656420426103
:1001000073652053746174696F6E00506169726920
:100110006E67204661696C656400426173652053B7
:10012000746174696F6E20416464726573733A2000
:100130000050616972696E672053756363657373FC
:1001400066756C004C61737420506169726564203F
:10015000426173653A2000556E697420416464728F
:100160006573733A20000A5B416972205175616CB6
:1001700069747920456767202D2052656D6F74651D
:10018000202D2076322E305D0053656E7420414361
:100190004B0000000000240027002A00000000009F
:1001A000250028002B000000000023002600290065
:1001B000040404040404040402020202020203030D
:1001C0000303030301020408102040800102040815
:1001D00010200102040810200000000700020100A6
:1001E000000304060000000000000000F501F60511
:1001F000981911241FBECFEFD8E0DEBFCDBF14BECB
:1002000088E10FB6F89480936000109260000FBEF2
:1002100011E0A0E0B1E0EEE7F9E302C005900D9235
:10022000A236B107D9F713E0A2E6B1E001C01D92F2
:10023000AC3CB107E1F711E0C2EFD1E004C0229776
:10024000FE010E94821CCC3ED107C9F70E94F6191C
:100250000C94BD1C0C940000A0E0B0E0E2E3F1E0DF
:100260000C948E1CEC01A880B980CA80DB80A1149C
:10027000B104C104D10441F484E2A82E89EDB82E62
:100280008BE5C82E87E0D82EC601B5012DE133EFEE
:1002900041E050E00E94651C27EA31E440E050E074
:1002A0000E94241C7B018C01C601B5012DE133EFB6
:1002B00041E050E00E94651CCA01B9012CEE34EF08
:1002C0004FEF5FEF0E94241C6E0D7F1D801F911F5A
:1002D00097FF04C0615070408040904868837983E4
:1002E0008A839B839B01AC015F77B901CA01CDB7BB
:1002F000DEB7EAE00C94AA1C0E942C01089588E164
:1003000091E00E942C0108956093180170931901E7
:1003100080931A0190931B010895FB01DC0104C036
:100320008D910190801921F441505040C8F7881BED
:10033000990B0895FB01DC0102C001900D92415020
:100340005040D8F70895FB01DC010D900020E9F73B
:10035000119701900D920020E1F70895FB01DC0157
:100360004150504048F001900D920020C9F701C063
:100370001D9241505040E0F70895A0E0B0E0E3EC5A
:10038000F1E00C94901C7C01EB018A01690109C029
:10039000CE012196F6010995F70181937F01015065
:1003A000104001151105A1F7CDB7DEB7E8E00C94B8
:1003B000AC1CA0E0B0E0EFEDF1E00C94901CEC017F
:1003C0007B018A01690109C0CE012196F701619183
:1003D0007F01F60109950150104001151105A1F7A3
:1003E000CDB7DEB7E8E00C94AC1C0F931F930CEF75
:1003F00011E083E891E0B8010E94681284E891E07E
:100400000E94E30D8BE991E0B8010E94EC0E8FEEA3
:1004100091E061E146E10E9493121F910F910895CE
:10042000EF92FF920F931F938FEE91E060E00E9496
:10043000A7137B018C019701A8010E94201C88232F
:10044000B9F064EC79E080E090E00E9455158FEE01
:1004500091E060E00E94A7137B018C019701A80145
:100460000E94201C882321F0EE24FF2400E81FEBCB
:10047000B701C8011F910F91FF90EF900895EF927F
:10048000FF920F931F938FEE91E00E9450137B0118
:100490008C019701A8010E94201C8823A9F064EC1C
:1004A00079E080E090E00E9455158FEE91E00E9487
:1004B00050139B01AC010E94201C882309F406C044
:1004C000EE24FF2400E81FEBB701C8011F910F9134
:1004D000FF90EF900895EF92FF920F931F9384E89F
:1004E00091E0609162010E94160B7B018C01A3E6F2
:1004F000B1E0E0E0F0E080E201900D928150E1F7A0
:1005000084E891E0609162010E945E0DBC0183E687
:1005100091E044E150E00E94AE0183E691E060E0AA
:1005200071E00E94A3018BE991E063E30E940A0E4F
:1005300084E891E00E94700D682F8BE991E070E0F3
:100540000E940D0E8BE991E06CEF71E00E946A0E43
:1005500084E891E00E948E0DBC018BE991E00E943D
:10056000610E8BE991E0609162010E94110E8BE9AE
:1005700091E063E671E00E94540E8BE991E064E043
:1005800071E00E94470E8BE991E0B801A7010E943B
:10059000140E1F910F91FF90EF900895A3E6B1E024
:1005A000E0E0F0E080E201900D928150E1F783E617
:1005B00091E06EE271E044E150E00E94AE018BE90F
:1005C00091E063E30E940A0E8BE991E060E270E043
:1005D0000E940D0E8BE991E06CEF71E00E946A0EB3
:1005E0008BE991E06CEF71E00E94610E8BE991E084
:1005F00061E00E94110E8BE991E06EE271E00E94D1
:10060000540E8BE991E067E371E00E94470E0E946F
:100610003F020E94D61AAB01BC018BE991E00E9417
:10062000140E0895A3E6B1E0E0E0F0E080E201906E
:100630000D928150E1F783E691E06CE171E044E1D5
:1006400050E00E94AE018BE991E063E30E940A0E44
:100650008BE991E060E270E00E940D0E8BE991E081
:100660006CEF71E00E946A0E8BE991E06CEF71E033
:100670000E94610E8BE991E060E00E94110E8BE90F
:1006800091E06CE171E00E94540E8BE991E068E228
:1006900071E00E94470E0E9410020E94D61AAB0120
:1006A000BC018BE991E00E94140E0895CF92DF9275
:1006B000EF92FF920F931F9394E8C92E91E0D92EE9
:1006C000C601609162010E945E0DBC0183E6E82EC6
:1006D00081E0F82EC70144E150E00E94AE01C7015D
:1006E00069E071E00E94A3010BE911E0C80163E336
:1006F0000E940A0EC6010E94700D682FC80170E0AA
:100700000E940D0EC8016CEF71E00E946A0EC601D6
:100710000E948E0DBC01C8010E94610EC80160914B
:1007200062010E94110EC801B7010E94540EC80157
:1007300064E071E00E94470EC601609162010E9470
:100740009E0A0E94DB1AAB01BC01C8010E94140E74
:100750001F910F91FF90EF90DF90CF900895A3E647
:10076000B1E0E0E0F0E080E201900D928150E1F72D
:1007700084E891E0609162010E945E0DBC0183E615
:1007800091E044E150E00E94AE018BE991E063E327
:100790000E940A0E84E891E00E94700D682F8BE998
:1007A00091E070E00E940D0E8BE991E06CEF71E03A
:1007B0000E946A0E84E891E00E948E0DBC018BE9D4
:1007C00091E00E94610E8BE991E0609162010E94CC
:1007D000110E84E891E0609162010E945E0DBC01FF
:1007E0008BE991E00E94540E84E891E060916201EF
:1007F0000E944C0DBC018BE991E00E94470E84E8F9
:1008000091E0609162010E94F40B0E94D61AAB0144
:10081000BC018BE991E00E94140E08951F93CF93C1
:10082000DF93EC0110E088818A3030F48AEA93E0AB
:100830006AE670E00E94CF168AEA93E0688140E1A0
:1008400050E00E94B517153031F08AEA93E068E66F
:1008500070E00E94CF161F5F2196163021F78AEABA
:1008600093E00E94F216DF91CF911F910895AF920D
:10087000BF92CF92DF92EF92FF920F931F930E944D
:1008800047155B016C018091E9019091EA01A0910B
:10089000EB01B091EC0186017501E81AF90A0A0B27
:1008A0001B0B8BE991E00E94290E6E157F058007D6
:1008B000910798F5809139018430E1F08AEA93E05C
:1008C00066EA70E00E9412178AEA93E00E944819D3
:1008D00068EE73E080E090E00E94551528E088E122
:1008E00090E00FB6F894A895809360000FBE209317
:1008F0006000FFCFA092E901B092EA01C092EB0143
:10090000D092EC011092EE011092ED0181E0809303
:10091000390184E891E00E9409098091ED019091EC
:10092000EE01892B09F07AC0809139018230B1F053
:10093000833020F4813009F05DC006C0833021F19E
:10094000843009F057C06AC00E94120381E090E031
:100950009093EE018093ED0182E013C00E94CE02DD
:1009600081E090E09093EE018093ED01109262019E
:1009700084E891E00E949E0D882311F083E001C07D
:1009800084E0809339014AC01091620184E891E0CB
:100990000E947F0D181700F580919A01882321F499
:1009A0000E94560382E005C0823031F40E946B023F
:1009B00081E080939A0109C00E94AF0310929A01CE
:1009C000809162018F5F8093620181E090E090935B
:1009D000EE018093ED0122C084E891E00E949E0D1B
:1009E000882319F01092620119C01092EE01109242
:1009F000ED01C6CF8AEA93E064E970E00E94CF1669
:100A00008AEA93E0609139014AE050E00E94B5170C
:100A10008AEA93E061E870E00E9412178BE991E0A6
:100A20000E94820E882301F18091ED019091EE01E8
:100A3000892BD1F08BE991E00E94730E1092EE01A8
:100A40001092ED018AEA93E06CE670E00E94CF1606
:100A50008AEA93E063E671E00E94CA1768E873E1EE
:100A600080E090E00E9455151F910F91FF90EF904C
:100A7000DF90CF90BF90AF90089580E00E948316E2
:100A80000E94EE198BE991E040EC54ED61E070E0DA
:100A90000E94310E8AEA93E040E052EC61E070E09F
:100AA0000E9467188AEA93E066E671E00E941217D6
:100AB0008AEA93E067E571E00E94CF168CEF91E03F
:100AC0000E940E048AEA93E064E471E00E94CF166B
:100AD0008BE991E00E94050E0E940E048BE991E0E3
:100AE0000E94870E8823C9F08AEA93E061E371E0EF
:100AF0000E9412178AEA93E06AE171E00E94CF1621
:100B00008BE991E00E94050E0E940E0460E177E2FD
:100B100080E090E00E9455151AC08AEA93E06BE0ED
:100B200071E00E9412178BE991E00E94390E882330
:100B300039F08AEA93E063EE70E00E94121707C072
:100B40008AEA93E06AED70E00E941217C7CF0E9414
:100B500047156093E9017093EA018093EB0190934C
:100B6000EC01089581E08093470260932402109283
:100B7000450210924602089581E0809347026093F7
:100B800024021092450210924602089520912302F9
:100B900030E080912202281B3109C901089540915B
:100BA000220280912302481718F02FEF3FEF0AC06E
:100BB000E42FF0E0EE5FFD4F8081282F30E04F5FA3
:100BC00040932202C9010895E091220280912302FC
:100BD000E81718F0EFEFFFEF06C0F0E0EE5FFD4F13
:100BE0008081E82FF0E0CF010895089510924B0224
:100BF00010924A0288EE93E0A0E0B0E080934C02AD
:100C000090934D02A0934E02B0934F0280E491E086
:100C100090934902809348020895CF92DF92EF9219
:100C2000FF920F931F93CF93DF937C016B018A0197
:100C3000809147028823A1F0C0E0D0E00DC0D70129
:100C4000ED91FC91D601AC0FBD1F0190F081E02D1C
:100C5000C7016C9109952196C017D10780F304C094
:100C6000CB01642F0E943F07C801DF91CF911F91F4
:100C70000F91FF90EF90DF90CF900895DF93CF9387
:100C80000F92CDB7DEB7FC016983809147028823BC
:100C9000C9F080914602803238F081E090E0938381
:100CA000828320E030E015C080914502E82FF0E01B
:100CB000EB5DFD4F998190838F5F80934502809318
:100CC000460205C0CE01019661E00E943F0721E087
:100CD00030E0C9010F90CF91DF9108950F93062F57
:100CE0008091240265E272E04091460221E00E9478
:100CF000EA061092450210924602109247020F91A6
:100D0000089561E00E946E060895413208F040E2C5
:100D1000862F62E072E00E94A10610922202809368
:100D20002302089521E00E94850608951092220270
:100D30001092230210924502109246020E94EB0884
:100D40000895382F413210F040E042C080915402A3
:100D50008823E1F791E090935402209356028FEF9D
:100D60008093C10210927C02415040937D024F5FFC
:100D70009093550280915502330F832B8093550237
:100D800080915702813041F41092570280915502B0
:100D90008093BB0085EC01C085EE8093BC00809100
:100DA00054028130E1F380917C02841710F4409169
:100DB0007C0220E030E00AC0FB01E20FF31FD90102
:100DC000A45ABD4F8C9180832F5F3F4F2417A0F30F
:100DD000842F08950F931F93582F122F413210F034
:100DE00081E04AC0809154028823E1F782E0809339
:100DF0005402009356028FEF8093C10210927C023E
:100E000040937D02ACE5B2E0FB0102C081918D937D
:100E10008E2F861B8417D0F31092550280915502B5
:100E2000550F852B8093550280915702813041F4F4
:100E300010925702809155028093BB0085EC01C04F
:100E400085EE8093BC00112321F080915402823002
:100E5000E1F38091C1028F3F11F480E00DC08091D9
:100E6000C102803211F482E007C08091C102803358
:100E700011F084E001C083E01F910F910895482F85
:100E8000613210F081E0089580915402843011F0B5
:100E900082E0089560939F02AEE7B2E0842F9C0148
:100EA000F90102C081918D938E2F841B8617D0F398
:100EB00080E008951F920F920FB60F9211242F9386
:100EC0003F934F935F936F937F938F939F93AF93D2
:100ED000BF93EF93FF938091B90090E0887F90706B
:100EE0008036910509F4F2C081369105CCF588323F
:100EF000910509F47BC089329105B4F480319105E4
:100F000009F46FC0813191053CF4009709F447C1A1
:100F1000089709F04FC165C08831910509F466C092
:100F2000809709F047C182C08034910509F4A4C0BC
:100F30008134910544F48033910509F482C0C89747
:100F400009F038C189C08035910509F489C0883518
:100F5000910509F496C08834910509F02BC1AEC003
:100F60008839910509F413C189399105ECF4883762
:100F7000910509F4ABC0893791054CF48836910589
:100F800009F4A4C08037910509F014C19FC08838C6
:100F9000910509F4FCC08039910509F49DC08038A1
:100FA000910509F007C198C0803B910509F4C6C0BE
:100FB000813B91054CF4803A910509F49FC0883A31
:100FC000910509F0F7C0BAC0803C910509F4E3C06F
:100FD000883C910509F4DFC0883B910509F0EAC01F
:100FE000C2C0809155028093BB00CFC090917C021B
:100FF00080917D02981768F490917C02E92FF0E0CF
:10100000E45AFD4F80818093BB009F5F90937C02E8
:10101000BCC080915602882309F44BC085ED8093B3
:10102000BC008091BC0084FDFCCFC2C080E28093F4
:10103000C10285ED8093BC008091BC0084FDFCCF93
:10104000B7C080E38093C10285ED8093BC0080919E
:10105000BC0084FDFCCFACC088E38093C1029BC080
:1010600080917C029091BB00E82FF0E0E45AFD4FA4
:1010700090838F5F80937C0290917C0280917D02AF
:1010800082C080917C029091BB00E82FF0E0E45A8E
:10109000FD4F90838F5F80937C028091560288235E
:1010A00041F085ED8093BC008091BC0084FDFCCFB5
:1010B0007FC081E08093570284EA6EC085ED809303
:1010C000BC008091BC0084FDFCCF72C083E08093A3
:1010D00054021092C00259C08091C002803208F0C0
:1010E00056C08091C0029091BB00E82FF0E0E0561E
:1010F000FD4F90838F5F8093C00247C08091C002F4
:10110000803230F4E091C002F0E0E056FD4F1082F2
:1011100085ED8093BC008091BC0084FDFCCF1092D3
:1011200054026091C002E0915A02F0915B0280EAA1
:1011300092E070E009951092C0022DC084E0809387
:10114000540210929E0210929F02E0915802F09178
:101150005902099580919F02882329F481E08093A8
:101160009F0210927E0290919E02E92FF0E0E258D9
:10117000FD4F80818093BB009F5F90939E02909172
:101180009E0280919F02981710F485EC01C085E8BB
:101190008093BC000FC085EC8093BC0009C0109206
:1011A000C10285ED8093BC008091BC0084FDFCCF22
:1011B00010925402FF91EF91BF91AF919F918F9147
:1011C0007F916F915F914F913F912F910F900FBE43
:1011D0000F901F9018951092540281E08093560250
:1011E0001092570282E161E00E94581483E161E0AD
:1011F0000E945814E9EBF0E080818E7F808380812B
:101200008D7F808388E48093B80085E48093BC0060
:101210000895FC011082118208951F93613011F42A
:1012200014E005C0623011F415E001C010E088E45C
:1012300092E060E770E00E94BC0588E492E0612FD4
:101240000E943E0688E492E00E9481061F91089564
:101250001F93CF93DF93EA0188E492E0422F0E942C
:10126000920610E009C088E492E00E94CF05FE01DA
:10127000E10FF11D80831F5F88E492E00E94C605A4
:10128000892B89F7DF91CF911F910895EF92FF92FB
:101290000F931F937A0108E412E0C8010E94B2057F
:1012A000C80161E10E943E06C8016F2D0E943E0602
:1012B000C8016E2D0E943E06C8010E9481061F9142
:1012C0000F91FF90EF900895EF92FF920F931F936D
:1012D0008C01F62EE22E0E94460961E070E080E06B
:1012E00090E00E945515C8016F2D0E5F1F4FA80199
:1012F0002E2D0E94280961E070E080E090E00E94BD
:1013000055151F910F91FF90EF9008956F927F9266
:101310008F929F92AF92BF92CF92DF92EF92FF9205
:101320000F931F935C014A013901562F40E0445B43
:101330005F4FD50111966C9124E10E946409F5017B
:10134000828190E0A0E0B0E0BA2FA92F982F8827E3
:10135000238130E040E050E0282B392B4A2B5B2BD7
:10136000542F432F322F2227848190E0A0E0B0E059
:10137000282B392B4A2B5B2B542F432F322F22271C
:10138000858190E0A0E0B0E0282B392B4A2B5B2B25
:10139000D4012D933D934D935C9313973696D501CD
:1013A00016968C9190E0A0E0B0E0BA2FA92F982F6C
:1013B0008827218130E040E050E0282B392B4A2B50
:1013C0005B2B542F432F322F2227828190E0A0E005
:1013D000B0E0282B392B4A2B5B2B542F432F322F75
:1013E0002227838190E0A0E0B0E0282B392B4A2B04
:1013F0005B2BF3012083318342835383F5013A96BB
:10140000D5011A968C9190E0A0E0B0E0BA2FA92FF8
:10141000982F8827218130E040E050E0282B392B9D
:101420004A2B5B2B542F432F322F2227828190E0AF
:10143000A0E0B0E0282B392B4A2B5B2B542F432FF5
:10144000322F2227838190E0A0E0B0E0282B392BB7
:101450004A2B5B2BF8012083318342835383F501B0
:101460003E96D5011E968C9190E0A0E0B0E0BA2F98
:10147000A92F982F8827218130E040E050E0282BC9
:10148000392B4A2B5B2B542F432F322F222782815B
:1014900090E0A0E0B0E0282B392B4A2B5B2B542F97
:1014A000432F322F2227838190E0A0E0B0E0282B49
:1014B000392B4A2B5B2BF7012083318342835383E3
:1014C000F5017296D50152968C9190E0A0E0B0E0C3
:1014D000BA2FA92F982F8827218130E040E050E0D3
:1014E000282B392B4A2B5B2B542F432F322F2227AB
:1014F000828190E0A0E0B0E0282B392B4A2B5B2BB7
:10150000542F432F322F2227838190E0A0E0B0E0B8
:10151000282B392B4A2B5B2BF60120833183428306
:1015200053831F910F91FF90EF90DF90CF90BF906A
:10153000AF909F908F907F906F900895AF92BF92E1
:10154000CF92DF92EF92FF920F931F93DF93CF938F
:10155000CDB7DEB764970FB6F894DEBF0FBECDBF30
:10156000AE014F5F5F4F9E012B5F3F4F8E01075FC4
:101570001F4FEDE0EE2EF12CEC0EFD1E71E1C72E9B
:10158000D12CCC0EDD1E0E94860969817A818B8167
:101590009C810E94071B7B018C0169897A898B8958
:1015A0009C890E94071B9B01AC01C801B7010E94E6
:1015B0006E1A7B018C016D857E858F8598890E94CE
:1015C000071B9B01AC01C801B7010E94BD1B5B0159
:1015D0006C0169857A858B859C850E94071BA60115
:1015E00095010E94051A7B018C016D817E818F819E
:1015F00098850E94071B9B01AC01C801B7010E949E
:10160000BD1BA60195010E946E1A64960FB6F89450
:10161000DEBF0FBECDBFCF91DF911F910F91FF9025
:10162000EF90DF90CF90BF90AF9008950F931F93EE
:101630008C01562F40E0405C5F4FF801618124E04F
:101640000E946409F801828190E0A0E0B0E0BA2F26
:10165000A92F982F8827238130E040E050E0282BE5
:10166000392B4A2B5B2B542F432F322F2227848177
:1016700090E0A0E0B0E0282B392B4A2B5B2B542FB5
:10168000432F322F2227858190E0A0E0B0E0282B65
:10169000392B4A2B5B2BB901CA011F910F91089579
:1016A000EF92FF920F931F93CF93DF93EC01E62FFE
:1016B0007901F0E055E0EE0FFF1F5A95E1F7E40FD6
:1016C000F11D3B9633E0EE0FFF1F3A95E1F769817C
:1016D000AF0122E00E9464098A81F70180838B8137
:1016E000F80180838A818F3F11F420E005C020E05B
:1016F0008B818F3F09F021E0822FDF91CF911F91E5
:101700000F91FF90EF9008950F931F938C01562F28
:1017100040E0405B5F4FF801618124E00E94640972
:10172000F801228130E040E050E0542F432F322F67
:101730002227638170E080E090E0622B732B842B82
:10174000952B982F872F762F6627248130E040E055
:1017500050E0622B732B842B952B982F872F762F9D
:101760006627258130E040E050E0622B732B842B0C
:10177000952B1F910F9108950F931F938C01562F56
:1017800040E0485B5F4FF801618124E00E946409FA
:10179000F801228130E040E050E0542F432F322FF7
:1017A0002227638170E080E090E0622B732B842B12
:1017B000952B982F872F762F6627248130E040E0E5
:1017C00050E0622B732B842B952B982F872F762F2D
:1017D0006627258130E040E050E0622B732B842B9C
:1017E000952B1F910F9108952F923F924F925F92E8
:1017F0006F927F928F929F92AF92BF92CF92DF9221
:10180000EF92FF920F931F93DF93CF93CDB7DEB785
:101810006D970FB6F894DEBF0FBECDBF9C8F8B8F38
:101820006D8F0E94BC0B6F8B788F898F9A8F8B8DF9
:101830009C8D6D8D0E94840B6B8B7C8B8D8B9E8B16
:101840008B8D9C8D6D8D0E949E0A7B018C018B8DF2
:101850009C8D6D8D0E94160B0E94071B9B01AC0195
:10186000C801B7010E946E1A5B016C0180E090E034
:10187000A0E0B0E08B879C87AD87BE878F83988779
:10188000A987BA878B839C83AD83BE83EE24A0C0D7
:10189000698170E0882777FD8095982F0E94091B49
:1018A0009B01AC016F89788D898D9A8D0E94BD1B3B
:1018B0001B012C016A8170E0882777FD8095982FA5
:1018C0000E94091B9B01AC016B897C898D899E89D3
:1018D0000E94BD1B3B014C01C201B101A601950153
:1018E0000E946A1A882309F4B4C0E39491E0E916CF
:1018F000A1F4C201B101A60195010E94B91B1816FD
:101900000CF050C0C401B301A20191010E946E1AF3
:10191000A60195010E94BD1B9AC0A1E0AE1508F07A
:1019200041C0C201B101A60195010E94B91B181660
:10193000CCF5C601B5012F85388949895A890E949D
:10194000B91B18167CF5C601B5012F853889498960
:101950005A890E94051A5B016C01C401B3012B85F1
:101960003C854D855E850E94051A7B018C01C20174
:10197000B1012F85388949895A890E94051A9B012E
:10198000AC01C801B7010E946E1A9B01AC01C601EF
:10199000B5010E94BD1B9B01AC016B857C858D85CB
:1019A0009E8553C08B859C85AD85BE858B839C832E
:1019B000AD83BE838F859889A989BA898F839887DB
:1019C000A987BA876B867C868D869E86C101D201E7
:1019D0008F87988BA98BBA8B8B8D9C8D6D8D4E2D9F
:1019E0009E012F5F3F4F8E010E5F1F4F0E94500BD5
:1019F000882309F04DCFC401B3012B813C814D8177
:101A00005E810E94051A7B018C01C201B1012F8108
:101A1000388549855A850E94051A9B01AC01C80189
:101A2000B7010E946E1A7B018C01C601B501A201AB
:101A300091010E94051A9B01AC01C801B7010E94E7
:101A4000BD1B9B01AC01C401B3010E94061A3B01FE
:101A50004C01B301C4016D960FB6F894DEBF0FBE02
:101A6000CDBFCF91DF911F910F91FF90EF90DF904D
:101A7000CF90BF90AF909F908F907F906F905F902E
:101A80004F903F902F900895FC01618140E050E01D
:101A900021E00E94640908950F931F938C01562F33
:101AA00040E0405D5F4FF801618120E10E946409E0
:101AB0000E5F1F4FC8011F910F9108950F931F9341
:101AC0008C01562F40E0405E5F4FF801618120E1BC
:101AD0000E9464090E5F1F4FC8011F910F91089566
:101AE0000F931F938C01F801618147E050E024E0DF
:101AF0000E946409F80185811F910F9108950F9349
:101B00001F938C01F801618140E050E021E00E94C8
:101B10006409F80182811F910F9108950F931F931B
:101B20008C01F801618141E050E026E00E946409E7
:101B30000E5F1F4FC8011F910F910895AF92BF9282
:101B4000DF92EF92FF920F931F93DF93CF930F9249
:101B5000CDB7DEB77C011982FC01D0805E0108940C
:101B6000A11CB11C20C0C7010E94440DC7016D2DEE
:101B70000E940D09F701118112C0103781F0812FE9
:101B8000B50140E021E000E00E94EA06882339F434
:101B9000F701D0821183C7010E94440D08C01F5F66
:101BA00017FFEBCFD394F2E0FD15E8F610E0812F9C
:101BB0000F90CF91DF911F910F91FF90EF90DF90E9
:101BC000BF90AF9008950F931F938C0188E492E02B
:101BD0000E949606F801108211821F910F910895BC
:101BE0009C01F999FECF32BD21BDF89A80B50895C8
:101BF0009C01F999FECF1FBA32BD21BD60BD0FB661
:101C0000F894FA9AF99A0FBE08959C012E5B3F4F03
:101C1000C9010895FC0160830895FC01718362830A
:101C20000895FC01658B0895FC01872F9927AA2749
:101C3000BB2786ABCB01BB2797FDB095AB2F87ABFE
:101C4000BB2777FDBA95A72F962F852F80AF41AF81
:101C50000895FC01E65BFF4F608171818281938171
:101C60000895FC01E65BFF4F4083518362837383D9
:101C700008958E5B9F4F6CE471E046E050E00E9457
:101C80008D019C0180E0232B09F081E008950F93E2
:101C90001F938C0186964FE050E00E94AE01F80140
:101CA00015AA1F910F9108950F931F938C014696CB
:101CB0004FE050E00E94AE01F80115A21F910F9174
:101CC0000895DC011F96FB0186E001900D92815082
:101CD000E1F70895DC011996FB0186E001900D9271
:101CE0008150E1F70895BC01DC011396FC01EE5B25
:101CF000FF4F86E001900D928150E1F74AE30E9488
:101D0000ED1008950E9403100E94921008950F9301
:101D10001F93CF93DF938C01C0E0D0E00E940310AB
:101D2000882309F447C08091C2029091C302892B95
:101D300009F040C08091C7028535E1F5E801CE5B2E
:101D4000DF4FDE01E8ECF2E086E001900D92815079
:101D5000E1F7F801E85BFF4FD8011196208131814E
:101D6000C901FC0186E001900D928150E1F768EC19
:101D700070E080E090E00E94551502C00E940310C0
:101D80000E9492108823D1F380E0B80147E00E94BE
:101D9000ED108AEA93E069E871E00E9412178AE286
:101DA00090E0BE0146E050E028EF3DE00E94D901FE
:101DB00081E00DC061E070E080E090E00E94551588
:101DC000219687E2C031D80709F0A8CF80E0DF91E3
:101DD000CF911F910F9108950F931F938C01065B74
:101DE0001F4F80E69AEEA0E0B0E0F8018083918377
:101DF000A283B383729362938F0181E461E044ED27
:101E00000E943111C80106976AE270E046E050E096
:101E100020EF3DE00E94BD011F910F910895782FA2
:101E20008CB581608CBD65B121E030E040E050E0D0
:101E300000903A0104C0220F331F441F551F0A941B
:101E4000D2F7522F822F8095862385B99EBD0DB47F
:101E500007FEFDCF8EB57EBD0DB407FEFDCF4EB59E
:101E6000382F20E085B1582B55B98CB58E7F8CBDAD
:101E700050E0422B532BCA01089580E090E00E946D
:101E80000F0F80911203853009F054C080E090EB71
:101E90000E940F0F282F80911403882371F49091D2
:101EA0001303992351F080911403E82FF0E0EC53D1
:101EB000FD4F90838F5F8093140380911403E82F6C
:101EC000F0E0EC53FD4F20838F5F809314038091EB
:101ED000C2029091C3028227282F22952827022E22
:101EE000269526952025022E269520252770082E3A
:101EF000892F269507942795902D8227069427955C
:101F0000902582279093C3028093C2028091C602DB
:101F10002091140390E0049630E0821793072CF090
:101F200080911403873408F46DC08DE092E80E941C
:101F30000F0F08958091120387FF2EC0E091C60213
:101F4000809112038F5F809312038150ED5FE80F41
:101F5000F0E0EC53FD4FE0818091C2029091C3020A
:101F60008E27282F22952827022E26952695202574
:101F7000022E269520252770082E892F2695079456
:101F80002795902D82270694279590258227909358
:101F9000C3028093C20230C0809112038F5F80938E
:101FA00012038150833019F184302CF4882399F086
:101FB000813009F516C0893019F08A30E1F402C089
:101FC000EDE21AC0E09113039091C6028EEF891BD7
:101FD0008093120311C08091C2029091C302E82F36
:101FE0000BC08091C2029091C302E92F05C08DE021
:101FF00092E80E940F0FEAEA8E2F90E080509844FA
:102000000E940F0F089580911203853009F042C09D
:102010008091C6022091140390E0049630E082176C
:10202000930724F0809114038734A0F184E0809317
:1020300012038091C602833430F081E090E09093E7
:10204000C3028093C2028091C50286FF12C08091B4
:102050001103282F30E0C9018F7190704F9749F01C
:102060008091C50290E0822793278F719070892B11
:1020700089F48091C2029091C302892B09F044C077
:10208000E0910F03F0911003309709F43DC080E018
:10209000099546C080911203843011F080E00895C4
:1020A0001092C6028091C602809314038FEF9FEFB7
:1020B0009093C3028093C202209113032223D9F08C
:1020C0008227282F22952827022E2695269520251F
:1020D000022E269520252770082E892F26950794F5
:1020E0002795902D822706942795902582279093F7
:1020F000C3028093C20285E0809312038DED92E8C3
:102100000E940F0F80E008958FEF9FEFAFEFBFEFBA
:1021100080930B0390930C03A0930D03B0930E03D5
:1021200081E00895809112038530A1F48091140319
:10213000882381F41EBC0DB407FEFDCF0EB400FC55
:1021400009C08DE092E80E940F0F84E08093120393
:1021500081E0089580E00895982F86FD05C0907E67
:10216000809111038F71980F9093C502E0910F0336
:10217000F0911003309711F081E009958FEF9FEFF8
:102180009093C3028093C2028091C2029091C302D5
:10219000209113038227282F22952827022E269587
:1021A00026952025022E269520252770082E892F7A
:1021B000269507942795902D82270694279590259C
:1021C00082279093C3028093C20286E08093120319
:1021D0008DE392E80E940F0F08951F93182F4093EC
:1021E000C60227EC32E0C90150E00E949A01812F1B
:1021F0000E94AC101F91089525B181E090E0A0E00D
:10220000B0E000903A0104C0880F991FAA1FBB1FBD
:102210000A94D2F7282B25B924B1822B84B98AE0FD
:1022200061E00E9458148AE061E00E9419148BE07A
:1022300061E00E9419148CE060E00E9419148DE0A6
:1022400061E00E94191480E58CBD8DB581608DBD63
:1022500082E060E00E94191482E061E00E9458145C
:1022600008951F93162F80931103409313030E9428
:10227000FC1080E090E00E940F0F85E092E80E9441
:102280000F0F80E098EB02C080E090E00E940F0FFB
:1022900082E00E94AC14892BB9F3812F90E074E0A6
:1022A000880F991F7A95E1F7876C90680E940F0F4D
:1022B00080E496EA0E940F0F86E096EC0E940F0FD2
:1022C00082EA94E90E940F0F8CEA92EC0E940F0FB1
:1022D00010911303112341F083E89AEC0E940F0F31
:1022E000812F90E09E6C06C08BE89AEC0E940F0F45
:1022F0008DE29EEC0E940F0F83E894EC0E940F0F7A
:1023000080E598E90E940F0F87E79CEC0E940F0F71
:1023100080E090EE0E940F0F80E098EC0E940F0F7B
:1023200089E490EC0E940F0F84E080931203809167
:10233000110390E08F719070892B41F080E06DE384
:102340007FE040E050E00E94F31503C080E00E946F
:102350001616809111031F9108950F931F9357989C
:1023600089E090E00E94AE1509B184E190E00E94FE
:10237000AE1519B189E090E00E94AE1517FD02C0BC
:1023800080E005C0802F8095881F8827881F1F91B7
:102390000F9108956F927F928F929F92AF92BF920A
:1023A000CF92DF92FF920F931F93CF93DF935C0145
:1023B0003B016A0100E010E04A010894810891089D
:1023C0002AC0FF24C0E0D0E0C5010E94AD11FF0C7F
:1023D000F82A2196C830D105B9F7579A081519057A
:1023E00039F45F9A84E190E00E94AE155F9806C0D0
:1023F0005F9884E190E00E94AE155F9A84E190E0DE
:102400000E94AE15C5010E94AD11F301E00FF11F4E
:10241000F0820F5F1F4F0C151D059CF2DF91CF91CD
:102420001F910F91FF90DF90CF90BF90AF909F9042
:102430008F907F906F900895EF92FF921F93CF93AC
:10244000DF937C01162F579AC0E0D0E017FF07C03A
:102450005F9884E190E00E94AE155F9A06C05F9A93
:1024600084E190E00E94AE155F9884E190E00E94C4
:10247000AE152196C830D10511F0110FE7CF5F9846
:1024800084E190E00E94AE155F9A84E190E00E94A2
:10249000AE15C7010E94AD11DF91CF911F91FF9042
:1024A000EF9008950F931F938C015F9886E090E062
:1024B0000E94AE15C80165E50E941C121F910F9184
:1024C0000895579A5F9A88E592E00E94AE150895A4
:1024D000EF92FF920F931F938C017B01F8940E945F
:1024E0006112C8010E945212C80160EA0E941C12C7
:1024F000C80163E00E941C12C80160E00E941C1227
:10250000C8016AEF0E941C12C801B70146E050E002
:102510000E94CA11C8010E94611278941F910F9104
:10252000FF90EF900895FC016683478381E08487E4
:102530000895CF92DF92EF92FF920F931F93CF9364
:10254000DF93EC018E8161E00E9458146AEF70E025
:1025500080E090E00E9455150E9447159B01AC0158
:1025600088859985AA85BB85281739074A075B079F
:1025700020F4188619861A861B868C85882371F4A8
:1025800088859985AA85BB85281B390B4A0B5B0B6F
:10259000205D37404040504008F477C01C860E94C0
:1025A0004715688779878A879B871C821B821A82D6
:1025B000198218828E8161E00E9419148E8160E078
:1025C0000E94581464E170E080E090E00E9455158C
:1025D000F8948E8161E00E94581488E290E00E9495
:1025E000AE158E8160E00E94191481E0EE2400E0B7
:1025F00010E00AC0F39481E090E00E94AE152FEF46
:10260000F21629F40AC0892FFF24C82EDD248E81FA
:102610000E94AC148C159D0569F38E810E94AC1448
:10262000982F8FEFF816C9F0043090F000FD10C01D
:102630008E2D869586958695FE01E80FF11D808189
:10264000880F808326E02F1510F481608083E39447
:102650000F5F1F4F05351105B1F6789487E28E158F
:1026600010F030E013C030E04C8150E029818881C7
:1026700090E0820F911D2A81820F911D2B81820F84
:10268000911D90704817590709F431E0832FDF91AD
:10269000CF911F910F91FF90EF90DF90CF90089511
:1026A000EF92FF920F931F93CF93DF93EC010E9461
:1026B00099128823A9F18F818B3031F08B3080F112
:1026C0008551823068F507C0688170E080E090E055
:1026D0000E94071B22C0688170E080E090E00E94A9
:1026E000071B20E030E040E853E40E94BD1B7B0163
:1026F0008C01698170E0882777FD8095982F0E9472
:10270000091B9B01AC01C801B7010E94061A20E019
:1027100030E040E251E40E946E1AE62F692F0AC0B1
:102720008AEA93E06EE071E00E94C717E0E070E093
:1027300080EC6FE72E2F372F482F562FB901CA0193
:10274000DF91CF911F910F91FF90EF900895CF925D
:10275000DF92EF92FF920F931F93CF93DF93EC01E1
:10276000C62E0E949912882309F450C08F818B30A5
:1027700041F08B3008F44AC08551823008F046C0E1
:1027800007C06A8170E080E090E00E94071B29C0CA
:10279000DA806D2D70E06F777070882777FD8095F7
:1027A000982F0E94091B20E030E040E853E40E948B
:1027B000BD1B7B018C016B8170E0882777FD8095C4
:1027C000982F0E94091B9B01AC01C801B7010E9410
:1027D000061A20E030E040E251E40E946E1AD7FC75
:1027E0009058CC20E9F020E030E040E151E40E9434
:1027F000BD1B20E030E040EA50E40E946E1A20E069
:1028000030E040E052E40E94061A0AC08AEA93E0EF
:102810006EE071E00E94C71760E070E080EC9FE717
:10282000DF91CF911F910F91FF90EF90DF90CF90AC
:102830000895CF93DF93482F50E0CA018C539E4FE9
:10284000FC01349140555E4FFA018491882369F16F
:1028500090E0880F991FFC01EE56FE4FA591B491B0
:10286000FC01E456FE4FC591D491662351F42FB775
:10287000F8948C91932F909589238C938881892348
:102880000BC0623061F42FB7F8948C91932F909520
:1028900089238C938881832B88832FBF06C09FB7A1
:1028A000F8948C91832B8C939FBFDF91CF910895E7
:1028B000482F50E0CA0188529E4FFC012491CA0162
:1028C0008C539E4FFC01949140555E4FFA01349118
:1028D000332309F440C0222351F1233071F0243016
:1028E00028F42130A1F0223011F514C02630B1F0C7
:1028F0002730C1F02430D9F404C0809180008F7754
:1029000003C0809180008F7D8093800010C084B5CB
:102910008F7702C084B58F7D84BD09C08091B000DF
:102920008F7703C08091B0008F7D8093B000E32F3C
:10293000F0E0EE0FFF1FE456FE4FA591B4912FB7C4
:10294000F894662321F48C919095892302C08C9190
:10295000892B8C932FBF0895682F70E0CB0188528C
:102960009E4FFC012491CB018C539E4FFC0144915E
:1029700060557E4FFB019491992319F420E030E0DB
:102980003CC0222351F1233071F0243028F421304F
:10299000A1F0223011F514C02630B1F02730C1F07B
:1029A0002430D9F404C0809180008F7703C08091D7
:1029B00080008F7D8093800010C084B58F7702C027
:1029C00084B58F7D84BD09C08091B0008F7703C02E
:1029D0008091B0008F7D8093B000892F90E0880FA8
:1029E000991F8A559E4FFC01A591B4918C9120E0CE
:1029F00030E0842311F021E030E0C90108951F92F6
:102A00000F920FB60F9211242F933F938F939F93A2
:102A1000AF93BF938091190390911A03A0911B0368
:102A2000B0911C0330911D030196A11DB11D232FF0
:102A30002D5F2D3720F02D570196A11DB11D20933C
:102A40001D038093190390931A03A0931B03B09363
:102A50001C038091150390911603A0911703B09168
:102A600018030196A11DB11D8093150390931603C1
:102A7000A0931703B0931803BF91AF919F918F91CB
:102A80003F912F910F900FBE0F901F9018958FB709
:102A9000F8942091190330911A0340911B0350912F
:102AA0001C038FBFB901CA0108959B01AC017FB718
:102AB000F8948091150390911603A0911703B0919B
:102AC000180366B5A89B05C06F3F19F00196A11DBC
:102AD000B11D7FBFBA2FA92F982F8827860F911D70
:102AE000A11DB11D62E0880F991FAA1FBB1F6A9527
:102AF000D1F7BC012DC0FFB7F894809115039091D8
:102B00001603A0911703B0911803E6B5A89B05C062
:102B1000EF3F19F00196A11DB11DFFBFBA2FA92FDC
:102B2000982F88278E0F911DA11DB11DE2E0880FFF
:102B3000991FAA1FBB1FEA95D1F7861B970B885ECA
:102B40009340C8F2215030404040504068517C4F83
:102B5000211531054105510571F60895019739F0A8
:102B6000880F991F880F991F02970197F1F7089511
:102B7000789484B5826084BD84B5816084BD85B558
:102B8000826085BD85B5816085BDEEE6F0E080811F
:102B900081608083E1E8F0E0108280818260808340
:102BA000808181608083E0E8F0E0808181608083C3
:102BB000E1EBF0E0808184608083E0EBF0E08081F5
:102BC00081608083EAE7F0E0808184608083808197
:102BD000826080838081816080838081806880833F
:102BE0001092C1000895823000F5E82FF0E0EE0F5A
:102BF000FF1FE25EFC4F71836083882319F08130F0
:102C0000A1F408C0809169008C7F842B80936900B7
:102C1000E89A089580916900440F551F440F551F8D
:102C2000837F842B80936900E99A0895823080F431
:102C3000882319F0813021F402C0E89801C0E99896
:102C4000E82FF0E0EE0FFF1FE25EFC4F11821082D2
:102C500008951F920F920FB60F9211242F933F9356
:102C60004F935F936F937F938F939F93AF93BF9394
:102C7000EF93FF9380911E0390911F03892B29F0FE
:102C8000E0911E03F0911F030995FF91EF91BF9111
:102C9000AF919F918F917F916F915F914F913F91F4
:102CA0002F910F900FBE0F901F9018951F920F92AB
:102CB0000FB60F9211242F933F934F935F936F930F
:102CC0007F938F939F93AF93BF93EF93FF938091E5
:102CD000200390912103892B29F0E0912003F091AA
:102CE00021030995FF91EF91BF91AF919F918F9132
:102CF0007F916F915F914F913F912F910F900FBEF8
:102D00000F901F901895982F8E3008F09E50977056
:102D100080913B018295880F880F807C892B80935E
:102D20007C0080917A00806480937A0080917A00A0
:102D300086FDFCCF2091780040917900942F80E0AF
:102D400030E0282B392BC9010895CF92DF92EF9202
:102D5000FF920F931F93CF93DF937C016B018A0146
:102D6000C0E0D0E00FC0D6016D916D01D701ED91AB
:102D7000FC910190F081E02DC7010995C80FD91F82
:102D8000015010400115110571F7CE01DF91CF916F
:102D90001F910F91FF90EF90DF90CF900895EF92E9
:102DA000FF920F931F93CF93DF937C018B01C0E0C1
:102DB000D0E0F8010F5F1F4F6491662359F0D701EF
:102DC000ED91FC910190F081E02DC7010995C80FAC
:102DD000D91FEFCFCE01DF91CF911F910F91FF90BF
:102DE000EF900895EF92FF920F931F938C01DC01F7
:102DF000ED91FC910190F081E02D6DE009957C0151
:102E0000D801ED91FC910190F081E02DC8016AE0BC
:102E100009959C012E0D3F1DC9011F910F91FF9037
:102E2000EF900895EF92FF920F931F937C010E9401
:102E3000CF168C01C7010E94F2169C01200F311F92
:102E4000C9011F910F91FF90EF900895CF93DF93E9
:102E5000EC016115710519F420E030E00FC0DB01D1
:102E60000D900020E9F71197A61BB70BE881F981B7
:102E70000280F381E02DAD0109959C01C901DF912C
:102E8000CF9108954F925F927F928F929F92AF92CF
:102E9000BF92CF92DF92EF92FF920F931F93DF9337
:102EA000CF93CDB7DEB7A1970FB6F894DEBF0FBEB4
:102EB000CDBF2C01742ECB01223008F42AE019A2D8
:102EC00031E2C32ED12CCC0EDD1E822E9924AA24F1
:102ED000BB24672D752FA50194010E94431C790125
:102EE0008A01C801B701A50194010E94241C472D45
:102EF000461B0894C108D1084A3014F4405D01C053
:102F0000495CF6014083E114F1040105110521F04B
:102F10007E2C5F2DC801DDCFC201B6010E942617AD
:102F2000A1960FB6F894DEBF0FBECDBFCF91DF9153
:102F30001F910F91FF90EF90DF90CF90BF90AF90D7
:102F40009F908F907F905F904F900895DC012115A6
:102F5000310541F4ED91FC910190F081E02D642F59
:102F6000099508950E9442170895EF92FF920F93DA
:102F70001F939A01E62EFF2400E010E0B801A7019C
:102F80000E94A6171F910F91FF90EF9008950E9445
:102F900026170895EF92FF920F931F937C010E94D2
:102FA00026178C01C7010E94F216080F191FC801CD
:102FB0001F910F91FF90EF90089508951F920F9227
:102FC0000FB60F9211242F933F934F938F939F939C
:102FD000EF93FF938091C00082FD1DC04091C60019
:102FE00020916203309163032F5F3F4F2F73307046
:102FF00080916403909165032817390771F0E0917F
:103000006203F0916303EE5DFC4F408330936303F2
:103010002093620302C08091C600FF91EF919F91BF
:103020008F914F913F912F910F900FBE0F901F9056
:103030001895E091B603F091B703E05CFF4F8191E2
:10304000919120813181821B930B8F739070892B1A
:1030500011F00E94DD1708951F920F920FB60F9284
:1030600011242F933F938F939F93EF93FF9320917E
:10307000A6033091A7038091A8039091A903281774
:10308000390731F48091C1008F7D8093C10014C055
:10309000E091A803F091A903EA59FC4F20818091A7
:1030A000A8039091A90301968F7390709093A90340
:1030B0008093A8032093C600FF91EF919F918F9179
:1030C0003F912F910F900FBE0F901F901895AF92C8
:1030D000BF92DF92EF92FF920F931F93CF93DF93F4
:1030E000EC017A018B01DD24403081EE580780E04D
:1030F000680780E0780711F0DD24D39491E0A92ED1
:10310000B12CEC89FD89DD2069F0C50108A002C061
:10311000880F991F0A94E2F7808360E079E08DE3DD
:1031200090E005C0108260E874E88EE190E0A801AC
:1031300097010E94431C215030404040504056951A
:1031400047953795279580E12030380720F0DD201E
:1031500011F0DD24D6CFE889F9893083EA89FB892B
:10316000208319A2EE89FF89408121E030E0C90166
:103170000C8C02C0880F991F0A94E2F7482B4083F9
:10318000EE89FF894081C9010D8C02C0880F991F0B
:103190000A94E2F7482B4083EE89FF894081C901F8
:1031A0000E8C02C0880F991F0A94E2F7482B4083C7
:1031B000EE89FF8980810F8C02C0220F331F0A9491
:1031C000E2F7209528232083DF91CF911F910F9163
:1031D000FF90EF90DF90BF90AF900895DC011C96B8
:1031E000ED91FC911D97E05CFF4F21913191808121
:1031F0009181281B390B2F733070C9010895DC01B0
:103200001C96ED91FC911D97E05CFF4F2081318170
:10321000E054F040DF01AE5BBF4F8D919C91119760
:103220002817390719F42FEF3FEF07C08D919C91B4
:10323000E80FF91F8081282F30E0C9010895DC01D3
:103240001C96ED91FC911D97E05CFF4F2081318130
:10325000E054F040DF01AE5BBF4F8D919C91119720
:103260002817390719F42FEF3FEF10C08D919C916B
:103270001197E80FF91F20818D919C91119701966C
:103280008F73907011969C938E9330E0C9010895CE
:10329000DC0191968C919197882339F05496ED91A9
:1032A000FC915597808186FFF9CF91961C920895E5
:1032B000CF93DF93EC01EE85FF85E05CFF4F20812B
:1032C0003181E054F0402F5F3F4F2F733070DF01AA
:1032D000AE5BBF4F8D919C91119728173907D1F3A1
:1032E000E05CFF4F80819181E054F040E80FF91FCE
:1032F0006083EE85FF85E05CFF4F31832083EE899C
:10330000FF89208181E090E00F8C02C0880F991F17
:103310000A94E2F7282B208381E089A3EC89FD89B8
:1033200080818064808381E090E0DF91CF91089577
:103330001092AD031092AC0388EE93E0A0E0B0E0F1
:103340008093AE039093AF03A093B003B093B10307
:1033500086E591E09093AB038093AA0382E293E029
:103360009093B7038093B60386E693E09093B903F6
:103370008093B80385EC90E09093BB038093BA03ED
:1033800084EC90E09093BD038093BC0380EC90E0CC
:103390009093BF038093BE0381EC90E09093C103B0
:1033A0008093C00382EC90E09093C3038093C203A8
:1033B00086EC90E09093C5038093C40384E08093EF
:1033C000C60383E08093C70387E08093C80385E04A
:1033D0008093C90381E08093CA030895009729F080
:1033E000BC0180E090E00E9484010895CF93DF93B8
:1033F0000E94B8150E943D05C9E1D8E10E9437043A
:103400002097E1F30E941918F9CF5058BB27AA273B
:103410000ED075C166D130F06BD120F031F49F3FF2
:1034200011F41EF45BC10EF4E095E7FB51C1E92FE6
:1034300077D180F3BA17620773078407950718F0EE
:1034400071F49EF58FC10EF4E0950B2EBA2FA02DCE
:103450000B01B90190010C01CA01A0011124FF2741
:10346000591B99F0593F50F4503E68F11A16F0403C
:10347000A22F232F342F4427585FF3CF469537953B
:103480002795A795F0405395C9F77EF41F16BA0B00
:10349000620B730B840BBAF09150A1F0FF0FBB1FAE
:1034A000661F771F881FC2F70EC0BA0F621F731FF7
:1034B000841F48F4879577956795B795F7959E3F54
:1034C00008F0B3CF9395880F08F09927EE0F9795E2
:1034D00087950895D9D008F481E008950CD00FC1E4
:1034E00007D140F0FED030F021F45F3F19F0F0C07A
:1034F000511139C1F3C014D198F39923C9F355235D
:10350000B1F3951B550BBB27AA27621773078407D6
:1035100038F09F5F5F4F220F331F441FAA1FA9F38C
:1035200033D00E2E3AF0E0E830D091505040E6957E
:10353000001CCAF729D0FE2F27D0660F771F881FDF
:10354000BB1F261737074807AB07B0E809F0BB0BCE
:10355000802DBF01FF2793585F4F2AF09E3F5105F2
:1035600068F0B6C000C15F3FECF3983EDCF386958F
:1035700077956795B795F7959F5FC9F7880F911D68
:103580009695879597F90895E1E0660F771F881F54
:10359000BB1F621773078407BA0720F0621B730B07
:1035A000840BBA0BEE1F88F7E095089504D0689459
:1035B000B111D9C00895BCD088F09F5790F0B92FB1
:1035C0009927B751A0F0D1F0660F771F881F991F78
:1035D0001AF0BA95C9F712C0B13081F0C3D0B1E08A
:1035E0000895C0C0672F782F8827B85F39F0B93F9A
:1035F000CCF3869577956795B395D9F73EF490957A
:103600008095709561957F4F8F4F9F4F0895E894F7
:1036100009C097FB3EF490958095709561957F4F1A
:103620008F4F9F4F9923A9F0F92F96E9BB279395C8
:10363000F695879577956795B795F111F8CFFAF4D8
:10364000BB0F11F460FF1BC06F5F7F4F8F4F9F4F09
:1036500016C0882311F096E911C0772321F09EE867
:10366000872F762F05C0662371F096E8862F70E0CD
:1036700060E02AF09A95660F771F881FDAF7880FA7
:103680009695879597F90895990F0008550FAA0BFD
:10369000E0E8FEEF16161706E807F907C0F0121665
:1036A0001306E407F50798F0621B730B840B950B68
:1036B00039F40A2661F0232B242B252B21F40895BD
:1036C0000A2609F4A140A6958FEF811D811D08955A
:1036D00097F99F6780E870E060E008959FEF80ECC5
:1036E000089500240A941616170618060906089568
:1036F00000240A9412161306140605060895092ECE
:103700000394000C11F4882352F0BB0F40F4BF2B3C
:1037100011F460FF04C06F5F7F4F8F4F9F4F08957C
:1037200057FD9058440F551F59F05F3F71F0479572
:10373000880F97FB991F61F09F3F79F08795089557
:10374000121613061406551FF2CF4695F1DF08C076
:10375000161617061806991FF1CF86957105610593
:1037600008940895E894BB2766277727CB0197F93B
:1037700008958ADF08F48FEF08950BD0C0CFB1DF32
:1037800028F0B6DF18F0952309F0A2CFA7CF1124B7
:10379000EACFC6DFA0F3959FD1F3950F50E0551FF8
:1037A000629FF001729FBB27F00DB11D639FAA2796
:1037B000F00DB11DAA1F649F6627B00DA11D661FE5
:1037C000829F2227B00DA11D621F739FB00DA11D06
:1037D000621F839FA00D611D221F749F3327A00DC0
:1037E000611D231F849F600D211D822F762F6A2F5C
:1037F00011249F5750408AF0E1F088234AF0EE0FE1
:10380000FF1FBB1F661F771F881F91505040A9F7ED
:103810009E3F510570F05CCFA6CF5F3FECF3983E22
:10382000DCF3869577956795B795F795E7959F5F54
:10383000C1F7FE2B880F911D9695879597F90895EE
:1038400023DF880B990B0895629FD001739FF001CD
:10385000829FE00DF11D649FE00DF11D929FF00D20
:10386000839FF00D749FF00D659FF00D9927729F57
:10387000B00DE11DF91F639FB00DE11DF91FBD01E2
:10388000CF0111240895A1E21A2EAA1BBB1BFD0132
:103890000DC0AA1FBB1FEE1FFF1FA217B307E4072F
:1038A000F50720F0A21BB30BE40BF50B661F771F87
:1038B000881F991F1A9469F7609570958095909567
:1038C0009B01AC01BD01CF01089597FB092E052690
:1038D0000ED057FD04D0D7DF0AD0001C38F4509525
:1038E0004095309521953F4F4F4F5F4F0895F6F724
:1038F00090958095709561957F4F8F4F9F4F08955C
:10390000EE0FFF1F0590F491E02D09942F923F9246
:103910004F925F926F927F928F929F92AF92BF92DF
:10392000CF92DF92EF92FF920F931F93CF93DF938B
:10393000CDB7DEB7CA1BDB0B0FB6F894DEBF0FBEE8
:10394000CDBF09942A88398848885F846E847D8435
:103950008C849B84AA84B984C884DF80EE80FD8037
:103960000C811B81AA81B981CE0FD11D0FB6F894AD
:10397000DEBF0FBECDBFED010895F894FFCF5F729B
:1039800030006F686D73005F72617700526561642B
:10399000206661696C000100000054656D706572FD
:1039A00061747572650064656720430048756D69D0
:1039B00064697479002500040201000000003E06DD
:1039C0000D06C605CF05E405F505FFFFFFFFFFFF68
:1039D000000000005819A516EE181F19FF18481905
:1039E0000C811B81AA81B981CE0FD11D0FB6F8942D
:1039F000DEBF0FBECDBFED010895F894FFCF5F721B
:103A0000C901DF91CF911F910F91FF90EF90DF904F
:103A10000895CA32D10508F0D0CEF0CFEF92FF92D0
:103A20000F931F930E94FB148C01B2E0EB2EB2E0C7
:103A3000FB2E80E090E0B801A7010E94A0160E9432
:103A40008815E00EF11EF70110828BE78093490183
:103A5000C8011F910F91FF90EF900895DF93CF93CE
:103A600000D000D000D0CDB7DEB7DE011196E0E97E
:103A7000F1E086E001900D928150E1F786E191E05E
:103A8000ECECF1E0DF019C011D9221503040E1F7A8
:103A900080913206833019F465EE75E003C0BE01F3
:103AA0006F5F7F4F84E490E043E450E00E9406198A
:103AB00080913206833039F08CEC91E0BE016F5F6B
:103AC0007F4F0E94081881E08093F6018093F701F0
:103AD00086E08093F80180913F0690914006A09186
:103AE0004106B09142068093FA019093FB01A093A6
:103AF000FC01B093FD0180913206833039F486EFEA
:103B000091E00C9669ED75E00E94101882E192E058
:103B100063ED75E00E940818A2EEB2E0EBE5F1E07B
:103B200002C081918D9331E0E136F307D1F7909196
:103B30003206992311F083E001C081E08093E8020E
:103B40008DE38093E90287E08093EA0281E080932D
:103B5000EB02ACEEB2E0E3EDF5E002C081918D93B3
:103B600085E0E93DF807D1F78CE08093F2028AE026
:103B70008093F302EAE4F1E0A4EFB2E002C08191A5
:103B80008D9321E0E435F207D1F72EEF32E0309348
:103B9000440620934306913069F582E38093FE0248
:103BA00084E08093FF02D9011296E9EDF5E002C0AE
:103BB00081918D9335E0ED3DF307D1F786E3809356
:103BC000040384E08093050386E093E09093440629
:103BD00080934306DC01E5EEF5E002C081918D9310
:103BE00085E0E93EF807D1F78AE093E09093440638
:103BF000809343062091430630914406D901E5E5C0
:103C0000F1E002C081918D9381E0EB35F807D1F7A7
:103C1000C90106969093440680934306865F9140BF
:103C20000E947E1A26960FB6F894DEBF0FBECDBF57
:103C3000CF91DF910895DF92EF92FF920F931F9340
:103C4000CF93DF938C0180913206823009F4F7C064
:103C5000833030F4882351F1813009F054C14AC0D7
:103C6000833021F0843009F04EC1E9C00E94412622
:103C700020913706309138064091390650913A0626
:103C8000E0903306F0903406009135061091360628
:103C90002E0D3F1D401F511F6217730784079507A4
:103CA00008F431C10E942E1D84E017C00E944126F5
:103CB00060933F06709340068093410690934206BE
:103CC0001092D9051092DA051092DB051092DC05EE
:103CD0000E942E1D0E94272181E0809332060E94BF
:103CE000412660933B0670933C0680933D0690937B
:103CF0003E0609C10634110508F4F0C08091EF01B9
:103D0000833409F0EBC02091FA013091FB0140911E
:103D1000FC015091FD0180913F0690914006A091D9
:103D20004106B0914206281739074A075B0709F098
:103D3000D5C0C6EED2E0FE01A80144535E4FDF01BC
:103D4000119691819D012F5F3F4F8081853321F432
:103D500011968C91823039F0F901E90FF11DE417C9
:103D6000F50768F3BBC089ED95E066E072E00E945C
:103D700010185CECE52E51E0F52EE00EF11EFE0170
:103D80003196D9808F010F5F1F4F88818630A9F04F
:103D9000873030F4813059F0833009F045C00AC0D3
:103DA0008633E9F18A3361F08333F1F509C08DED93
:103DB00095E037C081EE95E034C089EE95E031C0E2
:103DC000618170E080E090E0982F872F762F662742
:103DD000F8012181620F711D811D911D982F872F80
:103DE000762F66272281620F711D811D911D982FEC
:103DF000872F762F66272381620F711D811D911DEC
:103E000028EE33E040E050E00E94DA2D6093370660
:103E1000709338068093390690933A0605C085EE74
:103E200095E0B8010E941018E801CD0DD11DCE1506
:103E3000DF0508F4A4CF0E942E1D82E04ECF063489
:103E4000110508F44BC08091EF01833409F046C09E
:103E50002091FA013091FB014091FC015091FD014C
:103E600080913F0690914006A0914106B091420694
:103E7000281739074A075B0789F5E6EEF2E0A80143
:103E800044535E4FDF01119691819D012F5F3F4F9B
:103E90008081853321F411968C91853039F0F901B8
:103EA000E90FF11DE417F50768F318C00E942221FD
:103EB0000E94412660933306709334068093350642
:103EC000909336068091E105882321F081EE95E0FC
:103ED0000E946C1983E08093320615C00E9441262F
:103EE00020913B0630913C0640913D0650913E06A4
:103EF000205F384D4F4F5F4F261737074807590748
:103F000010F410923206DF91CF911F910F91FF9024
:103F1000EF90DF900895CF93DF9381E08093F105D8
:103F20009091D805892F82958F70805D8093520182
:103F30009F70905D90935301109232060E9441262B
:103F4000EB0104C00E94D4210E941B1E8091320606
:103F5000833061F00E9441266C1B7D0B60567A4EC7
:103F600028F40E945821882389F3ECCF90E08091B7
:103F70003206833009F491E0892FDF91CF910895C3
:103F8000FF920F931F93CF93DF93182F092FF62ED5
:103F90000E944126EB010E945821882329F00E94AB
:103FA0009B18882309F4DBC00E94D4210E94AD1A1B
:103FB0000E9441266C1B7D0B6053754760F3C8C09F
:103FC00088E098E0A8E0B8E08093E9059093EA05DE
:103FD000A093EB05B093EC058091450690E0906EC0
:103FE00069EE75E045E350E00E940619A6EFB1E0E6
:103FF0008CE0FD0111928A95E9F7812F902FFC0149
:10400000CF011C9630E0FF2019F0FC01208102C096
:10401000FC01249101962E3241F0222331F03F5FC2
:10402000FD01E30FF11D2083EECFFD013193DF0190
:10403000A30FB11D222331F7FD01119211961C929D
:10404000DF01119641E04183FD01319611961C92EA
:10405000418386ED2CEC31E0821B32968E0F8093EB
:10406000F601909145069093F7014093F801409333
:10407000FB0190E00E947E1A0E9441268B0161C0E4
:104080000E944126601B710B6053754708F060C0A9
:104090000E94D421EC01009709F453C00E94AD1A8C
:1040A000892B09F04EC0C634D10508F44AC080916E
:1040B000EF01853309F045C08091F001803E09F0A1
:1040C00040C09091F101809145069817D1F58091FB
:1040D000F7018917B1F58091F90190E08F70907028
:1040E000892B79F58091F601E82FF0E0EA50FE4F38
:1040F0009E0124533E4F8081807C39F0329609C066
:104100008081882311F4319604C03196E217F307B9
:10411000B8F3CF010E962817390798F081818130C6
:1041200051F48185843039F43A968DEE95E0BF01E3
:104130000E94101806C0818590E00A96E80FF91FCA
:10414000DACF8091ED05882309F49ACF81E001C090
:1041500080E0DF91CF911F910F91FF900895109211
:10416000ED051092EE051092EF051092F00580918A
:1041700045068F5F809345068091E905882309F005
:104180002BCF1ECF8091480661E00E945225789483
:104190000895FF920F931F93082F162FF42EF89473
:1041A0008091480660E00E9452251F71102B1EBDB1
:1041B0000DB407FEFDCFFEBC0DB407FEFDCF0E947F
:1041C000C2201F910F91FF9008951F93182F282F41
:1041D00030E0207630708091490690E0281739074A
:1041E00099F080EA6FE143E00E94C920412F4076B8
:1041F0004093490650E085E0559547958A95E1F74B
:1042000080E86FE10E94C9201F9108950F931F93CA
:10421000182F062F0E94E52080E4612F402F0E9476
:10422000C9201F910F9108950F931F93182F072FE7
:104230000E940621812F8F5F602F0E9406211F910F
:104240000F91089588E360EB0E940621089588E3AA
:1042500061EB0E94062108950F931F93182F062FDC
:10426000F8948091480660E00E945225802F8F715B
:10427000812B8EBD0DB407FEFDCF1EBC0DB407FE15
:10428000FDCF07FF04C01EBC0DB407FEFDCF1EB559
:104290000E94C220812F1F910F9108951F93182F04
:1042A0000E94E52080E0612F0E942C211F9108953B
:1042B00084ED61E10E94062182ED61E00E94062109
:1042C0008AEE0E944E2180FDFBCF82ED60E00E94CD
:1042D000062189ED0E944E2190E09695879596954E
:1042E0008795817008950F931F93CF93DF93EC010F
:1042F0008B01F8948091480660E00E9452258AE381
:104300008EBD0DB407FEFDCF09C01EBC0DB407FE67
:10431000FDCF8EB5F80181938F0121972097A9F7E2
:104320000E94C220DF91CF911F910F910895DF93DA
:10433000CF930F92CDB7DEB7198290E036E0880FA9
:10434000991F3A95E1F7860F911DBC0160507E4E92
:1043500080509E4050F480E00E94142181E090E063
:10436000BE016F5F7F4F0E94732189810F90CF91B3
:10437000DF910895CF93DF93EB0190E046E0880F43
:10438000991F4A95E1F7BC0160507E4E815C9D40CB
:1043900040F480E00E94142180E490E0BE010E947D
:1043A0007321DF91CF9108950F931F93DF93CF93E4
:1043B00000D000D000D0CDB7DEB789E30E944E21F7
:1043C000882319F400E010E048C060914A0670911B
:1043D0004B0680E00E94142186E090E0BE016F5FF2
:1043E0007F4F0E94732189819A8190934B0680931D
:1043F0004A062B813C81E0914606F09147068D816B
:1044000087FD03C000E010E00EC0245030408F0153
:10441000015010402017310708F48901C8016CECE5
:1044200071E00E947321F801E453FE4F1082609105
:104430004A0670914B068CE06130780724F08CE0DE
:104440006FEF7BE003C0615070408CE00E9414214C
:1044500080E86EE140E40E94C920C80126960FB6AC
:10446000F894DEBF0FBECDBFCF91DF911F910F91AA
:1044700008950F931F93CF93DF938C01EB01F89472
:104480008091480660E00E9452258AE78EBD0DB4F7
:1044900007FEFDCF08C088818EBD0DB407FEFDCF9D
:1044A00021960150104001151105A9F70E94C22064
:1044B000DF91CF911F910F910895CF93DF93EB017F
:1044C00090E056E0880F991F5A95E1F7BC016050C3
:1044D0007E4E815C9D4040F482E00E94142180E485
:1044E00090E0BE010E943922DF91CF910895CF93D1
:1044F000DF93EC010FC08CE10E944E2181FF0AC0C6
:1045000080E86FE140E80E94C92080EA6FE140E85E
:104510000E94C92080E06FE10E942C2183FDEBCF37
:1045200082E060E07CE00E941421BE016050744F84
:1045300086E00E9414218AE760E040E00E94C920E2
:10454000CE016CEC71E00E94392280E86FE148E016
:104550000E94C920DF91CF9108958AE061E00E9416
:1045600013258AE061E00E9452258BE061E00E9401
:1045700013258DE061E00E9413258CE060E00E942D
:1045800013258BE061E00E9452258BE060E00E94E1
:1045900052258DE060E00E94522580E58CBD8DB5EE
:1045A00081608DBD08951F93CF93DF93EB01142F8E
:1045B00090934706809346060CB406FC02C00E9406
:1045C000AD2210934806812F61E00E9413250E94BE
:1045D000C2208FEF60E04FEF0E94C92062E070E0E0
:1045E00080E090E00E944F2680E06DE10E942C2147
:1045F0008823D1F310924B0610924A0688E060E0BF
:1046000070E00E9414218CE060E070E00E941421B0
:104610008AE06FEF7BE00E94142184E060E07CE0A0
:104620000E94142186E06FEF71E10E9414210E9424
:10463000272188E26FE370E30E94142180E369EF91
:1046400077EF0E94142180EC6DE00E94062181EC3E
:1046500060E00E94062180E862EC42E30E94C920EB
:1046600086EC62E17CE00E94142184EC62E10E940D
:1046700006218AEC6CED75E00E94142184EE6881BD
:104680000E94062185EE69810E94062182EE6A81E0
:104690000E94062183EE6B810E94062180EE6C81D0
:1046A0000E94062181EE6D810E94062184ED60E169
:1046B0000E94062186ED60E071E00E9414218AEEDE
:1046C0000E944E2180FDFBCF8FE10E94E52080E813
:1046D0006BE140EC0E94C92080E86FE144E00E9459
:1046E000C92082E70E944E21863008F08F5FDF915B
:1046F000CF911F910895EFEFF6E020E030E003C086
:1047000031962F5F3F4F8081853C29F488E0EF3F51
:10471000F807B1F3A8F3C9010895FC016683478344
:1047200081E084870895CF92DF92EF92FF920F93FA
:104730001F93CF93DF93EC018E8161E00E9452259D
:104740006AEF70E080E090E00E944F260E944126D0
:104750009B01AC0188859985AA85BB8528173907F7
:104760004A075B0720F4188619861A861B868C85F3
:10477000882371F488859985AA85BB85281B390B08
:104780004A0B5B0B205D37404040504008F477C037
:104790001C860E944126688779878A879B871C82AE
:1047A0001B821A82198218828E8161E00E94132571
:1047B0008E8160E00E94522564E170E080E090E02C
:1047C0000E944F26F8948E8161E00E94522588E273
:1047D00090E00E94A8268E8160E00E94132581E06F
:1047E000EE2400E010E00AC0F39481E090E00E9423
:1047F000A8262FEFF21629F40AC0892FFF24C82E0D
:10480000DD248E810E94A6258C159D0569F38E817D
:104810000E94A625982F8FEFF816C9F0043090F06B
:1048200000FD10C08E2D869586958695FE01E80FB9
:10483000F11D8081880F808326E02F1510F48160A0
:104840008083E3940F5F1F4F05351105B1F678940F
:1048500087E28E1510F030E013C030E04C8150E05C
:104860002981888190E0820F911D2A81820F911DFC
:104870002B81820F911D90704817590709F431E080
:10488000832FDF91CF911F910F91FF90EF90DF90D9
:10489000CF900895EF92FF920F931F93CF93DF93E2
:1048A000EC010E9493238823A9F18F818B3031F092
:1048B0008B3080F18551823068F507C0688170E0E7
:1048C00080E090E00E94BD2C22C0688170E080E012
:1048D00090E00E94BD2C20E030E040E853E40E94CC
:1048E000732D7B018C01698170E0882777FD8095AD
:1048F000982F0E94BF2C9B01AC01C801B7010E94F8
:10490000BC2B20E030E040E251E40E94242CE62F52
:10491000692F0AC08DED96E069E171E00E9496284A
:10492000E0E070E080EC6FE72E2F372F482F562FF6
:10493000B901CA01DF91CF911F910F91FF90EF90C4
:104940000895CF92DF92EF92FF920F931F93CF9330
:10495000DF93EC01C62E0E949323882309F450C0F4
:104960008F818B3041F08B3008F44AC08551823002
:1049700008F046C007C06A8170E080E090E00E94C5
:10498000BD2C29C0DA806D2D70E06F77707088279C
:1049900077FD8095982F0E94BF2C20E030E040E802
:1049A00053E40E94732D7B018C016B8170E088279A
:1049B00077FD8095982F0E94BF2C9B01AC01C80108
:1049C000B7010E94BC2B20E030E040E251E40E949D
:1049D000242CD7FC9058CC20E9F020E030E040E1D6
:1049E00051E40E94732D20E030E040EA50E40E9440
:1049F000242C20E030E040E052E40E94BC2B0AC0AE
:104A00008DED96E069E171E00E94962860E070E02B
:104A100080EC9FE7DF91CF911F910F91FF90EF9076
:104A2000DF90CF900895CF93DF93482F50E0CA01D5
:104A30008C5E9A4FFC01349140505B4FFA01849197
:104A4000882369F190E0880F991FFC01EE51FB4F1C
:104A5000A591B491FC01E451FB4FC591D49166231B
:104A600051F42FB7F8948C91932F909589238C93C0
:104A7000888189230BC0623061F42FB7F8948C9140
:104A8000932F909589238C938881832B88832FBFC4
:104A900006C09FB7F8948C91832B8C939FBFDF91B6
:104AA000CF910895482F50E0CA01885D9A4FFC01CC
:104AB0002491CA018C5E9A4FFC01949140505B4F47
:104AC000FA013491332309F440C0222351F12330F9
:104AD00071F0243028F42130A1F0223011F514C0F7
:104AE0002630B1F02730C1F02430D9F404C08091D1
:104AF00080008F7703C0809180008F7D809380003D
:104B000010C084B58F7702C084B58F7D84BD09C085
:104B10008091B0008F7703C08091B0008F7D80932B
:104B2000B000E32FF0E0EE0FFF1FE451FB4FA59123
:104B3000B4912FB7F894662321F48C919095892332
:104B400002C08C91892B8C932FBF0895682F70E041
:104B5000CB01885D9A4FFC012491CB018C5E9A4F6A
:104B6000FC01449160507B4FFB019491992319F40F
:104B700020E030E03CC0222351F1233071F024309A
:104B800028F42130A1F0223011F514C02630B1F004
:104B90002730C1F02430D9F404C0809180008F7791
:104BA00003C0809180008F7D8093800010C084B509
:104BB0008F7702C084B58F7D84BD09C08091B0001D
:104BC0008F7703C08091B0008F7D8093B000892FD4
:104BD00090E0880F991F8A509B4FFC01A591B491DA
:104BE0008C9120E030E0842311F021E030E0C90115
:104BF00008951F920F920FB60F9211242F933F9397
:104C00008F939F93AF93BF938091500690915106DD
:104C1000A0915206B0915306309154060196A11D01
:104C2000B11D232F2D5F2D3720F02D570196A11D8B
:104C3000B11D209354068093500690935106A09383
:104C40005206B093530680914C0690914D06A09168
:104C50004E06B0914F060196A11DB11D80934C06E2
:104C600090934D06A0934E06B0934F06BF91AF911F
:104C70009F918F913F912F910F900FBE0F901F909A
:104C800018958FB7F89420915006309151064091B5
:104C90005206509153068FBFB901CA0108959B0176
:104CA000AC017FB7F89480914C0690914D06A0918D
:104CB0004E06B0914F0666B5A89B05C06F3F19F030
:104CC0000196A11DB11D7FBFBA2FA92F982F88274C
:104CD000860F911DA11DB11D62E0880F991FAA1FAB
:104CE000BB1F6A95D1F7BC012DC0FFB7F894809126
:104CF0004C0690914D06A0914E06B0914F06E6B538
:104D0000A89B05C0EF3F19F00196A11DB11DFFBF83
:104D1000BA2FA92F982F88278E0F911DA11DB11D85
:104D2000E2E0880F991FAA1FBB1FEA95D1F7861BE7
:104D3000970B885E9340C8F221503040404050406D
:104D400068517C4F211531054105510571F60895D3
:104D5000019739F0880F991F880F991F02970197C3
:104D6000F1F70895789484B5826084BD84B581603C
:104D700084BD85B5826085BD85B5816085BDEEE663
:104D8000F0E0808181608083E1E8F0E01082808142
:104D900082608083808181608083E0E8F0E08081B0
:104DA00081608083E1EBF0E0808184608083E0EBD0
:104DB000F0E0808181608083EAE7F0E080818460B8
:104DC0008083808182608083808181608083808114
:104DD000806880831092C1000895982F8E3008F06B
:104DE0009E509770809161018295880F880F807C1A
:104DF000892B80937C0080917A00806480937A0074
:104E000080917A0086FDFCCF209178004091790056
:104E1000942F80E030E0282B392BC9010895CF92E0
:104E2000DF92EF92FF920F931F93CF93DF937C015A
:104E30006B018A01C0E0D0E00FC0D6016D916D0119
:104E4000D701ED91FC910190F081E02DC70109950A
:104E5000C80FD91F015010400115110571F7CE017F
:104E6000DF91CF911F910F91FF90EF90DF90CF9046
:104E70000895EF92FF920F931F93CF93DF937C01DE
:104E80008B01C0E0D0E0F8010F5F1F4F64916623F3
:104E900059F0D701ED91FC910190F081E02DC7010F
:104EA0000995C80FD91FEFCFCE01DF91CF911F9188
:104EB0000F91FF90EF900895DC01ED91FC9101902E
:104EC000F081E02D09950895EF92FF920F931F93C3
:104ED0008C01DC01ED91FC910190F081E02D6DE001
:104EE00009957C01D801ED91FC910190F081E02DB4
:104EF000C8016AE009959C012E0D3F1DC9011F9153
:104F00000F91FF90EF900895EF92FF920F931F93F0
:104F10007C010E9439278C01C7010E9464279C01F3
:104F2000200F311FC9011F910F91FF90EF9008953D
:104F3000CF93DF93EC016115710519F420E030E0A7
:104F40000FC0DB010D900020E9F71197A61BB70BEE
:104F5000E881F9810280F381E02DAD0109959C0182
:104F6000C901DF91CF9108954F925F927F928F9206
:104F70009F92AF92BF92CF92DF92EF92FF920F93E8
:104F80001F93DF93CF93CDB7DEB7A1970FB6F894F9
:104F9000DEBF0FBECDBF2C01742ECB01223008F432
:104FA0002AE019A231E2C32ED12CCC0EDD1E822EB6
:104FB0009924AA24BB24672D752FA50194010E9472
:104FC0000D2E79018A01C801B701A50194010E9443
:104FD000DA2D472D461B0894C108D1084A3014F435
:104FE000405D01C0495CF6014083E114F104010514
:104FF000110521F07E2C5F2DC801DDCFC201B60165
:105000000E949827A1960FB6F894DEBF0FBECDBFC1
:10501000CF91DF911F910F91FF90EF90DF90CF9094
:10502000BF90AF909F908F907F905F904F9008952A
:10503000DC012115310541F4ED91FC910190F081E5
:10504000E02D642F099508950E94B4270895CF920A
:10505000DF92EF92FF920F931F936C017B019A01F5
:1050600000E010E0B801A7010E9418288C01C601D9
:105070000E946427080F191FC8011F910F91FF900C
:10508000EF90DF90CF900895EF92FF920F931F93D0
:105090009A01E62EFF2400E010E0B801A7010E946B
:1050A00018281F910F91FF90EF900895CF92DF92F3
:1050B000EF92FF920F931F93CF93DF93EC016A015E
:1050C0007B012115310541F4E881F9810190F081DE
:1050D000E02D642F09951FC02A303105D1F477FFE8
:1050E00017C0E881F9810190F081E02D6DE209950A
:1050F0008C0144275527BA014C195D096E097F09B7
:10510000CE012AE00E94B4279801280F391F04C05D
:105110002AE00E94B4279C01C901DF91CF911F9121
:105120000F91FF90EF90DF90CF9008950E94982705
:1051300008957F928F929F92AF92BF92CF92DF920B
:10514000EF92FF920F931F93CF93DF934C017A015D
:105150008B01722ECB01BA01A80197010E94D62DB6
:10516000882321F0C40163E271E021C0C0E0D0E0F7
:1051700057016801E894D7F8C601B5012FEF3FEF5A
:105180004FE75FE70E94D62D882351F4C601B50191
:105190002FEF3FEF4FE75FE70E94202C181614F027
:1051A000C1E0D0E0219739F0C40167E271E00E94CC
:1051B0009827EC0193C0C801B7012FEF3FEF4FE7ED
:1051C0005FE40E946F2D181654F0C801B7012FEF4D
:1051D0003FEF4FE75FEC0E94202C882324F4C401AA
:1051E0006BE271E0E4CFC801B70120E030E040E0BD
:1051F00050E00E94202C87FD03C0C0E0D0E00EC02C
:10520000D401ED91FC910190F081E02DC4016DE29B
:105210000995EC0117FB109517F9109520E030E087
:1052200040E05FE3DD240BC0CA01B90120E030E0BB
:1052300040E251E40E94242C9B01AC01D394D7148A
:1052400098F3C801B7010E94BC2B5B016C010E945E
:10525000912C7B018C01C401B801A7012AE030E048
:105260000E941828C80FD91F772039F0C4016FE2B7
:1052700071E00E949827C80FD91FC801B7010E948A
:10528000BD2C9B01AC01C601B5010E94BB2B24C003
:1052900020E030E040E251E40E94732D7B018C015C
:1052A0000E948C2C5B016C01CC24B7FCC094DC2CDC
:1052B000C401B601A5012AE030E00E945628C80FBB
:1052C000D91FC601B5010E94BF2C9B01AC01C801CA
:1052D000B7010E94BB2B7A947720D1F6CE01DF91E3
:1052E000CF911F910F91FF90EF90DF90CF90BF90E3
:1052F000AF909F908F907F9008950E949928089575
:10530000EF92FF920F931F937C010E9498278C01CC
:10531000C7010E946427080F191FC8011F910F9130
:10532000FF90EF90089508951F920F920FB60F927D
:1053300011242F933F934F938F939F93EF93FF935A
:105340008091C00082FD1DC04091C600209195064D
:10535000309196062F5F3F4F2F73307080919706E4
:10536000909198062817390771F0E0919506F09111
:105370009606EB5AF94F4083309396062093950694
:1053800002C08091C600FF91EF919F918F914F9144
:105390003F912F910F900FBE0F901F901895E091A5
:1053A000E906F091EA06E05CFF4F8191919120813E
:1053B0003181821B930B8F739070892B11F00E94A7
:1053C000932908951F920F920FB60F9211242F93D5
:1053D0003F938F939F93EF93FF932091D906309142
:1053E000DA068091DB069091DC062817390731F444
:1053F0008091C1008F7D8093C10014C0E091DB06D5
:10540000F091DC06E756F94F20818091DB06909100
:10541000DC0601968F7390709093DC068093DB0618
:105420002093C600FF91EF919F918F913F912F9113
:105430000F900FBE0F901F901895AF92BF92DF9202
:10544000EF92FF920F931F93CF93DF93EC017A01BA
:105450008B01DD24403081EE580780E0680780E052
:10546000780711F0DD24D39491E0A92EB12CEC89BA
:10547000FD89DD2069F0C50108A002C0880F991FD1
:105480000A94E2F7808360E079E08DE390E005C064
:10549000108260E874E88EE190E0A80197010E9414
:1054A0000D2E21503040404050405695479537953D
:1054B000279580E12030380720F0DD2011F0DD2431
:1054C000D6CFE889F9893083EA89FB89208319A23C
:1054D000EE89FF89408121E030E0C9010C8C02C0D7
:1054E000880F991F0A94E2F7482B4083EE89FF89C1
:1054F0004081C9010D8C02C0880F991F0A94E2F700
:10550000482B4083EE89FF894081C9010E8C02C07F
:10551000880F991F0A94E2F7482B4083EE89FF8990
:1055200080810F8C02C0220F331F0A94E2F720956E
:1055300028232083DF91CF911F910F91FF90EF904F
:10554000DF90BF90AF900895DC011C96ED91FC9127
:105550001D97E05CFF4F2191319180819181281B43
:10556000390B2F733070C9010895DC011C96ED9141
:10557000FC911D97E05CFF4F20813181E054F040A9
:10558000DF01AE5BBF4F8D919C91119728173907B2
:1055900019F42FEF3FEF07C08D919C91E80FF91F91
:1055A0008081282F30E0C9010895DC011C96ED911F
:1055B000FC911D97E05CFF4F20813181E054F04069
:1055C000DF01AE5BBF4F8D919C9111972817390772
:1055D00019F42FEF3FEF10C08D919C911197E80FB8
:1055E000F91F20818D919C91119701968F73907076
:1055F00011969C938E9330E0C9010895DC01919639
:105600008C919197882339F05496ED91FC915597A0
:10561000808186FFF9CF91961C920895CF93DF93F6
:10562000EC01EE85FF85E05CFF4F20813181E05485
:10563000F0402F5F3F4F2F733070DF01AE5BBF4FE5
:105640008D919C91119728173907D1F3E05CFF4F9A
:1056500080819181E054F040E80FF91F6083EE856E
:10566000FF85E05CFF4F31832083EE89FF89208135
:1056700081E090E00F8C02C0880F991F0A94E2F736
:10568000282B208381E089A3EC89FD8980818064B7
:10569000808381E090E0DF91CF9108951092E00641
:1056A0001092DF0688EE93E0A0E0B0E08093E10680
:1056B0009093E206A093E306B093E4068AE991E0B2
:1056C0009093DE068093DD0685E596E09093EA06EA
:1056D0008093E90689E996E09093EC068093EB06C7
:1056E00085EC90E09093EE068093ED0684EC90E0DC
:1056F0009093F0068093EF0680EC90E09093F20692
:105700008093F10681EC90E09093F4068093F30689
:1057100082EC90E09093F6068093F50686EC90E09C
:105720009093F8068093F70684E08093F90683E06F
:105730008093FA0687E08093FB0685E08093FC0661
:1057400081E08093FD060895009729F0BC0180E078
:1057500090E00E9436030895CF93DF930E94B22613
:105760000E945F0ACFECD9E20E9460082097E1F323
:105770000E94CF29F9CF5058BB27AA270ED075C158
:1057800066D130F06BD120F031F49F3F11F41EF45C
:105790005BC10EF4E095E7FB51C1E92F77D180F3AF
:1057A000BA17620773078407950718F071F49EF51E
:1057B0008FC10EF4E0950B2EBA2FA02D0B01B9016D
:1057C00090010C01CA01A0011124FF27591B99F077
:1057D000593F50F4503E68F11A16F040A22F232F83
:1057E000342F4427585FF3CF469537952795A795D3
:1057F000F0405395C9F77EF41F16BA0B620B730B7A
:10580000840BBAF09150A1F0FF0FBB1F661F771FEA
:10581000881FC2F70EC0BA0F621F731F841F48F49F
:10582000879577956795B795F7959E3F08F0B3CF25
:105830009395880F08F09927EE0F9795879508950F
:10584000D9D008F481E008950CD00FC107D140F001
:10585000FED030F021F45F3F19F0F0C0511139C192
:10586000F3C014D198F39923C9F35523B1F3951BD1
:10587000550BBB27AA2762177307840738F09F5F71
:105880005F4F220F331F441FAA1FA9F333D00E2EE0
:105890003AF0E0E830D091505040E695001CCAF74D
:1058A00029D0FE2F27D0660F771F881FBB1F261712
:1058B00037074807AB07B0E809F0BB0B802DBF01E5
:1058C000FF2793585F4F2AF09E3F510568F0B6C0FE
:1058D00000C15F3FECF3983EDCF3869577956795C2
:1058E000B795F7959F5FC9F7880F911D9695879596
:1058F00097F90895E1E0660F771F881FBB1F6217B5
:1059000073078407BA0720F0621B730B840BBA0B72
:10591000EE1F88F7E095089504D06894B111D9C0BE
:105920000895BCD088F09F5790F0B92F9927B751B0
:10593000A0F0D1F0660F771F881F991F1AF0BA9553
:10594000C9F712C0B13081F0C3D0B1E00895C0C032
:10595000672F782F8827B85F39F0B93FCCF3869549
:1059600077956795B395D9F73EF4909580957095A6
:1059700061957F4F8F4F9F4F0895E89409C097FB23
:105980003EF490958095709561957F4F8F4F9F4F16
:105990009923A9F0F92F96E9BB279395F69587955A
:1059A00077956795B795F111F8CFFAF4BB0F11F41D
:1059B00060FF1BC06F5F7F4F8F4F9F4F16C08823C4
:1059C00011F096E911C0772321F09EE8872F762FFA
:1059D00005C0662371F096E8862F70E060E02AF03B
:1059E0009A95660F771F881FDAF7880F9695879527
:1059F00097F90895990F0008550FAA0BE0E8FEEFFC
:105A000016161706E807F907C0F012161306E40782
:105A1000F50798F0621B730B840B950B39F40A267B
:105A200061F0232B242B252B21F408950A2609F459
:105A3000A140A6958FEF811D811D089597F99F675D
:105A400080E870E060E008959FEF80EC0895002406
:105A50000A941616170618060906089500240A94D3
:105A600012161306140605060895092E0394000C59
:105A700011F4882352F0BB0F40F4BF2B11F460FFE8
:105A800004C06F5F7F4F8F4F9F4F089557FD905811
:105A9000440F551F59F05F3F71F04795880F97FBF2
:105AA000991F61F09F3F79F08795089512161306AC
:105AB0001406551FF2CF4695F1DF08C016161706DB
:105AC0001806991FF1CF8695710561050894089510
:105AD000E894BB2766277727CB0197F908958ADFDB
