:100000000C94FA000C941B130C9448130C942B01C1
:100010000C942B010C942B010C942B010C942B01B0
:100020000C942B010C942B010C942B010C942B01A0
:100030000C942B010C942B010C942B010C942B0190
:100040000C9475130C942B010C9472150C94C01520
:100050000C942B010C942B010C942B010C942B0170
:100060000C9442070C942B013A0030005472616EDC
:10007000736D6974746564205061636B65743A20B4
:10008000002E2E2E20496E636F6E63656976616265
:100090006C6521005472616E736D697420537461D4
:1000A0007465203D2000536F6D657468696E67202C
:1000B00069732074616B696E67206C6F6E6765721F
:1000C000207468616E2065787065637465642C20A7
:1000D000526573657474696E6700526574727969EC
:1000E0006E6700417373756D696E67207072657617
:1000F000696F75736C792070616972656420426103
:1001000073652053746174696F6E00506169726920
:100110006E67204661696C656400426173652053B7
:10012000746174696F6E20416464726573733A2000
:100130000050616972696E672053756363657373FC
:1001400066756C004C61737420506169726564203F
:10015000426173653A2000556E697420416464728F
:100160006573733A20000A5B416972205175616CB6
:1001700069747920456767202D2052656D6F74651D
:10018000202D2076312E30345D0053656E74204171
:10019000434B0000000000240027002A000000005C
:1001A00000250028002B0000000000230026002965
:1001B0000004040404040404040202020202020310
:1001C000030303030301020408102040800102041A
:1001D000081020010204081020000000070002019E
:1001E0000000030406000000000000000000F6010B
:1001F000DE052C1711241FBECFEFD8E0DEBFCDBF28
:1002000014BE88E10FB6F8948093600010926000ED
:100210000FBE11E0A0E0B1E0E6E1F7E302C0059017
:100220000D92AE35B107D9F713E0AEE5B1E001C0EC
:100230001D92A43CB107E1F711E0C4EFD1E004C086
:100240002297FE010E944E1BCE3ED107C9F70E94A5
:1002500082170C94891B0C940000A0E0B0E0E3E34B
:10026000F1E00C945A1BEC01A880B980CA80DB80B5
:10027000A114B104C104D10441F484E2A82E89ED93
:10028000B82E8BE5C82E87E0D82EC601B5012DE12A
:1002900033EF41E050E00E94311B27EA31E440E0B7
:1002A00050E00E94F01A7B018C01C601B5012DE1DE
:1002B00033EF41E050E00E94311BCA01B9012CEE3E
:1002C00034EF4FEF5FEF0E94F01A6E0D7F1D801F1D
:1002D000911F97FF04C06150704080409048688330
:1002E00079838A839B839B01AC015F77B901CA0143
:1002F000CDB7DEB7EAE00C94761B0E942D0108957D
:1003000084E191E00E942D0108956093140170939F
:10031000150180931601909317010895FB01DC01EC
:1003200004C08D910190801921F441505040C8F7CC
:10033000881B990B0895FB01DC0102C001900D920E
:1003400041505040D8F70895FB01DC010D9000208A
:10035000E9F7119701900D920020E1F70895FB0154
:10036000DC014150504048F001900D920020C9F747
:1003700001C01D9241505040E0F70895A0E0B0E068
:10038000E4ECF1E00C945C1B7C01EB018A01690157
:1003900009C0CE012196F6010995F70181937F01ED
:1003A0000150104001151105A1F7CDB7DEB7E8E007
:1003B0000C94781BA0E0B0E0E0EEF1E00C945C1B44
:1003C000EC017B018A01690109C0CE012196F70188
:1003D00061917F01F6010995015010400115110549
:1003E000A1F7CDB7DEB7E8E00C94781B0F931F930D
:1003F00004EF11E08FE791E0B8010E94341180E82A
:1004000091E00E94AF0C83E991E0B8010E94B80D21
:1004100087EE91E061E146E10E945F111F910F912B
:100420000895EF92FF920F931F9387EE91E060E0A3
:100430000E9473127B018C019701A8010E94EC1AA3
:100440008823B9F064EC79E080E090E00E94CB135F
:1004500087EE91E060E00E9473127B018C019701AE
:10046000A8010E94EC1A882321F0EE24FF2400E862
:100470001FEBB701C8011F910F91FF90EF900895F6
:10048000EF92FF920F931F9387EE91E00E941C1250
:100490007B018C019701A8010E94EC1A8823A9F026
:1004A00064EC79E080E090E00E94CB1387EE91E06D
:1004B0000E941C129B01AC010E94EC1A882309F4D3
:1004C00006C0EE24FF2400E81FEBB701C8011F910E
:1004D0000F91FF90EF9008956F927F928F929F926D
:1004E000AF92BF92CF92DF92EF92FF920F931F9342
:1004F00080E891E060915E010E94A8097B018C0177
:1005000080E891E060915E010E94160A3B014C0177
:1005100080E891E060915E010E946E095B016C01D0
:10052000AFE5B1E0E0E0F0E080E201900D928150B3
:10053000E1F78FEFE8168FEFF8068FEF08078FEFE0
:10054000180729F4EE24EA94FE2C870118C0C8018C
:10055000B7010E94D319A40193010E94891A7B015B
:100560008C01C601B5010E94D3199B01AC01C801E1
:10057000B7010E94891A0E94A7197B018C0180E8AB
:1005800091E060915E010E942A0CBC018FE591E030
:1005900044E150E00E94AF018FE591E060E071E03E
:1005A0000E94A40183E991E063E30E94D60C80E8F5
:1005B00091E00E943C0C682F83E991E070E00E947A
:1005C000D90C83E991E064EF71E00E94360D80E878
:1005D00091E00E945A0CBC0183E991E00E942D0D2C
:1005E00083E991E060915E010E94DD0C83E991E076
:1005F0006FE571E00E94200D83E991E065E071E014
:100600000E94130D83E991E0B801A7010E94E00C5C
:100610001F910F91FF90EF90DF90CF90BF90AF9020
:100620009F908F907F906F900895AFE5B1E0E0E0EC
:10063000F0E080E201900D928150E1F78FE591E0CA
:100640006AE271E044E150E00E94AF0183E991E089
:1006500063E30E94D60C83E991E064E070E00E94BD
:10066000D90C83E991E064EF71E00E94360D83E9D3
:1006700091E064EF71E00E942D0D83E991E061E06B
:100680000E94DD0C83E991E06AE271E00E94200D96
:1006900083E991E063E371E00E94130D0E94400240
:1006A0000E94A219AB01BC0183E991E00E94E00C19
:1006B0000895AFE5B1E0E0E0F0E080E201900D9256
:1006C0008150E1F78FE591E068E171E044E150E0AD
:1006D0000E94AF0183E991E063E30E94D60C83E9B5
:1006E00091E064E070E00E94D90C83E991E064EF4E
:1006F00071E00E94360D83E991E064EF71E00E94A1
:100700002D0D83E991E060E00E94DD0C83E991E02A
:1007100068E171E00E94200D83E991E064E271E0FC
:100720000E94130D0E9411020E94A219AB01BC018C
:1007300083E991E00E94E00C0895AFE5B1E0E0E0CC
:10074000F0E080E201900D928150E1F780E891E0C5
:1007500060915E010E942A0CBC018FE591E044E1AA
:1007600050E00E94AF0183E991E063E30E94D60C60
:1007700080E891E00E943C0C682F83E991E070E0F2
:100780000E94D90C83E991E064EF71E00E94360D7C
:1007900080E891E00E945A0CBC0183E991E00E943C
:1007A0002D0D83E991E060915E010E94DD0C80E8EF
:1007B00091E060915E010E942A0CBC0183E991E006
:1007C0000E94200D80E891E060915E010E94180C6B
:1007D000BC0183E991E00E94130D80E891E06091F3
:1007E0005E010E94BE0A0E94A219AB01BC0183E90E
:1007F00091E00E94E00C08951F93CF93DF93EC01EA
:1008000010E088818A3030F482EA93E06AE670E092
:100810000E94BB1782EA93E0688140E150E00E94A9
:10082000A118153031F082EA93E068E670E00E948A
:10083000BB171F5F2196163021F782EA93E00E94D2
:10084000DE17DF91CF911F910895AF92BF92CF92A3
:10085000DF92EF92FF920F931F930E94BD135B01F3
:100860006C018091E1019091E201A091E301B091CE
:10087000E40186017501E81AF90A0A0B1B0B83E9EA
:1008800091E00E94F50C6E157F058007910798F5A1
:10089000809135018430E1F082EA93E066EA70E00D
:1008A0000E94FE1782EA93E00E94DC1668EE73E075
:1008B00080E090E00E94CB1328E088E190E00FB642
:1008C000F894A895809360000FBE20936000FFCF3E
:1008D000A092E101B092E201C092E301D092E40162
:1008E0001092E6011092E50181E08093350180E8E5
:1008F00091E00E94F1088091E5019091E601892B39
:1009000009F074C0809135018230B1F0833020F459
:10091000813009F057C006C0833021F1843009F0DE
:1009200051C064C00E94590381E090E09093E601B9
:100930008093E50182E013C00E94150381E090E0FE
:100940009093E6018093E50110925E0180E891E0CA
:100950000E946A0C882311F083E001C084E0809338
:10096000350144C010915E0180E891E00E944B0C7B
:100970001817D0F480919201882331F40E946C0200
:1009800081E08093920109C00E949D031092920120
:1009900080915E018F5F80935E0181E090E0909393
:1009A000E6018093E50122C080E891E00E946A0C94
:1009B000882319F010925E0119C01092E60110927E
:1009C000E501CCCF82EA93E064E970E00E94BB17B6
:1009D00082EA93E0609135014AE050E00E94A1185C
:1009E00082EA93E061E870E00E94FE1783E991E0FB
:1009F0000E944E0D882301F18091E5019091E6015E
:100A0000892BD1F083E991E00E943F0D1092E6011D
:100A10001092E50182EA93E06CE670E00E94BB1759
:100A200082EA93E06FE571E00E94B61868E873E12E
:100A300080E090E00E94CB131F910F91FF90EF9008
:100A4000DF90CF90BF90AF90089580E00E9469142E
:100A50000E94C91883E991E040EC54ED61E070E038
:100A60000E94FD0C82EA93E040E052EC61E070E00D
:100A70000E94FB1582EA93E066E671E00E94FE1791
:100A800082EA93E067E571E00E94BB1784EF91E092
:100A90000E94FC0382EA93E064E471E00E94BB17C9
:100AA00083E991E00E94D10C0E94FC0383E991E06C
:100AB0000E94530D8823C9F082EA93E061E371E05C
:100AC0000E94FE1782EA93E06AE171E00E94BB1780
:100AD00083E991E00E94D10C0E94FC0360E177E27F
:100AE00080E090E00E94CB131AC082EA93E06BE0B2
:100AF00071E00E94FE1783E991E00E94050D8823B2
:100B000039F082EA93E063EE70E00E94FE1707C0BE
:100B100082EA93E06AED70E00E94FE17C7CF0E9460
:100B2000BD136093E1017093E2018093E301909320
:100B3000E401089581E080933F0260931C021092CB
:100B40003D0210923E02089581E080933F0260933F
:100B50001C0210923D0210923E02089520911B0249
:100B600030E080911A02281B3109C9010895409193
:100B70001A0280911B02481718F02FEF3FEF0AC0AE
:100B8000E42FF0E0E650FE4F8081282F30E04F5FE9
:100B900040931A02C9010895E0911A0280911B0244
:100BA000E81718F0EFEFFFEF06C0F0E0E650FE4F59
:100BB0008081E82FF0E0CF0108950895109243025C
:100BC0001092420288EE93E0A0E0B0E080934402ED
:100BD00090934502A0934602B09347028CE391E0C4
:100BE00090934102809340020895CF92DF92EF925A
:100BF000FF920F931F93CF93DF937C016B018A01C8
:100C000080913F028823A1F0C0E0D0E00DC0D70161
:100C1000ED91FC91D601AC0FBD1F0190F081E02D4C
:100C2000C7016C9109952196C017D10780F304C0C4
:100C3000CB01642F0E942707C801DF91CF911F913C
:100C40000F91FF90EF90DF90CF900895DF93CF93B7
:100C50000F92CDB7DEB7FC01698380913F028823F4
:100C6000C9F080913E02803238F081E090E09383B9
:100C7000828320E030E015C080913D02E82FF0E053
:100C8000E35EFD4F998190838F5F80933D02809357
:100C90003E0205C0CE01019661E00E94270721E0D7
:100CA00030E0C9010F90CF91DF9108950F93062F87
:100CB00080911C026DE172E040913E0221E00E94B1
:100CC000D20610923D0210923E0210923F020F9106
:100CD000089561E00E9456060895413208F040E20E
:100CE000862F6AEF71E00E94890610921A028093A3
:100CF0001B02089521E00E946D06089510921A02C9
:100D000010921B0210923D0210923E020E94D308E4
:100D10000895382F413210F040E042C080914C02DB
:100D20008823E1F791E090934C0220934E028FEFDD
:100D30008093B902109274024150409375024F5F44
:100D400090934D0280914D02330F832B80934D027F
:100D500080914F02813041F410924F0280914D02F8
:100D60008093BB0085EC01C085EE8093BC00809130
:100D70004C028130E1F380917402841710F44091A9
:100D8000740220E030E00AC0FB01E20FF31FD9013A
:100D9000AC5ABD4F8C9180832F5F3F4F2417A0F337
:100DA000842F08950F931F93582F122F413210F064
:100DB00081E04AC080914C028823E1F782E0809371
:100DC0004C0200934E028FEF8093B902109274028E
:100DD00040937502A4E5B2E0FB0102C081918D93BE
:100DE0008E2F861B8417D0F310924D0280914D02F6
:100DF000550F852B80934D0280914F02813041F435
:100E000010924F0280914D028093BB0085EC01C08F
:100E100085EE8093BC00112321F080914C0282303A
:100E2000E1F38091B9028F3F11F480E00DC0809111
:100E3000B902803211F482E007C08091B902803398
:100E400011F084E001C083E01F910F910895482FB5
:100E5000613210F081E0089580914C02843011F0ED
:100E600082E0089560939702A6E7B2E0842F9C0188
:100E7000F90102C081918D938E2F841B8617D0F3C8
:100E800080E008951F920F920FB60F9211242F93B6
:100E90003F934F935F936F937F938F939F93AF9302
:100EA000BF93EF93FF938091B90090E0887F90709B
:100EB0008036910509F4F2C081369105CCF588326F
:100EC000910509F47BC089329105B4F48031910514
:100ED00009F46FC0813191053CF4009709F447C1D2
:100EE000089709F04FC165C08831910509F466C0C3
:100EF000809709F047C182C08034910509F4A4C0ED
:100F00008134910544F48033910509F482C0C89777
:100F100009F038C189C08035910509F489C0883548
:100F2000910509F496C08834910509F02BC1AEC033
:100F30008839910509F413C189399105ECF4883792
:100F4000910509F4ABC0893791054CF488369105B9
:100F500009F4A4C08037910509F014C19FC08838F6
:100F6000910509F4FCC08039910509F49DC08038D1
:100F7000910509F007C198C0803B910509F4C6C0EE
:100F8000813B91054CF4803A910509F49FC0883A61
:100F9000910509F0F7C0BAC0803C910509F4E3C09F
:100FA000883C910509F4DFC0883B910509F0EAC04F
:100FB000C2C080914D028093BB00CFC0909174025B
:100FC00080917502981768F490917402E92FF0E00F
:100FD000EC5AFD4F80818093BB009F5F9093740219
:100FE000BCC080914E02882309F44BC085ED8093EC
:100FF000BC008091BC0084FDFCCFC2C080E2809325
:10100000B90285ED8093BC008091BC0084FDFCCFCB
:10101000B7C080E38093B90285ED8093BC008091D6
:10102000BC0084FDFCCFACC088E38093B9029BC0B8
:10103000809174029091BB00E82FF0E0EC5AFD4FD4
:1010400090838F5F809374029091740280917502F7
:1010500082C0809174029091BB00E82FF0E0EC5ABE
:10106000FD4F90838F5F8093740280914E0288239E
:1010700041F085ED8093BC008091BC0084FDFCCFE5
:101080007FC081E080934F0284EA6EC085ED80933B
:10109000BC008091BC0084FDFCCF72C083E08093D3
:1010A0004C021092B80259C08091B802803208F008
:1010B00056C08091B8029091BB00E82FF0E0E8564E
:1010C000FD4F90838F5F8093B80247C08091B80234
:1010D000803230F4E091B802F0E0E856FD4F108223
:1010E00085ED8093BC008091BC0084FDFCCF109204
:1010F0004C026091B802E0915202F091530288E9EB
:1011000092E070E009951092B8022DC084E08093BF
:101110004C021092960210929702E0915002F091C8
:101120005102099580919702882329F481E08093E8
:1011300097021092760290919602E92FF0E0EA5819
:10114000FD4F80818093BB009F5F909396029091AA
:10115000960280919702981710F485EC01C085E8FB
:101160008093BC000FC085EC8093BC0009C0109236
:10117000B90285ED8093BC008091BC0084FDFCCF5A
:1011800010924C02FF91EF91BF91AF919F918F917F
:101190007F916F915F914F913F912F910F900FBE73
:1011A0000F901F90189510924C0281E080934E0290
:1011B00010924F0282E161E00E94CA1483E161E073
:1011C0000E94CA14E9EBF0E080818E7F80838081E9
:1011D0008D7F808388E48093B80085E48093BC0091
:1011E0000895FC011082118208951F93613011F45B
:1011F00014E005C0623011F415E001C010E080E495
:1012000092E060E770E00E94A40580E492E0612F24
:101210000E94260680E492E00E9469061F910895CC
:101220001F93CF93DF93EA0180E492E0422F0E9464
:101230007A0610E009C080E492E00E94B705FE0142
:10124000E10FF11D80831F5F80E492E00E94AE05F4
:10125000892B89F7DF91CF911F910895EF92FF922B
:101260000F931F937A0100E412E0C8010E949A05CF
:10127000C80161E10E942606C8016F2D0E94260662
:10128000C8016E2D0E942606C8010E9469061F91A2
:101290000F91FF90EF900895EF92FF920F931F939D
:1012A0008C01F62EE22E0E942E0961E070E080E0B3
:1012B00090E00E94CB13C8016F2D0E5F1F4FA80155
:1012C0002E2D0E94100961E070E080E090E00E9405
:1012D000CB131F910F91FF90EF9008950F931F93E1
:1012E0008C01562F40E0405C5F4FF801618124E0A3
:1012F0000E944C09F801828190E0A0E0B0E0BA2F92
:10130000A92F982F8827238130E040E050E0282B38
:10131000392B4A2B5B2B542F432F322F22278481CA
:1013200090E0A0E0B0E0282B392B4A2B5B2B542F08
:10133000432F322F2227858190E0A0E0B0E0282BB8
:10134000392B4A2B5B2BB901CA011F910F910895CC
:101350000F931F938C01562F40E04C5B5F4FF801B9
:10136000618124E00E944C09F801828190E0A0E0B4
:10137000B0E0BA2FA92F982F8827238130E040E0D2
:1013800050E0282B392B4A2B5B2B542F432F322F25
:101390002227848190E0A0E0B0E0282B392B4A2B53
:1013A0005B2B542F432F322F2227858190E0A0E022
:1013B000B0E0282B392B4A2B5B2BB901CA011F91B6
:1013C0000F910895EF92FF920F931F93CF93DF93A6
:1013D000EC01E62F7901F0E055E0EE0FFF1F5A9582
:1013E000E1F7E40FF11D3B9633E0EE0FFF1F3A9556
:1013F000E1F76981AF0122E00E944C098A81F7017F
:1014000080838B81F80180838A818F3F11F420E0F3
:1014100005C020E08B818F3F09F021E0822FDF9112
:10142000CF911F910F91FF90EF9008950F931F930D
:101430008C01562F40E04C5A5F4FF801618124E047
:101440000E944C09F801228130E040E050E0542F26
:10145000432F322F2227638170E080E090E0622BDF
:10146000732B842B952B982F872F762F662724811B
:1014700030E040E050E0622B732B842B952B982FAB
:10148000872F762F6627258130E040E050E0622BE1
:10149000732B842B952B1F910F9108950F931F93FE
:1014A0008C01562F40E0405B5F4FF801618124E0E2
:1014B0000E944C09F801228130E040E050E0542FB6
:1014C000432F322F2227638170E080E090E0622B6F
:1014D000732B842B952B982F872F762F66272481AB
:1014E00030E040E050E0622B732B842B952B982F3B
:1014F000872F762F6627258130E040E050E0622B71
:10150000732B842B952B1F910F9108950F931F938D
:101510008C01562F40E0485B5F4FF801618124E069
:101520000E944C09F801228130E040E050E0542F45
:10153000432F322F2227638170E080E090E0622BFE
:10154000732B842B952B982F872F762F662724813A
:1015500030E040E050E0622B732B842B952B982FCA
:10156000872F762F6627258130E040E050E0622B00
:10157000732B842B952B1F910F9108952F923F92DF
:101580004F925F926F927F928F929F92AF92BF9293
:10159000CF92DF92EF92FF920F931F93DF93CF933F
:1015A000CDB7DEB76D970FB6F894DEBF0FBECDBFD7
:1015B0009C8F8B8F6D8F0E94860A6F8B788F898F9F
:1015C0009A8F8B8D9C8D6D8D0E944E0A6B8B7C8BC0
:1015D0008D8B9E8B8B8D9C8D6D8D0E94160A7B0151
:1015E0008C018B8D9C8D6D8D0E94A8090E94D31952
:1015F0009B01AC01C801B7010E94891A5B016C0113
:10160000EE2480E090E0A0E0B0E08F87988BA98B7B
:10161000BA8B8B879C87AD87BE878F839887A98776
:10162000BA878B839C83AD83BE83A2C0698170E03F
:10163000882777FD8095982F0E94D5199B01AC01D2
:101640006F89788D898D9A8D0E94891A1B012C01D2
:101650006A8170E0882777FD8095982F0E94D519C0
:101660009B01AC016B897C898D899E890E94891AB6
:101670003B014C01C201B101A60195010E9436193E
:10168000882309F4B2C0E39491E0E916A1F4C20101
:10169000B101A60195010E94851A18160CF050C0E0
:1016A000C401B301A20191010E943A19A60195015A
:1016B0000E94891A98C0A1E0AE1508F041C0C2018D
:1016C000B101A60195010E94851A1816CCF5C60134
:1016D000B5012F85388949895A890E94851A1816BB
:1016E0007CF5C601B5012F85388949895A890E9440
:1016F000D1185B016C01C401B3012B853C854D857C
:101700005E850E94D1187B018C01C201B1012F8539
:10171000388949895A890E94D1189B01AC01C801B6
:10172000B7010E943A199B01AC01C601B5010E94A4
:10173000891A9B01AC016B857C858D859E8551C086
:101740008B859C85AD85BE858B839C83AD83BE8355
:101750008F859889A989BA898F839887A987BA873D
:101760006B867C868D869E862F86388A498A5A8A21
:101770008B8D9C8D6D8D4E2D9E012F5F3F4F8E0169
:101780000E5F1F4F0E94E209882309F04FCFC4016A
:10179000B3012B813C814D815E810E94D1187B0178
:1017A0008C01C201B1012F81388549855A850E947B
:1017B000D1189B01AC01C801B7010E943A197B0105
:1017C0008C01C601B501A20191010E94D1189B01B3
:1017D000AC01C801B7010E94891A9B01AC01C40188
:1017E000B3010E94D2183B014C01B301C4016D96B4
:1017F0000FB6F894DEBF0FBECDBFCF91DF911F9122
:101800000F91FF90EF90DF90CF90BF90AF909F909F
:101810008F907F906F905F904F903F902F900895A2
:10182000FC01618140E050E021E00E944C090895F4
:101830000F931F938C01562F40E0405D5F4FF801DE
:10184000618120E10E944C090E5F1F4FC8011F916A
:101850000F9108950F931F938C01562F40E0405E27
:101860005F4FF801618120E10E944C090E5F1F4F1C
:10187000C8011F910F9108950F931F938C01F801D8
:10188000618147E050E024E00E944C09F801858125
:101890001F910F9108950F931F938C01F80161819F
:1018A00040E050E021E00E944C09F80182811F9144
:1018B0000F9108950F931F938C01F801618141E00E
:1018C00050E026E00E944C090E5F1F4FC8011F9197
:1018D0000F910895AF92BF92DF92EF92FF920F9314
:1018E0001F93DF93CF930F92CDB7DEB77C011982A0
:1018F000FC01D0805E010894A11CB11C20C0C7016E
:101900000E94100CC7016D2D0E94F508F70111818E
:1019100012C0103781F0812FB50140E021E000E0D6
:101920000E94D206882339F4F701D0821183C701BF
:101930000E94100C08C01F5F17FFEBCFD394F2E09A
:10194000FD15E8F610E0812F0F90CF91DF911F91E8
:101950000F91FF90EF90DF90BF90AF9008950F939D
:101960001F938C0180E492E00E947E06F8011082B1
:1019700011821F910F9108959C01F999FECF32BDFC
:1019800021BDF89A80B508959C01F999FECF1FBA40
:1019900032BD21BD60BD0FB6F894FA9AF99A0FBE18
:1019A00008959C012E5B3F4FC9010895FC0160839F
:1019B0000895FC01718362830895FC01658B08958D
:1019C000FC01872F9927AA27BB2786ABCB01BB2712
:1019D00097FDB095AB2F87ABBB2777FDBA95A72FA7
:1019E000962F852F80AF41AF0895FC01E65BFF4F36
:1019F00060817181828193810895FC01E65BFF4FD4
:101A0000408351836283738308958E5B9F4F68E4A4
:101A100071E046E050E00E948E019C0180E0232BA3
:101A200009F081E008950F931F938C0186964FE093
:101A300050E00E94AF01F80115AA1F910F9108957F
:101A40000F931F938C0146964FE050E00E94AF0128
:101A5000F80115A21F910F910895DC011F96FB015B
:101A600086E001900D928150E1F70895DC0119960E
:101A7000FB0186E001900D928150E1F70895BC01D1
:101A8000DC011396FC01EE5BFF4F86E001900D92A6
:101A90008150E1F74AE30E94B90F08950E94CF0EEA
:101AA0000E945E0F08950F931F93CF93DF938C01D5
:101AB000C0E0D0E00E94CF0E882309F447C0809197
:101AC000BA029091BB02892B09F040C08091BF02FD
:101AD0008535E1F5E801CE5BDF4FDE01E0ECF2E0B9
:101AE00086E001900D928150E1F7F801E85BFF4F2D
:101AF000D801119620813181C901FC0186E0019055
:101B00000D928150E1F768EC70E080E090E00E9477
:101B1000CB1302C00E94CF0E0E945E0F8823D1F328
:101B200080E0B80147E00E94B90F82EA93E06AE8DA
:101B300071E00E94FE178AE290E0BE0146E050E0AC
:101B400024EC3CE00E94DA0181E00DC061E070E02D
:101B500080E090E00E94CB13219687E2C031D80745
:101B600009F0A8CF80E0DF91CF911F910F910895E8
:101B70000F931F938C01065B1F4F80E69AEEA0E047
:101B8000B0E0F80180839183A283B3837293629360
:101B90008F0181E461E044ED0E94FD0FC8010697CA
:101BA0006AE270E046E050E02CEB3CE00E94BE01AF
:101BB0001F910F910895782F8CB581608CBD65B110
:101BC00021E030E040E050E00090360104C0220FF8
:101BD000331F441F551F0A94D2F7522F822F80952E
:101BE000862385B99EBD0DB407FEFDCF8EB57EBDA3
:101BF0000DB407FEFDCF4EB5382F20E085B1582B30
:101C000055B98CB58E7F8CBD50E0422B532BCA0149
:101C1000089580E090E00E94DB0D80910A038530FA
:101C200009F054C080E090EB0E94DB0D282F8091DA
:101C30000C03882371F490910B03992351F0809148
:101C40000C03E82FF0E0E454FD4F90838F5F809306
:101C50000C0380910C03E82FF0E0E454FD4F208347
:101C60008F5F80930C038091BA029091BB02822710
:101C7000282F22952827022E269526952025022EEC
:101C8000269520252770082E892F269507942795BD
:101C9000902D822706942795902582279093BB024A
:101CA0008093BA028091BE0220910C0390E00496CA
:101CB00030E0821793072CF080910C03873408F4EE
:101CC0006DC08DE092E80E94DB0D089580910A03BB
:101CD00087FF2EC0E091BE0280910A038F5F809340
:101CE0000A038150ED5FE80FF0E0E454FD4FE0811E
:101CF0008091BA029091BB028E27282F2295282727
:101D0000022E269526952025022E26952025277021
:101D1000082E892F269507942795902D82270694C3
:101D20002795902582279093BB028093BA0230C0FA
:101D300080910A038F5F80930A038150833019F1E9
:101D400084302CF4882399F0813009F516C089304D
:101D500019F08A30E1F402C0EDE21AC0E0910B0301
:101D60009091BE028EEF891B80930A0311C080916F
:101D7000BA029091BB02E82F0BC08091BA029091F9
:101D8000BB02E92F05C08DE092E80E94DB0DEAEA74
:101D90008E2F90E0805098440E94DB0D0895809132
:101DA0000A03853009F042C08091BE0220910C03E5
:101DB00090E0049630E08217930724F080910C03A2
:101DC0008734A0F184E080930A038091BE028334BB
:101DD00030F081E090E09093BB028093BA02809152
:101DE000BD0286FF12C080910903282F30E0C9018F
:101DF0008F7190704F9749F08091BD0290E08227DB
:101E000093278F719070892B89F48091BA029091F9
:101E1000BB02892B09F044C0E0910703F09108034D
:101E2000309709F43DC080E0099546C080910A03CF
:101E3000843011F080E008951092BE028091BE02BD
:101E400080930C038FEF9FEF9093BB028093BA02B5
:101E500020910B032223D9F08227282F22952827AF
:101E6000022E269526952025022E269520252770C0
:101E7000082E892F269507942795902D8227069462
:101E80002795902582279093BB028093BA0285E024
:101E900080930A038DED92E80E94DB0D80E00895A7
:101EA0008FEF9FEFAFEFBFEF809303039093040397
:101EB000A0930503B093060381E0089580910A037F
:101EC0008530A1F480910C03882381F41EBC0DB4ED
:101ED00007FEFDCF0EB400FC09C08DE092E80E9421
:101EE000DB0D84E080930A0381E0089580E008958B
:101EF000982F86FD05C0907E809109038F71980F01
:101F00009093BD02E0910703F0910803309711F020
:101F100081E009958FEF9FEF9093BB028093BA0207
:101F20008091BA029091BB0220910B038227282F47
:101F300022952827022E269526952025022E2695C5
:101F400020252770082E892F269507942795902DF8
:101F5000822706942795902582279093BB02809331
:101F6000BA0286E080930A038DE392E80E94DB0DBB
:101F700008951F93182F4093BE022FEB32E0C90142
:101F800050E00E949B01812F0E94780F1F910895BD
:101F900025B181E090E0A0E0B0E00090360104C0FF
:101FA000880F991FAA1FBB1F0A94D2F7282B25B9A7
:101FB00024B1822B84B98AE061E00E94CA148AE0CD
:101FC00061E00E948B148BE061E00E948B148CE036
:101FD00060E00E948B148DE061E00E948B1480E52C
:101FE0008CBD8DB581608DBD82E060E00E948B1458
:101FF00082E061E00E94CA1408951F93162F809317
:10200000090340930B030E94C80F80E090E00E94F8
:10201000DB0D85E092E80E94DB0D80E098EB02C0CA
:1020200080E090E00E94DB0D82E00E941E15892B6B
:10203000B9F3812F90E074E0880F991F7A95E1F74A
:10204000876C90680E94DB0D80E496EA0E94DB0DAD
:1020500086E096EC0E94DB0D82EA94E90E94DB0D9B
:102060008CEA92EC0E94DB0D10910B03112341F0DE
:1020700083E89AEC0E94DB0D812F90E09E6C06C0F5
:102080008BE89AEC0E94DB0D8DE29EEC0E94DB0D4A
:1020900083E894EC0E94DB0D80E598E90E94DB0D5B
:1020A00087E79CEC0E94DB0D80E090EE0E94DB0D48
:1020B00080E098EC0E94DB0D89E490EC0E94DB0D3F
:1020C00084E080930A038091090390E08F719070FF
:1020D000892B41F080E069E07EE040E050E00E9422
:1020E000E51203C080E00E940813809109031F914C
:1020F00008950F931F93579889E090E00E9424144D
:1021000009B184E190E00E94241419B189E090E0C3
:102110000E94241417FD02C080E005C0802F809526
:10212000881F8827881F1F910F9108956F927F92B3
:102130008F929F92AF92BF92CF92DF92FF920F93B6
:102140001F93CF93DF935C013B016A0100E010E035
:102150004A010894810891082AC0FF24C0E0D0E019
:10216000C5010E947910FF0CF82A2196C830D105CC
:10217000B9F7579A0815190539F45F9A84E190E088
:102180000E9424145F9806C05F9884E190E00E944A
:1021900024145F9A84E190E00E942414C5010E94F7
:1021A0007910F301E00FF11FF0820F5F1F4F0C1544
:1021B0001D059CF2DF91CF911F910F91FF90DF9051
:1021C000CF90BF90AF909F908F907F906F90089529
:1021D000EF92FF921F93CF93DF937C01162F579AB4
:1021E000C0E0D0E017FF07C05F9884E190E00E9454
:1021F00024145F9A06C05F9A84E190E00E94241440
:102200005F9884E190E00E9424142196C830D105A3
:1022100011F0110FE7CF5F9884E190E00E94241441
:102220005F9A84E190E00E942414C7010E94791013
:10223000DF91CF911F91FF90EF9008950F931F931F
:102240008C015F9886E090E00E942414C80165E547
:102250000E94E8101F910F910895579A5F9A88E5A0
:1022600092E00E9424140895EF92FF920F931F931F
:102270008C017B01F8940E942D11C8010E941E114F
:10228000C80160EA0E94E810C80163E00E94E810FB
:10229000C80160E00E94E810C8016AEF0E94E810DF
:1022A000C801B70146E050E00E949610C8010E94A4
:1022B0002D1178941F910F91FF90EF900895FC01DC
:1022C0006683478381E084870895CF92DF92EF92FF
:1022D000FF920F931F93CF93DF93EC018E8161E008
:1022E0000E94CA146AEF70E080E090E00E94CB1375
:1022F0000E94BD139B01AC0188859985AA85BB8589
:10230000281739074A075B0720F4188619861A86AA
:102310001B868C85882371F488859985AA85BB8561
:10232000281B390B4A0B5B0B205D37404040504067
:1023300008F477C01C860E94BD13688779878A8756
:102340009B871C821B821A82198218828E8161E00F
:102350000E948B148E8160E00E94CA1464E170E0D8
:1023600080E090E00E94CB13F8948E8161E00E949F
:10237000CA1488E290E00E9424148E8160E00E94DA
:102380008B1481E0EE2400E010E00AC0F39481E0B9
:1023900090E00E9424142FEFF21629F40AC0892F2E
:1023A000FF24C82EDD248E810E941E158C159D05EC
:1023B00069F38E810E941E15982F8FEFF816C9F0D1
:1023C000043090F000FD10C08E2D86958695869580
:1023D000FE01E80FF11D8081880F808326E02F1514
:1023E00010F481608083E3940F5F1F4F0535110562
:1023F000B1F6789487E28E1510F030E013C030E02B
:102400004C8150E02981888190E0820F911D2A81C2
:10241000820F911D2B81820F911D907048175907D3
:1024200009F431E0832FDF91CF911F910F91FF903D
:10243000EF90DF90CF900895EF92FF920F931F934C
:10244000CF93DF93EC010E9465118823A9F18F815E
:102450008B3031F08B3080F18551823068F507C0C8
:10246000688170E080E090E00E94D31922C068810A
:1024700070E080E090E00E94D31920E030E040E876
:1024800053E40E94891A7B018C01698170E08827DE
:1024900077FD8095982F0E94D5199B01AC01C8014A
:1024A000B7010E94D21820E030E040E251E40E94DF
:1024B0003A19E62F692F0AC082EA93E06AE071E0D8
:1024C0000E94B318E0E070E080EC6FE72E2F372F0A
:1024D000482F562FB901CA01DF91CF911F910F915B
:1024E000FF90EF900895CF92DF92EF92FF920F93BB
:1024F0001F93CF93DF93EC01C62E0E9465118823B2
:1025000009F450C08F818B3041F08B3008F44AC001
:102510008551823008F046C007C06A8170E080E0D3
:1025200090E00E94D31929C0DA806D2D70E06F779A
:102530007070882777FD8095982F0E94D51920E02C
:1025400030E040E853E40E94891A7B018C016B81E2
:1025500070E0882777FD8095982F0E94D5199B0100
:10256000AC01C801B7010E94D21820E030E040E27F
:1025700051E40E943A19D7FC9058CC20E9F020E0B1
:1025800030E040E151E40E94891A20E030E040EA66
:1025900050E40E943A1920E030E040E052E40E940A
:1025A000D2180AC082EA93E06AE071E00E94B31890
:1025B00060E070E080EC9FE7DF91CF911F910F9179
:1025C000FF90EF90DF90CF900895823000F5E82FD4
:1025D000F0E0EE0FFF1FE35FFC4F71836083882301
:1025E00019F08130A1F408C0809169008C7F842BA0
:1025F00080936900E89A089580916900440F551FFF
:10260000440F551F837F842B80936900E99A0895B6
:10261000823080F4882319F0813021F402C0E898D8
:1026200001C0E998E82FF0E0EE0FFF1FE35FFC4FD9
:102630001182108208951F920F920FB60F921124EB
:102640002F933F934F935F936F937F938F939F93BA
:10265000AF93BF93EF93FF9380910D0390910E037F
:10266000892B29F0E0910D03F0910E030995FF915C
:10267000EF91BF91AF919F918F917F916F915F91FA
:102680004F913F912F910F900FBE0F901F90189573
:102690001F920F920FB60F9211242F933F934F93D7
:1026A0005F936F937F938F939F93AF93BF93EF93BA
:1026B000FF9380910F0390911003892B29F0E091F3
:1026C0000F03F09110030995FF91EF91BF91AF9126
:1026D0009F918F917F916F915F914F913F912F913A
:1026E0000F900FBE0F901F9018951F920F920FB66C
:1026F0000F9211242F933F938F939F93AF93BF9388
:102700008091150390911603A0911703B0911803BF
:10271000309119030196A11DB11D232F2D5F2D3777
:1027200020F02D570196A11DB11D20931903809310
:10273000150390931603A0931703B0931803809189
:10274000110390911203A0911303B0911403019609
:10275000A11DB11D8093110390931203A093130345
:10276000B0931403BF91AF919F918F913F912F919F
:102770000F900FBE0F901F9018958FB7F89420916F
:1027800015033091160340911703509118038FBF22
:10279000B901CA0108959B01AC017FB7F8948091FB
:1027A000110390911203A0911303B091140366B525
:1027B000A89B05C06F3F19F00196A11DB11D7FBFF9
:1027C000BA2FA92F982F8827860F911DA11DB11D03
:1027D00062E0880F991FAA1FBB1F6A95D1F7BC0141
:1027E0002DC0FFB7F8948091110390911203A0912E
:1027F0001303B0911403E6B5A89B05C0EF3F19F091
:102800000196A11DB11DFFBFBA2FA92F982F8827B0
:102810008E0F911DA11DB11DE2E0880F991FAA1F07
:10282000BB1FEA95D1F7861B970B885E9340C8F2D1
:10283000215030404040504068517C4F21153105B7
:102840004105510571F60895019739F0880F991FD8
:10285000880F991F02970197F1F70895789484B52E
:10286000826084BD84B5816084BD85B5826085BD8C
:1028700085B5816085BDEEE6F0E080818160808372
:10288000E1E8F0E010828081826080838081816055
:102890008083E0E8F0E0808181608083E1EBF0E01C
:1028A000808184608083E0EBF0E0808181608083C0
:1028B000EAE7F0E0808184608083808182608083A9
:1028C0008081816080838081806880831092C100D4
:1028D0000895982F8E3008F09E50977080913701A0
:1028E0008295880F880F807C892B80937C00809153
:1028F0007A00806480937A0080917A0086FDFCCF14
:102900002091780040917900942F80E030E0282BCE
:10291000392BC9010895CF93DF93482F50E0CA01A6
:102920008B539E4FFC0134914F545E4FFA018491BA
:10293000882369F190E0880F991FFC01ED56FE4F46
:10294000A591B491FC01E356FE4FC591D491662345
:1029500051F42FB7F8948C91932F909589238C93F1
:10296000888189230BC0623061F42FB7F8948C9171
:10297000932F909589238C938881832B88832FBFF5
:1029800006C09FB7F8948C91832B8C939FBFDF91E7
:10299000CF910895482F50E0CA0187529E4FFC0105
:1029A0002491CA018B539E4FFC0194914F545E4F6A
:1029B000FA013491332309F440C0222351F123302A
:1029C00071F0243028F42130A1F0223011F514C028
:1029D0002630B1F02730C1F02430D9F404C0809102
:1029E00080008F7703C0809180008F7D809380006E
:1029F00010C084B58F7702C084B58F7D84BD09C0B7
:102A00008091B0008F7703C08091B0008F7D80935C
:102A1000B000E32FF0E0EE0FFF1FE356FE4FA5914D
:102A2000B4912FB7F894662321F48C919095892363
:102A300002C08C91892B8C932FBF0895682F70E072
:102A4000CB0187529E4FFC012491CB018B539E4FAB
:102A5000FC0144916F547E4FFB019491992319F42A
:102A600020E030E03CC0222351F1233071F02430CB
:102A700028F42130A1F0223011F514C02630B1F035
:102A80002730C1F02430D9F404C0809180008F77C2
:102A900003C0809180008F7D8093800010C084B53A
:102AA0008F7702C084B58F7D84BD09C08091B0004E
:102AB0008F7703C08091B0008F7D8093B000892F05
:102AC00090E0880F991F89559E4FFC01A591B49104
:102AD0008C9120E030E0842311F021E030E0C90146
:102AE000089508951F920F920FB60F9211242F93FD
:102AF0003F934F938F939F93EF93FF938091C000E9
:102B000082FD1DC04091C60020915A0330915B03A5
:102B10002F5F3F4F2F73307080915C0390915D0366
:102B20002817390771F0E0915A03F0915B03E65ED4
:102B3000FC4F408330935B0320935A0302C0809183
:102B4000C600FF91EF919F918F914F913F912F91EF
:102B50000F900FBE0F901F901895E091AE03F0916B
:102B6000AF03E05CFF4F8191919120813181821B05
:102B7000930B8F739070892B11F00E94711508953B
:102B80001F920F920FB60F9211242F933F938F93A2
:102B90009F93EF93FF9320919E0330919F03809129
:102BA000A0039091A1032817390731F48091C10047
:102BB0008F7D8093C10014C0E091A003F091A10328
:102BC000E25AFC4F20818091A0039091A1030196CD
:102BD0008F7390709093A1038093A0032093C600FD
:102BE000FF91EF919F918F913F912F910F900FBE89
:102BF0000F901F901895AF92BF92DF92EF92FF92C5
:102C00000F931F93CF93DF93EC017A018B01DD24A7
:102C1000403081EE580780E0680780E0780711F0C7
:102C2000DD24D39491E0A92EB12CEC89FD89DD201F
:102C300069F0C50108A002C0880F991F0A94E2F745
:102C4000808360E079E08DE390E005C0108260E869
:102C500074E88EE190E0A80197010E940F1B2150BB
:102C6000304040405040569547953795279580E134
:102C70002030380720F0DD2011F0DD24D6CFE889A0
:102C8000F9893083EA89FB89208319A2EE89FF89BB
:102C9000408121E030E0C9010C8C02C0880F991FEF
:102CA0000A94E2F7482B4083EE89FF894081C901ED
:102CB0000D8C02C0880F991F0A94E2F7482B4083BD
:102CC000EE89FF894081C9010E8C02C0880F991FCF
:102CD0000A94E2F7482B4083EE89FF8980810F8CAC
:102CE00002C0220F331F0A94E2F720952823208385
:102CF000DF91CF911F910F91FF90EF90DF90BF90E8
:102D0000AF900895DC011C96ED91FC911D97E05C5D
:102D1000FF4F2191319180819181281B390B2F73B5
:102D20003070C9010895DC011C96ED91FC911D974E
:102D3000E05CFF4F20813181E054F040DF01AE5B69
:102D4000BF4F8D919C9111972817390719F42FEFD8
:102D50003FEF07C08D919C91E80FF91F8081282FCC
:102D600030E0C9010895DC011C96ED91FC911D979E
:102D7000E05CFF4F20813181E054F040DF01AE5B29
:102D8000BF4F8D919C9111972817390719F42FEF98
:102D90003FEF10C08D919C911197E80FF91F208192
:102DA0008D919C91119701968F73907011969C93C1
:102DB0008E9330E0C9010895DC0191968C91919732
:102DC000882339F05496ED91FC915597808186FFC8
:102DD000F9CF91961C920895CF93DF93EC01EE8585
:102DE000FF85E05CFF4F20813181E054F0402F5F90
:102DF0003F4F2F733070DF01AE5BBF4F8D919C91C1
:102E0000119728173907D1F3E05CFF4F808191813A
:102E1000E054F040E80FF91F6083EE85FF85E05C29
:102E2000FF4F31832083EE89FF89208181E090E08C
:102E30000F8C02C0880F991F0A94E2F7282B208379
:102E400081E089A3EC89FD8980818064808381E0B1
:102E500090E0DF91CF9108951092A5031092A40302
:102E600088EE93E0A0E0B0E08093A6039093A703E0
:102E7000A093A803B093A90382E591E09093A303E4
:102E80008093A2038AE193E09093AF038093AE0313
:102E90008EE593E09093B1038093B00385EC90E0CE
:102EA0009093B3038093B20384EC90E09093B503C6
:102EB0008093B40380EC90E09093B7038093B603C3
:102EC00081EC90E09093B9038093B80382EC90E09A
:102ED0009093BB038093BA0386EC90E09093BD037C
:102EE0008093BC0384E08093BE0383E08093BF03A0
:102EF00087E08093C00385E08093C10381E08093E5
:102F0000C2030895CF93DF930E942E140E942505DB
:102F1000CDEAD5E10E9425042097E1F30E94AD158A
:102F2000F9CFCF92DF92EF92FF920F931F93CF933F
:102F3000DF937C016B018A01C0E0D0E00FC0D601B5
:102F40006D916D01D701ED91FC910190F081E02D23
:102F5000C7010995C80FD91F01501040011511056F
:102F600071F7CE01DF91CF911F910F91FF90EF90FC
:102F7000DF90CF900895EF92FF920F931F93CF931E
:102F8000DF937C018B01C0E0D0E0F8010F5F1F4FA1
:102F90006491662359F0D701ED91FC910190F08185
:102FA000E02DC7010995C80FD91FEFCFCE01DF91E2
:102FB000CF911F910F91FF90EF900895EF92FF92A4
:102FC0000F931F938C01DC01ED91FC910190F08136
:102FD000E02D6DE009957C01D801ED91FC91019007
:102FE000F081E02DC8016AE009959C012E0D3F1D7E
:102FF000C9011F910F91FF90EF900895EF92FF92FA
:103000000F931F937C010E94BB178C01C7010E9484
:10301000DE179C01200F311FC9011F910F91FF90F6
:10302000EF900895CF93DF93EC016115710519F4CA
:1030300020E030E00FC0DB010D900020E9F7119790
:10304000A61BB70BE881F9810280F381E02DAD0169
:1030500009959C01C901DF91CF9108954F925F922C
:103060007F928F929F92AF92BF92CF92DF92EF9218
:10307000FF920F931F93DF93CF93CDB7DEB7A19746
:103080000FB6F894DEBF0FBECDBF2C01742ECB015E
:10309000223008F42AE019A231E2C32ED12CCC0E42
:1030A000DD1E822E9924AA24BB24672D752FA5012D
:1030B00094010E940F1B79018A01C801B701A50183
:1030C00094010E94F01A472D461B0894C108D108AC
:1030D0004A3014F4405D01C0495CF6014083E114BC
:1030E000F1040105110521F07E2C5F2DC801DDCF13
:1030F000C201B6010E941218A1960FB6F894DEBF65
:103100000FBECDBFCF91DF911F910F91FF90EF9038
:10311000DF90CF90BF90AF909F908F907F905F9007
:103120004F900895DC012115310541F4ED91FC919A
:103130000190F081E02D642F099508950E942E18CA
:103140000895EF92FF920F931F939A01E62EFF24AA
:1031500000E010E0B801A7010E9492181F910F91A2
:10316000FF90EF9008950E9412180895EF92FF9239
:103170000F931F937C010E9412188C01C7010E94BB
:10318000DE17080F191FC8011F910F91FF90EF90D4
:103190000895009729F0BC0180E090E00E9485012D
:1031A00008955058BB27AA270ED075C166D130F0BC
:1031B0006BD120F031F49F3F11F41EF45BC10EF48B
:1031C000E095E7FB51C1E92F77D180F3BA17620789
:1031D00073078407950718F071F49EF58FC10EF4FC
:1031E000E0950B2EBA2FA02D0B01B90190010C0117
:1031F000CA01A0011124FF27591B99F0593F50F42F
:10320000503E68F11A16F040A22F232F342F442786
:10321000585FF3CF469537952795A795F04053957E
:10322000C9F77EF41F16BA0B620B730B840BBAF04E
:103230009150A1F0FF0FBB1F661F771F881FC2F7B9
:103240000EC0BA0F621F731F841F48F487957795CD
:103250006795B795F7959E3F08F0B3CF9395880F84
:1032600008F09927EE0F979587950895D9D008F41F
:1032700081E008950CD00FC107D140F0FED030F0AE
:1032800021F45F3F19F0F0C0511139C1F3C014D1DE
:1032900098F39923C9F35523B1F3951B550BBB271D
:1032A000AA2762177307840738F09F5F5F4F220FCA
:1032B000331F441FAA1FA9F333D00E2E3AF0E0E8C3
:1032C00030D091505040E695001CCAF729D0FE2F0F
:1032D00027D0660F771F881FBB1F261737074807A1
:1032E000AB07B0E809F0BB0B802DBF01FF27935857
:1032F0005F4F2AF09E3F510568F0B6C000C15F3FA6
:10330000ECF3983EDCF3869577956795B795F7953E
:103310009F5FC9F7880F911D9695879597F9089536
:10332000E1E0660F771F881FBB1F621773078407D2
:10333000BA0720F0621B730B840BBA0BEE1F88F7E1
:10334000E095089504D06894B111D9C00895BCD017
:1033500088F09F5790F0B92F9927B751A0F0D1F07E
:10336000660F771F881F991F1AF0BA95C9F712C008
:10337000B13081F0C3D0B1E00895C0C0672F782F7D
:103380008827B85F39F0B93FCCF386957795679574
:10339000B395D9F73EF490958095709561957F4FE0
:1033A0008F4F9F4F0895E89409C097FB3EF4909586
:1033B0008095709561957F4F8F4F9F4F9923A9F00E
:1033C000F92F96E9BB279395F6958795779567959D
:1033D000B795F111F8CFFAF4BB0F11F460FF1BC0E1
:1033E0006F5F7F4F8F4F9F4F16C0882311F096E974
:1033F00011C0772321F09EE8872F762F05C0662322
:1034000071F096E8862F70E060E02AF09A95660FDA
:10341000771F881FDAF7880F9695879597F9089593
:10342000990F0008550FAA0BE0E8FEEF16161706D5
:10343000E807F907C0F012161306E407F50798F03D
:10344000621B730B840B950B39F40A2661F0232B56
:10345000242B252B21F408950A2609F4A140A695D2
:103460008FEF811D811D089597F99F6780E870E0B7
:1034700060E008959FEF80EC089500240A941616EA
:10348000170618060906089500240A941216130652
:10349000140605060895092E0394000C11F48823E0
:1034A00052F0BB0F40F4BF2B11F460FF04C06F5FFC
:1034B0007F4F8F4F9F4F089557FD9058440F551FD2
:1034C00059F05F3F71F04795880F97FB991F61F0A6
:1034D0009F3F79F087950895121613061406551F1D
:1034E000F2CF4695F1DF08C0161617061806991F89
:1034F000F1CF86957105610508940895E894BB277E
:1035000066277727CB0197F908958ADF08F48FEFB4
:1035100008950BD0C0CFB1DF28F0B6DF18F09523A7
:1035200009F0A2CFA7CF1124EACFC6DFA0F3959F61
:10353000D1F3950F50E0551F629FF001729FBB279A
:10354000F00DB11D639FAA27F00DB11DAA1F649F46
:103550006627B00DA11D661F829F2227B00DA11DF9
:10356000621F739FB00DA11D621F839FA00D611D7F
:10357000221F749F3327A00D611D231F849F600DA0
:10358000211D822F762F6A2F11249F5750408AF0D9
:10359000E1F088234AF0EE0FFF1FBB1F661F771F65
:1035A000881F91505040A9F79E3F510570F05CCFA5
:1035B000A6CF5F3FECF3983EDCF386957795679551
:1035C000B795F795E7959F5FC1F7FE2B880F911D83
:1035D0009695879597F9089523DF880B990B0895A1
:1035E000629FD001739FF001829FE00DF11D649FE7
:1035F000E00DF11D929FF00D839FF00D749FF00D73
:10360000659FF00D9927729FB00DE11DF91F639F13
:10361000B00DE11DF91FBD01CF0111240895A1E2F4
:103620001A2EAA1BBB1BFD010DC0AA1FBB1FEE1F3C
:10363000FF1FA217B307E407F50720F0A21BB30B87
:10364000E40BF50B661F771F881F991F1A9469F703
:1036500060957095809590959B01AC01BD01CF015F
:10366000089597FB092E05260ED057FD04D0D7DF0D
:103670000AD0001C38F450954095309521953F4F65
:103680004F4F5F4F0895F6F790958095709561952F
:103690007F4F8F4F9F4F0895EE0FFF1F0590F491BE
:1036A000E02D09942F923F924F925F926F927F92FA
:1036B0008F929F92AF92BF92CF92DF92EF92FF9242
:1036C0000F931F93CF93DF93CDB7DEB7CA1BDB0BEE
:1036D0000FB6F894DEBF0FBECDBF09942A88398893
:1036E00048885F846E847D848C849B84AA84B9849A
:1036F000C884DF80EE80FD800C811B81AA81B981A6
:10370000CE0FD11D0FB6F894DEBF0FBECDBFED01B9
:103710000895F894FFCF5F726177006F686D730052
:1037200052656164206661696C00010000005465A7
:103730006D70657261747572650064656720430021
:1037400048756D6964697479002500040201000000
:1037500000002606F505AE05B705CC05DD05FFFF23
:10376000FFFFFFFF00000000EC1691178216B31652
:103770009316DC16EE80FD800C811B81AA81B98135
:103780003E834F8358872D913D914D915D912987BF
:103790003A874B875C876D907D908D909D902D91A1
:1037A0003D914D915D912D873E874F87588B2D918F
:1037B0003D914D915D91298B3A8B4B8B5C8B2D917B
:1037C0003D914D915D91BAA3A9A32D8B3E8B4F8B5B
:1037D000588F8D919D910D90BC91A02DE9A1FAA1DA
:1037E000E156F040FAA3E9A321E433E03C8F2B8FAC
:1037F00041E050E05A8F498F0EC1598D503108F485
:10380000CBC0698D7A8D6F707070E98DFA8D3297AB
:10381000EF70F0703196EE0FFF1FEE0FFF1F89A1C2
:103820009AA1E80FF91FA080B180C280D380E98DF2
:10383000FA8D3F97EF70F0703196EE0FFF1FEE0F8D
:10384000FF1FE80FF91F6080718082809380E98DEF
:10385000FA8D3797EF70F0703196EE0FFF1FEE0F75
:10386000FF1FE80FF91F6F5F7F4F660F771F660F0F
:10387000771F680F791FE080F18002811381FB01BF
:1038800080819181A281B381E80EF91E0A1F1B1F5E
:10389000D601C50121E1B695A795979587952A95FB
:1038A000D1F7A6019501FFE0220F331F441F551FDA
:1038B000FA95D1F7822B932BA42BB52BA60195015A
:1038C000EAE05695479537952795EA95D1F78227EF
:1038D0009327A427B527A6019501FDE0220F331FEA
:1038E000441F551FFA95D1F7E3E1D694C794B794D6
:1038F000A794EA95D1F72A293B294C295D298227EB
:103900009327A427B527E80EF91E0A1F1B1FD40111
:10391000C30127E0B695A795979587952A95D1F786
:10392000A4019301F9E1220F331F441F551FFA959B
:10393000D1F7822B932BA42BB52BA4019301E3E0A9
:103940005695479537952795EA95D1F7822793277E
:10395000A427B527A4019301FEE0220F331F441FC3
:10396000551FFA95D1F7E2E196948794779467947E
:10397000EA95D1F7262937294829592982279327FB
:10398000A427B527E80EF91E0A1F1B1FDB01ED92C5
:10399000FD920D931C931397EB8DFC8D3496FC8F49
:1039A000EB8F298D3A8D2F5F3F4F3A8F298F8D896D
:1039B0009E89AF89B88D29893A894B895C892D8B7D
:1039C0003E8B4F8B588F2D853E854F855889298B8F
:1039D0003A8B4B8B5C8B69847A848B849C842D819D
:1039E0003E814F81588529873A874B875C8729819B
:1039F0003A814B815C812D833E834F835887298296
:103A00003A824B825C822D8D3E8D4F8D58A12D8741
:103A10003E874F87588B2B8D3C8DF901A590B59033
:103A2000C590D490A80EB91ECA1EDB1E2D853E85FA
:103A30004F8558890BE056954795379527950A95F8
:103A4000D1F78D859E85AF85B88915E1880F991FBF
:103A5000AA1FBB1F1A95D1F7282B392B4A2B5B2B9A
:103A60008D859E85AF85B889F6E0B695A795979523
:103A70008795FA95D1F7ED84FE840F851889EAE1E0
:103A8000EE0CFF1C001F111FEA95D1F78E299F290C
:103A9000A02BB12B282739274A275B278D859E85A8
:103AA000AF85B88979E1B695A795979587957A9569
:103AB000D1F7ED84FE840F85188967E0EE0CFF1CBA
:103AC000001F111F6A95D1F78E299F29A02BB12BBA
:103AD000282739274A275B27A20EB31EC41ED51EEE
:103AE00089899A89AB89BC892D893E894F89588DEE
:103AF00082279327A427B5272D853E854F85588992
:103B000082239323A423B5232D893E894F89588D81
:103B100082279327A427B527A80EB91ECA1EDB1E2D
:103B2000E98DFA8D3197EF70F0703196EE0FFF1F2F
:103B3000EE0FFF1F49A15AA1E40FF51F808191816B
:103B4000A281B381A80EB91ECA1EDB1EE980FA80CD
:103B50000B811C813DE016950795F794E7943A9503
:103B6000D1F789819A81AB81BC8123E1880F991FAC
:103B7000AA1FBB1F2A95D1F7E82AF92A0A2B1B2B6B
:103B800089819A81AB81BC81F2E0B695A795979522
:103B90008795FA95D1F729813A814B815C81EEE1D5
:103BA000220F331F441F551FEA95D1F7822B932B09
:103BB000A42BB52BE826F9260A271B2789819A8191
:103BC000AB81BC8176E1B695A795979587957A9557
:103BD000D1F729813A814B815C816AE0220F331F42
:103BE000441F551F6A95D1F7822B932BA42BB52B1D
:103BF000E826F9260A271B27D601C501860D971D41
:103C0000A81DB91D8D8F9E8FAF8FB8A32D803E80CC
:103C10004F80588429853A854B855C85222A332A32
:103C2000442A552A89819A81AB81BC812822392274
:103C30004A225B228D819E81AF81B88582239323A6
:103C4000A423B523282A392A4A2A5B2A2E0C3F1C92
:103C5000401E511E2A0C3B1C4C1C5D1CAB8DBC8DA8
:103C6000AD53B44009F0C9CDE9A1FAA1EB5BFF4F18
:103C700080819181A281B381280E391E4A1E5B1E6C
:103C8000208231824282538269A17AA1675B7F4F91
:103C9000FB0180819181A281B38129813A814B818D
:103CA0005C81820F931FA41FB51F80839183A28321
:103CB000B38369A17AA1635B7F4FFB01808191810E
:103CC000A281B3812D813E814F815885820F931F40
:103CD000A41FB51F80839183A283B38369A17AA1B6
:103CE0006F5A7F4FFB0180819181A281B381298529
:103CF0003A854B855C85820F931FA41FB51F808377
:103D00009183A283B383E9A1FAA1EB5AFF4F6080AC
:103D10007180828093802D8D3E8D4F8D58A1260D10
:103D2000371D481D591D208331834283538369A168
:103D30007AA1675A7F4FFB0180819181A281B38173
:103D40002D853E854F855889820F931FA41FB51F6F
:103D500080839183A283B38369A17AA1635A7F4F41
:103D6000FB0180819181A281B38129893A894B89A4
:103D70005C89820F931FA41FB51F80839183A28348
:103D8000B38369A17AA16F597F4FFB018081918133
:103D9000A281B3812D893E894F89588D820F931F4F
:103DA000A41FB51F80839183A283B383A2960FB60D
:103DB000F894DEBF0FBECDBFCF91DF911F910F9161
:103DC000FF90EF90DF90CF90BF90AF909F908F903B
:103DD0007F906F905F904F903F902F900895CF937A
:103DE000DF939C01EC01CC5BDF4F988183E0892756
:103DF000F901E80FF11D64839F5F9883903421F4EB
:103E0000C9010E94961B1882DF91CF910895FC0191
:103E1000EB59FF4F20813181428153812F5F3F4F0A
:103E20004F4F5F4F20833183428353830E94EF1EA5
:103E300081E090E008951092A7051092A60585E90B
:103E400091E09093A5058093A40508951F920F9289
:103E50000FB60F9211242F933F938F939F93AF939D
:103E6000BF938091710690917206A0917306B091F4
:103E70007406309175060196A11DB11D232F2D5F8B
:103E80002D3720F02D570196A11DB11D20937506E9
:103E90008093710690937206A0937306B093740694
:103EA00080916D0690916E06A0916F06B09170069C
:103EB0000196A11DB11D80936D0690936E06A0938F
:103EC0006F06B0937006BF91AF919F918F913F9114
:103ED0002F910F900FBE0F901F9018958FB7F894E9
:103EE00020917106309172064091730650917406CC
:103EF0008FBFB901CA0108959B01AC017FB7F89447
:103F000080916D0690916E06A0916F06B09170063B
:103F100066B5A89B05C06F3F19F00196A11DB11DA4
:103F20007FBFBA2FA92F982F8827860F911DA11D1B
:103F3000B11D62E0880F991FAA1FBB1F6A95D1F7B8
:103F4000BC012DC0FFB7F89480916D0690916E066C
:103F5000A0916F06B0917006E6B5A89B05C0EF3F33
:103F600019F00196A11DB11DFFBFBA2FA92F982FDF
:103F700088278E0F911DA11DB11DE2E0880F991FAA
:103F8000AA1FBB1FEA95D1F7861B970B885E93404B
:103F9000C8F2215030404040504068517C4F2115BC
:103FA00031054105510571F60895019739F0880FE3
:103FB000991F880F991F02970197F1F70895789438
:103FC00084B5826084BD84B5816084BD85B582601E
:103FD00085BD85B5816085BDEEE6F0E080818160BC
:103FE0008083E1E8F0E010828081826080838081BC
:103FF00081608083E0E8F0E0808181608083E1EB94
:10400000F0E0808184608083E0EBF0E0808181607B
:104010008083EAE7F0E08081846080838081826031
:10402000808380818160808380818068808310921A
:10403000C1000895CF93DF93482F50E0CA018D56F9
:104040009B4FFC01349141585B4FFA0184918823C6
:1040500069F190E0880F991FFC01EF59FB4FA59182
:10406000B491FC01E559FB4FC591D491662351F4FD
:104070002FB7F8948C91932F909589238C938881F6
:1040800089230BC0623061F42FB7F8948C91932F81
:10409000909589238C938881832B88832FBF06C0BA
:1040A0009FB7F8948C91832B8C939FBFDF91CF9116
:1040B0000895482F50E0CA0189559B4FFC01249177
:1040C000CA018D569B4FFC01949141585B4FFA01F8
:1040D0003491332309F440C0222351F1233071F08D
:1040E000243028F42130A1F0223011F514C02630FC
:1040F000B1F02730C1F02430D9F404C080918000A1
:104100008F7703C0809180008F7D8093800010C0E6
:1041100084B58F7702C084B58F7D84BD09C080913E
:10412000B0008F7703C08091B0008F7D8093B00086
:10413000E32FF0E0EE0FFF1FE559FB4FA591B4917F
:104140002FB7F894662321F48C919095892302C0AF
:104150008C91892B8C932FBF089508951F920F92F5
:104160000FB60F9211242F933F934F938F939F93EA
:10417000EF93FF938091C00082FD1DC04091C60067
:104180002091B6063091B7062F5F3F4F2F733070E6
:104190008091B8069091B9062817390771F0E0911F
:1041A000B606F091B706EA58F94F40833093B70648
:1041B0002093B60602C08091C600FF91EF919F91B7
:1041C0008F914F913F912F910F900FBE0F901F90A5
:1041D0001895E0910A07F0910B07E05CFF4F819181
:1041E000919120813181821B930B8F739070892B69
:1041F00011F00E94AD2008951F920F920FB60F92FA
:1042000011242F933F938F939F93EF93FF932091CC
:10421000FA063091FB068091FC069091FD06281766
:10422000390731F48091C1008F7D8093C10014C0A3
:10423000E091FC06F091FD06E654F94F2081809153
:10424000FC069091FD0601968F7390709093FD0689
:104250008093FC062093C600FF91EF919F918F9170
:104260003F912F910F900FBE0F901F901895AF9216
:10427000BF92DF92EF92FF920F931F93CF93DF9342
:10428000EC017A018B01DD24403081EE580780E09B
:10429000680780E0780711F0DD24D39491E0A92E1F
:1042A000B12CEC89FD89DD2069F0C50108A002C0B0
:1042B000880F991F0A94E2F7808360E079E08DE32C
:1042C00090E005C0108260E874E88EE190E0A801FB
:1042D00097010E94ED2421503040404050405695B7
:1042E00047953795279580E12030380720F0DD206D
:1042F00011F0DD24D6CFE889F9893083EA89FB897A
:10430000208319A2EE89FF89408121E030E0C901B4
:104310000C8C02C0880F991F0A94E2F7482B408347
:10432000EE89FF894081C9010D8C02C0880F991F59
:104330000A94E2F7482B4083EE89FF894081C90146
:104340000E8C02C0880F991F0A94E2F7482B408315
:10435000EE89FF8980810F8C02C0220F331F0A94DF
:10436000E2F7209528232083DF91CF911F910F91B1
:10437000FF90EF90DF90BF90AF900895DC011C9606
:10438000ED91FC911D97E05CFF4F2191319180816F
:104390009181281B390B2F733070C9010895DC01FE
:1043A0001C96ED91FC911D97E05CFF4F20813181BF
:1043B000E054F040DF01AE5BBF4F8D919C911197AF
:1043C0002817390719F42FEF3FEF07C08D919C9103
:1043D000E80FF91F8081282F30E0C9010895DC0122
:1043E0001C96ED91FC911D97E05CFF4F208131817F
:1043F000E054F040DF01AE5BBF4F8D919C9111976F
:104400002817390719F42FEF3FEF10C08D919C91B9
:104410001197E80FF91F20818D919C9111970196BA
:104420008F73907011969C938E9330E0C90108951C
:10443000DC0191968C919197882339F05496ED91F7
:10444000FC915597808186FFF9CF91961C92089533
:10445000CF93DF93EC01EE85FF85E05CFF4F208179
:104460003181E054F0402F5F3F4F2F733070DF01F8
:10447000AE5BBF4F8D919C91119728173907D1F3EF
:10448000E05CFF4F80819181E054F040E80FF91F1C
:104490006083EE85FF85E05CFF4F31832083EE89EA
:1044A000FF89208181E090E00F8C02C0880F991F66
:1044B0000A94E2F7282B208381E089A3EC89FD8907
:1044C00080818064808381E090E0DF91CF910895C6
:1044D000109201071092000788EE93E0A0E0B0E090
:1044E0008093020790930307A0930407B0930507F6
:1044F0008DE991E09093FF068093FE0686E796E0B3
:1045000090930B0780930A078AEB96E090930D0730
:1045100080930C0785EC90E090930F0780930E0733
:1045200084EC90E0909311078093100780EC90E06A
:10453000909313078093120781EC90E090931507F6
:104540008093140782EC90E09093170780931607EE
:1045500086EC90E0909319078093180784E080938D
:104560001A0783E080931B0787E080931C0785E090
:1045700080931D0781E080931E070895CF93DF93FA
:104580000E94DF1F0E942C07C9EED0E20E94840324
:104590002097E1F30E94E920F9CFCF92DF92EF92CA
:1045A000FF920F931F93CF93DF937C016B018A01DE
:1045B000C0E0D0E00FC0D6016D916D01D701ED9143
:1045C000FC910190F081E02DC7010995C80FD91F1A
:1045D000015010400115110571F7CE01DF91CF9107
:1045E0001F910F91FF90EF90DF90CF900895EF9281
:1045F000FF920F931F93CF93DF937C018B01C0E059
:10460000D0E0F8010F5F1F4F6491662359F0D70186
:10461000ED91FC910190F081E02DC7010995C80F43
:10462000D91FEFCFCE01DF91CF911F910F91FF9056
:10463000EF900895DC01ED91FC910190F081E02D67
:1046400009950895EF92FF920F931F938C01DC015F
:10465000ED91FC910190F081E02D6DE009957C01D8
:10466000D801ED91FC910190F081E02DC8016AE044
:1046700009959C012E0D3F1DC9011F910F91FF90BF
:10468000EF900895EF92FF920F931F937C010E9489
:10469000F7228C01C7010E9422239C01200F311FA9
:1046A000C9011F910F91FF90EF900895CF93DF9371
:1046B000EC016115710519F420E030E00FC0DB0159
:1046C0000D900020E9F71197A61BB70BE881F9813F
:1046D0000280F381E02DAD0109959C01C901DF91B4
:1046E000CF9108954F925F927F928F929F92AF9257
:1046F000BF92CF92DF92EF92FF920F931F93DF93BF
:10470000CF93CDB7DEB7A1970FB6F894DEBF0FBE3B
:10471000CDBF2C01742ECB01223008F42AE019A25F
:1047200031E2C32ED12CCC0EDD1E822E9924AA2478
:10473000BB24672D752FA50194010E94ED247901FA
:104740008A01C801B701A50194010E94BA24472D2E
:10475000461B0894C108D1084A3014F4405D01C0DA
:10476000495CF6014083E114F1040105110521F0D3
:104770007E2C5F2DC801DDCFC201B6010E945623F9
:10478000A1960FB6F894DEBF0FBECDBFCF91DF91DB
:104790001F910F91FF90EF90DF90CF90BF90AF905F
:1047A0009F908F907F905F904F900895DC0121152E
:1047B000310541F4ED91FC910190F081E02D642FE1
:1047C000099508950E9472230895CF92DF92EF9287
:1047D000FF920F931F936C017B019A0100E010E0A0
:1047E000B801A7010E94D6238C01C6010E94222392
:1047F000080F191FC8011F910F91FF90EF90DF90D4
:10480000CF900895EF92FF920F931F939A01E62E97
:10481000FF2400E010E0B801A7010E94D6231F91F9
:104820000F91FF90EF900895CF92DF92EF92FF9259
:104830000F931F936C01E62E9A01FF2400E010E015
:10484000B801A7010E94D6238C01C6010E94222331
:10485000080F191FC8011F910F91FF90EF90DF9073
:10486000CF900895CF92DF92EF92FF920F931F9314
:10487000CF93DF93EC016A017B012115310541F4EF
:10488000E881F9810190F081E02D642F09951FC026
:104890002A303105D1F477FF17C0E881F981019002
:1048A000F081E02D6DE209958C0144275527BA016E
:1048B0004C195D096E097F09CE012AE00E9472231E
:1048C0009801280F391F04C02AE00E9472239C011E
:1048D000C901DF91CF911F910F91FF90EF90DF9071
:1048E000CF900895EF92FF920F931F937B019A014F
:1048F0000027F7FC0095102FB801A7010E94322471
:104900001F910F91FF90EF900895CF92DF92EF9259
:10491000FF920F931F936C017B019A010027F7FC14
:104920000095102FB801A7010E9432248C01C60106
:104930000E942223080F191FC8011F910F91FF9099
:10494000EF90DF90CF9008950E9456230895EF9244
:10495000FF920F931F937C010E9456238C01C70185
:104960000E942223080F191FC8011F910F91FF9069
:10497000EF900895629FD001739FF001829FE00D38
:10498000F11D649FE00DF11D929FF00D839FF00DCE
:10499000749FF00D659FF00D9927729FB00DE11D7A
:1049A000F91F639FB00DE11DF91FBD01CF01112457
:1049B0000895AA1BBB1B51E107C0AA1FBB1FA61766
:1049C000B70710F0A61BB70B881F991F5A95A9F7B8
:1049D00080959095BC01CD010895A1E21A2EAA1BE5
:1049E000BB1BFD010DC0AA1FBB1FEE1FFF1FA2179F
:1049F000B307E407F50720F0A21BB30BE40BF50B9C
:104A0000661F771F881F991F1A9469F76095709524
:104A1000809590959B01AC01BD01CF010895EE0FEB
:104A2000FF1F0590F491E02D09942F923F924F9231
:104A30005F926F927F928F929F92AF92BF92CF922E
:104A4000DF92EF92FF920F931F93CF93DF93CDB737
:104A5000DEB7CA1BDB0B0FB6F894DEBF0FBECDBFAF
:104A600009942A88398848885F846E847D848C8480
:104A70009B84AA84B984C884DF80EE80FD800C8189
:104A80001B81AA81B981CE0FD11D0FB6F894DEBF6C
:104A90000FBECDBFED010895F894FFCF3A2C220A46
:104AA00000537461636B3A2000556E697420416451
:104AB00064726573733A20000D0A000032303000D2
:104AC00041726475696E6F2D303000370301030643
:104AD000FF63825363350150000100010AE54C89F0
:104AE000CF2B916934A288304B6F7630E5B9AAD8C4
:104AF000C8303132333435363738396162636465F2
:104B00006600000000C40793074C0755076A077B3F
:104B100007FFFFFFFFFFFFFFFFFFFFFFFF0000009A
:104B200000D511CD2200000000F719CD22000000B1
:104B300000071FCD22000000002822CD22BE21EF59
:104B400021CF211822006F2D3030003703010306DA
:104B5000FF63825363350150000100010AE54C896F
:104B6000CF2B916934A288304B6F7630E5B9AAD843
:104B7000C830313233343536373839616263646571
:104B8000C600FF91EF919F918F913F912F910F90D0
:104B90000FBE0F901F901895AF92BF92DF92EF92C9
:104BA000FF920F931F93CF93DF93EC017A018B0158
:104BB000DD24403081EE580780E0680780E0780708
:104BC00011F0DD24D39491E0A92EB12CEC89FD895C
:104BD000DD2069F0C50108A002C0880F991F0A9462
:104BE000E2F7808360E079E08DE390E005C0108219
:104BF00060E874E88EE190E0A80197010E94402CE3
:104C00002150304040405040569547953795279564
:104C100080E12030380720F0DD2011F0DD24D6CFF0
:104C2000E889F9893083EA89FB89208319A2EE8912
:104C3000FF89408121E030E0C9010C8C02C0880F5F
:104C4000991F0A94E2F7482B4083EE89FF8940813F
:104C5000C9010D8C02C0880F991F0A94E2F7482BF6
:104C60004083EE89FF894081C9010E8C02C0880F04
:104C7000991F0A94E2F7482B4083EE89FF898081CF
:104C80000F8C02C0220F331F0A94E2F720952823CD
:104C90002083DF91CF911F910F91FF90EF90DF90D4
:104CA000BF90AF900895DC011C96ED91FC911D978B
:104CB000E05CFF4F2191319180819181281B390B5C
:104CC0002F733070C9010895DC011C96ED91FC91A1
:104CD0001D97E05CFF4F20813181E054F040DF01FF
:104CE000AE5BBF4F8D919C9111972817390719F42E
:104CF0002FEF3FEF07C08D919C91E80FF91F808146
:104D0000282F30E0C9010895DC011C96ED91FC913B
:104D10001D97E05CFF4F20813181E054F040DF01BE
:104D2000AE5BBF4F8D919C9111972817390719F4ED
:104D30002FEF3FEF10C08D919C911197E80FF91F55
:104D400020818D919C91119701968F73907011968F
:104D50009C938E9330E0C9010895DC0191968C916B
:104D60009197882339F05496ED91FC915597808165
:104D700086FFF9CF91961C920895CF93DF93EC01B3
:104D8000EE85FF85E05CFF4F20813181E054F040EB
:104D90002F5F3F4F2F733070DF01AE5BBF4F8D91A0
:104DA0009C91119728173907D1F3E05CFF4F808160
:104DB0009181E054F040E80FF91F6083EE85FF8594
:104DC000E05CFF4F31832083EE89FF89208181E001
:104DD00090E00F8C02C0880F991F0A94E2F7282BED
:104DE000208381E089A3EC89FD89808180648083B0
:104DF00081E090E0DF91CF9108951092B306109278
:104E0000B20688EE93E0A0E0B0E08093B406909301
:104E1000B506A093B606B093B7068AE991E09093E1
:104E2000B1068093B00688E296E09093BD06809329
:104E3000BC068CE696E09093BF068093BE0685EC98
:104E400090E09093C1068093C00684EC90E090932C
:104E5000C3068093C20680EC90E09093C5068093D1
:104E6000C40681EC90E09093C7068093C60682EC5E
:104E700090E09093C9068093C80686EC90E09093EA
:104E8000CB068093CA0684E08093CC0683E08093AF
:104E9000CD0687E08093CE0685E08093CF0681E043
:104EA0008093D0060895CF93DF930E94FF230E9442
:104EB0003D0ACEE7D5E20E945F082097E1F30E9409
:104EC0007E25F9CFCF92DF92EF92FF920F931F933F
:104ED000CF93DF937C016B018A01C0E0D0E00FC06B
:104EE000D6016D916D01D701ED91FC910190F0819A
:104EF000E02DC7010995C80FD91F015010400115B9
:104F0000110571F7CE01DF91CF911F910F91FF90A5
:104F1000EF90DF90CF900895EF92FF920F931F9341
:104F2000CF93DF937C018B01C0E0D0E0F8010F5FED
:104F30001F4F6491662359F0D701ED91FC910190C8
:104F4000F081E02DC7010995C80FD91FEFCFCE0121
:104F5000DF91CF911F910F91FF90EF900895DC01A9
:104F6000ED91FC910190F081E02D09950895EF926B
:104F7000FF920F931F938C01DC01ED91FC91019046
:104F8000F081E02D6DE009957C01D801ED91FC9157
:104F90000190F081E02DC8016AE009959C012E0D79
:104FA0003F1DC9011F910F91FF90EF900895EF925F
:104FB000FF920F931F937C010E948C278C01C701E5
:104FC0000E94B7279C01200F311FC9011F910F912B
:104FD000FF90EF900895CF93DF93EC016115710579
:104FE00019F420E030E00FC0DB010D900020E9F75C
:104FF0001197A61BB70BE881F9810280F381E02DA0
:10500000AD0109959C01C901DF91CF9108954F929F
:105010005F927F928F929F92AF92BF92CF92DF92D8
:10502000EF92FF920F931F93DF93CF93CDB7DEB72D
:10503000A1970FB6F894DEBF0FBECDBF2C01742E22
:10504000CB01223008F42AE019A231E2C32ED12C80
:10505000CC0EDD1E822E9924AA24BB24672D752F29
:10506000A50194010E94402C79018A01C801B70171
:10507000A50194010E940D2C472D461B0894C108E0
:10508000D1084A3014F4405D01C0495CF601408308
:10509000E114F1040105110521F07E2C5F2DC801FA
:1050A000DDCFC201B6010E94EB27A1960FB6F8949E
:1050B000DEBF0FBECDBFCF91DF911F910F91FF904B
:1050C000EF90DF90CF90BF90AF909F908F907F90A8
:1050D0005F904F900895DC012115310541F4ED9169
:1050E000FC910190F081E02D642F099508950E94B4
:1050F00007280895CF92DF92EF92FF920F931F93AC
:105100006C017B019A0100E010E0B801A7010E9448
:105110006B288C01C6010E94B727080F191FC80110
:105120001F910F91FF90EF90DF90CF900895EF9235
:10513000FF920F931F939A01E62EFF2400E010E0E8
:10514000B801A7010E946B281F910F91FF90EF906B
:105150000895CF92DF92EF92FF920F931F93CF9318
:10516000DF93EC016A017B012115310541F4E881EF
:10517000F9810190F081E02D642F09951FC02A303C
:105180003105D1F477FF17C0E881F9810190F081F2
:10519000E02D6DE209958C0144275527BA014C1981
:1051A0005D096E097F09CE012AE00E940728980157
:1051B000280F391F04C02AE00E9407289C01C9015A
:1051C000DF91CF911F910F91FF90EF90DF90CF90E3
:1051D00008950E94EB2708957F928F929F92AF923D
:1051E000BF92CF92DF92EF92FF920F931F93CF93D4
:1051F000DF934C017A018B01722ECB01BA01A80119
:1052000097010E94092C882321F0C40163E271E018
:1052100021C0C0E0D0E057016801E894D7F8C6018A
:10522000B5012FEF3FEF4FE75FE70E94092C88237E
:1052300051F4C601B5012FEF3FEF4FE75FE70E9442
:10524000532A181614F0C1E0D0E0219739F0C401B8
:1052500067E271E00E94EB27EC0193C0C801B7013F
:105260002FEF3FEF4FE75FE40E94A22B181654F098
:10527000C801B7012FEF3FEF4FE75FEC0E94532AC1
:10528000882324F4C4016BE271E0E4CFC801B701C4
:1052900020E030E040E050E00E94532A87FD03C048
:1052A000C0E0D0E00EC0D401ED91FC910190F081FE
:1052B000E02DC4016DE20995EC0117FB109517F97B
:1052C000109520E030E040E05FE3DD240BC0CA0130
:1052D000B90120E030E040E251E40E94572A9B01EE
:1052E000AC01D394D71498F3C801B7010E94EF29F9
:1052F0005B016C010E94C42A7B018C01C401B801CE
:10530000A7012AE030E00E946B28C80FD91F772040
:1053100039F0C4016FE271E00E94EB27C80FD91F7A
:10532000C801B7010E94F02A9B01AC01C601B5017A
:105330000E94EE2924C020E030E040E251E40E94C7
:10534000A62B7B018C010E94BF2A5B016C01CC243F
:10535000B7FCC094DC2CC401B601A5012AE030E002
:105360000E94A928C80FD91FC601B5010E94F22AC0
:105370009B01AC01C801B7010E94EE297A94772005
:10538000D1F6CE01DF91CF911F910F91FF90EF9059
:10539000DF90CF90BF90AF909F908F907F900895B7
:1053A0000E94EC280895EF92FF920F931F937C01C7
:1053B0000E94EB278C01C7010E94B727080F191F15
:1053C000C8011F910F91FF90EF900895009729F069
:1053D000BC0180E090E00E94230308955058BB2751
:1053E000AA270ED075C166D130F06BD120F031F410
:1053F0009F3F11F41EF45BC10EF4E095E7FB51C131
:10540000E92F77D180F3BA176207730784079507EE
:1054100018F071F49EF58FC10EF4E0950B2EBA2FA3
:10542000A02D0B01B90190010C01CA01A0011124AA
:10543000FF27591B99F0593F50F4503E68F11A1656
:10544000F040A22F232F342F4427585FF3CF4695E7
:1054500037952795A795F0405395C9F77EF41F1609
:10546000BA0B620B730B840BBAF09150A1F0FF0FD3
:10547000BB1F661F771F881FC2F70EC0BA0F621FBF
:10548000731F841F48F4879577956795B795F795AF
:105490009E3F08F0B3CF9395880F08F09927EE0F41
:1054A000979587950895D9D008F481E008950CD098
:1054B0000FC107D140F0FED030F021F45F3F19F06A
:1054C000F0C0511139C1F3C014D198F39923C9F335
:1054D0005523B1F3951B550BBB27AA2762177307FA
:1054E000840738F09F5F5F4F220F331F441FAA1FAE
:1054F000A9F333D00E2E3AF0E0E830D0915050406E
:10550000E695001CCAF729D0FE2F27D0660F771F1B
:10551000881FBB1F261737074807AB07B0E809F0FD
:10552000BB0B802DBF01FF2793585F4F2AF09E3F92
:10553000510568F0B6C000C15F3FECF3983EDCF364
:10554000869577956795B795F7959F5FC9F7880F0B
:10555000911D9695879597F90895E1E0660F771F5D
:10556000881FBB1F621773078407BA0720F0621BEE
:10557000730B840BBA0BEE1F88F7E095089504D0E7
:105580006894B111D9C00895BCD088F09F5790F0AD
:10559000B92F9927B751A0F0D1F0660F771F881F58
:1055A000991F1AF0BA95C9F712C0B13081F0C3D073
:1055B000B1E00895C0C0672F782F8827B85F39F011
:1055C000B93FCCF3869577956795B395D9F73EF4B7
:1055D00090958095709561957F4F8F4F9F4F08955F
:1055E000E89409C097FB3EF490958095709561957D
:1055F0007F4F8F4F9F4F9923A9F0F92F96E9BB2733
:105600009395F695879577956795B795F111F8CFAE
:10561000FAF4BB0F11F460FF1BC06F5F7F4F8F4F19
:105620009F4F16C0882311F096E911C0772321F00F
:105630009EE8872F762F05C0662371F096E8862FA7
:1056400070E060E02AF09A95660F771F881FDAF7FE
:10565000880F9695879597F90895990F0008550F2B
:10566000AA0BE0E8FEEF16161706E807F907C0F0E8
:1056700012161306E407F50798F0621B730B840BF0
:10568000950B39F40A2661F0232B242B252B21F4CA
:1056900008950A2609F4A140A6958FEF811D811D6A
:1056A000089597F99F6780E870E060E008959FEFA4
:1056B00080EC089500240A941616170618060906A9
:1056C000089500240A941216130614060506089578
:1056D000092E0394000C11F4882352F0BB0F40F400
:1056E000BF2B11F460FF04C06F5F7F4F8F4F9F4F40
:1056F000089557FD9058440F551F59F05F3F71F0C2
:105700004795880F97FB991F61F09F3F79F0879528
:105710000895121613061406551FF2CF4695F1DFB1
:1057200008C0161617061806991FF1CF8695710541
:10573000610508940895E894BB2766277727CB0175
:1057400097F908958ADF08F48FEF08950BD0C0CF42
:10575000B1DF28F0B6DF18F0952309F0A2CFA7CF6C
:105760001124EACFC6DFA0F3959FD1F3950F50E047
:10577000551F629FF001729FBB27F00DB11D639F03
:10578000AA27F00DB11DAA1F649F6627B00DA11DA9
:10579000661F829F2227B00DA11D621F739FB00D4F
:1057A000A11D621F839FA00D611D221F749F3327BF
:1057B000A00D611D231F849F600D211D822F762F58
:1057C0006A2F11249F5750408AF0E1F088234AF055
:1057D000EE0FFF1FBB1F661F771F881F91505040A1
:1057E000A9F79E3F510570F05CCFA6CF5F3FECF369
:1057F000983EDCF3869577956795B795F795E7958D
:105800009F5FC1F7FE2B880F911D9695879597F99D
:10581000089523DF880B990B0895629FD001739F31
:10582000F001829FE00DF11D649FE00DF11D929F3C
:10583000F00D839FF00D749FF00D659FF00D99277B
:10584000729FB00DE11DF91F639FB00DE11DF91F9F
:10585000BD01CF0111240895AA1BBB1B51E107C054
:10586000AA1FBB1FA617B70710F0A61BB70B881FF0
:10587000991F5A95A9F780959095BC01CD0108957F
:10588000A1E21A2EAA1BBB1BFD010DC0AA1FBB1F44
:10589000EE1FFF1FA217B307E407F50720F0A21BB6
:1058A000B30BE40BF50B661F771F881F991F1A9423
:1058B00069F760957095809590959B01AC01BD014D
:1058C000CF01089597FB092E05260ED057FD04D071
:1058D000D7DF0AD0001C38F45095409530952195BB
:1058E0003F4F4F4F5F4F0895F6F790958095709515
:1058F00061957F4F8F4F9F4F0895EE0FFF1F0590CB
:10590000F491E02D09942F923F924F925F926F9203
:105910007F928F929F92AF92BF92CF92DF92EF923F
:10592000FF920F931F93CF93DF93CDB7DEB7CA1BC0
:10593000DB0B0FB6F894DEBF0FBECDBF09942A88EB
:10594000398848885F846E847D848C849B84AA8493
:10595000B984C884DF80EE80FD800C811B81AA8120
:10596000B981CE0FD11D0FB6F894DEBF0FBECDBFEB
:10597000ED010895F894FFCF5F00537461636B3AB3
:105980002000556E697420416464726573733A2017
:105990000052656164206661696C006E616E006929
:1059A0006E66006F7666002E000100000060EA005F
:1059B0000088130000F4010000010441726475695D
:1059C0006E6F2D3030003703010306FF638253638F
:1059D000350150000100010A7B0100000000440471
:1059E0006227303132333435363738396162636497
:1059F000656600000000F80AC70A800A890A9E0A44
:105A0000AF0AFFFFFFFFFFFFFFFFFFFFFFFF0000E9
:105A10000000BD266227532684266426AD26006931
:105A20006E66006F7666002E000100000060EA00DE
:105A30000088130000F401000001044172647569DC
:105A40006E6F2D3030003703010306FF638253630E
:105A5000350150000100010A7B01000000004404F0
:105A60006227303132333435363738396162636416
:105A7000656600000000F80AC70A800A890A9E0AC3
:105A800000000000F80AC70A800A890A9E0AAF0AC5
:105A9000FFFFFFFFFFFFFFFFFFFFFFFF0000000012
:105AA000882989251E294F292F29782900696E66A2
:105AB000006F7666002E000100000060EA0000889A
:105AC000130000F4010000010450000100010A7BF2
:105AD00041726475696E6F2D303000370301030623
